:100000000C9409020C94D9280C94AE280C948328E3
:100010000C9458280C942D280C9402280C94D72763
:100020000C94AC270C943A020C943A020C943A02C9
:100030000C943A020C943A020C943A020C943A0250
:100040000C943A020C943A020C943A020C943A0240
:100050000C943A020C943A020C943A020C946227E3
:100060000C943A020C9464290C943A020C943A02CF
:100070000C94A72A0C94D02A0C943A020C943A02BD
:100080000C943A020C943A020C943A020C943A0200
:100090000C943A020C943A020C943A020C943A02F0
:1000A0000C943A020C943A020C943A020C943A02E0
:1000B0000C943A020C943A020C943A020C943B2AA7
:1000C0000C943A020C943A020C943A020C942E29A5
:1000D0000C9404290C943A020C943A020C943A02BF
:1000E0000C943A020C9437060C94500D0C94D71AC9
:1000F0000C94F1050C9455270C94AA0D0C946520D2
:100100000C94180D0C94CE050C9450250C94DA1D0B
:100110000C94E81F0C9488250C942E210C94CB177A
:100120000C9425190C949B0D0C94A1230C947D0325
:100130000C94321E0C947E1F0C946E150C94901629
:100140000C94C51B0C943D170C940A0D0C9475036C
:100150000C94730D0C94A0050C9457270C944C032D
:100160000C944B1B0C946F200C94B31F0C945A0DE1
:100170000C9471240C94F4240C94841D0C948B1610
:100180000C94BB220C9442030C94CD180C94811D4A
:100190000C9457030C94A1050C9470050C948005E5
:1001A0000C943B150C94640D0C9488050C945D0321
:1001B0000C94460D0C943E0D0C94DE080C94A42473
:1001C0000C947D0D0C94EA220C9450030C942C0D8D
:1001D0000C945F220C9482030C94A4180C94CC24ED
:1001E0000C94461B0C94381B0C9484060C947820B9
:1001F0000C94C2210C94071B0C94841B0C945B2060
:100200000C9402270C94E8240C944E2B0C941F0C95
:100210000C94360D0C94A50D0C9495160C944F1D52
:100220000C9417230C948D200C94130D0C9411092D
:100230000C94870D0C94EA200C94FC1F0C9467031B
:100240000C94F7210C9487030C947E1D0C94DE1AF9
:100250000C94D8240C9483030C94541B0C945B1DB5
:100260000C9461030C94B51B0C943D230C94F91B66
:100270000C94910D0C94FF050C94220D0C947903B1
:100280000C945E0C0C947E180C945C190C9448032E
:100290000C94651D0C9498050C9454030C941E202A
:1002A0000C94BD0E0C943E180C9490050C94D01F29
:1002B0000C946F030C9494090C94860B0C946B03B0
:1002C0000C94DD050C94A61A0C94731E0C9445171F
:1002D000005EBCE2613FDD83C29C7E20A3FD1F4126
:1002E000009D23BE46DB65F88C11AF32CA57E97416
:1002F00000002100240027002A002D0030003300D8
:1003000001010000040107010A010000220025008C
:1003100028002B002E0031003400020100000501EE
:1003200008010B01000020002300260029002C00FA
:100330002F0032000001000003010601090105053C
:100340000505070508080808020202020A0A08084B
:100350000404040401010101010101010303030379
:1003600003030303040707070C0C0C0C0C0C0C0C08
:100370000202020206060606060606060B0B0B0B19
:100380000B0B0B0B0102102020080810204010203E
:100390004080020102010804020101020408102049
:1003A0004080804020100804020180040201804047
:1003B00020100804020108040201010204081020B0
:1003C0004080010204081020408000000A0B02094E
:1003D0000C0D0E08070304010000000000000000DF
:1003E000000000000000000000000000000000000D
:1003F00000000000000012111000000000000000CA
:1004000000000000000000000000000000000000EC
:100410004E2B11241FBECFEFD1E2DEBFCDBF00E0D7
:100420000CBF19E0A0E0B2E0E6E5F9E600E00BBFA2
:1004300002C007900D92A63CB107D9F720E1A6ECC7
:10044000B9E001C01D92A632B207E1F712E0C9E09F
:10045000D2E000E006C021970109802FFE010E9432
:100460004132C830D10780E00807A9F70E94632F06
:100470000C94A9340C940000E1E4FAE0A089B1895D
:1004800082E08C93A485B5851C92A685B78580E112
:100490008C93108EA489B58986E08C93A289B38948
:1004A0008C9180618C93A289B3898C9188608C93A4
:1004B000A289B3898C9180688C930288F389E02D9E
:1004C00080818F7D808308958091F40E882311F1BF
:1004D00081E090E09093F30E8093F20E10920A1058
:1004E00010920C1010920B101092101010920E100F
:1004F00010920D1010920F108091FD0F8093081034
:100500008091FE0F80930910109213101092121018
:10051000109214100895FC0190E1A3E1BDE0019058
:100520000D929A95E1F780911F0D9091200DB0E00A
:10053000A0E0E2E7FDE08093EA0D9093EB0DA0933D
:10054000EC0DB093ED0D8093EE0D9093EF0DA09315
:10055000F00DB093F10D86E89BE09093F40D80933D
:10056000F30D1092F20DA5EFBDE08C9183608B7FAF
:100570008C938091210D9091220DB0E0A0E08083BA
:100580009183A283B38384839583A683B78383E710
:100590009EE1928781871086EDE7FDE08081836090
:1005A0008B7F808383E19DE09093EA0F8093E90F36
:1005B00084E690E09093D10F8093D00F9093850FB5
:1005C0008093840F08959C014FB7F8948091580B45
:1005D000E091570B81111CC081E08E0F8093570B67
:1005E00093E0E99FF0011124E252F54F318320831B
:1005F0006283883211F41092570B9091570B8091BF
:10060000560B981303C081E08093580B4FBF089599
:100610009091560B9F5F9832A1F09093560B91E00A
:100620009E0F9093570B83E0E89FF0011124E25254
:10063000F54F318320836283983241F71092570B34
:10064000E5CF1092560BEBCF8150823108F05AC0A3
:10065000E82FF0E08827E05DFC4F8F4F0C9441328B
:1006600050035403420348034C03820357035D03C2
:10067000610367036B036F037503790382037D03D3
:1006800083038703809180008F7780938000089593
:10069000809180008F7DF9CF80918000877FF5CF9A
:1006A00084B58F7784BD089584B58F7DFBCF80910D
:1006B000B0008F778093B00008958091B0008F7D57
:1006C000F9CF809190008F7780939000089580916A
:1006D00090008F7DF9CF80919000877FF5CF80913A
:1006E000A0008F778093A00008958091A0008F7D57
:1006F000F9CF8091A000877FF5CF809120018F777F
:10070000809320010895809120018F7DF9CF809101
:100710002001877FF5CFCF93DF93282F30E0F901B9
:10072000E653FC4F8491F901EC57FC4FD491F90149
:10073000E25CFC4FC491CC23A1F081110E94240300
:10074000EC2FF0E0EE0FFF1FEC5DFC4FA591B49194
:10075000EC91ED2381E090E009F480E0DF91CF910E
:10076000089580E090E0FACFCF93DF93EC011882F8
:1007700019821A821B821C821D821E821F828EE0B9
:100780000E948B039A8180FB90F99A838DE00E94EE
:100790008B039A8180FB91F99A838CE00E948B03F2
:1007A0009A8180FB92F99A83E2EFFEE0888193853B
:1007B00090FB85F9928990FB86F9918D90FB87F9E2
:1007C0008883898190A190FB80F9898389E10E94C7
:1007D0008B03998180FB91F9998388E10E948B03B7
:1007E000998180FB92F9998387E10E948B0399811B
:1007F00080FB93F9998380E10E948B03998180FBB0
:1008000094F999838FE00E948B03998180FB95F97D
:10081000998386E10E948B03998180FB96F99983E5
:1008200081E10E948B03998180FB97F999838CE287
:100830000E948B039A8180FB93F99A838EE20E9437
:100840008B039A8180FB94F99A838DE20E948B033B
:100850009A8180FB95F99A838FE20E948B039A819B
:1008600080FB96F99A8385E20E948B039A8180FB34
:1008700097F99A8384E20E948B039B8180FB90F915
:100880009B8387E20E948B039B8180FB91F99B8372
:1008900086E20E948B039B8180FB92F99B8389E215
:1008A0000E948B039B8180FB93F99B8388E20E94CB
:1008B0008B039B8180FB94F99B838BE20E948B03CB
:1008C0009B8180FB95F99B838AE20E948B039B812D
:1008D00080FB96F99B8385E30E948B03988180FBC4
:1008E00090F998838FE10E948B03988180FB92F9A5
:1008F00098838BE10E948B03988180FB91F9988308
:100900008DE10E948B03988180FB93F998838EE19F
:100910000E948B03988180FB94F99883DF91CF919B
:1009200008951F93CF93DF93282F30E0F901E6530A
:10093000FC4F8491F901EC57FC4FD491F901E25C32
:10094000FC4FC491CC23A9F0162F81110E942403DF
:10095000EC2FF0E0EE0FFF1FE65FFC4FA591B49186
:100960008FB7F894EC91111108C0D095DE23DC9379
:100970008FBFDF91CF911F910895DE2BF8CFCF93DA
:10098000DF9390E0FC01EC57FC4F2491825C9C4F7C
:10099000FC0184918823C9F090E0880F991FFC0125
:1009A000E051FD4FA591B491FC01E65FFC4FC5916C
:1009B000D49161110DC09FB7F8948C91209582233A
:1009C0008C938881282328839FBFDF91CF9108953E
:1009D000623051F49FB7F8943C91822F8095832325
:1009E0008C93E8812E2BEFCF8FB7F894EC912E2BC0
:1009F0002C938FBFEACF863308F0865320917B007B
:100A0000982F9870277F922B90937B00877080643B
:100A100080937C0080917A00806480937A0080913A
:100A20007A0086FDFCCF809178009091790008953E
:100A30003FB7F8948091360A9091370AA091380A0E
:100A4000B091390A26B5A89B05C02F3F19F0019631
:100A5000A11DB11D3FBFBA2FA92F982F8827BC0118
:100A6000CD01620F711D811D911D42E0660F771F40
:100A7000881F991F4A95D1F708958F929F92AF9240
:100A8000BF92CF92DF92EF92FF926B017C010E94A6
:100A900018054B015C01C114D104E104F104B9F063
:100AA0000E941805681979098A099B09683E7340F4
:100AB0008105910580F321E0C21AD108E108F1080F
:100AC00088EE880E83E0981EA11CB11CE4CFFF9035
:100AD000EF90DF90CF90BF90AF909F908F90089550
:100AE000CF93C0912F0A81E0C827C0932F0A61E0FD
:100AF00084E30E94BF046C2F84E3CF910C94910493
:100B0000E7E3FCE0838194810196948383830895D5
:100B1000E7E3FCE0808591850196918780870895C1
:100B2000E7E3FCE08585968501969687858708959D
:100B3000E7E3FCE0828993890196938B828B089589
:100B40000895AF92BF92CF92DF92EF92FF920F93F0
:100B50001F93CF93DF936C017B018B01040F151F53
:100B6000EB015E01AE18BF08C017D10759F06991BB
:100B7000D601ED91FC910190F081E02DC60119950F
:100B8000892B79F7C501DF91CF911F910F91FF90CC
:100B9000EF90DF90CF90BF90AF900895FC01538D00
:100BA000448D252F30E0842F90E0821B930B541747
:100BB00010F0CF96089501970895FC01918D828DD4
:100BC000981761F0A28DAE0FBF2FB11D5D968C916D
:100BD000928D9F5F9F73928F90E008958FEF9FEFAC
:100BE0000895FC01918D828D981731F0828DE80F68
:100BF000F11D858D90E008958FEF9FEF0895FC0122
:100C0000918D228D892F90E0805C9F4F821B9109EE
:100C10008F739927089581E49AE00E94FF0521E0EF
:100C2000892B09F420E0822F0895FC01A48DA80FE0
:100C3000B92FB11DA35ABF4F2C91848D90E001961E
:100C40008F739927848FA689B7892C93A089B1893E
:100C50008C91837080648C93938D848D981306C0DF
:100C60000288F389E02D80818F7D80830895EF9243
:100C7000FF920F931F93CF93DF93EC0181E0888F56
:100C80009B8D8C8D98131AC0E889F989808185FF26
:100C900015C09FB7F894EE89FF896083E889F989C8
:100CA00080818370806480839FBF81E090E0DF91CA
:100CB000CF911F910F91FF90EF900895F62E0B8D1D
:100CC00010E00F5F1F4F0F731127E02E8C8D8E11D8
:100CD0000CC00FB607FCFACFE889F989808185FF3F
:100CE000F5CFCE010E941506F1CFEB8DEC0FFD2F55
:100CF000F11DE35AFF4FF0829FB7F8940B8FEA89FA
:100D0000FB8980818062CFCFCF93DF93EC01888D08
:100D10008823B9F0AA89BB89E889F9898C9185FD76
:100D200003C0808186FD0DC00FB607FCF7CF8C9104
:100D300085FFF2CF808185FFEDCFCE010E941506A1
:100D4000E9CFDF91CF91089580E090E0892B49F0C1
:100D500080E090E0892B29F00E94000081110E9420
:100D6000000080E090E0892B49F080E090E0892B42
:100D700029F00E94000081110E94000080E090E0B4
:100D8000892B29F00E940B0681110E94000080E04F
:100D900090E0892B49F080E090E0892B29F00E94B7
:100DA000000081110C9400000895DC0180E0615086
:100DB00090F09D919827E92FEF70F0E0E053FD4F00
:100DC0002491E92FE295EF70F0E0E052FD4FE491BD
:100DD000822F8E27ECCF0895DC012C911196ED9196
:100DE000FC91F8948181822B81839281322F3095FE
:100DF0009323928387E090E00197F1F78181832329
:100E0000818383E290E00197F1F790817894EFEC91
:100E1000F0E03197F1F7922381E009F480E0089542
:100E2000FC0190810180F281E02D292F209560FF47
:100E300014C0F8948281822382838181892B8183EB
:100E4000A3E2B0E01197F1F78281982B9283789416
:100E500087ED90E00197F1F70895F894828182235D
:100E600082838181892B8183AFEFB0E01197F1F705
:100E70008281982B928378948FE090E0EBCFDF9281
:100E8000EF92FF920F931F93CF93DF93EC01D62E37
:100E9000E42E08E010E0FF24F39461E08D2D8F2113
:100EA00009F460E0CE010E941007FF0C0150110907
:100EB000A1F7E11010C0F894E981FA81918188814D
:100EC000809589238183E981FA8192818881809547
:100ED000892382837894DF91CF911F910F91FF90A6
:100EE000EF90DF900895EF92FF920F931F93CF93AF
:100EF000DF938C017B0140E065E50E943F07E7013D
:100F000088E0E80EF11C699140E0C8010E943F07AB
:100F1000CE15DF05C1F7DF91CF911F910F91FF90A3
:100F2000EF900895FC0190810180F281E02DF8940A
:100F30008181292F20958223818378943DE743E0A6
:100F400050E0315029F1DA011197F1F780818923BE
:100F5000C1F3F8948281822382838181892B8183EA
:100F60007894ABE7B7E01197F1F7F8948181822389
:100F70008183A3E1B1E01197F1F78081982381E0AB
:100F800009F080E07894E3E6F6E03197F1F7089510
:100F900080E008958F929F92AF92BF92CF92DF929E
:100FA000EF92FF920F931F93CF93DF9300D01F9286
:100FB0001F92CDB7DEB78C01DC0119968D919C9103
:100FC0000E94920740E06CECF801818592850E94B6
:100FD0003F07D8014C9164E419968D919C910E9431
:100FE0003F078FB7F894C090320AD090330AE09050
:100FF000340AF090350A8FBFF8018481811120C036
:1010000081E08983CA82DB82EC82FD8229813A8178
:101010004B815C816D8170E080E090E00F900F90DB
:101020000F900F900F90DF91CF911F910F91FF9034
:10103000EF90DF90CF90BF90AF909F908F900895EA
:1010400085818823F9F0808181111CC0F801818598
:1010500092850E94EC06813099F22FB7F894809126
:10106000320A9091330AA091340AB091350A2FBF09
:101070008C199D09AE09BF098E3E9240A105B105AC
:1010800028F3BECFD8011396EC91E9508EEE92E092
:10109000E33038F4F0E0EE0FFF1FE05DFD4F80819C
:1010A00091814C01B12CA12CF8018181882321F080
:1010B00060E082810E949104C501B4010E943D0557
:1010C000D80111968C911197882309F499CF61E08A
:1010D00012968C910E94910493CF4F925F926F92DF
:1010E0007F928F929F92AF92BF92CF92DF92EF92B8
:1010F000FF920F931F93CF93DF938C017B01EA0143
:10110000FC01818592850E9492078823D9F1B7015D
:10111000F801818592850E94730740E06EEBF8012B
:10112000818592850E943F076E015E01F9E0AF0E56
:10113000B11C7E01F8018184928488E0682E712CB4
:10114000512C44244394C4010E94EC06811154287C
:10115000440CF1E06F1A7108B1F7F70151927F0169
:10116000AE16BF0639F7F801818592850E94920775
:10117000813041F4F60181916F01811105C0EE15B6
:10118000FF05C1F790E008C068E0CE010E94D506D7
:1011900091E028852813F6CF892FDF91CF911F91F9
:1011A0000F91FF90EF90DF90CF90BF90AF909F9006
:1011B0008F907F906F905F904F900895EBE4FCE0EC
:1011C000A281B38113968D919C91149714961C92D1
:1011D0001E92139795838483A285B38513968D9170
:1011E0009C91149714961C921E921397958784874E
:1011F000A289B38913968D919C91149714961C9291
:101200001E921397958B848BA28DB38D13968D911F
:101210009C91149714961C921E921397958F848F0D
:1012200008951092C50DEDE3FAE08081877F8083F9
:101230000895CF93DF93A0E0B2E0FD0190E021910B
:1012400031912817390721F4EF012297198218826A
:1012500022E0E031F20799F78D919D91892B41F4BD
:1012600082E0A031B807C1F781E0DF91CF91089506
:1012700080E0FBCFFC0121812150330B70E060E066
:10128000472F50E0421753073CF4480F591FFA010B
:101290004081640F7F5FF4CF820F931FFC01608356
:1012A0000895FC0181E08083658385E082838091DD
:1012B000110DA0E0B2E020E132E04D915D91452BAF
:1012C000E1F42A173B07C9F791E08F7E90FF806118
:1012D0009091C60990FB81F98383F89490916F0DEA
:1012E00080916E0D91110BC090916D0D981307C0F8
:1012F0007894148287E08183089590E0E6CF90E0AF
:10130000A0916A0DB0916B0DA80FB91F2C91019699
:1013100060916C0D70E00E942D3280936E0D1092E2
:101320006F0D78942483E6CFCF93DF93CDB7DEB7EC
:10133000C456D1090FB6F894DEBF0FBECDBF66E02C
:10134000CE0101960E945109CE0101960E943A09F0
:10135000CC59DF4F0FB6F894DEBF0FBECDBFDF9183
:10136000CF910895CF93DF93EC0167E00E9451097C
:10137000CE01DF91CF910C943A09E1ECF0E080814D
:101380008068808308951F93CF93DF93EC011986C3
:101390001EAAFC01E05CFF4F10829FAD319680E0F9
:1013A000981719F011928F5FFBCFFE01E55BFF4F9D
:1013B00010823197108210E08FAD181750F4EA8137
:1013C000FB81E10FF11D60E080810E9491041F5FAD
:1013D000F3CFDF91CF911F910895CF93DF93EC016D
:1013E0000E94C309ED81FE812F8138858CA99DA9BA
:1013F000B0E0A0E080839183A283B383848395834C
:10140000A683B783328721878BE0808783858160BD
:101410008D7F8B7F8387DF91CF9108953F924F928D
:101420005F926F927F928F929F92AF92BF92CF9274
:10143000DF92EF92FF920F931F93CF93DF9300D031
:1014400000D0CDB7DEB79E838D83062F10E08FB717
:10145000F894C090320AD090330AE090340AF090A9
:10146000350A8FBFED81FE8180A991A9A2A9B3A9F8
:10147000C81AD90AEA0AFB0AC701B6010E947733E3
:1014800020E030E04AE754E40E94CF32AD81BE81D3
:1014900094966D937D938D939C939797FD01C0A235
:1014A000D1A2E2A2F3A22FB7F8948091320A9091D0
:1014B000330AA091340AB091350A2FBFED81FE8125
:1014C00080AB91ABA2ABB3AB158704876285738504
:1014D000601B710BE6A4F7A4E01AF10A17A706A790
:1014E00081A5882331F0719561957109F194E1949A
:1014F000F108AD81BE8198963C90072E000C880BB8
:10150000990B0E9479334B015C0110E000E031102F
:101510000BC0ED81FE8120893189428953890E9467
:101520002E340E9441338B01B701FF0C880B990BBD
:101530000E9479336B017C01AD81BE8194968D91BF
:101540009D910D90BC91A02D89839A83AB83BC8320
:10155000ED81FE81208D318D428D538DC701B60105
:101560000E942E3429813A814B815C810E94CF32C6
:101570002B013C01B801110F880B990B0E947933A4
:101580009B01AC01C301B2010E945E320E94413353
:101590002B01AD81BE811F967C936E931E9754964E
:1015A0002D913D914D915C915797C501B4010E94D9
:1015B0002E3429813A814B815C810E942E34ED8149
:1015C000FE81248D358D468D578D0E945E324B01F4
:1015D0005C01AD81BE815C968D929D92AD92BC9274
:1015E0005F973320A1F050962D913D914D915C91E4
:1015F0005397C701B6010E942E34A50194010E94A1
:101600005E32ED81FE81648F758F868F978FAD81FD
:10161000BE815C968C905C975D969C905D975E9683
:10162000AC905E975F96BC905F979A960D911C91D7
:10163000B801012E000C880B990B0E9479336B01C5
:101640007C019B01AC01B401C5010E94CA3287FD37
:1016500016C0ED81FE8164A575A5072E000C880BD0
:10166000990B0E9479336B017C019B01AC01B401A1
:10167000C5010E942934181614F064017501C601D1
:10168000D701ED81FE81848F958FA68FB78FB20130
:10169000550C880B990B0E9479339601A7010E9483
:1016A0005E320E944133601771074CF0AD81BE81FC
:1016B0009C960D911C91601771070CF48B01ED81C4
:1016C000FE811787068706ABE55BFF4FAD81BE81C4
:1016D00014968C91081708F4802F808326960FB6F5
:1016E000F894DEBF0FBECDBFDF91CF911F910F9158
:1016F000FF90EF90DF90CF90BF90AF909F908F9032
:101700007F906F905F904F903F900895CF93DF93BD
:10171000CDB7DEB768970FB6F894DEBF0FBECDBF6A
:10172000EBE4FCE0DE01119644A955A966A977A96E
:101730004D935D936D937D9378968CE0EB3DF80728
:1017400099F78091590F882351F069817A818B81B3
:101750009C810E94483380E59FE00E940E0A8091A0
:10176000A50F882391F069817A818B819C810E94E9
:1017700048338CE99FE068960FB6F894DEBF0FBE41
:10178000CDBFDF91CF910C940E0A68960FB6F894F6
:10179000DEBF0FBECDBFDF91CF910895CF92DF9214
:1017A000EF92FF920F931F93CF93DF9300D000D05F
:1017B0001F921F92CDB7DEB7FC018E010F5F1F4F46
:1017C00088E0D8011D928A95E9F74285C180E080C2
:1017D0002E2D30E0842FF12CDD24D394CF100EC0B9
:1017E000CF010296B801562F501B5E1590F4DB0115
:1017F0005D91BD01DC015D93CD01F5CF90E0D80195
:10180000A80FB91FDC920196B9010E942D32F39402
:10181000E5CF842F90E00196B9010E942D32828796
:1018200028960FB6F894DEBF0FBECDBFDF91CF91E3
:101830001F910F91FF90EF90DF90CF9008951F932D
:10184000CF93DF93FC0181858823A1F1DF01A65BA3
:10185000BF4F9C91EF01C55BDF4F8881981730F532
:101860009F5F9C939F01205C3F4F97AD8C91981791
:1018700008F4892FEF01F9018083CE01CF960E94F1
:10188000CE0B10E08FAD1817A8F4812F90E0DE0189
:10189000A80FB91FAF5BBF4FEA81FB81E80FF91FAB
:1018A0006C9180810E9491041F5FECCF8917D0F664
:1018B0009150D7CFDF91CF911F91089580E59FE0A0
:1018C0000E941F0C8CE99FE00C941F0CEF92FF927A
:1018D0001F93CF93DF93EC0110E08C811817A0F4D5
:1018E000E12EF12CEA81FB81EE0DFF1D61E080818C
:1018F0000E94BF04EA81FB81EE0DFF1D60E0808144
:101900000E9491041F5FE9CFFE01E05CFF4F10824F
:10191000CE01CF96DF91CF911F91FF90EF900C9465
:10192000CE0B81E20E948B0321E0892B09F420E099
:10193000822F0895FC018181861799F0618381E0EF
:1019400090E0938382838081861751F0662381F033
:1019500084819581228133812817390708F06083BB
:101960000895828193818F3F980769F30196E9CFAB
:1019700086819781EFCFFC018181882331F08381BB
:10198000DB018C93858111968C9308950F931F939F
:10199000CF93DF93FC012081222309F43FC0162F4F
:1019A000C62FD0E0D683C583028161E0802F0E94DC
:1019B000BF04209741F460E0802FDF91CF911F9109
:1019C0000F910C949104CF3FD10511F461E0F4CF55
:1019D000E02FF0E0E653FC4FE491E150E23108F0F3
:1019E000B4C0F0E08827E850F34F8F4F0C94413299
:1019F0000A0D130D180D220D2C0DA50D360D3E0DE3
:101A0000460D500D5A0D640D730D7D0DA50D870DFE
:101A1000910D9B0D84B5806884BD17BDDF91CF917A
:101A20001F910F91089584B5806284BD18BDF6CFD3
:101A300080918000806880938000D0938900C0935B
:101A40008800ECCF80918000806280938000D093EA
:101A50008B00C0938A00E2CF8091800088608093E1
:101A60008000D0938D00C0938C00D8CF8091B000BF
:101A700080688093B0001093B300D0CF8091B00005
:101A800080628093B0001093B400C8CF8091900022
:101A9000806880939000D0939900C0939800BECF47
:101AA00080919000806280939000D0939B00C093BF
:101AB0009A00B4CF80919000886080939000D0937A
:101AC0009D00C0939C00AACF8091A0008068809365
:101AD000A0008091A0008F7B8093A000D093A900EC
:101AE000C093A8009BCF8091A00080628093A0004B
:101AF000D093AB00C093AA0091CF8091A0008860E2
:101B00008093A000D093AD00C093AC0087CF8091AC
:101B10002001806880932001D0932901C09328017F
:101B20007DCF80912001806280932001D0932B0192
:101B3000C0932A0173CF8091200188608093200197
:101B4000D0932D01C0932C0169CFC038D1050CF082
:101B50003DCF31CF0F931F93CF93DF9383E20E944A
:101B60008B038C0182E20E948B03EC0161E0012B6C
:101B700009F460E087E39DE00E949A0C61E0CD2BC0
:101B800009F460E08FE39DE00E949A0C8091370D8C
:101B90008093470D90913F0D9093480D23E0911154
:101BA00003C021E0811122E02093490D20911A10F9
:101BB000222309F448C020912210222309F443C0B3
:101BC0002091E80F21113FC0992351F18091FA0F24
:101BD00080930910109208106091081060931910FA
:101BE00080911B10882329F1809117109091181073
:101BF0000E94C60C60910910609321108091221000
:101C0000882309F1809123108823C1F080911F104F
:101C100090912010DF91CF911F910F910C94C60CE1
:101C20008111DACF8091F90F80930810109209107A
:101C3000D3CF8091151090911610DACF80911D109E
:101C400090911E10E7CFDF91CF911F910F910895D2
:101C5000CF93DF93EC012881211121C021E028835B
:101C60002981211117C08A81813171F48091D000BE
:101C700080648093D0008091D100877E8093D100D2
:101C800061E081E10E94BF0461E08A81DF91CF9130
:101C90000C9491046D81DF91CF910C94C60CDF916F
:101CA000CF910895CF93DF93EC01862F68835A83F9
:101CB00049831C821B8262E00E94BF0429813A8111
:101CC0009881923069F43093110220931002809130
:101CD0006A00836080936A00EC9ADF91CF91089547
:101CE000933059F4309313022093120280916A00CA
:101CF0008C6080936A00ED9AF0CF8EEE890F84306D
:101D000060F787E1891BE82FF0E0EE0FFF1FE05F2F
:101D1000FD4F31832083843091F08530B9F08330DA
:101D200039F080916900836080936900E89AD5CF8B
:101D3000809169008C6080936900E99ACECF809190
:101D40006900806380936900EA9AC7CF8091690037
:101D5000806C80936900EB9AC0CFFC0124813581AF
:101D6000868197812817390728F081E090E09183D8
:101D7000808308951182108208958BE49CE00E9474
:101D8000AD0E83E59CE00E94AD0E8BE59CE00E94C9
:101D9000AD0E83E69CE00C94AD0EFC01118260E078
:101DA00080810C949104FC01108260E081810C948C
:101DB0009104F89490916F0D992359F08091700DD2
:101DC0009091710D01969093710D8093700D7894A0
:101DD000089520916D0D30E0E0916A0DF0916B0D4A
:101DE000E20FF31F8083C901019660916C0D70E0D2
:101DF0000E942D3280936D0D90916E0D9813E7CF58
:101E000081E080936F0DE3CFBF92CF92DF92EF928C
:101E1000FF920F931F93CF93DF93EC01B62EC72E43
:101E20008D85811105C0CE010E94920781110EC0DF
:101E30001B861D861C8680E0DF91CF911F910F913C
:101E4000FF90EF90DF90CF90BF90089540E060EF5B
:101E5000CE010E943F0701E0E12CD12C11E0CE0120
:101E60000E94EC06F82ECE010E94EC0691E0F912D9
:101E700018C0813099F51134D8F2DB86D11002C038
:101E800081E08D878B81882399F22396EB2DFC2DA1
:101E9000CF01089629912193E817F907D9F781E036
:101EA000CBCFEE2DF0E0F8120FC08B851817A0F401
:101EB000DE01AE0FBF1F13968C91802379F4F12CB5
:101EC000193008F41C87D12EEC0FFD1F8381902F51
:101ED0009095892383830AC08113F1CFFE01EE0D13
:101EE000F11D8381802B8383FF24F3946F2DCE011A
:101EF0000E9410071F5F000F11F4E39401E087E0D8
:101F00008E1508F0ACCFB7CFCF93DF93EB01DC0198
:101F10001996ED91FC911A971386158614861286F0
:101F200011861086178216821582148213821996E2
:101F30008D919C910E94040F982F882341F067E0B7
:101F4000CE010E94D50691E02F81281390E0892FC1
:101F5000DF91CF9108958F929F92AF92BF92EF92AF
:101F6000FF920F931F93CF93DF93CDB7DEB76197A7
:101F70000FB6F894DEBF0FBECDBF7C01FC0100851B
:101F80001185F8018781882309F46BC0BE01665F63
:101F90007F4FC8010E94840F882309F462C0AE01FC
:101FA0004F5F5F4FBE01665F7F4FC8010E946D08A3
:101FB000882309F456C08A81812C912C540187FF13
:101FC00006C0812C912CF8EFAF2EBB24BA949A85D1
:101FD00049819B3309F057C02D8127FF54C040FD34
:101FE00040C0042F10E030E020E073E0000F111F2C
:101FF000221F331F7A95D1F7B901A801407E57708F
:102000006627772790E0B0E0A0E08C019D01EBE02F
:10201000000F111F221F331FEA95D1F7042B152B38
:10202000262B372B082919292A293B29013854EE58
:1020300015075FEF25073507A4F0C901B8010E9415
:10204000793320E030E040E05CE30E942E344B0125
:102050005C0120E030E04EEF52EC0E94CA32811168
:1020600058C0F70186899789248935898217930793
:1020700018F40196978B868B812C912C8EEFA82ECD
:1020800082ECB82E49C0082F10E0102F0027110F46
:10209000110F110FF8E04F9FA0011124042B152BF5
:1020A000012E000C220B330B082919292A293B2960
:1020B000903109F0BBCF6885662309F4B7CF70E093
:1020C0008F81AB01481B5109CA019695982F88272B
:1020D000979587950E942D32CB01770FAA0BBB0BEA
:1020E00053E0000F111F221F331F5A95D1F70078BC
:1020F000277033270052110921093109800F911FE0
:10210000A21FB31F95018401082B192B2A2B3B2BEF
:102110008DCFF701178A168A81E0F7014689578922
:10212000248935894217530708F480E0F701838B2F
:10213000808591850E94CA07F701838981111AC0A1
:1021400080829182A282B382F70160817181828153
:10215000938161960FB6F894DEBF0FBECDBFDF91BD
:10216000CF911F910F91FF90EF90BF90AF909F90F4
:102170008F90089580E090E0AAE7B4EC808391838B
:10218000A283B383E1CFBF92CF92DF92EF92FF920F
:102190000F931F93CF93DF93CDB7DEB761970FB641
:1021A000F894DEBF0FBECDBF7C018B01DC01199618
:1021B0007C936E93189783E0D82ECC24C394D801D7
:1021C0001996ED91FC911A9713861586148612863E
:1021D0001186108617821682158214821382179632
:1021E0001C92179718961C9262E370E080E090E0D2
:1021F0000E943D05BE01665F7F4FF8018185928593
:102200000E94040F882309F477C067E0CE010A9684
:102210000E94D50699898913EDCFD80117968C9124
:1022200017978F5F17968C938A85883231F008F064
:102230004AC0803111F08232E9F6F80180858F5F63
:1022400080878081811124C0818592850E949207B8
:10225000BE01665F7F4FD80119968D919C910E94B7
:10226000730740E064EBF801818592850E943F0787
:10227000D80119968D919C910E94EC06B82EF80118
:10228000818592850E949207B11002C0D801CC923C
:102290008A85803119F1AE014F5F5F4FBE01665FE5
:1022A0007F4FC8010E946D08882359F08D819A855F
:1022B0009B3311F487FD12C08F3391F058F48F31A6
:1022C000B9F080E00EC08B3309F4B7CF823409F047
:1022D00091CFB3CF8F3571F08F3799F78CE001C074
:1022E0008AE0F8019381981708F084CF838382CF26
:1022F00089E0F7CF8BE0F5CFD80117969C9191112B
:1023000003C0DA94D1105BCFF701138A178A168ABB
:102310000084F185E02D9781992331F0B701665F44
:102320007F4FCF010E94840FD70152968C93529712
:102330001896ED91FC911997148218968D919C91A5
:102340000E94CA0761960FB6F894DEBF0FBECDBFDC
:10235000DF91CF911F910F91FF90EF90DF90CF9081
:10236000BF9008951F93CF93DF93FC012081222318
:10237000E9F0EC01108212818181882359F061E03B
:10238000812F0E94BF0460E0812FDF91CF911F91C8
:102390000C94910460E0812F0E9491048A81813124
:1023A00029F4DF91CF911F910C943C02DF91CF91E2
:1023B0001F9108951F93CF93DF93EC01888199813A
:1023C0000E94B2118A819B81FC012481222369F041
:1023D0000E94B2111D8281E08F8380E20E94D90E9B
:1023E00080E0DF91CF911F91089511E01E832C8131
:1023F00030E0368325830E94280E8FE10E94D90E9B
:102400001D8381E0EECFCF93DF93EC018D818111AD
:1024100019C09F81911116C02E81222369F08A81F3
:102420009B81FC013481332381F0211108C0CE014E
:10243000DF91CF910C94DA1188819981F2CF81E0FC
:102440008F8380E0DF91CF9108952C8130E0368337
:1024500025830E94280E81E08D83F4CFCF93DF93F4
:10246000EC01888199810E94B2118A819B810E942E
:10247000B2111D82DF91CF910895CF93DF93EC01CC
:102480000E942E12E881F9811482EA81FB81148274
:102490001E821F82DF91CF910895FC0101900020E0
:1024A000E9F73197AF01481B590BBC0181E49AE071
:1024B0000C94A1058F929F92AF92BF920F931F939E
:1024C000CF93DF93CDB7DEB7A1970FB6F894DEBFF9
:1024D0000FBECDBF19A2423008F44AE08E010F5D55
:1024E0001F4F842E912CB12CA12CA50194010E9488
:1024F0000B32E62FB901CA01EA30F4F4E05DD801ED
:10250000EE938D01232B242B252B79F790E080E08F
:10251000109719F0CD010E944D12A1960FB6F894B4
:10252000DEBF0FBECDBFDF91CF911F910F91BF9046
:10253000AF909F908F900895E95CE1CF8F929F922A
:10254000AF92BF92CF92DF92EF92FF92CF93DF9341
:102550006A017B01E9010E944D12C530D10509F0E5
:10256000A5C0A7019601C701B6010E949B3488232C
:1025700091F08AE592E00E944D1286E692E0DF91AA
:10258000CF91FF90EF90DF90CF90BF90AF909F9052
:102590008F900C944D1246015701E894B7F82FEF35
:1025A0003FEF4FE75FE7C501B4010E949B34811103
:1025B0000DC02FEF3FEF4FE75FE7C501B4010E9469
:1025C000CA3218161CF48EE592E0D5CF2FEF3FEFFC
:1025D0004FE75FE4C701B6010E94293418161CF4C6
:1025E00082E692E0C8CF2FEF3FEF4FE75FECC701E5
:1025F000B6010E94CA3287FDF3CF20E030E0A90186
:10260000C701B6010E94CA3287FF09C06DE281E4AA
:102610009AE00E943706F7FAF094F7F8F0942BEA64
:1026200035EC47EA56E3C701B6010E945E326B0102
:102630007C010E9448334B015C010E9477339B016F
:10264000AC01C701B6010E945D326B017C014AE01A
:10265000C501B4010E945A126EE281E49AE00E9420
:102660003706C6E0C15009F488CF20E030E040E2F0
:1026700051E4C701B6010E942E344B015C010E9457
:1026800048336B01F12CE12C4AE0C701B6010E94EE
:102690005A12C701B6010E9477339B01AC01C501F4
:1026A000B4010E945D326B017C01DCCFC701B60131
:1026B0000E9448334C2F0E945A125FCF21E030E035
:1026C0003093100D20930F0D8091110D81608B7F41
:1026D0008093110D8CE291E0A0E0B0E08093A20D18
:1026E0009093A30DA093A40DB093A50D8093A60D78
:1026F0009093A70DA093A80DB093A90D8DEB9EE02C
:102700009093AC0D8093AB0D1092AA0D8091AD0DFE
:1027100081608D7F8B7F8093AD0D8091F40E8B3027
:1027200029F41092340D1092330D0895863029F457
:102730003093340D2093330D08959CEF980F923011
:1027400038F482E090E09093340D8093330D089537
:10275000873079F52AE030E040E050E060E87FE340
:1027600089E692E00E949E128091190D90911A0DB7
:10277000B0E0A0E08093860E9093870EA093880E21
:10278000B093890E80938A0E90938B0EA0938C0E3B
:10279000B0938D0E85E497E19093900E80938F0E09
:1027A00010928E0E8091910E81608D7F8B7F809331
:1027B000910E83E090E0C7CF009711F00E944D1278
:1027C00086E692E00C944D1283E892E00E94DC13BE
:1027D00085E190E10E942E1284EF91E0A0E0B0E04C
:1027E0008093C20E9093C30EA093C40EB093C50EF7
:1027F0008093C60E9093C70EA093C80EB093C90ED7
:102800008CE599E19093CC0E8093CB0E1092CA0E7A
:10281000EDECFEE0808181608D7F8B7F8083089569
:1028200083EA92E00E94DC13EBE4FCE01582148260
:10283000A2E7BDE04CE251E060E070E0D0964D933D
:102840005D936D937C93D397D4964D935D936D93E5
:102850007C93D7978DEB9EE0DA969C938E93D997D5
:10286000D8961C92ADEABDE08C9181608D7F8B7F04
:102870008C9382E090E091838083A281B38114964F
:102880001C921E9213979187808715861486A285C5
:10289000B38514961C921E921397918B808B158A88
:1028A000148AA289B38914961C921E921397918F51
:1028B000808F158E148E028CF38DE02D148213827E
:1028C00008959091F40E981302C080E00895953019
:1028D00061F1A0F49430C9F78B30B9F78BE08093A5
:1028E000F40E8091F70F9091F80F892B71F31092ED
:1028F000F80F1092F70F0E94E413E7CF963071F1B2
:102900009B3019F78430B9F08630F9F68093F40ED5
:102910008091F70F9091F80F0197B9F281E090E064
:102920009093F80F8093F70FE6CF8430A9F6809349
:10293000F40E81E008958093F40E8091F70F90914A
:10294000F80F029741F082E090E09093F80F8093A7
:10295000F70F0E94E4130E941014EBCF8B3009F0A4
:10296000B4CF2AE030E040E050E060E371E488EB6F
:1029700092E00E949E1280E59FE00E94ED098DE0AA
:102980008093F40EA2CF0E94DC131092F30E1092EB
:10299000F20E1092CD0E1092D90E1092E50E85E136
:1029A00090E10E942E128DE190E10E942E1285E1AD
:1029B00090E10E943D128DE190E10E943D1289E17B
:1029C0009FE00E94B21180E29FE00E94B21187E274
:1029D0009FE00E94B2118EE29FE00E94B21185E357
:1029E0009FE00E94B2118CE39FE00E94B21183E449
:1029F0009FE00E94B21187EF9EE00E94D30E89EF04
:102A00009EE00E94D30E8BEF9EE00E94D30E8AE4DC
:102A10009FE00E94CD0E8CE49FE00E94CD0E8EE4DC
:102A20009FE00E94CD0E80E59FE00E94C3098CE9E3
:102A30009FE00E94C3091092F50F1092250E10928C
:102A4000310E1092550E1092490E1092610E109296
:102A50003D0E10926D0E85E190E10E943D128DE1D8
:102A600090E10C943D121092E80F1092870F88EDC0
:102A700092E00C94C314CF93C82F1092DD0D609197
:102A8000F40E70E090E080E00E947733AB01BC016F
:102A90002AE030E088EE92E00E949E128091F40ECF
:102AA0008C3041F48BEF92E00E94C3141092F40E2C
:102AB000CF910895C093F40E88E10E94D90E6C2F37
:102AC00070E090E080E00E947733AB01BC012AE027
:102AD00030E087E093E0CF910C949E12CF93C82F03
:102AE0001092E90D83E293E00E94DC138091F40ED2
:102AF0008D30B1F4C093F40E6C2F70E090E080E064
:102B00000E947733AB01BC012AE030E08BE393E015
:102B10000E949E120E94640286E1CF910C94D90E0D
:102B20008C3031F482E593E00E94C3141092F40ECD
:102B3000CF9108958091F50E9091F60E8330910516
:102B400091F1892B81F18DE593E00E94DC138DE1F9
:102B500090E10E942E1284EF91E0A0E0B0E080931B
:102B6000CE0E9093CF0EA093D00EB093D10E809343
:102B7000D20E9093D30EA093D40EB093D50E85E2CF
:102B800099E19093D80E8093D70E1092D60E809133
:102B9000D90E81608D7F8B7F8093D90E1092F60EB7
:102BA0001092F50E08951092F60E1092F50E8DE12A
:102BB00090E10E9403128DE793E00C94DC130F93D5
:102BC0001F93CF93DF93EC0180912510813021F08A
:102BD000823061F010E004C080E20E94D90E11E062
:102BE000812FDF91CF911F910F9108951D811123A6
:102BF000B9F30E81011118C08881998101E0FC01AF
:102C000004830E94B211CE010E94DA11882329F0B8
:102C10008AE893E00E94DC13DDCF0F831D8283EAF4
:102C200093E00E94DC13DCCF8A819B8111E0FC01E0
:102C300014830E94B2111D821F8383EA93E00E94D5
:102C4000DC13102FCDCF1F93CF93DF93EC01162F02
:102C5000009711F00E94DC1380EC93E00E94DC13DB
:102C60001092100D10920F0D0E9433158091F40EEA
:102C70008C50823010F01092F40E209719F0CE0193
:102C80000E94DC136091110D6E7F64606093110DE2
:102C90001092500C10924F0C1092580C1092570C2E
:102CA0001092600C10925F0C1092680C1092670CDE
:102CB0001092B90D1092C50D1092D10D1092DD0D2C
:102CC0001092E90D1092010E10920D0E1092790ED5
:102CD0001092850E1092AD0D1092910E10929D0ED5
:102CE00070E090E080E00E947733AB01BC0120E10E
:102CF00030E080ED93E00E949E121092360D11118B
:102D000006C089E1DF91CF911F910C94D90EDF911C
:102D1000CF911F91089560E081EE93E00C9423160B
:102D200060E088EF93E00C942316EDE3FAE08081F5
:102D30008460808360E089E094E00C9423160E9414
:102D4000910C882371F080913E0A82FD04C086E2D6
:102D500094E00E94DC1380913E0A846080933E0AD6
:102D6000089580913E0A8B7F80933E0A80914B0CA0
:102D700090914C0C029709F466C08BE49CE00E9491
:102D8000AD0E20914B0C30914C0C91E0213031056F
:102D900009F090E080913D0A81FD48C02130310565
:102DA00009F444C0826080933D0A85E190E10E946D
:102DB000DF15882349F060E086E394E00E94231643
:102DC00061E08DE10E9491048091530C9091540C2C
:102DD0000297C9F18091700C0E94FB049C019093B2
:102DE000720C8093710C6091730C7091740C41E0C3
:102DF0006817790708F440E090913D0A92FD1DC0E4
:102E000062177307D0F4892F846080933D0A8DE1A7
:102E100090E10E94DF158823B1F060E089E494E03E
:102E20000E94231661E08DE10C94910480913D0A8B
:102E300090FB81F980933D0AC7CF80913D0A40FB0A
:102E400082F980933D0A08950E949F1685E40E94AE
:102E50008B03892B71F080913E0A83FD04C08EE5BF
:102E600094E00E94DC1380913E0A886080933E0AC1
:102E7000089580913E0A877FF9CF8EE694E00E9404
:102E8000DC1361E08DE10C949104CF93C82F109274
:102E9000910E1092C50D809125108230D9F5809148
:102EA0002310811137C08DE190E10E94DA1188234F
:102EB00089F187E894E00E94DC1389E692E00E94A1
:102EC000DC1380E395E7A0E0B0E08093860E90935A
:102ED000870EA093880EB093890E80938A0E9093EC
:102EE0008B0EA0938C0EB0938D0E85E497E190939A
:102EF000900E80938F0E81E0C11101C080E080931D
:102F00008E0E8091910E81608D7F8B7F8093910ECC
:102F1000CF91089583EA94E00E94DC138CE10E9433
:102F2000D90EC11108C00E94331560E090E080E026
:102F3000CF910C9423160E94331583EB94E00E94EA
:102F4000DC138EE10E94D90E1092F30E1092F20E55
:102F50008BE08093F40E0E946402CF910C945E1378
:102F60009CEF980F933010F08B3099F4682F70E03D
:102F700090E080E00E947733AB01BC012AE030E0B2
:102F80008FEB94E00E949E1281E00E94451780E042
:102F9000089581E008959EEF980F923008F069C07F
:102FA0001092310E833099F18EE29FE00E94280E3C
:102FB00085E39FE00E94280E80EC94EDA1E0B0E054
:102FC0008093260E9093270EA093280EB093290E7F
:102FD00080932A0E90932B0EA0932C0EB0932D0E5F
:102FE0008BEC97E19093300E80932F0E83E08093CB
:102FF0002E0E8091310E81608D7F8B7F8093310EFC
:1030000081E10E94D90E8FED94E00C94DC138EE2E6
:103010009FE00E94B21185E39FE00E94B21182E11D
:103020000E94D90E80E395E7A0E0B0E08093260EE1
:103030009093270EA093280EB093290E80932A0E0A
:1030400090932B0EA0932C0EB0932D0E8BEC97E14A
:103050009093300E80932F0E84E080932E0E8091FB
:10306000310E81608D7F8B7F8093310E88EE94E0EE
:10307000CCCF60E080EF94E00C9423168230C9F549
:103080001092250E89E19FE00E94B2118DE190E13E
:103090000E942E1287E29FE00E94280E80E395E7AF
:1030A000A0E0B0E080931A0E90931B0EA0931C0E2C
:1030B000B0931D0E80931E0E90931F0EA093200EB2
:1030C000B093210E8EE398E19093240E8093230E0B
:1030D00081E08093220E8091250E81608D7F8B7F11
:1030E0008093250E8EE00E94D90E8FEF94E00C9411
:1030F000DC1360E087E095E00C9423161092010E3B
:103100008091330D9091340D009769F00297D9F4B6
:103110008BE00E9461141092340D1092330D86E101
:1031200095E00C94DC138091360D81110CC086E083
:103130000E94611481E090E09093340D8093330DF0
:103140008DE395E0EECF089510920D0E8091330D32
:103150009091340D8130910521F070F00297D1F0FB
:1031600008958BE00E9461141092340D1092330D7B
:1031700081E695E00C94DC1384E00E94611482E007
:1031800090E09093340D8093330D10929D0E83E860
:1031900095E0F0CF10929D0E0895CF9390E00097A8
:1031A00081F5C1E0C093F70E61E08091F80E0E94B6
:1031B000910484EF91E0A0E0B0E08093DA0E909368
:1031C000DB0EA093DC0EB093DD0E8093DE0E9093A9
:1031D000DF0EA093E00EB093E10E8DEC98E190939A
:1031E000E40E8093E30EC093E20E8091E50E8160C1
:1031F0008D7F8B7F8093E50E87EA95E0CF910C94CD
:10320000DC13019701F588EC95E00E94DC138DE159
:1032100090E10E9403128CED809321108091221086
:10322000882389F080912310882341F080911F101A
:10323000909120106CEDCF910C94C60C80911D10D4
:1032400090911E10F7CFCF91089590E0009749F527
:1032500087EF9EE00E94D30E84EF91E0A0E0B0E003
:103260008093CE0E9093CF0EA093D00EB093D10E3C
:103270008093D20E9093D30EA093D40EB093D50E1C
:1032800085E299E19093D80E8093D70E81E08093E8
:10329000D60E8091D90E81608D7F8B7F8093D90E61
:1032A0000895019741F48DE190E10E9403128DE7AA
:1032B00093E00C94DC1308950F931F93CF93DF9347
:1032C000CDB7DEB768970FB6F894DEBF0FBECDBF9F
:1032D00090E0009709F062C089EE95E00E94DC134F
:1032E0006091F70F7091F80F90E080E00E947733C3
:1032F000AB01BC012AE030E089E096E00E949E121A
:103300008091F70F9091F80F8230910588F1029724
:10331000C1F184EF91E0A0E0B0E08093C20E909301
:10332000C30EA093C40EB093C50E8093C60E9093A7
:10333000C70EA093C80EB093C90E8CE599E1909387
:10334000CC0E8093CB0E81E08093CA0E8091CD0E7F
:1033500081608D7F8B7F8093CD0E68960FB6F89439
:10336000DEBF0FBECDBFDF91CF911F910F910895AA
:103370008BE196E00E94DC138BEF9EE00E94D30E5F
:10338000C8CF85E496E00E94DC1381E08093FB0EB9
:1033900061E08091FC0E0E949104BBCF0197E9F699
:1033A000EBE4FCE0DE0111968BED9CE040AD51AD0D
:1033B00062AD73AD4D935D936D937D9378968E174B
:1033C0009F07A1F784E696E00E94DC136091F70F57
:1033D0007091F80F90E080E00E947733AB01BC0160
:1033E0002AE030E084E896E00E949E128091F70F78
:1033F0009091F80F81309105D9F1029709F464C0DA
:103400008091590F882389F02AE030E040E050E0B5
:1034100060E371E488EB92E00E949E1280E59FE0F9
:103420000E94ED098DE08093F40E8091A50F882312
:10343000E9F12AE030E040E050E060E371E488EC3C
:1034400096E00E949E128CE49FE00E94CD0E8EE4D6
:103450009FE00E94CD0E8EE29FE00E94B21185E3B4
:103460009FE00E94B2118CE99FE00E94ED091EC00E
:1034700069817A818B819C810E94483381E08093AD
:10348000590F862F90E090935B0F80935A0F80E541
:103490009FE00E940E0A88E996E00E94DC1383EA0E
:1034A00096E00E94DC1385E10E94D90E85E190E14F
:1034B00068960FB6F894DEBF0FBECDBFDF91CF91F7
:1034C0001F910F910C9403128EE29FE00E94280E30
:1034D00085E39FE00E94280E01E000934D0F61E01C
:1034E00080914C0F0E94910400934F0F61E08091F6
:1034F0004E0F0E94910469817A818B819C810E9488
:103500004833162F70E090E080E00E947733AB01E3
:10351000BC012AE030E08DEA96E00E949E12009302
:10352000A50F812F90E09093A70F8093A60F612F96
:103530008CE99FE00E940E0A88E996E00E94DC1365
:1035400080EC96E00E94DC1387E1AECF8F929F92D1
:10355000AF92BF92CF92DF92EF92FF920F931F93A1
:10356000CF93DF938091F20E9091F30E019761F566
:103570008AEE96E00E94DC138BE097E00E94DC1359
:10358000E091F40EE150EB30C8F4F0E08827E4530A
:10359000F54E8F4F0C944132D71A381B461B4B1BEC
:1035A000DE1A4B1B541B841BB51BC51BF91B80E289
:1035B0009FE00E94280E87E00E94D90E1092F30E21
:1035C0001092F20E0E9410140E94910C90913E0AEB
:1035D00080FB92F990933E0A85E40E948B0321E0E0
:1035E000892B09F420E080913E0A20FB83F9809327
:1035F0003E0A80910F0D9091100D009741F0C091FF
:10360000F40E029709F0FAC08C2F0E94B017809137
:103610003D0A90913E0AA0913F0AB091400A409124
:10362000C7095091C8096091C9097091CA098417E6
:103630009507A607B70759F021E02093C6098093A4
:10364000C7099093C809A093C909B093CA0960E05B
:1036500086EA9AE1DF91CF911F910F91FF90EF9051
:10366000DF90CF90BF90AF909F908F900C94E3022B
:103670008091430F882321F083E49FE00E94B211E0
:103680008CE39FE00E94280E89E096CF1092F80FFD
:103690001092F70F93CF1092F80F1092F70F0E942D
:1036A000E4130E949A158ACF81E297E00E94DC130E
:1036B0008DE190E10E942E1284EF91E0A0E0B0E055
:1036C0008093DA0E9093DB0EA093DC0EB093DD0EA8
:1036D0008093DE0E9093DF0EA093E00EB093E10E88
:1036E0008DEC98E19093E40E8093E30E1092E20E3D
:1036F0008091E50E81608D7F8B7F8093E50E82E463
:1037000097E00E94DC135ACF89E19FE00E94280EC7
:1037100080E69AEEA0E0B0E08093320E9093330EF4
:10372000A093340EB093350E8093360E9093370EDF
:10373000A093380EB093390E80E996E190933C0E39
:1037400080933B0E10923A0E80913D0E81608D7FEA
:103750008B7F80933D0E84E697E00E94DC1386E722
:1037600097E00E94DC1383E127CF0E94331587E2A4
:103770009FE00E94280E8BE00E94D90E81E897E01E
:103780000E94DC1382E997E0BCCF0E94331583E4EA
:103790009FE00E94280E8FE00E94D90E80E49CE9F1
:1037A000A0E0B0E08093260E9093270EA093280E01
:1037B000B093290E80932A0E90932B0EA0932C0E7B
:1037C000B0932D0E8BEC97E19093300E80932F0EDB
:1037D00082E080932E0E8091310E81608D7F8B7FF1
:1037E0008093310E8DE997E00E94DC138DEA97E01B
:1037F00088CF1092F80F1092F70F53CF9091360D9B
:10380000992339F180919D0E80FD23C082FD21C056
:1038100040E355E760E070E04093920E5093930EC2
:103820006093940E7093950E4093960E5093970E5E
:103830006093980E7093990E2BE836E130939C0EAE
:1038400020939B0E10929A0E81608D7F8B7F8093C8
:103850009D0E8CEF8C0F833028F0CB3019F099231C
:1038600009F4AEC08091330D9091340D039709F4A3
:10387000A7C0D0914B0FC63009F4B9C02091C70C36
:103880003091C80C4091C90C5091CA0C6091DF0C6A
:103890007091E00C8091E10C9091E20C0E94CA3290
:1038A00087FFA5C0D11137C081E080934B0F61E045
:1038B00080914A0F0E94910489EF9EE00E94D30EEE
:1038C0008DE593E00E94DC138DE190E10E942E12C1
:1038D00084EF91E0A0E0B0E08093CE0E9093CF0E05
:1038E000A093D00EB093D10E8093D20E9093D30EAE
:1038F000A093D40EB093D50E85E299E19093D80EA3
:103900008093D70E1092D60E8091D90E81608D7F54
:103910008B7F8093D90EC0907F0CD090800CE0906C
:10392000810CF090820C8090830C9090840CA0907D
:10393000850CB090860C20E030E040E85FE3C501E4
:10394000B4010E945E32A70196010E94CA32181685
:103950000CF45DC01092010ED0910D0ED0FD30C060
:10396000D2FD2EC00091330D1091340DF801EE0FF1
:10397000FF1FEE0FFF1FED5DF24F608171818281AD
:1039800093810E9448336093020E7093030E8093DC
:10399000040E9093050E6093060E7093070E8093AD
:1039A000080E9093090E84EA98E190930C0E809390
:1039B0000B0E00930A0ED160DD7FDB7FD0930D0EDE
:1039C000C150CB3008F023CEEC2FF0E08827E45133
:1039D000F34E8F4F0C9441324F1D5B1D651D7E1DB4
:1039E0007E1D811D841DDA1D321E071B811DDD23F6
:1039F00009F491CF8AE49FE00E94CD0E81E080938C
:103A0000F90E61E08091FA0E0E94910484CF109229
:103A10000D0E20E030E040E85FE3C501B4010E94F4
:103A20005D32A70196010E94293487FD35C0D091EF
:103A3000010ED0FDC5CFD2FDC3CF0091330D109143
:103A4000340DF801EE0FFF1FEE0FFF1FED5DF24F7B
:103A500060817181828193810E9448336093F60D69
:103A60007093F70D8093F80D9093F90D6093FA0D14
:103A70007093FB0D8093FC0D9093FD0D8EE798E104
:103A80009093000E8093FF0D0093FE0DD160DD7FBB
:103A9000DB7FD093010E94CF1092010E91CF80E284
:103AA0000E948B03892B09F0B2CD60E088EB97E090
:103AB0000E942316ACCD84E40E948B03892B09F06D
:103AC000A6CD60E086EC97E0F3CF0E94910C909138
:103AD0003D0A882339F0916090933D0A60E084EDBF
:103AE00097E0E6CF9E7F90933D0A8091470D882313
:103AF00009F48DCD60E08AEF97E0DACF0E942417B9
:103B000086CD0E949F1683CD0E94910C882331F0B0
:103B100080913E0A846080933E0A79CD8091530C57
:103B20009091540C029709F472CD83E59CE00E94B9
:103B3000AD0E8091530C9091540C019769F58091D2
:103B40003D0A877F80933D0A8091C50D80FD5FCD42
:103B500082FD5DCD48EE53E060E070E04093BA0D29
:103B60005093BB0D6093BC0D7093BD0D4093BE0D83
:103B70005093BF0D6093C00D7093C10D21E139E0EA
:103B80003093C40D2093C30D1092C20D81608D7FC0
:103B90008B7F8093C50D3BCD1092C50D80913D0A62
:103BA00083FD35CD886080933D0A8AE098E00E94CD
:103BB000DC132DCD80E20E948B03892B59F460E049
:103BC0008EE198E00E94231680913D0A80688093E0
:103BD0003D0A1DCD8091700C0E94FB049093720CE5
:103BE0008093710C2091730C3091740C2817390755
:103BF00078F580913D0A8B7F80933D0A8091D10DAD
:103C000080FD05CD82FD03CD40911B0D50911C0D13
:103C100070E060E04093C60D5093C70D6093C80DEF
:103C20007093C90D4093CA0D5093CB0D6093CC0D8A
:103C30007093CD0D25E936E13093D00D2093CF0D53
:103C40001092CE0D81608D7F8B7F8093D10DDFCC64
:103C500080913D0A82FDDBCC846080933D0A83E441
:103C600098E0A5CF0E94910C882309F4D0CC8091D4
:103C7000250E80FDCCCC82FDCACC87E29FE00E945D
:103C8000B21189E19FE00E94280E8DE190E10E942F
:103C900003128DE00E94D90E80E395E7A0E0B0E02A
:103CA00080931A0E90931B0EA0931C0EB0931D0EC2
:103CB00080931E0E90931F0EA093200EB093210EA2
:103CC0008EE398E19093240E8093230E82E08093FC
:103CD000220E8091250E81608D7F8B7F8093250E33
:103CE0008FED94E064CF8091350D81508093350D38
:103CF000811118C085E08093350D8091120D28E167
:103D0000829FC00111248158934F0E94AB0F909164
:103D1000120D892F8F5FF1F39FEF8630D0F78093DC
:103D2000120D08958FE79CE00E94AB0F8091920CDA
:103D3000882369F089E598E00E94DC1380913E0AAF
:103D4000806480933E0A61E08DE10C94910480913F
:103D50003E0A8F7B80933E0A0895FF920F931F9334
:103D6000CF93DF93CDB7DEB7C456D1090FB6F89421
:103D7000DEBF0FBECDBFFC01F1804F2D50E08E01A4
:103D80000F5F1F4FBC01C8010E94A0348091C60084
:103D90008091C6008091C1008F778093C10080918F
:103DA000C10088608093C100F8018E2F801B8F15A1
:103DB00088F481918093C6008091C00086FFFCCF7B
:103DC0008091C00080648093C0008091C600809183
:103DD000C600EBCFCC59DF4F0FB6F894DEBF0FBE55
:103DE000CDBFDF91CF911F910F91FF900C94BD0932
:103DF0004F925F926F927F928F929F92AF92BF92FB
:103E0000CF92DF92EF92FF920F931F93CF93DF93A6
:103E1000CDB7DEB7CB59D1400FB6F894DEBF0FBE99
:103E2000CDBF84E6EBECF9E0DE01AB59BF4F01906A
:103E30000D928A95E1F780E69AEEA0E0B0E08093DB
:103E4000E60E9093E70EA093E80EB093E90E8093F0
:103E5000EA0E9093EB0EA093EC0EB093ED0E8DE373
:103E600097E19093F00E8093EF0E1092EE0E8091FA
:103E7000F10E83608B7F8093F10EA896EFADA8972B
:103E8000E550E33308F08CC0F0E08827E55BF04EA6
:103E90008F4F0C944132CC24D01F6F20D01FD01FE5
:103EA000D01FD01FD01FD01FD01FD01FD01FD01F9A
:103EB000FC1F1E205B2065207820E81FEA202E21B1
:103EC0007E1FC221D01FD01FF7215F22BB22B31F4C
:103ED000EA221723A1233D237124D01FD01FD01F16
:103EE000A424D01FD01FD01FD01FD01FD01FD82474
:103EF000E824F4245025882502278D20A9962FAD8B
:103F0000A997213009F4D9C1AB968FADAB97813019
:103F100009F4E1C1AD968FADAD97813009F4DEC1F2
:103F200080E08093191090E0E0911510F091161048
:103F300096838583E0911710F091181096838583FE
:103F4000243009F4CEC1AB968FADAB97843009F421
:103F500016C2AD968FADAD97E2E0F0E0843009F483
:103F6000C2C180E0CBC1C0903D0AD0903E0AE09033
:103F70003F0AF090400A61E2CE0101960E94510989
:103F8000CF82D886E986FA868BE08A83CE010196B5
:103F90000E943A09CE0101960E94AD1E1092C609F8
:103FA000C556DE4F0FB6F894DEBF0FBECDBFDF9112
:103FB000CF911F910F91FF90EF90DF90CF90BF9026
:103FC000AF909F908F907F906F905F904F900895EB
:103FD00010923D0A10923E0A10923F0A1092400A37
:103FE00061E2CE0101960E9451091F82188619864E
:103FF0001A868BE08A83F6C1CE0187539F4F0E94B9
:10400000B40388E0FE01E753FF4FDE01A257BE4F25
:1040100001900D928A95E1F762E1CE0101960E942E
:1040200051098FE08A8388E0FE01E257FE4FDE01EE
:10403000179601900D928A95E1F7D4C110923D0A2E
:1040400010923E0A10923F0A1092400AA9968FAD34
:10405000A9971092F30E1092F20E8093F40E8B300B
:1040600011F08730A1F4AA966FADAA976695637098
:104070006093251070E090E080E00E947733AB0100
:10408000BC0120E130E082E898E00E949E12AA96EE
:104090008FADAA9780FF0FC0A9968FADA9978B30DF
:1040A00051F48091F40E0E94B017882321F00E94F1
:1040B00064020E945E131091F40E64E1CE01019639
:1040C0000E9451091F8388E095CF8091F40E0E94D1
:1040D000B017882321F00E9464020E945E13CE0173
:1040E00001960E94B209CE0101960E94AD1E58CFE2
:1040F0008091F40E8B3019F08450833040F410928C
:104100003D0A10923E0A10923F0A1092400A60E067
:1041100084E998E00E942316E2CF81EA98E00E94A9
:10412000DC1381E08093360D81E090E09093100DD8
:1041300080930F0D1092E80F1092870F1092F30EDC
:104140001092F20E1092CD0E1092D90E1092E50E32
:1041500089E19FE00E94B21180E29FE00E94B211CB
:1041600087E29FE00E94B21187EF9EE00E94D30E8B
:1041700089EF9EE00E94D30E8BEF9EE00E94D30E4B
:104180008CE49FE00E94CD0E8EE49FE00E94CD0E55
:1041900080E59FE00E94C3098091110D81608B7FB3
:1041A0008093110D80E090E0A0ECB1E48093830C4B
:1041B0009093840CA093850CB093860C25E030E09E
:1041C000AC01BD018BEA98E00E949E128AE10E9438
:1041D000D90E85CFE5E6F0E0EC0FFD1F3396ABE49A
:1041E000BCE085E690E08C0F9D1F4B96419151916C
:1041F00061917191D8964D935D936D937C93DB970C
:1042000058968E179F0791F788E1E5E6F0E0EC0FEE
:10421000FD1F3396DE01A750BF4F01900D928A9586
:10422000E1F768E1CE0101960E9451098FE18A838E
:1042300088E1FE01E750FF4FDE01179601900D92D5
:104240008A95E1F7CE0101960E943A09CE010196C6
:104250000E94AD1E88E10E941909A2CEABE4BCE029
:10426000CE0187539F4F2BED3CE0182F092FD89696
:104270004D915D916D917C91DB97FC014193519340
:1042800061937193CF0158962A173B0781F788E114
:10429000E12FF02FDE01AF51BF4F01900D928A95B3
:1042A000E1F769E1CE0101960E9451098FE18A830D
:1042B00088E1FE01EF51FF4FBACEF0E0E0E0EE0FF3
:1042C000FF1F81E090E08C0F9D1FE80FF91FE95957
:1042D000FF4F818126CEE1E0F0E0F1CFE2E0F0E0B7
:1042E000EECFF0E0E0E0EE0FFF1F81E090E08C0FFA
:1042F0009D1FE80FF91FE959FF4F8181809321101D
:1043000090E0E0911D10F0911E1096838583E0915E
:104310001F10F091201096838583AE968FADAE97D7
:10432000AA969FADAA97909308108093091086E0F3
:10433000E5E6F0E0EC0FFD1F3396DE01AA56BE4F16
:1043400001900D928A95E1F76AE1CE0101960E94F3
:1043500051098DE08A8386E0FE01EA56FE4FDE01B8
:10436000179601900D928A95E1F7CE0101960E9471
:104370003A09CE0101960E94AD1E8AE16CCFE1E0C0
:10438000F0E0B1CF1091081000910910612F70E09A
:1043900090E080E00E947733AB01BC0120E130E087
:1043A00084EB98E00E949E12602F70E090E080E025
:1043B0000E947733AB01BC0120E130E08AED98E048
:1043C0000E949E126BE1CE0101960E9451098DE080
:1043D0008A8381E08F83188782E089871A8784E047
:1043E0008B870C87CE0101960E943A097CCEAA9653
:1043F0008EAD9FADAA979093520C8093510CAC96C2
:104400008EAD9FADAC9790935A0C8093590CAE969D
:104410008EAD9FADAE979093620C8093610CE09649
:104420008EAD9FADE09790936A0C8093690CE296F5
:104430008EAD9FADE29790936F0C80936E0CE496D7
:104440008EAD9FADE4979093740C8093730CE696B9
:104450008EAD9FADE6979093790C8093780CE8969B
:104460008EAD9FADE89790937E0C80937D0C82E19A
:10447000E5E6F0E0EC0FFD1F3396DE01AB5CBE4FCE
:1044800001900D928A95E1F76EE1CE0101960E94AE
:10449000510989E18A8382E1FE01EB5CFE4FDE0176
:1044A000179601900D928A95E1F7CE0101960E9430
:1044B0003A09CE0101960E94AD1E8EE1CCCE00914C
:1044C000590C10915A0CA091610CB091620CE091C2
:1044D000690CF0916A0C60916E0C70916F0C4091B8
:1044E000730C5091740C2091780C3091790C809160
:1044F0007D0C90917E0CE090510CF090520CCD5DB3
:10450000DE4FF982E882C352D140CB5DDE4F198382
:104510000883C552D140C95DDE4FB983A883C75215
:10452000D140C75DDE4FF983E883C952D140C55DF4
:10453000DE4F79836883CB52D140C35DDE4F598310
:104540004883CD52D140C15DDE4F39832883CF529D
:10455000D140CF5CDE4F99838883C153D1406FE156
:10456000CE0101960E94510989E18A8382E1FE0110
:10457000ED5DFE4F5CCDABE4BCE0CE018F519F4FB3
:104580002BED3CE0182F092FD4964D915D916D9144
:104590007C91D797FC014193519361937193CF0123
:1045A00058962A173B0781F788E1E12FF02FDE01AB
:1045B000A753BF4F01900D928A95E1F760E2CE01BB
:1045C00001960E9451098FE18A8388E1FE01E75339
:1045D000FF4F2DCD05E610E00C0F1D1F0D5F1F4F87
:1045E000C8010E948B0280E1F801DE01A95ABE4F8A
:1045F00001900D928A95E1F762E2CE0101960E9448
:10460000510980E1FE01E95AFE4FDE011796019043
:104610000D928A95E1F787E18A83CE0101960E9487
:104620003A09CE0101960E94AD1E82E214CE80E1CD
:10463000E3E1FDE0DE01A753BF4F01900D928A95A3
:10464000E1F780E1FE01E753FF4FDE01A95BBE4FBA
:1046500001900D928A95E1F763E2CE0101960E94E6
:10466000510980E1FE01E95BFE4FDE0117960190E2
:104670000D928A95E1F787E1BDCC80904F0C909028
:10468000500CA090570CB090580C60905F0C70903C
:10469000600C4090670C5090680C80916B0C0E94ED
:1046A000FB046C018091700C0E94FB047C018091E2
:1046B000750C0E94FB048C0180917A0C0E94FB0413
:1046C000CF5EDE4F99828882C151D140CD5EDE4FF0
:1046D000B982A882C351D140CB5EDE4F7982688215
:1046E000C551D140C95EDE4F59824882C751D14081
:1046F000C75EDE4FD982C882C951D140C55EDE4F48
:10470000F982E882CB51D140C35EDE4F1983088322
:10471000CD51D140C15EDE4F99838883CF51D140C6
:1047200065E2CE0101960E94510982E1FE01EF5E31
:10473000FE4FDE01179601900D928A95E1F789E10F
:1047400059CCA9968FADA997982F9F77923009F4ED
:1047500079C070F59923D1F1913009F457C0809157
:10476000FD0E90910B0F892B9091040F892B909146
:10477000120F892B8093E80FCE0187539F4F0E9421
:10478000B40388E0FE01E753FF4FDE01AA57BE4F96
:1047900001900D928A95E1F764E2CE0101960E94A4
:1047A00051098FE08A8388E0FE01EA57FE4F3FCC33
:1047B000933009F473C0943091F687FF8BC087E281
:1047C0009FE00E94B21184EA99E008C087FF09C007
:1047D0008DEF9EE00E94B21180E099E00E94DC1310
:1047E000BECF8DEF9EE00E94280E8FE099E00E94E0
:1047F000DC13BE016F5F7F4F8DEF9EE00E94BB0C0C
:104800006A818DEF9EE00E94C60CA9CF87FF07C08A
:1048100084E09FE00E94B2118DE199E0DFCF84E057
:104820009FE00E94280E8FE299E00E94DC13BE01F7
:104830006F5F7F4F84E09FE00E94BB0C6A8184E041
:104840009FE0E1CF87FF07C08BE09FE00E94B2119D
:1048500080E499E0C3CF8BE09FE00E94280E80E5C2
:1048600099E00E94DC13BE016F5F7F4F8BE09FE0F9
:104870000E94BB0C6A818BE09FE00E94C60C6A819B
:1048800070E090E080E00E947733AB01BC012AE049
:1048900030E08FE599E00E949E1261CF87FF07C04C
:1048A00082E19FE00E94B2118FE799E097CF82E109
:1048B0009FE00E94280E82E999E00E94DC13BE016D
:1048C0006F5F7F4F82E19FE00E94BB0C6A8182E1B3
:1048D0009FE099CF87E29FE00E94280E80EB99E04D
:1048E0007DCF81E20E948B034C0180E20E948B030A
:1048F0005C01F090470D0091480D85E40E948B0308
:104900006C0184E40E948B039C0191E0892809F0EA
:1049100090E010E090FB10F991E0AB2809F090E0F6
:1049200090FB11F991E0CD2809F090E090FB12F98D
:1049300091E0232B09F090E090FB13F9F0FA14F9C1
:1049400000FB15F966E2BACB8BE0E5E6F0E0EC0F90
:10495000FD1F3396DE01AD58BE4F01900D928A9532
:10496000E1F76AE2CE0101960E9451098BE0FE0157
:10497000ED58FE4FDE01179601900D928A95E1F7F2
:1049800082E18A83CE0101960E943A09CE01019606
:104990000E94AD1E8AE25FCC10923D0A10923E0A40
:1049A00010923F0A1092400A61E08BEB99E0B2CB83
:1049B00061E3CE0101960E9451098BE08A8389E070
:1049C00090E0A4E0B1E08F839887A987BA870ACDE9
:1049D00062E3CE0101960E9451098BE08A8385E152
:1049E00095E3A0E0B0E0EFCFE4966CAD7DAD8EAD89
:1049F0009FADE4970E9477336B017C01E0966CAD2C
:104A00007DAD8EAD9FADE0970E9477334B015C0189
:104A1000AC966CAD7DAD8EAD9FADAC970E947733FB
:104A20006093230D7093240D8093250D9093260D94
:104A30008092270D9092280DA092290DB0922A0DF8
:104A4000C0922B0DD0922C0DE0922D0DF0922E0DD8
:104A50008CE0E5E6F0E0EC0FFD1F3396DE01A9598E
:104A6000BE4F01900D928A95E1F763E3CE01019666
:104A70000E94510983E18A838CE0FE01E959FE4FCF
:104A8000DE01179601900D928A95E1F7CE0101960D
:104A90000E943A09CE0101960E94AD1E83E3DBCB52
:104AA00060912B0D70912C0D80912D0D90912E0DFC
:104AB0000E9448336B017C016091270D7091280D95
:104AC0008091290D90912A0D0E9448334B015C0181
:104AD0006091230D7091240D8091250D9091260DEC
:104AE0000E9448332B013C0164E3CE0101960E94F1
:104AF000510983E18A834F82588669867A868B863C
:104B00009C86AD86BE86CF86D88AE98AFA8A6ACC28
:104B1000A9961FADA997AA966FADAA97AB965FAD60
:104B2000AB97AC964FADAC97AD963FADAD97AE960B
:104B30002FADAE97AF969FADAF97E0968FADE09754
:104B400019836A835B834C833D832E839F8388878D
:104B50008DEF9EE015FF48C10E94280EBE016753ED
:104B60007F4F8BE09FE00E94BB0CC653DF4F6881F4
:104B7000CA5CD0408BE09FE00E94C60C84E09FE0BE
:104B800016FF35C10E94280EBE0167537F4F84E097
:104B90009FE00E94BB0CC653DF4F6881CA5CD040C7
:104BA00084E09FE00E94C60C8BE09FE017FF22C1CB
:104BB0000E94280EBE0167537F4F8BE09FE00E944A
:104BC000BB0CC653DF4F6881CA5CD0408BE09FE0CE
:104BD0000E94C60C8A8180FF10C182E19FE00E9482
:104BE000280EBE0167537F4F82E19FE00E94BB0CFD
:104BF000C653DF4F6881CA5CD04082E19FE00E94CB
:104C0000C60C6981617085E30E9491046A8163FB2F
:104C1000662760F987E10E9491046A8166FB662736
:104C200060F986E10E949104698162FB662760F960
:104C30008FE10E9491046A8167FB662760F981E138
:104C40000E9491046981669561708BE10E949104D4
:104C50006A8162FB662760F988E10E9491046A819B
:104C60006695617089E10E9491046A816295617024
:104C700080E10E9491046A8165FB662760F98FE0FC
:104C80000E9491046B8161708EE00E9491046B819F
:104C9000669561708DE00E9491046B8162FB6627CE
:104CA00060F98CE00E9491046B8167FB662760F9D4
:104CB00085E20E9491046C81617084E20E949104FB
:104CC0006C816695617087E20E9491046C8162FB41
:104CD000662760F986E20E9491046C8163FB662777
:104CE00060F989E20E9491046C816295617088E2AA
:104CF0000E9491046C8165FB662760F98BE20E943B
:104D000091046C8166FB662760F98AE20E94910437
:104D10006B8163FB662760F98CE20E9491046B81D2
:104D2000629561708EE20E9491046B8165FB66273B
:104D300060F98DE20E9491046B8166FB662760F941
:104D40008FE20E949104698163FB662760F98DE11F
:104D50000E9491046981629561708EE10E949104C4
:104D6000C753DF4F1882C95CD040C653DF4F18824B
:104D7000CA5CD040C553DF4F1882CB5CD040C453CF
:104D8000DF4F1882CC5CD040C353DF4F1882CD5C1C
:104D9000D040C253DF4F1882CE5CD040C153DF4FAA
:104DA0001882CF5CD040C053DF4F1882C05DD04026
:104DB000CE0187539F4F0E94B40388E0FE01E75362
:104DC000FF4FDE01A258BE4F01900D928A95E1F788
:104DD00065E3CE0101960E9451098FE08A8388E045
:104DE000FE01E258FE4F23C90E94B211C7CE0E94B5
:104DF000B211DACE0E94B211EDCE82E19FE00E94A4
:104E0000B211FFCECE0101960E94B209CE010196E9
:104E10000E94AD1E10927D0D62E17CE08FE79CE068
:104E20000E94C3106DEE7BE087E99CE00E94C310F6
:104E300068EC7BE08FEA9CE00E94C31063EA7BE0B1
:104E400087EC9CE00E94C3106EE77BE08FED9CE056
:104E50000E94C31069E57BE087EF9CE00E94C310CD
:104E60008091210D9091220DB0E0A0E08093720D11
:104E70009093730DA093740DB093750D8093760D80
:104E80009093770DA093780DB093790D83E79EE111
:104E900090937C0D80937B0D10927A0D80917D0D07
:104EA00083608B7F80937D0D7BC80C94F81EEBECA8
:104EB000F9E084E6DF011D928A95E9F710923A0A3B
:104EC0000C94BD091F920F920FB60F9211242F93CD
:104ED0003F938F939F93AF93BF938091320A9091AA
:104EE000330AA091340AB091350A3091310A23E097
:104EF000230F2D3758F50196A11DB11D2093310ABE
:104F00008093320A9093330AA093340AB093350AFF
:104F10008091360A9091370AA091380AB091390AE7
:104F20000196A11DB11D8093360A9093370AA09374
:104F3000380AB093390ABF91AF919F918F913F91F9
:104F40002F910F900FBE0F901F90189526E8230FFA
:104F50000296A11DB11DD2CF1F920F920FB60F92D4
:104F600011240BB60F922F933F934F935F936F9340
:104F70007F938F939F93AF93BF93EF93FF93E091B2
:104F80001E02F0911F021995FF91EF91BF91AF9111
:104F90009F918F917F916F915F914F913F912F9151
:104FA0000F900BBE0F900FBE0F901F9018951F9281
:104FB0000F920FB60F9211240BB60F922F933F93BF
:104FC0004F935F936F937F938F939F93AF93BF9311
:104FD000EF93FF93E0911C02F0911D021995FF9150
:104FE000EF91BF91AF919F918F917F916F915F9161
:104FF0004F913F912F910F900BBE0F900FBE0F90CE
:105000001F9018951F920F920FB60F9211240BB696
:105010000F922F933F934F935F936F937F938F9351
:105020009F93AF93BF93EF93FF93E0911202F091A0
:1050300013021995FF91EF91BF91AF919F918F91BD
:105040007F916F915F914F913F912F910F900BBE88
:105050000F900FBE0F901F9018951F920F920FB6D2
:105060000F9211240BB60F922F933F934F935F93A0
:105070006F937F938F939F93AF93BF93EF93FF9320
:10508000E0911002F09111021995FF91EF91BF91FB
:10509000AF919F918F917F916F915F914F913F91D0
:1050A0002F910F900BBE0F900FBE0F901F90189571
:1050B0001F920F920FB60F9211240BB60F922F93DF
:1050C0003F934F935F936F937F938F939F93AF9390
:1050D000BF93EF93FF93E0911A02F0911B02199591
:1050E000FF91EF91BF91AF919F918F917F916F91C0
:1050F0005F914F913F912F910F900BBE0F900FBE7C
:105100000F901F9018951F920F920FB60F921124B7
:105110000BB60F922F933F934F935F936F937F93B1
:105120008F939F93AF93BF93EF93FF93E0911802F8
:10513000F09119021995FF91EF91BF91AF919F9155
:105140008F917F916F915F914F913F912F910F9030
:105150000BBE0F900FBE0F901F9018951F920F92CD
:105160000FB60F9211240BB60F922F933F934F93CC
:105170005F936F937F938F939F93AF93BF93EF93BF
:10518000FF93E0911602F09117021995FF91EF91AC
:10519000BF91AF919F918F917F916F915F914F914F
:1051A0003F912F910F900BBE0F900FBE0F901F904D
:1051B00018951F920F920FB60F9211240BB60F92F3
:1051C0002F933F934F935F936F937F938F939F930F
:1051D000AF93BF93EF93FF93E0911402F091150208
:1051E0001995FF91EF91BF91AF919F918F917F9111
:1051F0006F915F914F913F912F910F900BBE0F9048
:105200000FBE0F901F9018951F920F920FB60F921E
:1052100011240BB60F922F933F934F935F936F938D
:105220007F938F939F93AF93BF93EF93FF9381E40B
:105230009AE00E941506FF91EF91BF91AF919F9167
:105240008F917F916F915F914F913F912F910F902F
:105250000BBE0F900FBE0F901F9018951F920F92CC
:105260000FB60F9211240BB60F922F938F939F932B
:10527000EF93FF93E091510AF091520A8081E091FF
:10528000570AF091580A82FD1DC0908180915A0AF8
:105290008F5F8F7320915B0A821741F0E0915A0A69
:1052A000F0E0EF5BF54F958F80935A0AFF91EF91F5
:1052B0009F918F912F910F900BBE0F900FBE0F906B
:1052C0001F9018958081F2CF1F920F920FB60F9208
:1052D00011240BB60F922F933F934F935F936F93CD
:1052E0007F938F939F93AF93BF93CF93EF93FF934E
:1052F0008091C10080688093C1008091C100886066
:105300008093C100C091C6008091890D8E7F8093EB
:10531000890D80913A0A843658F0EBECF9E084E686
:10532000DF011D928A95E9F710923A0A0E94BD09A1
:10533000E0913A0AE33020F08091CC0980933C0A56
:1053400081E08E0F80933A0AF0E0E553F64FC08378
:1053500090913C0A89136BC09091CB09913009F070
:105360005AC040EA5FE060E070E040938A0D5093DD
:105370008B0D60938C0D70938D0D40938E0D50931B
:105380008F0D6093900D7093910D27E537E2309368
:10539000940D2093930D1092920D9091950D936022
:1053A0009B7F9093950D50E040E090E0BC016150F0
:1053B0007109252F30E0261737073CF42553364F67
:1053C000F9012081420F5F5FF4CF8653964FDC01D5
:1053D0008C9160E048131CC085E597E20E94E302CF
:1053E00010923A0A0E94BD09FF91EF91CF91BF91AF
:1053F000AF919F918F917F916F915F914F913F916D
:105400002F910F900BBE0F900FBE0F901F9018950D
:1054100084E999E0E3CFEBECF9E084E6DF011D924B
:105420008A95E9F710923A0A0E94BD09D9CF8AE01D
:1054300090E0A0E0B0E080937E0D90937F0DA0936C
:10544000800DB093810D8093820D9093830DA09376
:10545000840DB093850D87E597E29093880D809336
:10546000870D1092860D8091890D81608D7F8B7FD5
:105470008093890DB7CF1F920F920FB60F92112410
:105480000BB60F92FF920F931F932F933F934F935F
:105490005F936F937F938F939F93AF93BF93CF93BC
:1054A000DF93EF93FF93C2E7DDE010E000E08CE0D4
:1054B000F82EF09EF001F19EF00D1124E358F24F0A
:1054C000808180FF23C08C819D81AE81BF81019747
:1054D000A109B1098C839D83AE83BF83892B8A2B5D
:1054E0008B2BA1F480818460808381FF2DC0888113
:1054F0009981AA81BB818C839D83AE83BF8389857B
:105500009A85009719F068850E94E3020F5F1F4F8C
:105510002C960032110569F6FF91EF91DF91CF9142
:10552000BF91AF919F918F917F916F915F914F91BB
:105530003F912F911F910F91FF900F900BBE0F90F5
:105540000FBE0F901F9018958E7F8083D8CF1F922B
:105550000F920FB60F9211240BB60F922F933F9319
:105560004F935F936F937F938F939F93AF93BF936B
:10557000EF93FF93F0E0E0E01995FF91EF91BF9179
:10558000AF919F918F917F916F915F914F913F91DB
:105590002F910F900BBE0F900FBE0F901F9018957C
:1055A0001F920F920FB60F9211240BB60F922F93EA
:1055B0003F934F935F936F937F938F939F93AF939B
:1055C000BF93EF93FF93F0E0E0E01995FF91EF9127
:1055D000BF91AF919F918F917F916F915F914F910B
:1055E0003F912F910F900BBE0F900FBE0F901F9009
:1055F0001895FC0117821086108289E0838381E070
:105600008483858386831182168A158A8FEF838B24
:10561000148A7287618708951F93CF93DF93EC01FB
:10562000162F60E0812F0E94BF04612F70E0FB0104
:10563000EC57FC4FE491E883FB01E25CFC4FE49102
:10564000F0E0EE0FFF1FEC5DFC4F859194919A8383
:1056500089831B861D861C861A86198618861F82DA
:105660001E821D821C821B82DF91CF911F910895A3
:10567000CF93DF93EC01862F49836A832B831C82AF
:1056800020E830E03E832D83411103C061E00E9499
:10569000BF04CE01DF91CF910C94B2114F925F9273
:1056A0006F927F928F929F92AF92BF92CF92DF9232
:1056B000EF92FF920F931F93CF93DF93CDB7DEB797
:1056C0002F970FB6F894DEBF0FBECDBF1092440ADD
:1056D0001092430A88EE93E0A0E0B0E08093450A80
:1056E0009093460AA093470AB093480A8AE392E04F
:1056F0009093420A8093410A85ED90E090934E0A80
:1057000080934D0A84ED90E09093500A80934F0A65
:1057100080ED90E09093520A8093510A81ED90E0E1
:105720009093540A8093530A82ED90E09093560A26
:105730008093550A86ED90E09093580A8093570A1B
:1057400010925A0A10925B0A10925C0A10925D0A3B
:10575000E2E7FDE082EF9EE0108211821282138266
:10576000148215821682178210861286118613867D
:105770003C968E179F0781F71092560B1092570B8D
:105780001092580BF89480917A00806880937A0088
:105790007894F89480917A008E7F80937A0080913B
:1057A0007A00866080937A007894F89480917C00E7
:1057B0008F7780937C0080917C00806480937C0054
:1057C00078946FE389E29CE00E940C2B69E27CE014
:1057D00082E19CE00E94F92A61E484E09CE00E945E
:1057E0000C2B64E07CE08DEE9BE00E94F92A6EE3D6
:1057F0008FED9BE00E940C2B6FED7BE088EC9BE033
:105800000E94F92A60E48AEB9BE00E940C2B6AEB71
:105810007BE083EA9BE00E94F92A63E485E99BE050
:105820000E940C2B65E97BE08EE79BE00E94F92A41
:1058300062E480E79BE00E940C2B60E77BE089E557
:105840009BE00E94F92A82E090E090934C0C8093B8
:105850004B0C27E33CE030934E0C20934D0C90937F
:10586000540C8093530C2CE33CE03093560C209363
:10587000550C90935C0C80935B0C21E43CE03093DE
:105880005E0C20935D0C9093640C8093630C86E413
:105890009CE09093660C8093650C8AE380936B0C7C
:1058A00010926D0C10926C0C84E190E090936F0C50
:1058B00080936E0C2DE32093700C1092720C10925A
:1058C000710C9093740C8093730C28E32093750CE7
:1058D0001092770C1092760C9093790C8093780C40
:1058E0002CE320937A0C10927C0C10927B0C9093FA
:1058F0007E0C80937D0CEFE7FCE08FE09DE040E0C4
:1059000050E06AE774EC23E030E040835183628327
:1059100073831482158216821782138A358B248B27
:10592000178A168A78968E179F0779F705E00093F5
:10593000350D1092360D1092370D1092380D1092D1
:105940003A0D1092390D10923F0D1092400D1092A9
:10595000420D1092410D1092470D1092480D109279
:10596000490D8AE090E090933C0D80933B0D90931D
:105970003E0D80933D0D8FE090E09093440D809319
:10598000430D9093460D8093450D80E18093110D5A
:105990008AE49DE090936B0D80936A0D80E2809382
:1059A0006C0D10926D0D10926E0D10926F0D109285
:1059B000710D1092700D1092F30E1092F20E109263
:1059C000F40E1092F60E1092F50E85E38093F80E09
:1059D00061E00E94BF0487EF9EE00E94D30E8FE13A
:1059E0008093FA0E61E00E94BF0489EF9EE00E945E
:1059F000D30E8BE18093FC0E61E00E94BF048BEF1D
:105A00009EE00E94D30E11E01093FE0E8AE0809378
:105A1000FF0E1093000F1092010F80E8C82ED12CBA
:105A2000D092030FC092020F8DEF9EE00E94B21140
:105A30001093050F8BE08093060F82E08093070F91
:105A40001092080FD0920A0FC092090F84E09FE0D5
:105A50000E94B21110930C0F98E0E92EE0920D0F06
:105A600024E0F22EF0920E0F10920F0FD092110F31
:105A7000C092100F8BE09FE00E94B2111093130FA1
:105A800089E08093140F0093150F1092160FD09297
:105A9000180FC092170F82E19FE00E94B21123E01D
:105AA00040E069E189E19FE00E94382B26E040E078
:105AB00068E180E29FE00E94382B27E040E067E148
:105AC00087E29FE00E94382B28E040E060E18EE210
:105AD0009FE00E94382B29E040E06FE085E39FE0E3
