:100000000C942F020C94F3270C94C8270C949D2772
:100010000C9472270C9447270C941C270C94F126FF
:100020000C94C6260C9460020C9460020C9460023E
:100030000C9460020C9460020C9460020C946002B8
:100040000C9460020C9460020C9460020C946002A8
:100050000C9460020C9460020C9460020C947C2658
:100060000C9460020C947E280C9460020C94600244
:100070000C94C1290C94EA290C9460020C9460023F
:100080000C9460020C9460020C9460020C94600268
:100090000C9460020C9460020C9460020C94600258
:1000A0000C9460020C9460020C9460020C94600248
:1000B0000C9460020C9460020C9460020C9455291C
:1000C0000C9460020C9460020C9460020C9448281A
:1000D0000C941E280C9460020C9460020C94600234
:1000E0000C9460020C94C70D0C94E1220C94A8228D
:1000F0000C94B50D0C94D6220C941B220C944D211B
:100100000C9493220C94A30D0C9492030C94DE197E
:100110000C9455090C94A9200C94ED190C948503AA
:100120000C94A21F0C9471260C94A6030C94461EEA
:100130000C9406230C94AC160C94981C0C94D10DC2
:100140000C940E1C0C9493060C948A0D0C941C2396
:100150000C94B11E0C941C0E0C943A090C948F1E36
:100160000C94120E0C94F1200C94FD050C94F722C3
:100170000C9411230C94A7100C94080E0C94050AEF
:100180000C947B1E0C94A2160C9405260C94990DCD
:100190000C94EF1E0C941C1A0C944D1A0C94AA0388
:1001A0000C94E21E0C9426220C941A1C0C94F40558
:1001B0000C9498030C94E5230C9420210C94F70BD9
:1001C0000C9461220C94DB0D0C94A21A0C947321F4
:1001D0000C9467180C94AC190C940D240C94A30C7B
:1001E0000C94F51E0C94EC050C9488030C94B21A34
:1001F0000C9498150C947A220C94D61E0C947303CC
:100200000C943C220C94A1240C94B4030C94220F63
:100210000C94E61A0C949D160C94FC050C94AE03F9
:100220000C94FE1C0C94F40D0C94CB220C945E1FC9
:100230000C9451200C947D120C947D030C94951C0D
:100240000C946E220C9479030C94B6160C94601ADC
:100250000C9482090C94F3210C9439060C94CC1E56
:100260000C94F1230C9452220C94EA210C948103F7
:100270000C9469240C94C3210C94EA0D0C945B1A21
:100280000C948E030C94D11F0C947D2A0C94981618
:100290000C94AD0D0C94210E0C94FE0D0C94810D5C
:1002A0000C944F230C94691A0C9472150C94271813
:1002B0000C94E2160C946F260C94E20C0C943122F0
:1002C0000C94C0220C9415170C94B5220C941C208D
:1002D0000C945B060C94B3030C9447220C94B80363
:1002E0000C94631E0C9401240C94A0030C94561DD2
:1002F0000C94241C0C948F0D0C944D060C942A061F
:100300000C94711A0C94E0060C949C030C94921CAF
:100310000C94B4170C94EC220C94BD0D005EBCE25E
:10032000613FDD83C29C7E20A3FD1F41009D23BE53
:1003300046DB65F88C11AF32CA57E9740000210022
:10034000240027002A002D003000330001010000A6
:10035000040107010A0100002200250028002B00EB
:100360002E003100340002010000050108010B01DC
:10037000000020002300260029002C002F0032005E
:100380000001000003010601090105050505070537
:1003900008080808020202020A0A08080404040401
:1003A000010101010101010103030303030303032D
:1003B000040707070C0C0C0C0C0C0C0C02020202BC
:1003C00006060606060606060B0B0B0B0B0B0B0BA5
:1003D0000102102020080810204010204080020157
:1003E000020108040201010204081020408080403C
:1003F000201008040201800402018040201008043B
:1004000002010804020101020408102040800102D8
:1004100004081020408000000A0B02090C0D0E0891
:1004200007030401000000000000000000000000BD
:1004300000000000000000000000000000000000BC
:100440000000121110000000000000000000000079
:100450000000000000000000000000007D2A1124C0
:100460001FBECFEFD1E2DEBFCDBF00E00CBF18E072
:10047000A0E0B2E0ECEDF5E600E00BBF02C00790B3
:100480000D92A433B107D9F72EE0A4E3B8E001C080
:100490001D92AF3FB207E1F712E0CFE2D2E000E0F9
:1004A00006C021970109802FFE010E948430CE32C0
:1004B000D10780E00807A9F70E94122E0C94EC32B5
:1004C0000C940000EEEAF8E0A089B18982E08C93F8
:1004D000A485B5851C92A685B78580E18C93108E86
:1004E000A489B58986E08C93A289B3898C918061B7
:1004F0008C93A289B3898C9188608C93A289B389EB
:100500008C9180688C930288F389E02D80818F7DA7
:10051000808308958091710D882311F181E090E02E
:100520009093700D80936F0D1092F40E1092F60E52
:100530001092F50E1092FA0E1092F80E1092F70E1D
:100540001092F90E8091E70E8093F20E8091E80EE2
:100550008093F30E1092FD0E1092FC0E1092FE0E80
:100560000895CF93DF93FC01C8E4DBE090E1DE0166
:1005700001900D929A95E1F78091540B9091550B53
:10058000B0E0A0E0E7EAFBE08093670C9093680C92
:10059000A093690CB0936A0C80936B0C90936C0CD5
:1005A000A0936D0CB0936E0C87EF9BE09093710C51
:1005B0008093700C10926F0CA2E7BCE08C9183606A
:1005C0008B7F8C938091560B9091570BB0E0A0E0FD
:1005D00080839183A283B38384839583A683B78327
:1005E0008DE792E1928781871086E2EBFBE08081C4
:1005F00083608B7F8083EFE6FDE0D093D40EC093C1
:10060000D30E88819981968F858F92AB81AB84E6DA
:1006100090E09093BB0E8093BA0E90936F0E8093F0
:100620006E0EDF91CF9108959C014FB7F8948091A1
:10063000C509E091C40981111CC081E08E0F80932F
:10064000C40993E0E99FF0011124E55BF64F318383
:1006500020836283883211F41092C4099091C409F6
:100660008091C309981303C081E08093C5094FBFEF
:1006700008959091C3099F5F9832A1F09093C309A8
:1006800091E09E0F9093C40983E0E89FF00111244C
:10069000E55BF64F318320836283983241F71092F5
:1006A000C409E5CF1092C309EBCF8150823108F025
:1006B0005AC0E82FF0E08827EF59FC4F8F4F0C9479
:1006C000843081038503730379037D03B3038803B7
:1006D0008E03920398039C03A003A603AA03B3030B
:1006E000AE03B403B803809180008F7780938000BD
:1006F0000895809180008F7DF9CF80918000877F61
:10070000F5CF84B58F7784BD089584B58F7DFBCFF9
:100710008091B0008F778093B00008958091B000F1
:100720008F7DF9CF809190008F778093900008950E
:10073000809190008F7DF9CF80919000877FF5CFD9
:100740008091A0008F778093A00008958091A000F1
:100750008F7DF9CF8091A000877FF5CF8091200118
:100760008F77809320010895809120018F7DF9CFAC
:1007700080912001877FF5CFCF93DF93282F30E042
:10078000F901EA5EFB4F8491F901E053FC4FD491EB
:10079000F901E657FC4FC491CC23A1F081110E94CE
:1007A0005503EC2FF0E0EE0FFF1FE059FC4FA59131
:1007B000B491EC91ED2381E090E009F480E0DF91C9
:1007C000CF91089580E090E0FACF0F931F93CF93DD
:1007D000DF93EC01188219821A821B821C821D820F
:1007E0001E821F828FE00E94BC039C8180FB93F9D4
:1007F0009C838CE00E94BC039C8180FB94F99C83C9
:100800008EE00E94BC039C8180FB95F99C830FE6DF
:100810001DE08B81F801938990FB80F98B8386E042
:100820000E94BC039B8180FB91F99B8389E10E941C
:10083000BC039B8180FB94F9F80187A180FB92F9AE
:100840009B8388E00E94BC039B8180FB93F99B8380
:1008500088E10E94BC039B8180FB95F99B8387E123
:100860000E94BC039B8180FB96F99B838EE10E94D2
:10087000BC039B8180FB97F99B838DE10E94BC03A5
:100880009C8180FB90F99C8386E10E94BC039C8143
:1008900080FB91F99C8381E10E94BC039C8180FBD9
:1008A00092F99C838CE20E94BC03998180FB90F9B1
:1008B00099838EE20E94BC03998180FB91F9998310
:1008C0008DE20E94BC03998180FB92F999838FE2AB
:1008D0000E94BC03998180FB93F9998381E30E9474
:1008E000BC03998180FB94F9998380E30E94BC0347
:1008F000998180FB95F9998383E30E94BC039981D8
:1009000080FB96F9998382E30E94BC03998180FB66
:1009100097F9998385E20E94BC039A8180FB90F944
:100920009A8384E20E94BC039A8180FB91F99A83A6
:1009300087E20E94BC039A8180FB92F99A8386E247
:100940000E94BC039A8180FB93F99A8389E20E94FA
:10095000BC039A8180FB94F99A8388E20E94BC03CD
:100960009A8180FB95F99A838BE20E94BC039A815D
:1009700080FB96F99A838AE20E94BC039A8180FBED
:1009800097F99A8384E30E94BC03988180FB91F9D4
:10099000988385E30E94BC03988180FB90F998833B
:1009A0008CE10E94BC03988180FB95F998838FE1CC
:1009B0000E94BC03988180FB94F998838AE10E948D
:1009C000BC03988180FB97F998838BE10E94BC035C
:1009D000988180FB96F9988387E00E94BC039C81F4
:1009E00080FB96F99C8389E00E94BC039C8180FB7C
:1009F00097F99C838AE00E94BC039D8180FB90F95B
:100A00009D838BE00E94BC039D8180FB91F99D83B7
:100A1000DF91CF911F910F9108951F93CF93DF9393
:100A2000282F30E0F901EA5EFB4F8491F901E05391
:100A3000FC4FD491F901E657FC4FC491CC23A9F0A7
:100A4000162F81110E945503EC2FF0E0EE0FFF1FCF
:100A5000EA5AFC4FA591B4918FB7F894EC9111111B
:100A600008C0D095DE23DC938FBFDF91CF911F911B
:100A70000895DE2BF8CFCF93DF9390E0FC01E05395
:100A8000FC4F249186579C4FFC0184918823C9F028
:100A900090E0880F991FFC01E45CFC4FA591B49194
:100AA000FC01EA5AFC4FC591D49161110DC09FB76A
:100AB000F8948C91209582238C9388812823288315
:100AC0009FBFDF91CF910895623051F49FB7F894A2
:100AD0003C91822F809583238C93E8812E2BEFCF3E
:100AE0008FB7F894EC912E2B2C938FBFEACF8633DF
:100AF00008F0865320917B00982F9870277F922BC7
:100B000090937B008770806480937C0080917A0052
:100B1000806480937A0080917A0086FDFCCF80917A
:100B200078009091790008953FB7F8948091A308D8
:100B30009091A408A091A508B091A60826B5A89BFD
:100B400005C02F3F19F00196A11DB11D3FBFBA2F5F
:100B5000A92F982F8827BC01CD01620F711D811D1F
:100B6000911D42E0660F771F881F991F4A95D1F7A4
:100B700008958F929F92AF92BF92CF92DF92EF92A1
:100B8000FF926B017C010E9494054B015C01C11432
:100B9000D104E104F104B9F00E94940568197909BF
:100BA0008A099B09683E73408105910580F321E025
:100BB000C21AD108E108F10888EE880E83E0981E79
:100BC000A11CB11CE4CFFF90EF90DF90CF90BF90BD
:100BD000AF909F908F900895E4EAFAE0838194812A
:100BE0000196948383830895E4EAFAE080859185F1
:100BF00001969187808708950895AF92BF92CF9212
:100C0000DF92EF92FF920F931F93CF93DF936C01CC
:100C10007B018B01040F151FEB015E01AE18BF08AD
:100C2000C017D10759F06991D601ED91FC9101905F
:100C3000F081E02DC6011995892B79F7C501DF9167
:100C4000CF911F910F91FF90EF90DF90CF90BF90C9
:100C5000AF900895FC01538D448D252F30E0842FF3
:100C600090E0821B930B541710F0CF9608950197D4
:100C70000895FC01918D828D981761F0A28DAE0FC1
:100C8000BF2FB11D5D968C91928D9F5F9F73928F48
:100C900090E008958FEF9FEF0895FC01918D828D74
:100CA000981731F0828DE80FF11D858D90E0089541
:100CB0008FEF9FEF0895FC01918D228D892F90E099
:100CC000805C9F4F821B91098F73992708958EEA4C
:100CD00098E00E945B0621E0892B09F420E0822F36
:100CE0000895FC01A48DA80FB92FB11DA35ABF4FC1
:100CF0002C91848D90E001968F739927848FA6891B
:100D0000B7892C93A089B1898C91837080648C936E
:100D1000938D848D981306C00288F389E02D80811D
:100D20008F7D80830895EF92FF920F931F93CF934F
:100D3000DF93EC0181E0888F9B8D8C8D98131AC016
:100D4000E889F989808185FF15C09FB7F894EE89FD
:100D5000FF896083E889F98980818370806480835A
:100D60009FBF81E090E0DF91CF911F910F91FF90A5
:100D7000EF900895F62E0B8D10E00F5F1F4F0F734D
:100D80001127E02E8C8D8E110CC00FB607FCFACF08
:100D9000E889F989808185FFF5CFCE010E9471062F
:100DA000F1CFEB8DEC0FFD2FF11DE35AFF4FF082D9
:100DB0009FB7F8940B8FEA89FB8980818062CFCF3F
:100DC000CF93DF93EC01888D8823B9F0AA89BB8982
:100DD000E889F9898C9185FD03C0808186FD0DC06D
:100DE0000FB607FCF7CF8C9185FFF2CF808185FF8E
:100DF000EDCFCE010E947106E9CFDF91CF9108952A
:100E000080E090E0892B49F080E090E0892B29F088
:100E10000E94000081110E94000080E090E0892B78
:100E200049F080E090E0892B29F00E9400008111B8
:100E30000E94000080E090E0892B29F00E94670664
:100E400081110E94000080E090E0892B49F080E051
:100E500090E0892B29F00E94000081110C94000081
:100E60000895DC0180E0615090F09D919827E92F72
:100E7000EF70F0E0E45EFC4F2491E92FE295EF7013
:100E8000F0E0E45DFC4FE491822F8E27ECCF0895D3
:100E9000DC012C911196ED91FC91F8948181822BCB
:100EA00081839281322F30959323928387E090E063
:100EB0000197F1F781818323818383E290E0019799
:100EC000F1F790817894EFECF0E03197F1F792230D
:100ED00081E009F480E00895FC0190810180F281B5
:100EE000E02D292F209560FF14C0F8948281822381
:100EF00082838181892B8183A3E2B0E01197F1F78E
:100F00008281982B9283789487ED90E00197F1F796
:100F10000895F8948281822382838181892B818341
:100F2000AFEFB0E01197F1F78281982B928378941C
:100F30008FE090E0EBCFDF92EF92FF920F931F9341
:100F4000CF93DF93EC01D62EE42E08E010E0FF24CF
:100F5000F39461E08D2D8F2109F460E0CE010E94B1
:100F60006C07FF0C01501109A1F7E11010C0F894B3
:100F7000E981FA8191818881809589238183E98142
:100F8000FA81928188818095892382837894DF9188
:100F9000CF911F910F91FF90EF90DF900895EF9206
:100FA000FF920F931F93CF93DF938C017B0140E05F
:100FB00065E50E949B07E70188E0E80EF11C699156
:100FC00040E0C8010E949B07CE15DF05C1F7DF9105
:100FD000CF911F910F91FF90EF900895FC019081A8
:100FE0000180F281E02DF8948181292F20958223C0
:100FF000818378943DE743E050E0315029F1DA01F4
:101000001197F1F780818923C1F3F89482818223BB
:1010100082838181892B81837894ABE7B7E0119734
:10102000F1F7F894818182238183A3E1B1E01197E4
:10103000F1F78081982381E009F080E07894E3E67D
:10104000F6E03197F1F7089580E008958F929F922E
:10105000AF92BF92CF92DF92EF92FF920F931F93C6
:10106000CF93DF9300D01F921F92CDB7DEB78C01D4
:10107000DC0119968D919C910E94EE0740E06CEC8A
:10108000F801818592850E949B07D8014C9164E408
:1010900019968D919C910E949B078FB7F894C090F0
:1010A0009F08D090A008E090A108F090A2088FBF00
:1010B000F8018481811120C081E08983CA82DB82AA
:1010C000EC82FD8229813A814B815C816D8170E0E7
:1010D00080E090E00F900F900F900F900F90DF91B5
:1010E000CF911F910F91FF90EF90DF90CF90BF9025
:1010F000AF909F908F90089585818823F9F080812B
:1011000081111CC0F801818592850E9448078130B9
:1011100099F22FB7F89480919F089091A008A09120
:10112000A108B091A2082FBF8C199D09AE09BF0973
:101130008E3E9240A105B10528F3BECFD80113968B
:10114000EC91E9508EEE92E0E33038F4F0E0EE0FEF
:10115000FF1FE05DFD4F808191814C01B12CA12CDE
:10116000F8018181882321F060E082810E940D05D1
:10117000C501B4010E94B905D80111968C9111974F
:10118000882309F499CF61E012968C910E940D0595
:1011900093CF4F925F926F927F928F929F92AF9276
:1011A000BF92CF92DF92EF92FF920F931F93CF9354
:1011B000DF938C017B01EA01FC01818592850E940D
:1011C000EE078823D9F1B701F801818592850E9445
:1011D000CF0740E06EEBF801818592850E949B0766
:1011E0006E015E01F9E0AF0EB11C7E01F801818451
:1011F000928488E0682E712C512C44244394C401BD
:101200000E94480781115428440CF1E06F1A7108BC
:10121000B1F7F70151927F01AE16BF0639F7F80119
:10122000818592850E94EE07813041F4F60181911B
:101230006F01811105C0EE15FF05C1F790E008C0F0
:1012400068E0CE010E94310791E028852813F6CF8F
:10125000892FDF91CF911F910F91FF90EF90DF9039
:10126000CF90BF90AF909F908F907F906F905F9046
:101270004F900895EEEAFAE0A281B38113968D9122
:101280009C91149714961C921E92139795838483B5
:10129000A285B38513968D919C91149714961C92F8
:1012A0001E9213979587848708952091B20A3091F2
:1012B000B30A8091B40A9091B50A28173907C0F093
:1012C00081E090E09093AF0A8093AE0A2091BA0A31
:1012D0003091BB0A8091BC0A9091BD0A281739074A
:1012E00060F081E090E09093B70A8093B60A089589
:1012F0001092AF0A1092AE0AE9CF1092B70A10927C
:10130000B60A08951092FA0BEAEAF8E08081877F26
:1013100080830895CF93DF93A0E0B2E0FD0190E0D9
:10132000219131912817390721F4EF012297198271
:10133000188222E0E031F20799F78D919D91892B77
:1013400041F482E0A031B807C1F781E0DF91CF918D
:10135000089580E0FBCFFC0121812150330B70E028
:1013600060E0472F50E0421753073CF4480F591FE5
:10137000FA014081640F7F5FF4CF820F931FFC015D
:1013800060830895FC0181E08083658385E082832A
:101390008091460BA0E0B2E020E132E04D915D91FA
:1013A000452BE1F42A173B07C9F791E08F7E90FFA8
:1013B00080619091340890FB81F98383F894909137
:1013C000A40B8091A30B91110BC09091A20B9813C9
:1013D00007C07894148287E08183089590E0E6CF77
:1013E00090E0A0919F0BB091A00BA80FB91F2C917A
:1013F00001966091A10B70E00E9470308093A30B66
:101400001092A40B78942483E6CFCF93DF93CDB7CB
:10141000DEB7C456D1090FB6F894DEBF0FBECDBFFC
:1014200066E0CE0101960E94C209CE0101960E949B
:10143000AB09CC59DF4F0FB6F894DEBF0FBECDBF5E
:10144000DF91CF910895CF93DF93EC0167E00E9485
:10145000C209CE01DF91CF910C94AB09E1ECF0E031
:1014600080818068808308951F93CF93DF93EC0180
:1014700019861EAAFC01E05CFF4F10829FAD3196D9
:1014800080E0981719F011928F5FFBCFFE01E55BAA
:10149000FF4F10823197108210E08FAD181750F473
:1014A000EA81FB81E10FF11D60E080810E940D0562
:1014B0001F5FF3CFDF91CF911F910895CF93DF93FB
:1014C000EC010E94340AED81FE812F8138858CA9C0
:1014D0009DA9B0E0A0E080839183A283B38384833D
:1014E0009583A683B783328721878BE080878385A6
:1014F00081608D7F8B7F8387DF91CF9108953F92AD
:101500004F925F926F927F928F929F92AF92BF9213
:10151000CF92DF92EF92FF920F931F93CF93DF93BF
:1015200000D000D0CDB7DEB79E838D83062F10E0AC
:101530008FB7F894C0909F08D090A008E090A108C1
:10154000F090A2088FBFED81FE8180A991A9A2A988
:10155000B3A9C81AD90AEA0AFB0AC701B6010E9450
:10156000BA3120E030E04AE754E40E941231AD8104
:10157000BE8194966D937D938D939C939797FD0177
:10158000C0A2D1A2E2A2F3A22FB7F89480919F0843
:101590009091A008A091A108B091A2082FBFED8161
:1015A000FE8180AB91ABA2ABB3AB1587048762859C
:1015B0007385601B710BE6A4F7A4E01AF10A17A764
:1015C00006A781A5882331F0719561957109F19481
:1015D000E194F108AD81BE8198963C90072E000CF5
:1015E000880B990B0E94BC314B015C0110E000E0BC
:1015F00031100BC0ED81FE812089318942895389E8
:101600000E9471320E9484318B01B701FF0C880B5C
:10161000990B0E94BC316B017C01AD81BE81949617
:101620008D919D910D90BC91A02D89839A83AB8360
:10163000BC83ED81FE81208D318D428D538DC7019C
:10164000B6010E94713229813A814B815C810E94EE
:1016500012312B013C01B801110F880B990B0E942C
:10166000BC319B01AC01C301B2010E94A1300E94B8
:1016700084312B01AD81BE811F967C936E931E97A2
:1016800054962D913D914D915C915797C501B401B0
:101690000E94713229813A814B815C810E947132B2
:1016A000ED81FE81248D358D468D578D0E94A130B0
:1016B0004B015C01AD81BE815C968D929D92AD9295
:1016C000BC925F973320A1F050962D913D914D91A2
:1016D0005C915397C701B6010E947132A501940134
:1016E0000E94A130ED81FE81648F758F868F978F68
:1016F000AD81BE815C968C905C975D969C905D9769
:101700005E96AC905E975F96BC905F979A960D91AF
:101710001C91B801012E000C880B990B0E94BC3162
:101720006B017C019B01AC01B401C5010E940D312C
:1017300087FD16C0ED81FE8164A575A5072E000CFE
:10174000880B990B0E94BC316B017C019B01AC01A1
:10175000B401C5010E946C32181614F064017501C1
:10176000C601D701ED81FE81848F958FA68FB78F3B
:10177000B201550C880B990B0E94BC319601A70150
:101780000E94A1300E948431601771074CF0AD8136
:10179000BE819C960D911C91601771070CF48B0112
:1017A000ED81FE811787068706ABE55BFF4FAD81B4
:1017B000BE8114968C91081708F4802F808326969A
:1017C0000FB6F894DEBF0FBECDBFDF91CF911F9152
:1017D0000F91FF90EF90DF90CF90BF90AF909F90D0
:1017E0008F907F906F905F904F903F900895CF9330
:1017F000DF93CDB7DEB768970FB6F894DEBF0FBEA4
:10180000CDBFEEEAFAE0DE01119644A155A166A132
:1018100077A14D935D936D937D9373968BE0E0324A
:10182000F80799F78091430E882351F069817A81F6
:101830008B819C810E948B318AE39EE00E947F0A0B
:1018400080918F0E882391F069817A818B819C81B0
:101850000E948B3186E89EE068960FB6F894DEBF52
:101860000FBECDBFDF91CF910C947F0A68960FB663
:10187000F894DEBF0FBECDBFDF91CF910895E62F64
:10188000DC0114962C911497621758F461E06427D8
:1018900012968D919C91E80FF92FF11D80810C9487
:1018A0000D050895CF92DF92EF92FF920F931F9351
:1018B000CF93DF9300D000D01F921F92CDB7DEB739
:1018C000FC018E010F5F1F4F88E0D8011D928A95A1
:1018D000E9F74285C180E0802E2D30E0842FF12C85
:1018E000DD24D394CF100EC0CF010296B801562F3D
:1018F000501B5E1590F4DB015D91BD01DC015D9331
:10190000CD01F5CF90E0D801A80FB91FDC92019668
:10191000B9010E947030F394E5CF842F90E00196D6
:10192000B9010E947030828728960FB6F894DEBF06
:101930000FBECDBFDF91CF911F910F91FF90EF9020
:10194000DF90CF9008951F93CF93DF93FC018185A3
:101950008823A1F1DF01A65BBF4F9C91EF01C55B1E
:10196000DF4F8881981730F59F5F9C939F01205C23
:101970003F4F97AD8C91981708F4892FEF01F9012B
:101980008083CE01CF960E94520C10E08FAD1817C5
:10199000A8F4812F90E0DE01A80FB91FAF5BBF4F05
:1019A000EA81FB81E80FF91F6C9180810E940D058F
:1019B0001F5FECCF8917D0F69150D7CFDF91CF9131
:1019C0001F9108958AE39EE00E94A30C86E89EE0A2
:1019D0000C94A30CEF92FF921F93CF93DF93EC0133
:1019E00010E08C811817A0F4E12EF12CEA81FB8124
:1019F000EE0DFF1D61E080810E943B05EA81FB81C5
:101A0000EE0DFF1D60E080810E940D051F5FE9CF94
:101A1000FE01E05CFF4F1082CE01CF96DF91CF91A7
:101A20001F91FF90EF900C94520C81E20E94BC0336
:101A300021E0892B09F420E0822F0895FC018181A7
:101A4000861799F0618381E090E09383828380819F
:101A5000861751F0662381F084819581228133813C
:101A60002817390708F060830895828193818F3F9A
:101A7000980769F30196E9CF86819781EFCF0F939D
:101A80001F93CF93DF93FC012281222309F43DC0F1
:101A9000162FC62FD0E0048161E0802F0E943B0505
:101AA000209741F460E0802FDF91CF911F910F913B
:101AB0000C940D05CF3FD10511F461E0F4CFE02F78
:101AC000F0E0EA5EFB4FE491E150E23108F0B4C08F
:101AD000F0E08827E159F24F8F4F0C948430810D4C
:101AE0008A0D8F0D990DA30D1C0EAD0DB50DBD0DFD
:101AF000C70DD10DDB0DEA0DF40D1C0EFE0D080E09
:101B0000120E84B5806884BD17BDDF91CF911F91FF
:101B10000F91089584B5806284BD18BDF6CF809181
:101B20008000806880938000D0938900C0938800F3
:101B3000ECCF80918000806280938000D0938B00F6
:101B4000C0938A00E2CF80918000886080938000FB
:101B5000D0938D00C0938C00D8CF8091B000806866
:101B60008093B0001093B300D0CF8091B00080621A
:101B70008093B0001093B400C8CF8091900080682B
:101B800080939000D0939900C0939800BECF80912D
:101B90009000806280939000D0939B00C0939A0045
:101BA000B4CF80919000886080939000D0939D0086
:101BB000C0939C00AACF8091A00080688093A00071
:101BC0008091A0008F7B8093A000D093A900C09348
:101BD000A8009BCF8091A00080628093A000D0934A
:101BE000AB00C093AA0091CF8091A0008860809341
:101BF000A000D093AD00C093AC0087CF80912001AE
:101C0000806880932001D0932901C09328017DCF63
:101C100080912001806280932001D0932B01C0939A
:101C20002A0173CF80912001886080932001D09396
:101C30002D01C0932C0169CFC038D1050CF03DCFE8
:101C400031CF0F931F93CF93DF9383E20E94BC03A6
:101C50008C0182E20E94BC03EC0161E0012B09F4DB
:101C600060E08CE69BE00E941E0D61E0CD2B09F444
:101C700060E084E79BE00E941E0D80916C0B8093D6
:101C80007C0B9091740B90937D0B23E0911103C01A
:101C900021E0811122E020937E0B2091820D2223EE
:101CA00049F12091960D222329F12091D20E211184
:101CB00021C09923B1F08091E40E8093F30E10922D
:101CC000F20E6091F20E80E89DE00E943F0D60915F
:101CD000F30E84E99DE0DF91CF911F910F910C9459
:101CE0003F0D8111EECF8091E30E8093F20E1092A2
:101CF000F30EE7CFDF91CF911F910F910895CF930E
:101D0000DF93EC018A8181111EC081E08A838B817F
:101D1000811117C08C81813171F48091D000806471
:101D20008093D0008091D100877E8093D10061E0C4
:101D300081E10E943B0561E08C81DF91CF910C94A1
:101D40000D0588818987DF91CF910895CF93DF9327
:101D5000EC01862F68835A8349831C821B8262E0D0
:101D60000E943B0529813A819881923069F4309331
:101D700011022093100280916A00836080936A00B0
:101D8000EC9ADF91CF910895933059F43093130278
:101D90002093120280916A008C6080936A00ED9A11
:101DA000F0CF8EEE890F843060F787E1891BE82F32
:101DB000F0E0EE0FFF1FE05FFD4F318320838430A2
:101DC00091F08530B9F0833039F0809169008360FB
:101DD00080936900E89AD5CF809169008C608093E8
:101DE0006900E99ACECF8091690080638093690091
:101DF000EA9AC7CF80916900806C80936900EB9A62
:101E0000C0CFFC01118260E080810C940D0521E0BF
:101E1000FC01218361E080810C940D05FC0110829E
:101E200060E081810C940D0521E0FC01208361E0DC
:101E300081810C940D05FC01208121110C940E0F61
:101E40000C94140F90E0009769F588E79DE00E94DC
:101E50001B0F8AE79DE00E941B0F84EF91E0A0E03A
:101E6000B0E08093570D9093580DA093590DB09307
:101E70005A0D80935B0D90935C0DA0935D0DB09314
:101E80005E0D82E29FE09093610D8093600D81E092
:101E900080935F0D8091620D81608D7F8B7F809339
:101EA000620D0895019721F484E99DE00C947F0E62
:101EB0000895F8949091A40B992359F08091A50B63
:101EC0009091A60B01969093A60B8093A50B789406
:101ED00008952091A20B30E0E0919F0BF091A00BB0
:101EE000E20FF31F8083C90101966091A10B70E09E
:101EF0000E9470308093A20B9091A30B9813E7CFB0
:101F000081E08093A40BE3CFFC0101900020E9F76E
:101F10003197AF01481B590BBC018EEA98E00C9435
:101F2000FD058F929F92AF92BF920F931F93CF9315
:101F3000DF93CDB7DEB7A1970FB6F894DEBF0FBE23
:101F4000CDBF19A2423008F44AE08E010F5D1F4F49
:101F5000842E912CB12CA12CA50194010E944E300D
:101F6000E62FB901CA01EA30F4F4E05DD801EE933E
:101F70008D01232B242B252B79F790E080E01097FF
:101F800019F0CD010E94840FA1960FB6F894DEBF20
:101F90000FBECDBFDF91CF911F910F91BF90AF903A
:101FA0009F908F900895E95CE1CF009711F00E9417
:101FB000840F8EE592E00C94840F81E692E00E94FB
:101FC000D50FEEEAFAE015821482A7EABBE04CE2F4
:101FD00051E060E070E0D0964D935D936D937C93FB
:101FE000D397D4964D935D936D937C93D79785E566
:101FF00099E0DA969C938E93D997D8961C92A2EE8C
:10200000BBE08C9181608D7F8B7F8C9382E090E030
:1020100091838083A281B38114961C921E921397A0
:1020200091878087158614860284F385E02D1482BB
:10203000138208950E94150D882371F08091AB08DA
:1020400082FD04C086E792E00E94D50F8091AB0824
:1020500084608093AB0808958091AB088B7F809358
:10206000AB088091AE0A9091AF0A029709F450C074
:102070002091B20A3091B30A8091B40A9091B50AC6
:102080002817390708F445C081E090E09093AF0A23
:102090008093AE0A2091AE0A3091AF0A91E02130D0
:1020A000310509F090E08091AA0881FD04C08260AA
:1020B0002130310521F48091AA0890FB81F98093A9
:1020C000AA088091B60A9091B70A029709F1809107
:1020D000C30A0E9477059C019093C50A8093C40AA5
:1020E0006091C60A7091C70A41E06817790708F441
:1020F00040E09091AA0892FD05C0892F8460621784
:10210000730720F08091AA0840FB82F98093AA0807
:1021100008951092AF0A1092AE0ABCCF0E941A1016
:1021200085E40E94BC03892B71F08091AB0883FD8C
:1021300004C086E892E00E94D50F8091AB088860C9
:102140008093AB0808958091AB08877FF9CF90E02A
:10215000009781F584E79DE00E941B0F86E79DE0D4
:102160000E941B0F84EF91E0A0E0B0E08093630D2C
:102170009093640DA093650DB093660D8093670DE9
:102180009093680DA093690DB0936A0D87EA90E172
:1021900090936D0D80936C0D81E080936B0D809119
:1021A0006E0D81608D7F8B7F80936E0D86E992E04E
:1021B0000C94D50F019769F487EB92E00E94D50F3C
:1021C00084E99DE00E947F0E6CED84E99DE00C9413
:1021D0003F0D0895BF92CF92DF92EF92FF920F933F
:1021E0001F93CF93DF93EC01B62EC72E8D858111FF
:1021F00005C0CE010E94EE0781110EC01B861D8610
:102200001C8680E0DF91CF911F910F91FF90EF909E
:10221000DF90CF90BF90089540E060EFCE010E9424
:102220009B0701E0E12CD12C11E0CE010E94480770
:10223000F82ECE010E94480791E0F91218C08130B3
:1022400099F51134D8F2DB86D11002C081E08D8778
:102250008B81882399F22396EB2DFC2DCF010896D4
:1022600029912193E817F907D9F781E0CBCFEE2D1B
:10227000F0E0F8120FC08B851817A0F4DE01AE0F46
:10228000BF1F13968C91802379F4F12C193008F438
:102290001C87D12EEC0FFD1F8381902F90958923F1
:1022A00083830AC08113F1CFFE01EE0DF11D8381FE
:1022B000802B8383FF24F3946F2DCE010E946C0743
:1022C0001F5F000F11F4E39401E087E08E1508F022
:1022D000ACCFB7CFCF93DF93EB01DC011996ED9133
:1022E000FC911A971386158614861286118610861D
:1022F0001782168215821482138219968D919C91F1
:102300000E94EA10982F882341F067E0CE010E94D6
:10231000310791E02F81281390E0892FDF91CF9131
:1023200008958F929F92AF92BF92EF92FF920F9378
:102330001F93CF93DF93CDB7DEB761970FB6F894B5
:10234000DEBF0FBECDBF7C01FC0100851185F80109
:102350008781882309F470C0BE01665F7F4FC80182
:102360000E946A11882309F467C0AE014F5F5F4F76
:10237000BE01665F7F4FC8010E94C908882309F427
:102380005BC08A81812C912C540187FF06C0812C6F
:10239000912CF8EFAF2EBB24BA949A8549819B33D8
:1023A00009F065C02D8127FF62C040FD45C0042FA4
:1023B00010E030E020E073E0000F111F221F331FF8
:1023C0007A95D1F7B901A801407E57706627772723
:1023D00090E0B0E0A0E08C019D01EBE0000F111F48
:1023E000221F331FEA95D1F7042B152B262B372BF1
:1023F000082919292A293B29013854EE15075FEFCE
:1024000025073507CCF0C901B8010E94BC3120E096
:1024100030E040E05CE30E9471324B015C0120E05F
:1024200030E04EEF52EC0E940D31882329F0F70185
:1024300080829182A282B382F701808591850E9479
:102440002608F701608171818281938161960FB6C0
:10245000F894DEBF0FBECDBFDF91CF911F910F91DA
:10246000FF90EF90BF90AF909F908F900895082FAE
:1024700010E0102F0027110F110F110FF8E04F9FE0
:10248000A0011124042B152B012E000C220B330B61
:10249000082919292A293B29903109F0ADCF6885EF
:1024A000662309F4A9CF70E08F81AB01481B510965
:1024B000CA019695982F8827979587950E94703026
:1024C000CB01770FAA0BBB0B53E0000F111F221F8C
:1024D000331F5A95D1F7007827703327005211091E
:1024E00021093109800F911FA21FB31F950184019B
:1024F000082B192B2A2B3B2B7FCF80916A0B815005
:1025000080936A0B811118C085E080936A0B8091DB
:10251000470B23E1829FC00111248E52954F0E94E8
:1025200091119091470B892F8F5FF1F39FEF8630C8
:10253000D0F78093470B089582ED9AE00C949111A7
:10254000BF92CF92DF92EF92FF920F931F93CF93A0
:10255000DF93CDB7DEB761970FB6F894DEBF0FBE3D
:10256000CDBF7C018B01DC0119967C936E9318978B
:1025700083E0D82ECC24C394D8011996ED91FC9118
:102580001A9713861586148612861186108617826E
:10259000168215821482138217961C92179718962A
:1025A0001C9262E370E080E090E00E94B905BE01F9
:1025B000665F7F4FF801818592850E94EA1088232B
:1025C00009F477C067E0CE010A960E943107998925
:1025D0008913EDCFD80117968C9117978F5F1796B7
:1025E0008C938A85883231F008F04AC0803111F02E
:1025F0008232E9F6F80180858F5F808780818111C2
:1026000024C0818592850E94EE07BE01665F7F4FE0
:10261000D80119968D919C910E94CF0740E064EB00
:10262000F801818592850E949B07D80119968D91AA
:102630009C910E944807B82EF801818592850E94DE
:10264000EE07B11002C0D801CC928A85803119F111
:10265000AE014F5F5F4FBE01665F7F4FC8010E94B2
:10266000C908882359F08D819A859B3311F487FD21
:1026700012C08F3391F058F48F31B9F080E00EC062
:102680008B3309F4B7CF823409F091CFB3CF8F35B4
:1026900071F08F3799F78CE001C08AE0F8019381DF
:1026A000981708F084CF838382CF89E0F7CF8BE03F
:1026B000F5CFD80117969C91911103C0DA94D110EF
:1026C0005BCFD7011896ED91FC919781992331F05A
:1026D000B701665F7F4FCF010E946A11F701828BBD
:1026E0000084F185E02D1482D70118968D919C917C
:1026F0000E94260861960FB6F894DEBF0FBECDBFCC
:10270000DF91CF911F910F91FF90EF90DF90CF90CD
:10271000BF9008958F929F92AF92BF92CF92DF9217
:10272000EF92FF92CF93DF936A017B01E9010E9450
:10273000840FC530D10509F0A5C0A7019601C701D6
:10274000B6010E94DE32882391F088ED92E00E946B
:10275000840F8EE592E0DF91CF91FF90EF90DF90B4
:10276000CF90BF90AF909F908F900C94840F4601B4
:102770005701E894B7F82FEF3FEF4FE75FE7C50148
:10278000B4010E94DE3281110DC02FEF3FEF4FE701
:102790005FE7C501B4010E940D3118161CF48CEDE1
:1027A00092E0D5CF2FEF3FEF4FE75FE4C701B601CF
:1027B0000E946C3218161CF480EE92E0C8CF2FEF06
:1027C0003FEF4FE75FECC701B6010E940D3187FD77
:1027D000F3CF20E030E0A901C701B6010E940D311E
:1027E00087FF09C06DE28EEA98E00E949306F7FA2F
:1027F000F094F7F8F0942BEA35EC47EA56E3C7017A
:10280000B6010E94A1306B017C010E948B314B010B
:102810005C010E94BA319B01AC01C701B6010E9464
:10282000A0306B017C014AE0C501B4010E94910F08
:102830006EE28EEA98E00E949306C6E0C15009F469
:1028400088CF20E030E040E251E4C701B6010E94A9
:1028500071324B015C010E948B316B01F12CE12C38
:102860004AE0C701B6010E94910FC701B6010E945C
:10287000BA319B01AC01C501B4010E94A0306B01CB
:102880007C01DCCFC701B6010E948B314C2F0E9426
:10289000910F5FCF21E030E03093450B2093440B44
:1028A0008091460B81608B7F8093460B8CE291E098
:1028B000A0E0B0E08093D70B9093D80BA093D90BF6
:1028C000B093DA0B8093DB0B9093DC0BA093DD0BC2
:1028D000B093DE0B85E599E09093E10B8093E00BDC
:1028E0001092DF0B8091E20B81608D7F8B7F809354
:1028F000E20B8091710D8B3029F41092690B1092CC
:10290000680B0895863029F43093690B2093680B87
:1029100008959CEF980F923038F482E090E0909305
:10292000690B8093680B0895873079F52AE030E0D1
:1029300040E050E060E87FE384EE92E00E948A137A
:1029400080914E0B90914F0BB0E0A0E080930F0D63
:102950009093100DA093110DB093120D8093130D51
:102960009093140DA093150DB093160D86EB96E180
:102970009093190D8093180D1092170D80911A0DD8
:1029800081608D7F8B7F80931A0D83E090E0C7CFAD
:102990001F93CF93DF93FC0122812223A1F0EC014E
:1029A000128214818381882391F061E0812F0E943B
:1029B0003B0560E0812F0E940D05E889F9891386A7
:1029C000EE85FF851386DF91CF911F91089560E01A
:1029D000812F0E940D058C818131A9F7DF91CF9164
:1029E0001F910C9462028EEF92E00E94D50F80E856
:1029F0009DE00E94C81484EF91E0A0E0B0E08093D5
:102A00004B0D90934C0DA0934D0DB0934E0D8093B4
:102A10004F0D9093500DA093510DB093520D87E63A
:102A200098E19093550D8093540D1092530DE6E567
:102A3000FDE0808181608D7F8B7F80830895209170
:102A4000E10E3091E20E2817390731F09093E20E33
:102A50008093E10E0C94F31408959091710D9817E2
:102A600029F0953091F020F4943089F080E00895B9
:102A7000963021F19B30D1F78430B9F08630B1F730
:102A80008093710D81E090E009C0843051F08B306B
:102A900069F78BE08093710D90E080E00E941F1534
:102AA000E5CF8093710D81E008958093710D82E0F0
:102AB00090E00E941F150E94DD0FF5CF8B30B1F61C
:102AC0002AE030E040E050E060E371E48EE193E022
:102AD0000E948A138AE39EE00E945E0A8DE0809342
:102AE000710DC4CF10927E0C8091680B9091690B90
:102AF000009769F00297D9F48BE00E942D1510928F
:102B0000690B1092680B8EE393E00C94D50F8091C3
:102B10006B0B81110CC086E00E942D1581E090E0C6
:102B20009093690B8093680B85E693E0EECF089550
:102B300010928A0C8091680B9091690B81309105FD
:102B400021F070F00297D1F008958BE00E942D15CE
:102B50001092690B1092680B89E893E00C94D50FE2
:102B600084E00E942D1582E090E09093690B8093A1
:102B7000680B1092260D8BEA93E0F0CF1092260D91
:102B800008950E94D50F1092700D10926F0D109243
:102B9000560D1092620D10926E0D80E89DE00E941D
:102BA000C81484E99DE00E94C81488EA9DE00E9450
:102BB000C8148CEB9DE00E94C81480ED9DE00E943B
:102BC000C81484EE9DE00E94C81488EF9DE00E9426
:102BD000C8148CE09EE00E94C81480E29EE00E942F
:102BE000C81484E79DE00E940E0F86E79DE00E94D6
:102BF0000E0F88E79DE00E940E0F8AE79DE00E947D
:102C00000E0F8CE79DE00E940E0F8EE79DE00E9464
:102C10000E0F84E39EE00E94010F86E39EE00E9477
:102C2000010F88E39EE00E94010F8AE39EE00E946C
:102C3000340A86E89EE00E94340A1092DF0E109259
:102C4000A20C1092AE0C1092D20C1092C60C1092E4
:102C5000EA0C1092BA0C1092DE0C1092F60C089549
:102C60001092D20E1092710E8FEC93E00C94C1155D
:102C70001F93CF93DF93EC01162F009711F00E9462
:102C8000D50F8FED93E00E94D50F1092450B109257
:102C9000440B0E9430168091710D8C50823010F0E0
:102CA0001092710D209719F0CE010E94D50F6091FE
:102CB000460B6E7F64606093460B1092B30A1092CD
:102CC000B20A1092BB0A1092BA0A1092EE0B10923E
:102CD000FA0B1092060C1092120C10921E0C10920D
:102CE0007E0C10928A0C1092020D10920E0D109212
:102CF000E20B10921A0D1092260D70E090E080E029
:102D00000E94BA31AB01BC0120E130E08FEE93E0CC
:102D10000E948A1310926B0B111106C089E1DF919A
:102D2000CF911F910C94590FDF91CF911F9108956E
:102D300060E080E094E00C94381660E087E194E075
:102D40000C943816EAEAF8E080818D7F808360E099
:102D500088E294E00C943816EAEAF8E08081846016
:102D6000808360E084E494E00C943816CF93C82FFD
:102D700010921A0D1092FA0B81E694E00E94D50F82
:102D80008CE10E94590FC11108C00E94301660E00A
:102D900090E080E0CF910C9438160E94301681E7C5
:102DA00094E00E94D50F8EE10E94590F1092700D91
:102DB00010926F0D8BE08093710D0E948A02CF916B
:102DC0000C944A14CF93C82F1092120C6091710D7D
:102DD00070E090E080E00E94BA31AB01BC012AE0D3
:102DE00030E08DE794E00E948A138091710D8C3061
:102DF00041F480E994E00E94C1151092710DCF91C9
:102E00000895C093710D88E10E94590F6C2F70E0F6
:102E100090E080E00E94BA31AB01BC012AE030E0D2
:102E20008CE994E0CF910C948A13CF93C82F109221
:102E30001E0C88EB94E00E94D50F8091710D8D30AF
:102E4000B1F4C093710D6C2F70E090E080E00E94AF
:102E5000BA31AB01BC012AE030E080ED94E00E9481
:102E60008A130E948A0286E1CF910C94590F8C300C
:102E700031F487EE94E00E94C1151092710DCF914C
:102E80000895833061F182EF94E00E94D50F84E9C8
:102E90009DE00E94C81484EF91E0A0E0B0E0809330
:102EA000570D9093580DA093590DB0935A0D8093E0
:102EB0005B0D90935C0DA0935D0DB0935E0D82E26F
:102EC0009FE09093610D8093600D10925F0D809153
:102ED000620D81608D7F8B7F8093620D089582E10A
:102EE00095E00E94D50F84E99DE00E94C81484EF0C
:102EF00091E0A0E0B0E08093630D9093640DA09307
:102F0000650DB093660D8093670D9093680DA09347
:102F1000690DB0936A0D87EA90E190936D0D8093EF
:102F20006C0D10926B0D80916E0D81608D7F8B7F8B
:102F300080936E0D08958091720D9091730D833082
:102F4000910551F0892B41F082E00E9441171092C7
:102F5000730D1092720D08951092730D1092720DF0
:102F600084E99DE00C947F0E9EEF980F923008F05C
:102F700069C01092AE0C833099F184EE9DE00E94FE
:102F80007F0E88EF9DE00E947F0E80EC94EDA1E023
:102F9000B0E08093A30C9093A40CA093A50CB093E5
:102FA000A60C8093A70C9093A80CA093A90CB093A7
:102FB000AA0C84EB97E19093AD0C8093AC0C83E06A
:102FC0008093AB0C8091AE0C81608D7F8B7F809362
:102FD000AE0C81E10E94590F83E395E00C94D50F6C
:102FE00084EE9DE00E94C81488EF9DE00E94C81402
:102FF00082E10E94590F80E395E7A0E0B0E0809362
:10300000A30C9093A40CA093A50CB093A60C809352
:10301000A70C9093A80CA093A90CB093AA0C84EBD6
:1030200097E19093AD0C8093AC0C84E08093AB0C53
:103030008091AE0C81608D7F8B7F8093AE0C8CE392
:1030400095E0CCCF60E084E495E00C9438168230B3
:10305000C9F51092A20C88EA9DE00E94C81484E988
:103060009DE00E94C81480ED9DE00E947F0E80E3E9
:1030700095E7A0E0B0E08093970C9093980CA09314
:10308000990CB0939A0C80939B0C90939C0CA093FA
:103090009D0CB0939E0C87E298E19093A10C8093D5
:1030A000A00C81E080939F0C8091A20C81608D7FA9
:1030B0008B7F8093A20C8EE00E94590F83E595E0F0
:1030C0000C94D50F60E08BE595E00C9438161F93B7
:1030D000CF93DF93CDB7DEB768970FB6F894DEBF16
:1030E0000FBECDBF90E0009709F065C08AE695E07D
:1030F0000E94D50F6091E10E7091E20E90E080E0A9
:103100000E94BA31AB01BC012AE030E08AE895E0C8
:103110000E948A138091E10E9091E20E8230910517
:1031200080F10297D9F184EF91E0A0E0B0E08093C4
:103130004B0D90934C0DA0934D0DB0934E0D80937D
:103140004F0D9093500DA093510DB093520D87E603
:1031500098E19093550D8093540D81E08093530D29
:103160008091560D81608D7F8B7F8093560D689680
:103170000FB6F894DEBF0FBECDBFDF91CF911F9188
:1031800008958CE995E00E94D50F8CE79DE00E94A0
:103190000E0F8EE79DE00E940E0FC5CF86EC95E0E6
:1031A0000E94D50F8EE79DE00E94140F8CE79DE0F2
:1031B0000E94140FB8CF0197D1F6EEEAFAE0DE01D3
:1031C000119680E29BE040A551A562A573A54D93A1
:1031D0005D936D937D9373968E179F07A1F785EE90
:1031E00095E00E94D50F6091E10E7091E20E90E0A3
:1031F00080E00E94BA31AB01BC012AE030E085E0FA
:1032000096E00E948A138091E10E9091E20E813047
:103210009105D9F1029709F463C08091430E882388
:1032200089F02AE030E040E050E060E371E48EE1B4
:1032300093E00E948A138AE39EE00E945E0A8DE07A
:103240008093710D80918F0E8823E9F12AE030E0A0
:1032500040E050E060E371E489E496E00E948A1364
:1032600086E39EE00E94010F88E39EE00E94010F2A
:1032700084EE9DE00E94C81488EF9DE00E94C8146F
:1032800086E89EE00E945E0A1EC069817A818B8179
:103290009C810E948B3181E08093430E862F90E0C9
:1032A0009093450E8093440E8AE39EE00E947F0A2D
:1032B00089E196E00E94D50F84E296E00E94D50F46
:1032C00085E10E94590F80E89DE068960FB6F8945A
:1032D000DEBF0FBECDBFDF91CF911F910C947F0E4B
:1032E00084EE9DE00E947F0E88EF9DE00E947F0E9D
:1032F00086E39EE00E94070F88E39EE00E94070F8E
:1033000069817A818B819C810E948B31162F70E0BC
:1033100090E080E00E94BA31AB01BC012AE030E0CD
:103320008EE296E00E948A1381E080938F0E812FB7
:1033300090E09093910E8093900E612F86E89EE02E
:103340000E947F0A89E196E00E94D50F81E496E011
:103350000E94D50F87E1B5CF8F929F92AF92BF9217
:10336000CF92DF92EF92FF920F931F93CF93DF9351
:1033700080916F0D9091700D019709F034C08BE62C
:1033800096E00E94D50F8CE896E00E94D50FE09160
:10339000710DE150EB3008F5F0E08827ED52F64E64
:1033A0008F4F0C948430DE194D1A5B1A601AED1998
:1033B000601A691A711AA21AB21AE61A8091760D69
:1033C000882321F086E79DE00E940E0F8CEB9DE0A4
:1033D0000E947F0E87E00E94590F1092700D10928C
:1033E0006F0D0E94DD0F0E94150D9091AB0880FBC0
:1033F00092F99093AB0885E40E94BC0321E0892BED
:1034000009F420E08091AB0820FB83F98093AB089E
:103410008091440B9091450B009771F0C091710D14
:103420002CEF2C0F029709F0E2C0233010F0CB30C4
:1034300019F481E00E94B6168091AA089091AB0819
:10344000A091AC08B091AD08409135085091360874
:10345000609137087091380884179507A607B70759
:1034600059F021E020933408809335089093360872
:10347000A0933708B093380860E08CEA99E1DF91B7
:10348000CF911F910F91FF90EF90DF90CF90BF9061
:10349000AF909F908F900C9414038091220E8823FC
:1034A00021F080E29EE00E94C8148CE09EE00E9421
:1034B0007F0E89E090CF1092E20E1092E10E8DCF38
:1034C0001092E20E1092E10E0E94F3140E949B17DC
:1034D00084CF83E00E94411782EA96E00E94D50FD4
:1034E0007CCF88EA9DE00E947F0E80E69AEEA0E005
:1034F000B0E08093AF0C9093B00CA093B10CB0935C
:10350000B20C8093B30C9093B40CA093B50CB09311
:10351000B60C8DE996E19093B90C8093B80C10929B
:10352000B70C8091BA0C81608D7F8B7F8093BA0C31
:1035300084EC96E00E94D50F86ED96E00E94D50FB0
:1035400083E149CF0E94301680ED9DE00E947F0EFE
:103550008BE00E94590F81EE96E00E94D50F82EF1A
:1035600096E0BCCF0E94301680E29EE00E947F0E63
:103570008FE00E94590F80E49CE9A0E0B0E08093C6
:10358000A30C9093A40CA093A50CB093A60C8093CD
:10359000A70C9093A80CA093A90CB093AA0C84EB51
:1035A00097E19093AD0C8093AC0C82E08093AB0CD0
:1035B0008091AE0C81608D7F8B7F8093AE0C8DEF00
:1035C00096E00E94D50F8DE097E088CF1092E20E32
:1035D0001092E10E88E79DE00E94140F8AE79DE0BB
:1035E0000E94140F90E080E00E941F156FCF909111
:1035F0006B0B992339F18091260D80FD23C082FD4C
:1036000021C040E355E760E070E040931B0D50930C
:103610001C0D60931D0D70931E0D40931F0D509354
:10362000200D6093210D7093220D48E956E15093CF
:10363000250D4093240D1092230D81608D7F8B7F8B
:103640008093260D233028F0CB3019F0992309F40C
:103650007EC08091680B9091690B039709F477C045
:10366000D091350EC63009F489C02091F80A309106
:10367000F90A4091FA0A5091FB0A60911E0B709171
:103680001F0B8091200B9091210B0E940D3187FF21
:1036900075C0D11107C084E39EE00E94070F82E04D
:1036A0000E944117C090D20AD090D30AE090D40A69
:1036B000F090D50A8090D60A9090D70AA090D80AA8
:1036C000B090D90A20E030E040E85FE3C501B401E2
:1036D0000E94A130A70196010E940D3118160CF42A
:1036E00055C010927E0CD0918A0CD0FD30C0D2FD16
:1036F0002EC00091680B1091690BF801EE0FFF1FAF
:10370000EE0FFF1FE85AF44F60817181828193812F
:103710000E948B3160937F0C7093800C8093810C9E
:103720009093820C6093830C7093840C8093850C2F
:103730009093860C88E995E19093890C8093880C8E
:103740000093870CD160DD7FDB7FD0938A0CC15062
:10375000CB3008F071CEEC2FF0E08827ED54F44E1A
:103760008F4F0C9484300E1C1A1C241C921C921C2B
:10377000951C981CFE1C561D1C1A951CDD2309F473
:1037800091CF84E39EE00E94010F89CF10928A0CB2
:1037900020E030E040E85FE3C501B4010E94A030C2
:1037A000A70196010E946C3287FD35C0D0917E0C36
:1037B000D0FDCDCFD2FDCBCF0091680B1091690B1E
:1037C000F801EE0FFF1FEE0FFF1FE85AF44F608164
:1037D0007181828193810E948B316093730C70930D
:1037E000740C8093750C9093760C6093770C7093A7
:1037F000780C8093790C90937A0C82E795E1909302
:103800007D0C80937C0C00937B0CD160DD7FDB7F93
:10381000D0937E0C9CCF10927E0C99CF80E20E94B8
:10382000BC03892B09F008CE60E088E197E00E9494
:10383000381602CE84E40E94BC03892B09F0FCCD2B
:1038400060E086E297E0F3CF0E94150D9091AA0800
:10385000882339F091609093AA0860E084E397E0B0
:10386000E6CF9E7F9093AA088091AE0A9091AF0A0E
:10387000029709F4E1CD2091B20A3091B30A809108
:10388000B40A9091B50A28173907D8F181E090E081
:103890009093AF0A8093AE0A8091AE0A9091AF0ADE
:1038A0000197A1F58091AA088D7F8093AA08809145
:1038B000EE0B80FDC1CD82FDBFCD40914C0B5091F0
:1038C0004D0B70E060E04093E30B5093E40B60938A
:1038D000E50B7093E60B4093E70B5093E80B609376
:1038E000E90B7093EA0B22EA36E13093ED0B20935B
:1038F000EC0B1092EB0B81608D7F8B7F8093EE0B36
:103900009BCD1092AF0A1092AE0AC6CF8091AA0842
:1039100081FD92CD82608093AA088AE597E00E949B
:10392000D50F8ACD0E948E1087CD0E941A1084CDAB
:103930000E94150D882331F08091AB08846080933C
:10394000AB087ACD8091B60A9091B70A029709F434
:1039500073CD2091BA0A3091BB0A8091BC0A909134
:10396000BD0A28173907C8F181E090E09093B70AA3
:103970008093B60A8091B60A9091B70A019791F5A3
:103980008091AA08877F8093AA088091FA0B80FD16
:1039900053CD82FD51CD48EE53E060E070E040939E
:1039A000EF0B5093F00B6093F10B7093F20B40937D
:1039B000F30B5093F40B6093F50B7093F60B22E826
:1039C00039E03093F90B2093F80B1092F70B8160DC
:1039D0008D7F8B7F8093FA0B2FCD1092B70A1092B8
:1039E000B60AC8CF1092FA0B8091AA0883FD24CDA5
:1039F00088608093AA088EE697E091CF80E20E94CB
:103A0000BC03892B59F460E082E897E00E943816E5
:103A10008091AA0880688093AA080ECD8091C30A7D
:103A20000E9477059093C50A8093C40A2091C60A24
:103A30003091C70A2817390778F58091AA088B7F3B
:103A40008093AA088091060C80FDF6CC82FDF4CC10
:103A50004091500B5091510B70E060E04093FB0B94
:103A60005093FC0B6093FD0B7093FE0B4093FF0B88
:103A70005093000C6093010C7093020C2CEA36E119
:103A80003093050C2093040C1092030C81608D7F01
:103A90008B7F8093060CD0CC8091AA0882FDCCCC81
:103AA00084608093AA0887EA97E039CF0E94150DB9
:103AB000882309F4C1CC8091A20C80FDBDCC82FD8D
:103AC000BBCC80ED9DE00E94C81488EA9DE00E9476
:103AD0007F0E84E99DE00E947F0E8DE00E94590FC9
:103AE00080E395E7A0E0B0E08093970C9093980C6A
:103AF000A093990CB0939A0C80939B0C90939C0C80
:103B0000A0939D0CB0939E0C87E298E19093A10C3A
:103B10008093A00C82E080939F0C8091A20C816026
:103B20008D7F8B7F8093A20C83E395E0F8CEFF928C
:103B30000F931F93CF93DF93CDB7DEB7C456D10950
:103B40000FB6F894DEBF0FBECDBFFC01F1804F2D44
:103B500050E08E010F5F1F4FBC01C8010E94E3328D
:103B60008091C6008091C6008091C1008F778093BC
:103B7000C1008091C10088608093C100F8018E2F40
:103B8000801B8F1588F481918093C6008091C000BE
:103B900086FFFCCF8091C00080648093C00080913C
:103BA000C6008091C600EBCFCC59DF4F0FB6F8941A
:103BB000DEBF0FBECDBFDF91CF911F910F91FF9060
:103BC0000C942E0A4F925F926F927F928F929F92E7
:103BD000AF92BF92CF92DF92EF92FF920F931F931B
:103BE000CF93DF93CDB7DEB7C95AD1400FB6F89463
:103BF000DEBF0FBECDBF84E6E9E3F8E0DE01AB59DE
:103C0000BF4F01900D928A95E1F7A896EFADA89766
:103C1000E550E33308F057C0F0E08827ED5EF14E41
:103C20008F4F0C948430E523631EE21E631E631ED7
:103C3000631E631E631E631E631E631E631E631E7C
:103C40008F1EB11ECC1ED61EEF1E7B1E5E1FA21F36
:103C5000D11F1C20631E631E5120A920F120461E87
:103C600020214D21C32173211C23631E631E631E6B
:103C70004F23631E631E631E631E631E631EF123B8
:103C800001240D246924A1240526F51EC090AA084C
:103C9000D090AB08E090AC08F090AD0861E2CE01A6
:103CA00001960E94C209CF82D886E986FA868BE007
:103CB0008A83CE0101960E94AB09CE0101960E9433
:103CC000971D10923408C755DE4F0FB6F894DEBF2B
:103CD0000FBECDBFDF91CF911F910F91FF90EF905D
:103CE000DF90CF90BF90AF909F908F907F906F901C
:103CF0005F904F9008951092AA081092AB0810920E
:103D0000AC081092AD0861E2CE0101960E94C20992
:103D10001F82188619861A868BE08A83BDC1CE0160
:103D200087539F4F0E94E50388E0FE01E753FF4F52
:103D3000DE01A456BE4F01900D928A95E1F762E133
:103D4000CE0101960E94C2098FE08A8388E0FE01BD
:103D5000E456FE4FDE01179601900D928A95E1F729
:103D60009BC11092AA081092AB081092AC08109256
:103D7000AD08A9968FADA9971092700D10926F0D96
:103D80008093710DAA969FADAA97992329F08B3045
:103D900019F481E00E94B6161091710D64E1CE0114
:103DA00001960E94C2091F8388E0B7CF8091710DF0
:103DB0009CEF980F933078F08B3069F00E948A0264
:103DC0000E944A14CE0101960E94230ACE01019658
:103DD0000E94971D78CF81E00E94B616F3CF60E075
:103DE0008DEB97E00E943816EDCF8AEC97E00E94A9
:103DF000D50F81E080936B0B81E090E09093450BB1
:103E00008093440B1092D20E1092710E1092700D8E
:103E100010926F0D1092560D1092620D10926E0D51
:103E200088EA9DE00E94C8148CEB9DE00E94C814B3
:103E300080ED9DE00E94C81484E79DE00E940E0F73
:103E400086E79DE00E940E0F88E79DE00E940E0F1E
:103E50008AE79DE00E940E0F8CE79DE00E940E0F06
:103E60008EE79DE00E940E0F86E39EE00E94010F08
:103E700088E39EE00E94010F8AE39EE00E94340ADC
:103E80008091460B81608B7F8093460B80E090E0B1
:103E9000A0ECB1E48093D60A9093D70AA093D80AF5
:103EA000B093D90A25E030E0AC01BD0184ED97E084
:103EB0000E948A138AE10E94590F84CFE5E6F0E060
:103EC000EC0FFD1F3396AEEABAE085E690E08C0F6A
:103ED0009D1F4B96419151916191719198964D938F
:103EE0005D936D937C939B9753968E179F0791F7E5
:103EF00088E1E5E6F0E0EC0FFD1F3396DE01A75008
:103F0000BF4F01900D928A95E1F768E1CE010196CD
:103F10000E94C2098FE18A8388E1FE01E750FF4FCA
:103F2000DE01179601900D928A95E1F7CE01019678
:103F30000E94AB09CE0101960E94971D88E10E9464
:103F40008A09C1CEAEEABAE0CE0187539F4F20E284
:103F50003BE0182F092F98964D915D916D917C91C2
:103F60009B97FC014193519361937193CF015396B9
:103F70002A173B0781F788E1E12FF02FDE01AF51CF
:103F8000BF4F01900D928A95E1F769E1CE0101964C
:103F90000E94C2098FE18A8388E1FE01EF51FF4F41
:103FA000D9CEFE01EB59FF4F9F012A5F3F4F41E001
:103FB00050E083819091850D891709F47AC690911C
:103FC000990DA4E9BDE0891709F475C632962E173C
:103FD0003F0779F7AE968FADAE97AA969FADAA9799
:103FE0009093F20E8093F30E86E0E5E6F0E0EC0F9E
:103FF000FD1F3396DE01AC55BE4F01900D928A95A0
:10400000E1F76AE1CE0101960E94C2098DE08A8340
:1040100086E0FE01EC55FE4FDE01179601900D92F1
:104020008A95E1F7CE0101960E94AB09CE01019677
:104030000E94971D8AE183CF1091F20E0091F30E3A
:10404000612F70E090E080E00E94BA31AB01BC01CA
:1040500020E130E08DED97E00E948A13602F70E040
:1040600090E080E00E94BA31AB01BC0120E130E079
:1040700083E098E00E948A136BE1CE0101960E94D2
:10408000C2098DE08A8381E08F83188782E0898767
:104090001A8784E08B870C87CE0101960E94AB09BA
:1040A00095CEAA968EAD9FADAA979093B50A8093B0
:1040B000B40AAC968EAD9FADAC979093BD0A809339
:1040C000BC0AAE968EAD9FADAE979093C20A809318
:1040D000C10AE0968EAD9FADE0979093C70A80939A
:1040E000C60AE2968EAD9FADE2979093CC0A80937C
:1040F000CB0AE4968EAD9FADE4979093D10A80935E
:10410000D00A8EE0E5E6F0E0EC0FFD1F3396DE010D
:10411000A45ABE4F01900D928A95E1F76EE1CE014F
:1041200001960E94C20985E18A838EE0FE01E45A6D
:10413000FE4FDE01179601900D928A95E1F7CE01B0
:1041400001960E94AB09CE0101960E94971D8EE157
:10415000F6CEE091BC0AF091BD0A6091C10A70915F
:10416000C20A4091C60A5091C70A2091CB0A3091E9
:10417000CC0A8091D00A9091D10AA091B40AB09152
:10418000B50AC25BDE4FB983A883CE54D140C05B71
:10419000DE4FF983E883C055D140CE5ADE4F798394
:1041A0006883C255D140CC5ADE4F59834883C455E9
:1041B000D140CA5ADE4F39832883C655D140C85AE8
:1041C000DE4F99838883C855D1406FE1CE010196B7
:1041D0000E94C20985E18A838EE0FE01E25BFE4F08
:1041E000B9CDAEEABAE0CE018F519F4F20E23BE05D
:1041F000182F092F94964D915D916D917C91979711
:10420000FC014193519361937193CF0153962A1707
:104210003B0781F788E1E12FF02FDE01A753BF4F65
:1042200001900D928A95E1F760E2CE0101960E941D
:10423000C2098FE18A8388E1FE01E753FF4F8ACDEF
:1042400005E610E00C0F1D1F0D5F1F4FC8010E94F7
:10425000B10280E1F801DE01AF5DBE4F01900D9229
:104260008A95E1F762E2CE0101960E94C20980E1DF
:10427000FE01EF5DFE4FDE01179601900D928A95CB
:10428000E1F787E18A83CE0101960E94AB09CE0156
:1042900001960E94971D82E252CE80E1E8E4FBE0A5
:1042A000DE01A753BF4F01900D928A95E1F780E19F
:1042B000FE01E753FF4FDE01AF5EBE4F01900D924E
:1042C0008A95E1F763E2CE0101960E94C20980E17E
:1042D000FE01EF5EFE4FDE01179601900D928A956A
:1042E000E1F787E11ACD8090B20A9090B30AA090CE
:1042F000BA0AB090BB0A8091BE0A0E9477056C0191
:104300008091C30A0E9477057C018091C80A0E94AF
:1043100077058C018091CD0A0E947705C05CDE4F45
:1043200099828882C054D140CE5BDE4FB982A88288
:10433000C254D140CC5BDE4FD982C882C454D14034
:10434000CA5BDE4FF982E882C654D140C85BDE4FBB
:1043500019830883C854D140C65BDE4F9983888394
:10436000CA54D14065E2CE0101960E94C2098EE096
:10437000FE01E05CFE4FDE01179601900D928A95DA
:10438000E1F785E1CACCA996EFADA997EF77E931BE
:1043900008F029C0F0E08827EF52FE4D8F4F0C94B3
:1043A0008430EA211B2226222622262231223C2288
:1043B0004722522261226E227A22F3219322F32194
:1043C000A822B522C022CB22D622E122EC22F7225B
:1043D00006231123A9968FADA99787FF27C084E7ED
:1043E0009DE00E940E0F8091820D9091960D892B79
:1043F0008093D20ECE0187539F4F0E94E50388E041
:10440000FE01E753FF4FDE01AC56BE4F01900D9207
:104410008A95E1F764E2CE0101960E94C2098FE01D
:104420008A8388E0FE01EC56FE4F94CC84E79DE041
:104430000E94140FD8CFA9968FADA99787FF03C00C
:1044400086E79DE0CECF86E79DE0F2CFA9968FADBF
:10445000A99787FF03C088E79DE0C3CF88E79DE069
:10446000E7CFA9968FADA99787FF03C08AE79DE0A4
:10447000B8CF8AE79DE0DCCFA9968FADA99787FFDB
:1044800003C08CE79DE0ADCF8CE79DE0D1CFA9962E
:104490008FADA99787FF03C08EE79DE0A2CF8EE77F
:1044A0009DE0C6CFA9964FADA997441F4427441F4E
:1044B000AA966FADAA9767708AE39EE00E943F0CB0
:1044C00092CFA9964FADA997441F4427441FAA969F
:1044D0006FADAA97677086E89EE0F0CFA9964FADC2
:1044E000A997441F4427441FAA966FADAA976770E7
:1044F0006C5FF1CFA9968FADA99787FF05C080E8C3
:104500009DE00E94C8146FCF80E89DE00E947F0E5E
:104510008091830D81110091800D602F80E89DE0D6
:104520000E943F0D60CFA9968FADA99787FF03C06A
:1045300084E99DE0E6CF84E99DE00E947F0E8091B2
:10454000970D81111091940D612F84E99DE0E8CFC2
:10455000A9968FADA99787FF03C088EA9DE0D1CFC8
:1045600088EA9DE00E947F0E3ECFA9968FADA99765
:1045700087FF03C08CEB9DE0C4CF8CEB9DE0F2CFB6
:10458000A9968FADA99787FF03C080ED9DE0B9CFB5
:1045900080ED9DE0E7CFA9968FADA99787FF03C077
:1045A00084EE9DE0AECF84EE9DE0DCCFA9968FAD8A
:1045B000A99787FF03C088EF9DE0A3CF88EF9DE018
:1045C000D1CFA9968FADA99787FF03C08CE09EE05D
:1045D00098CF8CE09EE0C6CFA9968FADA99787FFB4
:1045E00003C080E29EE08DCF80E29EE0BBCFA99623
:1045F0008FADA99787FF05C084E39EE00E94010F5D
:10460000F2CE84E39EE00E94070FEDCEA9968FAD17
:10461000A99787FF03C086E39EE0F0CF86E39EE084
:10462000F2CFA9968FADA99787FF03C088E39EE0DC
:10463000E5CF88E39EE0E7CF81E20E94BC034C0116
:1046400080E20E94BC035C01F0907C0B00917D0B2A
:1046500085E40E94BC036C0184E40E94BC039C01BD
:1046600091E0892809F090E010E090FB10F991E0CA
:10467000AB2809F090E090FB11F991E0CD2809F00A
:1046800090E090FB12F991E0232B09F090E090FB71
:1046900013F9F0FA14F900FB15F966E280CB8BE010
:1046A000E5E6F0E0EC0FFD1F3396DE01AA58BE4FA1
:1046B00001900D928A95E1F7E3968FADE397C0588C
:1046C000DE4F8883C058D1409BE0FE01EA58FE4F80
:1046D000A5EDBEE001900D929A95E1F74091D80EBC
:1046E000242F30E03093810D2093800D3091DA0E2D
:1046F000632F70E07093950D6093940D9FE0E3EE4F
:10470000FEE0DE01AF5CBE4F01900D929A95E1F79D
:104710002091D50E9091D70ECD5CDE4F4883C353C8
:10472000D140CC5CDE4F3883C453D140CB5CDE4FEC
:104730002883C553D140CA5CDE4F9883C653D1400D
:104740003FE0FE01EF5CFE4FA3EEBEE001900D9254
:104750003A95E1F72093F20E9093F30E1092FA0E31
:1047600091E09093E00E882341F080E89DE00E9464
:104770007F0E84E99DE00E947F0E8BE0E5E6F0E08D
:10478000EC0FFD1F3396DE01AF57BE4F01900D9227
:104790008A95E1F76AE2CE0101960E94C2098BE098
:1047A000FE01EF57FE4FDE01179601900D928A959C
:1047B000E1F782E18A83CE0101960E94AB09CE0126
:1047C00001960E94971D8AE2BACB1092AA08109215
:1047D000AB081092AC081092AD0861E089E298E055
:1047E00001CB61E3CE0101960E94C2098BE08A836E
:1047F00087E090E0A3E0B1E08F839887A987BA872C
:104800004BCC62E3CE0101960E94C2098BE08A8301
:1048100089EE94E3A0E0B0E0EFCFE4966CAD7DAD1F
:104820008EAD9FADE4970E94BA316B017C01E0969A
:104830006CAD7DAD8EAD9FADE0970E94BA314B015E
:104840005C01AC966CAD7DAD8EAD9FADAC970E941A
:10485000BA316093580B7093590B80935A0B909315
:104860005B0B80925C0B90925D0BA0925E0BB09202
:104870005F0BC092600BD092610BE092620BF092E2
:10488000630B8CE0E5E6F0E0EC0FFD1F3396DE01F4
:10489000A659BE4F01900D928A95E1F763E3CE01D0
:1048A00001960E94C20983E18A838CE0FE01E659E9
:1048B000FE4FDE01179601900D928A95E1F7CE0129
:1048C00001960E94AB09CE0101960E94971D83E3D9
:1048D00036CB6091600B7091610B8091620B90916F
:1048E000630B0E948B316B017C0160915C0B7091BA
:1048F0005D0B80915E0B90915F0B0E948B314B01A1
:104900005C016091580B7091590B80915A0B9091FA
:104910005B0B0E948B312B013C0164E3CE010196BD
:104920000E94C20983E18A834F82588669867A860B
:104930008B869C86AD86BE86CF86D88AE98AFA8A1F
:10494000ABCBA9968FADA9978983AA968FADAA976D
:104950008A83AB968FADAB978B83AC966FADAC97DC
:104960006C83AD968FADAD978D83AE968FADAE97C0
:104970008E83AF968FADAF978F83E0968FADE09724
:104980008887617085E00E940D056C816695617075
:1049900086E00E940D056C8162FB662760F984E069
:1049A0000E940D056C8163FB662760F988E00E9418
:1049B0000D056981617085E30E940D056981669529
:1049C000617084E30E940D056981629561708FE1D9
:1049D0000E940D05698165FB662760F98CE10E94E4
:1049E0000D05698166FB662760F98BE10E940D0564
:1049F000698167FB662760F98AE10E940D056C8179
:104A00006295617089E10E940D056C8165FB6627E6
:104A100060F988E10E940D056C8166FB662760F9EC
:104A200087E10E940D056C8167FB662760F98EE1C6
:104A30000E940D056D8161708DE10E940D056D81F3
:104A40006695617086E10E940D056D8162FB6627A7
:104A500060F981E10E940D056D8163FB662760F9B5
:104A60008FE00E940D056D81629561708CE00E945F
:104A70000D056D8165FB662760F98EE00E940D05CE
:104A80006B81617085E20E940D056B816695617096
:104A900084E20E940D056B8162FB662760F987E264
:104AA0000E940D056B8163FB662760F986E20E9418
:104AB0000D056B816295617089E20E940D056B8125
:104AC00065FB662760F988E20E940D056B8166FB35
:104AD000662760F98BE20E940D056B8167FB6627F4
:104AE00060F98AE20E940D056A8161708CE20E9481
:104AF0000D056A81669561708EE20E940D056A81DE
:104B000062FB662760F98DE20E940D056A8163FBF6
:104B1000662760F98FE20E940D056A8162956170D7
:104B200081E30E940D056A8165FB662760F980E3D9
:104B30000E940D056A8166FB662760F983E30E9487
:104B40000D056A8167FB662760F982E30E940D0507
:104B50006D8166FB662760F987E00E940D056D8117
:104B600067FB662760F989E00E940D056E81617020
:104B70008AE00E940D056E81669561708BE00E944F
:104B80000D05C753DF4F1882C95CD040C653DF4FB5
:104B90001882CA5CD040C553DF4F1882CB5CD0402E
:104BA000C453DF4F1882CC5CD040C353DF4F188210
:104BB000CD5CD040C253DF4F1882CE5CD040C15391
:104BC000DF4F1882CF5CD040C053DF4F1882C05DEA
:104BD000D040CE0187539F4F0E94E50388E0FE013D
:104BE000E753FF4FDE01A457BE4F01900D928A9507
:104BF000E1F765E3CE0101960E94C2098FE08A8346
:104C000088E0FE01E457FE4FA5C8CE0101960E9440
:104C1000230ACE0101960E94971D1092B20B6FE7F6
:104C20007AE082ED9AE00E94A0126AE57AE085EED1
:104C30009AE00E94A01265E37AE088EF9AE00E9471
:104C4000A01260E17AE08BE09BE00E94A0126BEE84
:104C500079E08EE19BE00E94A01266EC79E081E3AE
:104C60009BE00E94A0128091560B9091570BB0E0F0
:104C7000A0E08093A70B9093A80BA093A90BB093EF
:104C8000AA0B8093AB0B9093AC0BA093AD0BB0939E
:104C9000AE0B8DE792E19093B10B8093B00B109225
:104CA000AF0B8091B20B83608B7F8093B20B0C941F
:104CB000631EA0E8BDE013969C911397992309F415
:104CC00085C915969C911597891380C91B965C938D
:104CD0004E931A97848190E08D939C9377C90C949E
:104CE000E21DE9E3F8E084E6DF011D928A95E9F729
:104CF0001092A7080C942E0A1F920F920FB60F92D3
:104D000011242F933F938F939F93AF93BF938091E1
:104D10009F089091A008A091A108B091A20830919D
:104D20009E0823E0230F2D3758F50196A11DB11DD4
:104D300020939E0880939F089093A008A093A108B9
:104D4000B093A2088091A3089091A408A091A5080F
:104D5000B091A6080196A11DB11D8093A308909360
:104D6000A408A093A508B093A608BF91AF919F9106
:104D70008F913F912F910F900FBE0F901F9018951C
:104D800026E8230F0296A11DB11DD2CF1F920F92CC
:104D90000FB60F9211240BB60F922F933F934F93A0
:104DA0005F936F937F938F939F93AF93BF93EF9393
:104DB000FF93E0911E02F0911F021995FF91EF9170
:104DC000BF91AF919F918F917F916F915F914F9123
:104DD0003F912F910F900BBE0F900FBE0F901F9021
:104DE00018951F920F920FB60F9211240BB60F92C7
:104DF0002F933F934F935F936F937F938F939F93E3
:104E0000AF93BF93EF93FF93E0911C02F0911D02CB
:104E10001995FF91EF91BF91AF919F918F917F91E4
:104E20006F915F914F913F912F910F900BBE0F901B
:104E30000FBE0F901F9018951F920F920FB60F92F2
:104E400011240BB60F922F933F934F935F936F9361
:104E50007F938F939F93AF93BF93EF93FF93E091D3
:104E60001202F09113021995FF91EF91BF91AF914A
:104E70009F918F917F916F915F914F913F912F9172
:104E80000F900BBE0F900FBE0F901F9018951F92A2
:104E90000F920FB60F9211240BB60F922F933F93E0
:104EA0004F935F936F937F938F939F93AF93BF9332
:104EB000EF93FF93E0911002F09111021995FF9189
:104EC000EF91BF91AF919F918F917F916F915F9182
:104ED0004F913F912F910F900BBE0F900FBE0F90EF
:104EE0001F9018951F920F920FB60F9211240BB6B8
:104EF0000F922F933F934F935F936F937F938F9373
:104F00009F93AF93BF93EF93FF93E0911A02F091B9
:104F10001B021995FF91EF91BF91AF919F918F91D6
:104F20007F916F915F914F913F912F910F900BBEA9
:104F30000F900FBE0F901F9018951F920F920FB6F3
:104F40000F9211240BB60F922F933F934F935F93C1
:104F50006F937F938F939F93AF93BF93EF93FF9341
:104F6000E0911802F09119021995FF91EF91BF910C
:104F7000AF919F918F917F916F915F914F913F91F1
:104F80002F910F900BBE0F900FBE0F901F90189592
:104F90001F920F920FB60F9211240BB60F922F9300
:104FA0003F934F935F936F937F938F939F93AF93B1
:104FB000BF93EF93FF93E0911602F09117021995BA
:104FC000FF91EF91BF91AF919F918F917F916F91E1
:104FD0005F914F913F912F910F900BBE0F900FBE9D
:104FE0000F901F9018951F920F920FB60F921124D9
:104FF0000BB60F922F933F934F935F936F937F93D3
:105000008F939F93AF93BF93EF93FF93E09114021D
:10501000F09115021995FF91EF91BF91AF919F917A
:105020008F917F916F915F914F913F912F910F9051
:105030000BBE0F900FBE0F901F9018951F920F92EE
:105040000FB60F9211240BB60F922F933F934F93ED
:105050005F936F937F938F939F93AF93BF93EF93E0
:10506000FF938EEA98E00E947106FF91EF91BF9145
:10507000AF919F918F917F916F915F914F913F91F0
:105080002F910F900BBE0F900FBE0F901F90189591
:105090001F920F920FB60F9211240BB60F922F93FF
:1050A0008F939F93EF93FF93E091BE08F091BF0819
:1050B0008081E091C408F091C50882FD1DC09081F7
:1050C0008091C7088F5F8F732091C808821741F0C5
:1050D000E091C708F0E0E255F74F958F8093C7083D
:1050E000FF91EF919F918F912F910F900BBE0F9099
:1050F0000FBE0F901F9018958081F2CF1F920F92D4
:105100000FB60F9211240BB60F922F933F934F932C
:105110005F936F937F938F939F93AF93BF93CF933F
:10512000EF93FF938091C10080688093C1008091CC
:10513000C10088608093C100C091C6008091BE0B01
:105140008E7F8093BE0B8091A708843658F0E9E3E8
:10515000F8E084E6DF011D928A95E9F71092A7082E
:105160000E942E0AE091A708E33020F080913A08CF
:105170008093A90881E08E0F8093A708F0E0E75C98
:10518000F74FC0839091A90889136BC0909139089B
:10519000913009F05AC040EA5FE060E070E040936F
:1051A000BF0B5093C00B6093C10B7093C20B409325
:1051B000C30B5093C40B6093C50B7093C60B21E7D0
:1051C00036E23093C90B2093C80B1092C70B909115
:1051D000CA0B93609B7F9093CA0B50E040E090E035
:1051E000BC0161507109252F30E0261737073CF4C8
:1051F000275C374FF9012081420F5F5FF4CF885C55
:10520000974FDC018C9160E048131CC08FE696E25A
:105210000E9414031092A7080E942E0AFF91EF919A
:10522000CF91BF91AF919F918F917F916F915F913E
:105230004F913F912F910F900BBE0F900FBE0F908B
:105240001F90189585E09AE0E3CFE9E3F8E084E663
:10525000DF011D928A95E9F71092A7080E942E0A95
:10526000D9CF8AE090E0A0E0B0E08093B30B9093B8
:10527000B40BA093B50BB093B60B8093B70B909380
:10528000B80BA093B90BB093BA0B81E796E2909359
:10529000BD0B8093BC0B1092BB0B8091BE0B816049
:1052A0008D7F8B7F8093BE0BB7CF1F920F920FB66F
:1052B0000F9211240BB60F92FF920F931F932F930F
:1052C0003F934F935F936F937F938F939F93AF938E
:1052D000BF93CF93DF93EF93FF93C7EADBE010E038
:1052E00000E08CE0F82EF09EF001F19EF00D11240C
:1052F000EE54F44F808180FF23C08C819D81AE816C
:10530000BF810197A109B1098C839D83AE83BF83BF
:10531000892B8A2B8B2BA1F480818460808381FF71
:105320002DC088819981AA81BB818C839D83AE83A6
:10533000BF8389859A85009719F068850E941403B8
:105340000F5F1F4F2C960632110569F6FF91EF9102
:10535000DF91CF91BF91AF919F918F917F916F918D
:105360005F914F913F912F911F910F91FF900F905F
:105370000BBE0F900FBE0F901F9018958E7F8083ED
:10538000D8CF1F920F920FB60F9211240BB60F9227
:105390002F933F934F935F936F937F938F939F933D
:1053A000AF93BF93EF93FF93F0E0E0E01995FF9187
:1053B000EF91BF91AF919F918F917F916F915F918D
:1053C0004F913F912F910F900BBE0F900FBE0F90FA
:1053D0001F9018951F920F920FB60F9211240BB6C3
:1053E0000F922F933F934F935F936F937F938F937E
:1053F0009F93AF93BF93EF93FF93F0E0E0E0199595
:10540000FF91EF91BF91AF919F918F917F916F919C
:105410005F914F913F912F910F900BBE0F900FBE58
:105420000F901F901895FC0117821086108289E05A
:10543000838381E08483858386831182168A158A1B
:105440008FEF838B148A7287618708951F93CF93A0
:10545000DF93EC01162F60E0812F0E943B05612F46
:1054600070E0FB01E053FC4FE491E883FB01E65759
:10547000FC4FE491F0E0EE0FFF1FE059FC4F8591E7
:1054800094919A8389831B861D861C861A861986A9
:1054900018861F821E821D821C821B82DF91CF9183
:1054A0001F910895CF93DF93EC01862F698361E00C
:1054B0000E943B05CE01DF91CF910C940E0FCF934C
:1054C000DF93EC01862F198218824B836C832D8326
:1054D0001E829FEF998721E030E03B872A872FEFDC
:1054E00030E03B8B2A8B411103C061E00E943B05F9
:1054F000CE01DF91CF910C94C8147F928F929F922E
:10550000AF92BF92CF92DF92EF92FF920F931F93D1
:10551000CF93DF93CDB7DEB72F970FB6F894DEBFEA
:105520000FBECDBF1092B1081092B00888EE93E084
:10553000A0E0B0E08093B2089093B308A093B408C1
:10554000B093B5088AE392E09093AF088093AE08D9
:1055500085ED90E09093BB088093BA0884ED90E0CD
:105560009093BD088093BC0880ED90E09093BF08B5
:105570008093BE0881ED90E09093C1088093C008AD
:1055800082ED90E09093C3088093C20886ED90E08E
:105590009093C5088093C4081092C7081092C80859
:1055A0001092C9081092CA08E7EAFBE08FE69DE076
:1055B000108211821282138214821582168217823F
:1055C00010861286118613863C968E179F0781F7E8
:1055D0001092C3091092C4091092C509F8948091E1
:1055E0007A00806880937A007894F89480917A00A9
:1055F0008E7F80937A0080917A00866080937A0013
:105600007894F89480917C008F7780937C008091CF
:105610007C00806480937C0078946FE386E99AE054
:105620000E94262A66E97AE08FE79AE00E94132A10
:105630006EE381E79AE00E94262A61E77AE08AE534
:105640009AE00E94132A61E48CE49AE00E94262AE0
:105650006CE47AE085E39AE00E94132A60E487E232
:105660009AE00E94262A67E27AE080E19AE00E94AE
:10567000132A63E482E09AE00E94262A62E07AE03C
:105680008BEE99E00E94132A62E48DED99E00E946E
:10569000262A6DED79E086EC99E00E94132A82E0DB
:1056A00090E09093AF0A8093AE0A24EA3AE03093F8
:1056B000B10A2093B00A9093B70A8093B60A89EA98
:1056C0009AE09093B90A8093B80A88E38093BE0A5F
:1056D0001092C00A1092BF0A84E190E09093C20A2F
:1056E0008093C10A2BE32093C30A1092C50A10923B
:1056F000C40A9093C70A8093C60A2AE32093C80A73
:105700001092CA0A1092C90A9093CC0A8093CB0ACD
:105710002DE32093CD0A1092CF0A1092CE0A9093D7
:10572000D10A8093D00AE2EDFAE084E49BE0108293
:105730001182128213821482158216821782739646
:105740008E179F07A1F715E010936A0B10926B0B51
:1057500010926C0B10926D0B10926F0B10926E0BDF
:105760001092740B1092750B1092770B1092760BAF
:1057700010927C0B10927D0B10927E0B8AE090E0D1
:105780009093710B8093700B9093730B8093720BBB
:105790008FE090E09093790B8093780B90937B0B44
:1057A00080937A0B80E18093460B8FE79BE0909388
:1057B000A00B80939F0B80E28093A10B1092A20B11
:1057C0001092A30B1092A40B1092A60B1092A50B93
:1057D0001092700D10926F0D1092710D1092730D4A
:1057E0001092720D65E384E79DE00E94522A64E303
:1057F00086E79DE00E94522A6FE188E79DE00E94C3
:10580000522A6CE18AE79DE00E94522A6BE18CE704
:105810009DE00E94522A6AE18EE79DE00E94522A92
:1058200021E041E065E080E89DE00E945F2A24E0FD
:1058300041E064E084E99DE00E945F2A23E040E0CB
:1058400069E188EA9DE00E945F2A26E040E068E185
:105850008CEB9DE00E945F2A27E040E067E180ED4D
:105860009DE00E945F2A28E040E06EE184EE9DE02A
:105870000E945F2A29E040E06DE188EF9DE00E94F0
:105880005F2A2AE040E066E18CE09EE00E945F2A09
:105890002BE040E061E180E29EE00E945F2A8FE021
:1058A000782E7092340E1092350E61E08FE00E94D7
:1058B0003B0584E39EE00E94010F8CE08093360E4E
:1058C0001092370E61E00E943B0586E39EE00E9445
:1058D000010F8EE08093380E1092390E61E00E9425
:1058E0003B0588E39EE00E94010FECE4F2E0F093B8
:1058F0003B0EE0933A0E86E592E090933D0E809346
:105900003C0E08E000933E0E83E19CE09093400E35
:1059100080933F0E85E197E19093420E8093410E74
:105920001092430E1092450E1092440E1092470EA4
:105930001092460E1092490E1092480E1092560E7A
:105940001092570E1092580E1092590E1092620E2D
:105950001092630E1092650E1092640E1092690EF2
:105960001092680E10926A0E10926B0E10926C0ECE
:1059700010926D0E9DEC892E9CEC992EA92C9DE326
:10598000B92E80925E0E90925F0EA092600EB09241
:10599000610E24E6C22ED12CE12CF12CC0925A0EBD
:1059A000D0925B0EE0925C0EF0925D0E40E050E013
:1059B00060EA70E440934A0E50934B0E60934C0E95
:1059C00070934D0E80E090E0A0E4B0E480934E0E22
:1059D00090934F0EA093500EB093510E8093520EA1
:1059E0009093530EA093540EB093550E1092710ED7
:1059F0000093790E10927A0E1092830E10927B0E05
:105A000010927C0E10927D0E10927E0E10927F0EE0
:105A10001092800E1092810E1092820E1092840EBF
:105A20001092850E28E030E03093670E2093660ECA
:105A3000F093870EE093860EEEE4F2E0F093890E89
:105A4000E093880E00938A0EE7E0FCE0F0938C0E62
:105A5000E0938B0EE2EEF6E1F0938E0EE0938D0E66
:105A600010928F0E1092910E1092900E1092930E33
:105A70001092920E1092950E1092940E1092A20E09
:105A80001092A30E1092A40E1092A50E1092AE0EBC
:105A90001092B10E1092B00E1092B50E1092B40E7C
:105AA0001092B60E1092B70E1092B80E1092B90E58
:105AB0008092AA0E9092AB0EA092AC0EB092AD0E58
:105AC000C092A60ED092A70EE092A80EF092A90E58
:105AD0004093960E5093970E6093980E7093990E84
