:100000000C942B020C942A270C94FF260C94D426D3
:100010000C94A9260C947E260C9453260C94282626
:100020000C94FD250C945C020C945C020C945C0214
:100030000C945C020C945C020C945C020C945C02C8
:100040000C945C020C945C020C945C020C945C02B8
:100050000C945C020C945C020C945C020C94B3252E
:100060000C945C020C94B5270C945C020C945C021A
:100070000C94F8280C9421290C945C020C945C02DA
:100080000C945C020C945C020C945C020C945C0278
:100090000C945C020C945C020C945C020C945C0268
:1000A0000C945C020C945C020C945C020C945C0258
:1000B0000C945C020C945C020C945C020C948C28F2
:1000C0000C945C020C945C020C945C020C947F27F0
:1000D0000C9455270C945C020C945C020C945C020A
:1000E0000C945C020C940E0E0C941D200C9482193E
:1000F0000C94D31B0C94860D0C94A90D0C948D219B
:100100000C9473210C94A6250C9477030C94B10DD8
:100110000C948C170C94211A0C94101E0C94FA0554
:100120000C9480090C9436220C944C1B0C94A62140
:100130000C9429230C9448180C94E1210C94A403EA
:100140000C949E030C9447210C94DE0C0C94F20545
:100150000C9458190C9402220C9419160C94E60D68
:100160000C94040E0C9487170C94A8030C9401179C
:100170000C94941C0C94EA050C94B0110C9490030C
:100180000C94D61B0C9479200C941F210C94F11D17
:100190000C949F0D0C94FF090C9453090C94841D2E
:1001A0000C943C1C0C9483030C940D220C94581B4F
:1001B0000C948C030C9428060C9437060C949A0328
:1001C0000C94A1230C94CD0D0C9491170C94180E43
:1001D0000C94EF200C949A210C94950D0C946821AA
:1001E0000C94FA0D0C94481F0C94B90D0C948603D2
:1001F0000C947B030C9454220C941D230C948B0DB3
:100200000C944B060C9496030C94A5170C94590669
:100210000C94D01B0C9423220C9493150C94D51F92
:100220000C94F7210C9416210C94E71D0C943D2599
:100230000C9445230C9438090C94A8250C947F1930
:100240000C94B6030C94FD1D0C94CC1D0C94B203BD
:100250000C94CE1E0C9445220C947F030C947D1FAD
:100260000C947E210C945D210C9487220C94C30D78
:100270000C947D0D0C940A1E0C94FB050C94F7183D
:100280000C94BF210C9418220C943F160C94E7197F
:100290000C944C200C9491060C944A190C94D70D94
:1002A0000C94AA1D0C9439190C9463190C94981D84
:1002B0000C94B4290C94A0190C946E190C94B61ECD
:1002C0000C94EC210C94D00B0C94D9230C94D517DE
:1002D0000C94F00D0C9439230C949F0C0C94D421A5
:1002E0000C94D1190C94621B0C94731E0C949B17E4
:1002F0000C949F200C94C5180C9452210C94DE068B
:100300000C94FD1E0C9471030C94B1030C94AC037B
:100310000C948818005EBCE2613FDD83C29C7E20A5
:10032000A3FD1F41009D23BE46DB65F88C11AF3253
:10033000CA57E97400002100240027002A002D007C
:100340003000330001010000040107010A01000030
:100350002200250028002B002E003100340002016D
:100360000000050108010B01000020002300260009
:1003700029002C002F0032000001000003010601BB
:10038000090105050505070508080808020202021B
:100390000A0A080804040404010101010101010121
:1003A0000303030303030303040707070C0C0C0CEC
:1003B0000C0C0C0C020202020606060606060606D5
:1003C0000B0B0B0B0B0B0B0B010210202008081062
:1003D00020401020408002010201080402010102B5
:1003E000040810204080804020100804020180048E
:1003F00002018040201008040201080402010102E9
:1004000004081020408001020408102040800000F1
:100410000A0B02090C0D0E0807030401000000007E
:1004200000000000000000000000000000000000CC
:100430000000000000000000000012111000000089
:1004400000000000000000000000000000000000AC
:1004500000000000B42911241FBECFEFD1E2DEBF9F
:10046000CDBF00E00CBF17E0A0E0B2E0E8E4F4E6A6
:1004700000E00BBF02C007900D92A837B107D9F773
:100480002EE0A8E7B7E001C01D92AA31B207E1F75C
:1004900012E0CBE2D2E000E006C021970109802FF4
:1004A000FE010E94BA2FCA32D10780E00807A9F7DF
:1004B0000E94482D0C9422320C94000080918C0CE8
:1004C000882311F181E090E090938B0C80938A0C4B
:1004D00010920F0E1092110E1092100E1092150E17
:1004E0001092130E1092120E1092140E8091020EA2
:1004F00080930D0E8091030E80930E0E1092180EB5
:100500001092170E1092190E0895EDEEF7E0A089E3
:10051000B18982E08C93A485B5851C92A685B785A8
:1005200080E18C93108EA489B58986E08C93A28992
:10053000B3898C9180618C93A289B3898C918860F6
:100540008C93A289B3898C9180688C930288F389FB
:10055000E02D80818F7D80830895CF93DF93FC0110
:10056000C7E8DAE090E1DE0101900D929A95E1F79B
:100570008091930A9091940AB0E0A0E0E6EEFAE050
:100580008093A60B9093A70BA093A80BB093A90BF5
:100590008093AA0B9093AB0BA093AC0BB093AD0BD5
:1005A00080ED9BE09093B00B8093AF0B1092AE0B5D
:1005B000A1EBBBE08C9183608B7F8C938091950A3B
:1005C0009091960AB0E0A0E080839183A283B383E8
:1005D00084839583A683B78380EB91E1928781879B
:1005E0001086E1EFFAE0808183608B7F8083EAE808
:1005F000FCE0D093EF0DC093EE0D88819981968F2A
:10060000858F92AB81AB8091910A9091920A9093E1
:10061000D60D8093D50D90938A0D8093890DDF912F
:10062000CF9108959C014FB7F89480910409E0910F
:10063000030981111CC081E08E0F8093030993E0B0
:10064000E99FF0011124E657F74F3183208362833D
:10065000883211F4109203099091030980910209E4
:10066000981303C081E0809304094FBF08959091CF
:1006700002099F5F9832A1F09093020991E09E0FCA
:100680009093030983E0E89FF0011124E657F74FA8
:10069000318320836283983241F710920309E5CFBA
:1006A00010920209EBCF8150823108F05AC0E82F36
:1006B000F0E08827E15AFC4F8F4F0C94BA2F7F034C
:1006C0008303710377037B03B10386038C039003D9
:1006D00096039A039E03A403A803B103AC03B203D9
:1006E000B603809180008F77809380000895809179
:1006F00080008F7DF9CF80918000877FF5CF84B512
:100700008F7784BD089584B58F7DFBCF8091B00035
:100710008F778093B00008958091B0008F7DF9CFDE
:10072000809190008F778093900008958091900041
:100730008F7DF9CF80919000877FF5CF8091A000C9
:100740008F778093A00008958091A0008F7DF9CFCE
:100750008091A000877FF5CF809120018F778093D3
:1007600020010895809120018F7DF9CF8091200193
:10077000877FF5CFCF93DF93282F30E0F901E25F39
:10078000FB4F8491F901E853FC4FD491F901EE57E6
:10079000FC4FC491CC23A1F081110E945303EC2F94
:1007A000F0E0EE0FFF1FE859FC4FA591B491EC91DA
:1007B000ED2381E090E009F480E0DF91CF9108958E
:1007C00080E090E0FACF0F931F93CF93DF93EC017B
:1007D000188219821A821B821C821D821E821F822D
:1007E0008FE00E94BA039C8180FB93F99C838CE08C
:1007F0000E94BA039C8180FB94F99C838EE00E9446
:10080000BA039C8180FB95F99C830AE81CE08B81EC
:10081000F801938990FB80F98B8386E00E94BA03EC
:100820009B8180FB91F99B8389E10E94BA039B81A4
:1008300080FB94F9F80187A180FB92F99B8388E003
:100840000E94BA039B8180FB93F99B8388E10E94FD
:10085000BA039B8180FB95F99B8387E10E94BA03D1
:100860009B8180FB96F99B838EE10E94BA039B815A
:1008700080FB97F99B838DE10E94BA039C8180FBEA
:1008800090F99C8386E10E94BA039C8180FB91F9D8
:100890009C8381E10E94BA039C8180FB92F99C8336
:1008A0008CE20E94BA03998180FB90F999838EE2D1
:1008B0000E94BA03998180FB91F999838DE20E948D
:1008C000BA03998180FB92F999838FE20E94BA035F
:1008D000998180FB93F9998381E30E94BA039981FE
:1008E00080FB94F9998380E30E94BA03998180FB8D
:1008F00095F9998383E30E94BA03998180FB96F965
:10090000998382E30E94BA03998180FB97F99983C6
:1009100085E20E94BA039A8180FB90F99A8384E26F
:100920000E94BA039A8180FB91F99A8387E20E9420
:10093000BA039A8180FB92F99A8386E20E94BA03F5
:100940009A8180FB93F99A8389E20E94BA039A8183
:1009500080FB94F99A8388E20E94BA039A8180FB13
:1009600095F99A838BE20E94BA039A8180FB96F9EB
:100970009A838AE20E94BA039A8180FB97F99A834C
:1009800084E30E94BA03988180FB91F9988385E300
:100990000E94BA03988180FB90F998838CE10E94B1
:1009A000BA03988180FB95F998838FE10E94BA037E
:1009B000988180FB94F998838AE10E94BA03988118
:1009C00080FB97F998838BE10E94BA03988180FBA2
:1009D00096F9988387E00E94BA039C8180FB96F980
:1009E0009C8389E00E94BA039C8180FB97F99C83D9
:1009F0008AE00E94BA039D8180FB90F99D838BE081
:100A00000E94BA039D8180FB91F99D83DF91CF9174
:100A10001F910F9108951F93CF93DF93282F30E0FC
:100A2000F901E25FFB4F8491F901E853FC4FD49147
:100A3000F901EE57FC4FC491CC23A9F0162F811178
:100A40000E945303EC2FF0E0EE0FFF1FE25BFC4F20
:100A5000A591B4918FB7F894EC91111108C0D0957D
:100A6000DE23DC938FBFDF91CF911F910895DE2BA2
:100A7000F8CFCF93DF9390E0FC01E853FC4F249133
:100A80008E579C4FFC0184918823C9F090E0880F19
:100A9000991FFC01EC5CFC4FA591B491FC01E25B59
:100AA000FC4FC591D49161110DC09FB7F8948C9102
:100AB000209582238C938881282328839FBFDF91F0
:100AC000CF910895623051F49FB7F8943C91822FF2
:100AD000809583238C93E8812E2BEFCF8FB7F894EA
:100AE000EC912E2B2C938FBFEACF863308F08653E0
:100AF00020917B00982F9870277F922B90937B00FA
:100B00008770806480937C0080917A0080648093F9
:100B10007A0080917A0086FDFCCF809178009091D8
:100B2000790008953FB7F8948091E2079091E30728
:100B3000A091E407B091E50726B5A89B05C02F3F1B
:100B400019F00196A11DB11D3FBFBA2FA92F982FF3
:100B50008827BC01CD01620F711D811D911D42E0EE
:100B6000660F771F881F991F4A95D1F708958F92B6
:100B70009F92AF92BF92CF92DF92EF92FF926B0162
:100B80007C010E9492054B015C01C114D104E10477
:100B9000F104B9F00E949205681979098A099B0944
:100BA000683E73408105910580F321E0C21AD108A7
:100BB000E108F10888EE880E83E0981EA11CB11CA4
:100BC000E4CFFF90EF90DF90CF90BF90AF909F90D9
:100BD0008F900895E3EEF9E08381948101969483E8
:100BE00083830895E3EEF9E08085918501969187EE
:100BF000808708950895AF92BF92CF92DF92EF92CF
:100C0000FF920F931F93CF93DF936C017B018B01B6
:100C1000040F151FEB015E01AE18BF08C017D10706
:100C200059F06991D601ED91FC910190F081E02D90
:100C3000C6011995892B79F7C501DF91CF911F91D5
:100C40000F91FF90EF90DF90CF90BF90AF900895FD
:100C5000FC01538D448D252F30E0842F90E0821BC2
:100C6000930B541710F0CF96089501970895FC0147
:100C7000918D828D981761F0A28DAE0FBF2FB11D9F
:100C80005D968C91928D9F5F9F73928F90E00895F7
:100C90008FEF9FEF0895FC01918D828D981731F0B1
:100CA000828DE80FF11D858D90E008958FEF9FEF05
:100CB0000895FC01918D228D892F90E0805C9F4FDB
:100CC000821B91098F73992708958DEE97E00E94FA
:100CD000590621E0892B09F420E0822F0895FC01B8
:100CE000A48DA80FB92FB11DA35ABF4F2C91848D8D
:100CF00090E001968F739927848FA689B7892C93EA
:100D0000A089B1898C91837080648C93938D848D3C
:100D1000981306C00288F389E02D80818F7D80833F
:100D20000895EF92FF920F931F93CF93DF93EC01FF
:100D300081E0888F9B8D8C8D98131AC0E889F98982
:100D4000808185FF15C09FB7F894EE89FF89608385
:100D5000E889F98980818370806480839FBF81E006
:100D600090E0DF91CF911F910F91FF90EF90089548
:100D7000F62E0B8D10E00F5F1F4F0F731127E02E23
:100D80008C8D8E110CC00FB607FCFACFE889F9895B
:100D9000808185FFF5CFCE010E946F06F1CFEB8DEC
:100DA000EC0FFD2FF11DE35AFF4FF0829FB7F8942F
:100DB0000B8FEA89FB8980818062CFCFCF93DF934D
:100DC000EC01888D8823B9F0AA89BB89E889F98963
:100DD0008C9185FD03C0808186FD0DC00FB607FC98
:100DE000F7CF8C9185FFF2CF808185FFEDCFCE01CB
:100DF0000E946F06E9CFDF91CF91089580E090E0E7
:100E0000892B49F080E090E0892B29F00E940000B6
:100E100081110E94000080E090E0892B49F080E081
:100E200090E0892B29F00E94000081110E940000AF
:100E300080E090E0892B29F00E94650681110E94D4
:100E4000000080E090E0892B49F080E090E0892B61
:100E500029F00E94000081110C9400000895DC012B
:100E600080E0615090F09D919827E92FEF70F0E0BD
:100E7000EC5EFC4F2491E92FE295EF70F0E0EC5D21
:100E8000FC4FE491822F8E27ECCF0895DC012C914A
:100E90001196ED91FC91F8948181822B818392814E
:100EA000322F30959323928387E090E00197F1F7FA
:100EB00081818323818383E290E00197F1F7908120
:100EC0007894EFECF0E03197F1F7922381E009F4A8
:100ED00080E00895FC0190810180F281E02D292FAE
:100EE000209560FF14C0F8948281822382838181DF
:100EF000892B8183A3E2B0E01197F1F78281982BCF
:100F00009283789487ED90E00197F1F70895F89433
:100F10008281822382838181892B8183AFEFB0E03C
:100F20001197F1F78281982B928378948FE090E06B
:100F3000EBCFDF92EF92FF920F931F93CF93DF934C
:100F4000EC01D62EE42E08E010E0FF24F39461E0DB
:100F50008D2D8F2109F460E0CE010E946A07FF0CFD
:100F600001501109A1F7E11010C0F894E981FA814C
:100F700091818881809589238183E981FA81928199
:100F800088818095892382837894DF91CF911F9106
:100F90000F91FF90EF90DF900895EF92FF920F93E3
:100FA0001F93CF93DF938C017B0140E065E50E94A6
:100FB0009907E70188E0E80EF11C699140E0C8015B
:100FC0000E949907CE15DF05C1F7DF91CF911F91E0
:100FD0000F91FF90EF900895FC0190810180F281C4
:100FE000E02DF8948181292F2095822381837894A4
:100FF0003DE743E050E0315029F1DA011197F1F774
:1010000080818923C1F3F894828182238283818144
:10101000892B81837894ABE7B7E01197F1F7F894C7
:10102000818182238183A3E1B1E01197F1F780816F
:10103000982381E009F080E07894E3E6F6E03197C8
:10104000F1F7089580E008958F929F92AF92BF923A
:10105000CF92DF92EF92FF920F931F93CF93DF9384
:1010600000D01F921F92CDB7DEB78C01DC0119961C
:101070008D919C910E94EC0740E06CECF801818519
:1010800092850E949907D8014C9164E419968D913C
:101090009C910E9499078FB7F894C090DE07D0907A
:1010A000DF07E090E007F090E1078FBFF80184814F
:1010B000811120C081E08983CA82DB82EC82FD82BB
:1010C00029813A814B815C816D8170E080E090E004
:1010D0000F900F900F900F900F90DF91CF911F9175
:1010E0000F91FF90EF90DF90CF90BF90AF909F90C7
:1010F0008F90089585818823F9F0808181111CC02B
:10110000F801818592850E944607813099F22FB7B8
:10111000F8948091DE079091DF07A091E007B091ED
:10112000E1072FBF8C199D09AE09BF098E3E924081
:10113000A105B10528F3BECFD8011396EC91E95073
:101140008EEE92E0E33038F4F0E0EE0FFF1FE05D4A
:10115000FD4F808191814C01B12CA12CF80181813E
:10116000882321F060E082810E940B05C501B40153
:101170000E94B705D80111968C911197882309F424
:1011800099CF61E012968C910E940B0593CF4F92FC
:101190005F926F927F928F929F92AF92BF92CF9207
:1011A000DF92EF92FF920F931F93CF93DF938C0107
:1011B0007B01EA01FC01818592850E94EC0788236E
:1011C000D9F1B701F801818592850E94CD0740E0F1
:1011D0006EEBF801818592850E9499076E015E0190
:1011E000F9E0AF0EB11C7E01F8018184928488E0A1
:1011F000682E712C512C44244394C4010E9446074C
:1012000081115428440CF1E06F1A7108B1F7F7010D
:1012100051927F01AE16BF0639F7F801818592859C
:101220000E94EC07813041F4F60181916F01811138
:1012300005C0EE15FF05C1F790E008C068E0CE01DB
:101240000E942F0791E028852813F6CF892FDF9180
:10125000CF911F910F91FF90EF90DF90CF90BF90B3
:10126000AF909F908F907F906F905F904F90089578
:10127000EDEEF9E0A281B38113968D919C911497C4
:1012800014961C921E92139795838483A285B3852E
:1012900013968D919C91149714961C921E921397FD
:1012A0009587848708952091F1093091F209809102
:1012B000F3099091F40928173907C0F081E090E014
:1012C0009093EE098093ED092091F9093091FA0984
:1012D0008091FB099091FC092817390760F081E0A3
:1012E00090E09093F6098093F50908951092EE0925
:1012F0001092ED09E9CF1092F6091092F5090895C0
:101300001092390BE9EEF7E08081877F80830895A2
:10131000CF93DF93A0E0B2E0FD0190E02191319105
:101320002817390721F4EF0122971982188222E049
:10133000E031F20799F78D919D91892B41F482E07C
:10134000A031B807C1F781E0DF91CF91089580E027
:10135000FBCFFC0121812150330B70E060E0472F6F
:1013600050E0421753073CF4480F591FFA014081DF
:10137000640F7F5FF4CF820F931FFC016083089599
:10138000FC0181E08083658385E082838091850A0A
:10139000A0E0B2E020E132E04D915D91452BC1F437
:1013A0002A173B07C9F791E0877F90FF8860838306
:1013B000F8949091E30A8091E20A91110BC0909108
:1013C000E10A981307C07894148287E08183089516
:1013D00090E0EACF90E0A091DE0AB091DF0AA80F7A
:1013E000B91F2C9101966091E00A70E00E94A62F2F
:1013F0008093E20A1092E30A78942483E6CFCF9395
:10140000DF93CDB7DEB7C456D1090FB6F894DEBF6F
:101410000FBECDBF66E0CE0101960E94C009CE018D
:1014200001960E94A909CC59DF4F0FB6F894DEBF90
:101430000FBECDBFDF91CF910895CF93DF93EC0125
:1014400067E00E94C009CE01DF91CF910C94A909F9
:10145000E1ECF0E080818068808308951F93CF9352
:10146000DF93EC0119861EAAFC01E05CFF4F10829D
:101470009FAD319680E0981719F011928F5FFBCFE6
:10148000FE01E55BFF4F10823197108210E08FADB7
:10149000181750F4EA81FB81E10FF11D60E08081B3
:1014A0000E940B051F5FF3CFDF91CF911F9108952D
:1014B0003F924F925F926F927F928F929F92AF92E4
:1014C000BF92CF92DF92EF92FF920F931F93CF9331
:1014D000DF9300D000D0CDB7DEB79E838D83062F7B
:1014E00010E08FB7F894C090DE07D090DF07E0904F
:1014F000E007F090E1078FBFED81FE8180A991A9FF
:10150000A2A9B3A9C81AD90AEA0AFB0AC701B601F7
:101510000E94F03020E030E04AE754E40E94483076
:10152000AD81BE8194966D937D938D939C93979797
:10153000FD01C0A2D1A2E2A2F3A22FB7F89480913C
:10154000DE079091DF07A091E007B091E1072FBF80
:10155000ED81FE8180AB91ABA2ABB3AB1587048765
:1015600062857385601B710BE6A4F7A4E01AF10A8B
:1015700017A706A781A5882331F071956195710998
:10158000F194E194F108AD81BE8198963C90072ECC
:10159000000C880B990B0E94F2304B015C0110E0AB
:1015A00000E031100BC0ED81FE8120893189428934
:1015B00053890E94A7310E94BA308B01B701FF0CFA
:1015C000880B990B0E94F2306B017C01AD81BE81CA
:1015D00094968D919D910D90BC91A02D89839A83B5
:1015E000AB83BC83ED81FE81208D318D428D538D87
:1015F000C701B6010E94A73129813A814B815C81E4
:101600000E9448302B013C01B801110F880B990B47
:101610000E94F2309B01AC01C301B2010E94D72F9E
:101620000E94BA302B01AD81BE811F967C936E93D0
:101630001E9754962D913D914D915C915797C50100
:10164000B4010E94A73129813A814B815C810E94BB
:10165000A731ED81FE81248D358D468D578D0E94F9
:10166000D72F4B015C01AD81BE815C968D929D921E
:10167000AD92BC925F973320A1F050962D913D9191
:101680004D915C915397C701B6010E94A731A50106
:1016900094010E94D72FED81FE81648F758F868F14
:1016A000978FAD81BE815C968C905C975D969C9087
:1016B0005D975E96AC905E975F96BC905F979A96AA
:1016C0000D911C91B801012E000C880B990B0E9402
:1016D000F2306B017C019B01AC01B401C5010E9499
:1016E000433087FD16C0ED81FE8164A575A5072EE8
:1016F000000C880B990B0E94F2306B017C019B015E
:10170000AC01B401C5010E94A231181614F06401A5
:101710007501C601D701ED81FE81848F958FA68F5B
:10172000B78FB201550C880B990B0E94F2309601CD
:10173000A7010E94D72F0E94BA30601771074CF0A2
:10174000AD81BE819C960D911C91601771070CF4C0
:101750008B01ED81FE811787068706ABE55BFF4FA6
:10176000AD81BE8114968C91081708F4802F808378
:1017700026960FB6F894DEBF0FBECDBFDF91CF9196
:101780001F910F91FF90EF90DF90CF90BF90AF909F
:101790009F908F907F906F905F904F903F900895B3
:1017A000CF93DF93CDB7DEB768970FB6F894DEBF5F
:1017B0000FBECDBFEDEEF9E0DE01119644A155A1BB
:1017C00066A177A14D935D936D937D9373968AE0A7
:1017D000EF35F80799F780915E0D882351F0698104
:1017E0007A818B819C810E94C13085E59DE00E94B9
:1017F000580A8091AA0D882391F069817A818B81A2
:101800009C810E94C13081EA9DE068960FB6F894F1
:10181000DEBF0FBECDBFDF91CF910C94580A689602
:101820000FB6F894DEBF0FBECDBFDF91CF91089504
:101830001F93CF93DF93EC01162F0E942E0AED81A8
:10184000FE812F8138858CA99DA9B0E0A0E080831E
:101850009183A283B38384839583A683B7833287DE
:1018600021871087838581608D7F8B7F8387DF91C0
:10187000CF911F910895E62FDC0114962C911497B7
:10188000621758F461E0642712968D919C91E80FDD
:10189000F92FF11D80810C940B050895CF92DF92F2
:1018A000EF92FF920F931F93CF93DF9300D000D05E
:1018B0001F921F92CDB7DEB7FC018E010F5F1F4F45
:1018C00088E0D8011D928A95E9F74285C180E080C1
:1018D0002E2D30E0842FF12CDD24D394CF100EC0B8
:1018E000CF010296B801562F501B5E1590F4DB0114
:1018F0005D91BD01DC015D93CD01F5CF90E0D80194
:10190000A80FB91FDC920196B9010E94A62FF3948B
:10191000E5CF842F90E00196B9010E94A62F82871F
:1019200028960FB6F894DEBF0FBECDBFDF91CF91E2
:101930001F910F91FF90EF90DF90CF9008951F932C
:10194000CF93DF93FC0181858823A1F1DF01A65BA2
:10195000BF4F9C91EF01C55BDF4F8881981730F531
:101960009F5F9C939F01205C3F4F97AD8C91981790
:1019700008F4892FEF01F9018083CE01CF960E94F0
:101980004E0C10E08FAD1817A8F4812F90E0DE0107
:10199000A80FB91FAF5BBF4FEA81FB81E80FF91FAA
:1019A0006C9180810E940B051F5FECCF8917D0F6E8
:1019B0009150D7CFDF91CF911F91089585E59DE09C
:1019C0000E949F0C81EA9DE00C949F0CEF92FF9285
:1019D0001F93CF93DF93EC0110E08C811817A0F4D4
:1019E000E12EF12CEA81FB81EE0DFF1D61E080818B
:1019F0000E943905EA81FB81EE0DFF1D60E08081C8
:101A00000E940B051F5FE9CFFE01E05CFF4F1082D3
:101A1000CE01CF96DF91CF911F91FF90EF900C9464
:101A20004E0C81E20E94BA0321E0892B09F420E0E8
:101A3000822F0895FC018181861799F0618381E0EE
:101A400090E0938382838081861751F0662381F032
:101A500084819581228133812817390708F06083BA
:101A60000895828193818F3F980769F30196E9CFAA
:101A700086819781EFCF0F931F93CF93DF93FC0164
:101A80002281222309F43DC0162FC62FD0E0048105
:101A900061E0802F0E943905209741F460E0802F9B
:101AA000DF91CF911F910F910C940B05CF3FD10582
:101AB00011F461E0F4CFE02FF0E0E25FFB4FE4913E
:101AC000E150E23108F0B4C0F0E08827E559F24F68
:101AD0008F4F0C94BA2F7D0D860D8B0D950D9F0D9C
:101AE000180EA90DB10DB90DC30DCD0DD70DE60D15
:101AF000F00D180EFA0D040E0E0E84B5806884BD2C
:101B000017BDDF91CF911F910F91089584B5806229
:101B100084BD18BDF6CF80918000806880938000DE
:101B2000D0938900C0938800ECCF809180008062C0
:101B300080938000D0938B00C0938A00E2CF809185
:101B40008000886080938000D0938D00C0938C00CB
:101B5000D8CF8091B00080688093B0001093B3001C
:101B6000D0CF8091B00080628093B0001093B40019
:101B7000C8CF80919000806880939000D0939900A6
:101B8000C0939800BECF80919000806280939000B7
:101B9000D0939B00C0939A00B4CF8091900088604E
:101BA00080939000D0939D00C0939C00AACF809119
:101BB000A00080688093A0008091A0008F7B80931C
:101BC000A000D093A900C093A8009BCF8091A00053
:101BD00080628093A000D093AB00C093AA0091CF05
:101BE0008091A00088608093A000D093AD00C09346
:101BF000AC0087CF80912001806880932001D09332
:101C00002901C09328017DCF8091200180628093BB
:101C10002001D0932B01C0932A0173CF8091200122
:101C2000886080932001D0932D01C0932C0169CF4F
:101C3000C038D1050CF03DCF31CFCF93DF93EC010D
:101C40008A8181111EC081E08A838B81811117C036
:101C50008C81813171F48091D00080648093D000B8
:101C60008091D100877E8093D10061E081E10E9464
:101C7000390561E08C81DF91CF910C940B0588814F
:101C80008987DF91CF910895CF93DF93EC01862F61
:101C900068835A8349831C821B8262E00E94390553
:101CA00029813A819881923069F43093110220930E
:101CB000100280916A00836080936A00EC9ADF9141
:101CC000CF910895933059F4309313022093120268
:101CD00080916A008C6080936A00ED9AF0CF8EEE5E
:101CE000890F843060F787E1891BE82FF0E0EE0F61
:101CF000FF1FE05FFD4F31832083843091F08530FA
:101D0000B9F0833039F08091690083608093690075
:101D1000E89AD5CF809169008C6080936900E99A38
:101D2000CECF80916900806380936900EA9AC7CF23
:101D300080916900806C80936900EB9AC0CFFC01B0
:101D4000118260E080810C940B05FC01108260E040
:101D500081810C940B0521E0FC01208361E08181ED
:101D60000C940B05F8949091E30A992359F0809113
:101D7000E40A9091E50A01969093E50A8093E40ABB
:101D8000789408952091E10A30E0E091DE0AF09124
:101D9000DF0AE20FF31F8083C90101966091E00A18
:101DA00070E00E94A62F8093E10A9091E20A9813B6
:101DB000E7CF81E08093E30AE3CFFC0101900020AC
:101DC000E9F73197AF01481B590BBC018DEE97E045
:101DD0000C94FB058F929F92AF92BF920F931F932B
:101DE000CF93DF93CDB7DEB7A1970FB6F894DEBFE0
:101DF0000FBECDBF19A2423008F44AE08E010F5D3C
:101E00001F4F842E912CB12CA12CA50194010E946E
:101E1000842FE62FB901CA01EA30F4F4E05DD8015D
:101E2000EE938D01232B242B252B79F790E080E076
:101E3000109719F0CD010E94DD0EA1960FB6F8940F
:101E4000DEBF0FBECDBFDF91CF911F910F91BF902D
:101E5000AF909F908F900895E95CE1CF0E94DD0ED6
:101E60008EE592E00C94DD0E8FE89CE00E94A50EBA
:101E700081E99CE00E94A50E80918D0C90918E0CC2
:101E8000039761F485E99CE00E94AB0E81E692E045
:101E90000E942E0F8FEA9CE00C941D0E83E99CE0BB
:101EA0000E94A50EF7CF8EE692E00E942E0FEDEE77
:101EB000F9E015821482A6EEBAE04CE251E060E04F
:101EC00070E0D0964D935D936D937C93D397D496A9
:101ED0004D935D936D937C93D79783E599E0DA9664
:101EE0009C938E93D997D8961C92A1E2BBE08C91DB
:101EF00081608D7F8B7F8C9382E090E091838083E3
:101F0000A281B38114961C921E92139791878087A9
:101F1000158614860284F385E02D148213820895B9
:101F20000E94110D882371F08091EB0780FD04C0A1
:101F300083E892E00E942E0F8091EB0781608093EE
:101F4000EB0708958091EB078E7F8093EB078091DC
:101F5000ED099091EE09029709F450C02091F10922
:101F60003091F2098091F3099091F409281739070B
:101F700008F445C081E090E09093EE098093ED096C
:101F80002091ED093091EE0991E02130310509F001
:101F900090E08091E90781FD04C082602130310525
:101FA00021F48091E90790FB81F98093E907809102
:101FB000F5099091F609029709F18091020A0E94B1
:101FC00075059C019093040A8093030A6091050AA9
:101FD0007091060A41E06817790708F440E0909193
:101FE000E90792FD05C0892F84606217730720F00E
:101FF0008091E90740FB82F98093E90708951092E8
:10200000EE091092ED09BCCF0E94900F85E40E946A
:10201000BA03892B71F08091EB0781FD04C083E93D
:1020200092E00E942E0F8091EB0782608093EB0775
:1020300008958091EB078D7FF9CFBF92CF92DF9209
:10204000EF92FF920F931F93CF93DF93EC01B62E85
:10205000C72E8D85811105C0CE010E94EC0781112C
:102060000EC01B861D861C8680E0DF91CF911F91DC
:102070000F91FF90EF90DF90CF90BF90089540E0D8
:1020800060EFCE010E94990701E0E12CD12C11E014
:10209000CE010E944607F82ECE010E94460791E02D
:1020A000F91218C0813099F51134D8F2DB86D110BD
:1020B00002C081E08D878B81882399F22396EB2DD6
:1020C000FC2DCF01089629912193E817F907D9F73C
:1020D00081E0CBCFEE2DF0E0F8120FC08B85181702
:1020E000A0F4DE01AE0FBF1F13968C91802379F40C
:1020F000F12C193008F41C87D12EEC0FFD1F8381C1
:10210000902F9095892383830AC08113F1CFFE011C
:10211000EE0DF11D8381802B8383FF24F3946F2DBB
:10212000CE010E946A071F5F000F11F4E39401E0E3
:1021300087E08E1508F0ACCFB7CFCF93DF93EB01DC
:10214000DC011996ED91FC911A9713861586148679
:1021500012861186108617821682158214821382C7
:1021600019968D919C910E941D10982F882341F003
:1021700067E0CE010E942F0791E02F81281390E0A5
:10218000892FDF91CF9108958F929F92AF92BF9246
:10219000EF92FF920F931F93CF93DF93CDB7DEB7EC
:1021A00061970FB6F894DEBF0FBECDBF7C01FC0176
:1021B00000851185F8018781882309F470C0BE016C
:1021C000665F7F4FC8010E949D10882309F467C095
:1021D000AE014F5F5F4FBE01665F7F4FC8010E9437
:1021E000C708882309F45BC08A81812C912C540193
:1021F00087FF06C0812C912CF8EFAF2EBB24BA9438
:102200009A8549819B3309F065C02D8127FF62C003
:1022100040FD45C0042F10E030E020E073E0000FE7
:10222000111F221F331F7A95D1F7B901A801407EF3
:1022300057706627772790E0B0E0A0E08C019D0101
:10224000EBE0000F111F221F331FEA95D1F7042B7B
:10225000152B262B372B082919292A293B29013828
:1022600054EE15075FEF25073507CCF0C901B8011B
:102270000E94F23020E030E040E05CE30E94A731B1
:102280004B015C0120E030E04EEF52EC0E94433005
:10229000882329F0F70180829182A282B382F7011C
:1022A000808591850E942408F70160817181828177
:1022B000938161960FB6F894DEBF0FBECDBFDF915C
:1022C000CF911F910F91FF90EF90BF90AF909F9093
:1022D0008F900895082F10E0102F0027110F110F75
:1022E000110FF8E04F9FA0011124042B152B012E94
:1022F000000C220B330B082919292A293B2990317C
:1023000009F0ADCF6885662309F4A9CF70E08F810D
:10231000AB01481B5109CA019695982F88279795BC
:1023200087950E94A62FCB01770FAA0BBB0B53E01A
:10233000000F111F221F331F5A95D1F70078277005
:1023400033270052110921093109800F911FA21F63
:10235000B31F95018401082B192B2A2B3B2B7FCF10
:102360008091A90A81508093A90A811118C085E043
:102370008093A90A8091860A23E1829FC0011124DB
:102380008F5E954F0E94C4109091860A892F8F5FAF
:10239000F1F39FEF8630D0F78093860A089581E1AC
:1023A0009AE00C94C410BF92CF92DF92EF92FF920A
:1023B0000F931F93CF93DF93CDB7DEB761970FB61F
:1023C000F894DEBF0FBECDBF7C018B01DC011996F6
:1023D0007C936E93189783E0D82ECC24C394D801B5
:1023E0001996ED91FC911A9713861586148612861C
:1023F0001186108617821682158214821382179610
:102400001C92179718961C9262E370E080E090E0AF
:102410000E94B705BE01665F7F4FF80181859285F6
:102420000E941D10882309F477C067E0CE010A9648
:102430000E942F0799898913EDCFD80117968C91A7
:1024400017978F5F17968C938A85883231F008F042
:102450004AC0803111F08232E9F6F80180858F5F41
:1024600080878081811124C0818592850E94EC073C
:10247000BE01665F7F4FD80119968D919C910E9495
:10248000CD0740E064EBF801818592850E949907B1
:10249000D80119968D919C910E944607B82EF8019B
:1024A000818592850E94EC07B11002C0D801CC92C0
:1024B0008A85803119F1AE014F5F5F4FBE01665FC3
:1024C0007F4FC8010E94C708882359F08D819A85E3
:1024D0009B3311F487FD12C08F3391F058F48F3184
:1024E000B9F080E00EC08B3309F4B7CF823409F025
:1024F00091CFB3CF8F3571F08F3799F78CE001C052
:102500008AE0F8019381981708F084CF838382CF03
:1025100089E0F7CF8BE0F5CFD80117969C91911108
:1025200003C0DA94D1105BCFD7011896ED91FC91DE
:102530009781992331F0B701665F7F4FCF010E94E9
:102540009D10F701828B0084F185E02D1482D70164
:1025500018968D919C910E94240861960FB6F8946C
:10256000DEBF0FBECDBFDF91CF911F910F91FF90C6
:10257000EF90DF90CF90BF9008958F929F92AF928F
:10258000BF92CF92DF92EF92FF92CF93DF936A01D7
:102590007B01E9010E94DD0EC530D10509F0A5C01F
:1025A000A7019601C701B6010E941432882391F059
:1025B00083EA92E00E94DD0E8EE592E0DF91CF91FA
:1025C000FF90EF90DF90CF90BF90AF909F908F9053
:1025D0000C94DD0E46015701E894B7F82FEF3FEF5A
:1025E0004FE75FE7C501B4010E94143281110DC0AD
:1025F0002FEF3FEF4FE75FE7C501B4010E94433083
:1026000018161CF487EA92E0D5CF2FEF3FEF4FE783
:102610005FE4C701B6010E94A23118161CF48BEAD0
:1026200092E0C8CF2FEF3FEF4FE75FECC701B60155
:102630000E94433087FDF3CF20E030E0A901C701BD
:10264000B6010E94433087FF09C06DE28DEE97E02E
:102650000E949106F7FAF094F7F8F0942BEA35EC23
:1026600047EA56E3C701B6010E94D72F6B017C01F0
:102670000E94C1304B015C010E94F0309B01AC0113
:10268000C701B6010E94D62F6B017C014AE0C5014B
:10269000B4010E94EA0E6EE28DEE97E00E94910670
:1026A000C6E0C15009F488CF20E030E040E251E4B8
:1026B000C701B6010E94A7314B015C010E94C130E5
:1026C0006B01F12CE12C4AE0C701B6010E94EA0E31
:1026D000C701B6010E94F0309B01AC01C501B401F5
:1026E0000E94D62F6B017C01DCCFC701B6010E948E
:1026F000C1304C2F0E94EA0E5FCFCF93C82F682FB6
:1027000070E090E080E00E94F030AB01BC012AE074
:1027100030E08FEA92E00E94BD1281E08093AA0D22
:102720008C2F90E09093AC0D8093AB0D6C2F81EAD1
:102730009DE00E94580A82EC92E0CF910C942E0FFB
:10274000CF93C82F682F70E090E080E00E94F030B7
:10275000AB01BC012AE030E08DEC92E00E94BD129A
:102760006C2F81EA9DE00E94180C8DE080938C0C08
:10277000CF910895CF92DF92EF92FF92CF93DF93A4
:10278000CDB7DEB768970FB6F894DEBF0FBECDBFEA
:10279000EDEEF9E0DE0111968FE59AE040A551A536
:1027A00062A573A54D935D936D937D9373968E177C
:1027B0009F07A1F78091FC0D9091FD0D813091054F
:1027C000E9F098F0029709F446C08BE99CE068961E
:1027D0000FB6F894DEBF0FBECDBFDF91CF91FF9053
:1027E000EF90DF90CF900C941D0E87E99CE00E9443
:1027F000A50E89E99CE00E94A50EE7CF87E99CE041
:102800000E94A50E89E99CE00E94A50EC980DA808D
:10281000EB80FC80C701B6010E94C13081E080934B
:102820005E0D862F90E09093600D80935F0D85E59F
:102830009DE00E94580A82EC92E00E942E0F2AE04E
:1028400030E0B701A6018FEE92E00E94BD1285E153
:102850000E94B20EBACF89E99CE00E94AB0E87E9D4
:102860009CE00E94AB0E8FEF9CE00E941D0E83E166
:102870009DE00E941D0E61E08CE00E940B0561E06E
:102880008EE00E940B05C980DA80EB80FC80C701D6
:10289000B6010E94C130862F0E947D132AE030E0ED
:1028A000B701A6018FEE92E00E94BD1287E1D0CF62
:1028B0001F93CF93DF93CDB7DEB768970FB6F89429
:1028C000DEBF0FBECDBFEDEEF9E0DE0111962FE5C4
:1028D0003AE040A551A562A573A54D935D936D9314
:1028E0007D9373962E173F07A1F790918C0C981744
:1028F00039F0182F953009F456C020F49430A1F126
:1029000080E047C0963009F47AC09B30C9F7843024
:1029100009F45DC08630A1F769817A818B819C8141
:102920000E94C13081E080935E0D862F90E09093ED
:10293000600D80935F0D85E59DE00E94580A82EC52
:1029400092E00E942E0F10938C0C81E090E0909307
:10295000FD0D8093FC0D10928E0C10928D0C0E9438
:10296000BA130E94340FCCCF853031F01B3041F6C2
:102970008BE00E94A013C4CF83E090E090938E0C74
:1029800080938D0C0E94340F10938C0C0E94530F77
:1029900081E068960FB6F894DEBF0FBECDBFDF9121
:1029A000CF911F910895843009F769817A818B81D5
:1029B0009C810E94C130862F0E947D1310938C0C45
:1029C00010928E0C10928D0C0E94340FDFCF698113
:1029D0007A818B819C810E94C130862F0E947D1359
:1029E00010938C0C82E090E09093FD0D8093FC0D91
:1029F00010928E0C10928D0C0E94BA13E5CF8B3082
:102A000009F07ECF2AE030E040E050E060E371E47E
:102A100089E193E00E94BD126BE085E59DE00E9494
:102A2000180C8DE080938C0C6BCF21E030E030935C
:102A3000840A2093830A8091850A81608B7F80932A
:102A4000850A8CE291E0A0E0B0E08093160B9093B1
:102A5000170BA093180BB093190B80931A0B90933C
:102A60001B0BA0931C0BB0931D0B83E599E0909377
:102A7000200B80931F0B10921E0B8091210B816005
:102A80008D7F8B7F8093210B80918C0C8B3029F470
:102A90001092A80A1092A70A0895863029F430935C
:102AA000A80A2093A70A08959CEF980F923038F453
:102AB00082E090E09093A80A8093A70A0895873057
:102AC00079F52AE030E040E050E060E87FE389E318
:102AD00093E00E94BD1280918D0A90918E0AB0E021
:102AE000A0E080934E0C90934F0CA093500CB093A9
:102AF000510C8093520C9093530CA093540CB093B0
:102B0000550C81E097E19093580C8093570C1092EC
:102B1000560C8091590C81608D7F8B7F8093590C6E
:102B200083E090E0C7CF0F931F93CF93DF9383E2AF
:102B30000E94BA038C0182E20E94BA03EC0161E0B8
:102B4000012B09F460E08BEA9AE00E941A0D61E023
:102B5000CD2B09F460E083EB9AE00E941A0D60919E
:102B6000AB0A6093BB0A8091B30A8093BC0A8111BF
:102B700005C081E0662319F082E001C083E0809304
:102B8000BD0A80919D0C882309F44EC08091B10C40
:102B9000882309F449C08091ED0D811145C08091D1
:102BA000FE0D80930D0E88EC80930E0E70E090E089
:102BB00080E00E94F030AB01BC012AE030E083E508
:102BC00093E00E94BD126091170E7091180E072EAF
:102BD000000C880B990B0E94F230AB01BC012AE07B
:102BE00030E085E693E00E94BD1260910D0E70E02A
:102BF00090E080E00E94F030AB01BC012AE030E0C0
:102C000080E793E00E94BD1260910D0E8BE99CE07D
:102C10000E943B0D60910E0E8FEA9CE0DF91CF91F8
:102C20001F910F910C943B0DDF91CF911F910F914C
:102C300008951092BD0B8091A70A9091A80A009761
:102C400069F00297D9F48BE00E9458141092A80AF8
:102C50001092A70A8DE793E00C942E0F8091AA0A98
:102C600081110CC086E00E94581481E090E090939E
:102C7000A80A8093A70A84EA93E0EECF0895109201
:102C8000C90B8091A70A9091A80A8130910521F083
:102C900070F00297D1F008958BE00E9458141092C2
:102CA000A80A1092A70A88EC93E00C942E0F84E0F7
:102CB0000E94581482E090E09093A80A8093A70A9B
:102CC0001092650C8AEE93E0F0CF1092650C089597
:102CD0001F93CF93DF93FC0122812223A1F0EC010B
:102CE000128214818381882391F061E0812F0E94F8
:102CF000390560E0812F0E940B05E889F989138668
:102D0000EE85FF851386DF91CF911F91089560E0D6
:102D1000812F0E940B058C818131A9F7DF91CF9122
:102D20001F910C9485020E942E0F10928B0C109212
:102D30008A0C8BE99CE00E9468168FEA9CE00E9456
:102D4000681683EC9CE00E94681687ED9CE00E9468
:102D500068168BEE9CE00E9468168FEF9CE00E9444
:102D6000681683E19DE00E94681687E29DE00E945C
:102D700068168BE39DE00E9468168FE89CE00E9435
:102D8000A50E81E99CE00E94A50E83E99CE00E94CB
:102D9000A50E85E99CE00E94A50E87E99CE00E94B3
:102DA000A50E89E99CE00E94A50E8FE49DE00E949B
:102DB0009F0E81E59DE00E949F0E83E59DE00E94AD
:102DC0009F0E85E59DE00E942E0A81EA9DE00E940B
:102DD0002E0A1092FA0D1092E10B1092ED0B109248
:102DE000110C1092050C1092290C1092F90B1092F4
:102DF0001D0C1092350CEBEEF7E08081886080832B
:102E00000895CF93DF931092590C1092390BCAE8B2
:102E1000DCE01092ED0D10928C0D8EE094E00E949B
:102E200093168EE194E00E942E0F198218828BE097
:102E30008A830E945E020E9415158CE10E94B20EE8
:102E40008EE1DF91CF910C94B20E1F93CF93DF935D
:102E5000EC01162F0E942E0F8AE294E00E942E0FA2
:102E60001092840A1092830A1092ED0D10928C0D2C
:102E70008EE094E00E94931680918C0C8C508230EE
:102E800010F010928C0CCE010E942E0F6091850ADA
:102E90006E7F64606093850A1092F2091092F109C6
:102EA0001092FA091092F90910922D0B1092390B19
:102EB0001092450B1092510B10925D0B1092BD0BAE
:102EC0001092C90B1092410C10924D0C1092210BD4
:102ED0001092590C1092650C70E090E080E00E9416
:102EE000F030AB01BC0120E130E08AE394E00E94C5
:102EF000BD121092AA0A112321F0DF91CF911F91E8
:102F0000089589E1DF91CF911F910C94B20E60E09A
:102F10008BE494E00C94251760E082E694E00C9436
:102F20002517E9EEF7E080818D7F808360E083E7FD
:102F300094E00C942517E9EEF7E0808184608083AB
:102F400060E08FE894E00C942517CF93C82F10927F
:102F50005D0B8CEA94E00E942E0F80918C0C8D30DA
:102F6000D1F4C0938C0C87E99CE00E94A50E6C2FD5
:102F700070E090E080E00E94F030AB01BC012AE0FC
:102F800030E084EC94E00E94BD120E945E0286E173
:102F9000CF910C94B20E8C3031F48BED94E00E9402
:102FA000931610928C0CCF9108959EEF980F92304B
:102FB00008F069C01092ED0B833099F18FEF9CE01F
:102FC0000E941D0E83E19DE00E941D0E80EC94ED99
:102FD000A1E0B0E08093E20B9093E30BA093E40BAD
:102FE000B093E50B8093E60B9093E70BA093E80B6F
:102FF000B093E90B85ED97E19093EC0B8093EB0B8D
:1030000083E08093EA0B8091ED0B81608D7F8B7F55
:103010008093ED0B81E10E94B20E86EE94E00C9459
:103020002E0F8FEF9CE00E94681683E19DE00E94C6
:10303000681682E10E94B20E80E395E7A0E0B0E05E
:103040008093E20B9093E30BA093E40BB093E50B1A
:103050008093E60B9093E70BA093E80BB093E90BFA
:1030600085ED97E19093EC0B8093EB0B84E08093DC
:10307000EA0B8091ED0B81608D7F8B7F8093ED0B50
:103080008FEE94E0CCCF60E087EF94E00C942517AE
:103090008230C9F51092E10B83EC9CE00E94681627
:1030A0008FEA9CE00E9468168BEE9CE00E941D0E49
:1030B00080E395E7A0E0B0E08093D60B9093D70B28
:1030C000A093D80BB093D90B8093DA0B9093DB0BC2
:1030D000A093DC0BB093DD0B88E498E19093E00BB8
:1030E0008093DF0B81E08093DE0B8091E10B8160A8
:1030F0008D7F8B7F8093E10B8EE00E94B20E86E085
:1031000095E00C942E0F60E08EE095E00C9425176E
:10311000CF93C82F1092510B8FEF9CE00E9468163E
:1031200060E08CE00E940B0580918C0C8C3059F48F
:103130008DE195E00E94931610928C0C85E495E049
:10314000CF910C942E0F8D30C9F7C0938C0C109238
:10315000FD0D1092FC0D10928E0C10928D0C0E94A1
:10316000BA130E94340F88E10E94B20E6C2F70E0F7
:1031700090E080E00E94F030AB01BC012AE030E03A
:1031800089E295E00E94BD12D9CF8F929F92AF92B3
:10319000BF92CF92DF92EF92FF920F931F93CF9344
:1031A000DF9380918A0C90918B0C019709F034C0C9
:1031B0008FE595E00E942E0F80E895E00E942E0F8B
:1031C000E0918C0CE150EB3008F5F0E08827E451F9
:1031D000F74E8F4F0C94BA2FF7184A1958196319E4
:1031E0006E197F198219A019D119E719211A809136
:1031F000910C882321F081E99CE00E94A50E87EDC7
:103200009CE00E941D0E87E00E94B20E10928B0C73
:1032100010928A0C0E94530F0E94110D9091EB079F
:1032200080FB90F99093EB0785E40E94BA0321E0BC
:10323000892B09F420E08091EB0720FB81F9909124
:10324000BB0A90FB82F98093EB078091830A9091EF
:10325000840A009771F0C0918C0C2CEF2C0F029710
:1032600009F0F4C0233010F0CB3019F480E00E9454
:10327000011760E085EC98E1DF91CF911F910F91EC
:10328000FF90EF90DF90CF90BF90AF909F908F9086
:103290000C94120380913D0D882321F08BE39DE077
:1032A0000E94681687E29DE00E941D0E89E0ACCF67
:1032B0001092FD0D1092FC0D10928E0C10928D0C40
:1032C0000E94BA13A3CF82E090E09093FD0D80930B
:1032D000FC0D10928E0C10928D0C0CC083E090E0CF
:1032E00090938E0C80938D0C82E090E09093FD0D76
:1032F0008093FC0D0E94BA130E94340F87CF81E0A7
:1033000090E0E3CF81E99CE00E94AB0E8FE89CE067
:103310000E94AB0E83E99CE00E94A50E85E99CE02B
:103320000E94A50E8FEA9CE00E941D0E6CED8FEAB4
:103330009CE00E943B0D86E995E00E942E0F66CF2F
:1033400083EC9CE00E941D0E80E69AEEA0E0B0E0C7
:103350008093EE0B9093EF0BA093F00BB093F10BD7
:103360008093F20B9093F30BA093F40BB093F50BB7
:103370008CE897E19093F80B8093F70B1092F60B83
:103380008091F90B81608D7F8B7F8093F90B8DEE9F
:1033900095E00E942E0F8FEF95E00E942E0F83E1A3
:1033A00033CF1092ED0D10928C0D8EE094E00E94C0
:1033B00093168BEE9CE00E941D0E8BE00E94B20ED5
:1033C0008AE096E00E942E0F8BE196E0B6CF109235
:1033D000ED0D10928C0D8EE094E00E9493168BE31D
:1033E0009DE00E941D0E8FE00E94B20E80E49CE9D9
:1033F000A0E0B0E08093E20B9093E30BA093E40B8A
:10340000B093E50B8093E60B9093E70BA093E80B4A
:10341000B093E90B85ED97E19093EC0B8093EB0B68
:1034200082E08093EA0B8091ED0B81608D7F8B7F32
:103430008093ED0B86E296E00E942E0F86E396E0E5
:103440007CCF1092FD0D1092FC0D43CF9091AA0AF3
:10345000992339F18091650C80FD23C082FD21C044
:1034600040E355E760E070E040935A0C50935B0CEA
:1034700060935C0C70935D0C40935E0C50935F0CFA
:103480006093600C7093610C47E857E15093640CB3
:103490004093630C1092620C81608D7F8B7F8093D0
:1034A000650C233028F0CB3019F0992309F488C03B
:1034B0008091A70A9091A80A039709F481C0C630A9
:1034C00021F12091370A3091380A4091390A509100
:1034D0003A0A60915D0A70915E0A80915F0A90914C
:1034E000600A0E94433087FF82C085E99CE00E9409
:1034F000AB0E83E99CE00E94AB0E81E08093500DFF
:1035000061E080914F0D0E940B05C090110AD09090
:10351000120AE090130AF090140A8090150A909015
:10352000160AA090170AB090180A20E030E040E890
:103530005FE3C501B4010E94D72FA70196010E9445
:10354000433018160CF460C01092BD0B8091C90B6B
:1035500080FD36C082FD34C081E496E00E942E0FCB
:103560000091A70A1091A80AF801EE0FFF1FEE0FB5
:10357000FF1FE956F54F60817181828193810E941E
:10358000C1306093BE0B7093BF0B8093C00B9093C0
:10359000C10B6093C20B7093C30B8093C40B9093C9
:1035A000C50B8FE396E19093C80B8093C70B0093F4
:1035B000C60B8091C90B81608D7F8B7F8093C90B77
:1035C000C150CB3008F055CEEC2FF0E08827E45105
:1035D000F54E8F4F0C94BA2F4C1B581B621BD01BFF
:1035E000D01BD31BD61B3C1C941C3919D31B83E95D
:1035F0009CE00E94A50E85E99CE00E94A50E8FE448
:103600009DE00E949F0E81CF1092C90B20E030E018
:1036100040E85FE3C501B4010E94D62FA7019601DF
:103620000E94A23187FD35C0D091BD0BD0FDC8CF1F
:10363000D2FDC6CF0091A70A1091A80AF801EE0F9B
:10364000FF1FEE0FFF1FE956F54F608171818281E8
:1036500093810E94C1306093B20B7093B30B80933F
:10366000B40B9093B50B6093B60B7093B70B80932C
:10367000B80B9093B90B89E196E19093BC0B8093C2
:10368000BB0B0093BA0BD160DD7FDB7FD093BD0B0A
:1036900097CF1092BD0B94CF80E20E94BA03892B82
:1036A00009F0E7CD60E08CE596E00E942517E1CDBA
:1036B00084E40E94BA03892B09F0DBCD60E08AE63E
:1036C00096E0F3CF0E94110D9091E907882339F01D
:1036D00091609093E90760E088E796E0E6CF9E7FEF
:1036E0009093E9078091ED099091EE09029709F412
:1036F000C0CD2091F1093091F2098091F3099091A8
:10370000F40928173907D8F181E090E09093EE0989
:103710008093ED098091ED099091EE090197A1F553
:103720008091E9078D7F8093E90780912D0B80FDC3
:10373000A0CD82FD9ECD40918B0A50918C0A70E005
:1037400060E04093220B5093230B6093240B709303
:10375000250B4093260B5093270B6093280B7093F7
:10376000290B21E937E130932C0B20932B0B10927E
:103770002A0B81608D7F8B7F80932D0B7ACD1092E9
:10378000EE091092ED09C6CF8091E90781FD71CD58
:1037900082608093E9078EE996E00E942E0F69CD42
:1037A0000E94041066CD0E94900F63CD0E94110DFF
:1037B000882331F08091EB0781608093EB0759CD2E
:1037C0008091F5099091F609029709F452CD209164
:1037D000F9093091FA098091FB099091FC092817A9
:1037E0003907C8F181E090E09093F6098093F509DC
:1037F0008091F5099091F609019791F58091E9077B
:10380000877F8093E9078091390B80FD32CD82FD5F
:1038100030CD48EE53E060E070E040932E0B5093C3
:103820002F0B6093300B7093310B4093320B5093FE
:10383000330B6093340B7093350B20E839E03093F1
:10384000380B2093370B1092360B81608D7F8B7F66
:103850008093390B0ECD1092F6091092F509C8CF5E
:103860001092390B8091E90783FD03CD8860809326
:10387000E90782EB96E091CF80E20E94BA03892BA0
:1038800059F460E086EC96E00E9425178091EA07E3
:1038900080628093EA07EDCC8091020A0E94750550
:1038A0009093040A8093030A2091050A3091060A36
:1038B0002817390778F58091E9078B7F8093E9070E
:1038C0008091450B80FDD5CC82FDD3CC40918F0AF1
:1038D0005091900A70E060E040933A0B50933B0B9C
:1038E00060933C0B70933D0B40933E0B50933F0B0A
:1038F0006093400B7093410B2BE937E13093440BFD
:103900002093430B1092420B81608D7F8B7F8093BD
:10391000450BAFCC8091E90782FDABCC84608093EE
:10392000E9078BEE96E039CF0E94110D882309F448
:10393000A0CC8091E10B80FD9CCC82FD9ACC8BEEDB
:103940009CE00E94681683EC9CE00E941D0E8FEAAA
:103950009CE00E941D0E8DE00E94B20E80E395E770
:10396000A0E0B0E08093D60B9093D70BA093D80B38
:10397000B093D90B8093DA0B9093DB0BA093DC0B05
:10398000B093DD0B88E498E19093E00B8093DF0B1C
:1039900082E08093DE0B8091E10B81608D7F8B7FD5
:1039A0008093E10B86EE94E0F8CEFF920F931F9385
:1039B000CF93DF93CDB7DEB7C456D1090FB6F894D5
:1039C000DEBF0FBECDBFFC01F1804F2D50E08E0158
:1039D0000F5F1F4FBC01C8010E9419328091C600C1
:1039E0008091C6008091C1008F778093C100809143
:1039F000C10088608093C100F8018E2F801B8F1555
:103A000088F481918093C6008091C00086FFFCCF2E
:103A10008091C00080648093C0008091C600809136
:103A2000C600EBCFCC59DF4F0FB6F894DEBF0FBE08
:103A3000CDBFDF91CF911F910F91FF900C94280A79
:103A40004F925F926F927F928F929F92AF92BF92AE
:103A5000CF92DF92EF92FF920F931F93CF93DF935A
:103A6000CDB7DEB7C95AD1400FB6F894DEBF0FBE4E
:103A7000CDBF84E6E8E7F7E0DE01AB59BF4F019028
:103A80000D928A95E1F7A896EFADA897E550E3333C
:103A900008F06CC1F0E08827EF5AF24E8F4F0C947B
:103AA000BA2F1D23B61EFD1DB61EB61EB61EB61EAF
:103AB000B61EB61EB61EB61EB61EB61EAA1DCC1D5E
:103AC000E71DF11D0A1E981D731ECE1EFD1E481F08
:103AD000B61EB61E7D1FD51F1D20841D4C207920CB
:103AE000EF209F205422B61EB61EB61E8722B61E99
:103AF000B61EB61EB61EB61EB61E29233923452392
:103B0000A123D9233D25101EC090E907D090EA07D4
:103B1000E090EB07F090EC0761E2CE0101960E9485
:103B2000C009CF82D886E986FA868BE08A83E0C115
:103B30001092E9071092EA071092EB071092EC0737
:103B400061E2CE0101960E94C0091F821886198683
:103B50001A86EBCFCE0187539F4F0E94E30388E084
:103B6000FE01E753FF4FDE01A456BE4F01900D92B8
:103B70008A95E1F762E1CE0101960E94C0098FE0CB
:103B80008A8388E0FE01E456FE4FDE01179601901D
:103B90000D928A95E1F7ACC11092E9071092EA07FD
:103BA0001092EB071092EC07A9968FADA99710928F
:103BB0008B0C10928A0C80938C0CAA969FADAA97BE
:103BC000992329F08B3019F480E00E94011710919D
:103BD0008C0C64E1CE0101960E94C0091F8388E02D
:103BE000A5CF80918C0C9CEF980F933078F08B30A0
:103BF00069F00E945E020E941515CE0101960E9496
:103C00001D0ACE0101960E94D51CB0C080E00E9422
:103C10000117F3CF60E081E097E00E942517EDCF18
:103C20008EE097E00E942E0F81E08093AA0A81E047
:103C300090E09093840A8093830A1092ED0D109285
:103C40008C0D10928B0C10928A0C83EC9CE00E94DD
:103C5000681687ED9CE00E9468168BEE9CE00E943F
:103C600068168FE89CE00E94A50E81E99CE00E9406
:103C7000A50E83E99CE00E94A50E85E99CE00E94C8
:103C8000A50E87E99CE00E94A50E89E99CE00E94B0
:103C9000A50E81E59DE00E949F0E83E59DE00E94B8
:103CA0009F0E85E59DE00E942E0A8091850A816025
:103CB0008B7F8093850A80E090E0A0ECB1E4809354
:103CC000150A9093160AA093170AB093180A25E0D4
:103CD00030E0AC01BD0188E197E00E94BD128AE1AD
:103CE0000E94B20E8ACFE5E6F0E0EC0FFD1F33969E
:103CF000ADEEB9E085E690E08C0F9D1F4B964191AB
:103D000051916191719198964D935D936D937C93D0
:103D10009B9753968E179F0791F788E1E5E6F0E0B1
:103D2000EC0FFD1F3396DE01A750BF4F01900D929F
:103D30008A95E1F768E1CE0101960E94C0098FE102
:103D40008A8388E1FE01E750FF4FDE01179601905C
:103D50000D928A95E1F7CE0101960E94A909CE0144
:103D600001960E94D51C88E10E948809C755DE4F44
:103D70000FB6F894DEBF0FBECDBFDF91CF911F917C
:103D80000F91FF90EF90DF90CF90BF90AF909F90FA
:103D90008F907F906F905F904F900895ADEEB9E057
:103DA000CE0187539F4F2FE53AE0182F092F9896A1
:103DB0004D915D916D917C919B97FC014193519345
:103DC00061937193CF0153962A173B0781F788E1DE
:103DD000E12FF02FDE01AF51BF4F01900D928A9578
:103DE000E1F769E1CE0101960E94C0098FE18A8363
:103DF00088E1FE01EF51FF4FC8CEFE01EB59FF4FA6
:103E00009F012A5F3F4F41E050E083819091A00CD9
:103E1000891709F485C69091B40CAFEABCE0891704
:103E200009F480C632962E173F0779F7AE968FAD0C
:103E3000AE97AA969FADAA9790930D0E80930E0E03
:103E400086E0E5E6F0E0EC0FFD1F3396DE01AC55B1
:103E5000BE4F01900D928A95E1F76AE1CE0101967D
:103E60000E94C0098DE08A8386E0FE01EC55FE4F7A
:103E7000DE01179601900D928A95E1F7CE01019629
:103E80000E94A909CE0101960E94D51C8AE16CCF3F
:103E900010910D0E00910E0E612F70E090E080E009
:103EA0000E94F030AB01BC0120E130E081E297E0FC
:103EB0000E94BD12602F70E090E080E00E94F03020
:103EC000AB01BC0120E130E087E497E00E94BD1225
:103ED0006BE1CE0101960E94C0098DE08A8381E0EA
:103EE0008F83188782E089871A8784E08B870C8705
:103EF000CE0101960E94A90984CEAA968EAD9FADEF
:103F0000AA979093F4098093F309AC968EAD9FAD78
:103F1000AC979093FC098093FB09AE968EAD9FAD54
:103F2000AE979093010A8093000AE0968EAD9FAD04
:103F3000E0979093060A8093050AE2968EAD9FADB6
:103F4000E29790930B0A80930A0AE4968EAD9FAD98
:103F5000E4979093100A80930F0A8EE0E5E6F0E074
:103F6000EC0FFD1F3396DE01A45ABE4F01900D9257
:103F70008A95E1F76EE1CE0101960E94C00985E1C4
:103F80008A838EE0FE01E45AFE4FDE01179601900F
:103F90000D928A95E1F7CE0101960E94A909CE0102
:103FA00001960E94D51C8EE1DFCEE091FB09F091D5
:103FB000FC096091000A7091010A4091050A509134
:103FC000060A20910A0A30910B0A80910F0A9091FB
:103FD000100AA091F309B091F409C25BDE4FB983D6
:103FE000A883CE54D140C05BDE4FF983E883C0552F
:103FF000D140CE5ADE4F79836883C255D140CC5A26
:10400000DE4F59834883C455D140CA5ADE4F3983A5
:104010002883C655D140C85ADE4F99838883C85536
:10402000D1406FE1CE0101960E94C00985E18A83EB
:104030008EE0FE01E25BFE4FA8CDADEEB9E0CE0111
:104040008F519F4F2FE53AE0182F092F94964D91ED
:104050005D916D917C919797FC0141935193619390
:104060007193CF0153962A173B0781F788E1E12F1F
:10407000F02FDE01A753BF4F01900D928A95E1F713
:1040800060E2CE0101960E94C0098FE18A8388E137
:10409000FE01E753FF4F79CD05E610E00C0F1D1F21
:1040A0000D5F1F4FC8010E94AD0280E1F801DE01E3
:1040B000AF5DBE4F01900D928A95E1F762E2CE01AD
:1040C00001960E94C00980E1FE01EF5DFE4FDE0116
:1040D000179601900D928A95E1F787E18A83CE01C8
:1040E00001960E94A909CE0101960E94D51C82E288
:1040F0003BCE80E1E7E8FAE0DE01A753BF4F019035
:104100000D928A95E1F780E1FE01E753FF4FDE0152
:10411000AF5EBE4F01900D928A95E1F763E2CE014A
:1041200001960E94C00980E1FE01EF5EFE4FDE01B4
:10413000179601900D928A95E1F787E1F7CC809070
:10414000F1099090F209A090F909B090FA098091D4
:10415000FD090E9475056C018091020A0E94750597
:104160007C018091070A0E9475058C0180910C0AE0
:104170000E947505C05CDE4F99828882C054D14090
:10418000CE5BDE4FB982A882C254D140CC5BDE4FF9
:10419000D982C882C454D140CA5BDE4FF982E8821A
:1041A000C654D140C85BDE4F19830883C854D14040
:1041B000C65BDE4F99838883CA54D14065E2CE0145
:1041C00001960E94C0098EE0FE01E05CFE4FDE0118
:1041D000179601900D928A95E1F785E1A7CCA996F3
:1041E000EFADA997EF77E93108F029C0F0E0882713
:1041F000E350FF4D8F4F0C94BA2F162147215221C7
:10420000522152215D21682173217E218D219A2125
:10421000A6211F21BF211F21D421E121EC21F7215B
:1042200002220D221822232236224522A9968FAD82
:10423000A99787FF27C08FE89CE00E94A50E809178
:104240009D0C9091B10C892B8093ED0DCE0187537D
:104250009F4F0E94E30388E0FE01E753FF4FDE011A
:10426000AC56BE4F01900D928A95E1F764E2CE0103
:1042700001960E94C0098FE08A8388E0FE01EC5617
:10428000FE4F83CC8FE89CE00E94AB0ED8CFA9965E
:104290008FADA99787FF03C081E99CE0CECF81E96C
:1042A0009CE0F2CFA9968FADA99787FF03C083E961
:1042B0009CE0C3CF83E99CE0E7CFA9968FADA99797
:1042C00087FF03C085E99CE0B8CF85E99CE0DCCF9F
:1042D000A9968FADA99787FF03C087E99CE0ADCF72
:1042E00087E99CE0D1CFA9968FADA99787FF03C03E
:1042F00089E99CE0A2CF89E99CE0C6CFA9964FADA1
:10430000A997441F4427441FAA966FADAA976770C8
:1043100085E59DE00E943B0C92CFA9964FADA997F1
:10432000441F4427441FAA966FADAA97677081EA7D
:104330009DE0F0CFA9964FADA997441F4427441F95
:10434000AA966FADAA9767706C5FF1CFA9968FADF3
:10435000A99787FF05C08BE99CE00E9468166FCF84
:104360008BE99CE00E941D0E80919E0C81110091B2
:104370009B0C602F8BE99CE00E943B0D60CFA996BF
:104380008FADA99787FF03C08FEA9CE0E6CF8FEA45
:104390009CE00E941D0E8091B20C81111091AF0C17
:1043A000612F8FEA9CE0E8CFA9968FADA99787FF90
:1043B00003C083EC9CE0D1CF83EC9CE00E941D0EF7
:1043C0003ECFA9968FADA99787FF03C087ED9CE0EC
:1043D000C4CF87ED9CE0F2CFA9968FADA99787FF58
:1043E00003C08BEE9CE0B9CF8BEE9CE0E7CFA996A3
:1043F0008FADA99787FF03C08FEF9CE0AECF8FEF03
:104400009CE0DCCFA9968FADA99787FF03C083E11D
:104410009DE0A3CF83E19DE0D1CFA9968FADA99771
:1044200087FF03C087E29DE098CF87E29DE0C6CF7B
:10443000A9968FADA99787FF03C08BE39DE08DCF31
:104440008BE39DE0BBCFA9968FADA99787FF05C0F1
:104450008FE49DE00E949F0EF2CE81E08093500D8C
:1044600061E080914F0D0E940B05E9CEA9968FADBA
:10447000A99787FF03C081E59DE0ECCF81E08093A1
:10448000520D61E08091510DEECFA9968FADA997A5
:1044900087FF03C083E59DE0DDCF81E08093540D6D
:1044A00061E08091530DDFCF81E20E94BA034C019D
:1044B00080E20E94BA035C01F090BB0A0091BC0A42
:1044C00085E40E94BA036C0184E40E94BA039C0153
:1044D00091E0892809F090E010E090FB10F991E05C
:1044E000AB2809F090E090FB11F991E0CD2809F09C
:1044F00090E090FB12F991E0232B09F090E090FB03
:1045000013F9F0FA14F900FB15F966E263CB8BE0BE
:10451000E5E6F0E0EC0FFD1F3396DE01AA58BE4F32
:1045200001900D928A95E1F7E3968FADE397C0581D
:10453000DE4F8883C058D1409BE0FE01EA58FE4F11
:10454000A0EFBDE001900D929A95E1F74091F30D37
:10455000242F30E030939C0C20939B0C3091F50D70
:10456000632F70E07093B00C6093AF0C9FE0EEEFA0
:10457000FDE0DE01AF5CBE4F01900D929A95E1F730
:104580002091F00D9091F20DCD5CDE4F4883C35326
:10459000D140CC5CDE4F3883C453D140CB5CDE4F7E
:1045A0002883C553D140CA5CDE4F9883C653D1409F
:1045B0003FE0FE01EF5CFE4FAEEFBDE001900D92DB
:1045C0003A95E1F720930D0E90930E0E1092150E72
:1045D00091E09093FB0D882341F08BE99CE00E94D1
:1045E0001D0E8FEA9CE00E941D0E8BE0E5E6F0E0D8
:1045F000EC0FFD1F3396DE01AF57BE4F01900D92B9
:104600008A95E1F76AE2CE0101960E94C0098BE02B
:10461000FE01EF57FE4FDE01179601900D928A952D
:10462000E1F782E18A83CE0101960E94A909CE01B9
:1046300001960E94D51C8AE297CB1092E90710924E
:10464000EA071092EB071092EC0761E08DE697E025
:10465000E4CA61E3CE0101960E94C0098BE08A831F
:1046600084E090E0A3E0B1E08F839887A987BA87C0
:104670003FCC62E3CE0101960E94C0098BE08A83A1
:1046800087EA94E3A0E0B0E0EFCFE4966CAD7DADB7
:104690008EAD9FADE4970E94F0306B017C01E096F7
:1046A0006CAD7DAD8EAD9FADE0970E94F0304B01BB
:1046B0005C01AC966CAD7DAD8EAD9FADAC970E94AC
:1046C000F0306093970A7093980A8093990A9093B8
:1046D0009A0A80929B0A90929C0AA0929D0AB0929C
:1046E0009E0AC0929F0AD092A00AE092A10AF0927C
:1046F000A20A8CE0E5E6F0E0EC0FFD1F3396DE0148
:10470000A659BE4F01900D928A95E1F763E3CE0161
:1047100001960E94C00983E18A838CE0FE01E6597C
:10472000FE4FDE01179601900D928A95E1F7CE01BA
:1047300001960E94A909CE0101960E94D51C83E32F
:1047400013CB60919F0A7091A00A8091A10A909169
:10475000A20A0E94C1306B017C0160919B0A70919A
:104760009C0A80919D0A90919E0A0E94C1304B0143
:104770005C016091970A7091980A8091990A9091D2
:104780009A0A0E94C1302B013C0164E3CE010196DC
:104790000E94C00983E18A834F82588669867A869F
:1047A0008B869C86AD86BE86CF86D88AE98AFA8AB1
:1047B0009FCBA9968FADA9978983AA968FADAA970B
:1047C0008A83AB968FADAB978B83AC966FADAC976E
:1047D0006C83AD968FADAD978D83AE968FADAE9752
:1047E0008E83AF968FADAF978F83E0968FADE097B6
:1047F0008887617085E00E940B056C816695617009
:1048000086E00E940B056C8162FB662760F984E0FC
:104810000E940B056C8163FB662760F988E00E94AB
:104820000B056981617085E30E940B0569816695BE
:10483000617084E30E940B056981629561708FE16C
:104840000E940B05698165FB662760F98CE10E9477
:104850000B05698166FB662760F98BE10E940B05F9
:10486000698167FB662760F98AE10E940B056C810C
:104870006295617089E10E940B056C8165FB66277A
:1048800060F988E10E940B056C8166FB662760F980
:1048900087E10E940B056C8167FB662760F98EE15A
:1048A0000E940B056D8161708DE10E940B056D8189
:1048B0006695617086E10E940B056D8162FB66273B
:1048C00060F981E10E940B056D8163FB662760F949
:1048D0008FE00E940B056D81629561708CE00E94F3
:1048E0000B056D8165FB662760F98EE00E940B0564
:1048F0006B81617085E20E940B056B81669561702A
:1049000084E20E940B056B8162FB662760F987E2F7
:104910000E940B056B8163FB662760F986E20E94AB
:104920000B056B816295617089E20E940B056B81BA
:1049300065FB662760F988E20E940B056B8166FBC8
:10494000662760F98BE20E940B056B8167FB662787
:1049500060F98AE20E940B056A8161708CE20E9414
:104960000B056A81669561708EE20E940B056A8173
:1049700062FB662760F98DE20E940B056A8163FB8A
:10498000662760F98FE20E940B056A81629561706B
:1049900081E30E940B056A8165FB662760F980E36D
:1049A0000E940B056A8166FB662760F983E30E941B
:1049B0000B056A8167FB662760F982E30E940B059D
:1049C0006D8166FB662760F987E00E940B056D81AB
:1049D00067FB662760F989E00E940B056E816170B4
:1049E0008AE00E940B056E81669561708BE00E94E3
:1049F0000B05C753DF4F1882C95CD040C653DF4F49
:104A00001882CA5CD040C553DF4F1882CB5CD040BF
:104A1000C453DF4F1882CC5CD040C353DF4F1882A1
:104A2000CD5CD040C253DF4F1882CE5CD040C15322
:104A3000DF4F1882CF5CD040C053DF4F1882C05D7B
:104A4000D040CE0187539F4F0E94E30388E0FE01D0
:104A5000E753FF4FDE01A457BE4F01900D928A9598
:104A6000E1F765E3CE0101960E94C0098FE08A83D9
:104A700088E0FE01E457FE4F88C8CE0101960E94EF
:104A80001D0ACE0101960E94D51C1092F10A6EEB10
:104A900079E081E19AE00E94D31169E979E084E24A
:104AA0009AE00E94D31164E779E087E39AE00E94DC
:104AB000D3116FE479E080E79AE00E94D3116AE2B3
:104AC00079E08AE49AE00E94D31165E079E08DE50F
:104AD0009AE00E94D3118091950A9091960AB0E0D5
:104AE000A0E08093E60A9093E70AA093E80AB093C7
:104AF000E90A8093EA0A9093EB0AA093EC0AB09338
:104B0000ED0A80EB91E19093F00A8093EF0A109206
:104B1000EE0A8091F10A83608B7F8093F10A26C9A7
:104B2000ABE9BCE013969C911397992309F47AC9D9
:104B300015969C911597891375C91B965C934E9396
:104B40001A97848190E08D939C936CC90C94201DDE
:104B5000E8E7F7E084E6DF011D928A95E9F7109215
:104B6000E6070C94280A1F920F920FB60F92112499
:104B70002F933F938F939F93AF93BF938091DE07C3
:104B80009091DF07A091E007B091E1073091DD0738
:104B900023E0230F2D3758F50196A11DB11D209359
:104BA000DD078093DE079093DF07A093E007B093C3
:104BB000E1078091E2079091E307A091E407B091AB
:104BC000E5070196A11DB11D8093E2079093E307CD
:104BD000A093E407B093E507BF91AF919F918F91A8
:104BE0003F912F910F900FBE0F901F90189526E8C0
:104BF000230F0296A11DB11DD2CF1F920F920FB6A7
:104C00000F9211240BB60F922F933F934F935F9304
:104C10006F937F938F939F93AF93BF93EF93FF9384
:104C2000E0911E02F0911F021995FF91EF91BF9143
:104C3000AF919F918F917F916F915F914F913F9134
:104C40002F910F900BBE0F900FBE0F901F901895D5
:104C50001F920F920FB60F9211240BB60F922F9343
:104C60003F934F935F936F937F938F939F93AF93F4
:104C7000BF93EF93FF93E0911C02F0911D021995F1
:104C8000FF91EF91BF91AF919F918F917F916F9124
:104C90005F914F913F912F910F900BBE0F900FBEE0
:104CA0000F901F9018951F920F920FB60F9211241C
:104CB0000BB60F922F933F934F935F936F937F9316
:104CC0008F939F93AF93BF93EF93FF93E091120263
:104CD000F09113021995FF91EF91BF91AF919F91C0
:104CE0008F917F916F915F914F913F912F910F9095
:104CF0000BBE0F900FBE0F901F9018951F920F9232
:104D00000FB60F9211240BB60F922F933F934F9330
:104D10005F936F937F938F939F93AF93BF93EF9323
:104D2000FF93E0911002F09111021995FF91EF911C
:104D3000BF91AF919F918F917F916F915F914F91B3
:104D40003F912F910F900BBE0F900FBE0F901F90B1
:104D500018951F920F920FB60F9211240BB60F9257
:104D60002F933F934F935F936F937F938F939F9373
:104D7000AF93BF93EF93FF93E0911A02F0911B0260
:104D80001995FF91EF91BF91AF919F918F917F9175
:104D90006F915F914F913F912F910F900BBE0F90AC
:104DA0000FBE0F901F9018951F920F920FB60F9283
:104DB00011240BB60F922F933F934F935F936F93F2
:104DC0007F938F939F93AF93BF93EF93FF93E09164
:104DD0001802F09119021995FF91EF91BF91AF91CF
:104DE0009F918F917F916F915F914F913F912F9103
:104DF0000F900BBE0F900FBE0F901F9018951F9233
:104E00000F920FB60F9211240BB60F922F933F9370
:104E10004F935F936F937F938F939F93AF93BF93C2
:104E2000EF93FF93E0911602F09117021995FF910D
:104E3000EF91BF91AF919F918F917F916F915F9112
:104E40004F913F912F910F900BBE0F900FBE0F907F
:104E50001F9018951F920F920FB60F9211240BB648
:104E60000F922F933F934F935F936F937F938F9303
:104E70009F93AF93BF93EF93FF93E0911402F09150
:104E800015021995FF91EF91BF91AF919F918F916D
:104E90007F916F915F914F913F912F910F900BBE3A
:104EA0000F900FBE0F901F9018951F920F920FB684
:104EB0000F9211240BB60F922F933F934F935F9352
:104EC0006F937F938F939F93AF93BF93EF93FF93D2
:104ED0008DEE97E00E946F06FF91EF91BF91AF9129
:104EE0009F918F917F916F915F914F913F912F9102
:104EF0000F900BBE0F900FBE0F901F9018951F9232
:104F00000F920FB60F9211240BB60F922F938F931F
:104F10009F93EF93FF93E091FD07F091FE0780814F
:104F2000E0910308F091040882FD1DC090818091FA
:104F300006088F5F8F7320910708821741F0E09178
:104F40000608F0E0E351F84F958F80930608FF9133
:104F5000EF919F918F912F910F900BBE0F900FBEED
:104F60000F901F9018958081F2CF1F920F920FB66D
:104F70000F9211240BB60F922F933F934F935F9391
:104F80006F937F938F939F93AF93BF93CF93EF9341
:104F9000FF938091C10080688093C1008091C1001F
:104FA00088608093C100C091C6008091FD0A8E7F09
:104FB0008093FD0A8091E607843658F0E8E7F7E031
:104FC00084E6DF011D928A95E9F71092E6070E94B8
:104FD000280AE091E607E33020F08091790780937A
:104FE000E80781E08E0F8093E607F0E0E858F84F7D
:104FF000C0839091E80789136BC090917807913036
:1050000009F05AC040EA5FE060E070E04093FE0AB9
:105010005093FF0A6093000B7093010B4093020BB7
:105020005093030B6093040B7093050B28EA35E251
:105030003093080B2093070B1092060B9091090BED
:1050400093609B7F9093090B50E040E090E0BC019F
:1050500061507109252F30E0261737073CF4285896
:10506000384FF9012081420F5F5FF4CF8958984F84
:10507000DC018C9160E048131CC086EA95E20E9436
:1050800012031092E6070E94280AFF91EF91CF9138
:10509000BF91AF919F918F917F916F915F914F9150
:1050A0003F912F910F900BBE0F900FBE0F901F904E
:1050B00018958FEF99E0E3CFE8E7F7E084E6DF01AA
:1050C0001D928A95E9F71092E6070E94280AD9CF27
:1050D0008AE090E0A0E0B0E08093F20A9093F30AB7
:1050E000A093F40AB093F50A8093F60A9093F70A16
:1050F000A093F80AB093F90A88EA95E29093FC0A23
:105100008093FB0A1092FA0A8091FD0A81608D7FDC
:105110008B7F8093FD0AB7CF1F920F920FB60F922D
:1051200011240BB60F92FF920F931F932F933F936F
:105130004F935F936F937F938F939F93AF93BF939F
:10514000CF93DF93EF93FF93C6EEDAE010E000E039
:105150008CE0F82EF09EF001F19EF00D1124EF503E
:10516000F54F808180FF23C08C819D81AE81BF81FE
:105170000197A109B1098C839D83AE83BF83892BDD
:105180008A2B8B2BA1F480818460808381FF2DC0CA
:1051900088819981AA81BB818C839D83AE83BF83E3
:1051A00089859A85009719F068850E9412030F5F20
:1051B0001F4F2C960332110569F6FF91EF91DF9195
:1051C000CF91BF91AF919F918F917F916F915F919F
:1051D0004F913F912F911F910F91FF900F900BBE18
:1051E0000F900FBE0F901F9018958E7F8083D8CFA1
:1051F0001F920F920FB60F9211240BB60F922F939E
:105200003F934F935F936F937F938F939F93AF934E
:10521000BF93EF93FF93F0E0E0E01995FF91EF91DA
:10522000BF91AF919F918F917F916F915F914F91BE
:105230003F912F910F900BBE0F900FBE0F901F90BC
:1052400018951F920F920FB60F9211240BB60F9262
:105250002F933F934F935F936F937F938F939F937E
:10526000AF93BF93EF93FF93F0E0E0E01995FF91C8
:10527000EF91BF91AF919F918F917F916F915F91CE
:105280004F913F912F910F900BBE0F900FBE0F903B
:105290001F901895FC0117821086108289E0838385
:1052A00081E08483858386831182168A158A8FEF35
:1052B000838B148A7287618708951F93CF93DF933E
:1052C000EC01162F60E0812F0E943905612F70E0FC
:1052D000FB01E853FC4FE491E883FB01EE57FC4FE0
:1052E000E491F0E0EE0FFF1FE859FC4F8591949197
:1052F0009A8389831B861D861C861A8619861886C2
:105300001F821E821D821C821B82DF91CF911F9102
:105310000895CF93DF93EC01862F698361E00E94AB
:105320003905CE01DF91CF910C94A50ECF93DF9379
:10533000EC01862F198218824B836C832D831E8289
:105340009FEF998721E030E03B872A872FEF30E0FD
:105350003B8B2A8B411103C061E00E943905CE01CD
:10536000DF91CF910C9468167F928F929F92AF92AB
:10537000BF92CF92DF92EF92FF920F931F93CF9342
:10538000DF93CDB7DEB72F970FB6F894DEBF0FBE11
:10539000CDBF1092F0071092EF0788EE93E0A0E0E7
:1053A000B0E08093F1079093F207A093F307B093D6
:1053B000F4078AE392E09093EE078093ED0785ED82
:1053C00090E09093FA078093F90784ED90E0909332
:1053D000FC078093FB0780ED90E09093FE0780939D
:1053E000FD0781ED90E0909300088093FF0782ED28
:1053F00090E0909302088093010886ED90E09093EE
:10540000040880930308109206081092070810926F
:10541000080810920908E6EEFAE08AE89CE010829B
:1054200011821282138214821582168217821086CC
:105430001286118613863C968E179F0781F710926D
:1054400002091092030910920409F89480917A00DD
:10545000806880937A007894F89480917A008E7FA7
:1054600080937A0080917A00866080937A007894A5
:10547000F89480917C008F7780937C0080917C00F1
:10548000806480937C0078946FE385ED99E00E94BE
:105490005D2965ED79E08EEB99E00E944A296EE383
:1054A00080EB99E00E945D2960EB79E089E999E061
:1054B0000E944A2961E48BE899E00E945D296BE82B
:1054C00079E084E799E00E944A2960E486E699E061
:1054D0000E945D2966E679E08FE499E00E944A29FE
:1054E00063E481E499E00E945D2961E479E08AE265
:1054F00099E00E944A2962E48CE199E00E945D29CA
:105500006CE179E085E099E00E944A2982E090E030
:105510009093EE098093ED0923EE39E03093F00982
:105520002093EF099093F6098093F50988EE99E0AE
:105530009093F8098093F70988E38093FD0910920E
:10554000FF091092FE0984E190E09093010A809394
:10555000000A2BE32093020A1092040A1092030A15
:105560009093060A8093050A2AE32093070A109273
:10557000090A1092080A90930B0A80930A0A2DE3F5
:1055800020930C0A10920E0A10920D0A9093100AA2
:1055900080930F0AE1E1FAE083E89AE01082118239
:1055A00012821382148215821682178273968E17C6
:1055B0009F07A1F705E00093A90A1092AA0A10928A
:1055C000AB0A1092AC0A1092AE0A1092AD0A109279
:1055D000B30A1092B40A1092B60A1092B50A109249
:1055E000BB0A1092BC0A1092BD0A8AE090E0909328
:1055F000B00A8093AF0A9093B20A8093B10A8FE009
:1056000090E09093B80A8093B70A9093BA0A809377
:10561000B90A18E01093850A8EEB9AE09093DF0A9E
:105620008093DE0A80E28093E00A1092E10A1092F1
:10563000E20A1092E30A1092E50A1092E40A10922C
:105640008B0C10928A0C10928C0C10928E0C109273
:105650008D0C65E38FE89CE00E94892964E381E971
:105660009CE00E9489296FE183E99CE00E948929DE
:105670006CE185E99CE00E9489296BE187E99CE067
:105680000E9489296AE189E99CE00E94892921E038
:1056900041E065E08BE99CE00E94962924E041E02E
:1056A00064E08FEA9CE00E94962923E040E069E1F3
:1056B00083EC9CE00E94962926E040E068E187EDBB
:1056C0009CE00E94962927E040E067E18BEE9CE099
:1056D0000E94962928E040E06EE18FEF9CE00E9456
:1056E000962929E040E06DE183E19DE00E94962942
:1056F0002AE040E066E187E29DE00E9496292BE0E7
:1057000040E061E18BE39DE00E9496298FE0782ED6
:1057100070924F0D1092500D61E08FE00E9439059C
:105720008FE49DE00E949F0E8CE08093510D1092BB
:10573000520D61E00E94390581E59DE00E949F0EB7
:105740008EE08093530D1092540D61E00E94390554
:1057500083E59DE00E949F0EECE4F2E0F093560D8D
:10576000E093550D86E592E09093580D8093570D88
:105770001093590D82E59BE090935B0D80935A0D39
:1057800085EA97E190935D0D80935C0D10925E0D1C
:105790001092600D10925F0D1092620D1092610DCB
:1057A0001092640D1092630D1092710D1092720D93
:1057B0001092730D1092740D10927D0D10927E0D4B
:1057C0001092800D10927F0D1092840D1092830D17
:1057D0001092850D1092860D1092870D1092880DF3
:1057E0009DEC892E9CEC992EA92C9DE3B92E8092DC
:1057F000790D90927A0DA0927B0DB0927C0D24E6EB
:10580000C22ED12CE12CF12CC092750DD092760DC8
:10581000E092770DF092780D40E050E060EA70E49D
:105820004093650D5093660D6093670D7093680DFE
:1058300080E090E0A0E4B0E48093690D90936A0D5D
:10584000A0936B0DB0936C0D80936D0D90936E0DC6
:10585000A0936F0DB093700D10928C0D1093940D5A
:105860001092950D10929E0D1092960D1092970D1C
:105870001092980D1092990D10929A0D10929B0D06
:1058800010929C0D10929D0D10929F0D1092A00DE4
:1058900028E030E03093820D2093810DF093A20D2B
:1058A000E093A10DEEE4F2E0F093A40DE093A30DDC
:1058B0001093A50DE6E4FBE0F093A70DE093A60D91
:1058C000E8E8F8E1F093A90DE093A80D1092AA0D75
:1058D0001092AC0D1092AB0D1092AE0D1092AD0D5A
:1058E0001092B00D1092AF0D1092BD0D1092BE0D22
:1058F0001092BF0D1092C00D1092C90D1092CC0DD8
:105900001092CB0D1092D00D1092CF0D1092D10DA0
:105910001092D20D1092D30D1092D40D8092C50D1D
:105920009092C60DA092C70DB092C80DC092C10D45
:10593000D092C20DE092C30DF092C40D4093B10D10
:105940005093B20D6093B30D7093B40D8093B50D69
:105950009093B60DA093B70DB093B80D8093B90D89
:105960009093BA0DA093BB0DB093BC0D1092D80DBF
:105970001093E00D1092E10D1092EA0D1092E20DDD
:105980001092E30D1092E40D1092E50D1092E60DC9
:105990001092E70D1092E80D1092E90D1092EB0DA8
:1059A0001092EC0D81E08093CA0D3093CE0D2093C0
:1059B000CD0D1092ED0D198686E489838A8398ECCB
:1059C0009B839FEF9C838D838E830F839EE19887BB
:1059D0000A879B872EEE32E03D872C8722E330E05A
:1059E0003F872E87FE013196AEEFBDE001900D920C
:1059F0007A94E1F710920F0E1092110E1092100E81
:105A00001092130E1092120E1092140E1092150E88
:105A10001092160E1092180E1092170E1092190E68
:105A200080930D0E80930E0E80919E0C882361F062
:105A30008EE59BE09093AA0C8093A90C8AE69BE0EC
:105A40009093AC0C8093AB0C8091B20C882361F0E6
:105A50008EE89BE09093BE0C8093BD0C8AE99BE09E
:105A60009093C00C8093BF0C2F960FB6F894DEBFB6
:105A70000FBECDBFDF91CF911F910F91FF90EF909F
:105A8000DF90CF90BF90AF909F908F907F900895C0
:105A9000789484B5826084BD84B5816084BD85B509
:105AA000826085BD85B5816085BD80916E00816015
:105AB00080936E00109281008091810082608093BB
:105AC00081008091810081608093810080918000BD
:105AD0008160809380008091B10084608093B100E8
