:100000000C9405020C949D280C9472280C9447289B
:100010000C941C280C94F1270C94C6270C949B2755
:100020000C9470270C9436020C9436020C94360211
:100030000C9436020C9436020C9436020C94360260
:100040000C9436020C9436020C9436020C94360250
:100050000C9436020C9436020C9436020C9426272B
:100060000C9436020C9428290C9436020C94360217
:100070000C946B2A0C94942A0C9436020C9436023D
:100080000C9436020C9436020C9436020C94360210
:100090000C9436020C9436020C9436020C94360200
:1000A0000C9436020C9436020C9436020C943602F0
:1000B0000C9436020C9436020C9436020C94FF29F0
:1000C0000C9436020C9436020C9436020C94F228EE
:1000D0000C94C8280C9436020C9436020C94360208
:1000E0000C9436020C94E41F0C946B030C94AF1F19
:1000F0000C9402090C9448030C9471030C941E1583
:100100000C947F030C94100C0C94640D0C94AC2490
:100110000C9427160C9457200C941D0D0C946C0510
:100120000C94820D0C94DB050C94270D0C9419276C
:100130000C94FE160C94F6160C9436160C94971A22
:100140000C94BA080C94C2220C94550D0C94902473
:100150000C94AA050C94122B0C948C1D0C94EF2279
:100160000C94911E0C94901A0C9414250C946824F1
:100170000C9459030C9485090C94041B0C94612075
:100180000C945D030C9484170C9474050C94152343
:100190000C9453030C94FB0C0C9474200C94652366
:1001A0000C94090D0C946E1B0C94780D0C949C24EB
:1001B0000C9460060C94F11A0C94F3210C94B21B6D
:1001C0000C94960D0C94F7170C94E6200C947D0576
:1001D0000C949B0D0C947E030C941A200C944403F5
:1001E0000C94130D0C944C030C94501E0C94C01AD8
:1001F0000C940D1B0C9486180C94CD050C94F81FD0
:100200000C945D180C94D5080C946B200C94410D43
:100210000C947C050C943E030C9413060C94670319
:100220000C9483030C9463030C948C0D0C94221691
:100230000C9451150C9415190C942C160C944B22FB
:100240000C945F1A0C947A1F0C94770B0C94BE21BB
:100250000C94F81D0C94CC1F0C941B270C94370D98
:100260000C94921D0C948F1D0C9493220C944B0DA6
:100270000C941E1D0C94B9050C9475030C9450033A
:100280000C9437180C947E1B0C94DE180C94FF1AF7
:100290000C946E0D0C94081D0C944F0C0C94C626F7
:1002A0000C9489200C943D1B0C9435240C94040D63
:1002B0000C94B8240C944C250C942A210C947903AA
:1002C0000C94141D0C942F0D005EBCE2613FDD8385
:1002D000C29C7E20A3FD1F41009D23BE46DB65F826
:1002E0008C11AF32CA57E9740000210024002700A6
:1002F0002A002D0030003300010100000401070135
:100300000A0100002200250028002B002E003100E9
:10031000340002010000050108010B01000020006B
:100320002300260029002C002F00320000010000CD
:100330000301060109010505050507050808080868
:10034000020202020A0A080804040404010101016D
:100350000101010103030303030303030407070768
:100360000C0C0C0C0C0C0C0C02020202060606060D
:10037000060606060B0B0B0B0B0B0B0B01021020DA
:1003800020080810204010204080020102010804CB
:10039000020101020408102040808040201008045F
:1003A00002018004020180402010080402010804B8
:1003B00002010102040810204080010204081020FC
:1003C000408000000A0B02090C0D0E08070304010F
:1003D000000000000000000000000000000000001D
:1003E00000000000000000000000000000001211EA
:1003F00010000000000000000000000000000000ED
:100400000000000000000000122B11241FBECFEFDF
:10041000D1E2DEBFCDBF00E00CBF19E0A0E0B2E04A
:10042000EAE3F8E600E00BBF02C007900D92A03BA4
:10043000B107D9F72FE0A0EBB9E001C01D92A53FAD
:10044000B207E1F712E0C5E0D2E000E006C0219774
:100450000109802FFE010E94B331C430D10780E032
:100460000807A9F70E940F2F0C941B340C9400006E
:10047000EAE2FAE0A089B18982E08C93A485B5858F
:100480001C92A685B78580E18C93108EA489B589CE
:1004900086E08C93A289B3898C9180618C93A28928
:1004A000B3898C9188608C93A289B3898C91806880
:1004B0008C930288F389E02D80818F7D808308955D
:1004C0008091C30E882311F181E090E09093C20ED9
:1004D0008093C10E1092D90F1092DB0F1092DA0F99
:1004E0001092DF0F1092DD0F1092DC0F1092DE0FD2
:1004F0008091CC0F8093D70F8091CD0F8093D80F30
:100500001092E20F1092E10F1092E30F0895FC0198
:1005100090E1A2EEBCE001900D929A95E1F78091F6
:10052000EE0C9091EF0CB0E0A0E0E1E4FDE08093F0
:10053000B90D9093BA0DA093BB0DB093BC0D8093F1
:10054000BD0D9093BE0DA093BF0DB093C00D87E776
:100550009BE09093C30D8093C20D1092C10DA4EC4B
:10056000BDE08C9183608B7F8C938091F00C909197
:10057000F10CB0E0A0E080839183A283B3838483F5
:100580009583A683B78381E99EE192878187108650
:10059000ECE4FDE0808183608B7F808382EE9CE0D1
:1005A0009093B90F8093B80F84E690E09093A00FDA
:1005B00080939F0F9093540F8093530F08959C0145
:1005C0004FB7F8948091410BE091400B81111CC012
:1005D00081E08E0F8093400B93E0E99FF00111249E
:1005E000E953F54F318320836283883211F41092EE
:1005F000400B9091400B80913F0B981303C081E01A
:100600008093410B4FBF089590913F0B9F5F9832AD
:10061000A1F090933F0B91E09E0F9093400B83E0ED
:10062000E89FF0011124E953F54F31832083628361
:10063000983241F71092400BE5CF10923F0BEBCF71
:100640008150823108F05AC0E82FF0E08827E45D3D
:10065000FC4F8F4F0C94B3314C0350033E034403C3
:1006600048037E03530359035D03630367036B036E
:10067000710375037E0379037F03830380918000F8
:100680008F77809380000895809180008F7DF9CFCF
:1006900080918000877FF5CF84B58F7784BD0895E2
:1006A00084B58F7DFBCF8091B0008F778093B000B1
:1006B00008958091B0008F7DF9CF809190008F7761
:1006C000809390000895809190008F7DF9CF809164
:1006D0009000877FF5CF8091A0008F778093A00056
:1006E00008958091A0008F7DF9CF8091A000877F31
:1006F000F5CF809120018F7780932001089580911C
:1007000020018F7DF9CF80912001877FF5CFCF9396
:10071000DF93282F30E0F901EE53FC4F8491F9016B
:10072000E458FC4FD491F901EA5CFC4FC491CC230E
:10073000A1F081110E942003EC2FF0E0EE0FFF1FCB
:10074000E45EFC4FA591B491EC91ED2381E090E043
:1007500009F480E0DF91CF91089580E090E0FACF36
:10076000CF93DF93EC01188219821A821B821C82BC
:100770001D821E821F828EE00E9487039A8180FB69
:1007800090F99A838DE00E9487039A8180FB91F90A
:100790009A838CE00E9487039A8180FB92F99A8366
:1007A000E1ECFEE08881938590FB85F9928990FBCE
:1007B00086F9918D90FB87F98883898190A190FBC0
:1007C00080F9898389E10E948703998180FB91F9EF
:1007D000998388E10E948703998180FB92F999832C
:1007E00087E10E948703998180FB93F9998380E1D7
:1007F0000E948703998180FB94F999838FE00E947E
:100800008703998180FB95F9998386E10E9487038C
:10081000998180FB96F9998381E10E9487039981F0
:1008200080FB97F999838CE20E9487039A8180FB71
:1008300093F99A838EE20E9487039A8180FB94F950
:100840009A838DE20E9487039A8180FB95F99A83AF
:100850008FE20E9487039A8180FB96F99A8385E252
:100860000E9487039A8180FB97F99A8384E20E9411
:1008700087039B8180FB90F99B8387E20E9487031B
:100880009B8180FB91F99B8386E20E9487039B8179
:1008900080FB92F99B8389E20E9487039B8180FB06
:1008A00093F99B8388E20E9487039B8180FB94F9E4
:1008B0009B838BE20E9487039B8180FB95F99B833E
:1008C0008AE20E9487039B8180FB96F99B8385E3E4
:1008D0000E948703988180FB90F998838FE10E94A2
:1008E0008703988180FB92F998838BE10E948703AC
:1008F000988180FB91F998838DE10E94870398810C
:1009000080FB93F998838EE10E948703988180FB96
:1009100094F99883DF91CF9108951F93CF93DF933C
:10092000282F30E0F901EE53FC4F8491F901E4588F
:10093000FC4FD491F901EA5CFC4FC491CC23A9F09F
:10094000162F81110E942003EC2FF0E0EE0FFF1F05
:10095000EE5FFC4FA591B4918FB7F894EC91111113
:1009600008C0D095DE23DC938FBFDF91CF911F911C
:100970000895DE2BF8CFCF93DF9390E0FC01E4588D
:10098000FC4F24918A5C9C4FFC0184918823C9F020
:1009900090E0880F991FFC01E851FD4FA591B4919B
:1009A000FC01EE5FFC4FC591D49161110DC09FB762
:1009B000F8948C91209582238C9388812823288316
:1009C0009FBFDF91CF910895623051F49FB7F894A3
:1009D0003C91822F809583238C93E8812E2BEFCF3F
:1009E0008FB7F894EC912E2B2C938FBFEACF8633E0
:1009F00008F0865320917B00982F9870277F922BC8
:100A000090937B008770806480937C0080917A0053
:100A1000806480937A0080917A0086FDFCCF80917B
:100A200078009091790008953FB7F89480911F0A5B
:100A30009091200AA091210AB091220A26B5A89B84
:100A400005C02F3F19F00196A11DB11D3FBFBA2F60
:100A5000A92F982F8827BC01CD01620F711D811D20
:100A6000911D42E0660F771F881F991F4A95D1F7A5
:100A700008958F929F92AF92BF92CF92DF92EF92A2
:100A8000FF926B017C010E9414054B015C01C114B3
:100A9000D104E104F104B9F00E9414056819790940
:100AA0008A099B09683E73408105910580F321E026
:100AB000C21AD108E108F10888EE880E83E0981E7A
:100AC000A11CB11CE4CFFF90EF90DF90CF90BF90BE
:100AD000AF909F908F900895E0E2FCE08381948135
:100AE0000196948383830895E0E2FCE080859185FC
:100AF00001969187808708950895AF92BF92CF9213
:100B0000DF92EF92FF920F931F93CF93DF936C01CD
:100B10007B018B01040F151FEB015E01AE18BF08AE
:100B2000C017D10759F06991D601ED91FC91019060
:100B3000F081E02DC6011995892B79F7C501DF9168
:100B4000CF911F910F91FF90EF90DF90CF90BF90CA
:100B5000AF900895FC01538D448D252F30E0842FF4
:100B600090E0821B930B541710F0CF9608950197D5
:100B70000895FC01918D828D981761F0A28DAE0FC2
:100B8000BF2FB11D5D968C91928D9F5F9F73928F49
:100B900090E008958FEF9FEF0895FC01918D828D75
:100BA000981731F0828DE80FF11D858D90E0089542
:100BB0008FEF9FEF0895FC01918D228D892F90E09A
:100BC000805C9F4F821B91098F73992708958AE259
:100BD0009AE00E94DB0521E0892B09F420E0822FB6
:100BE0000895FC01A48DA80FB92FB11DA35ABF4FC2
:100BF0002C91848D90E001968F739927848FA6891C
:100C0000B7892C93A089B1898C91837080648C936F
:100C1000938D848D981306C00288F389E02D80811E
:100C20008F7D80830895EF92FF920F931F93CF9350
:100C3000DF93EC0181E0888F9B8D8C8D98131AC017
:100C4000E889F989808185FF15C09FB7F894EE89FE
:100C5000FF896083E889F98980818370806480835B
:100C60009FBF81E090E0DF91CF911F910F91FF90A6
:100C7000EF900895F62E0B8D10E00F5F1F4F0F734E
:100C80001127E02E8C8D8E110CC00FB607FCFACF09
:100C9000E889F989808185FFF5CFCE010E94F105B1
:100CA000F1CFEB8DEC0FFD2FF11DE35AFF4FF082DA
:100CB0009FB7F8940B8FEA89FB8980818062CFCF40
:100CC000CF93DF93EC01888D8823B9F0AA89BB8983
:100CD000E889F9898C9185FD03C0808186FD0DC06E
:100CE0000FB607FCF7CF8C9185FFF2CF808185FF8F
:100CF000EDCFCE010E94F105E9CFDF91CF910895AC
:100D000080E090E0892B49F080E090E0892B29F089
:100D10000E94000081110E94000080E090E0892B79
:100D200049F080E090E0892B29F00E9400008111B9
:100D30000E94000080E090E0892B29F00E94E705E6
:100D400081110E94000080E090E0892B49F080E052
:100D500090E0892B29F00E94000081110C94000082
:100D60000895DC0180E0615090F09D919827E92F73
:100D7000EF70F0E0E853FD4F2491E92FE295EF701A
:100D8000F0E0E852FD4FE491822F8E27ECCF0895DA
:100D9000DC012C911196ED91FC91F8948181822BCC
:100DA00081839281322F30959323928387E090E064
:100DB0000197F1F781818323818383E290E001979A
:100DC000F1F790817894EFECF0E03197F1F792230E
:100DD00081E009F480E00895FC0190810180F281B6
:100DE000E02D292F209560FF14C0F8948281822382
:100DF00082838181892B8183A3E2B0E01197F1F78F
:100E00008281982B9283789487ED90E00197F1F797
:100E10000895F8948281822382838181892B818342
:100E2000AFEFB0E01197F1F78281982B928378941D
:100E30008FE090E0EBCFDF92EF92FF920F931F9342
:100E4000CF93DF93EC01D62EE42E08E010E0FF24D0
:100E5000F39461E08D2D8F2109F460E0CE010E94B2
:100E6000EC06FF0C01501109A1F7E11010C0F89435
:100E7000E981FA8191818881809589238183E98143
:100E8000FA81928188818095892382837894DF9189
:100E9000CF911F910F91FF90EF90DF900895EF9207
:100EA000FF920F931F93CF93DF938C017B0140E060
:100EB00065E50E941B07E70188E0E80EF11C6991D7
:100EC00040E0C8010E941B07CE15DF05C1F7DF9186
:100ED000CF911F910F91FF90EF900895FC019081A9
:100EE0000180F281E02DF8948181292F20958223C1
:100EF000818378943DE743E050E0315029F1DA01F5
:100F00001197F1F780818923C1F3F89482818223BC
:100F100082838181892B81837894ABE7B7E0119735
:100F2000F1F7F894818182238183A3E1B1E01197E5
:100F3000F1F78081982381E009F080E07894E3E67E
:100F4000F6E03197F1F7089580E008958F929F922F
:100F5000AF92BF92CF92DF92EF92FF920F931F93C7
:100F6000CF93DF9300D01F921F92CDB7DEB78C01D5
:100F7000DC0119968D919C910E946E0740E06CEC0B
:100F8000F801818592850E941B07D8014C9164E489
:100F900019968D919C910E941B078FB7F894C09071
:100FA0001B0AD0901C0AE0901D0AF0901E0A8FBF09
:100FB000F8018481811120C081E08983CA82DB82AB
:100FC000EC82FD8229813A814B815C816D8170E0E8
:100FD00080E090E00F900F900F900F900F90DF91B6
:100FE000CF911F910F91FF90EF90DF90CF90BF9026
:100FF000AF909F908F90089585818823F9F080812C
:1010000081111CC0F801818592850E94C80681303B
:1010100099F22FB7F89480911B0A90911C0AA09125
:101020001D0AB0911E0A2FBF8C199D09AE09BF0978
:101030008E3E9240A105B10528F3BECFD80113968C
:10104000EC91E9508EEE92E0E33038F4F0E0EE0FF0
:10105000FF1FE05DFD4F808191814C01B12CA12CDF
:10106000F8018181882321F060E082810E948D0453
:10107000C501B4010E943905D80111968C911197D0
:10108000882309F499CF61E012968C910E948D0417
:1010900093CF4F925F926F927F928F929F92AF9277
:1010A000BF92CF92DF92EF92FF920F931F93CF9355
:1010B000DF938C017B01EA01FC01818592850E940E
:1010C0006E078823D9F1B701F801818592850E94C6
:1010D0004F0740E06EEBF801818592850E941B0767
:1010E0006E015E01F9E0AF0EB11C7E01F801818452
:1010F000928488E0682E712C512C44244394C401BE
:101100000E94C80681115428440CF1E06F1A71083E
:10111000B1F7F70151927F01AE16BF0639F7F8011A
:10112000818592850E946E07813041F4F60181919C
:101130006F01811105C0EE15FF05C1F790E008C0F1
:1011400068E0CE010E94B10691E028852813F6CF11
:10115000892FDF91CF911F910F91FF90EF90DF903A
:10116000CF90BF90AF909F908F907F906F905F9047
:101170004F900895EAE2FCE0A281B38113968D912D
:101180009C91149714961C921E92139795838483B6
:10119000A285B38513968D919C91149714961C92F9
:1011A0001E92139795878487089520912E0C309175
:1011B0002F0C8091300C9091310C28173907C0F01A
:1011C00081E090E090932B0C80932A0C2091360CB8
:1011D0003091370C8091380C9091390C28173907D1
:1011E00060F081E090E09093330C8093320C08958E
:1011F00010922B0C10922A0CE9CF1092330C109203
:10120000320C08951092940DE6E2FAE08081877F17
:1012100080830895CF93DF93A0E0B2E0FD0190E0DA
:10122000219131912817390721F4EF012297198272
:10123000188222E0E031F20799F78D919D91892B78
:1012400041F482E0A031B807C1F781E0DF91CF918E
:10125000089580E0FBCFFC0121812150330B70E029
:1012600060E0472F50E0421753073CF4480F591FE6
:10127000FA014081640F7F5FF4CF820F931FFC015E
:1012800060830895FC0181E08083658385E082832B
:101290008091E00CA0E0B2E020E132E04D915D9160
:1012A000452BE1F42A173B07C9F791E08F7E90FFA9
:1012B00080619091B00990FB81F98383F8949091BB
:1012C0003E0D80913D0D91110BC090913C0D9813F6
:1012D00007C07894148287E08183089590E0E6CF78
:1012E00090E0A091390DB0913A0DA80FB91F2C9143
:1012F000019660913B0D70E00E949F3180933D0DFF
:1013000010923E0D78942483E6CFCF93DF93CDB730
:10131000DEB7C456D1090FB6F894DEBF0FBECDBFFD
:1013200066E0CE0101960E944209CE0101960E941C
:101330002B09CC59DF4F0FB6F894DEBF0FBECDBFDF
:10134000DF91CF910895CF93DF93EC0167E00E9486
:101350004209CE01DF91CF910C942B09E1ECF0E032
:1013600080818068808308951F93CF93DF93EC0181
:1013700019861EAAFC01E05CFF4F10829FAD3196DA
:1013800080E0981719F011928F5FFBCFFE01E55BAB
:10139000FF4F10823197108210E08FAD181750F474
:1013A000EA81FB81E10FF11D60E080810E948D04E4
:1013B0001F5FF3CFDF91CF911F910895CF93DF93FC
:1013C000EC010E94B409ED81FE812F8138858CA942
:1013D0009DA9B0E0A0E080839183A283B38384833E
:1013E0009583A683B783328721878BE080878385A7
:1013F00081608D7F8B7F8387DF91CF9108953F92AE
:101400004F925F926F927F928F929F92AF92BF9214
:10141000CF92DF92EF92FF920F931F93CF93DF93C0
:1014200000D000D0CDB7DEB79E838D83062F10E0AD
:101430008FB7F894C0901B0AD0901C0AE0901D0A48
:10144000F0901E0A8FBFED81FE8180A991A9A2A90B
:10145000B3A9C81AD90AEA0AFB0AC701B6010E9451
:10146000E93220E030E04AE754E40E944132AD81A5
:10147000BE8194966D937D938D939C939797FD0178
:10148000C0A2D1A2E2A2F3A22FB7F89480911B0AC6
:1014900090911C0AA0911D0AB0911E0A2FBFED81E8
:1014A000FE8180AB91ABA2ABB3AB1587048762859D
:1014B0007385601B710BE6A4F7A4E01AF10A17A765
:1014C00006A781A5882331F0719561957109F19482
:1014D000E194F108AD81BE8198963C90072E000CF6
:1014E000880B990B0E94EB324B015C0110E000E08D
:1014F00031100BC0ED81FE812089318942895389E9
:101500000E94A0330E94B3328B01B701FF0C880BFD
:10151000990B0E94EB326B017C01AD81BE819496E8
:101520008D919D910D90BC91A02D89839A83AB8361
:10153000BC83ED81FE81208D318D428D538DC7019D
:10154000B6010E94A03329813A814B815C810E94BF
:1015500041322B013C01B801110F880B990B0E94FD
:10156000EB329B01AC01C301B2010E94D0310E9459
:10157000B3322B01AD81BE811F967C936E931E9773
:1015800054962D913D914D915C915797C501B401B1
:101590000E94A03329813A814B815C810E94A03353
:1015A000ED81FE81248D358D468D578D0E94D03181
:1015B0004B015C01AD81BE815C968D929D92AD9296
:1015C000BC925F973320A1F050962D913D914D91A3
:1015D0005C915397C701B6010E94A033A501940105
:1015E0000E94D031ED81FE81648F758F868F978F39
:1015F000AD81BE815C968C905C975D969C905D976A
:101600005E96AC905E975F96BC905F979A960D91B0
:101610001C91B801012E000C880B990B0E94EB3233
:101620006B017C019B01AC01B401C5010E943C32FD
:1016300087FD16C0ED81FE8164A575A5072E000CFF
:10164000880B990B0E94EB326B017C019B01AC0172
:10165000B401C5010E949B33181614F06401750192
:10166000C601D701ED81FE81848F958FA68FB78F3C
:10167000B201550C880B990B0E94EB329601A70121
:101680000E94D0310E94B332601771074CF0AD81D7
:10169000BE819C960D911C91601771070CF48B0113
:1016A000ED81FE811787068706ABE55BFF4FAD81B5
:1016B000BE8114968C91081708F4802F808326969B
:1016C0000FB6F894DEBF0FBECDBFDF91CF911F9153
:1016D0000F91FF90EF90DF90CF90BF90AF909F90D1
:1016E0008F907F906F905F904F903F900895CF9331
:1016F000DF93CDB7DEB768970FB6F894DEBF0FBEA5
:10170000CDBFEAE2FCE0DE01119644A155A166A13D
:1017100077A14D935D936D937D9378968CE0EA3B32
:10172000F80799F78091280F882351F069817A8111
:101730008B819C810E94BA328FE19FE00E94FF0959
:101740008091740F882391F069817A818B819C81CB
:101750000E94BA328BE69FE068960FB6F894DEBF1F
:101760000FBECDBFDF91CF910C94FF0968960FB6E5
:10177000F894DEBF0FBECDBFDF91CF910895CF9219
:10178000DF92EF92FF920F931F93CF93DF9300D0DE
:1017900000D01F921F92CDB7DEB7FC018E010F5F04
:1017A0001F4F88E0D8011D928A95E9F74285C180D4
:1017B000E0802E2D30E0842FF12CDD24D394CF1047
:1017C0000EC0CF010296B801562F501B5E1590F443
:1017D000DB015D91BD01DC015D93CD01F5CF90E0B2
:1017E000D801A80FB91FDC920196B9010E949F3160
:1017F000F394E5CF842F90E00196B9010E949F31C8
:10180000828728960FB6F894DEBF0FBECDBFDF915A
:10181000CF911F910F91FF90EF90DF90CF9008959F
:101820001F93CF93DF93FC0181858823A1F1DF0112
:10183000A65BBF4F9C91EF01C55BDF4F8881981776
:1018400030F59F5F9C939F01205C3F4F97AD8C913B
:10185000981708F4892FEF01F9018083CE01CF9604
:101860000E94BF0B10E08FAD1817A8F4812F90E0F5
:10187000DE01A80FB91FAF5BBF4FEA81FB81E80F04
:10188000F91F6C9180810E948D041F5FECCF891736
:10189000D0F69150D7CFDF91CF911F9108958FE16E
:1018A0009FE00E94100C8BE69FE00C94100CEF92CE
:1018B000FF921F93CF93DF93EC0110E08C811817F8
:1018C000A0F4E12EF12CEA81FB81EE0DFF1D61E019
:1018D00080810E94BB04EA81FB81EE0DFF1D60E068
:1018E00080810E948D041F5FE9CFFE01E05CFF4F05
:1018F0001082CE01CF96DF91CF911F91FF90EF9094
:101900000C94BF0B81E20E94870321E0892B09F42C
:1019100020E0822F0895FC018181861799F0618370
:1019200081E090E0938382838081861751F0662363
:1019300081F084819581228133812817390708F04D
:1019400060830895828193818F3F980769F30196A0
:10195000E9CF86819781EFCFFC018181882331F027
:101960008381DB018C93858111968C9308950F936D
:101970001F93CF93DF93FC012081222309F43FC002
:10198000162FC62FD0E0D683C583028161E0802F59
:101990000E94BB04209741F460E0802FDF91CF913B
:1019A0001F910F910C948D04CF3FD10511F461E08C
:1019B000F4CFE02FF0E0EE53FC4FE491E150E23140
:1019C00008F0B4C0F0E08827E751F34F8F4F0C9434
:1019D000B331FB0C040D090D130D1D0D960D270DD4
:1019E0002F0D370D410D4B0D550D640D6E0D960DE0
:1019F000780D820D8C0D84B5806884BD17BDDF9194
:101A0000CF911F910F91089584B5806284BD18BD58
:101A1000F6CF80918000806880938000D093890009
:101A2000C0938800ECCF809180008062809380001A
:101A3000D0938B00C0938A00E2CF809180008860B1
:101A400080938000D0938D00C0938C00D8CF80917C
:101A5000B00080688093B0001093B300D0CF809125
:101A6000B00080628093B0001093B400C8CF809122
:101A70009000806880939000D0939900C093980064
:101A8000BECF80919000806280939000D0939B00A5
:101A9000C0939A00B4CF80919000886080939000AA
:101AA000D0939D00C0939C00AACF8091A000806835
:101AB0008093A0008091A0008F7B8093A000D093A2
:101AC000A900C093A8009BCF8091A0008062809362
:101AD000A000D093AB00C093AA0091CF8091A0004A
:101AE00088608093A000D093AD00C093AC0087CFF6
:101AF00080912001806880932001D0932901C093B8
:101B000028017DCF80912001806280932001D093B5
:101B10002B01C0932A0173CF8091200188608093AC
:101B20002001D0932D01C0932C0169CFC038D1057D
:101B30000CF03DCF31CF0F931F93CF93DF9383E210
:101B40000E9487038C0182E20E948703EC0161E01E
:101B5000012B09F460E086E09DE00E948B0C61E0BF
:101B6000CD2B09F460E08EE09DE00E948B0C80910B
:101B7000060D8093160D90910E0D9093170D23E096
:101B8000911103C021E0811122E02093180D2091D2
:101B9000E90F222309F448C02091F10F222309F410
:101BA00043C02091B70F21113FC0992351F180917B
:101BB000C90F8093D80F1092D70F6091D70F609301
:101BC000E80F8091EA0F882329F18091E60F909128
:101BD000E70F0E94B70C6091D80F6093F00F8091CF
:101BE000F10F882309F18091F20F8823C1F08091D1
:101BF000EE0F9091EF0FDF91CF911F910F910C9409
:101C0000B70C8111DACF8091C80F8093D70F109253
:101C1000D80FD3CF8091E40F9091E50FDACF809168
:101C2000EC0F9091ED0FE7CFDF91CF911F910F91C6
:101C30000895CF93DF93EC012881211121C021E089
:101C400028832981211117C08A81813171F4809103
:101C5000D00080648093D0008091D100877E8093F3
:101C6000D10061E081E10E94BB0461E08A81DF91E3
:101C7000CF910C948D046D81DF91CF910C94B70CB2
:101C8000DF91CF910895CF93DF93EC01862F688386
:101C90005A8349831C821B8262E00E94BB04298113
:101CA0003A819881923069F43093110220931002A6
:101CB00080916A00836080936A00EC9ADF91CF91F3
:101CC0000895933059F430931302209312028091B7
:101CD0006A008C6080936A00ED9AF0CF8EEE890FD7
:101CE000843060F787E1891BE82FF0E0EE0FFF1FDB
:101CF000E05FFD4F31832083843091F08530B9F06F
:101D0000833039F080916900836080936900E89A9C
:101D1000D5CF809169008C6080936900E99ACECF1D
:101D200080916900806380936900EA9AC7CF8091AF
:101D30006900806C80936900EB9AC0CFFC0111822E
:101D400060E080810C948D04FC01108260E0818150
:101D50000C948D04F89490913E0D992359F0809144
:101D60003F0D9091400D01969093400D80933F0D53
:101D70007894089520913C0D30E0E091390DF09178
:101D80003A0DE20FF31F8083C901019660913B0D6C
:101D900070E00E949F3180933C0D90913D0D98130F
:101DA000E7CF81E080933E0DE3CFBF92CF92DF92E9
:101DB000EF92FF920F931F93CF93DF93EC01B62E18
:101DC000C72E8D85811105C0CE010E946E0781113D
:101DD0000EC01B861D861C8680E0DF91CF911F916F
:101DE0000F91FF90EF90DF90CF90BF90089540E06B
:101DF00060EFCE010E941B0701E0E12CD12C11E025
:101E0000CE010E94C806F82ECE010E94C80691E0BD
:101E1000F91218C0813099F51134D8F2DB86D1104F
:101E200002C081E08D878B81882399F22396EB2D68
:101E3000FC2DCF01089629912193E817F907D9F7CE
:101E400081E0CBCFEE2DF0E0F8120FC08B85181794
:101E5000A0F4DE01AE0FBF1F13968C91802379F49E
:101E6000F12C193008F41C87D12EEC0FFD1F838153
:101E7000902F9095892383830AC08113F1CFFE01AF
:101E8000EE0DF11D8381802B8383FF24F3946F2D4E
:101E9000CE010E94EC061F5F000F11F4E39401E0F5
:101EA00087E08E1508F0ACCFB7CFCF93DF93EB016F
:101EB000DC011996ED91FC911A971386158614860C
:101EC000128611861086178216821582148213825A
:101ED00019968D919C910E94D50E982F882341F0E0
:101EE00067E0CE010E94B10691E02F81281390E0B7
:101EF000892FDF91CF9108958F929F92AF92BF92D9
:101F0000EF92FF920F931F93CF93DF93CDB7DEB77E
:101F100061970FB6F894DEBF0FBECDBF7C01FC0108
:101F200000851185F8018781882309F46BC0BE0103
:101F3000665F7F4FC8010E94550F882309F462C075
:101F4000AE014F5F5F4FBE01665F7F4FC8010E94C9
:101F50004908882309F456C08A81812C912C5401A8
:101F600087FF06C0812C912CF8EFAF2EBB24BA94CA
:101F70009A8549819B3309F057C02D8127FF54C0B2
:101F800040FD40C0042F10E030E020E073E0000F7F
:101F9000111F221F331F7A95D1F7B901A801407E86
:101FA00057706627772790E0B0E0A0E08C019D0194
:101FB000EBE0000F111F221F331FEA95D1F7042B0E
:101FC000152B262B372B082919292A293B290138BB
:101FD00054EE15075FEF25073507A4F0C901B801D6
:101FE0000E94EB3220E030E040E05CE30E94A0334E
:101FF0004B015C0120E030E04EEF52EC0E943C329D
:10200000811158C0F70186899789248935898217FB
:10201000930718F40196978B868B812C912C8EEF69
:10202000A82E82ECB82E49C0082F10E0102F0027F0
:10203000110F110F110FF8E04F9FA0011124042B75
:10204000152B012E000C220B330B082919292A29E4
:102050003B29903109F0BBCF6885662309F4B7CFDF
:1020600070E08F81AB01481B5109CA019695982FEA
:102070008827979587950E949F31CB01770FAA0BF0
:10208000BB0B53E0000F111F221F331F5A95D1F7CE
:102090000078277033270052110921093109800F78
:1020A000911FA21FB31F95018401082B192B2A2B06
:1020B0003B2B8DCFF701178A168A81E0F7014689FD
:1020C0005789248935894217530708F480E0F701BE
:1020D000838B808591850E94A607F70183898111F2
:1020E0001AC080829182A282B382F70160817181DD
:1020F0008281938161960FB6F894DEBF0FBECDBF8B
:10210000DF91CF911F910F91FF90EF90BF90AF9013
:102110009F908F90089580E090E0AAE7B4EC8083D0
:102120009183A283B383E1CFBF92CF92DF92EF92EC
:10213000FF920F931F93CF93DF93CDB7DEB76197D5
:102140000FB6F894DEBF0FBECDBF7C018B01DC0162
:1021500019967C936E93189783E0D82ECC24C39461
:10216000D8011996ED91FC911A971386158614865D
:1021700012861186108617821682158214821382A7
:1021800017961C92179718961C9262E370E080E0F5
:1021900090E00E943905BE01665F7F4FF80181859E
:1021A00092850E94D50E882309F477C067E0CE019E
:1021B0000A960E94B10699898913EDCFD801179626
:1021C0008C9117978F5F17968C938A85883231F0A0
:1021D00008F04AC0803111F08232E9F6F8018085BA
:1021E0008F5F80878081811124C0818592850E94C4
:1021F0006E07BE01665F7F4FD80119968D919C9145
:102200000E944F0740E064EBF801818592850E94AF
:102210001B07D80119968D919C910E94C806B82E73
:10222000F801818592850E946E07B11002C0D80125
:10223000CC928A85803119F1AE014F5F5F4FBE01AC
:10224000665F7F4FC8010E944908882359F08D813D
:102250009A859B3311F487FD12C08F3391F058F4A7
:102260008F31B9F080E00EC08B3309F4B7CF8234E0
:1022700009F091CFB3CF8F3571F08F3799F78CE09C
:1022800001C08AE0F8019381981708F084CF838316
:1022900082CF89E0F7CF8BE0F5CFD80117969C91DC
:1022A000911103C0DA94D1105BCFF701138A178A1A
:1022B000168A0084F185E02D9781992331F0B701CA
:1022C000665F7F4FCF010E94550FD70152968C93C6
:1022D00052971896ED91FC911997148218968D914A
:1022E0009C910E94A60761960FB6F894DEBF0FBEC0
:1022F000CDBFDF91CF911F910F91FF90EF90DF90B5
:10230000CF90BF9008951F93CF93DF93FC0120815E
:102310002223E9F0EC01108212818181882359F097
:1023200061E0812F0E94BB0460E0812FDF91CF919B
:102330001F910C948D0460E0812F0E948D048A818E
:10234000813129F4DF91CF911F910C943802DF91F4
:10235000CF911F9108951F93CF93DF93EC01888154
:1023600099810E9483118A819B81FC01248122230F
:1023700051F00E9483111D8281E08F8380E0DF9104
:10238000CF911F91089511E01E832C8130E0368398
:1023900025830E94190E1D8381E0F1CFCF93DF9337
:1023A000EC018D81811119C09F81911116C02E8180
:1023B000222369F08A819B81FC013481332381F0DF
:1023C000211108C0CE01DF91CF910C94AB1188810F
:1023D0009981F2CF81E08F8380E0DF91CF910895E2
:1023E0002C8130E0368325830E94190E81E08D8395
:1023F000F4CF1F93CF93DF93FC012581222309F1B2
:10240000EC018681811113C08081918111E0FC0172
:1024100014830E948311CE010E94AB11811113C05D
:102420001F831D8282E0DF91CF911F9108958281E9
:10243000938111E0FC0114830E9483111D821F838C
:10244000F1CF80E0F0CF81E0EECFCF93DF93EC01CE
:10245000888199810E9483118A819B810E948311C6
:102460001D82DF91CF910895CF93DF93EC010E94FD
:102470002512E881F9811482EA81FB8114821E828F
:102480001F82DF91CF910895FC0101900020E9F7B0
:102490003197AF01481B590BBC018AE29AE00C94BA
:1024A0007D058F929F92AF92BF920F931F93CF9310
:1024B000DF93CDB7DEB7A1970FB6F894DEBF0FBE9E
:1024C000CDBF19A2423008F44AE08E010F5D1F4FC4
:1024D000842E912CB12CA12CA50194010E947D3158
:1024E000E62FB901CA01EA30F4F4E05DD801EE93B9
:1024F0008D01232B242B252B79F790E080E010977A
:1025000019F0CD010E944412A1960FB6F894DEBFD7
:102510000FBECDBFDF91CF911F910F91BF90AF90B4
:102520009F908F900895E95CE1CF8F929F92AF9238
:10253000BF92CF92DF92EF92FF92CF93DF936A0127
:102540007B01E9010E944412C530D10509F0A5C004
:10255000A7019601C701B6010E940D34882391F0AE
:102560008AE592E00E94441286E692E0DF91CF91E4
:10257000FF90EF90DF90CF90BF90AF909F908F90A3
:102580000C94441246015701E894B7F82FEF3FEF3F
:102590004FE75FE7C501B4010E940D3481110DC002
:1025A0002FEF3FEF4FE75FE7C501B4010E943C32D8
:1025B00018161CF48EE592E0D5CF2FEF3FEF4FE7D2
:1025C0005FE4C701B6010E949B3318161CF482E633
:1025D00092E0C8CF2FEF3FEF4FE75FECC701B601A6
:1025E0000E943C3287FDF3CF20E030E0A901C70113
:1025F000B6010E943C3287FF09C06DE28AE29AE090
:102600000E941306F7FAF094F7F8F0942BEA35ECF1
:1026100047EA56E3C701B6010E94D0316B017C0145
:102620000E94BA324B015C010E94E9329B01AC016D
:10263000C701B6010E94CF316B017C014AE0C501A0
:10264000B4010E9451126EE28AE29AE00E941306DF
:10265000C6E0C15009F488CF20E030E040E251E408
:10266000C701B6010E94A0334B015C010E94BA323F
:102670006B01F12CE12C4AE0C701B6010E94511216
:10268000C701B6010E94E9329B01AC01C501B4014A
:102690000E94CF316B017C01DCCFC701B6010E94E3
:1026A000BA324C2F0E9451125FCF21E030E03093BC
:1026B000DF0C2093DE0C8091E00C81608B7F809397
:1026C000E00C8CE291E0A0E0B0E08093710D90937B
:1026D000720DA093730DB093740D8093750D90934C
:1026E000760DA093770DB093780D85ED98E09093DB
:1026F0007B0D80937A0D1092790D80917C0D816015
:102700008D7F8B7F80937C0D8091C30E8B3029F45D
:102710001092030D1092020D0895863029F4309323
:10272000030D2093020D08959CEF980F923038F41A
:1027300082E090E09093030D8093020D089587301E
:1027400079F52AE030E040E050E060E87FE389E698
:1027500092E00E9495128091E80C9091E90CB0E013
:10276000A0E08093550E9093560EA093570EB09311
:10277000580E8093590E90935A0EA0935B0EB0930F
:102780005C0E8EEF96E190935F0E80935E0E10923A
:102790005D0E8091600E81608D7F8B7F8093600ED7
:1027A00083E090E0C7CF009711F00E94441286E6C4
:1027B00092E00C94441283E892E00E94D31384EEDA
:1027C0009FE00E94251284EF91E0A0E0B0E08093AA
:1027D000910E9093920EA093930EB093940E8093CB
:1027E000950E9093960EA093970EB093980E85E158
:1027F00099E190939B0E80939A0E1092990EECE9BA
:10280000FEE0808181608D7F8B7F8083089583EAE5
:1028100092E00E94D313EAE2FCE015821482A1E464
:10282000BDE04CE251E060E070E0D0964D935D93E6
:102830006D937C93D397D4964D935D936D937C93D6
:10284000D79785ED98E0DA969C938E93D997D89692
:102850001C92ACE7BDE08C9181608D7F8B7F8C9367
:1028600082E090E091838083A281B38114961C92D0
:102870001E92139791878087158614860284F385AC
:10288000E02D1482138208959091C30E981302C014
:1028900080E00895953061F1A0F49430C9F78B3051
:1028A000B9F78BE08093C30E8091C60F9091C70F4C
:1028B000892B71F31092C70F1092C60F0E94DB1381
:1028C000E7CF963071F19B3019F78430B9F086303C
:1028D000F9F68093C30E8091C60F9091C70F0197B0
:1028E000B9F281E090E09093C70F8093C60FE6CFD6
:1028F0008430A9F68093C30E81E008958093C30EBF
:102900008091C60F9091C70F029741F082E090E04E
:102910009093C70F8093C60F0E94DB130E94071489
:10292000EBCF8B3009F0B4CF2AE030E040E050E04C
:1029300060E371E488EB92E00E9495128FE19FE0E2
:102940000E94DE098DE08093C30EA2CF0E94D313B4
:102950001092C20E1092C10E10929C0E1092A80EF0
:102960001092B40E84EE9FE00E9425128CEE9FE040
:102970000E94251284EE9FE00E9434128CEE9FE0AC
:102980000E94341288EE9EE00E9483118FEE9EE03A
:102990000E94831186EF9EE00E9483118DEF9EE0DE
:1029A0000E94831184E09FE00E9483118BE09FE0EE
:1029B0000E94831182E19FE00E94831186EC9EE0D9
:1029C0000E94A40E88EC9EE00E94A40E8AEC9EE079
:1029D0000E94A40E89E19FE00E949E0E8BE19FE081
:1029E0000E949E0E8DE19FE00E949E0E8FE19FE06F
:1029F0000E94B4098BE69FE00E94B4091092C40FB4
:102A00001092F40D1092000E1092240E1092180ED7
:102A10001092300E10920C0E10923C0E84EE9FE03D
:102A20000E9434128CEE9FE00C9434121092B70F77
:102A30001092560F88ED92E00C94A614CF93C82FF5
:102A40001092AC0D6091C30E70E090E080E00E94A7
:102A5000E932AB01BC012AE030E088EE92E00E944E
:102A600095128091C30E8C3041F48BEF92E00E945E
:102A7000A6141092C30ECF910895C093C30E88E19F
:102A80000E94AA0E6C2F70E090E080E00E94E93274
:102A9000AB01BC012AE030E087E093E0CF910C94D9
:102AA0009512CF93C82F1092B80D83E293E00E9445
:102AB000D3138091C30E8D30B1F4C093C30E6C2F2D
:102AC00070E090E080E00E94E932AB01BC012AE0B6
:102AD00030E08BE393E00E9495120E94600286E151
:102AE000CF910C94AA0E8C3031F482E593E00E94D1
:102AF000A6141092C30ECF9108958091C40E9091A8
:102B0000C50E8330910591F1892B81F18DE593E01C
:102B10000E94D3138CEE9FE00E94251284EF91E077
:102B2000A0E0B0E080939D0E90939E0EA0939F0E28
:102B3000B093A00E8093A10E9093A20EA093A30E2B
:102B4000B093A40E8EED98E19093A70E8093A60EFD
:102B50001092A50E8091A80E81608D7F8B7F80934F
:102B6000A80E1092C50E1092C40E08951092C50EB4
:102B70001092C40E8CEE9FE00E94CE118DE793E080
:102B80000C94D3131F93CF93DF93EC01162F009770
:102B900011F00E94D3138AE893E00E94D31310929D
:102BA000DF0C1092DE0C0E9416158091C30E8C5023
:102BB000823010F01092C30E209719F0CE010E94BF
:102BC000D3136091E00C6E7F64606093E00C109210
:102BD0002F0C10922E0C1092370C1092360C109273
:102BE000880D1092940D1092A00D1092AC0D1092C1
:102BF000B80D1092D00D1092DC0D1092480E10926C
:102C0000540E10927C0D1092600E10926C0E70E0BB
:102C100090E080E00E94E932AB01BC0120E130E0AD
:102C20008AE993E00E9495121092050D111106C0D9
:102C300089E1DF91CF911F910C94AA0EDF91CF9182
:102C40001F91089560E08BEA93E00C94C21560E058
:102C500082EC93E00C94C215E6E2FAE080818D7F6D
:102C6000808360E083ED93E00C94C215E6E2FAE025
:102C700080818460808360E08FEE93E00C94C215C5
:102C80000E94820C882371F08091270A82FD04C083
:102C90008CE094E00E94D3138091270A8460809393
:102CA000270A08958091270A8B7F8093270A8091B5
:102CB0002A0C90912B0C029709F47EC020912E0CC7
:102CC00030912F0C8091300C9091310C28173907DE
:102CD00008F460C081E090E090932B0C80932A0C64
:102CE00020912A0C30912B0C91E02130310509F014
:102CF00090E08091260A81FD52C02130310509F40F
:102D00004EC082608093260A8091F40F813041F09A
:102D1000823059F484EE9FE00E94F911823029F448
:102D200060E08CE194E00E94C2158091320C909199
:102D3000330C029709F440C080913F0C0E94F704C5
:102D40009C019093410C8093400C6091420C7091D7
:102D5000430C41E06817790708F440E09091260A97
:102D600092FD24C06217730708F5892F8460809351
:102D7000260A8091F40F813041F08230E9F48CEE24
:102D80009FE00E94F9118230B9F460E08FE294E094
:102D90000C94C21510922B0C10922A0CA1CF80918A
:102DA000260A90FB81F98093260ABFCF8091260ADC
:102DB00040FB82F98093260A08950E94401685E41C
:102DC0000E948703892B71F08091270A83FD04C03C
:102DD00084E494E00E94D3138091270A8860809352
:102DE000270A08958091270A877FF9CF84E594E028
:102DF0000E94D31361E08DE10C948D04CF93C82F12
:102E00001092600E1092940D8091F40F8230D9F5DB
:102E10008091F20F811137C08CEE9FE00E94AB11C0
:102E2000882389F18DE694E00E94D31389E692E02D
:102E30000E94D31380E395E7A0E0B0E08093550EA5
:102E40009093560EA093570EB093580E8093590E40
:102E500090935A0EA0935B0EB0935C0E8EEF96E1AA
:102E600090935F0E80935E0E81E0C11101C080E0FF
:102E700080935D0E8091600E81608D7F8B7F80934B
:102E8000600ECF91089589E894E00E94D3138CE1FD
:102E90000E94AA0EC11108C00E94161560E090E0C1
:102EA00080E0CF910C94C2150E94161589E994E038
:102EB0000E94D3138EE10E94AA0E1092C20E1092AD
:102EC000C10E8BE08093C30E0E946002CF910C94E0
:102ED00055139CEF980F933010F08B3099F4682FB6
:102EE00070E090E080E00E94E932AB01BC012AE092
:102EF00030E085EA94E00E94951281E00E94FE167F
:102F000080E0089581E008959EEF980F923008F0D8
:102F100069C01092000E833099F18DEF9EE00E94FF
:102F2000190E84E09FE00E94190E80EC94EDA1E060
:102F3000B0E08093F50D9093F60DA093F70DB0934C
:102F4000F80D8093F90D9093FA0DA093FB0DB093BB
:102F5000FC0D84E897E19093FF0D8093FE0D83E0D4
:102F60008093FD0D8091000E81608D7F8B7F80931B
:102F7000000E81E10E94AA0E85EC94E00C94D3131C
:102F80008DEF9EE00E94831184E09FE00E948311F8
:102F900082E10E94AA0E80E395E7A0E0B0E0809372
:102FA000F50D9093F60DA093F70DB093F80D809367
:102FB000F90D9093FA0DA093FB0DB093FC0D84E8EE
:102FC00097E19093FF0D8093FE0D84E08093FD0DBB
:102FD0008091000E81608D7F8B7F8093000E8EEC40
:102FE00094E0CCCF60E086ED94E00C94C215823082
:102FF000C9F51092F40D88EE9EE00E9483118CEECC
:103000009FE00E94251286EF9EE00E94190E80E349
:1030100095E7A0E0B0E08093E90D9093EA0DA093CE
:10302000EB0DB093EC0D8093ED0D9093EE0DA0930E
:10303000EF0DB093F00D87EF97E19093F30D809330
:10304000F20D81E08093F10D8091F40D81608D7F10
:103050008B7F8093F40D8EE00E94AA0E85EE94E0A3
:103060000C94D31360E08DEE94E00C94C215109292
:10307000D00D8091020D9091030D009769F0029799
:10308000D9F48BE00E9444141092030D1092020DAB
:103090008CEF94E00C94D3138091050D81110CC03A
:1030A00086E00E94441481E090E09093030D8093A9
:1030B000020D83E295E0EECF08951092DC0D809131
:1030C000020D9091030D8130910521F070F002976F
:1030D000D1F008958BE00E9444141092030D1092D9
:1030E000020D87E495E00C94D31384E00E9444140D
:1030F00082E090E09093030D8093020D10926C0E8D
:1031000089E695E0F0CF10926C0E0895CF9390E091
:10311000009781F5C1E0C093C60E61E08091C70EB3
:103120000E948D0484EF91E0A0E0B0E08093A90EAE
:103130009093AA0EA093AB0EB093AC0E8093AD0EFD
:103140009093AE0EA093AF0EB093B00E86E898E1C8
:103150009093B30E8093B20EC093B10E8091B40ED3
:1031600081608D7F8B7F8093B40E8DE895E0CF9149
:103170000C94D313019701F58EEA95E00E94D313C6
:103180008CEE9FE00E94CE118CED8093F00F809129
:10319000F10F882389F08091F20F882341F080910C
:1031A000EE0F9091EF0F6CEDCF910C94B70C8091D6
:1031B000EC0F9091ED0FF7CFCF91089590E000972D
:1031C00049F586EC9EE00E94A40E84EF91E0A0E019
:1031D000B0E080939D0E90939E0EA0939F0EB093AF
:1031E000A00E8093A10E9093A20EA093A30EB09375
:1031F000A40E8EED98E19093A70E8093A60E81E029
:103200008093A50E8091A80E81608D7F8B7F809327
:10321000A80E0895019741F48CEE9FE00E94CE1114
:103220008DE793E00C94D31308950F931F93CF93DE
:10323000DF93CDB7DEB768970FB6F894DEBF0FBE49
:10324000CDBF90E0009709F062C08FEC95E00E943E
:10325000D3136091C60F7091C70F90E080E00E9479
:10326000E932AB01BC012AE030E08FEE95E00E942C
:1032700095128091C60F9091C70F8230910588F109
:103280000297C1F184EF91E0A0E0B0E08093910E4D
:103290009093920EA093930EB093940E8093950EFC
:1032A0009093960EA093970EB093980E85E199E1B6
:1032B00090939B0E80939A0E81E08093990E80915B
:1032C0009C0E81608D7F8B7F80939C0E68960FB6DD
:1032D000F894DEBF0FBECDBFDF91CF911F910F914C
:1032E000089581E096E00E94D3138AEC9EE00E944C
:1032F000A40EC8CF8BE296E00E94D31381E08093A6
:10330000CA0E61E08091CB0E0E948D04BBCF019765
:10331000E9F6EAE2FCE0DE0111968AEB9CE040A5CA
:1033200051A562A573A54D935D936D937D9378969A
:103330008E179F07A1F78AE496E00E94D31360914D
:10334000C60F7091C70F90E080E00E94E932AB0198
:10335000BC012AE030E08AE696E00E949512809156
:10336000C60F9091C70F81309105D9F1029709F4EA
:1033700064C08091280F882389F02AE030E040E083
:1033800050E060E371E488EB92E00E9495128FE1D7
:103390009FE00E94DE098DE08093C30E8091740F40
:1033A0008823E9F12AE030E040E050E060E371E496
:1033B0008EEA96E00E9495128BE19FE00E949E0E9D
:1033C0008DE19FE00E949E0E8DEF9EE00E94831192
:1033D00084E09FE00E9483118BE69FE00E94DE095B
:1033E0001EC069817A818B819C810E94BA3281E002
:1033F0008093280F862F90E090932A0F8093290FB7
:103400008FE19FE00E94FF098EE796E00E94D313B0
:1034100089E896E00E94D31385E10E94AA0E84EE0B
:103420009FE068960FB6F894DEBF0FBECDBFDF9168
:10343000CF911F910F910C94CE118DEF9EE00E94C1
:10344000190E84E09FE00E94190E01E000931C0F0A
:1034500061E080911B0F0E948D0400931E0F61E0BC
:1034600080911D0F0E948D0469817A818B819C81DE
:103470000E94BA32162F70E090E080E00E94E9329C
:10348000AB01BC012AE030E083E996E00E9495128E
:103490000093740F812F90E09093760F8093750FB7
:1034A000612F8BE69FE00E94FF098EE796E00E9465
:1034B000D31386EA96E00E94D31387E1AECF8F92B2
:1034C0009F92AF92BF92CF92DF92EF92FF920F93B3
:1034D0001F93CF93DF938091C10E9091C20E0197FD
:1034E00061F580ED96E00E94D31381EF96E00E9493
:1034F000D313E091C30EE150EB30C8F4F0E088271D
:10350000EB57F54E8F4F0C94B331901AF11AFF1A06
:10351000041B971A041B0D1B3D1B6E1B7E1BB21B4D
:103520008FEE9EE00E94190E87E00E94AA0E109274
:10353000C20E1092C10E0E9407140E94820C90913C
:10354000270A80FB92F99093270A85E40E9487035B
:1035500021E0892B09F420E08091270A20FB83F9E0
:103560008093270A8091DE0C9091DF0C009741F048
:10357000C091C30E029709F0FAC08C2F0E94691700
:103580008091260A9091270AA091280AB091290AD1
:103590004091B1095091B2096091B3097091B40999
:1035A00084179507A607B70759F021E02093B009C3
:1035B0008093B1099093B209A093B309B093B40971
:1035C00060E08FE59AE1DF91CF911F910F91FF901D
:1035D000EF90DF90CF90BF90AF909F908F900C9422
:1035E000DF028091120F882321F082E19FE00E9488
:1035F00083118BE09FE00E94190E89E096CF109214
:10360000C70F1092C60F93CF1092C70F1092C60F1C
:103610000E94DB130E947D158ACF87E097E00E940D
:10362000D3138CEE9FE00E94251284EF91E0A0E07E
:10363000B0E08093A90E9093AA0EA093AB0EB09326
:10364000AC0E8093AD0E9093AE0EA093AF0EB093E0
:10365000B00E86E898E19093B30E8093B20E10926C
:10366000B10E8091B40E81608D7F8B7F8093B40EFC
:1036700088E297E00E94D3135ACF88EE9EE00E9422
:10368000190E80E69AEEA0E0B0E08093010E9093D0
:10369000020EA093030EB093040E8093050E909338
:1036A000060EA093070EB093080E87E296E1909362
:1036B0000B0E80930A0E1092090E80910C0E816001
:1036C0008D7F8B7F80930C0E8AE497E00E94D3134A
:1036D0008CE597E00E94D31383E127CF0E94161553
:1036E00086EF9EE00E94190E8BE00E94AA0E87E6EC
:1036F00097E00E94D31388E797E0BCCF0E9416158D
:1037000082E19FE00E94190E8FE00E94AA0E80E4E1
:103710009CE9A0E0B0E08093F50D9093F60DA093A6
:10372000F70DB093F80D8093F90D9093FA0DA093D7
:10373000FB0DB093FC0D84E897E19093FF0D80930F
:10374000FE0D82E08093FD0D8091000E81608D7FE3
:103750008B7F8093000E83E897E00E94D31383E968
:1037600097E088CF1092C70F1092C60F53CF909159
:10377000050D992339F180916C0E80FD23C082FDE7
:1037800021C040E355E760E070E04093610E509344
:10379000620E6093630E7093640E4093650E5093B7
:1037A000660E6093670E7093680E22E236E13093E6
:1037B0006B0E20936A0E1092690E81608D7F8B7F55
:1037C00080936C0E8CEF8C0F833028F0CB3019F087
:1037D000992309F4AEC08091020D9091030D0397D7
:1037E00009F4A7C0D0911A0FC63009F4B9C02091CE
:1037F000960C3091970C4091980C5091990C6091D7
:10380000AE0C7091AF0C8091B00C9091B10C0E94F5
:103810003C3287FFA5C0D11137C081E080931A0FD9
:1038200061E08091190F0E948D0488EC9EE00E9457
:10383000A40E8DE593E00E94D3138CEE9FE00E94CE
:10384000251284EF91E0A0E0B0E080939D0E90936C
:103850009E0EA0939F0EB093A00E8093A10E909306
:10386000A20EA093A30EB093A40E8EED98E19093B8
:10387000A70E8093A60E1092A50E8091A80E8160CF
:103880008D7F8B7F8093A80EC0904E0CD0904F0CF4
:10389000E090500CF090510C8090520C9090530C92
:1038A000A090540CB090550C20E030E040E85FE36D
:1038B000C501B4010E94D031A70196010E943C329B
:1038C00018160CF45DC01092D00DD091DC0DD0FD17
:1038D00030C0D2FD2EC00091020D1091030DF801F1
:1038E000EE0FFF1FEE0FFF1FEE50F34F608171814F
:1038F000828193810E94BA326093D10D7093D20D70
:103900008093D30D9093D40D6093D50D7093D60D05
:103910008093D70D9093D80D8DE598E19093DB0DB2
:103920008093DA0D0093D90DD160DD7FDB7FD093DA
:10393000DC0DC150CB3008F023CEEC2FF0E088270F
:10394000EB55F34E8F4F0C94B331081D141D1E1D03
:103950008C1D8C1D8F1D921DF81D501EC01A8F1DB1
:10396000DD2309F491CF89E19FE00E949E0E81E062
:103970008093C80E61E08091C90E0E948D0484CFAF
:103980001092DC0D20E030E040E85FE3C501B401B7
:103990000E94CF31A70196010E949B3387FD35C05D
:1039A000D091D00DD0FDC5CFD2FDC3CF0091020D77
:1039B0001091030DF801EE0FFF1FEE0FFF1FEE50E9
:1039C000F34F60817181828193810E94BA3260934A
:1039D000C50D7093C60D8093C70D9093C80D60936D
:1039E000C90D7093CA0D8093CB0D9093CC0D87E3D6
:1039F00098E19093CF0D8093CE0D0093CD0DD160C3
:103A0000DD7FDB7FD093D00D94CF1092D00D91CF7E
:103A100080E20E948703892B09F0B2CD60E08EE935
:103A200097E00E94C215ACCD84E40E948703892BE5
:103A300009F0A6CD60E08CEA97E0F3CF0E94820CFB
:103A40009091260A882339F091609093260A60E0CD
:103A50008AEB97E0E6CF9E7F9093260A80912A0C0E
:103A600090912B0C029709F48BCD20912E0C309164
:103A70002F0C8091300C9091310C28173907D8F118
:103A800081E090E090932B0C80932A0C80912A0C7B
:103A900090912B0C0197A1F58091260A8D7F809340
:103AA000260A8091880D80FD6BCD82FD69CD409105
:103AB000E60C5091E70C70E060E040937D0D509370
:103AC0007E0D60937F0D7093800D4093810D509318
:103AD000820D6093830D7093840D2CE236E1309358
:103AE000870D2093860D1092850D81608D7F8B7FD1
:103AF0008093880D45CD10922B0C10922A0CC6CFC6
:103B00008091260A81FD3CCD82608093260A80EE5A
:103B100097E00E94D31334CD0E94DD1631CD0E9470
:103B200040162ECD0E94820C882331F08091270A06
:103B300084608093270A24CD8091320C9091330CBD
:103B4000029709F41DCD2091360C3091370C8091ED
:103B5000380C9091390C28173907C8F181E090E0B2
:103B60009093330C8093320C8091320C9091330CF3
:103B7000019791F58091260A877F8093260A80918C
:103B8000940D80FDFDCC82FDFBCC48EE53E060E05F
:103B900070E04093890D50938A0D60938B0D709364
:103BA0008C0D40938D0D50938E0D60938F0D7093FF
:103BB000900D22E039E03093930D2093920D1092F6
:103BC000910D81608D7F8B7F8093940DD9CC109265
:103BD000330C1092320CC8CF1092940D8091260AAB
:103BE00083FDCECC88608093260A84EF97E091CF46
:103BF00080E20E948703892B59F460E088E098E016
:103C00000E94C2158091260A80688093260AB8CC4B
:103C100080913F0C0E94F7049093410C8093400CDC
:103C20002091420C3091430C2817390778F5809188
:103C3000260A8B7F8093260A8091A00D80FDA0CC60
:103C400082FD9ECC4091EA0C5091EB0C70E060E05C
:103C50004093950D5093960D6093970D7093980D2A
:103C60004093990D50939A0D60939B0D70939C0D0A
:103C700026E336E130939F0D20939E0D10929D0D0B
:103C800081608D7F8B7F8093A00D7ACC8091260AF6
:103C900082FD76CC84608093260A8DE298E039CF4D
:103CA0000E94820C882309F46BCC8091F40D80FD76
:103CB00067CC82FD65CC86EF9EE00E94831188EE82
:103CC0009EE00E94190E8CEE9FE00E94CE118DE0C6
:103CD0000E94AA0E80E395E7A0E0B0E08093E90D92
:103CE0009093EA0DA093EB0DB093EC0D8093ED0D46
:103CF0009093EE0DA093EF0DB093F00D87EF97E149
:103D00009093F30D8093F20D82E08093F10D8091FA
:103D1000F40D81608D7F8B7F8093F40D85EC94E0B2
:103D2000F8CE8091040D81508093040D811118C04C
:103D300085E08093040D8091E10C28E1829FC00111
:103D40001124825B934F0E947C0F9091E10C892F8C
:103D50008F5FF1F39FEF8630D0F78093E10C0895E9
:103D60008EE49CE00E947C0F8091610C882369F0B6
:103D700083E498E00E94D3138091270A80648093A3
:103D8000270A61E08DE10C948D048091270A8F7BD6
:103D90008093270A0895FF920F931F93CF93DF9389
:103DA000CDB7DEB7C456D1090FB6F894DEBF0FBE4B
:103DB000CDBFFC01F1804F2D50E08E010F5F1F4FF2
:103DC000BC01C8010E9412348091C6008091C600D7
:103DD0008091C1008F778093C1008091C10088607D
:103DE0008093C100F8018E2F801B8F1588F481917C
:103DF0008093C6008091C00086FFFCCF8091C000F8
:103E000080648093C0008091C6008091C600EBCF93
:103E1000CC59DF4F0FB6F894DEBF0FBECDBFDF9198
:103E2000CF911F910F91FF900C94AE094F925F922A
:103E30006F927F928F929F92AF92BF92CF92DF92BA
:103E4000EF92FF920F931F93CF93DF93CDB7DEB71F
:103E5000CF58D1400FB6F894DEBF0FBECDBF84E679
:103E6000E5EBF9E0DE01AB59BF4F01900D928A9569
:103E7000E1F7A896EFADA897E550E33308F08CC0C2
:103E8000F0E08827E95BF04E8F4F0C94B33190241B
:103E9000CC1F6B20CC1FCC1FCC1FCC1FCC1FCC1F2A
:103EA000CC1FCC1FCC1FCC1FF81F1A20572061201D
:103EB0007420E41FE6202A217A1FBE21CC1FCC1FCC
:103EC000F3214B229322AF1FC222EF226523152339
:103ED0003524CC1FCC1FCC1F6824CC1FCC1FCC1F7B
:103EE000CC1FCC1FCC1F9C24AC24B82414254C25FB
:103EF000C6268920A9962FADA997213009F4D9C1EA
:103F0000AB968FADAB97813009F4E1C1AD968FAD23
:103F1000AD97813009F4DEC180E08093E80F90E036
:103F2000E091E40FF091E50F96838583E091E60F31
:103F3000F091E70F96838583243009F4CEC1AB96C8
:103F40008FADAB97843009F416C2AD968FADAD97A7
:103F5000E2E0F0E0843009F4C2C180E0CBC1C0905F
:103F6000260AD090270AE090280AF090290A61E2F8
:103F7000CE0101960E944209CF82D886E986FA8650
:103F80008BE08A83CE0101960E942B09CE01019617
:103F90000E94CB1E1092B009C157DE4F0FB6F894A5
:103FA000DEBF0FBECDBFDF91CF911F910F91FF906C
:103FB000EF90DF90CF90BF90AF909F908F907F90C9
:103FC0006F905F904F9008951092260A1092270AE2
:103FD0001092280A1092290A61E2CE0101960E94ED
:103FE00042091F82188619861A868BE08A83F6C1D9
:103FF000CE0187539F4F0E94B00388E0FE01E75334
:10400000FF4FDE01AE57BE4F01900D928A95E1F74A
:1040100062E1CE0101960E9442098FE08A8388E026
:10402000FE01EE57FE4FDE01179601900D928A9524
:10403000E1F7D4C11092260A1092270A1092280A9A
:104040001092290AA9968FADA9971092C20E1092CC
:10405000C10E8093C30E8B3011F08730A1F4AA9665
:104060006FADAA97669563706093F40F70E090E06F
:1040700080E00E94E932AB01BC0120E130E08CE637
:1040800098E00E949512AA968FADAA9780FF0FC064
:10409000A9968FADA9978B3051F48091C30E0E94E1
:1040A0006917882321F00E9460020E945513109125
:1040B000C30E64E1CE0101960E9442091F8388E08D
:1040C00095CF8091C30E0E946917882321F00E942A
:1040D00060020E945513CE0101960E94A309CE01F1
:1040E00001960E94CB1E58CF8091C30E8B3019F0E1
:1040F0008450833040F41092260A1092270A1092BE
:10410000280A1092290A60E08EE798E00E94C21502
:10411000E2CF8BE898E00E94D31381E08093050DF5
:1041200081E090E09093DF0C8093DE0C1092B70F4B
:104130001092560F1092C20E1092C10E10929C0E49
:104140001092A80E1092B40E88EE9EE00E94831189
:104150008FEE9EE00E94831186EF9EE00E94831105
:1041600086EC9EE00E94A40E88EC9EE00E94A40EC5
:104170008AEC9EE00E94A40E8BE19FE00E949E0EBE
:104180008DE19FE00E949E0E8FE19FE00E94B409A6
:104190008091E00C81608B7F8093E00C80E090E068
:1041A000A0ECB1E48093520C9093530CA093540C68
:1041B000B093550C25E030E0AC01BD0185E998E0F5
:1041C0000E9495128AE10E94AA0E85CFE5E6F0E0F2
:1041D000EC0FFD1F3396AAE2BCE085E690E08C0F61
:1041E0009D1F4B96419151916191719198964D937C
:1041F0005D936D937C939B9758968E179F0791F7CD
:1042000088E1E5E6F0E0EC0FFD1F3396DE01A750F4
:10421000BF4F01900D928A95E1F768E1CE010196BA
:104220000E9442098FE18A8388E1FE01E750FF4F37
:10423000DE01179601900D928A95E1F7CE01019665
:104240000E942B09CE0101960E94CB1E88E10E949C
:104250000A09A2CEAAE2BCE0CE0187539F4F2AEB07
:104260003CE0182F092F98964D915D916D917C91AE
:104270009B97FC014193519361937193CF015896A1
:104280002A173B0781F788E1E12FF02FDE01AF51BC
:10429000BF4F01900D928A95E1F769E1CE01019639
:1042A0000E9442098FE18A8388E1FE01EF51FF4FAE
:1042B000BACEF0E0E0E0EE0FFF1F81E090E08C0F5F
:1042C0009D1FE80FF91FE959FF4F818126CEE1E0DC
:1042D000F0E0F1CFE2E0F0E0EECFF0E0E0E0EE0F72
:1042E000FF1F81E090E08C0F9D1FE80FF91FE95937
:1042F000FF4F81818093F00F90E0E091EC0FF091FF
:10430000ED0F96838583E091EE0FF091EF0F96838A
:104310008583AE968FADAE97AA969FADAA979093E0
:10432000D70F8093D80F86E0E5E6F0E0EC0FFD1F95
:104330003396DE01A657BE4F01900D928A95E1F7A4
:104340006AE1CE0101960E9442098DE08A8386E0EF
:10435000FE01E657FE4FDE01179601900D928A95F9
:10436000E1F7CE0101960E942B09CE0101960E9431
:10437000CB1E8AE16CCFE1E0F0E0B1CF1091D70F16
:104380000091D80F612F70E090E080E00E94E93248
:10439000AB01BC0120E130E08EE998E00E9495126B
:1043A000602F70E090E080E00E94E932AB01BC0138
:1043B00020E130E084EC98E00E9495126BE1CE01A0
:1043C00001960E9442098DE08A8381E08F831887DD
:1043D00082E089871A8784E08B870C87CE0101965B
:1043E0000E942B097CCEAA968EAD9FADAA97909382
:1043F000310C8093300CAC968EAD9FADAC97909302
:10440000390C8093380CAE968EAD9FADAE979093DD
:104410003E0C80933D0CE0968EAD9FADE09790935F
:10442000430C8093420CE2968EAD9FADE297909341
:10443000480C8093470CE4968EAD9FADE497909323
:104440004D0C80934C0C8EE0E5E6F0E0EC0FFD1F88
:104450003396DE01A35BBE4F01900D928A95E1F782
:104460006EE1CE0101960E94420985E18A838EE0C9
:10447000FE01E35BFE4FDE01179601900D928A95D7
:10448000E1F7CE0101960E942B09CE0101960E9410
:10449000CB1E8EE1DCCEE091380CF091390C6091AE
:1044A0003D0C70913E0C4091420C5091430C209178
:1044B000470C3091480C80914C0C90914D0CA09180
:1044C000300CB091310CC15CDE4FB983A883CF535F
:1044D000D140CF5BDE4FF983E883C154D140CD5B3F
:1044E000DE4F79836883C354D140CB5BDE4F598361
:1044F0004883C554D140C95BDE4F39832883C754F4
:10450000D140C75BDE4F99838883C954D1406FE1A6
:10451000CE0101960E94420985E18A838EE0FE0168
:10452000E15CFE4F80CDAAE2BCE0CE018F519F4FEF
:104530002AEB3CE0182F092F94964D915D916D91D7
:104540007C919797FC014193519361937193CF01B3
:1045500058962A173B0781F788E1E12FF02FDE01FB
:10456000A753BF4F01900D928A95E1F760E2CE010B
:1045700001960E9442098FE18A8388E1FE01E75398
:10458000FF4F51CD05E610E00C0F1D1F0D5F1F4FB3
:10459000C8010E94870280E1F801DE01AF5DBE4FD5
:1045A00001900D928A95E1F762E2CE0101960E9498
:1045B000420980E1FE01EF5DFE4FDE01179601909A
:1045C0000D928A95E1F787E18A83CE0101960E94D8
:1045D0002B09CE0101960E94CB1E82E238CE80E1EB
:1045E000E2EEFCE0DE01A753BF4F01900D928A95E9
:1045F000E1F780E1FE01E753FF4FDE01AF5EBE4F02
:1046000001900D928A95E1F763E2CE0101960E9436
:10461000420980E1FE01EF5EFE4FDE011796019038
:104620000D928A95E1F787E1E1CC80902E0C909075
:104630002F0CA090360CB090370C80913A0C0E9451
:10464000F7046C0180913F0C0E94F7047C0180917B
:10465000440C0E94F7048C018091490C0E94F704DD
:10466000CF5CDE4F99828882C153D140CD5CDE4F52
:10467000B982A882C353D140CB5CDE4FD982C882B5
:10468000C553D140C95CDE4FF982E882C753D1409F
:10469000C75CDE4F19830883C953D140C55CDE4F28
:1046A00099838883CB53D14065E2CE0101960E9465
:1046B00042098EE0FE01EF5CFE4FDE01179601908D
:1046C0000D928A95E1F785E191CCA9968FADA997D6
:1046D000982F9F77923009F479C070F59923D1F122
:1046E000913009F457C08091CC0E9091DA0E892B4D
:1046F0009091D30E892B9091E10E892B8093B70F67
:10470000CE0187539F4F0E94B00388E0FE01E7531C
:10471000FF4FDE01A658BE4F01900D928A95E1F73A
:1047200064E2CE0101960E9442098FE08A8388E00C
:10473000FE01E658FE4F77CC933009F473C09430F5
:1047400091F687FF8BC086EF9EE00E9483118EE872
:1047500099E008C087FF09C08CEC9EE00E9483119D
:104760008AEE98E00E94D313BECF8CEC9EE00E94AC
:10477000190E89EF98E00E94D313BE016F5F7F4F3F
:104780008CEC9EE00E94AC0C6A818CEC9EE00E9456
:10479000B70CA9CF87FF07C083ED9EE00E9483116D
:1047A00087E099E0DFCF83ED9EE00E94190E89E15A
:1047B00099E00E94D313BE016F5F7F4F83ED9EE0AF
:1047C0000E94AC0C6A8183ED9EE0E1CF87FF07C0B9
:1047D0008AED9EE00E9483118AE299E0C3CF8AEDC0
:1047E0009EE00E94190E8AE399E00E94D313BE0155
:1047F0006F5F7F4F8AED9EE00E94AC0C6A818AED6C
:104800009EE00E94B70C6A8170E090E080E00E9418
:10481000E932AB01BC012AE030E089E499E00E9472
:10482000951261CF87FF07C081EE9EE00E94831141
:1048300089E699E097CF81EE9EE00E94190E8CE701
:1048400099E00E94D313BE016F5F7F4F81EE9EE01F
:104850000E94AC0C6A8181EE9EE099CF86EF9EE0CB
:104860000E94190E8AE999E07DCF81E20E948703B8
:104870004C0180E20E9487035C01F090160D0091CC
:10488000170D85E40E9487036C0184E40E9487036E
:104890009C0191E0892809F090E010E090FB10F96C
:1048A00091E0AB2809F090E090FB11F991E0CD2860
:1048B00009F090E090FB12F991E0232B09F090E0D1
:1048C00090FB13F9F0FA14F900FB15F966E2F2CB4C
:1048D0008BE0E5E6F0E0EC0FFD1F3396DE01A95911
:1048E000BE4F01900D928A95E1F76AE2CE010196E2
:1048F0000E9442098BE0FE01E959FE4FDE01179646
:1049000001900D928A95E1F782E18A83CE010196AA
:104910000E942B09CE0101960E94CB1E8AE297CC01
:104920001092260A1092270A1092280A1092290A39
:1049300061E085EA99E0EACB61E3CE0101960E944D
:1049400042098BE08A8385E090E0A4E0B1E08F83A8
:104950009887A987BA8742CD62E3CE0101960E946B
:1049600042098BE08A838DE095E3A0E0B0E0EFCFD1
:10497000E4966CAD7DAD8EAD9FADE4970E94E932BB
:104980006B017C01E0966CAD7DAD8EAD9FADE09787
:104990000E94E9324B015C01AC966CAD7DAD8EADF1
:1049A0009FADAC970E94E9326093F20C7093F30CC8
:1049B0008093F40C9093F50C8092F60C9092F70C87
:1049C000A092F80CB092F90CC092FA0CD092FB0CA9
:1049D000E092FC0CF092FD0C8CE0E5E6F0E0EC0FD0
:1049E000FD1F3396DE01A55ABE4F01900D928A95A8
:1049F000E1F763E3CE0101960E94420983E18A83D5
:104A00008CE0FE01E55AFE4FDE01179601900D92F3
:104A10008A95E1F7CE0101960E942B09CE010196FD
:104A20000E94CB1E83E313CC6091FA0C7091FB0CB7
:104A30008091FC0C9091FD0C0E94BA326B017C01BC
:104A40006091F60C7091F70C8091F80C9091F90C34
:104A50000E94BA324B015C016091F20C7091F30C30
:104A60008091F40C9091F50C0E94BA322B013C011C
:104A700064E3CE0101960E94420983E18A834F825A
:104A8000588669867A868B869C86AD86BE86CF865A
:104A9000D88AE98AFA8AA2CCA9961FADA997AA96C4
:104AA0006FADAA97AB965FADAB97AC964FADAC9799
:104AB000AD963FADAD97AE962FADAE97AF969FAD8D
:104AC000AF97E0968FADE09719836A835B834C8341
:104AD0003D832E839F8388878CEC9EE015FF48C121
:104AE0000E94190EBE0167537F4F8AED9EE00E941F
:104AF000AC0CC653DF4F6881CA5CD0408AED9EE0A3
:104B00000E94B70C83ED9EE016FF35C10E94190E7E
:104B1000BE0167537F4F83ED9EE00E94AC0CC653ED
:104B2000DF4F6881CA5CD04083ED9EE00E94B70CE5
:104B30008AED9EE017FF22C10E94190EBE01675345
:104B40007F4F8AED9EE00E94AC0CC653DF4F688118
:104B5000CA5CD0408AED9EE00E94B70C8A8180FF3B
:104B600010C181EE9EE00E94190EBE0167537F4F77
:104B700081EE9EE00E94AC0CC653DF4F6881CA5C98
:104B8000D04081EE9EE00E94B70C6981617085E3A0
:104B90000E948D046A8163FB662760F987E10E94A9
:104BA0008D046A8166FB662760F986E10E948D04A8
:104BB000698162FB662760F98FE10E948D046A813A
:104BC00067FB662760F981E10E948D046981669523
:104BD00061708BE10E948D046A8162FB662760F937
:104BE00088E10E948D046A816695617089E10E9466
:104BF0008D046A816295617080E10E948D046A81F2
:104C000065FB662760F98FE00E948D046B816170FF
:104C10008EE00E948D046B81669561708DE00E942C
:104C20008D046B8162FB662760F98CE00E948D0425
:104C30006B8167FB662760F985E20E948D046C81B9
:104C4000617084E20E948D046C816695617087E2D8
:104C50000E948D046C8162FB662760F986E20E94E7
:104C60008D046C8163FB662760F989E20E948D04E4
:104C70006C816295617088E20E948D046C8165FB95
:104C8000662760F98BE20E948D046C8166FB6627C3
:104C900060F98AE20E948D046B8163FB662760F9EC
:104CA0008CE20E948D046B81629561708EE20E949D
:104CB0008D046B8165FB662760F98DE20E948D048F
:104CC0006B8166FB662760F98FE20E948D04698123
:104CD00063FB662760F98DE10E948D04698162950E
:104CE00061708EE10E948D04C753DF4F1882C95C4A
:104CF000D040C653DF4F1882CA5CD040C553DF4F47
:104D00001882CB5CD040C453DF4F1882CC5CD040BB
:104D1000C353DF4F1882CD5CD040C253DF4F18829F
:104D2000CE5CD040C153DF4F1882CF5CD040C0531F
:104D3000DF4F1882C05DD040CE0187539F4F0E9445
:104D4000B00388E0FE01E753FF4FDE01AE58BE4FCF
:104D500001900D928A95E1F765E3CE0101960E94DC
:104D600042098FE08A8388E0FE01EE58FE4F5BC95E
:104D70000E948311C7CE0E948311DACE0E94831154
:104D8000EDCE81EE9EE00E948311FFCECE01019612
:104D90000E94A309CE0101960E94CB1E10924C0DD9
:104DA0006BEF7BE08EE49CE00E94941066ED7BE06C
:104DB00086E69CE00E94941061EB7BE08EE79CE02D
:104DC0000E9494106CE87BE086E99CE00E949410BD
:104DD00067E67BE08EEA9CE00E94941062E47BE050
:104DE00086EC9CE00E9494108091F00C9091F10C64
:104DF000B0E0A0E08093410D9093420DA093430D4D
:104E0000B093440D8093450D9093460DA093470DAC
:104E1000B093480D81E99EE190934B0D80934A0D2C
:104E20001092490D80914C0D83608B7F80934C0DC7
:104E3000B3C80C94161FE5EBF9E084E6DF011D9280
:104E40008A95E9F71092230A0C94AE091F920F92EB
:104E50000FB60F9211242F933F938F939F93AF938D
:104E6000BF9380911B0A90911C0AA0911D0AB091DA
:104E70001E0A30911A0A23E0230F2D3758F50196A8
:104E8000A11DB11D20931A0A80931B0A90931C0A3E
:104E9000A0931D0AB0931E0A80911F0A9091200AC8
:104EA000A091210AB091220A0196A11DB11D809303
:104EB0001F0A9093200AA093210AB093220ABF915F
:104EC000AF919F918F913F912F910F900FBE0F90B7
:104ED0001F90189526E8230F0296A11DB11DD2CF71
:104EE0001F920F920FB60F9211240BB60F922F93B1
:104EF0003F934F935F936F937F938F939F93AF9362
:104F0000BF93EF93FF93E0911E02F0911F0219955A
:104F1000FF91EF91BF91AF919F918F917F916F9191
:104F20005F914F913F912F910F900BBE0F900FBE4D
:104F30000F901F9018951F920F920FB60F92112489
:104F40000BB60F922F933F934F935F936F937F9383
:104F50008F939F93AF93BF93EF93FF93E0911C02C6
:104F6000F0911D021995FF91EF91BF91AF919F9123
:104F70008F917F916F915F914F913F912F910F9002
:104F80000BBE0F900FBE0F901F9018951F920F929F
:104F90000FB60F9211240BB60F922F933F934F939E
:104FA0005F936F937F938F939F93AF93BF93EF9391
:104FB000FF93E0911202F09113021995FF91EF9186
:104FC000BF91AF919F918F917F916F915F914F9121
:104FD0003F912F910F900BBE0F900FBE0F901F901F
:104FE00018951F920F920FB60F9211240BB60F92C5
:104FF0002F933F934F935F936F937F938F939F93E1
:10500000AF93BF93EF93FF93E0911002F0911102E1
:105010001995FF91EF91BF91AF919F918F917F91E2
:105020006F915F914F913F912F910F900BBE0F9019
:105030000FBE0F901F9018951F920F920FB60F92F0
:1050400011240BB60F922F933F934F935F936F935F
:105050007F938F939F93AF93BF93EF93FF93E091D1
:105060001A02F0911B021995FF91EF91BF91AF9138
:105070009F918F917F916F915F914F913F912F9170
:105080000F900BBE0F900FBE0F901F9018951F92A0
:105090000F920FB60F9211240BB60F922F933F93DE
:1050A0004F935F936F937F938F939F93AF93BF9330
:1050B000EF93FF93E0911802F09119021995FF9177
:1050C000EF91BF91AF919F918F917F916F915F9180
:1050D0004F913F912F910F900BBE0F900FBE0F90ED
:1050E0001F9018951F920F920FB60F9211240BB6B6
:1050F0000F922F933F934F935F936F937F938F9371
:105100009F93AF93BF93EF93FF93E0911602F091BB
:1051100017021995FF91EF91BF91AF919F918F91D8
:105120007F916F915F914F913F912F910F900BBEA7
:105130000F900FBE0F901F9018951F920F920FB6F1
:105140000F9211240BB60F922F933F934F935F93BF
:105150006F937F938F939F93AF93BF93EF93FF933F
:10516000E0911402F09115021995FF91EF91BF9112
:10517000AF919F918F917F916F915F914F913F91EF
:105180002F910F900BBE0F900FBE0F901F90189590
:105190001F920F920FB60F9211240BB60F922F93FE
:1051A0003F934F935F936F937F938F939F93AF93AF
:1051B000BF93EF93FF938AE29AE00E94F105FF917B
:1051C000EF91BF91AF919F918F917F916F915F917F
:1051D0004F913F912F910F900BBE0F900FBE0F90EC
:1051E0001F9018951F920F920FB60F9211240BB6B5
:1051F0000F922F938F939F93EF93FF93E0913A0A2F
:10520000F0913B0A8081E091400AF091410A82FDD1
:105210001DC090818091430A8F5F8F732091440A53
:10522000821741F0E091430AF0E0E65DF54F958F7B
:105230008093430AFF91EF919F918F912F910F904F
:105240000BBE0F900FBE0F901F9018958081F2CF6C
:105250001F920F920FB60F9211240BB60F922F933D
:105260003F934F935F936F937F938F939F93AF93EE
:10527000BF93CF93EF93FF938091C1008068809399
:10528000C1008091C10088608093C100C091C600B8
:105290008091580D8E7F8093580D8091230A84361B
:1052A00058F0E5EBF9E084E6DF011D928A95E9F715
:1052B0001092230A0E94AE09E091230AE33020F005
:1052C0008091B6098093250A81E08E0F8093230A8E
:1052D000F0E0EB54F64FC0839091250A89136BC020
:1052E0009091B509913009F05AC040EA5FE060E062
:1052F00070E04093590D50935A0D60935B0D70937D
:105300005C0D40935D0D50935E0D60935F0D709347
:10531000600D2BE137E23093630D2093620D109204
:10532000610D9091640D93609B7F9093640D50E0AC
:1053300040E090E0BC0161507109252F30E0261754
:1053400037073CF42B54364FF9012081420F5F5F41
:10535000F4CF8C54964FDC018C9160E048131CC054
:1053600089E197E20E94DF021092230A0E94AE09AF
:10537000FF91EF91CF91BF91AF919F918F917F91CD
:105380006F915F914F913F912F910F900BBE0F90B6
:105390000FBE0F901F90189585E899E0E3CFE5EBDD
:1053A000F9E084E6DF011D928A95E9F71092230A5D
:1053B0000E94AE09D9CF8AE090E0A0E0B0E08093EF
:1053C0004D0D90934E0DA0934F0DB093500D8093C3
:1053D000510D9093520DA093530DB093540D8BE14A
:1053E00097E29093570D8093560D1092550D809132
:1053F000580D81608D7F8B7F8093580DB7CF1F92A2
:105400000F920FB60F9211240BB60F92FF920F93CB
:105410001F932F933F934F935F936F937F938F933C
:105420009F93AF93BF93CF93DF93EF93FF93C1E429
:10543000DDE010E000E08CE0F82EF09EF001F19E3F
:10544000F00D1124E45BF24F808180FF23C08C813A
:105450009D81AE81BF810197A109B1098C839D8394
:10546000AE83BF83892B8A2B8B2BA1F48081846030
:10547000808381FF2DC088819981AA81BB818C8323
:105480009D83AE83BF8389859A85009719F06885CF
:105490000E94DF020F5F1F4F2C960032110569F644
:1054A000FF91EF91DF91CF91BF91AF919F918F913C
:1054B0007F916F915F914F913F912F911F910F912C
:1054C000FF900F900BBE0F900FBE0F901F9018957E
:1054D0008E7F8083D8CF1F920F920FB60F92112428
:1054E0000BB60F922F933F934F935F936F937F93DE
:1054F0008F939F93AF93BF93EF93FF93F0E0E0E020
:105500001995FF91EF91BF91AF919F918F917F91ED
:105510006F915F914F913F912F910F900BBE0F9024
:105520000FBE0F901F9018951F920F920FB60F92FB
:1055300011240BB60F922F933F934F935F936F936A
:105540007F938F939F93AF93BF93EF93FF93F0E07D
:10555000E0E01995FF91EF91BF91AF919F918F91ED
:105560007F916F915F914F913F912F910F900BBE63
:105570000F900FBE0F901F901895FC011782108698
:10558000108289E0838381E084838583868311820E
:10559000168A158A8FEF838B148A72876187089524
:1055A0001F93CF93DF93EC01162F60E0812F0E94B1
:1055B000BB04612F70E0FB01E458FC4FE491E883E9
:1055C000FB01EA5CFC4FE491F0E0EE0FFF1FE45EAC
:1055D000FC4F859194919A8389831B861D861C8636
:1055E0001A86198618861F821E821D821C821B82C3
:1055F000DF91CF911F910895CF93DF93EC01862F18
:1056000049836A832B831C8220E830E03E832D830C
:10561000411103C061E00E94BB04CE01DF91CF9134
:105620000C9483114F925F926F927F928F929F9210
:10563000AF92BF92CF92DF92EF92FF920F931F93A0
:10564000CF93DF93CDB7DEB72F970FB6F894DEBFB9
:105650000FBECDBF10922D0A10922C0A88EE93E057
:10566000A0E0B0E080932E0A90932F0AA093300A16
:10567000B093310A8AE392E090932B0A80932A0A2E
:1056800085ED90E09093370A8093360A84ED90E0A0
:105690009093390A8093380A80ED90E090933B0A0A
:1056A00080933A0A81ED90E090933D0A80933C0A02
:1056B00082ED90E090933F0A80933E0A86ED90E061
:1056C0009093410A8093400A1092430A1092440A30
:1056D0001092450A1092460AE1E4FDE081EC9EE05A
:1056E000108211821282138214821582168217820E
:1056F00010861286118613863C968E179F0781F7B7
:1057000010923F0B1092400B1092410BF894809135
:105710007A00806880937A007894F89480917A0077
:105720008E7F80937A0080917A00866080937A00E1
:105730007894F89480917C008F7780937C0080919E
:105740007C00806480937C0078946FE382E19CE02D
:105750000E94D02A62E17CE08BEF9BE00E94BD2A90
:105760006EE38DEE9BE00E94D02A6DEE7BE086ED2D
:105770009BE00E94BD2A61E488EC9BE00E94D02A55
:1057800068EC7BE081EB9BE00E94BD2A60E483EA49
:105790009BE00E94D02A63EA7BE08CE89BE00E94B9
:1057A000BD2A63E48EE79BE00E94D02A6EE77BE08F
:1057B00087E69BE00E94BD2A62E489E59BE00E94A7
:1057C000D02A69E57BE082E49BE00E94BD2A82E06A
:1057D00090E090932B0C80932A0C20E23CE03093D5
:1057E0002D0C20932C0C9093330C8093320C85E27B
:1057F0009CE09093350C8093340C88E380933A0CB2
:1058000010923C0C10923B0C84E190E090933E0C83
:1058100080933D0C2BE320933F0C1092410C10928F
:10582000400C9093430C8093420C2AE32093440C49
:105830001092460C1092450C9093480C8093470CA4
:105840002DE32093490C10924B0C10924A0C90932C
:105850004D0C80934C0CEEE4FCE08EED9CE023E0DC
:1058600030E0108211821282138214821582168215
:105870001782138A358B248B178A168A78968E178F
:105880009F0779F705E00093040D1092050D109223
:10589000060D1092070D1092090D1092080D10922E
:1058A0000E0D10920F0D1092110D1092100D1092FE
:1058B000160D1092170D1092180D8AE090E090933B
:1058C0000B0D80930A0D90930D0D80930C0D8FE0BE
:1058D00090E09093130D8093120D9093150D80938B
:1058E000140D80E18093E00C89E19DE090933A0DE6
:1058F0008093390D80E280933B0D10923C0D109205
:105900003D0D10923E0D1092400D10923F0D1092E1
:10591000C20E1092C10E1092C30E1092C50E1092BC
:10592000C40E85E38093C70E61E00E94BB0486EC41
:105930009EE00E94A40E8FE18093C90E61E00E9458
:10594000BB0488EC9EE00E94A40E8BE18093CB0EFA
:1059500061E00E94BB048AEC9EE00E94A40E11E06C
:105960001093CD0E8AE08093CE0E1093CF0E10923E
:10597000D00E80E8C82ED12CD092D20EC092D10E7B
:105980008CEC9EE00E9483111093D40E8BE08093E8
:10599000D50E82E08093D60E1092D70ED092D90EFB
:1059A000C092D80E83ED9EE00E9483111093DB0E0F
:1059B00098E0E92EE092DC0E24E0F22EF092DD0E6B
:1059C0001092DE0ED092E00EC092DF0E8AED9EE0C5
:1059D0000E9483111093E20E89E08093E30E0093FE
:1059E000E40E1092E50ED092E70EC092E60E81EE24
:1059F0009EE00E94831123E040E069E188EE9EE092
:105A00000E94FC2A26E040E068E18FEE9EE00E94C2
:105A1000FC2A27E040E067E186EF9EE00E94FC2A36
:105A200028E040E060E18DEF9EE00E94FC2A29E042
:105A300040E06FE084E09FE00E94FC2A2AE040E022
:105A400066E18BE09FE00E94FC2A2BE040E061E1F0
:105A500082E19FE00E94FC2A8EE08093190F109251
:105A60001A0F61E00E94BB0489E19FE00E949E0E34
:105A70008DE080931B0F10921C0F61E00E94BB040D
:105A80008BE19FE00E949E0E8CE080931D0F109290
:105A90001E0F61E00E94BB048DE19FE00E949E0EFC
:105AA0002CE432E03093200F20931F0F86E592E024
:105AB0009093220F8093210FF092230F8DEA9DE0A7
:105AC0009093250F8093240F81E595E19093270F04
:105AD0008093260F1092280F10922A0F1092290FF0
