:100000000C942F020C94CB270C94A0270C947527EA
:100010000C944A270C941F270C94F4260C94C926A0
:100020000C949E260C9460020C9460020C94600266
:100030000C9460020C9460020C9460020C946002B8
:100040000C9460020C9460020C9460020C946002A8
:100050000C9460020C9460020C9460020C94542680
:100060000C9460020C9456280C9460020C9460026C
:100070000C9499290C94C2290C9460020C9460028F
:100080000C9460020C9460020C9460020C94600268
:100090000C9460020C9460020C9460020C94600258
:1000A0000C9460020C9460020C9460020C94600248
:1000B0000C9460020C9460020C9460020C942D2944
:1000C0000C9460020C9460020C9460020C94202842
:1000D0000C94F6270C9460020C9460020C9460025D
:1000E0000C9460020C94F9200C9449260C94A422E0
:1000F0000C9420220C94B7160C948E1E0C94E623BC
:100100000C94DE0C0C94AF220C9492030C94991670
:100110000C9455090C947D1C0C94BA220C94FF216C
:100120000C9499220C94201F0C943B1D0C941D0ED2
:100130000C9485030C94F31B0C94A6030C9481225D
:100140000C94451A0C94FA0D0C94CC210C94D022EA
:100150000C948E220C9493060C94A90D0C94860D8D
:100160000C94EA220C94731E0C94B11E0C947D0D19
:100170000C942A200C94771C0C949C210C943A0922
:100180000C94CD0D0C9416170C94CA200C94FD05FC
:100190000C9494150C9479120C94B5170C94981E29
:1001A0000C94950D0C9453220C94A3100C94871A64
:1001B0000C94B90D0C946E150C943F1E0C94A41E57
:1001C0000C94AA030C94211A0C943A220C94F40572
:1001D0000C949F0D0C9498030C94401A0C940A22D2
:1001E0000C942B1E0C946C220C94F30B0C94262173
:1001F0000C948B0D0C9428180C947A240C94EC0518
:100200000C9488030C94FF1B0C94B10D0C94CB1A26
:100210000C9473030C9447260C94091C0C9415221F
:100220000C94B4030C94C30D0C9482200C94BE2344
:100230000C94FC050C94AE030C94B71E0C944E1A4F
:100240000C9428230C947D030C949F0C0C9479033C
:100250000C94DF190C9482090C94561A0C943906EC
:100260000C949E160C94E31C0C9468180C942B228E
:100270000C94F51F0C9481030C94EE190C94C3217B
:100280000C94040E0C94631F0C944C210C948E035C
:100290000C94DE250C94971A0C94552A0C94E316B2
:1002A0000C94AD190C947B1F0C94DF220C94422407
:1002B0000C94F5220C94010A0C94321A0C94A31697
:1002C0000C941E0F0C94C5220C94DA230C94AA1FD4
:1002D0000C94D70D0C945B060C94B3030C9447223A
:1002E0000C94F00D0C94B8030C94A0030C940E0E17
:1002F0000C94180E0C947A1C0C94F4210C94AD16EA
:100300000C944D060C942A060C94E0060C949C0365
:100310000C94511E0C94E60D0C94CA23005EBCE2B2
:10032000613FDD83C29C7E20A3FD1F41009D23BE53
:1003300046DB65F88C11AF32CA57E9740000210022
:10034000240027002A002D003000330001010000A6
:10035000040107010A0100002200250028002B00EB
:100360002E003100340002010000050108010B01DC
:10037000000020002300260029002C002F0032005E
:100380000001000003010601090105050505070537
:1003900008080808020202020A0A08080404040401
:1003A000010101010101010103030303030303032D
:1003B000040707070C0C0C0C0C0C0C0C02020202BC
:1003C00006060606060606060B0B0B0B0B0B0B0BA5
:1003D0000102102020080810204010204080020157
:1003E000020108040201010204081020408080403C
:1003F000201008040201800402018040201008043B
:1004000002010804020101020408102040800102D8
:1004100004081020408000000A0B02090C0D0E0891
:1004200007030401000000000000000000000000BD
:1004300000000000000000000000000000000000BC
:100440000000121110000000000000000000000079
:10045000000000000000000000000000552A1124E8
:100460001FBECFEFD1E2DEBFCDBF00E00CBF18E072
:10047000A0E0B2E0EAE8F5E600E00BBF02C00790BA
:100480000D92A433B107D9F72EE0A4E3B8E001C080
:100490001D92AA3FB207E1F712E0CFE2D2E000E0FE
:1004A00006C021970109802FFE010E945B30CE32E9
:1004B000D10780E00807A9F70E94E92D0C94C33208
:1004C0000C940000E9EAF8E0A089B18982E08C93FD
:1004D000A485B5851C92A685B78580E18C93108E86
:1004E000A489B58986E08C93A289B3898C918061B7
:1004F0008C93A289B3898C9188608C93A289B389EB
:100500008C9180688C930288F389E02D80818F7DA7
:100510008083089580916C0D882311F181E090E033
:1005200090936B0D80936A0D1092EF0E1092F10E66
:100530001092F00E1092F50E1092F30E1092F20E31
:100540001092F40E8091E20E8093ED0E8091E30EF6
:100550008093EE0E1092F80E1092F70E1092F90E94
:100560000895CF93DF93FC01C3E4DBE090E1DE016B
:1005700001900D929A95E1F780914F0B9091500B5D
:10058000B0E0A0E0E2EAFBE08093620C9093630CA1
:10059000A093640CB093650C8093660C9093670CE9
:1005A000A093680CB093690C83EF9BE090936C0C64
:1005B00080936B0C10926A0CADE6BCE08C9183606A
:1005C0008B7F8C938091510B9091520BB0E0A0E007
:1005D00080839183A283B38384839583A683B78327
:1005E00089E792E1928781871086EDEAFBE08081BE
:1005F00083608B7F8083EAE6FDE0D093CF0EC093CB
:10060000CE0E88819981968F858F92AB81AB84E6DF
:1006100090E09093B60E8093B50E90936A0E8093FF
:10062000690EDF91CF9108959C014FB7F8948091A6
:10063000C009E091BF0981111CC081E08E0F809339
:10064000BF0993E0E99FF0011124EA5BF64F318383
:1006500020836283883211F41092BF099091BF0900
:100660008091BE09981303C081E08093C0094FBFF9
:1006700008959091BE099F5F9832A1F09093BE09B2
:1006800091E09E0F9093BF0983E0E89FF001112451
:10069000EA5BF64F318320836283983241F71092F0
:1006A000BF09E5CF1092BE09EBCF8150823108F02F
:1006B0005AC0E82FF0E08827EF59FC4F8F4F0C9479
:1006C0005B3081038503730379037D03B3038803E0
:1006D0008E03920398039C03A003A603AA03B3030B
:1006E000AE03B403B803809180008F7780938000BD
:1006F0000895809180008F7DF9CF80918000877F61
:10070000F5CF84B58F7784BD089584B58F7DFBCFF9
:100710008091B0008F778093B00008958091B000F1
:100720008F7DF9CF809190008F778093900008950E
:10073000809190008F7DF9CF80919000877FF5CFD9
:100740008091A0008F778093A00008958091A000F1
:100750008F7DF9CF8091A000877FF5CF8091200118
:100760008F77809320010895809120018F7DF9CFAC
:1007700080912001877FF5CFCF93DF93282F30E042
:10078000F901EA5EFB4F8491F901E053FC4FD491EB
:10079000F901E657FC4FC491CC23A1F081110E94CE
:1007A0005503EC2FF0E0EE0FFF1FE059FC4FA59131
:1007B000B491EC91ED2381E090E009F480E0DF91C9
:1007C000CF91089580E090E0FACF0F931F93CF93DD
:1007D000DF93EC01188219821A821B821C821D820F
:1007E0001E821F828FE00E94BC039C8180FB93F9D4
:1007F0009C838CE00E94BC039C8180FB94F99C83C9
:100800008EE00E94BC039C8180FB95F99C830AE6E4
:100810001DE08B81F801938990FB80F98B8386E042
:100820000E94BC039B8180FB91F99B8389E10E941C
:10083000BC039B8180FB94F9F80187A180FB92F9AE
:100840009B8388E00E94BC039B8180FB93F99B8380
:1008500088E10E94BC039B8180FB95F99B8387E123
:100860000E94BC039B8180FB96F99B838EE10E94D2
:10087000BC039B8180FB97F99B838DE10E94BC03A5
:100880009C8180FB90F99C8386E10E94BC039C8143
:1008900080FB91F99C8381E10E94BC039C8180FBD9
:1008A00092F99C838CE20E94BC03998180FB90F9B1
:1008B00099838EE20E94BC03998180FB91F9998310
:1008C0008DE20E94BC03998180FB92F999838FE2AB
:1008D0000E94BC03998180FB93F9998381E30E9474
:1008E000BC03998180FB94F9998380E30E94BC0347
:1008F000998180FB95F9998383E30E94BC039981D8
:1009000080FB96F9998382E30E94BC03998180FB66
:1009100097F9998385E20E94BC039A8180FB90F944
:100920009A8384E20E94BC039A8180FB91F99A83A6
:1009300087E20E94BC039A8180FB92F99A8386E247
:100940000E94BC039A8180FB93F99A8389E20E94FA
:10095000BC039A8180FB94F99A8388E20E94BC03CD
:100960009A8180FB95F99A838BE20E94BC039A815D
:1009700080FB96F99A838AE20E94BC039A8180FBED
:1009800097F99A8384E30E94BC03988180FB91F9D4
:10099000988385E30E94BC03988180FB90F998833B
:1009A0008CE10E94BC03988180FB95F998838FE1CC
:1009B0000E94BC03988180FB94F998838AE10E948D
:1009C000BC03988180FB97F998838BE10E94BC035C
:1009D000988180FB96F9988387E00E94BC039C81F4
:1009E00080FB96F99C8389E00E94BC039C8180FB7C
:1009F00097F99C838AE00E94BC039D8180FB90F95B
:100A00009D838BE00E94BC039D8180FB91F99D83B7
:100A1000DF91CF911F910F9108951F93CF93DF9393
:100A2000282F30E0F901EA5EFB4F8491F901E05391
:100A3000FC4FD491F901E657FC4FC491CC23A9F0A7
:100A4000162F81110E945503EC2FF0E0EE0FFF1FCF
:100A5000EA5AFC4FA591B4918FB7F894EC9111111B
:100A600008C0D095DE23DC938FBFDF91CF911F911B
:100A70000895DE2BF8CFCF93DF9390E0FC01E05395
:100A8000FC4F249186579C4FFC0184918823C9F028
:100A900090E0880F991FFC01E45CFC4FA591B49194
:100AA000FC01EA5AFC4FC591D49161110DC09FB76A
:100AB000F8948C91209582238C9388812823288315
:100AC0009FBFDF91CF910895623051F49FB7F894A2
:100AD0003C91822F809583238C93E8812E2BEFCF3E
:100AE0008FB7F894EC912E2B2C938FBFEACF8633DF
:100AF00008F0865320917B00982F9870277F922BC7
:100B000090937B008770806480937C0080917A0052
:100B1000806480937A0080917A0086FDFCCF80917A
:100B200078009091790008953FB7F89480919E08DD
:100B300090919F08A091A008B091A10826B5A89B0C
:100B400005C02F3F19F00196A11DB11D3FBFBA2F5F
:100B5000A92F982F8827BC01CD01620F711D811D1F
:100B6000911D42E0660F771F881F991F4A95D1F7A4
:100B700008958F929F92AF92BF92CF92DF92EF92A1
:100B8000FF926B017C010E9494054B015C01C11432
:100B9000D104E104F104B9F00E94940568197909BF
:100BA0008A099B09683E73408105910580F321E025
:100BB000C21AD108E108F10888EE880E83E0981E79
:100BC000A11CB11CE4CFFF90EF90DF90CF90BF90BD
:100BD000AF909F908F900895EFE9FAE08381948120
:100BE0000196948383830895EFE9FAE080859185E7
:100BF00001969187808708950895AF92BF92CF9212
:100C0000DF92EF92FF920F931F93CF93DF936C01CC
:100C10007B018B01040F151FEB015E01AE18BF08AD
:100C2000C017D10759F06991D601ED91FC9101905F
:100C3000F081E02DC6011995892B79F7C501DF9167
:100C4000CF911F910F91FF90EF90DF90CF90BF90C9
:100C5000AF900895FC01538D448D252F30E0842FF3
:100C600090E0821B930B541710F0CF9608950197D4
:100C70000895FC01918D828D981761F0A28DAE0FC1
:100C8000BF2FB11D5D968C91928D9F5F9F73928F48
:100C900090E008958FEF9FEF0895FC01918D828D74
:100CA000981731F0828DE80FF11D858D90E0089541
:100CB0008FEF9FEF0895FC01918D228D892F90E099
:100CC000805C9F4F821B91098F739927089589EA51
:100CD00098E00E945B0621E0892B09F420E0822F36
:100CE0000895FC01A48DA80FB92FB11DA35ABF4FC1
:100CF0002C91848D90E001968F739927848FA6891B
:100D0000B7892C93A089B1898C91837080648C936E
:100D1000938D848D981306C00288F389E02D80811D
:100D20008F7D80830895EF92FF920F931F93CF934F
:100D3000DF93EC0181E0888F9B8D8C8D98131AC016
:100D4000E889F989808185FF15C09FB7F894EE89FD
:100D5000FF896083E889F98980818370806480835A
:100D60009FBF81E090E0DF91CF911F910F91FF90A5
:100D7000EF900895F62E0B8D10E00F5F1F4F0F734D
:100D80001127E02E8C8D8E110CC00FB607FCFACF08
:100D9000E889F989808185FFF5CFCE010E9471062F
:100DA000F1CFEB8DEC0FFD2FF11DE35AFF4FF082D9
:100DB0009FB7F8940B8FEA89FB8980818062CFCF3F
:100DC000CF93DF93EC01888D8823B9F0AA89BB8982
:100DD000E889F9898C9185FD03C0808186FD0DC06D
:100DE0000FB607FCF7CF8C9185FFF2CF808185FF8E
:100DF000EDCFCE010E947106E9CFDF91CF9108952A
:100E000080E090E0892B49F080E090E0892B29F088
:100E10000E94000081110E94000080E090E0892B78
:100E200049F080E090E0892B29F00E9400008111B8
:100E30000E94000080E090E0892B29F00E94670664
:100E400081110E94000080E090E0892B49F080E051
:100E500090E0892B29F00E94000081110C94000081
:100E60000895DC0180E0615090F09D919827E92F72
:100E7000EF70F0E0E45EFC4F2491E92FE295EF7013
:100E8000F0E0E45DFC4FE491822F8E27ECCF0895D3
:100E9000DC012C911196ED91FC91F8948181822BCB
:100EA00081839281322F30959323928387E090E063
:100EB0000197F1F781818323818383E290E0019799
:100EC000F1F790817894EFECF0E03197F1F792230D
:100ED00081E009F480E00895FC0190810180F281B5
:100EE000E02D292F209560FF14C0F8948281822381
:100EF00082838181892B8183A3E2B0E01197F1F78E
:100F00008281982B9283789487ED90E00197F1F796
:100F10000895F8948281822382838181892B818341
:100F2000AFEFB0E01197F1F78281982B928378941C
:100F30008FE090E0EBCFDF92EF92FF920F931F9341
:100F4000CF93DF93EC01D62EE42E08E010E0FF24CF
:100F5000F39461E08D2D8F2109F460E0CE010E94B1
:100F60006C07FF0C01501109A1F7E11010C0F894B3
:100F7000E981FA8191818881809589238183E98142
:100F8000FA81928188818095892382837894DF9188
:100F9000CF911F910F91FF90EF90DF900895EF9206
:100FA000FF920F931F93CF93DF938C017B0140E05F
:100FB00065E50E949B07E70188E0E80EF11C699156
:100FC00040E0C8010E949B07CE15DF05C1F7DF9105
:100FD000CF911F910F91FF90EF900895FC019081A8
:100FE0000180F281E02DF8948181292F20958223C0
:100FF000818378943DE743E050E0315029F1DA01F4
:101000001197F1F780818923C1F3F89482818223BB
:1010100082838181892B81837894ABE7B7E0119734
:10102000F1F7F894818182238183A3E1B1E01197E4
:10103000F1F78081982381E009F080E07894E3E67D
:10104000F6E03197F1F7089580E008958F929F922E
:10105000AF92BF92CF92DF92EF92FF920F931F93C6
:10106000CF93DF9300D01F921F92CDB7DEB78C01D4
:10107000DC0119968D919C910E94EE0740E06CEC8A
:10108000F801818592850E949B07D8014C9164E408
:1010900019968D919C910E949B078FB7F894C090F0
:1010A0009A08D0909B08E0909C08F0909D088FBF14
:1010B000F8018481811120C081E08983CA82DB82AA
:1010C000EC82FD8229813A814B815C816D8170E0E7
:1010D00080E090E00F900F900F900F900F90DF91B5
:1010E000CF911F910F91FF90EF90DF90CF90BF9025
:1010F000AF909F908F90089585818823F9F080812B
:1011000081111CC0F801818592850E9448078130B9
:1011100099F22FB7F89480919A0890919B08A0912A
:101120009C08B0919D082FBF8C199D09AE09BF097D
:101130008E3E9240A105B10528F3BECFD80113968B
:10114000EC91E9508EEE92E0E33038F4F0E0EE0FEF
:10115000FF1FE05DFD4F808191814C01B12CA12CDE
:10116000F8018181882321F060E082810E940D05D1
:10117000C501B4010E94B905D80111968C9111974F
:10118000882309F499CF61E012968C910E940D0595
:1011900093CF4F925F926F927F928F929F92AF9276
:1011A000BF92CF92DF92EF92FF920F931F93CF9354
:1011B000DF938C017B01EA01FC01818592850E940D
:1011C000EE078823D9F1B701F801818592850E9445
:1011D000CF0740E06EEBF801818592850E949B0766
:1011E0006E015E01F9E0AF0EB11C7E01F801818451
:1011F000928488E0682E712C512C44244394C401BD
:101200000E94480781115428440CF1E06F1A7108BC
:10121000B1F7F70151927F01AE16BF0639F7F80119
:10122000818592850E94EE07813041F4F60181911B
:101230006F01811105C0EE15FF05C1F790E008C0F0
:1012400068E0CE010E94310791E028852813F6CF8F
:10125000892FDF91CF911F910F91FF90EF90DF9039
:10126000CF90BF90AF909F908F907F906F905F9046
:101270004F900895E9EAFAE0A281B38113968D9127
:101280009C91149714961C921E92139795838483B5
:10129000A285B38513968D919C91149714961C92F8
:1012A0001E9213979587848708952091AD0A3091F7
:1012B000AE0A8091AF0A9091B00A28173907C0F0A2
:1012C00081E090E09093AA0A8093A90A2091B50A40
:1012D0003091B60A8091B70A9091B80A2817390759
:1012E00060F081E090E09093B20A8093B10A089593
:1012F0001092AA0A1092A90AE9CF1092B20A10928B
:10130000B10A08951092F50BE5EAF8E08081877F35
:1013100080830895CF93DF93A0E0B2E0FD0190E0D9
:10132000219131912817390721F4EF012297198271
:10133000188222E0E031F20799F78D919D91892B77
:1013400041F482E0A031B807C1F781E0DF91CF918D
:10135000089580E0FBCFFC0121812150330B70E028
:1013600060E0472F50E0421753073CF4480F591FE5
:10137000FA014081640F7F5FF4CF820F931FFC015D
:1013800060830895FC0181E08083658385E082832A
:101390008091410BA0E0B2E020E132E04D915D91FF
:1013A000452BC1F42A173B07C9F791E0877F90FFCF
:1013B00088608383F89490919F0B80919E0B91118C
:1013C0000BC090919D0B981307C07894148287E00E
:1013D0008183089590E0EACF90E0A0919A0BB091BC
:1013E0009B0BA80FB91F2C91019660919C0B70E08C
:1013F0000E94473080939E0B10929F0B7894248319
:10140000E6CFCF93DF93CDB7DEB7C456D1090FB681
:10141000F894DEBF0FBECDBF66E0CE0101960E94FC
:10142000C209CE0101960E94AB09CC59DF4F0FB61D
:10143000F894DEBF0FBECDBFDF91CF910895CF935B
:10144000DF93EC0167E00E94C209CE01DF91CF91EA
:101450000C94AB09E1ECF0E0808180688083089512
:101460001F93CF93DF93EC0119861EAAFC01E05C69
:10147000FF4F10829FAD319680E0981719F01192BE
:101480008F5FFBCFFE01E55BFF4F1082319710822B
:1014900010E08FAD181750F4EA81FB81E10FF11DC8
:1014A00060E080810E940D051F5FF3CFDF91CF9137
:1014B0001F910895CF93DF93EC010E94300AED81D4
:1014C000FE812F8138858CA99DA9B0E0A0E08083A2
:1014D0009183A283B38384839583A683B783328762
:1014E00021878BE08087838581608D7F8B7F8387D9
:1014F000DF91CF9108953F924F925F926F927F92CA
:101500008F929F92AF92BF92CF92DF92EF92FF9213
:101510000F931F93CF93DF9300D000D0CDB7DEB7EA
:101520009E838D83062F10E08FB7F894C0909A08A1
:10153000D0909B08E0909C08F0909D088FBFED81B3
:10154000FE8180A991A9A2A9B3A9C81AD90AEA0A59
:10155000FB0AC701B6010E94913120E030E04AE762
:1015600054E40E94E930AD81BE8194966D937D93E1
:101570008D939C939797FD01C0A2D1A2E2A2F3A202
:101580002FB7F89480919A0890919B08A0919C089D
:10159000B0919D082FBFED81FE8180AB91ABA2ABD6
:1015A000B3AB1587048762857385601B710BE6A456
:1015B000F7A4E01AF10A17A706A781A5882331F03E
:1015C000719561957109F194E194F108AD81BE8145
:1015D00098963C90072E000C880B990B0E94933133
:1015E0004B015C0110E000E031100BC0ED81FE8189
:1015F00020893189428953890E9448320E945B3197
:101600008B01B701FF0C880B990B0E9493316B0182
:101610007C01AD81BE8194968D919D910D90BC9180
:10162000A02D89839A83AB83BC83ED81FE81208DBD
:10163000318D428D538DC701B6010E9448322981F8
:101640003A814B815C810E94E9302B013C01B80159
:10165000110F880B990B0E9493319B01AC01C301C0
:10166000B2010E9478300E945B312B01AD81BE81B6
:101670001F967C936E931E9754962D913D914D919C
:101680005C915797C501B4010E94483229813A8183
:101690004B815C810E944832ED81FE81248D358D25
:1016A000468D578D0E9478304B015C01AD81BE8123
:1016B0005C968D929D92AD92BC925F973320A1F083
:1016C00050962D913D914D915C915397C701B60174
:1016D0000E944832A50194010E947830ED81FE817C
:1016E000648F758F868F978FAD81BE815C968C904D
:1016F0005C975D969C905D975E96AC905E975F96CA
:10170000BC905F979A960D911C91B801012E000C28
:10171000880B990B0E9493316B017C019B01AC01FA
:10172000B401C5010E94E43087FD16C0ED81FE8141
:1017300064A575A5072E000C880B990B0E949331A8
:101740006B017C019B01AC01B401C5010E944332D5
:10175000181614F064017501C601D701ED81FE81F0
:10176000848F958FA68FB78FB201550C880B990B7C
:101770000E9493319601A7010E9478300E945B314C
:10178000601771074CF0AD81BE819C960D911C9144
:10179000601771070CF48B01ED81FE8117870687B6
:1017A00006ABE55BFF4FAD81BE8114968C910817A7
:1017B00008F4802F808326960FB6F894DEBF0FBE04
:1017C000CDBFDF91CF911F910F91FF90EF90DF90F0
:1017D000CF90BF90AF909F908F907F906F905F90D1
:1017E0004F903F900895CF93DF93CDB7DEB76897C2
:1017F0000FB6F894DEBF0FBECDBFE9EAFAE0DE0116
:10180000119644A155A166A177A14D935D936D9367
:101810007D9373968BE0EB31F80799F780913E0E3C
:10182000882351F069817A818B819C810E94623189
:1018300085E39EE00E947B0A80918A0E882391F0C6
:1018400069817A818B819C810E94623181E89EE06E
:1018500068960FB6F894DEBF0FBECDBFDF91CF9173
:101860000C947B0A68960FB6F894DEBF0FBECDBF0E
:10187000DF91CF910895E62FDC0114962C911497F7
:10188000621758F461E0642712968D919C91E80FDD
:10189000F92FF11D80810C940D050895CF92DF92F0
:1018A000EF92FF920F931F93CF93DF9300D000D05E
:1018B0001F921F92CDB7DEB7FC018E010F5F1F4F45
:1018C00088E0D8011D928A95E9F74285C180E080C1
:1018D0002E2D30E0842FF12CDD24D394CF100EC0B8
:1018E000CF010296B801562F501B5E1590F4DB0114
:1018F0005D91BD01DC015D93CD01F5CF90E0D80194
:10190000A80FB91FDC920196B9010E944730F394E9
:10191000E5CF842F90E00196B9010E94473082877D
:1019200028960FB6F894DEBF0FBECDBFDF91CF91E2
:101930001F910F91FF90EF90DF90CF9008951F932C
:10194000CF93DF93FC0181858823A1F1DF01A65BA2
:10195000BF4F9C91EF01C55BDF4F8881981730F531
:101960009F5F9C939F01205C3F4F97AD8C91981790
:1019700008F4892FEF01F9018083CE01CF960E94F0
:101980004E0C10E08FAD1817A8F4812F90E0DE0107
:10199000A80FB91FAF5BBF4FEA81FB81E80FF91FAA
:1019A0006C9180810E940D051F5FECCF8917D0F6E6
:1019B0009150D7CFDF91CF911F91089585E39EE09D
:1019C0000E949F0C81E89EE00C949F0CEF92FF9286
:1019D0001F93CF93DF93EC0110E08C811817A0F4D4
:1019E000E12EF12CEA81FB81EE0DFF1D61E080818B
:1019F0000E943B05EA81FB81EE0DFF1D60E08081C6
:101A00000E940D051F5FE9CFFE01E05CFF4F1082D1
:101A1000CE01CF96DF91CF911F91FF90EF900C9464
:101A20004E0C81E20E94BC0321E0892B09F420E0E6
:101A3000822F0895FC018181861799F0618381E0EE
:101A400090E0938382838081861751F0662381F032
:101A500084819581228133812817390708F06083BA
:101A60000895828193818F3F980769F30196E9CFAA
:101A700086819781EFCF0F931F93CF93DF93FC0164
:101A80002281222309F43DC0162FC62FD0E0048105
:101A900061E0802F0E943B05209741F460E0802F99
:101AA000DF91CF911F910F910C940D05CF3FD10580
:101AB00011F461E0F4CFE02FF0E0EA5EFB4FE49137
:101AC000E150E23108F0B4C0F0E08827E559F24F68
:101AD0008F4F0C945B307D0D860D8B0D950D9F0DFA
:101AE000180EA90DB10DB90DC30DCD0DD70DE60D15
:101AF000F00D180EFA0D040E0E0E84B5806884BD2C
:101B000017BDDF91CF911F910F91089584B5806229
:101B100084BD18BDF6CF80918000806880938000DE
:101B2000D0938900C0938800ECCF809180008062C0
:101B300080938000D0938B00C0938A00E2CF809185
:101B40008000886080938000D0938D00C0938C00CB
:101B5000D8CF8091B00080688093B0001093B3001C
:101B6000D0CF8091B00080628093B0001093B40019
:101B7000C8CF80919000806880939000D0939900A6
:101B8000C0939800BECF80919000806280939000B7
:101B9000D0939B00C0939A00B4CF8091900088604E
:101BA00080939000D0939D00C0939C00AACF809119
:101BB000A00080688093A0008091A0008F7B80931C
:101BC000A000D093A900C093A8009BCF8091A00053
:101BD00080628093A000D093AB00C093AA0091CF05
:101BE0008091A00088608093A000D093AD00C09346
:101BF000AC0087CF80912001806880932001D09332
:101C00002901C09328017DCF8091200180628093BB
:101C10002001D0932B01C0932A0173CF8091200122
:101C2000886080932001D0932D01C0932C0169CF4F
:101C3000C038D1050CF03DCF31CF0F931F93CF9318
:101C4000DF9383E20E94BC038C0182E20E94BC030A
:101C5000EC0161E0012B09F460E087E69BE00E9463
:101C60001A0D61E0CD2B09F460E08FE69BE00E9445
:101C70001A0D8091670B8093770B90916F0B909367
:101C8000780B23E0911103C021E0811122E0209321
:101C9000790B20917D0D222349F12091910D222372
:101CA00029F12091CD0E211121C09923B1F080910D
:101CB000DF0E8093EE0E1092ED0E6091ED0E8BE72D
:101CC0009DE00E943B0D6091EE0E8FE89DE0DF915C
:101CD000CF911F910F910C943B0D8111EECF80910C
:101CE000DE0E8093ED0E1092EE0EE7CFDF91CF91D6
:101CF0001F910F910895CF93DF93EC018A81811199
:101D00001EC081E08A838B81811117C08C81813153
:101D100071F48091D00080648093D0008091D100D4
:101D2000877E8093D10061E081E10E943B0561E004
:101D30008C81DF91CF910C940D0588818987DF918B
:101D4000CF910895CF93DF93EC01862F68835A8358
:101D500049831C821B8262E00E943B0529813A81F3
:101D60009881923069F4309311022093100280918F
:101D70006A00836080936A00EC9ADF91CF910895A6
:101D8000933059F4309313022093120280916A0029
:101D90008C6080936A00ED9AF0CF8EEE890F8430CC
:101DA00060F787E1891BE82FF0E0EE0FFF1FE05F8F
:101DB000FD4F31832083843091F08530B9F083303A
:101DC00039F080916900836080936900E89AD5CFEB
:101DD000809169008C6080936900E99ACECF8091F0
:101DE0006900806380936900EA9AC7CF8091690097
:101DF000806C80936900EB9AC0CFFC01118260E097
:101E000080810C940D0521E0FC01218361E080813B
:101E10000C940D05FC01108260E081810C940D058D
:101E200021E0FC01208361E081810C940D05FC011F
:101E3000208121110C940A0F0C94100F90E0009750
:101E400069F583E79DE00E94170F85E79DE00E94FA
:101E5000170F84EF91E0A0E0B0E08093520D9093D3
:101E6000530DA093540DB093550D8093560D909340
:101E7000570DA093580DB093590D8EE19FE09093AC
:101E80005C0D80935B0D81E080935A0D80915D0D18
:101E900081608D7F8B7F80935D0D0895019721F484
:101EA0008FE89DE00C947B0E0895F89490919F0B21
:101EB000992359F08091A00B9091A10B01969093DA
:101EC000A10B8093A00B7894089520919D0B30E096
:101ED000E0919A0BF0919B0BE20FF31F8083C901F5
:101EE000019660919C0B70E00E94473080939D0B9F
:101EF00090919E0B9813E7CF81E080939F0BE3CFE7
:101F0000FC0101900020E9F73197AF01481B590B04
:101F1000BC0189EA98E00C94FD058F929F92AF92E4
:101F2000BF920F931F93CF93DF93CDB7DEB7A197E7
:101F30000FB6F894DEBF0FBECDBF19A2423008F431
:101F40004AE08E010F5D1F4F842E912CB12CA12CE5
:101F5000A50194010E942530E62FB901CA01EA309B
:101F6000F4F4E05DD801EE938D01232B242B252B77
:101F700079F790E080E0109719F0CD010E94800F72
:101F8000A1960FB6F894DEBF0FBECDBFDF91CF9103
:101F90001F910F91BF90AF909F908F900895E95C33
:101FA000E1CF009711F00E94800F8EE592E00C9433
:101FB000800F81E692E00E94D10FE9EAFAE01582F3
:101FC0001482A2EABBE04CE251E060E070E0D096FF
:101FD0004D935D936D937C93D397D4964D935D937E
:101FE0006D937C93D79785E599E0DA969C938E93D1
:101FF000D997D8961C92ADEDBBE08C9181608D7F16
:102000008B7F8C9382E090E091838083A281B38167
:1020100014961C921E9213979187808715861486BA
:102020000284F385E02D1482138208950E94110D1D
:10203000882371F08091A70880FD04C086E792E0B4
:102040000E94D10F8091A70881608093A70808950E
:102050008091A7088E7F8093A7088091A90A90910C
:10206000AA0A029709F450C02091AD0A3091AE0A35
:102070008091AF0A9091B00A2817390708F445C03B
:1020800081E090E09093AA0A8093A90A2091A90A7E
:102090003091AA0A91E02130310509F090E0809159
:1020A000A50881FD04C082602130310521F48091B2
:1020B000A50890FB81F98093A5088091B10A9091C1
:1020C000B20A029709F18091BE0A0E9477059C012D
:1020D0009093C00A8093BF0A6091C10A7091C20AAE
:1020E00041E06817790708F440E09091A50892FD57
:1020F00005C0892F84606217730720F08091A508BE
:1021000040FB82F98093A50808951092AA0A1092C4
:10211000A90ABCCF0E94161085E40E94BC03892B3B
:1021200071F08091A70881FD04C086E892E00E94CA
:10213000D10F8091A70882608093A70808958091AD
:10214000A7088D7FF9CF90E0009781F58FE69DE09D
:102150000E94170F81E79DE00E94170F84EF91E026
:10216000A0E0B0E080935E0D90935F0DA093600DB2
:10217000B093610D8093620D9093630DA093640DF5
:10218000B093650D83EA90E19093680D8093670D9D
:1021900081E08093660D8091690D81608D7F8B7FDA
:1021A0008093690D86E992E00C94D10F019769F450
:1021B00087EB92E00E94D10F8FE89DE00E947B0E9A
:1021C0006CED8FE89DE00C943B0D0895BF92CF928B
:1021D000DF92EF92FF920F931F93CF93DF93EC0167
:1021E000B62EC72E8D85811105C0CE010E94EE0747
:1021F00081110EC01B861D861C8680E0DF91CF9169
:102200001F910F91FF90EF90DF90CF90BF900895B6
:1022100040E060EFCE010E949B0701E0E12CD12C51
:1022200011E0CE010E944807F82ECE010E94480717
:1022300091E0F91218C0813099F51134D8F2DB869B
:10224000D11002C081E08D878B81882399F223967B
:10225000EB2DFC2DCF01089629912193E817F90762
:10226000D9F781E0CBCFEE2DF0E0F8120FC08B85CF
:102270001817A0F4DE01AE0FBF1F13968C918023B8
:1022800079F4F12C193008F41C87D12EEC0FFD1FC6
:102290008381902F9095892383830AC08113F1CF86
:1022A000FE01EE0DF11D8381802B8383FF24F394C7
:1022B0006F2DCE010E946C071F5F000F11F4E39495
:1022C00001E087E08E1508F0ACCFB7CFCF93DF9356
:1022D000EB01DC011996ED91FC911A971386158696
:1022E0001486128611861086178216821582148231
:1022F000138219968D919C910E94E610982F882345
:1023000041F067E0CE010E94310791E02F81281350
:1023100090E0892FDF91CF9108958F929F92AF9295
:10232000BF92EF92FF920F931F93CF93DF93CDB79E
:10233000DEB761970FB6F894DEBF0FBECDBF7C014C
:10234000FC0100851185F8018781882309F470C09C
:10235000BE01665F7F4FC8010E946611882309F4A1
:1023600067C0AE014F5F5F4FBE01665F7F4FC80120
:102370000E94C908882309F45BC08A81812C912CB2
:10238000540187FF06C0812C912CF8EFAF2EBB249F
:10239000BA949A8549819B3309F065C02D8127FF46
:1023A00062C040FD45C0042F10E030E020E073E043
:1023B000000F111F221F331F7A95D1F7B901A80111
:1023C000407E57706627772790E0B0E0A0E08C0150
:1023D0009D01EBE0000F111F221F331FEA95D1F77B
:1023E000042B152B262B372B082919292A293B29A1
:1023F000013854EE15075FEF25073507CCF0C9010A
:10240000B8010E94933120E030E040E05CE30E949C
:1024100048324B015C0120E030E04EEF52EC0E946C
:10242000E430882329F0F70180829182A282B3826E
:10243000F701808591850E942608F70160817181EE
:102440008281938161960FB6F894DEBF0FBECDBF37
:10245000DF91CF911F910F91FF90EF90BF90AF90C0
:102460009F908F900895082F10E0102F0027110FD4
:10247000110F110FF8E04F9FA0011124042B152B11
:10248000012E000C220B330B082919292A293B297C
:10249000903109F0ADCF6885662309F4A9CF70E0CB
:1024A0008F81AB01481B5109CA019695982F882747
:1024B000979587950E944730CB01770FAA0BBB0BEE
:1024C00053E0000F111F221F331F5A95D1F70078D8
:1024D000277033270052110921093109800F911FFC
:1024E000A21FB31F95018401082B192B2A2B3B2B0C
:1024F0007FCF8091650B81508093650B811118C04F
:1025000085E08093650B8091420B23E1829FC0019F
:1025100011248353954F0E948D119091420B892F66
:102520008F5FF1F39FEF8630D0F78093420B0895D1
:102530008DEC9AE00C948D11BF92CF92DF92EF92C6
:10254000FF920F931F93CF93DF93CDB7DEB76197C1
:102550000FB6F894DEBF0FBECDBF7C018B01DC014E
:1025600019967C936E93189783E0D82ECC24C3944D
:10257000D8011996ED91FC911A9713861586148649
:102580001286118610861782168215821482138293
:1025900017961C92179718961C9262E370E080E0E1
:1025A00090E00E94B905BE01665F7F4FF80181850A
:1025B00092850E94E610882309F477C067E0CE0177
:1025C0000A960E94310799898913EDCFD801179691
:1025D0008C9117978F5F17968C938A85883231F08C
:1025E00008F04AC0803111F08232E9F6F8018085A6
:1025F0008F5F80878081811124C0818592850E94B0
:10260000EE07BE01665F7F4FD80119968D919C91B0
:102610000E94CF0740E064EBF801818592850E941B
:102620009B07D80119968D919C910E944807B82E5E
:10263000F801818592850E94EE07B11002C0D80191
:10264000CC928A85803119F1AE014F5F5F4FBE0198
:10265000665F7F4FC8010E94C908882359F08D81A9
:102660009A859B3311F487FD12C08F3391F058F493
:102670008F31B9F080E00EC08B3309F4B7CF8234CC
:1026800009F091CFB3CF8F3571F08F3799F78CE088
:1026900001C08AE0F8019381981708F084CF838302
:1026A00082CF89E0F7CF8BE0F5CFD80117969C91C8
:1026B000911103C0DA94D1105BCFD7011896ED9138
:1026C000FC919781992331F0B701665F7F4FCF016D
:1026D0000E946611F701828B0084F185E02D14823F
:1026E000D70118968D919C910E94260861960FB68D
:1026F000F894DEBF0FBECDBFDF91CF911F910F9138
:10270000FF90EF90DF90CF90BF9008958F929F92AF
:10271000AF92BF92CF92DF92EF92FF92CF93DF936F
:102720006A017B01E9010E94800FC530D10509F0E3
:10273000A5C0A7019601C701B6010E94B532882342
:1027400091F088ED92E00E94800F8EE592E0DF919B
:10275000CF91FF90EF90DF90CF90BF90AF909F9080
:102760008F900C94800F46015701E894B7F82FEF33
:102770003FEF4FE75FE7C501B4010E94B532811119
:102780000DC02FEF3FEF4FE75FE7C501B4010E9497
:10279000E43018161CF48CED92E0D5CF2FEF3FEF0C
:1027A0004FE75FE4C701B6010E94433218161CF4DC
:1027B00080EE92E0C8CF2FEF3FEF4FE75FECC7010D
:1027C000B6010E94E43087FDF3CF20E030E0A9019C
:1027D000C701B6010E94E43087FF09C06DE289EAB3
:1027E00098E00E949306F7FAF094F7F8F0942BEA39
:1027F00035EC47EA56E3C701B6010E9478306B0119
:102800007C010E9462314B015C010E9491319B016D
:10281000AC01C701B6010E9477306B017C014AE030
:10282000C501B4010E948D0F6EE289EA98E00E9412
:102830009306C6E0C15009F488CF20E030E040E2C2
:1028400051E4C701B6010E9448324B015C010E946D
:1028500062316B01F12CE12C4AE0C701B6010E9404
:102860008D0FC701B6010E9491319B01AC01C501DA
:10287000B4010E9477306B017C01DCCFC701B60147
:102880000E9462314C2F0E948D0F5FCF21E030E01B
:102890003093400B20933F0B8091410B81608B7FE5
:1028A0008093410B8CE291E0A0E0B0E08093D20BEA
:1028B0009093D30BA093D40BB093D50B8093D60BEE
:1028C0009093D70BA093D80BB093D90B85E599E0E3
:1028D0009093DC0B8093DB0B1092DA0B8091DD0B75
:1028E00081608D7F8B7F8093DD0B80916C0D8B30B1
:1028F00029F41092640B1092630B0895863029F42A
:102900003093640B2093630B08959CEF980F9230E3
:1029100038F482E090E09093640B8093630B089509
:10292000873079F52AE030E040E050E060E87FE36E
:1029300084EE92E00E9486138091490B90914A0B9D
:10294000B0E0A0E080930A0D90930B0DA0930C0DC6
:10295000B0930D0D80930E0D90930F0DA093100D5D
:10296000B093110D87EB96E19093140D8093130DA6
:102970001092120D8091150D81608D7F8B7F809359
:10298000150D83E090E0C7CF1F93CF93DF93FC0139
:1029900022812223A1F0EC011282148183818823F9
:1029A00091F061E0812F0E943B0560E0812F0E9441
:1029B0000D05E889F9891386EE85FF851386DF9179
:1029C000CF911F91089560E0812F0E940D058C81A9
:1029D0008131A9F7DF91CF911F910C9462028EEFA4
:1029E00092E00E94D10F8BE79DE00E94C41484EF17
:1029F00091E0A0E0B0E08093460D9093470DA09346
:102A0000480DB093490D80934A0D90934B0DA093C0
:102A10004C0DB0934D0D88E698E19093500D809346
:102A20004F0D10924E0DE1E5FDE0808181608D7FBC
:102A30008B7F808308952091DC0E3091DD0E281766
:102A4000390731F09093DD0E8093DC0E0C94EF1477
:102A5000089590916C0D981729F0953091F020F41D
:102A6000943089F080E00895963021F19B30D1F7C1
:102A70008430B9F08630B1F780936C0D81E090E03E
:102A800009C0843051F08B3069F78BE080936C0D76
:102A900090E080E00E941B15E5CF80936C0D81E0F3
:102AA000089580936C0D82E090E00E941B150E94B7
:102AB000D90FF5CF8B30B1F62AE030E040E050E09E
:102AC00060E371E48EE193E00E94861385E39EE06B
:102AD0000E945A0A8DE080936C0DC4CF1092790C3D
:102AE0008091630B9091640B009769F00297D9F481
:102AF0008BE00E9429151092640B1092630B8EE3F9
:102B000093E00C94D10F8091660B81110CC086E08C
:102B10000E94291581E090E09093640B8093630BF1
:102B200085E693E0EECF08951092850C8091630BBB
:102B30009091640B8130910521F070F00297D1F0F3
:102B400008958BE00E9429151092640B1092630B7C
:102B500089E893E00C94D10F84E00E94291582E06B
:102B600090E09093640B8093630B1092210D8BEA9D
:102B700093E0F0CF1092210D08950E94D10F109292
:102B80006B0D10926A0D1092510D10925D0D109206
:102B9000690D8BE79DE00E94C4148FE89DE00E94C0
:102BA000C41483EA9DE00E94C41487EB9DE00E9458
:102BB000C4148BEC9DE00E94C4148FED9DE00E9434
:102BC000C41483EF9DE00E94C41487E09EE00E943D
:102BD000C4148BE19EE00E94C4148FE69DE00E9425
:102BE0000A0F81E79DE00E940A0F83E79DE00E94A3
:102BF0000A0F85E79DE00E940A0F87E79DE00E948B
:102C00000A0F89E79DE00E940A0F8FE29EE00E9472
:102C1000FD0E81E39EE00E94FD0E83E39EE00E9494
:102C2000FD0E85E39EE00E94300A81E89EE00E944E
:102C3000300A1092DA0E10929D0C1092A90C10928C
:102C4000CD0C1092C10C1092E50C1092B50C1092A4
:102C5000D90C1092F10CE7EAF8E08081886080835B
:102C600008951092CD0E10926C0E8FEC93E00C94A0
:102C7000BD151F93CF93DF93EC01162F009711F032
:102C80000E94D10F8FED93E00E94D10F1092400B64
:102C900010923F0B0E94311680916C0D8C50823047
:102CA00010F010926C0D209719F0CE010E94D10FF8
:102CB0006091410B6E7F64606093410B1092AE0A8D
:102CC0001092AD0A1092B60A1092B50A1092E90B52
:102CD0001092F50B1092010C10920D0C1092190C21
:102CE0001092790C1092850C1092FD0C1092090D27
:102CF0001092DD0B1092150D1092210D70E090E0F6
:102D000080E00E949131AB01BC0120E130E08FEE08
:102D100093E00E9486131092660B111106C089E1A0
:102D2000DF91CF911F910C94550FDF91CF911F919F
:102D3000089560E080E094E00C94391660E087E14B
:102D400094E00C943916E5EAF8E080818D7F808369
:102D500060E088E294E00C943916E5EAF8E08081BE
:102D60008460808360E084E494E00C943916CF930F
:102D7000C82F1092150D1092F50B81E694E00E9479
:102D8000D10F8CE10E94550FC11108C00E9431166D
:102D900060E090E080E0CF910C9439160E943116EB
:102DA00081E794E00E94D10F8EE10E94550F1092AE
:102DB0006B0D10926A0D8BE080936C0D0E948A025D
:102DC000CF910C944614CF93C82F10920D0C6091A4
:102DD0006C0D70E090E080E00E949131AB01BC018D
:102DE0002AE030E08DE794E00E94861380916C0D1C
:102DF0008C3041F480E994E00E94BD1510926C0D76
:102E0000CF910895C0936C0D88E10E94550F6C2FEF
:102E100070E090E080E00E949131AB01BC012AE0BB
:102E200030E08CE994E0CF910C948613CF93C82FB7
:102E30001092190C88EB94E00E94D10F80916C0DD8
:102E40008D30B1F4C0936C0D6C2F70E090E080E099
:102E50000E949131AB01BC012AE030E080ED94E0AA
:102E60000E9486130E948A0286E1CF910C94550F2E
:102E70008C3031F487EE94E00E94BD1510926C0DF9
:102E8000CF910895833061F182EF94E00E94D10FD9
:102E90008FE89DE00E94C41484EF91E0A0E0B0E0D0
:102EA0008093520D9093530DA093540DB093550DF4
:102EB0008093560D9093570DA093580DB093590DD4
:102EC0008EE19FE090935C0D80935B0D10925A0D04
:102ED00080915D0D81608D7F8B7F80935D0D089566
:102EE00082E195E00E94D10F8FE89DE00E94C4141A
:102EF00084EF91E0A0E0B0E080935E0D90935F0DD1
:102F0000A093600DB093610D8093620D9093630D5B
:102F1000A093640DB093650D83EA90E19093680DE2
:102F20008093670D1092660D8091690D81608D7F91
:102F30008B7F8093690D089580916D0D90916E0D3A
:102F40008330910551F0892B41F082E00E944217B5
:102F500010926E0D10926D0D089510926E0D1092DC
:102F60006D0D8FE89DE00C947B0E9EEF980F9230D4
:102F700008F069C01092A90C833099F18FED9DE0A3
:102F80000E947B0E83EF9DE00E947B0E80EC94ED0F
:102F9000A1E0B0E080939E0C90939F0CA093A00CB6
:102FA000B093A10C8093A20C9093A30CA093A40CBB
:102FB000B093A50C85EB97E19093A80C8093A70C98
:102FC00083E08093A60C8091A90C81608D7F8B7F1C
:102FD0008093A90C81E10E94550F83E395E00C9446
:102FE000D10F8FED9DE00E94C41483EF9DE00E94FD
:102FF000C41482E10E94550F80E395E7A0E0B0E0A1
:1030000080939E0C90939F0CA093A00CB093A10C66
:103010008093A20C9093A30CA093A40CB093A50C46
:1030200085EB97E19093A80C8093A70C84E08093A4
:10303000A60C8091A90C81608D7F8B7F8093A90C59
:103040008CE395E0CCCF60E084E495E00C943916F5
:103050008230C9F510929D0C83EA9DE00E94C41451
:103060008FE89DE00E94C4148BEC9DE00E947B0ED3
:1030700080E395E7A0E0B0E08093920C9093930CEE
:10308000A093940CB093950C8093960C9093970C0E
:10309000A093980CB093990C88E298E190939C0CC3
:1030A00080939B0C81E080939A0C80919D0C8160B1
:1030B0008D7F8B7F80939D0C8EE00E94550F83E562
:1030C00095E00C94D10F60E08BE595E00C943916F7
:1030D0001F93CF93DF93CDB7DEB768970FB6F89401
:1030E000DEBF0FBECDBF90E0009709F065C08AE655
:1030F00095E00E94D10F6091DC0E7091DD0E90E0A2
:1031000080E00E949131AB01BC012AE030E08AE806
:1031100095E00E9486138091DC0E9091DD0E823046
:10312000910580F10297D9F184EF91E0A0E0B0E041
:103130008093460D9093470DA093480DB093490D91
:1031400080934A0D90934B0DA0934C0DB0934D0D71
:1031500088E698E19093500D80934F0D81E0809325
:103160004E0D8091510D81608D7F8B7F8093510D2D
:1031700068960FB6F894DEBF0FBECDBFDF91CF913A
:103180001F9108958CE995E00E94D10F87E79DE09B
:103190000E940A0F89E79DE00E940A0FC5CF86ECC6
:1031A00095E00E94D10F89E79DE00E94100F87E70C
:1031B0009DE00E94100FB8CF0197D1F6E9EAFAE03E
:1031C000DE0111968BE19BE040A551A562A573A598
:1031D0004D935D936D937D9373968E179F07A1F723
:1031E00085EE95E00E94D10F6091DC0E7091DD0EAE
:1031F00090E080E00E949131AB01BC012AE030E018
:1032000085E096E00E9486138091DC0E9091DD0EA1
:1032100081309105D9F1029709F463C080913E0E87
:10322000882389F02AE030E040E050E060E371E478
:103230008EE193E00E94861385E39EE00E945A0A85
:103240008DE080936C0D80918A0E8823E9F12AE04D
:1032500030E040E050E060E371E489E496E00E94F1
:10326000861381E39EE00E94FD0E83E39EE00E94B0
:10327000FD0E8FED9DE00E94C41483EF9DE00E943F
:10328000C41481E89EE00E945A0A1EC069817A81B6
:103290008B819C810E94623181E080933E0E862F5B
:1032A00090E09093400E80933F0E85E39EE00E9455
:1032B0007B0A89E196E00E94D10F84E296E00E94A9
:1032C000D10F85E10E94550F8BE79DE068960FB600
:1032D000F894DEBF0FBECDBFDF91CF911F910C944C
:1032E0007B0E8FED9DE00E947B0E83EF9DE00E94A0
:1032F0007B0E81E39EE00E94030F83E39EE00E9429
:10330000030F69817A818B819C810E946231162F23
:1033100070E090E080E00E949131AB01BC012AE0B6
:1033200030E08EE296E00E94861381E080938A0E60
:10333000812F90E090938C0E80938B0E612F81E80B
:103340009EE00E947B0A89E196E00E94D10F81E411
:1033500096E00E94D10F87E1B5CF8F929F92AF92F6
:10336000BF92CF92DF92EF92FF920F931F93CF9372
:10337000DF9380916A0D90916B0D019709F034C035
:103380008BE696E00E94D10F8CE896E00E94D10F68
:10339000E0916C0DE150EB3008F5F0E08827EC523D
:1033A000F64E8F4F0C945B30DF19321A401A451AD3
:1033B000EE19451A4E1A561A871A971ACB1A809187
:1033C000710D882321F081E79DE00E940A0F87EBB1
:1033D0009DE00E947B0E87E00E94550F10926B0DBE
:1033E00010926A0D0E94D90F0E94110D9091A708AA
:1033F00080FB90F99093A70885E40E94BC0321E02C
:10340000892B09F420E08091A70820FB81F9909195
:10341000770B90FB82F98093A70880913F0B9091E6
:10342000400B009771F0C0916C0D2CEF2C0F0297A0
:1034300009F0C2C0233010F0CB3019F481E00E94B3
:10344000B71660E08DEA99E1DF91CF911F910F915E
:10345000FF90EF90DF90CF90BF90AF909F908F90B4
:103460000C94140380911D0E882321F08BE19EE0C3
:103470000E94C41487E09EE00E947B0E89E0ACCFDE
:103480001092DD0E1092DC0EA9CF1092DD0E10927C
:10349000DC0E0E94EF140E949C17A0CF83E00E94D4
:1034A000421782EA96E00E94D10F98CF83EA9DE00E
:1034B0000E947B0E80E69AEEA0E0B0E08093AA0C1A
:1034C0009093AB0CA093AC0CB093AD0C8093AE0C6E
:1034D0009093AF0CA093B00CB093B10C8EE996E131
:1034E0009093B40C8093B30C1092B20C8091B50CF5
:1034F00081608D7F8B7F8093B50C84EC96E00E9479
:10350000D10F86ED96E00E94D10F83E165CF0E9436
:1035100031168BEC9DE00E947B0E8BE00E94550FD4
:1035200081EE96E00E94D10F82EF96E0BCCF0E9420
:1035300031168BE19EE00E947B0E8FE00E94550FBA
:1035400080E49CE9A0E0B0E080939E0C90939F0CF7
:10355000A093A00CB093A10C8093A20C9093A30C09
:10356000A093A40CB093A50C85EB97E19093A80CC5
:103570008093A70C82E08093A60C8091A90C8160B7
:103580008D7F8B7F8093A90C8DEF96E00E94D10FE9
:103590008DE097E088CF1092DD0E1092DC0E83E76D
:1035A0009DE00E94100F85E79DE00E94100F90E0C3
:1035B00080E00E941B156FCF9091660B992339F123
:1035C0008091210D80FD23C082FD21C040E355E79D
:1035D00060E070E04093160D5093170D6093180D46
:1035E0007093190D40931A0D50931B0D60931C0D91
:1035F00070931D0D49E956E15093200D40931F0D26
:1036000010921E0D81608D7F8B7F8093210D233062
:1036100028F0CB3019F0992309F47EC08091630B18
:103620009091640B039709F477C0D091300EC630A7
:1036300009F489C02091F30A3091F40A4091F50A07
:103640005091F60A6091190B70911A0B80911B0B27
:1036500090911C0B0E94E43087FF75C0D11107C008
:103660008FE29EE00E94030F82E00E944217C0900A
:10367000CD0AD090CE0AE090CF0AF090D00A809088
:10368000D10A9090D20AA090D30AB090D40A20E038
:1036900030E040E85FE3C501B4010E947830A70143
:1036A00096010E94E43018160CF455C01092790C63
:1036B000D091850CD0FD30C0D2FD2EC00091630B9F
:1036C0001091640BF801EE0FFF1FEE0FFF1FED5A74
:1036D000F44F60817181828193810E946231609395
:1036E0007A0C70937B0C80937C0C90937D0C609390
:1036F0007E0C70937F0C8093800C9093810C84E9F6
:1037000095E19093840C8093830C0093820CD1609C
:10371000DD7FDB7FD093850CC150CB3008F091CE9C
:10372000EC2FF0E08827E856F44E8F4F0C945B3076
:10373000F31BFF1B091C771C771C7A1C7D1CE31CE8
:103740003B1D211A7A1CDD2309F491CF8FE29EE004
:103750000E94FD0E89CF1092850C20E030E040E8F9
:103760005FE3C501B4010E947730A70196010E9472
:10377000433287FD35C0D091790CD0FDCDCFD2FD3D
:10378000CBCF0091630B1091640BF801EE0FFF1F7C
:10379000EE0FFF1FED5AF44F60817181828193819A
:1037A0000E94623160936E0C70936F0C8093700C6A
:1037B0009093710C6093720C7093730C8093740CE3
:1037C0009093750C8EE695E19093780C8093770C2E
:1037D0000093760CD160DD7FDB7FD093790C9CCF9A
:1037E0001092790C99CF80E20E94BC03892B09F0DA
:1037F00028CE60E088E197E00E94391622CE84E46A
:103800000E94BC03892B09F01CCE60E086E297E0A1
:10381000F3CF0E94110D9091A508882339F0916093
:103820009093A50860E084E397E0E6CF9E7F9093B5
:10383000A5088091A90A9091AA0A029709F401CEDD
:103840002091AD0A3091AE0A8091AF0A9091B00AF2
:1038500028173907D8F181E090E09093AA0A809365
:10386000A90A8091A90A9091AA0A0197A1F58091CD
:10387000A5088D7F8093A5088091E90B80FDE1CD9F
:1038800082FDDFCD4091470B5091480B70E060E026
:103890004093DE0B5093DF0B6093E00B7093E10BD2
:1038A0004093E20B5093E30B6093E40B7093E50BB2
:1038B00023EA36E13093E80B2093E70B1092E60BF6
:1038C00081608D7F8B7F8093E90BBBCD1092AA0A1C
:1038D0001092A90AC6CF8091A50881FDB2CD826061
:1038E0008093A5088AE597E00E94D10FAACD0E9497
:1038F0008A10A7CD0E941610A4CD0E94110D882316
:1039000031F08091A70881608093A7089ACD8091BB
:10391000B10A9091B20A029709F493CD2091B50AA9
:103920003091B60A8091B70A9091B80A28173907E2
:10393000C8F181E090E09093B20A8093B10A80913F
:10394000B10A9091B20A019791F58091A508877FFD
:103950008093A5088091F50B80FD73CD82FD71CD1C
:1039600048EE53E060E070E04093EA0B5093EB0BBD
:103970006093EC0B7093ED0B4093EE0B5093EF0BB9
:103980006093F00B7093F10B22E839E03093F40B65
:103990002093F30B1092F20B81608D7F8B7F8093CD
:1039A000F50B4FCD1092B20A1092B10AC8CF109207
:1039B000F50B8091A50883FD44CD88608093A50810
:1039C0008EE697E091CF80E20E94BC03892B59F4E8
:1039D00060E082E897E00E9439168091A608806234
:1039E0008093A6082ECD8091BE0A0E947705909301
:1039F000C00A8093BF0A2091C10A3091C20A2817D9
:103A0000390778F58091A5088B7F8093A508809170
:103A1000010C80FD16CD82FD14CD40914B0B5091D1
:103A20004C0B70E060E04093F60B5093F70B609303
:103A3000F80B7093F90B4093FA0B5093FB0B6093C8
:103A4000FC0B7093FD0B2DEA36E13093000C2093B4
:103A5000FF0B1092FE0B81608D7F8B7F8093010C9A
:103A6000F0CC8091A50882FDECCC84608093A50801
:103A700087EA97E039CF0E94110D882309F4E1CC41
:103A800080919D0C80FDDDCC82FDDBCC8BEC9DE03C
:103A90000E94C41483EA9DE00E947B0E8FE89DE0A3
:103AA0000E947B0E8DE00E94550F80E395E7A0E019
:103AB000B0E08093920C9093930CA093940CB093ED
:103AC000950C8093960C9093970CA093980CB093C0
:103AD000990C88E298E190939C0C80939B0C82E077
:103AE00080939A0C80919D0C81608D7F8B7F809359
:103AF0009D0C83E395E0F8CEFF920F931F93CF9335
:103B0000DF93CDB7DEB7C456D1090FB6F894DEBF48
:103B10000FBECDBFFC01F1804F2D50E08E010F5F35
:103B20001F4FBC01C8010E94BA328091C60080912B
:103B3000C6008091C1008F778093C1008091C10041
:103B400088608093C100F8018E2F801B8F1588F448
:103B500081918093C6008091C00086FFFCCF809148
:103B6000C00080648093C0008091C6008091C60030
:103B7000EBCFCC59DF4F0FB6F894DEBF0FBECDBFF1
:103B8000DF91CF911F910F91FF900C942A0A4F92D1
:103B90005F926F927F928F929F92AF92BF92CF92DD
:103BA000DF92EF92FF920F931F93CF93DF93CDB7E6
:103BB000DEB7C95AD1400FB6F894DEBF0FBECDBFF5
:103BC00084E6E4E3F8E0DE01AB59BF4F01900D92CB
:103BD0008A95E1F7A896EFADA897E550E33308F092
:103BE00072C1F0E08827E850F24E8F4F0C945B30A2
:103BF000BE23631FA41E631F631F631F631F631F16
:103C0000631F631F631F631F631F511E731E8E1E7E
:103C1000981EB11E3F1E201F7B1FAA1FF51F631F8A
:103C2000631F2A208220CA202B1EF92026219C21D6
:103C30004C21F522631F631F631F2823631F631F2B
:103C4000631F631F631F631FCA23DA23E623422413
:103C50007A24DE25B71EC090A508D090A608E09073
:103C6000A708F090A80861E2CE0101960E94C2095F
:103C7000CF82D886E986FA868BE08A83E6C11092E5
:103C8000A5081092A6081092A7081092A80861E251
:103C9000CE0101960E94C2091F82188619861A86D3
:103CA000EBCFCE0187539F4F0E94E50388E0FE01D2
:103CB000E753FF4FDE01A456BE4F01900D928A9547
:103CC000E1F762E1CE0101960E94C2098FE08A838A
:103CD00088E0FE01E456FE4FDE01179601900D923A
:103CE0008A95E1F7B2C11092A5081092A608109229
:103CF000A7081092A808A9968FADA99710926B0DEE
:103D000010926A0D80936C0DAA969FADAA97992385
:103D100029F08B3019F481E00E94B71610916C0DD8
:103D200064E1CE0101960E94C2091F8388E0A5CFFD
:103D300080916C0D9CEF980F933078F08B3069F088
:103D40000E948A020E944614CE0101960E941F0A18
:103D5000CE0101960E947C1DB6C081E00E94B7167C
:103D6000F3CF60E08DEB97E00E943916EDCF8AEC3F
:103D700097E00E94D10F81E08093660B81E090E094
:103D80009093400B80933F0B1092CD0E10926C0ECF
:103D900010926B0D10926A0D1092510D10925D0DE4
:103DA0001092690D83EA9DE00E94C41487EB9DE0A8
:103DB0000E94C4148BEC9DE00E94C4148FE69DE029
:103DC0000E940A0F81E79DE00E940A0F83E79DE0B1
:103DD0000E940A0F85E79DE00E940A0F87E79DE099
:103DE0000E940A0F89E79DE00E940A0F81E39EE08E
:103DF0000E94FD0E83E39EE00E94FD0E85E39EE09F
:103E00000E94300A8091410B81608B7F8093410B2F
:103E100080E090E0A0ECB1E48093D10A9093D20AC4
:103E2000A093D30AB093D40A25E030E0AC01BD01E1
:103E300084ED97E00E9486138AE10E94550F84CF9B
:103E4000E5E6F0E0EC0FFD1F3396A9EABAE085E65F
:103E500090E08C0F9D1F4B96419151916191719112
:103E600098964D935D936D937C939B9753968E1785
:103E70009F0791F788E1E5E6F0E0EC0FFD1F339630
:103E8000DE01A750BF4F01900D928A95E1F768E1DE
:103E9000CE0101960E94C2098FE18A8388E1FE016A
:103EA000E750FF4FDE01179601900D928A95E1F7DA
:103EB000CE0101960E94AB09CE0101960E947C1DA5
:103EC00088E10E948A09C755DE4F0FB6F894DEBF1D
:103ED0000FBECDBFDF91CF911F910F91FF90EF905B
:103EE000DF90CF90BF90AF909F908F907F906F901A
:103EF0005F904F900895A9EABAE0CE0187539F4F93
:103F00002BE13BE0182F092F98964D915D916D9113
:103F10007C919B97FC014193519361937193CF01E5
:103F200053962A173B0781F788E1E12FF02FDE0136
:103F3000AF51BF4F01900D928A95E1F769E1CE0133
:103F400001960E94C2098FE18A8388E1FE01EF5148
:103F5000FF4FC2CEFE01EB59FF4F9F012A5F3F4F3B
:103F600041E050E083819091800D891709F479C672
:103F70009091940DAFE8BDE0891709F474C63296AC
:103F80002E173F0779F7AE968FADAE97AA969FADE5
:103F9000AA979093ED0E8093EE0E86E0E5E6F0E0B2
:103FA000EC0FFD1F3396DE01AC55BE4F01900D9214
:103FB0008A95E1F76AE1CE0101960E94C2098DE07F
:103FC0008A8386E0FE01EC55FE4FDE0117960190D4
:103FD0000D928A95E1F7CE0101960E94AB09CE01C0
:103FE00001960E947C1D8AE16CCF1091ED0E00912C
:103FF000EE0E612F70E090E080E00E949131AB0105
:10400000BC0120E130E08DED97E00E948613602F27
:1040100070E090E080E00E949131AB01BC0120E1B2
:1040200030E083E098E00E9486136BE1CE010196B8
:104030000E94C2098DE08A8381E08F83188782E025
:1040400089871A8784E08B870C87CE0101960E94AE
:10405000AB097ECEAA968EAD9FADAA979093B00A7B
:104060008093AF0AAC968EAD9FADAC979093B80A93
:104070008093B70AAE968EAD9FADAE979093BD0A72
:104080008093BC0AE0968EAD9FADE0979093C20AF4
:104090008093C10AE2968EAD9FADE2979093C70AD6
:1040A0008093C60AE4968EAD9FADE4979093CC0AB8
:1040B0008093CB0A8EE0E5E6F0E0EC0FFD1F33962F
:1040C000DE01A45ABE4F01900D928A95E1F76EE190
:1040D000CE0101960E94C20985E18A838EE0FE012D
:1040E000E45AFE4FDE01179601900D928A95E1F792
:1040F000CE0101960E94AB09CE0101960E947C1D63
:104100008EE1DFCEE091B70AF091B80A6091BC0A67
:104110007091BD0A4091C10A5091C20A2091C60A0D
:104120003091C70A8091CB0A9091CC0AA091AF0A36
:10413000B091B00AC25BDE4FB983A883CE54D140A0
:10414000C05BDE4FF983E883C055D140CE5ADE4FC5
:1041500079836883C255D140CC5ADE4F5983488356
:10416000C455D140CA5ADE4F39832883C655D14041
:10417000C85ADE4F99838883C855D1406FE1CE017C
:1041800001960E94C20985E18A838EE0FE01E25B0E
:10419000FE4FA2CDA9EABAE0CE018F519F4F2BE18D
:1041A0003BE0182F092F94964D915D916D917C9174
:1041B0009797FC014193519361937193CF0153966B
:1041C0002A173B0781F788E1E12FF02FDE01A75383
:1041D000BF4F01900D928A95E1F760E2CE01019602
:1041E0000E94C2098FE18A8388E1FE01E753FF4FF5
:1041F00073CD05E610E00C0F1D1F0D5F1F4FC801AA
:104200000E94B10280E1F801DE01AF5DBE4F019076
:104210000D928A95E1F762E2CE0101960E94C209F1
:1042200080E1FE01EF5DFE4FDE01179601900D92D9
:104230008A95E1F787E18A83CE0101960E94AB0956
:10424000CE0101960E947C1D82E23BCE80E1E3E438
:10425000FBE0DE01A753BF4F01900D928A95E1F775
:1042600080E1FE01E753FF4FDE01AF5EBE4F0190DC
:104270000D928A95E1F763E2CE0101960E94C20990
:1042800080E1FE01EF5EFE4FDE01179601900D9278
:104290008A95E1F787E1F1CC8090AD0A9090AE0A63
:1042A000A090B50AB090B60A8091B90A0E9477052D
:1042B0006C018091BE0A0E9477057C018091C30A3F
:1042C0000E9477058C018091C80A0E947705C05C26
:1042D000DE4F99828882C054D140CE5BDE4FB982D6
:1042E000A882C254D140CC5BDE4FD982C882C4546C
:1042F000D140CA5BDE4FF982E882C654D140C85B28
:10430000DE4F19830883C854D140C65BDE4F9983C2
:104310008883CA54D14065E2CE0101960E94C20949
:104320008EE0FE01E05CFE4FDE01179601900D92DB
:104330008A95E1F785E1A1CCA996EFADA997EF7732
:10434000E93108F029C0F0E08827E655FE4D8F4F8F
:104350000C945B30C321F421FF21FF21FF210A22AD
:10436000152220222B223A2247225322CC216C22D2
:10437000CC2181228E229922A422AF22BA22C522E8
:10438000D022DF22EA22A9968FADA99787FF27C006
:104390008FE69DE00E940A0F80917D0D9091910D16
:1043A000892B8093CD0ECE0187539F4F0E94E5034A
:1043B00088E0FE01E753FF4FDE01AC56BE4F01908F
:1043C0000D928A95E1F764E2CE0101960E94C2093E
:1043D0008FE08A8388E0FE01EC56FE4F7DCC8FE6AD
:1043E0009DE00E94100FD8CFA9968FADA99787FFA7
:1043F00003C081E79DE0CECF81E79DE0F2CFA99693
:104400008FADA99787FF03C083E79DE0C3CF83E704
:104410009DE0E7CFA9968FADA99787FF03C085E7F9
:104420009DE0B8CF85E79DE0DCCFA9968FADA99739
:1044300087FF03C087E79DE0ADCF87E79DE0D1CF41
:10444000A9968FADA99787FF03C089E79DE0A2CF0A
:1044500089E79DE0C6CFA9964FADA997441F442791
:10446000441FAA966FADAA97677085E39EE00E94ED
:104470003B0C92CFA9964FADA997441F4427441FE8
:10448000AA966FADAA97677081E89EE0F0CFA996D3
:104490004FADA997441F4427441FAA966FADAA9712
:1044A00067706C5FF1CFA9968FADA99787FF05C0A4
:1044B0008BE79DE00E94C4146FCF8BE79DE00E94C4
:1044C0007B0E80917E0D811100917B0D602F8BE71B
:1044D0009DE00E943B0D60CFA9968FADA99787FF05
:1044E00003C08FE89DE0E6CF8FE89DE00E947B0E41
:1044F0008091920D811110918F0D612F8FE89DE0B9
:10450000E8CFA9968FADA99787FF03C083EA9DE006
:10451000D1CF83EA9DE00E947B0E3ECFA9968FAD5E
:10452000A99787FF03C087EB9DE0C4CF87EB9DE091
:10453000F2CFA9968FADA99787FF03C08BEC9DE0C2
:10454000B9CF8BEC9DE0E7CFA9968FADA99787FFF8
:1045500003C08FED9DE0AECF8FED9DE0DCCFA9963F
:104560008FADA99787FF03C083EF9DE0A3CF83EFB3
:104570009DE0D1CFA9968FADA99787FF03C087E0B3
:104580009EE098CF87E09EE0C6CFA9968FADA99711
:1045900087FF03C08BE19EE08DCF8BE19EE0BBCF18
:1045A000A9968FADA99787FF05C08FE29EE00E9474
:1045B000FD0EF2CE8FE29EE00E94030FEDCEA99693
:1045C0008FADA99787FF03C081E39EE0F0CF81E321
:1045D0009EE0F2CFA9968FADA99787FF03C083E332
:1045E0009EE0E5CF83E39EE0E7CF81E20E94BC033B
:1045F0004C0180E20E94BC035C01F090770B0091BB
:10460000780B85E40E94BC036C0184E40E94BC0327
:104610009C0191E0892809F090E010E090FB10F9EE
:1046200091E0AB2809F090E090FB11F991E0CD28E2
:1046300009F090E090FB12F991E0232B09F090E053
:1046400090FB13F9F0FA14F900FB15F966E269CB57
:104650008BE0E5E6F0E0EC0FFD1F3396DE01AA5893
:10466000BE4F01900D928A95E1F7E3968FADE397E7
:10467000C058DE4F8883C058D1409BE0FE01EA5805
:10468000FE4FA0EDBEE001900D929A95E1F74091AA
:10469000D30E242F30E030937C0D20937B0D30918E
:1046A000D50E632F70E07093900D60938F0D9FE097
:1046B000EEEDFEE0DE01AF5CBE4F01900D929A95EB
:1046C000E1F72091D00E9091D20ECD5CDE4F488361
:1046D000C353D140CC5CDE4F3883C453D140CB5C54
:1046E000DE4F2883C553D140CA5CDE4F9883C65342
:1046F000D1403FE0FE01EF5CFE4FAEEDBEE0019029
:104700000D923A95E1F72093ED0E9093EE0E1092F4
:10471000F50E91E09093DB0E882341F08BE79DE04E
:104720000E947B0E8FE89DE00E947B0E8BE0E5E609
:10473000F0E0EC0FFD1F3396DE01AF57BE4F019046
:104740000D928A95E1F76AE2CE0101960E94C209B4
:104750008BE0FE01EF57FE4FDE01179601900D92A0
:104760008A95E1F782E18A83CE0101960E94AB0926
:10477000CE0101960E947C1D8AE2A3CB1092A5086F
:104780001092A6081092A7081092A80861E089E28A
:1047900098E0EACA61E3CE0101960E94C2098BE06B
:1047A0008A8385E090E0A3E0B1E08F839887A987B2
:1047B000BA874BCC62E3CE0101960E94C2098BE01E
:1047C0008A838AEC94E3A0E0B0E0EFCFE4966CAD8E
:1047D0007DAD8EAD9FADE4970E9491316B017C0160
:1047E000E0966CAD7DAD8EAD9FADE0970E949131AE
:1047F0004B015C01AC966CAD7DAD8EAD9FADAC97C1
:104800000E9491316093530B7093540B8093550B1E
:104810009093560B8092570B9092580BA092590B85
:10482000B0925A0BC0925B0BD0925C0BE0925D0B86
:10483000F0925E0B8CE0E5E6F0E0EC0FFD1F3396A6
:10484000DE01A659BE4F01900D928A95E1F763E310
:10485000CE0101960E94C20983E18A838CE0FE01A9
:10486000E659FE4FDE01179601900D928A95E1F709
:10487000CE0101960E94AB09CE0101960E947C1DDB
:1048800083E31FCB60915B0B70915C0B80915D0BA0
:1048900090915E0B0E9462316B017C016091570B1D
:1048A0007091580B8091590B90915A0B0E94623174
:1048B0004B015C016091530B7091540B8091550B2F
:1048C0009091560B0E9462312B013C0164E3CE01B2
:1048D00001960E94C20983E18A834F8258866986C5
:1048E0007A868B869C86AD86BE86CF86D88AE98AF4
:1048F000FA8AABCBA9968FADA9978983AA968FAD7B
:10490000AA978A83AB968FADAB978B83AC966FAD2E
:10491000AC976C83AD968FADAD978D83AE968FAD12
:10492000AE978E83AF968FADAF978F83E0968FADA6
:10493000E0978887617085E00E940D056C8166951F
:10494000617086E00E940D056C8162FB662760F94C
:1049500084E00E940D056C8163FB662760F988E0A6
:104960000E940D056981617085E30E940D056981D2
:104970006695617084E30E940D056981629561709E
:104980008FE10E940D05698165FB662760F98CE166
:104990000E940D05698166FB662760F98BE10E9424
:1049A0000D05698167FB662760F98AE10E940D05A4
:1049B0006C816295617089E10E940D056C8165FBD7
:1049C000662760F988E10E940D056C8166FB662709
:1049D00060F987E10E940D056C8167FB662760F92D
:1049E0008EE10E940D056D8161708DE10E940D05C3
:1049F0006D816695617086E10E940D056D8162FB97
:104A0000662760F981E10E940D056D8163FB6627D1
:104A100060F98FE00E940D056D81629561708CE0F8
:104A20000E940D056D8165FB662760F98EE00E948E
:104A30000D056B81617085E20E940D056B816695A5
:104A4000617084E20E940D056B8162FB662760F94C
:104A500087E20E940D056B8163FB662760F986E2A1
:104A60000E940D056B816295617089E20E940D05BF
:104A70006B8165FB662760F988E20E940D056B81FA
:104A800066FB662760F98BE20E940D056B8167FB70
:104A9000662760F98AE20E940D056A8161708CE2E6
:104AA0000E940D056A81669561708EE20E940D0577
:104AB0006A8162FB662760F98DE20E940D056A81BA
:104AC00063FB662760F98FE20E940D056A8162959B
:104AD000617081E30E940D056A8165FB662760F9BC
:104AE00080E30E940D056A8166FB662760F983E317
:104AF0000E940D056A8167FB662760F982E30E94C8
:104B00000D056D8166FB662760F987E00E940D0543
:104B10006D8167FB662760F989E00E940D056E8153
:104B200061708AE00E940D056E81669561708BE070
:104B30000E940D05C753DF4F1882C95CD040C65391
:104B4000DF4F1882CA5CD040C553DF4F1882CB5C60
:104B5000D040C453DF4F1882CC5CD040C353DF4FEA
:104B60001882CD5CD040C253DF4F1882CE5CD0405B
:104B7000C153DF4F1882CF5CD040C053DF4F188243
:104B8000C05DD040CE0187539F4F0E94E50388E06F
:104B9000FE01E753FF4FDE01A457BE4F01900D9277
:104BA0008A95E1F765E3CE0101960E94C2098FE084
:104BB0008A8388E0FE01E457FE4F8EC8CE0101963D
:104BC0000E941F0ACE0101960E947C1D1092AD0B1F
:104BD0006AE77AE08DEC9AE00E949C1265E57AE043
:104BE00080EE9AE00E949C1260E37AE083EF9AE004
:104BF0000E949C126BE07AE08CE29BE00E949C1287
:104C000066EE79E086E09BE00E949C1261EC79E020
:104C100089E19BE00E949C128091510B9091520B74
:104C2000B0E0A0E08093A20B9093A30BA093A40B01
:104C3000B093A50B8093A60B9093A70BA093A80B02
:104C4000B093A90B89E792E19093AC0B8093AB0BE7
:104C50001092AA0B8091AD0B83608B7F8093AD0B7C
:104C600032C9ABE7BDE013969C911397992309F4E1
:104C700086C915969C911597891381C91B965C93DB
:104C80004E931A97848190E08D939C9378C90C94ED
:104C9000C71DE4E3F8E084E6DF011D928A95E9F799
:104CA0001092A2080C942A0A1F920F920FB60F922C
:104CB00011242F933F938F939F93AF93BF93809132
:104CC0009A0890919B08A0919C08B0919D08309102
:104CD000990823E0230F2D3758F50196A11DB11D2A
:104CE0002093990880939A0890939B08A0939C081E
:104CF000B0939D0880919E0890919F08A091A00874
:104D0000B091A1080196A11DB11D80939E089093BA
:104D10009F08A093A008B093A108BF91AF919F9165
:104D20008F913F912F910F900FBE0F901F9018956C
:104D300026E8230F0296A11DB11DD2CF1F920F921C
:104D40000FB60F9211240BB60F922F933F934F93F0
:104D50005F936F937F938F939F93AF93BF93EF93E3
:104D6000FF93E0911E02F0911F021995FF91EF91C0
:104D7000BF91AF919F918F917F916F915F914F9173
:104D80003F912F910F900BBE0F900FBE0F901F9071
:104D900018951F920F920FB60F9211240BB60F9217
:104DA0002F933F934F935F936F937F938F939F9333
:104DB000AF93BF93EF93FF93E0911C02F0911D021C
:104DC0001995FF91EF91BF91AF919F918F917F9135
:104DD0006F915F914F913F912F910F900BBE0F906C
:104DE0000FBE0F901F9018951F920F920FB60F9243
:104DF00011240BB60F922F933F934F935F936F93B2
:104E00007F938F939F93AF93BF93EF93FF93E09123
:104E10001202F09113021995FF91EF91BF91AF919A
:104E20009F918F917F916F915F914F913F912F91C2
:104E30000F900BBE0F900FBE0F901F9018951F92F2
:104E40000F920FB60F9211240BB60F922F933F9330
:104E50004F935F936F937F938F939F93AF93BF9382
:104E6000EF93FF93E0911002F09111021995FF91D9
:104E7000EF91BF91AF919F918F917F916F915F91D2
:104E80004F913F912F910F900BBE0F900FBE0F903F
:104E90001F9018951F920F920FB60F9211240BB608
:104EA0000F922F933F934F935F936F937F938F93C3
:104EB0009F93AF93BF93EF93FF93E0911A02F0910A
:104EC0001B021995FF91EF91BF91AF919F918F9127
:104ED0007F916F915F914F913F912F910F900BBEFA
:104EE0000F900FBE0F901F9018951F920F920FB644
:104EF0000F9211240BB60F922F933F934F935F9312
:104F00006F937F938F939F93AF93BF93EF93FF9391
:104F1000E0911802F09119021995FF91EF91BF915C
:104F2000AF919F918F917F916F915F914F913F9141
:104F30002F910F900BBE0F900FBE0F901F901895E2
:104F40001F920F920FB60F9211240BB60F922F9350
:104F50003F934F935F936F937F938F939F93AF9301
:104F6000BF93EF93FF93E0911602F091170219950A
:104F7000FF91EF91BF91AF919F918F917F916F9131
:104F80005F914F913F912F910F900BBE0F900FBEED
:104F90000F901F9018951F920F920FB60F92112429
:104FA0000BB60F922F933F934F935F936F937F9323
:104FB0008F939F93AF93BF93EF93FF93E09114026E
:104FC000F09115021995FF91EF91BF91AF919F91CB
:104FD0008F917F916F915F914F913F912F910F90A2
:104FE0000BBE0F900FBE0F901F9018951F920F923F
:104FF0000FB60F9211240BB60F922F933F934F933E
:105000005F936F937F938F939F93AF93BF93EF9330
:10501000FF9389EA98E00E947106FF91EF91BF919A
:10502000AF919F918F917F916F915F914F913F9140
:105030002F910F900BBE0F900FBE0F901F901895E1
:105040001F920F920FB60F9211240BB60F922F934F
:105050008F939F93EF93FF93E091B908F091BA0873
:105060008081E091BF08F091C00882FD1DC0908151
:105070008091C2088F5F8F732091C308821741F01F
:10508000E091C208F0E0E755F74F958F8093C20892
:10509000FF91EF919F918F912F910F900BBE0F90E9
:1050A0000FBE0F901F9018958081F2CF1F920F9224
:1050B0000FB60F9211240BB60F922F933F934F937D
:1050C0005F936F937F938F939F93AF93BF93CF9390
:1050D000EF93FF938091C10080688093C10080911D
:1050E000C10088608093C100C091C6008091B90B57
:1050F0008E7F8093B90B8091A208843658F0E4E348
:10510000F8E084E6DF011D928A95E9F71092A20883
:105110000E942A0AE091A208E33020F0809135082D
:105120008093A40881E08E0F8093A208F0E0EC5CED
:10513000F74FC0839091A40889136BC090913408F5
:10514000913009F05AC040EA5FE060E070E04093BF
:10515000BA0B5093BB0B6093BC0B7093BD0B409389
:10516000BE0B5093BF0B6093C00B7093C10B29E42F
:1051700036E23093C40B2093C30B1092C20B909174
:10518000C50B93609B7F9093C50B50E040E090E08F
:10519000BC0161507109252F30E0261737073CF418
:1051A0002C5C374FF9012081420F5F5FF4CF8D5C9B
:1051B000974FDC018C9160E048131CC087E496E2B5
:1051C0000E9414031092A2080E942A0AFF91EF91F4
:1051D000CF91BF91AF919F918F917F916F915F918F
:1051E0004F913F912F910F900BBE0F900FBE0F90DC
:1051F0001F90189581E09AE0E3CFE4E3F8E084E6BD
:10520000DF011D928A95E9F71092A2080E942A0AEE
:10521000D9CF8AE090E0A0E0B0E08093AE0B90930D
:10522000AF0BA093B00BB093B10B8093B20B9093E4
:10523000B30BA093B40BB093B50B89E496E29093B3
:10524000B80B8093B70B1092B60B8091B90B8160AD
:105250008D7F8B7F8093B90BB7CF1F920F920FB6C4
:105260000F9211240BB60F92FF920F931F932F935F
:105270003F934F935F936F937F938F939F93AF93DE
:10528000BF93CF93DF93EF93FF93C2EADBE010E08D
:1052900000E08CE0F82EF09EF001F19EF00D11245C
:1052A000E355F44F808180FF23C08C819D81AE81C6
:1052B000BF810197A109B1098C839D83AE83BF8310
:1052C000892B8A2B8B2BA1F480818460808381FFC2
:1052D0002DC088819981AA81BB818C839D83AE83F7
:1052E000BF8389859A85009719F068850E94140309
:1052F0000F5F1F4F2C960632110569F6FF91EF9153
:10530000DF91CF91BF91AF919F918F917F916F91DD
:105310005F914F913F912F911F910F91FF900F90AF
:105320000BBE0F900FBE0F901F9018958E7F80833D
:10533000D8CF1F920F920FB60F9211240BB60F9277
:105340002F933F934F935F936F937F938F939F938D
:10535000AF93BF93EF93FF93F0E0E0E01995FF91D7
:10536000EF91BF91AF919F918F917F916F915F91DD
:105370004F913F912F910F900BBE0F900FBE0F904A
:105380001F9018951F920F920FB60F9211240BB613
:105390000F922F933F934F935F936F937F938F93CE
:1053A0009F93AF93BF93EF93FF93F0E0E0E01995E5
:1053B000FF91EF91BF91AF919F918F917F916F91ED
:1053C0005F914F913F912F910F900BBE0F900FBEA9
:1053D0000F901F901895FC0117821086108289E0AB
:1053E000838381E08483858386831182168A158A6C
:1053F0008FEF838B148A7287618708951F93CF93F1
:10540000DF93EC01162F60E0812F0E943B05612F96
:1054100070E0FB01E053FC4FE491E883FB01E657A9
:10542000FC4FE491F0E0EE0FFF1FE059FC4F859137
:1054300094919A8389831B861D861C861A861986F9
:1054400018861F821E821D821C821B82DF91CF91D3
:105450001F910895CF93DF93EC01862F698361E05C
:105460000E943B05CE01DF91CF910C940A0FCF93A0
:10547000DF93EC01862F198218824B836C832D8376
:105480001E829FEF998721E030E03B872A872FEF2C
:1054900030E03B8B2A8B411103C061E00E943B0549
:1054A000CE01DF91CF910C94C4147F928F929F9282
:1054B000AF92BF92CF92DF92EF92FF920F931F9322
:1054C000CF93DF93CDB7DEB72F970FB6F894DEBF3B
:1054D0000FBECDBF1092AC081092AB0888EE93E0DF
:1054E000A0E0B0E08093AD089093AE08A093AF0821
:1054F000B093B0088AE392E09093AA088093A90839
:1055000085ED90E09093B6088093B50884ED90E027
:105510009093B8088093B70880ED90E09093BA0814
:105520008093B90881ED90E09093BC088093BB080C
:1055300082ED90E09093BE088093BD0886ED90E0E8
:105540009093C0088093BF081092C2081092C308BD
:105550001092C4081092C508E2EAFBE08AE69DE0DA
:10556000108211821282138214821582168217828F
:1055700010861286118613863C968E179F0781F738
:105580001092BE091092BF091092C009F894809140
:105590007A00806880937A007894F89480917A00F9
:1055A0008E7F80937A0080917A00866080937A0063
:1055B0007894F89480917C008F7780937C00809120
:1055C0007C00806480937C0078946FE381E99AE0AA
:1055D0000E94FE2961E97AE08AE79AE00E94EB29BD
:1055E0006EE38CE69AE00E94FE296CE67AE085E59F
:1055F0009AE00E94EB2961E487E49AE00E94FE2988
:1056000067E47AE080E39AE00E94EB2960E482E2BA
:105610009AE00E94FE2962E27AE08BE09AE00E9422
:10562000EB2963E48DEF99E00E94FE296DEF79E0AC
:1056300086EE99E00E94EB2962E488ED99E00E94F1
:10564000FE2968ED79E081EC99E00E94EB2982E087
:1056500090E09093AA0A8093A90A2FE93AE0309348
:10566000AC0A2093AB0A9093B20A8093B10A84EA01
:105670009AE09093B40A8093B30A88E38093B90ABE
:105680001092BB0A1092BA0A84E190E09093BD0A8E
:105690008093BC0A2BE32093BE0A1092C00A10929A
:1056A000BF0A9093C20A8093C10A2AE32093C30AD7
:1056B0001092C50A1092C40A9093C70A8093C60A32
:1056C0002DE32093C80A1092CA0A1092C90A909337
:1056D000CC0A8093CB0AEDECFAE08FE39BE01082DA
:1056E0001182128213821482158216821782739697
:1056F0008E179F07A1F705E00093650B1092660BCC
:105700001092670B1092680B10926A0B1092690B43
:1057100010926F0B1092700B1092720B1092710B13
:105720001092770B1092780B1092790B8AE090E030
:1057300090936C0B80936B0B90936E0B80936D0B1F
:105740008FE090E09093740B8093730B9093760BA3
:105750008093750B18E01093410B8AE79BE09093C0
:105760009B0B80939A0B80E280939C0B10929D0B75
:1057700010929E0B10929F0B1092A10B1092A00BF7
:1057800010926B0D10926A0D10926C0D10926E0DAE
:1057900010926D0D65E38FE69DE00E942A2A64E376
:1057A00081E79DE00E942A2A6FE183E79DE00E9445
:1057B0002A2A6CE185E79DE00E942A2A6BE187E7AF
:1057C0009DE00E942A2A6AE189E79DE00E942A2A38
:1057D00021E041E065E08BE79DE00E94372A24E06C
:1057E00041E064E08FE89DE00E94372A23E040E03A
:1057F00069E183EA9DE00E94372A26E040E068E103
:1058000087EB9DE00E94372A27E040E067E18BECC0
:105810009DE00E94372A28E040E06EE18FED9DE098
:105820000E94372A29E040E06DE183EF9DE00E946D
:10583000372A2AE040E066E187E09EE00E94372AAE
:105840002BE040E061E18BE19EE00E94372A8FE08F
:10585000782E70922F0E1092300E61E08FE00E9431
:105860003B058FE29EE00E94FD0E8CE08093310E9E
:105870001092320E61E00E943B0581E39EE00E949F
:10588000FD0E8EE08093330E1092340E61E00E9484
:105890003B0583E39EE00E94FD0EECE4F2E0F09312
:1058A000360EE093350E86E592E09093380E8093A5
:1058B000370E1093390E8EE09CE090933B0E809350
:1058C0003A0E86E197E190933D0E80933C0E109244
:1058D0003E0E1092400E10923F0E1092420E109209
:1058E000410E1092440E1092430E1092510E1092DF
:1058F000520E1092530E1092540E10925D0E109292
:105900005E0E1092600E10925F0E1092640E109256
:10591000630E1092650E1092660E1092670E109232
:10592000680E9DEC892E9CEC992EA92C9DE3B92E36
:105930008092590E90925A0EA0925B0EB0925C0E1D
:1059400024E6C22ED12CE12CF12CC092550ED0921F
:10595000560EE092570EF092580E40E050E060EA8A
:1059600070E44093450E5093460E6093470E70933B
:10597000480E80E090E0A0E4B0E48093490E90935C
:105980004A0EA0934B0EB0934C0E80934D0E909305
:105990004E0EA0934F0EB093500E10926C0E1093BB
:1059A000740E1092750E10927E0E1092760E10925A
:1059B000770E1092780E1092790E10927A0E109245
:1059C0007B0E10927C0E10927D0E10927F0E109224
:1059D000800E28E030E03093620E2093610EF09349
:1059E000820EE093810EEEE4F2E0F093840EE093F9
:1059F000830E1093850EE2E0FCE0F093870EE093B7
:105A0000860EE3EEF6E1F093890EE093880E109295
:105A10008A0E10928C0E10928B0E10928E0E109297
:105A20008D0E1092900E10928F0E10929D0E10926D
:105A30009E0E10929F0E1092A00E1092A90E109220
:105A4000AC0E1092AB0E1092B00E1092AF0E1092E0
:105A5000B10E1092B20E1092B30E1092B40E80924C
:105A6000A50E9092A60EA092A70EB092A80EC0927C
:105A7000A10ED092A20EE092A30EF092A40E40933B
:105A8000910E5093920E6093930E7093940E8093A8
:105A9000950E9093960EA093970EB093980E8093C8
:105AA000990E90939A0EA0939B0EB0939C0E109219
:105AB000B80E1093C00E1092C10E1092CA0E109222
:105AC000C20E1092C30E1092C40E1092C50E109208
:105AD000C60E1092C70E1092C80E1092C90E1092E8
