:100000000C940B020C94F1280C94C6280C949B2899
:100010000C9470280C9445280C941A280C94EF2703
:100020000C94C4270C943C020C943C020C943C02AB
:100030000C943C020C943C020C943C020C943C0248
:100040000C943C020C943C020C943C020C943C0238
:100050000C943C020C943C020C943C020C947A27C5
:100060000C943C020C947C290C943C020C943C02B1
:100070000C94BF2A0C94E82A0C943C020C943C0289
:100080000C943C020C943C020C943C020C943C02F8
:100090000C943C020C943C020C943C020C943C02E8
:1000A0000C943C020C943C020C943C020C943C02D8
:1000B0000C943C020C943C020C943C020C94532A89
:1000C0000C943C020C943C020C943C020C94462987
:1000D0000C941C290C943C020C943C020C943C02A1
:1000E0000C943C020C9439060C9446210C94520D4D
:1000F0000C94961D0C9448150C94F3050C94AC0DBF
:100100000C941A0D0C94D0050C947D200C949D0D2C
:100110000C947D1D0C940C250C94B31A0C947F0345
:100120000C94E81F0C94A2160C94991D0C94DA18E8
:100130000C948B180C9473200C94141B0C94CB1FF0
:100140000C9468250C94B1180C948B1E0C940C0D17
:100150000C9477030C940F220C94CD1B0C94750D0A
:100160000C9487200C94A2050C949C1D0C944E03B7
:100170000C945C0D0C945C1B0C949C1B0C94440321
:100180000C944A170C9459030C9469190C94A30508
:100190000C9436200C94531B0C94E41A0C947205A6
:1001A0000C9482050C947B150C94660D0C946C1BBE
:1001B0000C9489240C948A050C94DD1B0C94D32296
:1001C0000C945F030C94480D0C9477220C949020AF
:1001D0000C94400D0C94E0080C947F0D0C94520389
:1001E0000C9400200C942E0D0C9484030C94860621
:1001F0000C94E4240C946D270C946F270C94A52088
:100200000C94662B0C9455230C94210C0C945217CF
:100210000C94380D0C942F230C94A70D0C94691B8F
:100220000C94111C0C94150D0C9413090C94890D4D
:100230000C944B180C9469030C941A270C948903A2
:100240000C94F0240C9485030C949D160C94630379
:100250000C9498160C9400250C9402230C94930D86
:100260000C9401060C944A1E0C94240D0C947B03F0
:100270000C94600C0C9414200C944A030C94D81722
:100280000C94671D0C949A050C9456030C94BF0EA5
:100290000C9402210C94451B0C9492050C94F21DB5
:1002A0000C94DA210C9471030C9496090C94731D30
:1002B0000C94880B0C946D030C94EB1A0C94BC24D6
:1002C0000C94DF050C94B9230C94961F0C94A02574
:1002D0000C943219005EBCE2613FDD83C29C7E203B
:1002E000A3FD1F41009D23BE46DB65F88C11AF3294
:1002F000CA57E97400002100240027002A002D00BD
:100300003000330001010000040107010A01000070
:100310002200250028002B002E00310034000201AD
:100320000000050108010B01000020002300260049
:1003300029002C002F0032000001000003010601FB
:10034000090105050505070508080808020202025B
:100350000A0A080804040404010101010101010161
:100360000303030303030303040707070C0C0C0C2C
:100370000C0C0C0C02020202060606060606060615
:100380000B0B0B0B0B0B0B0B0102102020080810A2
:1003900020401020408002010201080402010102F5
:1003A00004081020408080402010080402018004CE
:1003B0000201804020100804020108040201010229
:1003C0000408102040800102040810204080000032
:1003D0000A0B02090C0D0E080703040100000000BF
:1003E000000000000000000000000000000000000D
:1003F00000000000000000000000121110000000CA
:1004000000000000000000000000000000000000EC
:1004100000000000662B11241FBECFEFD1E2DEBF2B
:10042000CDBF00E00CBF1AE0A0E0B2E0E8E8F9E6DA
:1004300000E00BBF02C007900D92A430B107D9F7BE
:1004400020E1A4E0BAE001C01D92A436B207E1F7B2
:1004500012E0CBE0D2E000E006C021970109802F36
:10046000FE010E945A32CA30D10780E00807A9F77E
:100470000E947C2F0C94C2340C940000EFE7FAE049
:10048000A089B18982E08C93A485B5851C92A6854C
:10049000B78580E18C93108EA489B58986E08C9312
:1004A000A289B3898C9180618C93A289B3898C9144
:1004B00088608C93A289B3898C9180688C93028820
:1004C000F389E02D80818F7D808308958091320FA4
:1004D000882311F181E090E09093310F8093300FE9
:1004E0001092481010924A101092491010924E101B
:1004F00010924C1010924B1010924D1080913B10A6
:100500008093461080913C108093471010925110B8
:1005100010925010109252100895FC0190E1A1E544
:10052000BDE001900D929A95E1F780915D0D90915B
:100530005E0DB0E0A0E0E0EBFDE08093280E90932C
:10054000290EA0932A0EB0932B0E80932C0E90931D
:100550002D0EA0932E0EB0932F0E88E89BE0909363
:10056000320E8093310E1092300EA3E3BEE08C91D8
:1005700083608B7F8C9380915F0D9091600DB0E0D4
:10058000A0E080839183A283B38384839583A68331
:10059000B7838BE89EE1928781871086EBEBFDE0C5
:1005A000808183608B7F808381E59DE0909328101C
:1005B0008093271084E690E090930F1080930E10A4
:1005C0009093C30F8093C20F08959C014FB7F89486
:1005D0008091960BE091950B81111CC081E08E0FEC
:1005E0008093950B93E0E99FF0011124E45EF44FB2
:1005F000318320836283883211F41092950B90919D
:10060000950B8091940B981303C081E08093960B17
:100610004FBF08959091940B9F5F9832A1F09093F3
:10062000940B91E09E0F9093950B83E0E89FF0016F
:100630001124E45EF44F318320836283983241F7C2
:100640001092950BE5CF1092940BEBCF8150823135
:1006500008F05AC0E82FF0E08827EE5CFC4F8F4F7F
:100660000C945A325203560344034A034E03840344
:1006700059035F03630369036D03710377037B030E
:1006800084037F0385038903809180008F778093A3
:1006900080000895809180008F7DF9CF8091800047
:1006A000877FF5CF84B58F7784BD089584B58F7D1E
:1006B000FBCF8091B0008F778093B0000895809138
:1006C000B0008F7DF9CF809190008F77809390005C
:1006D0000895809190008F7DF9CF80919000877F61
:1006E000F5CF8091A0008F778093A000089580912E
:1006F000A0008F7DF9CF8091A000877FF5CF8091FA
:1007000020018F77809320010895809120018F7DB3
:10071000F9CF80912001877FF5CFCF93DF93282FEA
:1007200030E0F901E253FC4F8491F901E857FC4FA6
:10073000D491F901EE5BFC4FC491CC23A1F081115F
:100740000E942603EC2FF0E0EE0FFF1FE85DFC4F48
:10075000A591B491EC91ED2381E090E009F480E063
:10076000DF91CF91089580E090E0FACFCF93DF93AF
:10077000EC01188219821A821B821C821D821E8241
:100780001F828EE00E948D039A8180FB90F99A83EC
:100790008DE00E948D039A8180FB91F99A838CE011
:1007A0000E948D039A8180FB92F99A83E0E3FFE037
:1007B0008881938590FB85F9928990FB86F9918DCC
:1007C00090FB87F98883898190A190FB80F98983C8
:1007D00089E10E948D03998180FB91F9998388E1D9
:1007E0000E948D03998180FB92F9998387E10E9491
:1007F0008D03998180FB93F9998380E10E948D0399
:10080000998180FB94F999838FE00E948D039981EF
:1008100080FB95F9998386E10E948D03998180FB85
:1008200096F9998381E10E948D03998180FB97F964
:1008300099838CE20E948D039A8180FB93F99A83BD
:100840008EE20E948D039A8180FB94F99A838DE257
:100850000E948D039A8180FB95F99A838FE20E9412
:100860008D039A8180FB96F99A8385E20E948D031D
:100870009A8180FB97F99A8384E20E948D039B8181
:1008800080FB90F99B8387E20E948D039B8180FB14
:1008900091F99B8386E20E948D039B8180FB92F9F4
:1008A0009B8389E20E948D039B8180FB93F99B834C
:1008B00088E20E948D039B8180FB94F99B838BE2ED
:1008C0000E948D039B8180FB95F99B838AE20E94A5
:1008D0008D039B8180FB96F99B8385E30E948D03AA
:1008E000988180FB90F998838FE10E948D03988115
:1008F00080FB92F998838BE10E948D03988180FBA5
:1009000091F998838DE10E948D03988180FB93F982
:1009100098838EE10E948D03988180FB94F99883DF
:10092000DF91CF9108951F93CF93DF93282F30E06D
:10093000F901E253FC4F8491F901E857FC4FD4913F
:10094000F901EE5BFC4FC491CC23A9F0162F811165
:100950000E942603EC2FF0E0EE0FFF1FE25FFC4F3A
:10096000A591B4918FB7F894EC91111108C0D0956E
:10097000DE23DC938FBFDF91CF911F910895DE2B93
:10098000F8CFCF93DF9390E0FC01E857FC4F249120
:100990008E5B9C4FFC0184918823C9F090E0880F06
:1009A000991FFC01EC50FD4FA591B491FC01E25F51
:1009B000FC4FC591D49161110DC09FB7F8948C91F3
:1009C000209582238C938881282328839FBFDF91E1
:1009D000CF910895623051F49FB7F8943C91822FE3
:1009E000809583238C93E8812E2BEFCF8FB7F894DB
:1009F000EC912E2B2C938FBFEACF863308F08653D1
:100A000020917B00982F9870277F922B90937B00EA
:100A10008770806480937C0080917A0080648093EA
:100A20007A0080917A0086FDFCCF809178009091C9
:100A3000790008953FB7F8948091740A9091750AEF
:100A4000A091760AB091770A26B5A89B05C02F3FE2
:100A500019F00196A11DB11D3FBFBA2FA92F982FE4
:100A60008827BC01CD01620F711D811D911D42E0DF
:100A7000660F771F881F991F4A95D1F708958F92A7
:100A80009F92AF92BF92CF92DF92EF92FF926B0153
:100A90007C010E941A054B015C01C114D104E104E0
:100AA000F104B9F00E941A05681979098A099B09AD
:100AB000683E73408105910580F321E0C21AD10898
:100AC000E108F10888EE880E83E0981EA11CB11C95
:100AD000E4CFFF90EF90DF90CF90BF90AF909F90CA
:100AE0008F900895CF93C0916D0A81E0C827C0937D
:100AF0006D0A61E084E30E94C1046C2F84E3CF910E
:100B00000C949304E5E7FCE083819481019694833F
:100B100083830895E5E7FCE08085918501969187C0
:100B200080870895E5E7FCE08585968501969687A0
:100B300085870895E5E7FCE0828993890196938B88
:100B4000828B08950895AF92BF92CF92DF92EF9279
:100B5000FF920F931F93CF93DF936C017B018B0167
:100B6000040F151FEB015E01AE18BF08C017D107B7
:100B700059F06991D601ED91FC910190F081E02D41
:100B8000C6011995892B79F7C501DF91CF911F9186
:100B90000F91FF90EF90DF90CF90BF90AF900895AE
:100BA000FC01538D448D252F30E0842F90E0821B73
:100BB000930B541710F0CF96089501970895FC01F8
:100BC000918D828D981761F0A28DAE0FBF2FB11D50
:100BD0005D968C91928D9F5F9F73928F90E00895A8
:100BE0008FEF9FEF0895FC01918D828D981731F062
:100BF000828DE80FF11D858D90E008958FEF9FEFB6
:100C00000895FC01918D228D892F90E0805C9F4F8B
:100C1000821B91098F73992708958FE79AE00E94AC
:100C2000010621E0892B09F420E0822F0895FC01C0
:100C3000A48DA80FB92FB11DA35ABF4F2C91848D3D
:100C400090E001968F739927848FA689B7892C939A
:100C5000A089B1898C91837080648C93938D848DED
:100C6000981306C00288F389E02D80818F7D8083F0
:100C70000895EF92FF920F931F93CF93DF93EC01B0
:100C800081E0888F9B8D8C8D98131AC0E889F98933
:100C9000808185FF15C09FB7F894EE89FF89608336
:100CA000E889F98980818370806480839FBF81E0B7
:100CB00090E0DF91CF911F910F91FF90EF900895F9
:100CC000F62E0B8D10E00F5F1F4F0F731127E02ED4
:100CD0008C8D8E110CC00FB607FCFACFE889F9890C
:100CE000808185FFF5CFCE010E941706F1CFEB8DF5
:100CF000EC0FFD2FF11DE35AFF4FF0829FB7F894E0
:100D00000B8FEA89FB8980818062CFCFCF93DF93FD
:100D1000EC01888D8823B9F0AA89BB89E889F98913
:100D20008C9185FD03C0808186FD0DC00FB607FC48
:100D3000F7CF8C9185FFF2CF808185FFEDCFCE017B
:100D40000E941706E9CFDF91CF91089580E090E0EF
:100D5000892B49F080E090E0892B29F00E94000067
:100D600081110E94000080E090E0892B49F080E032
:100D700090E0892B29F00E94000081110E94000060
:100D800080E090E0892B29F00E940D0681110E94DD
:100D9000000080E090E0892B49F080E090E0892B12
:100DA00029F00E94000081110C9400000895DC01DC
:100DB00080E0615090F09D919827E92FEF70F0E06E
:100DC000EC52FD4F2491E92FE295EF70F0E0EC51E9
:100DD000FD4FE491822F8E27ECCF0895DC012C91FA
:100DE0001196ED91FC91F8948181822B81839281FF
:100DF000322F30959323928387E090E00197F1F7AB
:100E000081818323818383E290E00197F1F79081D0
:100E10007894EFECF0E03197F1F7922381E009F458
:100E200080E00895FC0190810180F281E02D292F5E
:100E3000209560FF14C0F89482818223828381818F
:100E4000892B8183A3E2B0E01197F1F78281982B7F
:100E50009283789487ED90E00197F1F70895F894E4
:100E60008281822382838181892B8183AFEFB0E0ED
:100E70001197F1F78281982B928378948FE090E01C
:100E8000EBCFDF92EF92FF920F931F93CF93DF93FD
:100E9000EC01D62EE42E08E010E0FF24F39461E08C
:100EA0008D2D8F2109F460E0CE010E941207FF0C06
:100EB00001501109A1F7E11010C0F894E981FA81FD
:100EC00091818881809589238183E981FA8192814A
:100ED00088818095892382837894DF91CF911F91B7
:100EE0000F91FF90EF90DF900895EF92FF920F9394
:100EF0001F93CF93DF938C017B0140E065E50E9457
:100F00004107E70188E0E80EF11C699140E0C80163
:100F10000E944107CE15DF05C1F7DF91CF911F91E8
:100F20000F91FF90EF900895FC0190810180F28174
:100F3000E02DF8948181292F209582238183789454
:100F40003DE743E050E0315029F1DA011197F1F724
:100F500080818923C1F3F8948281822382838181F5
:100F6000892B81837894ABE7B7E01197F1F7F89478
:100F7000818182238183A3E1B1E01197F1F7808120
:100F8000982381E009F080E07894E3E6F6E0319779
:100F9000F1F7089580E008958F929F92AF92BF92EB
:100FA000CF92DF92EF92FF920F931F93CF93DF9335
:100FB00000D01F921F92CDB7DEB78C01DC011996CD
:100FC0008D919C910E94940740E06CECF801818522
:100FD00092850E944107D8014C9164E419968D9145
:100FE0009C910E9441078FB7F894C090700AD090EE
:100FF000710AE090720AF090730A8FBFF801848141
:10100000811120C081E08983CA82DB82EC82FD826B
:1010100029813A814B815C816D8170E080E090E0B4
:101020000F900F900F900F900F90DF91CF911F9125
:101030000F91FF90EF90DF90CF90BF90AF909F9077
:101040008F90089585818823F9F0808181111CC0DB
:10105000F801818592850E94EE06813099F22FB7C2
:10106000F8948091700A9091710AA091720AB091DF
:10107000730A2FBF8C199D09AE09BF098E3E92409D
:10108000A105B10528F3BECFD8011396EC91E95024
:101090008EEE92E0E33038F4F0E0EE0FFF1FE05DFB
:1010A000FD4F808191814C01B12CA12CF8018181EF
:1010B000882321F060E082810E949304C501B4017D
:1010C0000E943F05D80111968C911197882309F44D
:1010D00099CF61E012968C910E94930493CF4F9226
:1010E0005F926F927F928F929F92AF92BF92CF92B8
:1010F000DF92EF92FF920F931F93CF93DF938C01B8
:101100007B01EA01FC01818592850E949407882376
:10111000D9F1B701F801818592850E94750740E0F9
:101120006EEBF801818592850E9441076E015E0198
:10113000F9E0AF0EB11C7E01F8018184928488E051
:10114000682E712C512C44244394C4010E94EE0655
:1011500081115428440CF1E06F1A7108B1F7F701BE
:1011600051927F01AE16BF0639F7F801818592854D
:101170000E949407813041F4F60181916F01811141
:1011800005C0EE15FF05C1F790E008C068E0CE018C
:101190000E94D70691E028852813F6CF892FDF918A
:1011A000CF911F910F91FF90EF90DF90CF90BF9064
:1011B000AF909F908F907F906F905F904F90089529
:1011C000E9E8FCE0A281B38113968D919C9114977C
:1011D00014961C921E92139795838483A285B385DF
:1011E00013968D919C91149714961C921E921397AE
:1011F00095878487A289B38913968D919C911497C2
:1012000014961C921E921397958B848BA28DB38D8E
:1012100013968D919C91149714961C921E9213977D
:10122000958F848F08951092030EEBE7FAE080818A
:10123000877F80830895CF93DF93A0E0B2E0FD0124
:1012400090E0219131912817390721F4EF0122977D
:101250001982188222E0E031F20799F78D919D9171
:10126000892B41F482E0A031B807C1F781E0DF911A
:10127000CF91089580E0FBCFFC0121812150330BF9
:1012800070E060E0472F50E0421753073CF4480FEE
:10129000591FFA014081640F7F5FF4CF820F931FC3
:1012A000FC0160830895FC0181E08083658385E013
:1012B000828380914F0DA0E0B2E020E132E04D91B9
:1012C0005D91452BE1F42A173B07C9F791E08F7E2A
:1012D00090FF80619091040A90FB81F98383F894D8
:1012E0009091AD0D8091AC0D91110BC09091AB0D13
:1012F000981307C07894148287E08183089590E062
:10130000E6CF90E0A091A80DB091A90DA80FB91F4C
:101310002C9101966091AA0D70E00E944632809354
:10132000AC0D1092AD0D78942483E6CFCF93DF936C
:10133000CDB7DEB7C456D1090FB6F894DEBF0FBEE5
:10134000CDBF66E0CE0101960E945309CE01019601
:101350000E943C09CC59DF4F0FB6F894DEBF0FBE98
:10136000CDBFDF91CF910895CF93DF93EC0167E07C
:101370000E945309CE01DF91CF910C943C09E1EC1E
:10138000F0E080818068808308951F93CF93DF937E
:10139000EC0119861EAAFC01E05CFF4F10829FAD94
:1013A000319680E0981719F011928F5FFBCFFE0104
:1013B000E55BFF4F10823197108210E08FAD181758
:1013C00050F4EA81FB81E10FF11D60E080810E9411
:1013D00093041F5FF3CFDF91CF911F910895CF93B7
:1013E000DF93EC010E94C509ED81FE812F813885D4
:1013F0008CA99DA9B0E0A0E080839183A283B383F0
:1014000084839583A683B783328721878BE0808787
:10141000838581608D7F8B7F8387DF91CF91089556
:101420003F924F925F926F927F928F929F92AF9274
:10143000BF92CF92DF92EF92FF920F931F93CF93C1
:10144000DF9300D000D0CDB7DEB79E838D83062F0B
:1014500010E08FB7F894C090700AD090710AE090B5
:10146000720AF090730A8FBFED81FE8180A991A965
:10147000A2A9B3A9C81AD90AEA0AFB0AC701B60188
:101480000E94903320E030E04AE754E40E94E832C2
:10149000AD81BE8194966D937D938D939C93979728
:1014A000FD01C0A2D1A2E2A2F3A22FB7F8948091CD
:1014B000700A9091710AA091720AB091730A2FBFBD
:1014C000ED81FE8180AB91ABA2ABB3AB15870487F6
:1014D00062857385601B710BE6A4F7A4E01AF10A1C
:1014E00017A706A781A5882331F071956195710929
:1014F000F194E194F108AD81BE8198963C90072E5D
:10150000000C880B990B0E9492334B015C0110E098
:1015100000E031100BC0ED81FE81208931894289C4
:1015200053890E9447340E945A338B01B701FF0C44
:10153000880B990B0E9492336B017C01AD81BE81B7
:1015400094968D919D910D90BC91A02D89839A8345
:10155000AB83BC83ED81FE81208D318D428D538D17
:10156000C701B6010E94473429813A814B815C81D1
:101570000E94E8322B013C01B801110F880B990B36
:101580000E9492339B01AC01C301B2010E947732E9
:101590000E945A332B01AD81BE811F967C936E93BE
:1015A0001E9754962D913D914D915C915797C50191
:1015B000B4010E94473429813A814B815C810E94A9
:1015C0004734ED81FE81248D358D468D578D0E94E7
:1015D00077324B015C01AD81BE815C968D929D920C
:1015E000AD92BC925F973320A1F050962D913D9122
:1015F0004D915C915397C701B6010E944734A501F4
:1016000094010E947732ED81FE81648F758F868F01
:10161000978FAD81BE815C968C905C975D969C9017
:101620005D975E96AC905E975F96BC905F979A963A
:101630000D911C91B801012E000C880B990B0E9492
:1016400092336B017C019B01AC01B401C5010E9486
:10165000E33287FD16C0ED81FE8164A575A5072ED6
:10166000000C880B990B0E9492336B017C019B014B
:10167000AC01B401C5010E944234181614F0640193
:101680007501C601D701ED81FE81848F958FA68FEC
:10169000B78FB201550C880B990B0E9492339601BB
:1016A000A7010E9477320E945A33601771074CF0ED
:1016B000AD81BE819C960D911C91601771070CF451
:1016C0008B01ED81FE811787068706ABE55BFF4F37
:1016D000AD81BE8114968C91081708F4802F808309
:1016E00026960FB6F894DEBF0FBECDBFDF91CF9127
:1016F0001F910F91FF90EF90DF90CF90BF90AF9030
:101700009F908F907F906F905F904F903F90089543
:10171000CF93DF93CDB7DEB768970FB6F894DEBFEF
:101720000FBECDBFE9E8FCE0DE01119644A955A942
:1017300066A977A94D935D936D937D9378968DE01F
:10174000E931F80799F78091970F882351F0698163
:101750007A818B819C810E9461338EE89FE00E9498
:10176000100A8091E30F882391F069817A818B813F
:101770009C810E9461338AED9FE068960FB6F894D1
:10178000DEBF0FBECDBFDF91CF910C94100A6896DB
:101790000FB6F894DEBF0FBECDBFDF91CF91089595
:1017A000CF92DF92EF92FF920F931F93CF93DF932D
:1017B00000D000D01F921F92CDB7DEB7FC018E0182
:1017C0000F5F1F4F88E0D8011D928A95E9F7428587
:1017D000C180E0802E2D30E0842FF12CDD24D394C5
:1017E000CF100EC0CF010296B801562F501B5E15C8
:1017F00090F4DB015D91BD01DC015D93CD01F5CF7E
:1018000090E0D801A80FB91FDC920196B9010E949F
:101810004632F394E5CF842F90E00196B9010E94FF
:101820004632828728960FB6F894DEBF0FBECDBF32
:10183000DF91CF911F910F91FF90EF90DF90CF90AC
:1018400008951F93CF93DF93FC0181858823A1F135
:10185000DF01A65BBF4F9C91EF01C55BDF4F888125
:10186000981730F59F5F9C939F01205C3F4F97AD89
:101870008C91981708F4892FEF01F9018083CE012C
:10188000CF960E94D00B10E08FAD1817A8F4812FCF
:1018900090E0DE01A80FB91FAF5BBF4FEA81FB816B
:1018A000E80FF91F6C9180810E9493041F5FECCFB9
:1018B0008917D0F69150D7CFDF91CF911F9108951E
:1018C0008EE89FE00E94210C8AED9FE00C94210C91
:1018D000EF92FF921F93CF93DF93EC0110E08C8186
:1018E0001817A0F4E12EF12CEA81FB81EE0DFF1D0B
:1018F00061E080810E94C104EA81FB81EE0DFF1D41
:1019000060E080810E9493041F5FE9CFFE01E05CEC
:10191000FF4F1082CE01CF96DF91CF911F91FF90A4
:10192000EF900C94D00B81E20E948D0321E0892B73
:1019300009F420E0822F0895FC018181861799F037
:10194000618381E090E0938382838081861751F0E8
:10195000662381F08481958122813381281739079C
:1019600008F060830895828193818F3F980769F31F
:101970000196E9CF86819781EFCFFC018181882391
:1019800031F08381DB018C93858111968C930895CE
:101990000F931F93CF93DF93FC012081222309F43F
:1019A0003FC0162FC62FD0E0D683C583028161E0E9
:1019B000802F0E94C104209741F460E0802FDF91C6
:1019C000CF911F910F910C949304CF3FD10511F447
:1019D00061E0F4CFE02FF0E0E253FC4FE491E150FE
:1019E000E23108F0B4C0F0E08827E650F34F8F4FA3
:1019F0000C945A320C0D150D1A0D240D2E0DA70D39
:101A0000380D400D480D520D5C0D660D750D7F0DA6
:101A1000A70D890D930D9D0D84B5806884BD17BDFC
:101A2000DF91CF911F910F91089584B5806284BD9D
:101A300018BDF6CF80918000806880938000D0939D
:101A40008900C0938800ECCF8091800080628093F1
:101A50008000D0938B00C0938A00E2CF80918000F9
:101A6000886080938000D0938D00C0938C00D8CF85
:101A70008091B00080688093B0001093B300D0CF05
:101A80008091B00080628093B0001093B400C8CF02
:101A900080919000806880939000D0939900C093CB
:101AA0009800BECF80919000806280939000D09388
:101AB0009B00C0939A00B4CF80919000886080937F
:101AC0009000D0939D00C0939C00AACF8091A0006D
:101AD00080688093A0008091A0008F7B8093A000FD
:101AE000D093A900C093A8009BCF8091A0008062F2
:101AF0008093A000D093AB00C093AA0091CF8091B7
:101B0000A00088608093A000D093AD00C093AC008B
:101B100087CF80912001806880932001D093290194
:101B2000C09328017DCF80912001806280932001A5
:101B3000D0932B01C0932A0173CF8091200188603C
:101B400080932001D0932D01C0932C0169CFC03820
:101B5000D1050CF03DCF31CF0F931F93CF93DF937F
:101B600083E20E948D038C0182E20E948D03EC01CE
:101B700061E0012B09F460E085E79DE00E949C0C88
:101B800061E0CD2B09F460E08DE79DE00E949C0CA4
:101B90008091750D8093850D90917D0D9093860DAC
:101BA00023E0911103C021E0811122E02093870DF1
:101BB00020915810222309F448C02091601022235C
:101BC00009F443C02091261021113FC0992351F1FF
:101BD0008091381080934710109246106091461003
:101BE0006093571080915910882329F180915510E6
:101BF000909156100E94C80C6091471060935F103E
:101C000080916010882309F1809161108823C1F0D0
:101C100080915D1090915E10DF91CF911F910F9197
:101C20000C94C80C8111DACF809137108093461044
:101C300010924710D3CF8091531090915410DACF67
:101C400080915B1090915C10E7CFDF91CF911F9155
:101C50000F910895CF93DF93EC012881211121C0CA
:101C600021E028832981211117C08A81813171F4F3
:101C70008091D00080648093D0008091D100877ED5
:101C80008093D10061E081E10E94C10461E08A811A
:101C9000DF91CF910C9493046D81DF91CF910C94DF
:101CA000C80CDF91CF910895CF93DF93EC01862F7D
:101CB00068835A8349831C821B8262E00E94C104AC
:101CC00029813A819881923069F4309311022093EE
:101CD000100280916A00836080936A00EC9ADF9121
:101CE000CF910895933059F4309313022093120248
:101CF00080916A008C6080936A00ED9AF0CF8EEE3E
:101D0000890F843060F787E1891BE82FF0E0EE0F40
:101D1000FF1FE05FFD4F31832083843091F08530D9
:101D2000B9F0833039F08091690083608093690055
:101D3000E89AD5CF809169008C6080936900E99A18
:101D4000CECF80916900806380936900EA9AC7CF03
:101D500080916900806C80936900EB9AC0CFFC0190
:101D600024813581868197812817390728F081E001
:101D700090E091838083089511821082089589E80C
:101D80009CE00E94AF0E81E99CE00E94AF0E89E9C1
:101D90009CE00E94AF0E81EA9CE00C94AF0EFC0127
:101DA000118260E080810C949304FC01108260E059
:101DB00081810C949304F8949091AD0D992359F07E
:101DC0008091AE0D9091AF0D01969093AF0D8093E1
:101DD000AE0D789408952091AB0D30E0E091A80D00
:101DE000F091A90DE20FF31F8083C9010196609164
:101DF000AA0D70E00E9446328093AB0D9091AC0D1D
:101E00009813E7CF81E08093AD0DE3CFBF92CF92DF
:101E1000DF92EF92FF920F931F93CF93DF93EC012A
:101E2000B62EC72E8D85811105C0CE010E94940764
:101E300081110EC01B861D861C8680E0DF91CF912C
:101E40001F910F91FF90EF90DF90CF90BF9008957A
:101E500040E060EFCE010E94410701E0E12CD12C6F
:101E600011E0CE010E94EE06F82ECE010E94EE0691
:101E700091E0F91218C0813099F51134D8F2DB865F
:101E8000D11002C081E08D878B81882399F223963F
:101E9000EB2DFC2DCF01089629912193E817F90726
:101EA000D9F781E0CBCFEE2DF0E0F8120FC08B8593
:101EB0001817A0F4DE01AE0FBF1F13968C9180237C
:101EC00079F4F12C193008F41C87D12EEC0FFD1F8A
:101ED0008381902F9095892383830AC08113F1CF4A
:101EE000FE01EE0DF11D8381802B8383FF24F3948B
:101EF0006F2DCE010E9412071F5F000F11F4E394B3
:101F000001E087E08E1508F0ACCFB7CFCF93DF9319
:101F1000EB01DC011996ED91FC911A971386158659
:101F200014861286118610861782168215821482F4
:101F3000138219968D919C910E94060F982F8823E9
:101F400041F067E0CE010E94D70691E02F8128136F
:101F500090E0892FDF91CF9108958F929F92AF9259
:101F6000BF92EF92FF920F931F93CF93DF93CDB762
:101F7000DEB761970FB6F894DEBF0FBECDBF7C0110
:101F8000FC0100851185F8018781882309F46BC065
:101F9000BE01665F7F4FC8010E94860F882309F447
:101FA00062C0AE014F5F5F4FBE01665F7F4FC801E9
:101FB0000E946F08882309F456C08A81812C912CD5
:101FC000540187FF06C0812C912CF8EFAF2EBB2463
:101FD000BA949A8549819B3309F057C02D8127FF18
:101FE00054C040FD40C0042F10E030E020E073E01A
:101FF000000F111F221F331F7A95D1F7B901A801D5
:10200000407E57706627772790E0B0E0A0E08C0113
:102010009D01EBE0000F111F221F331FEA95D1F73E
:10202000042B152B262B372B082919292A293B2964
:10203000013854EE15075FEF25073507A4F0C901F5
:10204000B8010E94923320E030E040E05CE30E945F
:1020500047344B015C0120E030E04EEF52EC0E942F
:10206000E332811158C0F70186899789248935891F
:102070008217930718F40196978B868B812C912CED
:102080008EEFA82E82ECB82E49C0082F10E0102F3A
:102090000027110F110F110FF8E04F9FA00111241D
:1020A000042B152B012E000C220B330B08291929A8
:1020B0002A293B29903109F0BBCF6885662309F4B2
:1020C000B7CF70E08F81AB01481B5109CA019695CB
:1020D000982F8827979587950E944632CB01770FD6
:1020E000AA0BBB0B53E0000F111F221F331F5A9581
:1020F000D1F70078277033270052110921093109DF
:10210000800F911FA21FB31F95018401082B192B6B
:102110002A2B3B2B8DCFF701178A168A81E0F70116
:1021200046895789248935894217530708F480E086
:10213000F701838B808591850E94CC07F701838905
:1021400081111AC080829182A282B382F7016081DC
:1021500071818281938161960FB6F894DEBF0FBEC4
:10216000CDBFDF91CF911F910F91FF90EF90BF9066
:10217000AF909F908F90089580E090E0AAE7B4EC34
:1021800080839183A283B383E1CFBF92CF92DF920A
:10219000EF92FF920F931F93CF93DF93CDB7DEB7EC
:1021A00061970FB6F894DEBF0FBECDBF7C018B01E7
:1021B000DC0119967C936E93189783E0D82ECC247B
:1021C000C394D8011996ED91FC911A971386158640
:1021D0001486128611861086178216821582148242
:1021E000138217961C92179718961C9262E370E060
:1021F00080E090E00E943F05BE01665F7F4FF801DE
:10220000818592850E94060F882309F477C067E0D4
:10221000CE010A960E94D70699898913EDCFD8017D
:1022200017968C9117978F5F17968C938A858832B3
:1022300031F008F04AC0803111F08232E9F6F8013D
:1022400080858F5F80878081811124C08185928500
:102250000E949407BE01665F7F4FD80119968D9149
:102260009C910E94750740E064EBF801818592859E
:102270000E944107D80119968D919C910E94EE060B
:10228000B82EF801818592850E949407B11002C092
:10229000D801CC928A85803119F1AE014F5F5F4F32
:1022A000BE01665F7F4FC8010E946F08882359F006
:1022B0008D819A859B3311F487FD12C08F3391F085
:1022C00058F48F31B9F080E00EC08B3309F4B7CFEA
:1022D000823409F091CFB3CF8F3571F08F3799F7F2
:1022E0008CE001C08AE0F8019381981708F084CF50
:1022F000838382CF89E0F7CF8BE0F5CFD8011796A3
:102300009C91911103C0DA94D1105BCFF701138A2D
:10231000178A168A0084F185E02D9781992331F080
:10232000B701665F7F4FCF010E94860FD70152969B
:102330008C9352971896ED91FC91199714821896E8
:102340008D919C910E94CC0761960FB6F894DEBFE8
:102350000FBECDBFDF91CF911F910F91FF90EF90F6
:10236000DF90CF90BF9008951F93CF93DF93FC0130
:1023700020812223E9F0EC011082128181818823DF
:1023800059F061E0812F0E94C10460E0812FDF914C
:10239000CF911F910C94930460E0812F0E949304CD
:1023A0008A81813129F4DF91CF911F910C943E02F3
:1023B000DF91CF911F9108951F93CF93DF93EC018D
:1023C000888199810E94B4118A819B81FC012481BA
:1023D000222369F00E94B4111D8281E08F8380E284
:1023E0000E94DB0E80E0DF91CF911F91089511E0F4
:1023F0001E832C8130E0368325830E942A0E8FE1D4
:102400000E94DB0E1D8381E0EECFCF93DF93EC01C2
:102410008D81811119C09F81911116C02E812223B7
:1024200069F08A819B81FC013481332381F0211181
:1024300008C0CE01DF91CF910C94DC118881998185
:10244000F2CF81E08F8380E0DF91CF9108952C81DE
:1024500030E0368325830E942A0E81E08D83F4CFFD
:10246000CF93DF93EC01888199810E94B4118A8116
:102470009B810E94B4111D82DF91CF910895CF936B
:10248000DF93EC010E943012E881F9811482EA8125
:10249000FB8114821E821F82DF91CF910895FC017F
:1024A00001900020E9F73197AF01481B590BBC019F
:1024B0008FE79AE00C94A3058F929F92AF92BF9200
:1024C0000F931F93CF93DF93CDB7DEB7A1970FB6CE
:1024D000F894DEBF0FBECDBF19A2423008F44AE027
:1024E0008E010F5D1F4F842E912CB12CA12CA501C4
:1024F00094010E942432E62FB901CA01EA30F4F4B3
:10250000E05DD801EE938D01232B242B252B79F749
:1025100090E080E0109719F0CD010E944F12A19633
:102520000FB6F894DEBF0FBECDBFDF91CF911F91E4
:102530000F91BF90AF909F908F900895E95CE1CF8D
:102540008F929F92AF92BF92CF92DF92EF92FF92C3
:10255000CF93DF936A017B01E9010E944F12C530DE
:10256000D10509F0A5C0A7019601C701B6010E94D7
:10257000B434882391F08AE592E00E944F1286E6F7
:1025800092E0DF91CF91FF90EF90DF90CF90BF90DE
:10259000AF909F908F900C944F1246015701E89492
:1025A000B7F82FEF3FEF4FE75FE7C501B4010E9497
:1025B000B43481110DC02FEF3FEF4FE75FE7C50146
:1025C000B4010E94E33218161CF48EE592E0D5CFD8
:1025D0002FEF3FEF4FE75FE4C701B6010E9442349F
:1025E00018161CF482E692E0C8CF2FEF3FEF4FE7BA
:1025F0005FECC701B6010E94E33287FDF3CF20E014
:1026000030E0A901C701B6010E94E33287FF09C08B
:102610006DE28FE79AE00E943906F7FAF094F7F836
:10262000F0942BEA35EC47EA56E3C701B6010E9465
:1026300077326B017C010E9461334B015C010E9487
:1026400090339B01AC01C701B6010E9476326B0149
:102650007C014AE0C501B4010E945C126EE28FE782
:102660009AE00E943906C6E0C15009F488CF20E004
:1026700030E040E251E4C701B6010E9447344B010B
:102680005C010E9461336B01F12CE12C4AE0C7012F
:10269000B6010E945C12C701B6010E9490339B01F3
:1026A000AC01C501B4010E9476326B017C01DCCF24
:1026B000C701B6010E9461334C2F0E945C125FCFAC
:1026C00021E030E030934E0D20934D0D80914F0D61
:1026D00081608B7F80934F0D8CE291E0A0E0B0E0B1
:1026E0008093E00D9093E10DA093E20DB093E30D84
:1026F0008093E40D9093E50DA093E60DB093E70D64
:102700008FEB9EE09093EA0D8093E90D1092E80D17
:102710008091EB0D81608D7F8B7F8093EB0D80919D
:10272000320F8B3029F41092720D1092710D0895B2
:10273000863029F43093720D2093710D08959CEF2B
:10274000980F923038F482E090E09093720D80936D
:10275000710D0895873079F52AE030E040E050E0CF
:1027600060E87FE389E692E00E94A0128091570D15
:102770009091580DB0E0A0E08093C40E9093C50EE8
:10278000A093C60EB093C70E8093C80E9093C90E47
:10279000A093CA0EB093CB0E82E597E19093CE0E34
:1027A0008093CD0E1092CC0E8091CF0E81608D7FE4
:1027B0008B7F8093CF0E83E090E0C7CF009711F01E
:1027C0000E944F1286E692E00C944F120F931F93D3
:1027D000CF93DF938C01BC0190E080E00E949033A6
:1027E000AB01BC012AE030E083E892E00E94A01235
:1027F000C5E3D0E16881798190E080E00E94903368
:10280000AB01BC012AE030E08EE992E00E94A01208
:102810001983088385EC92E00E94DE1383E590E142
:102820000E94301284EF91E0A0E0B0E08093000FAE
:102830009093010FA093020FB093030F8093040FA6
:102840009093050FA093060FB093070F89E699E1C7
:1028500090930A0F8093090F1092080FEBE0FFE0AE
:10286000808181608D7F8B7F8083DF91CF911F91ED
:102870000F91089585EE92E00E94DE13E9E8FCE0F6
:1028800015821482A0EBBDE04CE251E060E070E004
:10289000D0964D935D936D937C93D397D4964D933F
:1028A0005D936D937C93D7978FEB9EE0DA969C9324
:1028B0008E93D997D8961C92ABEEBDE08C91816037
:1028C0008D7F8B7F8C9382E090E091838083A281C7
:1028D000B38114961C921E92139791878087158658
:1028E0001486A285B38514961C921E921397918B21
:1028F000808B158A148AA289B38914961C921E9221
:102900001397918F808F158E148E028CF38DE02D8E
:102910001482138208959091320F981729F0953000
:1029200091F020F4943089F080E00895963021F100
:102930009B30D1F78430B9F08630B1F78093320FF5
:1029400081E090E009C0843051F08B3069F78BE072
:102950008093320F90E080E00E94E613E5CF8093F1
:10296000320F81E008958093320F82E090E00E9460
:10297000E6130E943A14F5CF8B30B1F62AE030E02E
:1029800040E050E060E371E48AEF92E00E94A01220
:102990008EE89FE00E94EF098DE08093320FC4CF54
:1029A0000E94DE131092310F1092300F10920B0F15
:1029B0001092170F1092230F83E590E10E943012BE
:1029C0008BE590E10E94301283E590E10E943F1276
:1029D0008BE590E10E943F1287E59FE00E94B411D1
:1029E0008EE59FE00E94B41185E69FE00E94B4113D
:1029F0008CE69FE00E94B41183E79FE00E94B4112F
:102A00008AE79FE00E94B41181E89FE00E94B41120
:102A100085E39FE00E94D50E87E39FE00E94D50EDC
:102A200089E39FE00E94D50E88E89FE00E94CF0EC8
:102A30008AE89FE00E94CF0E8CE89FE00E94CF0EB4
:102A40008EE89FE00E94C5098AED9FE00E94C509BB
:102A5000109233101092630E10926F0E1092930E1C
:102A60001092870E10929F0E10927B0E1092AB0E5A
:102A700083E590E10E943F128BE590E10C943F12B8
:102A8000109226101092C50F8AE193E00C94D01496
:102A9000CF93C82F10921B0E6091320F70E090E020
:102AA00080E00E949033AB01BC012AE030E08AE272
:102AB00093E00E94A0128091320F8C3041F48DE39C
:102AC00093E00E94D0141092320FCF910895C093DA
:102AD000320F88E10E94DB0E6C2F70E090E080E006
:102AE0000E949033AB01BC012AE030E089E493E01E
:102AF000CF910C94A012CF93C82F1092270E85E689
:102B000093E00E94DE138091320F8D30B1F4C093B8
:102B1000320F6C2F70E090E080E00E949033AB01A8
:102B2000BC012AE030E08DE793E00E94A0120E94F1
:102B3000660286E1CF910C94DB0E8C3031F484E98F
:102B400093E00E94D0141092320FCF91089580919B
:102B5000330F9091340F8330910591F1892B81F1DE
:102B60008FE993E00E94DE138BE590E10E94301222
:102B700084EF91E0A0E0B0E080930C0F90930D0FF4
:102B8000A0930E0FB0930F0F8093100F9093110F1F
:102B9000A093120FB093130F82E399E19093160F55
:102BA0008093150F1092140F8091170F81608D7F05
:102BB0008B7F8093170F1092340F1092330F08956C
:102BC0001092340F1092330F8BE590E10E940512A2
:102BD0008FEB93E00C94DE130F931F93CF93DF934F
:102BE000EC0180916310813021F0823061F010E0BF
:102BF00004C080E20E94DB0E11E0812FDF91CF91B3
:102C00001F910F9108951D811123B9F30E810111B8
:102C100018C08881998101E0FC0104830E94B411ED
:102C2000CE010E94DC11882329F08CEC93E00E94F5
:102C3000DE13DDCF0F831D8285EE93E00E94DE134D
:102C4000DCCF8A819B8111E0FC0114830E94B411C6
:102C50001D821F8385EE93E00E94DE13102FCDCFDF
:102C60001F93CF93DF93EC01162F009711F00E9472
:102C7000DE1382E094E00E94DE1310924E0D10925B
:102C80004D0D0E9440158091320F8C50823010F013
:102C90001092320F209719F0CE010E94DE1360913E
:102CA0004F0D6E7F646060934F0D10928E0C1092EA
:102CB0008D0C1092960C1092950C10929E0C109206
:102CC0009D0C1092A60C1092A50C1092F70D10926C
:102CD000030E10920F0E10921B0E1092270E1092E0
:102CE0003F0E10924B0E1092B70E1092C30E109220
:102CF000EB0D1092CF0E1092DB0E70E090E080E0B2
:102D00000E949033AB01BC0120E130E082E194E00D
:102D10000E94A0121092740D111106C089E1DF917A
:102D2000CF911F910C94DB0EDF91CF911F910895ED
:102D300060E083E294E00C94301660E08AE394E073
:102D40000C943016EBE7FAE080818460808360E0C9
:102D50008BE494E00C9430160E94930C882371F05D
:102D600080917C0A82FD04C088E694E00E94DE1314
:102D700080917C0A846080937C0A089580917C0A0B
:102D80008B7F80937C0A8091890C90918A0C0297AA
:102D900009F466C089E89CE00E94AF0E2091890C7E
:102DA00030918A0C91E02130310509F090E080915A
:102DB0007B0A81FD48C02130310509F444C082609E
:102DC00080937B0A83E590E10E94EC15882349F00B
:102DD00060E088E794E00E94301661E08DE10E9497
:102DE00093048091910C9091920C0297C9F180917B
:102DF000AE0C0E94FD049C019093B00C8093AF0C2C
:102E00006091B10C7091B20C41E06817790708F439
:102E100040E090917B0A92FD1DC062177307D0F4C9
:102E2000892F846080937B0A8BE590E10E94EC15EA
:102E30008823B1F060E08BE894E00E94301661E0F6
:102E40008DE10C94930480917B0A90FB81F980932F
:102E50007B0AC7CF80917B0A40FB82F980937B0A73
:102E600008950E94AC1685E40E948D03892B71F0B1
:102E700080917C0A83FD04C080EA94E00E94DE1306
:102E800080917C0A886080937C0A089580917C0AF6
:102E9000877FF9CF80EB94E00E94DE1361E08DE143
:102EA0000C949304CF93C82F1092CF0E1092030E60
:102EB000809163108230D9F580916110811137C003
:102EC0008BE590E10E94DC11882389F189EC94E084
:102ED0000E94DE1389E692E00E94DE1380E395E70C
:102EE000A0E0B0E08093C40E9093C50EA093C60EF0
:102EF000B093C70E8093C80E9093C90EA093CA0ECC
:102F0000B093CB0E82E597E19093CE0E8093CD0ED9
:102F100081E0C11101C080E08093CC0E8091CF0E82
:102F200081608D7F8B7F8093CF0ECF91089585EE4A
:102F300094E00E94DE138CE10E94DB0EC11108C0F8
:102F40000E94401560E090E080E0CF910C94301634
:102F50000E94401585EF94E00E94DE138EE10E94EE
:102F6000DB0E1092310F1092300F8BE08093320FF6
:102F70000E946602CF910C9460139CEF980F9330DF
:102F800010F08B3099F4682F70E090E080E00E94A0
:102F90009033AB01BC012AE030E081E095E00E9473
:102FA000A01281E00E94521780E0089581E0089508
:102FB0009EEF980F923008F069C010926F0E833028
:102FC00099F18CE69FE00E942A0E83E79FE00E9421
:102FD0002A0E80EC94EDA1E0B0E08093640E909313
:102FE000650EA093660EB093670E8093680E909363
:102FF000690EA0936A0EB0936B0E88ED97E19093E3
:103000006E0E80936D0E83E080936C0E80916F0E38
:1030100081608D7F8B7F80936F0E81E10E94DB0E3C
:1030200081E295E00C94DE138CE69FE00E94B411DF
:1030300083E79FE00E94B41182E10E94DB0E80E3EF
:1030400095E7A0E0B0E08093640E9093650EA093A6
:10305000660EB093670E8093680E9093690EA093EE
:103060006A0EB0936B0E88ED97E190936E0E80938D
:103070006D0E84E080936C0E80916F0E81608D7F69
:103080008B7F80936F0E8AE295E0CCCF60E082E385
:1030900095E00C9430168230C9F51092630E87E5E6
:1030A0009FE00E94B4118BE590E10E94301285E60A
:1030B0009FE00E942A0E80E395E7A0E0B0E08093B5
:1030C000580E9093590EA0935A0EB0935B0E8093B6
:1030D0005C0E90935D0EA0935E0EB0935F0E8BE43A
:1030E00098E19093620E8093610E81E08093600E70
:1030F0008091630E81608D7F8B7F8093630E8EE065
:103100000E94DB0E81E495E00C94DE1360E089E41C
:1031100095E00C94301610923F0E8091710D9091B5
:10312000720D009769F00297D9F48BE00E948B141E
:103130001092720D1092710D88E595E00C94DE13DB
:103140008091740D81110CC086E00E948B1481E087
:1031500090E09093720D8093710D8FE795E0EECF24
:10316000089510924B0E8091710D9091720D8130E7
:10317000910521F070F00297D1F008958BE00E9444
:103180008B141092720D1092710D83EA95E00C94DD
:10319000DE1384E00E948B1482E090E09093720D25
:1031A0008093710D1092DB0E85EC95E0F0CF1092BC
:1031B000DB0E0895CF9390E0009781F5C1E0C093B6
:1031C000350F61E08091360F0E94930484EF91E007
:1031D000A0E0B0E08093180F9093190FA0931A0FFE
:1031E000B0931B0F80931C0F90931D0FA0931E0F85
:1031F000B0931F0F8AED98E19093220F8093210FD7
:10320000C093200F8091230F81608D7F8B7F8093EF
:10321000230F89EE95E0CF910C94DE13019701F511
:103220008AE096E00E94DE138BE590E10E94051291
:103230008CED80935F1080916010882389F08091DD
:103240006110882341F080915D1090915E106CEDCB
:10325000CF910C94C80C80915B1090915C10F7CFCB
:10326000CF91089590E0009749F585E39FE00E9493
:10327000D50E84EF91E0A0E0B0E080930C0F909326
:103280000D0FA0930E0FB0930F0F8093100F90931C
:10329000110FA093120FB093130F82E399E1909353
:1032A000160F8093150F81E08093140F8091170FF4
:1032B00081608D7F8B7F8093170F0895019741F474
:1032C0008BE590E10E9405128BE296E00C94DE13F0
:1032D00008950F931F93CF93DF93CDB7DEB7689711
:1032E0000FB6F894DEBF0FBECDBF90E0009709F097
:1032F00062C08BE396E00E94DE13609135107091FE
:10330000361090E080E00E949033AB01BC012AE0CF
:1033100030E08BE596E00E94A012809135109091EC
:1033200036108230910588F10297C1F184EF91E067
:10333000A0E0B0E08093000F9093010FA093020FE4
:10334000B093030F8093040F9093050FA093060F83
:10335000B093070F89E699E190930A0F8093090FC4
:1033600081E08093080F80910B0F81608D7F8B7FB0
:1033700080930B0F68960FB6F894DEBF0FBECDBFDB
:10338000DF91CF911F910F9108958DE696E00E94F5
:10339000DE1389E39FE00E94D50EC8CF87E996E04F
:1033A0000E94DE1381E08093390F61E080913A0F33
:1033B0000E949304BBCF0197E9F6E9E8FCE0DE0147
:1033C000119689E19DE040AD51AD62AD73AD4D9375
:1033D0005D936D937D9378968E179F07A1F786EB8B
:1033E00096E00E94DE13609135107091361090E0E7
:1033F00080E00E949033AB01BC012AE030E081EB19
:1034000092E00E94A0128091351090913610813088
:103410009105D9F1029709F464C08091970F882330
:1034200089F02AE030E040E050E060E371E48AEFA8
:1034300092E00E94A0128EE89FE00E94EF098DE0CA
:103440008093320F8091E30F8823E9F12AE030E086
:1034500040E050E060E371E486E097E00E94A01253
:103460008AE89FE00E94CF0E8CE89FE00E94CF0E7A
:103470008CE69FE00E94B41183E79FE00E94B411A4
:103480008AED9FE00E94EF091EC069817A818B81DD
:103490009C810E94613381E08093970F862F90E09A
:1034A0009093990F8093980F8EE89FE00E94100AE6
:1034B00086ED96E00E94DE1381EE96E00E94DE1318
:1034C00085E10E94DB0E83E590E168960FB6F894E3
:1034D000DEBF0FBECDBFDF91CF911F910F910C9436
:1034E00005128CE69FE00E942A0E83E79FE00E946F
:1034F0002A0E01E000938B0F61E080918A0F0E94F9
:10350000930400938D0F61E080918C0F0E949304CF
:1035100069817A818B819C810E946133162F70E0D2
:1035200090E080E00E949033AB01BC012AE030E0E3
:103530008BEE96E00E94A0120093E30F812F90E0A3
:103540009093E50F8093E40F612F8AED9FE00E9436
:10355000100A86ED96E00E94DE138EEF96E00E9440
:10356000DE1387E1AECF8F929F92AF92BF92CF9240
:10357000DF92EF92FF920F931F93CF93DF9380918F
:10358000300F9091310F019761F588E297E00E942A
:10359000DE1389E497E00E94DE13E091320FE150E0
:1035A000EB30C8F4F0E08827E752F54E8F4F0C94CB
:1035B0005A32E41A451B531B5C1BEB1A691B6C1B2C
:1035C0009C1BCD1BDD1B111C8EE59FE00E942A0E6B
:1035D00087E00E94DB0E1092310F1092300F0E9494
:1035E0003A140E94930C90917C0A80FB92F990937C
:1035F0007C0A85E40E948D0321E0892B09F420E0F8
:1036000080917C0A20FB83F980937C0A80914D0D88
:1036100090914E0D009741F0C091320F029709F042
:1036200005C18C2F0E94BD1780917B0A90917C0A66
:10363000A0917D0AB0917E0A4091050A5091060A38
:103640006091070A7091080A84179507A607B707C3
:1036500059F021E02093040A8093050A9093060A0A
:10366000A093070AB093080A60E083EB9AE1DF9128
:10367000CF911F910F91FF90EF90DF90CF90BF906F
:10368000AF909F908F900C94E5028091810F8823DA
:1036900021F081E89FE00E94B4118AE79FE00E9438
:1036A0002A0E89E096CF109236101092351090E0D5
:1036B00080E00E94E6138FCF82E090E09093361076
:1036C0008093351090E080E00E94E6130E94A715D9
:1036D00082CF81E090E0F2CF8FE597E00E94DE1389
:1036E0008BE590E10E94301284EF91E0A0E0B0E021
:1036F0008093180F9093190FA0931A0FB0931B0F7C
:1037000080931C0F90931D0FA0931E0FB0931F0F5B
:103710008AED98E19093220F8093210F1092200F51
:103720008091230F81608D7F8B7F8093230F80E8B2
:1037300097E00E94DE134FCF87E59FE00E942A0E9C
:1037400080E69AEEA0E0B0E08093700E9093710E48
:10375000A093720EB093730E8093740E9093750EB7
:10376000A093760EB093770E8DE996E190937A0E42
:103770008093790E1092780E80917B0E81608D7F00
:103780008B7F80937B0E82EA97E00E94DE1384EBAE
:1037900097E00E94DE1383E11CCF0E94401585E66E
:1037A0009FE00E942A0E8BE00E94DB0E8FEB97E0D9
:1037B0000E94DE1380ED97E0BCCF0E94401581E8A7
:1037C0009FE00E942A0E8FE00E94DB0E80E49CE9BD
:1037D000A0E0B0E08093640E9093650EA093660E17
:1037E000B093670E8093680E9093690EA0936A0E53
:1037F000B0936B0E88ED97E190936E0E80936D0EF3
:1038000082E080936C0E80916F0E81608D7F8B7F44
:1038100080936F0E8BED97E00E94DE138BEE97E0A6
:1038200088CF10923610109235104CCF9091740DB5
:10383000992339F18091DB0E80FD23C082FD21C0E8
:1038400040E355E760E070E04093D00E5093D10E16
:103850006093D20E7093D30E4093D40E5093D50E36
:103860006093D60E7093D70E28E936E13093DA0EC6
:103870002093D90E1092D80E81608D7F8B7F80931C
:10388000DB0E8CEF8C0F833028F0CB3019F09923AE
:1038900009F4AEC08091710D9091720D039709F4F7
:1038A000A7C0D091890FC63009F4B9C02091050D89
:1038B0003091060D4091070D5091080D60911D0D3E
:1038C00070911E0D80911F0D9091200D0E94E3328A
:1038D00087FFA5C0D11137C081E08093890F61E0D7
:1038E0008091880F0E94930487E39FE00E94D50E89
:1038F0008FE993E00E94DE138BE590E10E94301285
:1039000084EF91E0A0E0B0E080930C0F90930D0F56
:10391000A0930E0FB0930F0F8093100F9093110F81
:10392000A093120FB093130F82E399E19093160FB7
:103930008093150F1092140F8091170F81608D7F67
:103940008B7F8093170FC090BD0CD090BE0CE09081
:10395000BF0CF090C00C8090C10C9090C20CA09055
:10396000C30CB090C40C20E030E040E85FE3C50138
:10397000B4010E947732A70196010E94E332181623
:103980000CF45DC010923F0ED0914B0ED0FD30C0B4
:10399000D2FD2EC00091710D1091720DF801EE0F45
:1039A000FF1FEE0FFF1FEF59F24F6081718182817F
:1039B00093810E9461336093400E7093410E809317
:1039C000420E9093430E6093440E7093450E809385
:1039D000460E9093470E81EB98E190934A0E8093A8
:1039E000490E0093480ED160DD7FDB7FD0934B0EF4
:1039F000C150CB3008F018CEEC2FF0E08827EC5FF8
:103A0000F24E8F4F0C945A32671D731D7D1D961D0B
:103A1000961D991D9C1DF21D4A1E141B991DDD2328
:103A200009F491CF88E89FE00E94CF0E81E0809357
:103A3000370F61E08091380F0E94930484CF109279
:103A40004B0E20E030E040E85FE3C501B4010E9486
:103A50007632A70196010E94423487FD35C0D0918D
:103A60003F0ED0FDC5CFD2FDC3CF0091710D109197
:103A7000720DF801EE0FFF1FEE0FFF1FEF59F24F0F
:103A800060817181828193810E9461336093340EE1
:103A90007093350E8093360E9093370E6093380EE8
:103AA0007093390E80933A0E90933B0E8BE898E119
:103AB00090933E0E80933D0E00933C0ED160DD7FCF
:103AC000DB7FD0933F0E94CF10923F0E91CF80E2D8
:103AD0000E948D03892B09F0A7CD60E086EF97E067
:103AE0000E943016A1CD84E40E948D03892B09F039
:103AF0009BCD60E084E098E0F3CF0E94930C90911E
:103B00007B0A882339F0916090937B0A60E082E120
:103B100098E0E6CF9E7F90937B0A8091850D882365
:103B200009F482CD60E088E398E0DACF0E94311793
:103B30007BCD0E94AC1678CD0E94930C882331F087
:103B400080917C0A846080937C0A6ECD8091910C78
:103B50009091920C029709F467CD81E99CE00E9454
:103B6000AF0E8091910C9091920C019769F5809124
:103B70007B0A877F80937B0A8091030E80FD54CD62
:103B800082FD52CD48EE53E060E070E04093F80DC6
:103B90005093F90D6093FA0D7093FB0D4093FC0D5B
:103BA0005093FD0D6093FE0D7093FF0D23E139E0FE
:103BB0003093020E2093010E1092000E81608D7FD3
:103BC0008B7F8093030E30CD1092030E80917B0A81
:103BD00083FD2ACD886080937B0A88E498E00E9468
:103BE000DE1322CD80E20E948D03892B59F460E020
:103BF0008CE598E00E94301680917B0A8068809363
:103C00007B0A12CD8091AE0C0E94FD049093B00C03
:103C10008093AF0C2091B10C3091B20C281739076A
:103C200078F580917B0A8B7F80937B0A80910F0EC1
:103C300080FDFACC82FDF8CC4091590D50915A0D7F
:103C400070E060E04093040E5093050E6093060E02
:103C50007093070E4093080E5093090E60930A0E5E
:103C600070930B0E22EA36E130930E0E20930D0E68
:103C700010920C0E81608D7F8B7F80930F0ED4CCC1
:103C800080917B0A82FDD0CC846080937B0A81E89E
:103C900098E0A5CF0E94930C882309F4C5CC8091AD
:103CA000630E80FDC1CC82FDBFCC85E69FE00E9403
:103CB000B41187E59FE00E942A0E8BE590E10E94F7
:103CC00005128DE00E94DB0E80E395E7A0E0B0E0F6
:103CD0008093580E9093590EA0935A0EB0935B0E9A
:103CE00080935C0E90935D0EA0935E0EB0935F0E7A
:103CF0008BE498E19093620E8093610E82E0809352
:103D0000600E8091630E81608D7F8B7F8093630E48
:103D100081E295E064CF8091730D81508093730DA3
:103D2000811118C085E08093730D8091500D28E1BA
:103D3000829FC00111248354934F0E94AD0F909134
:103D4000500D892F8F5FF1F39FEF8630D0F780936E
:103D5000500D08958DEB9CE00E94AD0F8091D00C2A
:103D6000882369F087E998E00E94DE1380917C0A3D
:103D7000806480937C0A61E08DE10C9493048091CF
:103D80007C0A8F7B80937C0A0895FF920F931F9388
:103D9000CF93DF93CDB7DEB7C456D1090FB6F894F1
:103DA000DEBF0FBECDBFFC01F1804F2D50E08E0174
:103DB0000F5F1F4FBC01C8010E94B9348091C6003B
:103DC0008091C6008091C1008F778093C10080915F
:103DD000C10088608093C100F8018E2F801B8F1571
:103DE00088F481918093C6008091C00086FFFCCF4B
:103DF0008091C00080648093C0008091C600809153
:103E0000C600EBCFCC59DF4F0FB6F894DEBF0FBE24
:103E1000CDBFDF91CF911F910F91FF900C94BF09FF
:103E20004F925F926F927F928F929F92AF92BF92CA
:103E3000CF92DF92EF92FF920F931F93CF93DF9376
:103E4000CDB7DEB7CB59D1400FB6F894DEBF0FBE69
:103E5000CDBF84E6E9E0FAE0DE01AB59BF4F019047
:103E60000D928A95E1F780E69AEEA0E0B0E08093AB
:103E7000240F9093250FA093260FB093270F8093C4
:103E8000280F9093290FA0932A0FB0932B0F8AE449
:103E900097E190932E0F80932D0F10922C0F80910D
:103EA0002F0F83608B7F80932F0FA896EFADA8977D
:103EB000E550E33308F08CC0F0E08827ED59F04E70
:103EC0008F4F0C945A32E424E81F8720E81FE81F24
:103ED000E81FE81FE81FE81FE81FE81FE81FE81FAA
:103EE0001420362073207D209020002002214621BE
:103EF000961FDA21E81FE81F0F227722D322CB1F5B
:103F000002232F23B92355238924E81FE81FE81F24
:103F1000BC24E81FE81FE81FE81FE81FE81FF02483
:103F200000250C256825A0251A27A520A9962FADC8
:103F3000A997213009F4D9C1AB968FADAB978130E9
:103F400009F4E1C1AD968FADAD97813009F4DEC1C2
:103F500080E08093571090E0E0915310F09154105E
:103F600096838583E0915510F09156109683858352
:103F7000243009F4CEC1AB968FADAB97843009F4F1
:103F800016C2AD968FADAD97E2E0F0E0843009F453
:103F9000C2C180E0CBC1C0907B0AD0907C0AE09087
:103FA0007D0AF0907E0A61E2CE0101960E945309DB
:103FB000CF82D886E986FA868BE08A83CE01019685
:103FC0000E943C09CE0101960E94C51E1092040A6F
:103FD000C556DE4F0FB6F894DEBF0FBECDBFDF91E2
:103FE000CF911F910F91FF90EF90DF90CF90BF90F6
:103FF000AF909F908F907F906F905F904F900895BB
:1040000010927B0A10927C0A10927D0A10927E0A0E
:1040100061E2CE0101960E9453091F82188619861B
:104020001A868BE08A83F6C1CE0187539F4F0E9488
:10403000B60388E0FE01E753FF4FDE01A257BE4FF3
:1040400001900D928A95E1F762E1CE0101960E94FE
:1040500053098FE08A8388E0FE01E257FE4FDE01BC
:10406000179601900D928A95E1F7D4C110927B0AC0
:1040700010927C0A10927D0A10927E0AA9968FAD4A
:10408000A9971092310F1092300F8093320F8B301E
:1040900011F08730A1F4AA966FADAA976695637068
:1040A0006093631070E090E080E00E949033AB0179
:1040B000BC0120E130E080EC98E00E94A012AA96BA
:1040C0008FADAA9780FF0FC0A9968FADA9978B30AF
:1040D00051F48091320F0E94BD17882321F00E9475
:1040E00066020E9460131091320F64E1CE010196C6
:1040F0000E9453091F8388E095CF8091320F0E9460
:10410000BD17882321F00E9466020E946013CE0131
:1041100001960E94B409CE0101960E94C51E58CF97
:104120008091320F8B3019F08450833040F410921C
:104130007B0A10927C0A10927D0A10927E0A60E03F
:1041400082ED98E00E943016E2CF8FED98E00E9459
:10415000DE1381E08093740D81E090E090934E0D2A
:1041600080934D0D109226101092C50F1092310FB2
:104170001092300F10920B0F1092170F1092230F06
:1041800087E59FE00E94B4118EE59FE00E94B41184
:1041900085E69FE00E94B41185E39FE00E94D50E62
:1041A00087E39FE00E94D50E89E39FE00E94D50E31
:1041B0008AE89FE00E94CF0E8CE89FE00E94CF0E1D
:1041C0008EE89FE00E94C50980914F0D81608B7F32
:1041D00080934F0D80E090E0A0ECB1E48093C10C9F
:1041E0009093C20CA093C30CB093C40C25E030E0B4
:1041F000AC01BD0189EE98E00E94A0128AE10E9404
:10420000DB0E85CFE5E6F0E0EC0FFD1F3396A9E865
:10421000BCE085E690E08C0F9D1F4B96419151913B
:1042200061917191D8964D935D936D937C93DB97DB
:1042300058968E179F0791F788E1E5E6F0E0EC0FBE
:10424000FD1F3396DE01A750BF4F01900D928A9556
:10425000E1F768E1CE0101960E9453098FE18A835C
:1042600088E1FE01E750FF4FDE01179601900D92A5
:104270008A95E1F7CE0101960E943C09CE01019694
:104280000E94C51E88E10E941B09A2CEA9E8BCE0DD
:10429000CE0187539F4F29E13DE0182F092FD89673
:1042A0004D915D916D917C91DB97FC014193519310
:1042B00061937193CF0158962A173B0781F788E1E4
:1042C000E12FF02FDE01AF51BF4F01900D928A9583
:1042D000E1F769E1CE0101960E9453098FE18A83DB
:1042E00088E1FE01EF51FF4FBACEF0E0E0E0EE0FC3
:1042F000FF1F81E090E08C0F9D1FE80FF91FE95927
:10430000FF4F818126CEE1E0F0E0F1CFE2E0F0E086
:10431000EECFF0E0E0E0EE0FFF1F81E090E08C0FC9
:104320009D1FE80FF91FE959FF4F818180935F10AE
:1043300090E0E0915B10F0915C1096838583E091B2
:104340005D10F0915E1096838583AE968FADAE972B
:10435000AA969FADAA97909346108093471086E047
:10436000E5E6F0E0EC0FFD1F3396DE01AA56BE4FE6
:1043700001900D928A95E1F76AE1CE0101960E94C3
:1043800053098DE08A8386E0FE01EA56FE4FDE0186
:10439000179601900D928A95E1F7CE0101960E9441
:1043A0003C09CE0101960E94C51E8AE16CCFE1E076
:1043B000F0E0B1CF1091461000914710612F70E0EE
:1043C00090E080E00E949033AB01BC0120E130E03E
:1043D00082EF98E00E94A012602F70E090E080E0F1
:1043E0000E949033AB01BC0120E130E088E199E00C
:1043F0000E94A0126BE1CE0101960E9453098DE04C
:104400008A8381E08F83188782E089871A8784E016
:104410008B870C87CE0101960E943C097CCEAA9620
:104420008EAD9FADAA979093900C80938F0CAC9615
:104430008EAD9FADAC979093980C8093970CAE96F1
:104440008EAD9FADAE979093A00C80939F0CE0969D
:104450008EAD9FADE0979093A80C8093A70CE29649
:104460008EAD9FADE2979093AD0C8093AC0CE4962B
:104470008EAD9FADE4979093B20C8093B10CE6960D
:104480008EAD9FADE6979093B70C8093B60CE896EF
:104490008EAD9FADE8979093BC0C8093BB0C82E1EE
:1044A000E5E6F0E0EC0FFD1F3396DE01AB5CBE4F9E
:1044B00001900D928A95E1F76EE1CE0101960E947E
:1044C000530989E18A8382E1FE01EB5CFE4FDE0144
:1044D000179601900D928A95E1F7CE0101960E9400
:1044E0003C09CE0101960E94C51E8EE1CCCE009102
:1044F000970C1091980CA0919F0CB091A00CE0919A
:10450000A70CF091A80C6091AC0C7091AD0C40918F
:10451000B10C5091B20C2091B60C3091B70C809137
:10452000BB0C9091BC0CE0908F0CF090900CCD5D8A
:10453000DE4FF982E882C352D140CB5DDE4F198352
:104540000883C552D140C95DDE4FB983A883C752E5
:10455000D140C75DDE4FF983E883C952D140C55DC4
:10456000DE4F79836883CB52D140C35DDE4F5983E0
:104570004883CD52D140C15DDE4F39832883CF526D
:10458000D140CF5CDE4F99838883C153D1406FE126
:10459000CE0101960E94530989E18A8382E1FE01DE
:1045A000ED5DFE4F5CCDA9E8BCE0CE018F519F4F81
:1045B00029E13DE0182F092FD4964D915D916D9121
:1045C0007C91D797FC014193519361937193CF01F3
:1045D00058962A173B0781F788E1E12FF02FDE017B
:1045E000A753BF4F01900D928A95E1F760E2CE018B
:1045F00001960E9453098FE18A8388E1FE01E75307
:10460000FF4F2DCD05E610E00C0F1D1F0D5F1F4F56
:10461000C8010E948D0280E1F801DE01A95ABE4F57
:1046200001900D928A95E1F762E2CE0101960E9417
:10463000530980E1FE01E95AFE4FDE011796019011
:104640000D928A95E1F787E18A83CE0101960E9457
:104650003C09CE0101960E94C51E82E214CE80E183
:10466000E1E5FDE0DE01A753BF4F01900D928A9571
:10467000E1F780E1FE01E753FF4FDE01A95BBE4F8A
:1046800001900D928A95E1F763E2CE0101960E94B6
:10469000530980E1FE01E95BFE4FDE0117960190B0
:1046A0000D928A95E1F787E1BDCC80908D0C9090BA
:1046B0008E0CA090950CB090960C60909D0C709014
:1046C0009E0C4090A50C5090A60C8091A90C0E94C5
:1046D000FD046C018091AE0C0E94FD047C01809170
:1046E000B30C0E94FD048C018091B80C0E94FD0463
:1046F000CF5EDE4F99828882C151D140CD5EDE4FC0
:10470000B982A882C351D140CB5EDE4F79826882E4
:10471000C551D140C95EDE4F59824882C751D14050
:10472000C75EDE4FD982C882C951D140C55EDE4F17
:10473000F982E882CB51D140C35EDE4F19830883F2
:10474000CD51D140C15EDE4F99838883CF51D14096
:1047500065E2CE0101960E94530982E1FE01EF5EFF
:10476000FE4FDE01179601900D928A95E1F789E1DF
:1047700059CCA9968FADA997982F9F77923009F4BD
:1047800079C070F59923D1F1913009F457C0809127
:104790003B0F9091490F892B9091420F892B90915B
:1047A000500F892B80932610CE0187539F4F0E9474
:1047B000B60388E0FE01E753FF4FDE01AA57BE4F64
:1047C00001900D928A95E1F764E2CE0101960E9474
:1047D00053098FE08A8388E0FE01EA57FE4F3FCC01
:1047E000933009F473C0943091F687FF8BC085E64F
:1047F0009FE00E94B41182EE99E008C087FF09C0D3
:104800008BE39FE00E94B4118EE399E00E94DE13D7
:10481000BECF8BE39FE00E942A0E8DE499E00E94B8
:10482000DE13BE016F5F7F4F8BE39FE00E94BD0CE4
:104830006A818BE39FE00E94C80CA9CF87FF07C065
:1048400082E49FE00E94B4118BE599E0DFCF82E41F
:104850009FE00E942A0E8DE699E00E94DE13BE01C1
:104860006F5F7F4F82E49FE00E94BD0C6A8182E40B
:104870009FE0E1CF87FF07C089E49FE00E94B41169
:104880008EE799E0C3CF89E49FE00E942A0E8EE86C
:1048900099E00E94DE13BE016F5F7F4F89E49FE0C5
:1048A0000E94BD0C6A8189E49FE00E94C80C6A8165
:1048B00070E090E080E00E949033AB01BC012AE000
:1048C00030E08DE999E00E94A01261CF87FF07C018
:1048D00080E59FE00E94B4118DEB99E097CF80E5D1
:1048E0009FE00E942A0E80ED99E00E94DE13BE0137
:1048F0006F5F7F4F80E59FE00E94BD0C6A8180E57D
:104900009FE099CF85E69FE00E942A0E8EEE99E007
:104910007DCF81E20E948D034C0180E20E948D03D5
:104920005C01F090850D0091860D85E40E948D0359
:104930006C0184E40E948D039C0191E0892809F0B8
:1049400090E010E090FB10F991E0AB2809F090E0C6
:1049500090FB11F991E0CD2809F090E090FB12F95D
:1049600091E0232B09F090E090FB13F9F0FA14F991
:1049700000FB15F966E2BACB8BE0E5E6F0E0EC0F60
:10498000FD1F3396DE01AD58BE4F01900D928A9502
:10499000E1F76AE2CE0101960E9453098BE0FE0125
:1049A000ED58FE4FDE01179601900D928A95E1F7C2
:1049B00082E18A83CE0101960E943C09CE010196D4
:1049C0000E94C51E8AE25FCC10927B0A10927C0A7C
:1049D00010927D0A10927E0A61E089EF99E0B2CBD5
:1049E00061E3CE0101960E9453098BE08A838AE03D
:1049F00090E0A4E0B1E08F839887A987BA870ACDB9
:104A000062E3CE0101960E9453098BE08A8387E11D
:104A100095E3A0E0B0E0EFCFE4966CAD7DAD8EAD58
:104A20009FADE4970E9490336B017C01E0966CADE2
:104A30007DAD8EAD9FADE0970E9490334B015C0140
:104A4000AC966CAD7DAD8EAD9FADAC970E949033B2
:104A50006093610D7093620D8093630D9093640D6C
:104A60008092650D9092660DA092670DB092680DD0
:104A7000C092690DD0926A0DE0926B0DF0926C0DB0
:104A80008CE0E5E6F0E0EC0FFD1F3396DE01A9595E
:104A9000BE4F01900D928A95E1F763E3CE01019636
:104AA0000E94530983E18A838CE0FE01E959FE4F9D
:104AB000DE01179601900D928A95E1F7CE010196DD
:104AC0000E943C09CE0101960E94C51E83E3DBCB08
:104AD0006091690D70916A0D80916B0D90916C0DD4
:104AE0000E9461336B017C016091650D7091660DD0
:104AF0008091670D9091680D0E9461334B015C01BC
:104B00006091610D7091620D8091630D9091640DC3
:104B10000E9461332B013C0164E3CE0101960E94A7
:104B2000530983E18A834F82588669867A868B8609
:104B30009C86AD86BE86CF86D88AE98AFA8A6ACCF8
:104B4000A9961FADA997AA966FADAA97AB965FAD30
:104B5000AB97AC964FADAC97AD963FADAD97AE96DB
:104B60002FADAE97AF969FADAF97E0968FADE09724
:104B700019836A835B834C833D832E839F8388875D
:104B80008BE39FE015FF48C10E942A0EBE016753C8
:104B90007F4F89E49FE00E94BD0CC653DF4F6881C0
:104BA000CA5CD04089E49FE00E94C80C82E49FE088
:104BB00016FF35C10E942A0EBE0167537F4F82E463
:104BC0009FE00E94BD0CC653DF4F6881CA5CD04095
:104BD00082E49FE00E94C80C89E49FE017FF22C195
:104BE0000E942A0EBE0167537F4F89E49FE00E9416
:104BF000BD0CC653DF4F6881CA5CD04089E49FE09A
:104C00000E94C80C8A8180FF10C180E59FE00E944D
:104C10002A0EBE0167537F4F80E59FE00E94BD0CC6
:104C2000C653DF4F6881CA5CD04080E59FE00E9498
:104C3000C80C6981617085E30E9493046A8163FBFB
:104C4000662760F987E10E9493046A8166FB662704
:104C500060F986E10E949304698162FB662760F92E
:104C60008FE10E9493046A8167FB662760F981E106
:104C70000E9493046981669561708BE10E949304A0
:104C80006A8162FB662760F988E10E9493046A8169
:104C90006695617089E10E9493046A8162956170F2
:104CA00080E10E9493046A8165FB662760F98FE0CA
:104CB0000E9493046B8161708EE00E9493046B816B
:104CC000669561708DE00E9493046B8162FB66279C
:104CD00060F98CE00E9493046B8167FB662760F9A2
:104CE00085E20E9493046C81617084E20E949304C7
:104CF0006C816695617087E20E9493046C8162FB0F
:104D0000662760F986E20E9493046C8163FB662744
:104D100060F989E20E9493046C816295617088E277
:104D20000E9493046C8165FB662760F98BE20E9408
:104D300093046C8166FB662760F98AE20E94930403
:104D40006B8163FB662760F98CE20E9493046B81A0
:104D5000629561708EE20E9493046B8165FB662709
:104D600060F98DE20E9493046B8166FB662760F90F
:104D70008FE20E949304698163FB662760F98DE1ED
:104D80000E9493046981629561708EE10E94930490
:104D9000C753DF4F1882C95CD040C653DF4F18821B
:104DA000CA5CD040C553DF4F1882CB5CD040C4539F
:104DB000DF4F1882CC5CD040C353DF4F1882CD5CEC
:104DC000D040C253DF4F1882CE5CD040C153DF4F7A
:104DD0001882CF5CD040C053DF4F1882C05DD040F6
:104DE000CE0187539F4F0E94B60388E0FE01E75330
:104DF000FF4FDE01A258BE4F01900D928A95E1F758
:104E000065E3CE0101960E9453098FE08A8388E012
:104E1000FE01E258FE4F23C90E94B411C7CE0E9482
:104E2000B411DACE0E94B411EDCE80E59FE00E946D
:104E3000B411FFCECE0101960E94B409CE010196B5
:104E40000E94C51E1092BB0D60E57CE08DEB9CE0DE
:104E50000E94C5106BE27CE085ED9CE00E94C510CD
:104E600066E07CE08DEE9CE00E94C51061EE7BE088
:104E700085E09DE00E94C5106CEB7BE08DE19DE03C
:104E80000E94C51067E97BE085E39DE00E94C510A4
:104E900080915F0D9091600DB0E0A0E08093B00D27
:104EA0009093B10DA093B20DB093B30D8093B40D58
:104EB0009093B50DA093B60DB093B70D8BE89EE11E
:104EC0009093BA0D8093B90D1092B80D8091BB0DDF
:104ED00083608B7F8093BB0D7BC80C94101FE9E02F
:104EE000FAE084E6DF011D928A95E9F71092780ACC
:104EF0000C94BF091F920F920FB60F9211242F939B
:104F00003F938F939F93AF93BF938091700A90913B
:104F1000710AA091720AB091730A30916F0A23E06E
:104F2000230F2D3758F50196A11DB11D20936F0A4F
:104F30008093700A9093710AA093720AB093730AD7
:104F40008091740A9091750AA091760AB091770ABF
:104F50000196A11DB11D8093740A9093750AA093C8
:104F6000760AB093770ABF91AF919F918F913F914D
:104F70002F910F900FBE0F901F90189526E8230FCA
:104F80000296A11DB11DD2CF1F920F920FB60F92A4
:104F900011240BB60F922F933F934F935F936F9310
:104FA0007F938F939F93AF93BF93EF93FF93E09182
:104FB0001E02F0911F021995FF91EF91BF91AF91E1
:104FC0009F918F917F916F915F914F913F912F9121
:104FD0000F900BBE0F900FBE0F901F9018951F9251
:104FE0000F920FB60F9211240BB60F922F933F938F
:104FF0004F935F936F937F938F939F93AF93BF93E1
:10500000EF93FF93E0911C02F0911D021995FF911F
:10501000EF91BF91AF919F918F917F916F915F9130
:105020004F913F912F910F900BBE0F900FBE0F909D
:105030001F9018951F920F920FB60F9211240BB666
:105040000F922F933F934F935F936F937F938F9321
:105050009F93AF93BF93EF93FF93E0911202F09170
:1050600013021995FF91EF91BF91AF919F918F918D
:105070007F916F915F914F913F912F910F900BBE58
:105080000F900FBE0F901F9018951F920F920FB6A2
:105090000F9211240BB60F922F933F934F935F9370
:1050A0006F937F938F939F93AF93BF93EF93FF93F0
:1050B000E0911002F09111021995FF91EF91BF91CB
:1050C000AF919F918F917F916F915F914F913F91A0
:1050D0002F910F900BBE0F900FBE0F901F90189541
:1050E0001F920F920FB60F9211240BB60F922F93AF
:1050F0003F934F935F936F937F938F939F93AF9360
:10510000BF93EF93FF93E0911A02F0911B02199560
:10511000FF91EF91BF91AF919F918F917F916F918F
:105120005F914F913F912F910F900BBE0F900FBE4B
:105130000F901F9018951F920F920FB60F92112487
:105140000BB60F922F933F934F935F936F937F9381
:105150008F939F93AF93BF93EF93FF93E0911802C8
:10516000F09119021995FF91EF91BF91AF919F9125
:105170008F917F916F915F914F913F912F910F9000
:105180000BBE0F900FBE0F901F9018951F920F929D
:105190000FB60F9211240BB60F922F933F934F939C
:1051A0005F936F937F938F939F93AF93BF93EF938F
:1051B000FF93E0911602F09117021995FF91EF917C
:1051C000BF91AF919F918F917F916F915F914F911F
:1051D0003F912F910F900BBE0F900FBE0F901F901D
:1051E00018951F920F920FB60F9211240BB60F92C3
:1051F0002F933F934F935F936F937F938F939F93DF
:10520000AF93BF93EF93FF93E0911402F0911502D7
:105210001995FF91EF91BF91AF919F918F917F91E0
:105220006F915F914F913F912F910F900BBE0F9017
:105230000FBE0F901F9018951F920F920FB60F92EE
:1052400011240BB60F922F933F934F935F936F935D
:105250007F938F939F93AF93BF93EF93FF938FE7CA
:105260009AE00E941706FF91EF91BF91AF919F9135
:105270008F917F916F915F914F913F912F910F90FF
:105280000BBE0F900FBE0F901F9018951F920F929C
:105290000FB60F9211240BB60F922F938F939F93FB
:1052A000EF93FF93E0918F0AF091900A8081E09153
:1052B000950AF091960A82FD1DC090818091980A0E
:1052C0008F5F8F732091990A821741F0E091980ABD
:1052D000F0E0E158F54F958F8093980AFF91EF9198
:1052E0009F918F912F910F900BBE0F900FBE0F903B
:1052F0001F9018958081F2CF1F920F920FB60F92D8
:1053000011240BB60F922F933F934F935F936F939C
:105310007F938F939F93AF93BF93CF93EF93FF931D
:105320008091C10080688093C1008091C100886035
:105330008093C100C091C6008091C70D8E7F80937D
:10534000C70D8091780A843658F0E9E0FAE084E6E7
:10535000DF011D928A95E9F71092780A0E94BF0931
:10536000E091780AE33020F080910A0A80937A0A6B
:1053700081E08E0F8093780AF0E0E75FF54FC083FD
:1053800090917A0A89136BC09091090A913009F0C3
:105390005AC040EA5FE060E070E04093C80D50936F
:1053A000C90D6093CA0D7093CB0D4093CC0D5093F3
:1053B000CD0D6093CE0D7093CF0D2FE637E2309375
:1053C000D20D2093D10D1092D00D9091D30D9360FA
:1053D0009B7F9093D30D50E040E090E0BC01615082
:1053E0007109252F30E0261737073CF4275F354F2A
:1053F000F9012081420F5F5FF4CF885F954FDC0198
:105400008C9160E048131CC08DE697E20E94E50293
:105410001092780A0E94BF09FF91EF91CF91BF913E
:10542000AF919F918F917F916F915F914F913F913C
:105430002F910F900BBE0F900FBE0F901F901895DD
:1054400086E999E0E3CFE9E0FAE084E6DF011D9226
:105450008A95E9F71092780A0E94BF09D9CF8AE0AD
:1054600090E0A0E0B0E08093BC0D9093BD0DA093C0
:10547000BE0DB093BF0D8093C00D9093C10DA0934E
:10548000C20DB093C30D8FE697E29093C60D809343
:10549000C50D1092C40D8091C70D81608D7F8B7FEB
:1054A0008093C70DB7CF1F920F920FB60F921124A2
:1054B0000BB60F92FF920F931F932F933F934F932F
:1054C0005F936F937F938F939F93AF93BF93CF938C
:1054D000DF93EF93FF93C0EBDDE010E000E08CE0A2
:1054E000F82EF09EF001F19EF00D1124E554F24FDC
:1054F000808180FF23C08C819D81AE81BF81019717
:10550000A109B1098C839D83AE83BF83892B8A2B2C
:105510008B2BA1F480818460808381FF2DC08881E2
:105520009981AA81BB818C839D83AE83BF8389854A
:105530009A85009719F068850E94E5020F5F1F4F5A
:105540002C960032110569F6FF91EF91DF91CF9112
:10555000BF91AF919F918F917F916F915F914F918B
:105560003F912F911F910F91FF900F900BBE0F90C5
:105570000FBE0F901F9018958E7F8083D8CF1F92FB
:105580000F920FB60F9211240BB60F922F933F93E9
:105590004F935F936F937F938F939F93AF93BF933B
:1055A000EF93FF93F0E0E0E01995FF91EF91BF9149
:1055B000AF919F918F917F916F915F914F913F91AB
:1055C0002F910F900BBE0F900FBE0F901F9018954C
:1055D0001F920F920FB60F9211240BB60F922F93BA
:1055E0003F934F935F936F937F938F939F93AF936B
:1055F000BF93EF93FF93F0E0E0E01995FF91EF91F7
:10560000BF91AF919F918F917F916F915F914F91DA
:105610003F912F910F900BBE0F900FBE0F901F90D8
:105620001895FC0117821086108289E0838381E03F
:105630008483858386831182168A158A8FEF838BF4
:10564000148A7287618708951F93CF93DF93EC01CB
:10565000162F60E0812F0E94C104612F70E0FB01D2
:10566000E857FC4FE491E883FB01EE5BFC4FE491CB
:10567000F0E0EE0FFF1FE85DFC4F859194919A8357
:1056800089831B861D861C861A86198618861F82AA
:105690001E821D821C821B82DF91CF911F91089573
:1056A000CF93DF93EC01862F49836A832B831C827F
:1056B00020E830E03E832D83411103C061E00E9469
:1056C000C104CE01DF91CF910C94B4114F925F923F
:1056D0006F927F928F929F92AF92BF92CF92DF9202
:1056E000EF92FF920F931F93CF93DF93CDB7DEB767
:1056F0002F970FB6F894DEBF0FBECDBF1092820A6F
:105700001092810A88EE93E0A0E0B0E08093830AD3
:105710009093840AA093850AB093860A8AE392E064
:105720009093800A80937F0A85ED90E090938C0A95
:1057300080938B0A84ED90E090938E0A80938D0A7B
:1057400080ED90E09093900A80938F0A81ED90E035
:105750009093920A8093910A82ED90E09093940A3C
:105760008093930A86ED90E09093960A8093950A31
:105770001092980A1092990A10929A0A10929B0A13
:10578000E0EBFDE080E39FE0108211821282138241
:10579000148215821682178210861286118613864D
:1057A0003C968E179F0781F71092940B1092950BE1
:1057B0001092960BF89480917A00806880937A001A
:1057C0007894F89480917A008E7F80937A0080910B
:1057D0007A00866080937A007894F89480917C00B7
:1057E0008F7780937C0080917C00806480937C0024
:1057F00078946FE387E69CE00E94242B67E67CE0C8
:1058000080E59CE00E94112B61E482E49CE00E9410
:10581000242B62E47CE08BE29CE00E94112B6EE37F
:105820008DE19CE00E94242B6DE17CE086E09CE011
:105830000E94112B60E488EF9BE00E94242B68EF0C
:105840007BE081EE9BE00E94112B63E483ED9BE003
:105850000E94242B63ED7BE08CEB9BE00E94112BDC
:1058600062E48EEA9BE00E94242B6EEA7BE087E9EB
:105870009BE00E94112B82E090E090938A0C809331
:10588000890C25E73CE030938C0C20938B0C909393
:10589000920C8093910C2AE73CE03093940C209377
:1058A000930C90939A0C8093990C2FE73CE03093E3
:1058B0009C0C20939B0C9093A20C8093A10C84E8E9
:1058C0009CE09093A40C8093A30C8AE38093A90C92
:1058D0001092AB0C1092AA0C84E190E09093AD0C66
:1058E0008093AC0C2DE32093AE0C1092B00C109270
:1058F000AF0C9093B20C8093B10C28E32093B30CBF
:105900001092B50C1092B40C9093B70C8093B60C17
:105910002CE32093B80C1092BA0C1092B90C90930F
:10592000BC0C8093BB0CEDEBFCE08DE49DE040E013
:1059300050E06AE774EC23E030E0408351836283F7
:1059400073831482158216821782138A358B248BF7
:10595000178A168A78968E179F0779F705E00093C5
:10596000730D1092740D1092750D1092760D1092A9
:10597000780D1092770D10927D0D10927E0D109281
:10598000800D10927F0D1092850D1092860D109251
:10599000870D8AE090E090937A0D8093790D909333
:1059A0007C0D80937B0D8FE090E09093820D80932F
:1059B000810D9093840D8093830D80E180934F0D32
:1059C00088E89DE09093A90D8093A80D80E28093D4
:1059D000AA0D1092AB0D1092AC0D1092AD0D10925D
:1059E000AF0D1092AE0D1092310F1092300F109239
:1059F000320F1092340F1092330F85E38093360FDD
:105A000061E00E94C10485E39FE00E94D50E8FE112
:105A10008093380F61E00E94C10487E39FE00E94F9
:105A2000D50E8BE180933A0F61E00E94C10489E3B7
:105A30009FE00E94D50E11E010933C0F8AE0809306
:105A40003D0F10933E0F10923F0F80E8E82EF12C8F
:105A5000F092410FE092400F8BE39FE00E94B4115F
:105A60001093430F8BE08093440F82E08093450FA7
:105A70001092460FF092480FE092470F82E49FE0A9
:105A80000E94B41110934A0F98E0D92ED0924B0F78
:105A900024E0C22EC0924C0F10924D0FF0924F0F87
:105AA000E0924E0F89E49FE00E94B4111093510FD1
:105AB00089E08093520F0093530F1092540FF0928D
:105AC000560FE092550F80E59FE00E94B41123E04D
:105AD00040E069E187E59FE00E94502B26E040E02E
