:100000000C9403020C9475280C944A280C941F2815
:100010000C94F4270C94C9270C949E270C947327F6
:100020000C9448270C9434020C9434020C9434023F
:100030000C9434020C9434020C9434020C94340268
:100040000C9434020C9434020C9434020C94340258
:100050000C9434020C9434020C9434020C94FE265A
:100060000C9434020C9400290C9434020C94340245
:100070000C94432A0C946C2A0C9434020C94340291
:100080000C9434020C9434020C9434020C94340218
:100090000C9434020C9434020C9434020C94340208
:1000A0000C9434020C9434020C9434020C943402F8
:1000B0000C9434020C9434020C9434020C94D7291E
:1000C0000C9434020C9434020C9434020C94CA281C
:1000D0000C94A0280C9434020C9434020C94340236
:1000E0000C9434020C9473030C94F4210C94451971
:1000F0000C94931B0C947C1D0C9446030C94C3220B
:100100000C94E7200C94770D0C9408060C94510D78
:100110000C942F090C947C030C9469200C942B0DE7
:100120000C94900D0C94490D0C94260D0C94F32610
:100130000C9463160C9402090C94D41A0C94A40D1C
:100140000C94860D0C946F1F0C9423150C946D1653
:100150000C944C200C94BD0D0C9494220C940F2004
:100160000C942E240C94FD1A0C943C030C94E6057C
:100170000C946D0D0C9456150C94C71B0C946124B3
:100180000C9477030C948C180C947D030C94B80D8C
:100190000C94B3170C9440060C944C220C944E0310
:1001A0000C94ED1F0C9459160C9445250C941D0DC0
:1001B0000C94630D0C947F1D0C9499050C949E2651
:1001C0000C940A190C944A030C94F1260C94E70839
:1001D0000C942B210C947E1E0C94AA050C94791D72
:1001E0000C94590D0C947E200C9416230C948924A5
:1001F0000C94E51D0C94C51A0C9456200C942D17E4
:100200000C9466180C942E1B0C94B2090C94411B90
:100210000C9481030C94D91F0C948D060C94FA0550
:100220000C943C1B0C943D0C0C949A0D0C94AE0D4C
:100230000C947C0C0C943F0D0C94F72A0C946020C9
:100240000C9451030C9465030C94931A0C94A524FC
:100250000C94F51C0C945E160C94350D0C940D2525
:100260000C94A9050C94D7050C9461030C94B1244B
:100270000C94C11F0C94A1050C94B5180C94F02299
:100280000C9457030C9495240C94011D0C94662334
:100290000C9469030C94521B0C943D1E0C94A41FE7
:1002A0000C946F030C94BF210C94831B0C94420399
:1002B0000C940B1D0C94A40B0C944A1B0C945B0324
:1002C0000C942618005EBCE2613FDD83C29C7E2058
:1002D000A3FD1F41009D23BE46DB65F88C11AF32A4
:1002E000CA57E97400002100240027002A002D00CD
:1002F0003000330001010000040107010A01000081
:100300002200250028002B002E00310034000201BD
:100310000000050108010B01000020002300260059
:1003200029002C002F00320000010000030106010B
:10033000090105050505070508080808020202026B
:100340000A0A080804040404010101010101010171
:100350000303030303030303040707070C0C0C0C3C
:100360000C0C0C0C02020202060606060606060625
:100370000B0B0B0B0B0B0B0B0102102020080810B2
:100380002040102040800201020108040201010205
:1003900004081020408080402010080402018004DE
:1003A0000201804020100804020108040201010239
:1003B0000408102040800102040810204080000042
:1003C0000A0B02090C0D0E080703040100000000CF
:1003D000000000000000000000000000000000001D
:1003E00000000000000000000000121110000000DA
:1003F00000000000000000000000000000000000FD
:1004000000000000F72A11241FBECFEFD1E2DEBFAB
:10041000CDBF00E00CBF19E0A0E0B2E0E2EBF7E6F0
:1004200000E00BBF02C007900D92AC39B107D9F7BD
:100430002FE0ACE9B9E001C01D92A83CB207E1F79A
:1004400012E0C3E0D2E000E006C021970109802F4E
:10045000FE010E946F31C230D10780E00807A9F782
:100460000E94F52E0C94D7330C940000E6E1FAE0DC
:10047000A089B18982E08C93A485B5851C92A6855C
:10048000B78580E18C93108EA489B58986E08C9322
:10049000A289B3898C9180618C93A289B3898C9154
:1004A00088608C93A289B3898C9180688C93028830
:1004B000F389E02D80818F7D8083089580918C0E5B
:1004C000882311F181E090E090938B0E80938A0E47
:1004D0001092AC0F1092AE0F1092AD0F1092B20F9F
:1004E0001092B00F1092AF0F1092B10F80919F0F2A
:1004F0008093AA0F8091A00F8093AB0F1092B50F3D
:100500001092B40F1092B60F0895FC0190E1A6EB83
:10051000BCE001900D929A95E1F78091C20C909108
:10052000C30CB0E0A0E0E6E1FDE080938E0D909377
:100530008F0DA093900DB093910D8093920D909399
:10054000930DA093940DB093950D84EA9BE0909346
:10055000980D8093970D1092960DA9E9BDE08C91AE
:1005600083608B7F8C938091C40C9091C50CB0E01C
:10057000A0E080839183A283B38384839583A68341
:10058000B7838EE79EE1928781871086E1E2FDE0E6
:10059000808183608B7F808386EB9CE090938C0FBF
:1005A00080938B0F84E690E09093730F8093720F8B
:1005B0009093270F8093260F08959C014FB7F894CE
:1005C00080912D0BE0912C0B81111CC081E08E0FCE
:1005D00080932C0B93E0E99FF0011124ED54F54F2B
:1005E000318320836283883211F410922C0B909116
:1005F0002C0B80912B0B981303C081E080932D0B63
:100600004FBF089590912B0B9F5F9832A1F090936C
:100610002B0B91E09E0F90932C0B83E0E89FF00151
:100620001124ED54F54F318320836283983241F7D2
:1006300010922C0BE5CF10922B0BEBCF8150823117
:1006400008F05AC0E82FF0E08827E65DFC4F8F4F96
:100650000C946F314A034E033C03420346037C0370
:10066000510357035B036103650369036F0373035E
:100670007C0377037D038103809180008F778093D3
:1006800080000895809180008F7DF9CF8091800057
:10069000877FF5CF84B58F7784BD089584B58F7D2E
:1006A000FBCF8091B0008F778093B0000895809148
:1006B000B0008F7DF9CF809190008F77809390006C
:1006C0000895809190008F7DF9CF80919000877F71
:1006D000F5CF8091A0008F778093A000089580913E
:1006E000A0008F7DF9CF8091A000877FF5CF80910A
:1006F00020018F77809320010895809120018F7DC4
:10070000F9CF80912001877FF5CFCF93DF93282FFA
:1007100030E0F901E254FC4F8491F901E858FC4FB4
:10072000D491F901EE5CFC4FC491CC23A1F081116E
:100730000E941E03EC2FF0E0EE0FFF1FE85EFC4F5F
:10074000A591B491EC91ED2381E090E009F480E073
:10075000DF91CF91089580E090E0FACFCF93DF93BF
:10076000EC01188219821A821B821C821D821E8251
:100770001F828FE00E9485039C8180FB93F99C83FC
:100780008CE00E9485039C8180FB94F99C838EE021
:100790000E9485039C8180FB95F99C83EAE8FEE03A
:1007A0008B81958990FB80F9948D90FB81F993A1C1
:1007B00090FB82F992A590FB83F98B8389E10E94DB
:1007C00085039B8180FB94F99B8388E10E948503CC
:1007D0009B8180FB95F99B8387E10E9485039B8128
:1007E00080FB96F99B838EE10E9485039B8180FBB1
:1007F00097F99B838DE10E9485039C8180FB90F992
:100800009C8386E10E9485039C8180FB91F99C83F7
:1008100081E10E9485039C8180FB92F99C838CE29C
:100820000E948503998180FB90F999838EE20E9452
:100830008503998180FB91F999838DE20E9485035C
:10084000998180FB92F999838FE20E9485039981B7
:1008500080FB93F9998381E30E948503998180FB52
:1008600094F9998380E30E948503998180FB95F92F
:10087000998383E30E948503998180FB96F999838C
:1008800082E30E948503998180FB97F9998385E231
:100890000E9485039A8180FB90F99A8384E20E94EA
:1008A00085039A8180FB91F99A8387E20E948503F0
:1008B0009A8180FB92F99A8386E20E9485039A814D
:1008C00080FB93F99A8389E20E9485039A8180FBD9
:1008D00094F99A8388E20E9485039A8180FB95F9B6
:1008E0009A838BE20E9485039A8180FB96F99A8312
:1008F0008AE20E9485039A8180FB97F99A8384E3B8
:100900000E948503988180FB91F9988385E30E947A
:100910008503988180FB90F9988385E00E94850388
:10092000988180FB93F9988387E00E9485039881E2
:1009300080FB92F998838CE10E948503988180FB6B
:1009400095F998838FE10E948503988180FB94F943
:1009500098838AE10E948503988180FB97F99883A8
:100960008BE10E948503988180FB96F99883DF9143
:10097000CF9108951F93CF93DF93282F30E0F90193
:10098000E254FC4F8491F901E858FC4FD491F901ED
:10099000EE5CFC4FC491CC23A9F0162F81110E946C
:1009A0001E03EC2FF0E0EE0FFF1FE250FD4FA5916C
:1009B000B4918FB7F894EC91111108C0D095DE2353
:1009C000DC938FBFDF91CF911F910895DE2BF8CF7D
:1009D000CF93DF9390E0FC01E858FC4F24918E5CAC
:1009E0009C4FFC0184918823C9F090E0880F991FE7
:1009F000FC01EC51FD4FA591B491FC01E250FD4F7B
:100A0000C591D49161110DC09FB7F8948C91209538
:100A100082238C938881282328839FBFDF91CF91E5
:100A20000895623051F49FB7F8943C91822F8095DD
:100A300083238C93E8812E2BEFCF8FB7F894EC9122
:100A40002E2B2C938FBFEACF863308F0865320914C
:100A50007B00982F9870277F922B90937B00877054
:100A6000806480937C0080917A00806480937A0017
:100A700080917A0086FDFCCF80917800909179007A
:100A800008953FB7F89480910B0A90910C0AA091B9
:100A90000D0AB0910E0A26B5A89B05C02F3F19F08C
:100AA0000196A11DB11D3FBFBA2FA92F982F8827EE
:100AB000BC01CD01620F711D811D911D42E0660FC9
:100AC000771F881F991F4A95D1F708958F929F929B
:100AD000AF92BF92CF92DF92EF92FF926B017C01B7
:100AE0000E9441054B015C01C114D104E104F104F1
:100AF000B9F00E944105681979098A099B09683E85
:100B000073408105910580F321E0C21AD108E10804
:100B1000F10888EE880E83E0981EA11CB11CE4CF7A
:100B2000FF90EF90DF90CF90BF90AF909F908F900D
:100B30000895ECE0FCE083819481019694838383A3
:100B40000895ECE0FCE0808591850196918780878F
:100B500008950895AF92BF92CF92DF92EF92FF92E5
:100B60000F931F93CF93DF936C017B018B01040FD5
:100B7000151FEB015E01AE18BF08C017D10759F071
:100B80006991D601ED91FC910190F081E02DC601B3
:100B90001995892B79F7C501DF91CF911F910F919D
:100BA000FF90EF90DF90CF90BF90AF900895FC0141
:100BB000538D448D252F30E0842F90E0821B930BC2
:100BC000541710F0CF96089501970895FC01918D68
:100BD000828D981761F0A28DAE0FBF2FB11D5D966B
:100BE0008C91928D9F5F9F73928F90E008958FEF0D
:100BF0009FEF0895FC01918D828D981731F0828DC1
:100C0000E80FF11D858D90E008958FEF9FEF089517
:100C1000FC01918D228D892F90E0805C9F4F821B7B
:100C200091098F739927089586E19AE00E9408063A
:100C300021E0892B09F420E0822F0895FC01A48D86
:100C4000A80FB92FB11DA35ABF4F2C91848D90E0EE
:100C500001968F739927848FA689B7892C93A089D1
:100C6000B1898C91837080648C93938D848D98135B
:100C700006C00288F389E02D80818F7D80830895EE
:100C8000EF92FF920F931F93CF93DF93EC0181E0DC
:100C9000888F9B8D8C8D98131AC0E889F989808183
:100CA00085FF15C09FB7F894EE89FF896083E889B6
:100CB000F98980818370806480839FBF81E090E0A8
:100CC000DF91CF911F910F91FF90EF900895F62E35
:100CD0000B8D10E00F5F1F4F0F731127E02E8C8DCF
:100CE0008E110CC00FB607FCFACFE889F989808114
:100CF00085FFF5CFCE010E941E06F1CFEB8DEC0FE4
:100D0000FD2FF11DE35AFF4FF0829FB7F8940B8F30
:100D1000EA89FB8980818062CFCFCF93DF93EC019A
:100D2000888D8823B9F0AA89BB89E889F9898C91D3
:100D300085FD03C0808186FD0DC00FB607FCF7CF8F
:100D40008C9185FFF2CF808185FFEDCFCE010E948F
:100D50001E06E9CFDF91CF91089580E090E0892BC6
:100D600049F080E090E0892B29F00E940000811179
:100D70000E94000080E090E0892B49F080E090E044
:100D8000892B29F00E94000081110E94000080E060
:100D900090E0892B29F00E94140681110E94000026
:100DA00080E090E0892B49F080E090E0892B29F0E9
:100DB0000E94000081110C9400000895DC0180E085
:100DC000615090F09D919827E92FEF70F0E0EC537F
:100DD000FD4F2491E92FE295EF70F0E0EC52FD4FCA
:100DE000E491822F8E27ECCF0895DC012C9111968F
:100DF000ED91FC91F8948181822B81839281322F35
:100E000030959323928387E090E00197F1F78181F9
:100E10008323818383E290E00197F1F790817894B6
:100E2000EFECF0E03197F1F7922381E009F480E0F4
:100E30000895FC0190810180F281E02D292F2095F9
:100E400060FF14C0F8948281822382838181892B80
:100E50008183A3E2B0E01197F1F78281982B92830E
:100E6000789487ED90E00197F1F70895F8948281E6
:100E7000822382838181892B8183AFEFB0E0119738
:100E8000F1F78281982B928378948FE090E0EBCFFA
:100E9000DF92EF92FF920F931F93CF93DF93EC01BA
:100EA000D62EE42E08E010E0FF24F39461E08D2DAF
:100EB0008F2109F460E0CE010E941907FF0C015058
:100EC0001109A1F7E11010C0F894E981FA8191812C
:100ED0008881809589238183E981FA819281888143
:100EE0008095892382837894DF91CF911F910F9110
:100EF000FF90EF90DF900895EF92FF920F931F9372
:100F0000CF93DF938C017B0140E065E50E944807A9
:100F1000E70188E0E80EF11C699140E0C8010E94F9
:100F20004807CE15DF05C1F7DF91CF911F910F91D3
:100F3000FF90EF900895FC0190810180F281E02DF7
:100F4000F8948181292F20958223818378943DE72D
:100F500043E050E0315029F1DA011197F1F7808137
:100F60008923C1F3F8948281822382838181892B32
:100F700081837894ABE7B7E01197F1F7F89481811A
:100F800082238183A3E1B1E01197F1F78081982357
:100F900081E009F080E07894E3E6F6E03197F1F73C
:100FA000089580E008958F929F92AF92BF92CF9262
:100FB000DF92EF92FF920F931F93CF93DF9300D0B6
:100FC0001F921F92CDB7DEB78C01DC0119968D916F
:100FD0009C910E949B0740E06CECF8018185928512
:100FE0000E944807D8014C9164E419968D919C9118
:100FF0000E9448078FB7F894C090070AD090080A5B
:10100000E090090AF0900A0A8FBFF80184818111EB
:1010100020C081E08983CA82DB82EC82FD82298143
:101020003A814B815C816D8170E080E090E00F90AF
:101030000F900F900F900F90DF91CF911F910F9114
:10104000FF90EF90DF90CF90BF90AF909F908F90E8
:10105000089585818823F9F0808181111CC0F801F1
:10106000818592850E94F506813099F22FB7F89418
:101070008091070A9091080AA091090AB0910A0A82
:101080002FBF8C199D09AE09BF098E3E9240A10564
:10109000B10528F3BECFD8011396EC91E9508EEE3E
:1010A00092E0E33038F4F0E0EE0FFF1FE05DFD4F1B
:1010B000808191814C01B12CA12CF8018181882380
:1010C00021F060E082810E94BA04C501B4010E944F
:1010D0006605D80111968C911197882309F499CF50
:1010E00061E012968C910E94BA0493CF4F925F9266
:1010F0006F927F928F929F92AF92BF92CF92DF9228
:10110000EF92FF920F931F93CF93DF938C017B019C
:10111000EA01FC01818592850E949B078823D9F111
:10112000B701F801818592850E947C0740E06EEB53
:10113000F801818592850E9448076E015E01F9E001
:10114000AF0EB11C7E01F8018184928488E0682E84
:10115000712C512C44244394C4010E94F506811142
:101160005428440CF1E06F1A7108B1F7F70151925D
:101170007F01AE16BF0639F7F801818592850E947E
:101180009B07813041F4F60181916F01811105C007
:10119000EE15FF05C1F790E008C068E0CE010E949F
:1011A000DE0691E028852813F6CF892FDF91CF91B5
:1011B0001F910F91FF90EF90DF90CF90BF90AF9075
:1011C0009F908F907F906F905F904F900895E6E191
:1011D000FCE0A281B38113968D919C911497149693
:1011E0001C921E92139795838483A285B3851396D0
:1011F0008D919C91149714961C921E92139795872B
:101200008487089520911A0C30911B0C80911C0C3E
:1012100090911D0C28173907C0F081E090E0909361
:10122000170C8093160C2091220C3091230C809186
:10123000240C9091250C2817390760F081E090E08C
:1012400090931F0C80931E0C08951092170C10920F
:10125000160CE9CF10921F0C10921E0C08951092DC
:10126000690DE2E1FAE08081877F80830895CF9362
:10127000DF93A0E0B2E0FD0190E0219131912817C9
:10128000390721F4EF0122971982188222E0E03118
:10129000F20799F78D919D91892B41F482E0A0315D
:1012A000B807C1F781E0DF91CF91089580E0FBCFCF
:1012B000FC0121812150330B70E060E0472F50E0AA
:1012C000421753073CF4480F591FFA014081640F3D
:1012D0007F5FF4CF820F931FFC0160830895FC01B0
:1012E00081E08083658385E082838091B40CA0E0F7
:1012F000B2E020E132E04D915D91452BE1F42A17F7
:101300003B07C9F791E08F7E90FF806190919C0927
:1013100090FB81F98383F8949091130D8091120DC5
:1013200091110BC09091110D981307C078941482FD
:1013300087E08183089590E0E6CF90E0A0910E0DC4
:10134000B0910F0DA80FB91F2C9101966091100D4F
:1013500070E00E945B318093120D1092130D78940F
:101360002483E6CFCF93DF93CDB7DEB7C456D10940
:101370000FB6F894DEBF0FBECDBF66E0CE0101967A
:101380000E946F09CE0101960E945809CC59DF4F87
:101390000FB6F894DEBF0FBECDBFDF91CF91089599
:1013A000CF93DF93EC0167E00E946F09CE01DF91DC
:1013B000CF910C945809E1ECF0E080818068808343
:1013C00008951F93CF93DF93EC0119861EAAFC01A9
:1013D000E05CFF4F10829FAD319680E0981719F0C6
:1013E00011928F5FFBCFFE01E55BFF4F10823197BB
:1013F000108210E08FAD181750F4EA81FB81E10FE5
:10140000F11D60E080810E94BA041F5FF3CFDF917D
:10141000CF911F910895CF93DF93EC010E94E109D2
:10142000ED81FE812F8138858CA99DA9B0E0A0E0D7
:1014300080839183A283B38384839583A683B783B8
:10144000328721878BE08087838581608D7F8B7FCA
:101450008387DF91CF9108953F924F925F926F9271
:101460007F928F929F92AF92BF92CF92DF92EF9234
:10147000FF920F931F93CF93DF9300D000D0CDB78F
:10148000DEB79E838D83062F10E08FB7F894C0904F
:10149000070AD090080AE090090AF0900A0A8FBF64
:1014A000ED81FE8180A991A9A2A9B3A9C81AD90A80
:1014B000EA0AFB0AC701B6010E94A53220E030E02B
:1014C0004AE754E40E94FD31AD81BE8194966D934C
:1014D0007D938D939C939797FD01C0A2D1A2E2A228
:1014E000F3A22FB7F8948091070A9091080AA0916F
:1014F000090AB0910A0A2FBFED81FE8180AB91AB42
:10150000A2ABB3AB1587048762857385601B710B33
:10151000E6A4F7A4E01AF10A17A706A781A5882375
:1015200031F0719561957109F194E194F108AD8103
:10153000BE8198963C90072E000C880B990B0E9458
:10154000A7324B015C0110E000E031100BC0ED81CF
:10155000FE8120893189428953890E945C330E942F
:101560006F328B01B701FF0C880B990B0E94A732D9
:101570006B017C01AD81BE8194968D919D910D9002
:10158000BC91A02D89839A83AB83BC83ED81FE81BE
:10159000208D318D428D538DC701B6010E945C3381
:1015A00029813A814B815C810E94FD312B013C01F4
:1015B000B801110F880B990B0E94A7329B01AC0157
:1015C000C301B2010E948C310E946F322B01AD81A8
:1015D000BE811F967C936E931E9754962D913D91DC
:1015E0004D915C915797C501B4010E945C332981EC
:1015F0003A814B815C810E945C33ED81FE81248DB8
:10160000358D468D578D0E948C314B015C01AD812B
:10161000BE815C968D929D92AD92BC925F97332075
:10162000A1F050962D913D914D915C915397C7013A
:10163000B6010E945C33A50194010E948C31ED81BA
:10164000FE81648F758F868F978FAD81BE815C968A
:101650008C905C975D969C905D975E96AC905E9743
:101660005F96BC905F979A960D911C91B801012EE0
:10167000000C880B990B0E94A7326B017C019B0127
:10168000AC01B401C5010E94F83187FD16C0ED819F
:10169000FE8164A575A5072E000C880B990B0E948E
:1016A000A7326B017C019B01AC01B401C5010E9412
:1016B0005733181614F064017501C601D701ED8186
:1016C000FE81848F958FA68FB78FB201550C880B42
:1016D000990B0E94A7329601A7010E948C310E94AB
:1016E0006F32601771074CF0AD81BE819C960D91F1
:1016F0001C91601771070CF48B01ED81FE81178737
:10170000068706ABE55BFF4FAD81BE8114968C91D9
:10171000081708F4802F808326960FB6F894DEBF52
:101720000FBECDBFDF91CF911F910F91FF90EF9032
:10173000DF90CF90BF90AF909F908F907F906F90F1
:101740005F904F903F900895CF93DF93CDB7DEB772
:1017500068970FB6F894DEBF0FBECDBFE6E1FCE0A0
:10176000DE01119644A155A166A177A14D935D9329
:101770006D937D9374968CE0EE38F80799F780911D
:10178000FB0E882351F069817A818B819C810E94B4
:10179000763282EF9EE00E942C0A8091470F8823C8
:1017A00091F069817A818B819C810E9476328EE3EF
:1017B0009FE068960FB6F894DEBF0FBECDBFDF91F5
:1017C000CF910C942C0A68960FB6F894DEBF0FBE2A
:1017D000CDBFDF91CF910895CF92DF92EF92FF922C
:1017E0000F931F93CF93DF9300D000D01F921F92CF
:1017F000CDB7DEB7FC018E010F5F1F4F88E0D80127
:101800001D928A95E9F74285C180E0802E2D30E057
:10181000842FF12CDD24D394CF100EC0CF0102967B
:10182000B801562F501B5E1590F4DB015D91BD0190
:10183000DC015D93CD01F5CF90E0D801A80FB91F71
:10184000DC920196B9010E945B31F394E5CF842FBD
:1018500090E00196B9010E945B31828728960FB60D
:10186000F894DEBF0FBECDBFDF91CF911F910F91D6
:10187000FF90EF90DF90CF9008951F93CF93DF9369
:10188000FC0181858823A1F1DF01A65BBF4F9C91FC
:10189000EF01C55BDF4F8881981730F59F5F9C9300
:1018A0009F01205C3F4F97AD8C91981708F4892FCA
:1018B000EF01F9018083CE01CF960E94EC0B10E07E
:1018C0008FAD1817A8F4812F90E0DE01A80FB91F83
:1018D000AF5BBF4FEA81FB81E80FF91F6C918081FC
:1018E0000E94BA041F5FECCF8917D0F69150D7CF72
:1018F000DF91CF911F91089582EF9EE00E943D0CF1
:101900008EE39FE00C943D0CEF92FF921F93CF93D8
:10191000DF93EC0110E08C811817A0F4E12EF12C7C
:10192000EA81FB81EE0DFF1D61E080810E94E804E9
:10193000EA81FB81EE0DFF1D60E080810E94BA0408
:101940001F5FE9CFFE01E05CFF4F1082CE01CF9612
:10195000DF91CF911F91FF90EF900C94EC0B81E2FF
:101960000E94850321E0892B09F420E0822F08954D
:10197000FC018181861799F0618381E090E0938377
:1019800082838081861751F0662381F0848195815E
:10199000228133812817390708F0608308958281F6
:1019A00093818F3F980769F30196E9CF86819781EC
:1019B000EFCF0F931F93CF93DF93FC01208122235E
:1019C00009F43FC0162FC62FD0E0D683C58302810D
:1019D00061E0802F0E94E804209741F460E0802FAE
:1019E000DF91CF911F910F910C94BA04CF3FD10595
:1019F00011F461E0F4CFE02FF0E0E254FC4FE49109
:101A0000E150E23108F0B4C0F0E08827E55FF24F22
:101A10008F4F0C946F311D0D260D2B0D350D3F0D85
:101A2000B80D490D510D590D630D6D0D770D860DD6
:101A3000900DB80D9A0DA40DAE0D84B5806884BDCF
:101A400017BDDF91CF911F910F91089584B58062EA
:101A500084BD18BDF6CF809180008068809380009F
:101A6000D0938900C0938800ECCF80918000806281
:101A700080938000D0938B00C0938A00E2CF809146
:101A80008000886080938000D0938D00C0938C008C
:101A9000D8CF8091B00080688093B0001093B300DD
:101AA000D0CF8091B00080628093B0001093B400DA
:101AB000C8CF80919000806880939000D093990067
:101AC000C0939800BECF8091900080628093900078
:101AD000D0939B00C0939A00B4CF8091900088600F
:101AE00080939000D0939D00C0939C00AACF8091DA
:101AF000A00080688093A0008091A0008F7B8093DD
:101B0000A000D093A900C093A8009BCF8091A00013
:101B100080628093A000D093AB00C093AA0091CFC5
:101B20008091A00088608093A000D093AD00C09306
:101B3000AC0087CF80912001806880932001D093F2
:101B40002901C09328017DCF80912001806280937C
:101B50002001D0932B01C0932A0173CF80912001E3
:101B6000886080932001D0932D01C0932C0169CF10
:101B7000C038D1050CF03DCF31CF0F931F93CF93D9
:101B8000DF9383E20E9485038C0182E20E94850339
:101B9000EC0161E0012B09F460E08AED9CE00E9419
:101BA000B80C61E0CD2B09F460E082EE9CE00E946D
:101BB000B80C8091DA0C8093EA0C9091E20C90932F
:101BC000EB0C23E0911103C021E0811122E020936E
:101BD000EC0C2091BC0F222309F448C02091C40FC3
:101BE000222309F443C020918A0F21113FC0992379
:101BF00051F180919C0F8093AB0F1092AA0F6091CE
:101C0000AA0F6093BB0F8091BD0F882329F18091AB
:101C1000B90F9091BA0F0E94D90C6091AB0F6093ED
:101C2000C30F8091C40F882309F18091C50F8823C9
:101C3000C1F08091C10F9091C20FDF91CF911F91A0
:101C40000F910C94D90C8111DACF80919B0F809366
:101C5000AA0F1092AB0FD3CF8091B70F9091B80F0E
:101C6000DACF8091BF0F9091C00FE7CFDF91CF9176
:101C70001F910F910895CF93DF93EC0128812111DB
:101C800021C021E028832981211117C08A81813157
:101C900071F48091D00080648093D0008091D10055
:101CA000877E8093D10061E081E10E94E80461E0D9
:101CB0008A81DF91CF910C94BA046D81DF91CF912D
:101CC0000C94D90CDF91CF910895CF93DF93EC0161
:101CD000862F68835A8349831C821B8262E00E949C
:101CE000E80429813A819881923069F43093110295
:101CF0002093100280916A00836080936A00EC9ABE
:101D0000DF91CF910895933059F4309313022093CB
:101D1000120280916A008C6080936A00ED9AF0CF85
:101D20008EEE890F843060F787E1891BE82FF0E0A1
:101D3000EE0FFF1FE05FFD4F31832083843091F071
:101D40008530B9F0833039F08091690083608093E9
:101D50006900E89AD5CF809169008C608093690012
:101D6000E99ACECF80916900806380936900EA9AF6
:101D7000C7CF80916900806C80936900EB9AC0CFD7
:101D8000FC01118260E080810C94BA04FC01108295
:101D900060E081810C94BA0421E0FC01208361E0C1
:101DA00081810C94BA04FC01208121110C94C60E8F
:101DB0000C94CC0EF8949091130D992359F08091C6
:101DC000140D9091150D01969093150D8093140D9F
:101DD000789408952091110D30E0E0910E0DF0916E
:101DE0000F0DE20FF31F8083C90101966091100D62
:101DF00070E00E945B318093110D9091120D981349
:101E0000E7CF81E08093130DE3CFBF92CF92DF92B3
:101E1000EF92FF920F931F93CF93DF93EC01B62EB7
:101E2000C72E8D85811105C0CE010E949B078111AF
:101E30000EC01B861D861C8680E0DF91CF911F910E
:101E40000F91FF90EF90DF90CF90BF90089540E00A
:101E500060EFCE010E94480701E0E12CD12C11E097
:101E6000CE010E94F506F82ECE010E94F50691E003
:101E7000F91218C0813099F51134D8F2DB86D110EF
:101E800002C081E08D878B81882399F22396EB2D08
:101E9000FC2DCF01089629912193E817F907D9F76E
:101EA00081E0CBCFEE2DF0E0F8120FC08B85181734
:101EB000A0F4DE01AE0FBF1F13968C91802379F43E
:101EC000F12C193008F41C87D12EEC0FFD1F8381F3
:101ED000902F9095892383830AC08113F1CFFE014F
:101EE000EE0DF11D8381802B8383FF24F3946F2DEE
:101EF000CE010E9419071F5F000F11F4E39401E067
:101F000087E08E1508F0ACCFB7CFCF93DF93EB010E
:101F1000DC011996ED91FC911A97138615861486AB
:101F200012861186108617821682158214821382F9
:101F300019968D919C910E94050F982F882341F04E
:101F400067E0CE010E94DE0691E02F81281390E029
:101F5000892FDF91CF9108958F929F92AF92BF9278
:101F6000EF92FF920F931F93CF93DF93CDB7DEB71E
:101F700061970FB6F894DEBF0FBECDBF7C01FC01A8
:101F800000851185F8018781882309F4D4C0BE013A
:101F9000665F7F4FC8010E94850F882309F4CBC07C
:101FA000AE014F5F5F4FBE01665F7F4FC8010E9469
:101FB0007608882309F4BFC08A81812C912C5401B2
:101FC00087FF06C0812C912CF8EFAF2EBB24BA946A
:101FD0009A8549819B3309F068C02D8127FF65C030
:101FE00040FDA9C0042F10E030E020E073E0000FB6
:101FF000111F221F331F7A95D1F7B901A801407E26
:1020000057706627772790E0B0E0A0E08C019D0133
:10201000EBE0000F111F221F331FEA95D1F7042BAD
:10202000152B262B372B082919292A293B2901385A
:1020300054EE15075FEF250735070CF47CC0C90186
:10204000B8010E94A73220E030E040E05CE30E944B
:102050005C334B015C0120E030E04EEF52EC0E941B
:10206000F831882309F467C0F70180829182A28247
:10207000B382138AF701808591850E94D307F70107
:10208000608171818281938161960FB6F894DEBF81
:102090000FBECDBFDF91CF911F910F91FF90EF90B9
:1020A000BF90AF909F908F900895082F10E0102F51
:1020B0000027110F110F110FF8E04F9FA0011124FD
:1020C000042B152B012E000C220B330B0829192988
:1020D0002A293B29903109F0AACF6885662309F4A3
:1020E000A6CF70E08F81AB01481B5109CA019695BC
:1020F000982F8827979587950E945B31CB01770FA2
:10210000AA0BBB0B53E0000F111F221F331F5A9560
:10211000D1F70078277033270052110921093109BE
:10212000800F911FA21FB31F95018401082B192B4B
:102130002A2B3B2B7CCF81E0F701838B9BCFBF9277
:10214000CF92DF92EF92FF920F931F93CF93DF9383
:10215000CDB7DEB761970FB6F894DEBF0FBECDBF27
:102160007C018B01DC0119967C936E93189783E0B8
:10217000D82ECC24C394D8011996ED91FC911A97CE
:10218000138615861486128611861086178216828B
:1021900015821482138217961C92179718961C9218
:1021A00062E370E080E090E00E946605BE01665F39
:1021B0007F4FF801818592850E94050F882309F4DD
:1021C00077C067E0CE010A960E94DE0699898913DE
:1021D000EDCFD80117968C9117978F5F17968C9338
:1021E0008A85883231F008F04AC0803111F082329D
:1021F000E9F6F80180858F5F80878081811124C096
:10220000818592850E949B07BE01665F7F4FD80142
:1022100019968D919C910E947C0740E064EBF80137
:10222000818592850E944807D80119968D919C91CD
:102230000E94F506B82EF801818592850E949B07C1
:10224000B11002C0D801CC928A85803119F1AE015B
:102250004F5F5F4FBE01665F7F4FC8010E947608E7
:10226000882359F08D819A859B3311F487FD12C024
:102270008F3391F058F48F31B9F080E00EC08B337A
:1022800009F4B7CF823409F091CFB3CF8F3571F015
:102290008F3799F78CE001C08AE0F8019381981795
:1022A00008F084CF838382CF89E0F7CF8BE0F5CF2E
:1022B000D80117969C91911103C0DA94D1105BCF8D
:1022C000D7011896ED91FC919781992331F0B701D0
:1022D000665F7F4FCF010E94850FF701828B0084DC
:1022E000F185E02D1482D70118968D919C910E9462
:1022F000D307F701138A61960FB6F894DEBF0FBEBD
:10230000CDBFDF91CF911F910F91FF90EF90DF90A4
:10231000CF90BF9008951F93CF93DF93FC0120814E
:102320002223E9F0EC01108212818181882359F087
:1023300061E0812F0E94E80460E0812FDF91CF915E
:102340001F910C94BA0460E0812F0E94BA048A8124
:10235000813129F4DF91CF911F910C943602DF91E6
:10236000CF911F9108951F93CF93DF93EC01888144
:1023700099810E948B118A819B81FC0124812223F7
:1023800051F00E948B111D8281E08F8380E0DF91EC
:10239000CF911F91089511E01E832C8130E0368388
:1023A00025830E943B0E1D8381E0F1CFCF93DF9305
:1023B000EC018D81811119C09F81911116C02E8170
:1023C000222369F08A819B81FC013481332381F0CF
:1023D000211108C0CE01DF91CF910C94B3118881F7
:1023E0009981F2CF81E08F8380E0DF91CF910895D2
:1023F0002C8130E0368325830E943B0E81E08D8363
:10240000F4CF1F93CF93DF93FC012581222309F1A1
:10241000EC018681811113C08081918111E0FC0162
:1024200014830E948B11CE010E94B311811113C03D
:102430001F831D8282E0DF91CF911F9108958281D9
:10244000938111E0FC0114830E948B111D821F8374
:10245000F1CF80E0F0CF81E0EECFCF93DF93EC01BE
:10246000888199810E948B118A819B810E948B11A6
:102470001D82DF91CF910895CF93DF93EC010E94ED
:102480002D12E881F9811482EA81FB8114821E8277
:102490001F82DF91CF910895FC0101900020E9F7A0
:1024A0003197AF01481B590BBC0186E19AE00C94AF
:1024B000AA058F929F92AF92BF920F931F93CF93D3
:1024C000DF93CDB7DEB7A1970FB6F894DEBF0FBE8E
:1024D000CDBF19A2423008F44AE08E010F5D1F4FB4
:1024E000842E912CB12CA12CA50194010E9439318C
:1024F000E62FB901CA01EA30F4F4E05DD801EE93A9
:102500008D01232B242B252B79F790E080E0109769
:1025100019F0CD010E944C12A1960FB6F894DEBFBF
:102520000FBECDBFDF91CF911F910F91BF90AF90A4
:102530009F908F900895E95CE1CF8F929F92AF9228
:10254000BF92CF92DF92EF92FF92CF93DF936A0117
:102550007B01E9010E944C12C530D10509F0A5C0EC
:10256000A7019601C701B6010E94C933882391F0E3
:102570008EE592E00E944C128AE692E0DF91CF91C4
:10258000FF90EF90DF90CF90BF90AF909F908F9093
:102590000C944C1246015701E894B7F82FEF3FEF27
:1025A0004FE75FE7C501B4010E94C93381110DC037
:1025B0002FEF3FEF4FE75FE7C501B4010E94F8310D
:1025C00018161CF482E692E0D5CF2FEF3FEF4FE7CD
:1025D0005FE4C701B6010E94573318161CF486E663
:1025E00092E0C8CF2FEF3FEF4FE75FECC701B60196
:1025F0000E94F83187FDF3CF20E030E0A901C70148
:10260000B6010E94F83187FF09C06DE286E19AE0C9
:102610000E944006F7FAF094F7F8F0942BEA35ECB4
:1026200047EA56E3C701B6010E948C316B017C0179
:102630000E9476324B015C010E94A5329B01AC01E5
:10264000C701B6010E948B316B017C014AE0C501D4
:10265000B4010E9459126EE286E19AE00E9440069F
:10266000C6E0C15009F488CF20E030E040E251E4F8
:10267000C701B6010E945C334B015C010E947632B7
:102680006B01F12CE12C4AE0C701B6010E945912FE
:10269000C701B6010E94A5329B01AC01C501B4017E
:1026A0000E948B316B017C01DCCFC701B6010E9417
:1026B00076324C2F0E9459125FCF21E030E03093E8
:1026C000B30C2093B20C8091B40C81608B7F80930B
:1026D000B40C8CE291E0A0E0B0E08093460D9093C2
:1026E000470DA093480DB093490D80934A0D9093E8
:1026F0004B0DA0934C0DB0934D0D82E099E090935B
:10270000500D80934F0D10924E0D8091510D8160B0
:102710008D7F8B7F8093510D80918C0E8B3029F4AF
:102720001092D70C1092D60C0895863029F430936D
:10273000D70C2093D60C08959CEF980F923038F464
:1027400082E090E09093D70C8093D60C0895873068
:1027500079F52AE030E040E050E060E87FE38DE684
:1027600092E00E949D128091BC0C9091BD0CB0E053
:10277000A0E080932A0E90932B0EA0932C0EB09382
:102780002D0E80932E0E90932F0EA093300EB093AB
:10279000310E8DE297E19093340E8093330E1092B8
:1027A000320E8091350E81608D7F8B7F8093350E48
:1027B00083E090E0C7CF009711F00E944C128AE6A8
:1027C00092E00C944C1287E892E00E94DB1387EBB6
:1027D0009FE00E942D1284EF91E0A0E0B0E0809392
:1027E000660E9093670EA093680EB093690E809367
:1027F0006A0E90936B0EA0936C0EB0936D0E85E4F1
:1028000099E19093700E80936F0E10926E0EE1E737
:10281000FEE0808181608D7F8B7F80830895209191
:10282000990F30919A0F2817390731F090939A0F2A
:102830008093990F0C94E313089587EA92E00E9425
:10284000DB13E6E1FCE015821482A6E1BDE04CE278
:1028500051E060E070E0D0964D935D936D937C9372
:10286000D397D4964D935D936D937C93D79782E0E5
:1028700099E0DA969C938E93D997D8961C92A1E50D
:10288000BDE08C9181608D7F8B7F8C9382E090E0A6
:1028900091838083A281B38114961C921E92139718
:1028A00091878087158614860284F385E02D148233
:1028B0001382089590918C0E981729F0953091F01D
:1028C00020F4943089F080E00895963021F19B3017
:1028D000D1F78430B9F08630B1F780938C0E81E067
:1028E00090E009C0843051F08B3069F78BE0809321
:1028F0008C0E90E080E00E940F14E5CF80938C0E48
:1029000081E0089580938C0E82E090E00E940F1485
:102910000E941D14F5CF8B30B1F62AE030E040E084
:1029200050E060E371E48CEB92E00E949D1282EF34
:102930009EE00E940B0A8DE080938C0EC4CF0E9413
:10294000DB1310928B0E10928A0E1092710E109261
:102950007D0E1092890E87EB9FE00E942D128FEB67
:102960009FE00E942D1287EB9FE00E943C128FEBAC
:102970009FE00E943C128BEB9EE00E948B1182EC48
:102980009EE00E948B1189EC9EE00E948B1180EDED
:102990009EE00E948B1187ED9EE00E948B118EEDD0
:1029A0009EE00E948B1185EE9EE00E948B118FE8C5
:1029B0009EE00E94C60E81E99EE00E94C60E87E955
:1029C0009EE00E94C60E89E99EE00E94C60E8BE939
:1029D0009EE00E94C60E8DE99EE00E94C60E8CEE1F
:1029E0009EE00E94C00E8EEE9EE00E94C00E80EF20
:1029F0009EE00E94C00E82EF9EE00E94E1098EE3FD
:102A00009FE00E94E1091092970F1092C90D109259
:102A1000D50D1092F90D1092ED0D1092050E109239
:102A2000E10D1092110E87EB9FE00E943C128FEB9C
:102A30009FE00C943C1210928A0F1092290F8CED9B
:102A400092E00C949F14CF93C82F1092810D609147
:102A50008C0E70E090E080E00E94A532AB01BC01DA
:102A60002AE030E08CEE92E00E949D1280918C0E64
:102A70008C3041F48FEF92E00E949F1410928C0EE4
:102A8000CF910895C0938C0E88E10E94DA0E6C2FCE
:102A900070E090E080E00E94A532AB01BC012AE02A
:102AA00030E08BE093E0CF910C949D12CF93C82F30
:102AB00010928D0D87E293E00E94DB1380918C0EC3
:102AC0008D30B1F4C0938C0E6C2F70E090E080E0FC
:102AD0000E94A532AB01BC012AE030E08FE393E015
:102AE0000E949D120E945E0286E1CF910C94DA0E44
:102AF0008C3031F486E593E00E949F1410928C0E86
:102B0000CF910895833061F181E693E00E94DB1359
:102B10008FEB9FE00E942D1284EF91E0A0E0B0E0E7
:102B20008093720E9093730EA093740EB093750EF3
:102B30008093760E9093770EA093780EB093790ED3
:102B40008AE099E190937C0E80937B0E10927A0E2E
:102B500080917D0E81608D7F8B7F80937D0E0895A7
:102B600081E893E00E94DB138FEB9FE00E942D121F
:102B700084EF91E0A0E0B0E080937E0E90937F0E12
:102B8000A093800EB093810E8093820E9093830E5B
:102B9000A093840EB093850E85EB98E19093880EF8
:102BA0008093870E1092860E8091890E81608D7FB2
:102BB0008B7F8093890E089580918D0E90918E0E5B
:102BC0008330910551F0892B41F082E00E948215FB
:102BD00010928E0E10928D0E089510928E0E1092FD
:102BE0008D0E8FEB9FE00E94D61182EA93E00C9449
:102BF000DB131F93CF93DF93EC01162F009711F097
:102C00000E94DB138FEA93E00E94DB131092B30C57
:102C10001092B20C0E941B1580918C0E8C50823049
:102C200010F010928C0E209719F0CE010E94DB1349
:102C30006091B40C6E7F64606093B40C10921B0CB6
:102C400010921A0C1092230C1092220C10925D0D0F
:102C50001092690D1092750D1092810D10928D0DCC
:102C60001092A50D1092B10D10921D0E1092290E0A
:102C70001092510D1092350E1092410E70E090E0BE
:102C800080E00E94A532AB01BC0120E130E08FEB77
:102C900093E00E949D121092D90C111106C089E197
:102CA000DF91CF911F910C94DA0EDF91CF911F919C
:102CB000089560E080ED93E00C94F91560E087EEF4
:102CC00093E00C94F915E2E1FAE080818D7F808336
:102CD00060E088EF93E00C94F915E2E1FAE080817E
:102CE0008460808360E084E194E00C94F9150E9494
:102CF000AF0C882371F08091130A82FD04C081E338
:102D000094E00E94DB138091130A84608093130A7D
:102D100008958091130A8B7F8093130A8091160C7B
:102D20009091170C029709F47EC020911A0C3091F3
:102D30001B0C80911C0C90911D0C2817390708F46E
:102D400060C081E090E09093170C8093160C209166
:102D5000160C3091170C91E02130310509F090E00C
:102D60008091120A81FD52C02130310509F44EC014
:102D700082608093120A8091C70F813041F08230C7
:102D800059F487EB9FE00E940112823029F460E041
:102D900081E494E00E94F91580911E0C90911F0C23
:102DA000029709F440C080912B0C0E9424059C01DD
:102DB00090932D0C80932C0C60912E0C70912F0C05
:102DC00041E06817790708F440E09091120A92FDFB
:102DD00024C06217730708F5892F84608093120A54
:102DE0008091C70F813041F08230E9F48FEB9FE092
:102DF0000E9401128230B9F460E084E594E00C9402
:102E0000F9151092170C1092160CA1CF8091120A8E
:102E100090FB81F98093120ABFCF8091120A40FB88
:102E200082F98093120A08950E94771685E40E9421
:102E30008503892B71F08091130A83FD04C089E614
:102E400094E00E94DB138091130A88608093130A38
:102E500008958091130A877FF9CFCF93C82F1092DE
:102E6000350E1092690D8091C70F8230D9F580918F
:102E7000C50F811137C08FEB9FE00E94B3118823EB
:102E800089F189E794E00E94DB138DE692E00E94CD
:102E9000DB1380E395E7A0E0B0E080932A0E9093E7
:102EA0002B0EA0932C0EB0932D0E80932E0E90938C
:102EB0002F0EA093300EB093310E8DE297E19093D8
:102EC000340E8093330E81E0C11101C080E0809305
:102ED000320E8091350E81608D7F8B7F8093350E11
:102EE000CF91089585E994E00E94DB138CE10E9464
:102EF000DA0EC11108C00E941B1560E090E080E06E
:102F0000CF910C94F9150E941B1585EA94E00E945C
:102F1000DB138EE10E94DA0E10928B0E10928A0E55
:102F20008BE080938C0E0E945E02CF910C945D1317
:102F30009CEF980F933010F08B3099F4682F70E06D
:102F400090E080E00E94A532AB01BC012AE030E0B5
:102F500081EB94E00E949D1281E00E942D1780E099
:102F6000089581E008959EEF980F923008F069C0AF
:102F70001092D50D833099F180ED9EE00E943B0EBA
:102F800087ED9EE00E943B0E80EC94EDA1E0B0E066
:102F90008093CA0D9093CB0DA093CC0DB093CD0D23
:102FA0008093CE0D9093CF0DA093D00DB093D10D03
:102FB00083EB97E19093D40D8093D30D83E08093BE
:102FC000D20D8091D50D81608D7F8B7F8093D50D43
:102FD00081E10E94DA0E81ED94E00C94DB1380ED28
:102FE0009EE00E948B1187ED9EE00E948B1182E192
:102FF0000E94DA0E80E395E7A0E0B0E08093CA0D6E
:103000009093CB0DA093CC0DB093CD0D8093CE0DAE
:103010009093CF0DA093D00DB093D10D83EB97E19A
:103020009093D40D8093D30D84E08093D20D809142
:10303000D50D81608D7F8B7F8093D50D8AED94E0D7
:10304000CCCF60E082EE94E00C94F9158230C9F5A3
:103050001092C90D8BEB9EE00E948B118FEB9FE0CD
:103060000E942D1289EC9EE00E943B0E80E395E7C2
:10307000A0E0B0E08093BE0D9093BF0DA093C00D73
:10308000B093C10D8093C20D9093C30DA093C40D56
:10309000B093C50D86E298E19093C80D8093C70D5B
:1030A00081E08093C60D8091C90D81608D7F8B7FFB
:1030B0008093C90D8EE00E94DA0E81EF94E00C94AB
:1030C000DB1360E089EF94E00C94F9151092A50DE4
:1030D0008091D60C9091D70C009769F00297D9F4A3
:1030E0008BE00E945A141092D70C1092D60C88E0F4
:1030F00095E00C94DB138091D90C81110CC086E013
:103100000E945A1481E090E09093D70C8093D60CE3
:103110008FE295E0EECF08951092B10D8091D60C1C
:103120009091D70C8130910521F070F00297D1F089
:1031300008958BE00E945A141092D70C1092D60C6E
:1031400083E595E00C94DB1384E00E945A1482E03E
:1031500090E09093D70C8093D60C1092410E85E7A7
:1031600095E0F0CF1092410E089590E0009781F520
:103170008FE89EE00E94D30E81E99EE00E94D30E6C
:1031800084EF91E0A0E0B0E080937E0E90937F0EFC
:10319000A093800EB093810E8093820E9093830E45
:1031A000A093840EB093850E85EB98E19093880EE2
:1031B0008093870E81E08093860E8091890E8160D6
:1031C0008D7F8B7F8093890E89E995E00C94DB13CA
:1031D0000197F9F48AEB95E00E94DB138FEB9FE0F7
:1031E0000E94D6118CED8093C30F8091C40F882369
:1031F00081F08091C50F882339F08091C10F9091A3
:10320000C20F6CED0C94D90C8091BF0F9091C00F40
:10321000F8CF089590E0009769F587E99EE00E9455
:10322000D30E89E99EE00E94D30E84EF91E0A0E0E6
:10323000B0E08093720E9093730EA093740EB093CF
:10324000750E8093760E9093770EA093780EB093C0
:10325000790E8AE099E190937C0E80937B0E81E059
:1032600080937A0E80917D0E81608D7F8B7F80931D
:103270007D0E0895019741F48FEB9FE00E94D611D7
:1032800082EA93E00C94DB1308950F931F93CF937E
:10329000DF93CDB7DEB768970FB6F894DEBF0FBEE9
:1032A000CDBF90E0009709F066C08BED95E00E94DD
:1032B000DB136091990F70919A0F90E080E00E946B
:1032C000A532AB01BC012AE030E08BEF95E00E9413
:1032D0009D128091990F90919A0F8230910588F1FB
:1032E0000297E1F184EF91E0A0E0B0E08093660EF8
:1032F0009093670EA093680EB093690E80936A0E48
:1033000090936B0EA0936C0EB0936D0E85E499E1D3
:103310009093700E80936F0E81E080936E0E80917B
:10332000710E81608D7F8B7F8093710E68960FB6D2
:10333000F894DEBF0FBECDBFDF91CF911F910F91EB
:1033400008958DE096E00E94DB138BE99EE00E94D9
:10335000C60E8DE99EE00E94C60EC4CF87E396E0BC
:103360000E94DB138DE99EE00E94CC0E8BE99EE06B
:103370000E94CC0EB7CF0197C9F6E6E1FCE0DE0172
:1033800011968EE89CE040A551A562A573A54D93CA
:103390005D936D937D9374968E179F07A1F786E5D5
:1033A00096E00E94DB136091990F70919A0F90E064
:1033B00080E00E94A532AB01BC012AE030E086E744
:1033C00096E00E949D128091990F90919A0F813002
:1033D0009105D9F1029709F464C08091FB0E88230E
:1033E00089F02AE030E040E050E060E371E48CEBEB
:1033F00092E00E949D1282EF9EE00E940B0A8DE0F7
:1034000080938C0E8091470F8823E9F12AE030E009
:1034100040E050E060E371E48AEB96E00E949D1288
:103420008EEE9EE00E94C00E80EF9EE00E94C00ED5
:1034300080ED9EE00E948B1187ED9EE00E948B1133
:103440008EE39FE00E940B0A1EC069817A818B8106
:103450009C810E94763281E08093FB0E862F90E063
:103460009093FD0E8093FC0E82EF9EE00E942C0A4A
:103470008AE896E00E94DB1385E996E00E94DB1360
:1034800085E10E94DA0E87EB9FE068960FB6F8940C
:10349000DEBF0FBECDBFDF91CF911F910F910C9476
:1034A000D61180ED9EE00E943B0E87ED9EE00E94CB
:1034B0003B0E01E00093EF0E61E08091EE0E0E9462
:1034C000BA040093F10E61E08091F00E0E94BA04FC
:1034D00069817A818B819C810E947632162F70E0FF
:1034E00090E080E00E94A532AB01BC012AE030E010
:1034F0008FE996E00E949D120093470F812F90E084
:103500009093490F8093480F612F8EE39FE00E94B4
:103510002C0A8AE896E00E94DB1382EB96E00E9478
:10352000DB1387E1AECF8F929F92AF92BF92CF9283
:10353000DF92EF92FF920F931F93CF93DF938091CF
:103540008A0E90918B0E019709F034C08CED96E0B5
:103550000E94DB138DEF96E00E94DB13E0918C0E4E
:10356000E150EB3008F5F0E08827E654F54E8F4F38
:103570000C946F31C51A2E1B3C1B411BD41A411BE6
:103580004A1B521B831B931BC71B8091910E8823E0
:1035900021F081E99EE00E94C60E82EC9EE00E942E
:1035A0003B0E87E00E94DA0E10928B0E10928A0E6C
:1035B0000E941D140E94AF0C9091130A80FB92F997
:1035C0009093130A85E40E94850321E0892B09F476
:1035D00020E08091130A20FB83F98093130A8091E5
:1035E000B20C9091B30C009741F0C0918C0E0297F1
:1035F00009F0DEC08C2F0E9498178091120A9091DA
:10360000130AA091140AB091150A40919D09509196
:103610009E0960919F097091A00984179507A607DC
:10362000B70759F021E020939C0980939D0990935E
:103630009E09A0939F09B093A00960E083E99AE1F5
:10364000DF91CF911F910F91FF90EF90DF90CF907E
:10365000BF90AF909F908F900C94DD028091E50E0B
:10366000882321F085EE9EE00E948B118EED9EE076
:103670000E943B0E89E096CF10929A0F1092990FFC
:1036800093CF10929A0F1092990F0E94E3130E9409
:10369000DC158ACF83E00E94821583E197E00E94C7
:1036A000DB1382CF8BEB9EE00E943B0E80E69AEE0E
:1036B000A0E0B0E08093D60D9093D70DA093D80DE5
:1036C000B093D90D8093DA0D9093DB0DA093DC0DB0
:1036D000B093DD0D8EE596E19093E00D8093DF0DC4
:1036E0001092DE0D8091E10D81608D7F8B7F809344
:1036F000E10D85E397E00E94DB1387E497E00E94E9
:10370000DB1383E14FCF0E941B1589EC9EE00E94E2
:103710003B0E8BE00E94DA0E82E597E00E94DB13FD
:1037200083E697E0BCCF0E941B1585EE9EE00E94C9
:103730003B0E8FE00E94DA0E80E49CE9A0E0B0E04E
:103740008093CA0D9093CB0DA093CC0DB093CD0D6B
:103750008093CE0D9093CF0DA093D00DB093D10D4B
:1037600083EB97E19093D40D8093D30D82E0809307
:10377000D20D8091D50D81608D7F8B7F8093D50D8B
:103780008EE697E00E94DB138EE797E088CF1092D9
:103790009A0F1092990F87E99EE00E94CC0E89E95A
:1037A0009EE00E94CC0E90E080E00E940F146FCF4C
:1037B0009091D90C992339F18091410E80FD23C05D
:1037C00082FD21C040E355E760E070E04093360E93
:1037D0005093370E6093380E7093390E40933A0E23
:1037E00050933B0E60933C0E70933D0E29E536E1FD
:1037F0003093400E20933F0E10923E0E81608D7FDD
:103800008B7F8093410E8CEF8C0F833028F0CB3070
:1038100019F0992309F482C08091D60C9091D70CAD
:10382000039709F47BC0D091ED0EC63009F48DC02A
:103830002091620C3091630C4091640C5091650CA6
:1038400060918A0C70918B0C80918C0C90918D0CF6
:103850000E94F83187FF79C0D1110BC081E08093BD
:10386000ED0E61E08091EC0E0E94BA0482E00E94AD
:103870008215C0903A0CD0903B0CE0903C0CF0903C
:103880003D0C80903E0C90903F0CA090400CB0906E
:10389000410C20E030E040E85FE3C501B4010E9444
:1038A0008C31A70196010E94F83118160CF455C00E
:1038B0001092A50DD091B10DD0FD30C0D2FD2EC01B
:1038C0000091D60C1091D70CF801EE0FFF1FEE0FF0
:1038D000FF1FEA53F34F60817181828193810E94BF
:1038E00076326093A60D7093A70D8093A80D9093E8
:1038F000A90D6093AA0D7093AB0D8093AC0D9093BE
:10390000AD0D8CE898E19093B00D8093AF0D0093CE
:10391000AE0DD160DD7FDB7FD093B10DC150CB30D8
:1039200008F06BCEEC2FF0E08827E656F34E8F4F71
:103930000C946F31F51C011D0B1D791D791D7C1D2B
:103940007F1DE51D3D1EFD1A7C1DDD2309F491CF71
:103950008CEE9EE00E94C00E89CF1092B10D20E047
:1039600030E040E85FE3C501B4010E948B31A7015C
:1039700096010E94573387FD35C0D091A50DD0FD2B
:10398000CDCFD2FDCBCF0091D60C1091D70CF80142
:10399000EE0FFF1FEE0FFF1FEA53F34F608171819F
:1039A000828193810E94763260939A0D70939B0D71
:1039B00080939C0D90939D0D60939E0D70939F0D31
:1039C0008093A00D9093A10D86E698E19093A40DAD
:1039D0008093A30D0093A20DD160DD7FDB7FD09398
:1039E000A50D9CCF1092A50D99CF80E20E94850372
:1039F000892B09F002CE60E089E897E00E94F91572
:103A0000FCCD84E40E948503892B09F0F6CD60E0AB
:103A100087E997E0F3CF0E94AF0C9091120A8823B8
:103A200039F091609093120A60E085EA97E0E6CF62
:103A30009E7F9093120A8091160C9091170C02971A
:103A400009F4DBCD20911A0C30911B0C80911C0CD9
:103A500090911D0C28173907D8F181E090E09093E0
:103A6000170C8093160C8091160C9091170C0197EF
:103A7000A1F58091120A8D7F8093120A80915D0DCD
:103A800080FDBBCD82FDB9CD4091BA0C5091BB0CED
:103A900070E060E04093520D5093530D6093540DCD
:103AA0007093550D4093560D5093570D6093580DDC
:103AB0007093590D23E636E130935C0D20935B0D36
:103AC00010925A0D81608D7F8B7F80935D0D95CD17
:103AD0001092170C1092160CC6CF8091120A81FD1D
:103AE0008CCD82608093120A8BEC97E00E94DB13EE
:103AF00084CD0E94141781CD0E9477167ECD0E943E
:103B0000AF0C882331F08091130A84608093130AEC
:103B100074CD80911E0C90911F0C029709F46DCD0D
:103B20002091220C3091230C8091240C9091250C33
:103B300028173907C8F181E090E090931F0C80931B
:103B40001E0C80911E0C90911F0C019791F5809195
:103B5000120A877F8093120A8091690D80FD4DCDF6
:103B600082FD4BCD48EE53E060E070E040935E0D87
:103B700050935F0D6093600D7093610D4093620DE3
:103B80005093630D6093640D7093650D2FE239E0DF
:103B90003093680D2093670D1092660D81608D7FC4
:103BA0008B7F8093690D29CD10921F0C10921E0CF3
:103BB000C8CF1092690D8091120A83FD1ECD8860D6
:103BC0008093120A8FED97E091CF80E20E948503E7
:103BD000892B59F460E083EF97E00E94F9158091FA
:103BE000120A80688093120A08CD80912B0C0E94E3
:103BF000240590932D0C80932C0C20912E0C309149
:103C00002F0C2817390778F58091120A8B7F809343
:103C1000120A8091750D80FDF0CC82FDEECC4091B2
:103C2000BE0C5091BF0C70E060E040936A0D509361
:103C30006B0D60936C0D70936D0D40936E0D5093F2
:103C40006F0D6093700D7093710D2DE636E130931A
:103C5000740D2093730D1092720D81608D7F8B7F98
:103C60008093750DCACC8091120A82FDC6CC846007
:103C70008093120A88E198E039CF0E94AF0C882324
:103C800009F4BBCC8091C90D80FDB7CC82FDB5CCC9
:103C900089EC9EE00E948B118BEB9EE00E943B0E14
:103CA0008FEB9FE00E94D6118DE00E94DA0E80E338
:103CB00095E7A0E0B0E08093BE0D9093BF0DA09378
:103CC000C00DB093C10D8093C20D9093C30DA0930E
:103CD000C40DB093C50D86E298E19093C80D809312
:103CE000C70D82E08093C60D8091C90D81608D7FE4
:103CF0008B7F8093C90D81ED94E0F8CE8091D80C34
:103D000081508093D80C811118C085E08093D80C25
:103D10008091B50C24E1829FC0011124865C934FF1
:103D20000E94AC0F9091B50C892F8F5FF1F39FEF3C
:103D30008630D0F78093B50C08958AE39CE00E940A
:103D4000AC0F80914D0C882399F08091ED0C8F5F22
:103D50008093ED0C8B3098F08EE298E00E94DB139C
:103D60008091130A80648093130A1092ED0C0895D9
:103D70001092ED0C8091130A8F7B8093130A0895A3
:103D8000FF920F931F93CF93DF93CDB7DEB7C45647
:103D9000D1090FB6F894DEBF0FBECDBFFC01F18094
:103DA0004F2D50E08E010F5F1F4FBC01C8010E94D4
:103DB000CE338091C6008091C6008091C1008F777C
:103DC0008093C1008091C10088608093C100F80198
:103DD0008E2F801B8F1588F481918093C60080916F
:103DE000C00086FFFCCF8091C00080648093C0003B
:103DF0008091C6008091C600EBCFCC59DF4F0FB643
:103E0000F894DEBF0FBECDBFDF91CF911F910F9110
:103E1000FF900C94DB094F925F926F927F928F928A
:103E20009F92AF92BF92CF92DF92EF92FF920F9349
:103E30001F93CF93DF93CDB7DEB7CF58D1400FB6E6
:103E4000F894DEBF0FBECDBF84E6E1EAF9E0DE0103
:103E5000AB59BF4F01900D928A95E1F7A896EFAD4F
:103E6000A897E550E33308F08CC0F0E08827E45CC5
:103E7000F04E8F4F0C946F318924C11F6020C11FF9
:103E8000C11FC11FC11FC11FC11FC11FC11FC11F32
:103E9000C11FED1F0F204C2056206920D91FE7209D
:103EA0002B216F1FBF21C11FC11FF4214C2294225F
:103EB000A41FC322F022662316232E24C11FC11F74
:103EC000C11F6124C11FC11FC11FC11FC11FC11F4D
:103ED0009524A524B1240D2545259E267E20A9964E
:103EE0002FADA997213009F4E5C1AB968FADAB9703
:103EF000813009F4EDC1AD968FADAD97813009F4F5
:103F0000EAC180E08093BB0F90E0E091B70FF091A1
:103F1000B80F96838583E091B90FF091BA0F96831D
:103F20008583243009F4DAC1AB968FADAB9784302A
:103F300009F422C2AD968FADAD97E2E0F0E0843097
:103F400009F4CEC180E0D7C1C090120AD090130A04
:103F5000E090140AF090150A61E2CE0101960E94E9
:103F60006F09CF82D886E986FA868BE08A83CE01F4
:103F700001960E945809CE0101960E94C01E10921F
:103F80009C09C157DE4F0FB6F894DEBF0FBECDBF00
:103F9000DF91CF911F910F91FF90EF90DF90CF9025
:103FA000BF90AF909F908F907F906F905F904F9059
:103FB00008951092120A1092130A1092140A109285
:103FC000150A61E2CE0101960E946F091F821886D0
:103FD00019861A868BE08A8302C2CE0187539F4FCF
:103FE0000E94AE0388E0FE01E753FF4FDE01AE57AB
:103FF000BE4F01900D928A95E1F762E1CE010196E4
:104000000E946F098FE08A8388E0FE01EE57FE4F21
:10401000DE01179601900D928A95E1F7E0C11092AA
:10402000120A1092130A1092140A1092150AA996F5
:104030008FADA99710928B0E10928A0E80938C0EE2
:104040008B3011F08730A1F4AA966FADAA976695D0
:1040500063706093C70F70E090E080E00E94A5322B
:10406000AB01BC0120E130E087E598E00E949D12A1
:10407000AA968FADAA9780FF0FC0A9968FADA9977A
:104080008B3051F480918C0E0E949817882321F078
:104090000E945E020E945D1310918C0E64E1CE01BD
:1040A00001960E946F091F8388E095CF80918C0E46
:1040B0000E949817882321F00E945E020E945D13DF
:1040C000CE0101960E94D009CE0101960E94C01E29
:1040D00058CF80918C0E8B3019F08450833040F48F
:1040E0001092120A1092130A1092140A1092150AD2
:1040F00060E089E698E00E94F915E2CF86E798E053
:104100000E94DB1381E08093D90C81E090E09093D2
:10411000B30C8093B20C10928A0F1092290F109258
:104120008B0E10928A0E1092710E10927D0E1092CC
:10413000890E8BEB9EE00E948B1182EC9EE00E9428
:104140008B1189EC9EE00E948B118FE89EE00E940B
:10415000C60E81E99EE00E94C60E87E99EE00E949D
:10416000C60E89E99EE00E94C60E8BE99EE00E9481
:10417000C60E8DE99EE00E94C60E8EEE9EE00E9465
:10418000C00E80EF9EE00E94C00E82EF9EE00E9473
:10419000E1098091B40C81608B7F8093B40C80E046
:1041A00090E0A0ECB1E480933E0C90933F0CA09380
:1041B000400CB093410C25E030E0AC01BD0180E83B
:1041C00098E00E949D128AE10E94DA0E79CFE5E61E
:1041D000F0E0EC0FFD1F3396A6E1BCE085E690E031
:1041E0008C0F9D1F4B9641915191619171919896C1
:1041F0004D935D936D937C939B9754968E179F0779
:1042000091F788E1E5E6F0E0EC0FFD1F3396DE0163
:10421000A750BF4F01900D928A95E1F768E1CE015A
:1042200001960E946F098FE18A8388E1FE01E750C1
:10423000FF4FDE01179601900D928A95E1F7CE01AE
:1042400001960E945809CE0101960E94C01E88E185
:104250000E94370996CEA6E1BCE0CE0187539F4F5E
:104260002EE83CE0182F092F98964D915D916D91A5
:104270007C919B97FC014193519361937193CF0182
:1042800054962A173B0781F788E1E12FF02FDE01D2
:10429000AF51BF4F01900D928A95E1F769E1CE01D0
:1042A00001960E946F098FE18A8388E1FE01EF5138
:1042B000FF4FAECEF0E0E0E0EE0FFF1F81E090E0B8
:1042C0008C0F9D1FE80FF91FE959FF4F81811ACE0E
:1042D000E1E0F0E0F1CFE2E0F0E0EECFF0E0E0E0AE
:1042E000EE0FFF1F81E090E08C0F9D1FE80FF91F7C
:1042F000E959FF4F81818093C30F90E0E091BF0F98
:10430000F091C00F96838583E091C10FF091C20FA9
:1043100096838583AE968FADAE97AA969FADAA97EA
:104320009093AA0F8093AB0F86E0E5E6F0E0EC0FE8
:10433000FD1F3396DE01A657BE4F01900D928A9560
:10434000E1F76AE1CE0101960E946F098DE08A8350
:1043500086E0FE01E657FE4FDE01179601900D92B2
:104360008A95E1F7CE0101960E945809CE01019687
:104370000E94C01E8AE16CCFE1E0F0E0B1CF109165
:10438000AA0F0091AB0F612F70E090E080E00E94D7
:10439000A532AB01BC0120E130E089E898E00E9441
:1043A0009D12602F70E090E080E00E94A532AB018A
:1043B000BC0120E130E08FEA98E00E949D126BE1A1
:1043C000CE0101960E946F098DE08A8381E08F8380
:1043D000188782E089871A8784E08B870C87CE0153
:1043E00001960E94580970CEAA968EAD9FADAA97ED
:1043F00090931D0C80931C0CAC968EAD9FADAC972A
:104400009093250C8093240CAE968EAD9FADAE9705
:1044100090932A0C8093290CE0968EAD9FADE09787
:1044200090932F0C80932E0CE2968EAD9FADE29769
:104430009093340C8093330CE4968EAD9FADE4974B
:104440009093390C8093380C8EE0E5E6F0E0EC0FA9
:10445000FD1F3396DE01A35BBE4F01900D928A953E
:10446000E1F76EE1CE0101960E946F0985E18A8332
:104470008EE0FE01E35BFE4FDE01179601900D9288
:104480008A95E1F7CE0101960E945809CE01019666
:104490000E94C01E8EE1DCCEE091240CF091250C30
:1044A0006091290C70912A0C40912E0C50912F0C88
:1044B0002091330C3091340C8091380C9091390C50
:1044C000A0911C0CB0911D0CC15CDE4FB983A88378
:1044D000CF53D140CF5BDE4FF983E883C154D14045
:1044E000CD5BDE4F79836883C354D140CB5BDE4F15
:1044F00059834883C554D140C95BDE4F3983288333
:10450000C754D140C75BDE4F99838883C954D140DB
:104510006FE1CE0101960E946F0985E18A838EE0EA
:10452000FE01E15CFE4F74CDA6E1BCE0CE018F51EF
:104530009F4F2EE83CE0182F092F94964D915D91E6
:104540006D917C919797FC01419351936193719385
:10455000CF0154962A173B0781F788E1E12FF02F0E
:10456000DE01A753BF4F01900D928A95E1F760E2FB
:10457000CE0101960E946F098FE18A8388E1FE01D6
:10458000E753FF4F45CD05E610E00C0F1D1F0D5FF3
:104590001F4FC8010E94850280E1F801DE01AF5D76
:1045A000BE4F01900D928A95E1F762E2CE0101962D
:1045B0000E946F0980E1FE01EF5DFE4FDE0117965C
:1045C00001900D928A95E1F787E18A83CE010196E9
:1045D0000E945809CE0101960E94C01E82E238CE88
:1045E00080E1E6EBFCE0DE01A753BF4F01900D92A6
:1045F0008A95E1F780E1FE01E753FF4FDE01AF5EF0
:10460000BE4F01900D928A95E1F763E2CE010196CB
:104610000E946F0980E1FE01EF5EFE4FDE011796FA
:1046200001900D928A95E1F787E1D5CC80901A0C24
:1046300090901B0CA090220CB090230C8091260C23
:104640000E9424056C0180912B0C0E9424057C01A2
:104650008091300C0E9424058C018091350C0E94C1
:104660002405CF5CDE4F99828882C153D140CD5C56
:10467000DE4FB982A882C353D140CB5CDE4FD982D2
:10468000C882C553D140C95CDE4FF982E882C75366
:10469000D140C75CDE4F19830883C953D140C55C44
:1046A000DE4F99838883CB53D14065E2CE010196DA
:1046B0000E946F098EE0FE01EF5CFE4FDE0117964F
:1046C00001900D928A95E1F785E185CCA9968FAD91
:1046D000A997982F9F77923009F475C070F59923A8
:1046E000D1F1913009F455C080919F0E9091AD0E9B
:1046F000892B9091A60E892B9091B40E892B8093D3
:104700008A0FCE0187539F4F0E94AE0388E0FE01BF
:10471000E753FF4FDE01A658BE4F01900D928A95D8
:10472000E1F764E2CE0101960E946F098FE08A836F
:1047300088E0FE01E658FE4F6BCC933009F46DC063
:10474000943091F687FF83C089EC9EE00E948B1124
:1047500089E799E008C087FF09C08FE99EE00E94C1
:104760008B1185ED98E00E94DB13BECF8FE99EE0B0
:104770000E943B0E84EE98E00E94DB138091A00E15
:104780008111E090A40E6E2D8FE99EE00E94D90C5D
:10479000ABCF87FF07C086EA9EE00E948B1182EFB5
:1047A00098E0E1CF86EA9EE00E943B0E84E099E02B
:1047B0000E94DB138091A70E8111F090AB0E6F2D3C
:1047C00086EA9EE0E3CF87FF07C08DEA9EE00E9465
:1047D0008B1185E199E0C7CF8DEA9EE00E943B0EE8
:1047E00085E299E00E94DB138091AE0E8111109159
:1047F000B20E612F8DEA9EE00E94D90C612F70E00D
:1048000090E080E00E94A532AB01BC012AE030E0DC
:1048100084E399E00E949D1267CF87FF07C084EB75
:104820009EE00E948B1184E599E09DCF84EB9EE091
:104830000E943B0E87E699E00E94DB138091B50E43
:1048400081110091B90E602F84EB9EE09FCF89EC1F
:104850009EE00E943B0E85E899E085CF81E20E94B0
:1048600085034C0180E20E9485035C01F090EA0C14
:104870000091EB0C85E40E9485036C0184E40E94A6
:1048800085039C0191E0892809F090E010E090FBFD
:1048900010F991E0AB2809F090E090FB11F991E05C
:1048A000CD2809F090E090FB12F991E0232B09F05C
:1048B00090E090FB13F9F0FA14F900FB15F966E2A9
:1048C000EECB8BE0E5E6F0E0EC0FFD1F3396DE016A
:1048D000A959BE4F01900D928A95E1F76AE2CE0187
:1048E00001960E946F098BE0FE01E959FE4FDE013F
:1048F000179601900D928A95E1F782E18A83CE01A5
:1049000001960E945809CE0101960E94C01E8AE2BB
:104910009FCC1092120A1092130A1092140A10924D
:10492000150A61E080E999E0E6CB61E3CE010196EA
:104930000E946F098BE08A8381E090E0A4E0B1E0FF
:104940008F839887A987BA874ACD62E3CE01019603
:104950000E946F098BE08A838EEF94E3A0E0B0E0C1
:10496000EFCFE4966CAD7DAD8EAD9FADE4970E9428
:10497000A5326B017C01E0966CAD7DAD8EAD9FAD37
:10498000E0970E94A5324B015C01AC966CAD7DAD09
:104990008EAD9FADAC970E94A5326093C60C70930C
:1049A000C70C8093C80C9093C90C8092CA0C90924B
:1049B000CB0CA092CC0CB092CD0CC092CE0CD0926D
:1049C000CF0CE092D00CF092D10C8CE0E5E6F0E058
:1049D000EC0FFD1F3396DE01A55ABE4F01900D92DC
:1049E0008A95E1F763E3CE0101960E946F0983E1A6
:1049F0008A838CE0FE01E55AFE4FDE011796019096
:104A00000D928A95E1F7CE0101960E945809CE01D8
:104A100001960E94C01E83E31BCC6091CE0C709166
:104A2000CF0C8091D00C9091D10C0E9476326B010A
:104A30007C016091CA0C7091CB0C8091CC0C909150
:104A4000CD0C0E9476324B015C016091C60C7091D6
:104A5000C70C8091C80C9091C90C0E9476322B0132
:104A60003C0164E3CE0101960E946F0983E18A83D1
:104A70004F82588669867A868B869C86AD86BE86EE
:104A8000CF86D88AE98AFA8AAACCA9968FADA99747
:104A90008983AA968FADAA978A83AB968FADAB9781
:104AA0008B83AC966FADAC976C83AD968FADAD97A5
:104AB0008D83AE968FADAE978E83AF968FADAF9749
:104AC0008F83E0968FADE097888761708AE00E94BF
:104AD000BA046C81669561708BE00E94BA046C81A7
:104AE00062FB662760F988E00E94BA046C8163FB70
:104AF000662760F989E00E94BA046981617085E3E4
:104B00000E94BA0469816695617084E30E94BA04C8
:104B1000698162FB662760F987E00E94BA046981B7
:104B200063FB662760F985E00E94BA04698162959B
:104B300061708FE10E94BA04698165FB662760F9A4
:104B40008CE10E94BA04698166FB662760F98BE1FB
:104B50000E94BA04698167FB662760F98AE10E94B6
:104B6000BA046C816295617089E10E94BA046C811B
:104B700065FB662760F988E10E94BA046C8166FBD8
:104B8000662760F987E10E94BA046C8167FB66279B
:104B900060F98EE10E94BA046D8161708DE10E941E
:104BA000BA046D816695617086E10E94BA046D81D8
:104BB00062FB662760F981E10E94BA046D8163FBA4
:104BC000662760F98FE00E94BA046D81629561707A
:104BD0008CE00E94BA046D8165FB662760F98EE067
:104BE0000E94BA046B81617085E20E94BA046B81F5
:104BF0006695617084E20E94BA046B8162FB66274D
:104C000060F987E20E94BA046B8163FB662760F952
:104C100086E20E94BA046B816295617089E20E940B
:104C2000BA046B8165FB662760F988E20E94BA04CA
:104C30006B8166FB662760F98BE20E94BA046B8188
:104C400067FB662760F98AE20E94BA046A81617094
:104C50008CE20E94BA046A81669561708EE20E94BD
:104C6000BA046A8162FB662760F98DE20E94BA0489
:104C70006A8163FB662760F98FE20E94BA046A8149
:104C80006295617081E30E94BA046A8165FB6627C0
:104C900060F980E30E94BA046A8166FB662760F9C6
:104CA00083E30E94BA046A8167FB662760F982E3A6
:104CB0000E94BA04C753DF4F1882C95CD040C65364
:104CC000DF4F1882CA5CD040C553DF4F1882CB5CDF
:104CD000D040C453DF4F1882CC5CD040C353DF4F69
:104CE0001882CD5CD040C253DF4F1882CE5CD040DA
:104CF000C153DF4F1882CF5CD040C053DF4F1882C2
:104D0000C05DD040CE0187539F4F0E94AE0388E024
:104D1000FE01E753FF4FDE01AE58BE4F01900D92EA
:104D20008A95E1F765E3CE0101960E946F098FE055
:104D30008A8388E0FE01EE58FE4F6AC9CE010196D3
:104D40000E94D009CE0101960E94C01E1092210D32
:104D500067EE7BE08AE39CE00E949F1062EC7BE0C0
:104D60008EE49CE00E949F106DE97BE082E69CE06F
:104D70000E949F1068E77BE086E79CE00E949F10FE
:104D800063E57BE08AE89CE00E949F106EE27BE096
:104D90008EE99CE00E949F108091C40C9091C50CFC
:104DA000B0E0A0E08093160D9093170DA093180D1E
:104DB000B093190D80931A0D90931B0DA0931C0DA9
:104DC000B0931D0D8EE79EE19093200D80931F0DF3
:104DD00010921E0D8091210D83608B7F8093210D99
:104DE000D0C80C940B1FE1EAF9E084E6DF011D92C4
:104DF0008A95E9F710920F0A0C94DB091F920F9223
:104E00000FB60F9211242F933F938F939F93AF93DD
:104E1000BF938091070A9091080AA091090AB09166
:104E20000A0A3091060A23E0230F2D3758F5019620
:104E3000A11DB11D2093060A8093070A9093080ACA
:104E4000A093090AB0930A0A80910B0A90910C0A68
:104E5000A0910D0AB0910E0A0196A11DB11D80937B
:104E60000B0A90930C0AA0930D0AB0930E0ABF91FF
:104E7000AF919F918F913F912F910F900FBE0F9007
:104E80001F90189526E8230F0296A11DB11DD2CFC1
:104E90001F920F920FB60F9211240BB60F922F9301
:104EA0003F934F935F936F937F938F939F93AF93B2
:104EB000BF93EF93FF93E0911E02F0911F021995AB
:104EC000FF91EF91BF91AF919F918F917F916F91E2
:104ED0005F914F913F912F910F900BBE0F900FBE9E
:104EE0000F901F9018951F920F920FB60F921124DA
:104EF0000BB60F922F933F934F935F936F937F93D4
:104F00008F939F93AF93BF93EF93FF93E0911C0216
:104F1000F0911D021995FF91EF91BF91AF919F9173
:104F20008F917F916F915F914F913F912F910F9052
:104F30000BBE0F900FBE0F901F9018951F920F92EF
:104F40000FB60F9211240BB60F922F933F934F93EE
:104F50005F936F937F938F939F93AF93BF93EF93E1
:104F6000FF93E0911202F09113021995FF91EF91D6
:104F7000BF91AF919F918F917F916F915F914F9171
:104F80003F912F910F900BBE0F900FBE0F901F906F
:104F900018951F920F920FB60F9211240BB60F9215
:104FA0002F933F934F935F936F937F938F939F9331
:104FB000AF93BF93EF93FF93E0911002F091110232
:104FC0001995FF91EF91BF91AF919F918F917F9133
:104FD0006F915F914F913F912F910F900BBE0F906A
:104FE0000FBE0F901F9018951F920F920FB60F9241
:104FF00011240BB60F922F933F934F935F936F93B0
:105000007F938F939F93AF93BF93EF93FF93E09121
:105010001A02F0911B021995FF91EF91BF91AF9188
:105020009F918F917F916F915F914F913F912F91C0
:105030000F900BBE0F900FBE0F901F9018951F92F0
:105040000F920FB60F9211240BB60F922F933F932E
:105050004F935F936F937F938F939F93AF93BF9380
:10506000EF93FF93E0911802F09119021995FF91C7
:10507000EF91BF91AF919F918F917F916F915F91D0
:105080004F913F912F910F900BBE0F900FBE0F903D
:105090001F9018951F920F920FB60F9211240BB606
:1050A0000F922F933F934F935F936F937F938F93C1
:1050B0009F93AF93BF93EF93FF93E0911602F0910C
:1050C00017021995FF91EF91BF91AF919F918F9129
:1050D0007F916F915F914F913F912F910F900BBEF8
:1050E0000F900FBE0F901F9018951F920F920FB642
:1050F0000F9211240BB60F922F933F934F935F9310
:105100006F937F938F939F93AF93BF93EF93FF938F
:10511000E0911402F09115021995FF91EF91BF9162
:10512000AF919F918F917F916F915F914F913F913F
:105130002F910F900BBE0F900FBE0F901F901895E0
:105140001F920F920FB60F9211240BB60F922F934E
:105150003F934F935F936F937F938F939F93AF93FF
:10516000BF93EF93FF9386E19AE00E941E06FF91A2
:10517000EF91BF91AF919F918F917F916F915F91CF
:105180004F913F912F910F900BBE0F900FBE0F903C
:105190001F9018951F920F920FB60F9211240BB605
:1051A0000F922F938F939F93EF93FF93E091260A93
:1051B000F091270A8081E0912C0AF0912D0A82FD5E
:1051C0001DC0908180912F0A8F5F8F732091300ACC
:1051D000821741F0E0912F0AF0E0EA5EF54F958FDB
:1051E00080932F0AFF91EF919F918F912F910F90B4
:1051F0000BBE0F900FBE0F901F9018958081F2CFBD
:105200001F920F920FB60F9211240BB60F922F938D
:105210003F934F935F936F937F938F939F93AF933E
:10522000BF93CF93EF93FF938091C10080688093E9
:10523000C1008091C10088608093C100C091C60008
:1052400080912D0D8E7F80932D0D80910F0A8436D5
:1052500058F0E1EAF9E084E6DF011D928A95E9F76A
:1052600010920F0A0E94DB09E0910F0AE33020F050
:105270008091A2098093110A81E08E0F80930F0A1A
:10528000F0E0EF55F64FC0839091110A89136BC07F
:105290009091A109913009F05AC040EA5FE060E0C6
:1052A00070E040932E0D50932F0D6093300D70934E
:1052B000310D4093320D5093330D6093340D709344
:1052C000350D23EF36E23093380D2093370D1092D1
:1052D000360D9091390D93609B7F9093390D50E07E
:1052E00040E090E0BC0161507109252F30E02617A5
:1052F00037073CF42F55364FF9012081420F5F5F8D
:10530000F4CF8056964FDC018C9160E048131CC0AE
:1053100081EF96E20E94DD0210920F0A0E94DB09E3
:10532000FF91EF91CF91BF91AF919F918F917F911D
:105330006F915F914F913F912F910F900BBE0F9006
:105340000FBE0F901F90189582EB99E0E3CFE1EA32
:10535000F9E084E6DF011D928A95E9F710920F0AC1
:105360000E94DB09D9CF8AE090E0A0E0B0E0809312
:10537000220D9093230DA093240DB093250D8093BF
:10538000260D9093270DA093280DB093290D83EF40
:1053900096E290932C0D80932B0D10922A0D809104
:1053A0002D0D81608D7F8B7F80932D0DB7CF1F9248
:1053B0000F920FB60F9211240BB60F92FF920F931C
:1053C0001F932F933F934F935F936F937F938F938D
:1053D0009F93AF93BF93CF93DF93EF93FF93C6E178
:1053E000DDE010E000E08CE0F82EF09EF001F19E90
:1053F000F00D1124EF5DF24F808180FF23C08C817E
:105400009D81AE81BF810197A109B1098C839D83E4
:10541000AE83BF83892B8A2B8B2BA1F48081846080
:10542000808381FF2DC088819981AA81BB818C8373
:105430009D83AE83BF8389859A85009719F068851F
:105440000E94DD020F5F1F4F2C960F31110569F688
:10545000FF91EF91DF91CF91BF91AF919F918F918C
:105460007F916F915F914F913F912F911F910F917C
:10547000FF900F900BBE0F900FBE0F901F901895CE
:105480008E7F8083D8CF1F920F920FB60F92112478
:105490000BB60F922F933F934F935F936F937F932E
:1054A0008F939F93AF93BF93EF93FF93F0E0E0E070
:1054B0001995FF91EF91BF91AF919F918F917F913E
:1054C0006F915F914F913F912F910F900BBE0F9075
:1054D0000FBE0F901F9018951F920F920FB60F924C
:1054E00011240BB60F922F933F934F935F936F93BB
:1054F0007F938F939F93AF93BF93EF93FF93F0E0CE
:10550000E0E01995FF91EF91BF91AF919F918F913D
:105510007F916F915F914F913F912F910F900BBEB3
:105520000F900FBE0F901F901895FC0117821086E8
:10553000108289E0838381E084838583868311825E
:10554000168A158A8FEF838B148A72876187089574
:105550001F93CF93DF93EC01162F60E0812F0E9401
:10556000E804612F70E0FB01E858FC4FE491E88308
:10557000FB01EE5CFC4FE491F0E0EE0FFF1FE85EF4
:10558000FC4F859194919A8389831B861D861C8686
:105590001A86198618861F821E821D821C821B8213
:1055A000DF91CF911F910895CF93DF93EC01862F68
:1055B000698361E00E94E804CE01DF91CF910C94F1
:1055C000C60ECF93DF93EC01862F49836A832B832A
:1055D0001C8220E830E03E832D83411103C061E04E
:1055E0000E94E804CE01DF91CF910C948B114F9271
:1055F0005F926F927F928F929F92AF92BF92EF9243
:10560000FF920F931F93CF93DF93CDB7DEB72F9702
:105610000FB6F894DEBF0FBECDBF1092190A1092DC
:10562000180A88EE93E0A0E0B0E080931A0A909305
:105630001B0AA0931C0AB0931D0A8AE392E0909380
:10564000170A8093160A85ED90E09093230A8093C1
:10565000220A84ED90E09093250A8093240A80ED3D
:1056600090E09093270A8093260A81ED90E0909332
:10567000290A8093280A82ED90E090932B0A809368
:105680002A0A86ED90E090932D0A80932C0A1092BE
:105690002F0A1092300A1092310A1092320AE6E173
:1056A000FDE08AE89EE01082118212821382148249
:1056B00015821682178210861286118613863C96F2
:1056C0008E179F0781F710922B0B10922C0B1092C4
:1056D0002D0BF89480917A00806880937A007894FA
:1056E000F89480917A008E7F80937A0080917A007E
:1056F000866080937A007894F89480917C008F770C
:1057000080937C0080917C00806480937C007894FE
:105710006FE38EEF9BE00E94A82A6EEF7BE087EE9E
:105720009BE00E94952A6EE389ED9BE00E94A82AE7
:1057300069ED7BE082EC9BE00E94952A61E484EBBA
:105740009BE00E94A82A64EB7BE08DE99BE00E942D
:10575000952A60E48FE89BE00E94A82A6FE87BE02E
:1057600088E79BE00E94952A63E48AE69BE00E941A
:10577000A82A6AE67BE083E59BE00E94952A62E422
:1057800085E49BE00E94A82A65E47BE08EE29BE032
:105790000E94952A82E090E09093170C8093160C5B
:1057A0002CE03CE03093190C2093180C90931F0CC4
:1057B00080931E0C81E19CE09093210C8093200C3F
:1057C00088E38093260C1092280C1092270C84E119
:1057D00090E090932A0C8093290C2BE320932B0CC0
:1057E00010922D0C10922C0C90932F0C80932E0C59
:1057F0002AE32093300C1092320C1092310C9093CB
:10580000340C8093330C2DE32093350C1092370C1D
:105810001092360C9093390C8093380CEAE3FCE03C
:1058200082EB9CE010821182128213821482158214
:1058300016821782138A74968E179F0799F785E050
:10584000F82EF092D80C1092D90C1092DA0C10921B
:10585000DB0C1092DD0C1092DC0C1092E20C10921A
:10586000E30C1092E50C1092E40C1092EA0C1092EA
:10587000EB0C1092EC0C8AE090E09093DF0C80939C
:10588000DE0C9093E10C8093E00C8FE090E090931D
:10589000E70C8093E60C9093E90C8093E80C10924F
:1058A000ED0C80E18093B40C8EEE9CE090930F0D94
:1058B00080930E0D80E28093100D1092110D1092C6
:1058C000120D1092130D1092150D1092140D1092CE
:1058D0008B0E10928A0E10928C0E10928E0E1092D9
:1058E0008D0E65E38FE89EE00E94D42A64E381E98F
:1058F0009EE00E94D42A67E083E99EE00E94D42AB9
:1059000065E085E99EE00E94D42A6FE187E99EE088
:105910000E94D42A6CE189E99EE00E94D42A6BE1BE
:105920008BE99EE00E94D42A6AE18DE99EE00E9404
:10593000D42A11E01093A00E8AE08093A10E109358
:10594000A20E1092A30E90E8A92EB12CB092A50E33
:10595000A092A40E8FE99EE00E948B111093A70ED7
:105960008BE08093A80E82E08093A90E1092AA0E7D
:10597000B092AC0EA092AB0E86EA9EE00E948B1114
:105980001093AE0E08E00093AF0E84E08093B00E4B
:105990001092B10EB092B30EA092B20E8DEA9EE0BC
:1059A0000E948B111093B50E89E08093B60EF09291
:1059B000B70E1092B80EB092BA0EA092B90E84EB48
:1059C0009EE00E948B1123E040E069E18BEB9EE0BA
:1059D0000E94E12A26E040E068E182EC9EE00E941D
:1059E000E12A27E040E067E189EC9EE00E94E12A9D
:1059F00028E040E06EE180ED9EE00E94E12A29E08F
:105A000040E06DE187ED9EE00E94E12A2AE040E05F
:105A100066E18EED9EE00E94E12A2BE040E061E12C
:105A200085EE9EE00E94E12A2FE0E22EE092EC0E4D
:105A30001092ED0E61E08FE00E94E8048CEE9EE093
:105A40000E94C00E8CE08093EE0E1092EF0E61E08B
:105A50000E94E8048EEE9EE00E94C00E8EE08093CD
:105A6000F00E1092F10E61E00E94E80480EF9EE0DB
:105A70000E94C00EECE4F2E0F093F30EE093F20E1D
:105A800086E592E09093F50E8093F40E0093F60E67
:105A900082E89DE09093F80E8093F70E86E595E1FD
:105AA0009093FA0E8093F90E1092FB0E1092FD0E59
:105AB0001092FC0E1092FF0E1092FE0E1092010F2B
:105AC0001092000F10920E0F10920F0F1092100FE5
:105AD0001092110F10921A0F10921B0F10921D0F9F
