:100000000C94FB010C944A240C941F240C94F423AC
:100010000C94C9230C949E230C9473230C944823B2
:100020000C941D230C942C020C942C020C942C0286
:100030000C942C020C942C020C942C020C942C0288
:100040000C942C020C942C020C942C020C942C0278
:100050000C942C020C942C020C942C020C94D322A1
:100060000C942C020C9475240C942C020C942C02ED
:100070000C94B8250C94E1250C942C020C942C02C1
:100080000C942C020C942C020C942C020C942C0238
:100090000C942C020C942C020C942C020C942C0228
:1000A0000C942C020C942C020C942C020C942C0218
:1000B0000C942C020C942C020C942C020C944C25C5
:1000C0000C942C020C942C020C942C020C942C02F8
:1000D0000C942C020C942C020C942C020C942C02E8
:1000E0000C942C020C94C5150C94A21C0C941E109C
:1000F0000C944D040C9427090C94190B0C940A1FB2
:100100000C94F70C0C94A0080C94EA160C94F71CB1
:100110000C9445040C946B200C943E060C94021431
:100120000C9482170C945A1F0C94881E0C94E81D92
:100130000C94791C0C94A8080C9420040C94B20B19
:100140000C94240D0C94C1110C94ED0C0C94C6224B
:100150000C9465040C94401E0C9423180C94721695
:100160000C9446060C94060D0C94B8160C94E30CF3
:100170000C94FB190C94B71E0C94E1170C94001608
:100180000C9426040C94201C0C948B190C9477204E
:100190000C94380D0C946F1C0C94F10B0C943F04D0
:1001A0000C948D1C0C9473220C9487170C942E04C1
:1001B0000C94B8170C94621A0C945F260C940B21C3
:1001C0000C9460040C9474170C9461040C94051640
:1001D0000C94A60C0C940C1C0C941A0D0C94490451
:1001E0000C94841C0C9473080C94D90C0C949D0CE6
:1001F0000C943B1D0C9443170C94E2130C9457047D
:100200000C944E060C9413170C945B040C9427204A
:100210000C94F41B0C94F5190C94D10C0C94BF0C99
:100220000C942A040C9435040C943D0D0C949017F6
:100230000C94FB150C94B50C0C94E41E0C941A173A
:100240000C94CF1D0C9441110C9453040C945B201E
:100250000C9458080C94B41A0C9460110C94EF1779
:100260000C9443120C94421C0C94C8220C94AE16AD
:100270000C943B040C9432040C9475190C944F208C
:100280000C9410120C94AB0C0C94D4160C94811991
:100290000C942E0D0C94F8190C94D71B0C94C216C8
:1002A0000C94F41F0C94A21B0C94100D0C94D320EE
:1002B0000C94C90C005EBCE2613FDD83C29C7E20D1
:1002C000A3FD1F41009D23BE46DB65F88C11AF32B4
:1002D000CA57E97400002100240027002A002D00DD
:1002E0003000330001010000040107010A01000091
:1002F0002200250028002B002E00310034000201CE
:100300000000050108010B01000020002300260069
:1003100029002C002F00320000010000030106011B
:10032000090105050505070508080808020202027B
:100330000A0A080804040404010101010101010181
:100340000303030303030303040707070C0C0C0C4C
:100350000C0C0C0C02020202060606060606060635
:100360000B0B0B0B0B0B0B0B0102102020080810C2
:100370002040102040800201020108040201010215
:1003800004081020408080402010080402018004EE
:100390000201804020100804020108040201010249
:1003A0000408102040800102040810204080000052
:1003B0000A0B02090C0D0E080703040100000000DF
:1003C000000000000000000000000000000000002D
:1003D00000000000000000000000121110000000EA
:1003E000000000000000000000000000000000000D
:1003F000000000005F2611241FBECFEFD1E2DEBF58
:10040000CDBF00E00CBF13E0A0E0B2E0E2E0FEE50B
:1004100000E00BBF02C007900D92A039B107D9F7D9
:1004200029E0A0E9B3E001C01D92A833B207E1F7CB
:1004300011E0CBEFD1E000E006C021970109802F49
:10044000FE010E949C2CCA3FD10780E00807A9F753
:100450000E941A2A0C94FF2E0C940000809106082A
:10046000882311F181E090E09093050880930408BF
:1004700010921C0910921E0910921D091092220957
:100480001092200910921F091092210980910F09E2
:1004900080931A098091100980931B0910922509F5
:1004A00010922409109226090895EDE6F5E01582D0
:1004B0001482A4E8B6E04CE251E060E070E0D0962F
:1004C0004D935D936D937C93D397D4964D935D93A9
:1004D0006D937C93D79783E798E0DA969C938E93FD
:1004E000D997D8961C92AFEBB6E08C9181608D7F46
:1004F0008B7F8C9382E090E091838083A281B38193
:1005000014961C921E9213979187808715861486E5
:100510000284F385E02D1482138208959CEF980FD6
:10052000933018F08B3009F05EC08091590681112C
:1005300004C080915A06882341F010929707809159
:100540008B0780FF2CC080E0089510928B0790915C
:10055000970790FDF8CF92FDF6CF48EE53E060E0AC
:1005600070E040938C0750938D0760938E077093D3
:100570008F07409390075093910760939207709371
:10058000930720E631E13093960720939507109268
:10059000940791609D7F9B7F90939707089582FDBC
:1005A000D2CF48EE53E060E070E040938007509374
:1005B0008107609382077093830740938407509369
:1005C0008507609386077093870721E431E13093B4
:1005D0008A07209389071092880781608D7F8B7F1F
:1005E00080938B07B0CF81E00895FC0190E1A5E2F4
:1005F000B6E001900D929A95E1F7809131069091C5
:100600003206B0E0A0E0E4E8F6E08093FC069093C8
:10061000FD06A093FE06B093FF068093000790931B
:100620000107A0930207B093030789E19BE0909331
:1006300006078093050710920407A7E0B7E08C91A6
:1006400083608B7F8C938091330690913406B0E069
:10065000A0E080839183A283B38384839583A68360
:10066000B7838EE190E1928781871086EFE8F6E00C
:10067000808183608B7F808385E296E09093FC0885
:100680008093FB0884E690E09093E3088093E2086F
:100690009093970880939608089521E030E0309376
:1006A0002206209321069091230691609B7F9093D0
:1006B00023064CE251E060E070E04093B4065093B2
:1006C000B5066093B6067093B7064093B80650938C
:1006D000B9066093BA067093BB0643E758E050939F
:1006E000BE064093BD061092BC069091BF06916075
:1006F0009D7F9B7F9093BF06909106089B3029F4C5
:1007000010924606109245060895963029F43093CB
:1007100046062093450608952CEF290F223038F421
:1007200082E090E0909346068093450608959730C6
:1007300029F540912B0650912C0670E060E0409323
:1007400098075093990760939A0770939B0740937B
:100750009C0750939D0760939E0770939F0725EC1D
:1007600035E13093A2072093A1078093A0078091E1
:10077000A30781608D7F8B7F8093A30783E090E048
:10078000D1CF9C014FB7F89480918404E091830409
:1007900081111CC081E08E0F8093830493E0E99F58
:1007A000F0011124E65FFB4F31832083628388329E
:1007B00011F4109283049091830480918204981321
:1007C00003C081E0809384044FBF08959091820418
:1007D0009F5F9832A1F09093820491E09E0F9093D6
:1007E000830483E0E89FF0011124E65FFB4F31832F
:1007F00020836283983241F710928304E5CF1092F0
:100800008204EBCF8150823108F05AC0E82FF0E02B
:100810008827E25FFB4F8F4F0C949C2C2E043204F0
:10082000200426042A04600435043B043F044504E4
:1008300049044D045304570460045B0461046504D7
:10084000809180008F778093800008958091800050
:100850008F7DF9CF80918000877FF5CF84B58F772A
:1008600084BD089584B58F7DFBCF8091B0008F77D4
:100870008093B00008958091B0008F7DF9CF809172
:1008800090008F77809390000895809190008F7DE5
:10089000F9CF80919000877FF5CF8091A0008F776E
:1008A0008093A00008958091A0008F7DF9CF809162
:1008B000A000877FF5CF809120018F778093200162
:1008C0000895809120018F7DF9CF80912001877F4D
:1008D000F5CFCF93DF93282F30E0F901E255FC4F9D
:1008E0008491F901E859FC4FD491F901EE5DFC4F78
:1008F000C491CC23A1F081110E940204EC2FF0E0FE
:10090000EE0FFF1FE85FFC4FA591B491EC91ED2332
:1009100081E090E009F480E0DF91CF91089580E0DC
:1009200090E0FACFCF93DF93EC01188219821A82FC
:100930001B821C821D821E821F828EE00E9469041F
:10094000998180FB96F999838DE00E9469049981D1
:1009500080FB97F999838CE00E9469049A8180FB5F
:1009600090F99A83E4E0F8E08881938590FB83F91D
:10097000928990FB84F9918D90FB85F990A190FB71
:1009800086F9888389E10E946904988180FB97F940
:10099000988388E10E946904998180FB90F999838A
:1009A00087E10E946904998180FB91F9998380E134
:1009B0000E946904998180FB92F999838FE00E94DB
:1009C0006904998180FB93F9998386E10E94690407
:1009D000998180FB94F9998381E10E94690499814E
:1009E00080FB95F999838CE20E9469049A8180FBCF
:1009F00091F99A838EE20E9469049A8180FB92F9B0
:100A00009A838DE20E9469049A8180FB93F99A830C
:100A10008FE20E9469049A8180FB94F99A8385E2AF
:100A20000E9469049A8180FB95F99A8384E20E946E
:100A300069049A8180FB96F99A8387E20E9469048F
:100A40009A8180FB97F99A8386E20E9469049B81D0
:100A500080FB90F99B8389E20E9469049B8180FB63
:100A600091F99B8388E20E9469049B8180FB92F943
:100A70009B838BE20E9469049B8180FB93F99B839B
:100A80008AE20E9469049B8180FB94F99B8385E341
:100A90000E946904988180FB90F998838FE10E94FD
:100AA0006904988180FB92F998838BE10E94690424
:100AB000988180FB91F99883DF91CF9108951F93DE
:100AC000CF93DF93282F30E0F901E255FC4F84915A
:100AD000F901E859FC4FD491F901EE5DFC4FC49146
:100AE000CC23A9F0162F81110E940204EC2FF0E014
:100AF000EE0FFF1FE251FD4FA591B4918FB7F8940F
:100B0000EC91111108C0D095DE23DC938FBFDF91EB
:100B1000CF911F910895DE2BF8CFCF93DF9390E014
:100B2000FC01E859FC4F24918E5D9C4FFC0184919F
:100B30008823C9F090E0880F991FFC01EC52FD4F0B
:100B4000A591B491FC01E251FD4FC591D491611181
:100B50000DC09FB7F8948C91209582238C93888147
:100B6000282328839FBFDF91CF910895623051F4ED
:100B70009FB7F8943C91822F809583238C93E881D2
:100B80002E2BEFCF8FB7F894EC912E2B2C938FBF99
:100B9000EACF863308F0865320917B00982F987017
:100BA000277F922B90937B008770806480937C00DA
:100BB00080917A00806480937A0080917A0086FD2B
:100BC000FCCF809178009091790008953FB7F89418
:100BD0008091FF0390910004A0910104B091020460
:100BE00026B5A89B05C02F3F19F00196A11DB11D88
:100BF0003FBFBA2FA92F982F8827BC01CD01620FC4
:100C0000711D811D911D42E0660F771F881F991F7E
:100C10004A95D1F708958F929F92AF92BF92CF924B
:100C2000DF92EF92FF926B017C010E94E6054B017F
:100C30005C01C114D104E104F104B9F00E94E6059D
:100C4000681979098A099B09683E734081059105F5
:100C500080F321E0C21AD108E108F10888EE880E7D
:100C600083E0981EA11CB11CE4CFFF90EF90DF90B1
:100C7000CF90BF90AF909F908F900895E3E6F5E0FE
:100C8000838194810196948383830895E3E6F5E05C
:100C90008085918501969187808708950895DC016C
:100CA00080E0615090F09D919827E92FEF70F0E07F
:100CB000EC54FD4F2491E92FE295EF70F0E0EC53F6
:100CC000FD4FE491822F8E27ECCF0895DC012C910B
:100CD0001196ED91FC91F8948181822B8183928110
:100CE000322F30959323928387E090E00197F1F7BC
:100CF00081818323818383E290E00197F1F79081E2
:100D00007894EFECF0E03197F1F7922381E009F469
:100D100080E00895FC0190810180F281E02D292F6F
:100D2000209560FF14C0F8948281822382838181A0
:100D3000892B8183A3E2B0E01197F1F78281982B90
:100D40009283789487ED90E00197F1F70895F894F5
:100D50008281822382838181892B8183AFEFB0E0FE
:100D60001197F1F78281982B928378948FE090E02D
:100D7000EBCFDF92EF92FF920F931F93CF93DF930E
:100D8000EC01D62EE42E08E010E0FF24F39461E09D
:100D90008D2D8F2109F460E0CE010E948A06FF0CA0
:100DA00001501109A1F7E11010C0F894E981FA810E
:100DB00091818881809589238183E981FA8192815B
:100DC00088818095892382837894DF91CF911F91C8
:100DD0000F91FF90EF90DF900895EF92FF920F93A5
:100DE0001F93CF93DF938C017B0140E065E50E9468
:100DF000B906E70188E0E80EF11C699140E0C801FE
:100E00000E94B906CE15DF05C1F7DF91CF911F9182
:100E10000F91FF90EF900895FC0190810180F28185
:100E2000E02DF8948181292F209582238183789465
:100E30003DE743E050E0315029F1DA011197F1F735
:100E400080818923C1F3F894828182238283818106
:100E5000892B81837894ABE7B7E01197F1F7F89489
:100E6000818182238183A3E1B1E01197F1F7808131
:100E7000982381E009F080E07894E3E6F6E031978A
:100E8000F1F7089580E008958F929F92AF92BF92FC
:100E9000CF92DF92EF92FF920F931F93CF93DF9346
:100EA00000D01F921F92CDB7DEB78C01DC011996DE
:100EB0008D919C910E940C0740E06CECF8018185BB
:100EC00092850E94B906D8014C9164E419968D91DF
:100ED0009C910E94B9068FB7F894C090FB03D09004
:100EE000FC03E090FD03F090FE038FBFF8018481C6
:100EF000811120C081E08983CA82DB82EC82FD827D
:100F000029813A814B815C816D8170E080E090E0C5
:100F10000F900F900F900F900F90DF91CF911F9136
:100F20000F91FF90EF90DF90CF90BF90AF909F9088
:100F30008F90089585818823F9F0808181111CC0EC
:100F4000F801818592850E946606813099F22FB75B
:100F5000F8948091FB039091FC03A091FD03B09164
:100F6000FE032FBF8C199D09AE09BF098E3E92402A
:100F7000A105B10528F3BECFD8011396EC91E95035
:100F80008EEE92E0E33038F4F0E0EE0FFF1FE05D0C
:100F9000FD4F808191814C01B12CA12CF801818100
:100FA000882321F060E082810E945F05C501B401C1
:100FB0000E940B06D80111968C911197882309F491
:100FC00099CF61E012968C910E945F0593CF4F926A
:100FD0005F926F927F928F929F92AF92BF92CF92C9
:100FE000DF92EF92FF920F931F93CF93DF938C01C9
:100FF0007B01EA01FC01818592850E940C07882310
:10100000D9F1B701F801818592850E94ED0640E093
:101010006EEBF801818592850E94B9066E015E0132
:10102000F9E0AF0EB11C7E01F8018184928488E062
:10103000682E712C512C44244394C4010E946606EE
:1010400081115428440CF1E06F1A7108B1F7F701CF
:1010500051927F01AE16BF0639F7F801818592855E
:101060000E940C07813041F4F60181916F018111DA
:1010700005C0EE15FF05C1F790E008C068E0CE019D
:101080000E944F0691E028852813F6CF892FDF9123
:10109000CF911F910F91FF90EF90DF90CF90BF9075
:1010A000AF909F908F907F906F905F904F9008953A
:1010B000EDE6F5E0A281B38113968D919C91149792
:1010C00014961C921E92139795838483A285B385F0
:1010D00013968D919C91149714961C921E921397BF
:1010E00095878487089520917105309172058091CC
:1010F00073059091740528173907C0F081E090E0DE
:1011000090936E0580936D052091790530917A0555
:1011100080917B0590917C052817390760F081E06C
:1011200090E09093760580937505089510926E0572
:1011300010926D05E9CF109276051092750508950D
:101140001092D706E6E0F4E08081877F80830895DF
:1011500061E087E00C945F05CF93DF93A0E0B2E0FD
:10116000FD0190E0219131912817390721F4EF0119
:1011700022971982188222E0E031F20799F78D91C7
:101180009D91892B41F482E0A031B807C1F781E03D
:10119000DF91CF91089580E0FBCFFC0121812150A8
:1011A000330B70E060E0472F50E0421753073CF4E8
:1011B000480F591FFA014081640F7F5FF4CF820FFF
:1011C000931FFC0160830895FC0181E080836583A7
:1011D00085E0828380912306A0E0B2E020E132E046
:1011E0004D915D91452BE1F42A173B07C9F791E03A
:1011F0008F7E90FF80619091900390FB81F98383B3
:10120000F894909181068091800691110BC0909185
:101210007F06981307C07894148287E0818308952D
:1012200090E0E6CF90E0A0917C06B0917D06A80FFB
:10123000B91F2C91019660917E0670E00E94882C67
:10124000809380061092810678942483E6CFCF9312
:10125000DF93CDB7DEB7C456D1090FB6F894DEBF21
:101260000FBECDBF66E0CE0101960E94E408CE011C
:1012700001960E94CD08CC59DF4F0FB6F894DEBF1F
:101280000FBECDBFDF91CF910895CF93DF93EC01D7
:1012900067E00E94E408CE01DF91CF910C94CD0865
:1012A000E1ECF0E080818068808308951F93CF9304
:1012B000DF93EC0119861EAAFC01E05CFF4F10824F
:1012C0009FAD319680E0981719F011928F5FFBCF98
:1012D000FE01E55BFF4F10823197108210E08FAD69
:1012E000181750F4EA81FB81E10FF11D60E0808165
:1012F0000E945F051F5FF3CFDF91CF911F9108958B
:10130000CF93DF93EC010E945609ED81FE812F817E
:1013100038858CA99DA9B0E0A0E080839183A28349
:10132000B38384839583A683B783328721878BE039
:101330008087838581608D7F8B7F8387DF91CF91CD
:1013400008953F924F925F926F927F928F929F92F9
:10135000AF92BF92CF92DF92EF92FF920F931F93C3
:10136000CF93DF9300D000D0CDB7DEB79E838D83BF
:10137000062F10E08FB7F894C090FB03D090FC03C9
:10138000E090FD03F090FE038FBFED81FE8180A908
:1013900091A9A2A9B3A9C81AD90AEA0AFB0AC701E6
:1013A000B6010E94D22D20E030E04AE754E40E94CA
:1013B0002A2DAD81BE8194966D937D938D939C93E0
:1013C0009797FD01C0A2D1A2E2A2F3A22FB7F89491
:1013D0008091FB039091FC03A091FD03B091FE036B
:1013E0002FBFED81FE8180AB91ABA2ABB3AB158774
:1013F000048762857385601B710BE6A4F7A4E01A6D
:10140000F10A17A706A781A5882331F07195619588
:101410007109F194E194F108AD81BE8198963C90F8
:10142000072E000C880B990B0E94D42D4B015C01F8
:1014300010E000E031100BC0ED81FE812089318980
:10144000428953890E94892E0E949C2D8B01B701ED
:10145000FF0C880B990B0E94D42D6B017C01AD8190
:10146000BE8194968D919D910D90BC91A02D898304
:101470009A83AB83BC83ED81FE81208D318D428DBB
:10148000538DC701B6010E94892E29813A814B8173
:101490005C810E942A2D2B013C01B801110F880BA1
:1014A000990B0E94D42D9B01AC01C301B2010E9493
:1014B000B92C0E949C2D2B01AD81BE811F967C937F
:1014C0006E931E9754962D913D914D915C91579737
:1014D000C501B4010E94892E29813A814B815C812A
:1014E0000E94892EED81FE81248D358D468D578D8C
:1014F0000E94B92C4B015C01AD81BE815C968D923E
:101500009D92AD92BC925F973320A1F050962D91A1
:101510003D914D915C915397C701B6010E94892E70
:10152000A50194010E94B92CED81FE81648F758F15
:10153000868F978FAD81BE815C968C905C975D960F
:101540009C905D975E96AC905E975F96BC905F971F
:101550009A960D911C91B801012E000C880B990BE5
:101560000E94D42D6B017C019B01AC01B401C5012B
:101570000E94252D87FD16C0ED81FE8164A575A50D
:10158000072E000C880B990B0E94D42D6B017C0157
:101590009B01AC01B401C5010E94842E181614F001
:1015A00064017501C601D701ED81FE81848F958F9D
:1015B000A68FB78FB201550C880B990B0E94D42DC2
:1015C0009601A7010E94B92C0E949C2D60177107FB
:1015D0004CF0AD81BE819C960D911C9160177107F6
:1015E0000CF48B01ED81FE811787068706ABE55B66
:1015F000FF4FAD81BE8114968C91081708F4802F9F
:10160000808326960FB6F894DEBF0FBECDBFDF9164
:10161000CF911F910F91FF90EF90DF90CF90BF90EF
:10162000AF909F908F907F906F905F904F903F9082
:101630000895CF93DF93CDB7DEB768970FB6F894D0
:10164000DEBF0FBECDBFEDE6F5E0DE01119644A191
:1016500055A166A177A14D935D936D937D93789687
:1016600085E0ED3FF80799F780916B08882351F0EA
:1016700069817A818B819C810E94A32D82E698E00A
:101680000E94A1098091B708882391F069817A812D
:101690008B819C810E94A32D8EEA98E068960FB6FC
:1016A000F894DEBF0FBECDBFDF91CF910C94A1099E
:1016B00068960FB6F894DEBF0FBECDBFDF91CF9115
:1016C0000895CF92DF92EF92FF920F931F93CF93E3
:1016D000DF9300D000D01F921F92CDB7DEB7FC0180
:1016E0008E010F5F1F4F88E0D8011D928A95E9F7A0
:1016F0004285C180E0802E2D30E0842FF12CDD2446
:10170000D394CF100EC0CF010296B801562F501BB4
:101710005E1590F4DB015D91BD01DC015D93CD01AF
:10172000F5CF90E0D801A80FB91FDC920196B9015E
:101730000E94882CF394E5CF842F90E00196B901A4
:101740000E94882C828728960FB6F894DEBF0FBEC1
:10175000CDBFDF91CF911F910F91FF90EF90DF9060
:10176000CF9008951F93CF93DF93FC018185882349
:10177000A1F1DF01A65BBF4F9C91EF01C55BDF4F7D
:101780008881981730F59F5F9C939F01205C3F4FA5
:1017900097AD8C91981708F4892FEF01F901808398
:1017A000CE01CF960E94610B10E08FAD1817A8F400
:1017B000812F90E0DE01A80FB91FAF5BBF4FEA8118
:1017C000FB81E80FF91F6C9180810E945F051F5F0C
:1017D000ECCF8917D0F69150D7CFDF91CF911F91E1
:1017E000089582E698E00E94B20B8EEA98E00C948D
:1017F000B20BEF92FF921F93CF93DF93EC0110E0B7
:101800008C811817A0F4E12EF12CEA81FB81EE0DFA
:10181000FF1D61E080810E948D05EA81FB81EE0D54
:10182000FF1D60E080810E945F051F5FE9CFFE0120
:10183000E05CFF4F1082CE01CF96DF91CF911F91D8
:10184000FF90EF900C94610B81E20E94690421E00B
:10185000892B09F420E0822F0895FC0181818617ED
:1018600099F0618381E090E0938382838081861781
:1018700051F0662381F0848195812281338128177C
:10188000390708F060830895828193818F3F98071C
:1018900069F30196E9CF86819781EFCFFC018181C1
:1018A000882331F08381DB018C93858111968C93A1
:1018B00008950F931F93CF93DF93FC012081222380
:1018C00009F43FC0162FC62FD0E0D683C58302810E
:1018D00061E0802F0E948D05209741F460E0802F09
:1018E000DF91CF911F910F910C945F05CF3FD105F0
:1018F00011F461E0F4CFE02FF0E0E255FC4FE49109
:10190000E150E23108F0B4C0F0E08827E557F34F2A
:101910008F4F0C949C2C9D0CA60CAB0CB50CBF0CE3
:10192000380DC90CD10CD90CE30CED0CF70C060DDD
:10193000100D380D1A0D240D2E0D84B5806884BD50
:1019400017BDDF91CF911F910F91089584B58062EB
:1019500084BD18BDF6CF80918000806880938000A0
:10196000D0938900C0938800ECCF80918000806282
:1019700080938000D0938B00C0938A00E2CF809147
:101980008000886080938000D0938D00C0938C008D
:10199000D8CF8091B00080688093B0001093B300DE
:1019A000D0CF8091B00080628093B0001093B400DB
:1019B000C8CF80919000806880939000D093990068
:1019C000C0939800BECF8091900080628093900079
:1019D000D0939B00C0939A00B4CF80919000886010
:1019E00080939000D0939D00C0939C00AACF8091DB
:1019F000A00080688093A0008091A0008F7B8093DE
:101A0000A000D093A900C093A8009BCF8091A00014
:101A100080628093A000D093AB00C093AA0091CFC6
:101A20008091A00088608093A000D093AD00C09307
:101A3000AC0087CF80912001806880932001D093F3
:101A40002901C09328017DCF80912001806280937D
:101A50002001D0932B01C0932A0173CF80912001E4
:101A6000886080932001D0932D01C0932C0169CF11
:101A7000C038D1050CF03DCF31CF0F931F93CF93DA
:101A8000DF9383E20E9469048C0182E20E94690470
:101A9000EC0161E0012B09F460E089E496E00E942A
:101AA0002D0C61E0CD2B09F460E081E596E00E9409
:101AB0002D0C809149068093590690915106909380
:101AC0005A0623E0911103C021E0811122E0209306
:101AD0005B0620912C09222309F448C02091340987
:101AE000222309F443C02091FA0821113FC0992311
:101AF00051F180910C0980931B0910921A09609191
:101B00001A0960932B0980912D09882329F180916E
:101B1000290990912A090E94590C60911B09609330
:101B2000330980913409882309F18091350988238C
:101B3000C1F08091310990913209DF91CF911F91CD
:101B40000F910C94590C8111DACF80910B0980937D
:101B50001A0910921B09D3CF809127099091280967
:101B6000DACF80912F0990913009E7CFDF91CF91A3
:101B70001F910F910895FC01808181110DC081E0BA
:101B800080838181811104C061E082810C945F05B2
:101B90006581CF010C94590C0895CF93DF93EC012C
:101BA000862F68835A8349831C821B8262E00E94CD
:101BB0008D0529813A819881923069F43093110220
:101BC0002093100280916A00836080936A00EC9AEF
:101BD000DF91CF910895933059F4309313022093FD
:101BE000120280916A008C6080936A00ED9AF0CFB7
:101BF0008EEE890F843060F787E1891BE82FF0E0D3
:101C0000EE0FFF1FE05FFD4F31832083843091F0A2
:101C10008530B9F0833039F080916900836080931A
:101C20006900E89AD5CF809169008C608093690043
:101C3000E99ACECF80916900806380936900EA9A27
:101C4000C7CF80916900806C80936900EB9AC0CF08
:101C5000FC01118260E080810C945F05FC01108220
:101C600060E081810C945F05F8949091810699233E
:101C700059F0809182069091830601969093830695
:101C8000809382067894089520917F0630E0E09159
:101C90007C06F0917D06E20FF31F8083C901019657
:101CA00060917E0670E00E94882C80937F06909160
:101CB00080069813E7CF81E080938106E3CFBF923F
:101CC000CF92DF92EF92FF920F931F93CF93DF9308
:101CD000EC01B62EC72E8D85811105C0CE010E9464
:101CE0000C0781110EC01B861D861C8680E0DF91CB
:101CF000CF911F910F91FF90EF90DF90CF90BF9009
:101D0000089540E060EFCE010E94B90601E0E12CA9
:101D1000D12C11E0CE010E946606F82ECE010E9461
:101D2000660691E0F91218C0813099F51134D8F2A5
:101D3000DB86D11002C081E08D878B81882399F2E8
:101D40002396EB2DFC2DCF01089629912193E817BE
:101D5000F907D9F781E0CBCFEE2DF0E0F8120FC0F4
:101D60008B851817A0F4DE01AE0FBF1F13968C9160
:101D7000802379F4F12C193008F41C87D12EEC0F54
:101D8000FD1F8381902F9095892383830AC081133F
:101D9000F1CFFE01EE0DF11D8381802B8383FF24A3
:101DA000F3946F2DCE010E948A061F5F000F11F47D
:101DB000E39401E087E08E1508F0ACCFB7CFCF9366
:101DC000DF93EB01DC011996ED91FC911A971386D4
:101DD0001586148612861186108617821682158241
:101DE0001482138219968D919C910E945F0E982FF8
:101DF000882341F067E0CE010E944F0691E02F81D9
:101E0000281390E0892FDF91CF9108958F929F92B0
:101E1000AF92BF92EF92FF920F931F93CF93DF93F6
:101E2000CDB7DEB761970FB6F894DEBF0FBECDBF5A
:101E30007C01FC0100851185F8018781882309F464
:101E40006BC0BE01665F7F4FC8010E94DF0E882312
:101E500009F462C0AE014F5F5F4FBE01665F7F4F06
:101E6000C8010E94E707882309F456C08A81812CA3
:101E7000912C540187FF06C0812C912CF8EFAF2ED6
:101E8000BB24BA949A8549819B3309F057C02D81B0
:101E900027FF54C040FD40C0042F10E030E020E098
:101EA00073E0000F111F221F331F7A95D1F7B9017C
:101EB000A801407E57706627772790E0B0E0A0E049
:101EC0008C019D01EBE0000F111F221F331FEA95CB
:101ED000D1F7042B152B262B372B082919292A2952
:101EE0003B29013854EE15075FEF25073507A4F0AD
:101EF000C901B8010E94D42D20E030E040E05CE34D
:101F00000E94892E4B015C0120E030E04EEF52EC44
:101F10000E94252D811158C0F7018689978924894F
:101F200035898217930718F40196978B868B812C3D
:101F3000912C8EEFA82E82ECB82E49C0082F10E00D
:101F4000102F0027110F110F110FF8E04F9FA00164
:101F50001124042B152B012E000C220B330B082906
:101F600019292A293B29903109F0BBCF68856623BE
:101F700009F4B7CF70E08F81AB01481B5109CA014A
:101F80009695982F8827979587950E94882CCB0146
:101F9000770FAA0BBB0B53E0000F111F221F331F3B
:101FA0005A95D1F70078277033270052110921097B
:101FB0003109800F911FA21FB31F95018401082BC7
:101FC000192B2A2B3B2B8DCFF701178A168A81E01C
:101FD000F70146895789248935894217530708F440
:101FE00080E0F701838B808591850E944407F7018B
:101FF000838981111AC080829182A282B382F70103
:10200000608171818281938161960FB6F894DEBF01
:102010000FBECDBFDF91CF911F910F91FF90EF9039
:10202000BF90AF909F908F90089580E090E0AAE7D6
:10203000B4EC80839183A283B383E1CF8091470680
:10204000815080934706811118C085E08093470630
:102050008091240628E1829FC00111248F569A4F57
:102060000E94060F90912406892F8F5FF1F39FEF56
:102070008630D0F780932406089581E995E00E9488
:10208000060F9091A40580910704992339F080648C
:102090008093070461E084E30C945F058F7B809359
:1020A00007040895BF92CF92DF92EF92FF920F93B1
:1020B0001F93CF93DF93CDB7DEB761970FB6F89438
:1020C000DEBF0FBECDBF7C018B01DC0119967C9376
:1020D0006E93189783E0D82ECC24C394D801199618
:1020E000ED91FC911A971386158614861286118637
:1020F00010861782168215821482138217961C92FC
:10210000179718961C9262E370E080E090E00E94BE
:102110000B06BE01665F7F4FF801818592850E94A4
:102120005F0E882309F477C067E0CE010A960E940B
:102130004F0699898913EDCFD80117968C9117977F
:102140008F5F17968C938A85883231F008F04AC0E9
:10215000803111F08232E9F6F80180858F5F808747
:102160008081811124C0818592850E940C07BE0167
:10217000665F7F4FD80119968D919C910E94ED0664
:1021800040E064EBF801818592850E94B906D80190
:1021900019968D919C910E946606B82EF801818552
:1021A00092850E940C07B11002C0D801CC928A859A
:1021B000803119F1AE014F5F5F4FBE01665F7F4F07
:1021C000C8010E94E707882359F08D819A859B33C7
:1021D00011F487FD12C08F3391F058F48F31B9F0AC
:1021E00080E00EC08B3309F4B7CF823409F091CF71
:1021F000B3CF8F3571F08F3799F78CE001C08AE04B
:10220000F8019381981708F084CF838382CF89E007
:10221000F7CF8BE0F5CFD80117969C91911103C0B1
:10222000DA94D1105BCFF701138A178A168A0084DB
:10223000F185E02D9781992331F0B701665F7F4FDB
:10224000CF010E94DF0ED70152968C9352971896B9
:10225000ED91FC911997148218968D919C910E9492
:10226000440761960FB6F894DEBF0FBECDBFDF9175
:10227000CF911F910F91FF90EF90DF90CF90BF9083
:10228000089582E090E090932206809321068BE2ED
:1022900098E00C94BB0DCF93FC018081882371F0F2
:1022A0001082C2818181882321F061E08C2F0E94FD
:1022B0008D0560E08C2FCF910C945F05CF91089530
:1022C00010928B07109297078BE298E00E944B11B7
:1022D000E4E0F8E01182108287E082830E942E02FF
:1022E00081E00C944D031F93CF93DF93EC01888121
:1022F00099810E944B118A819B81FC0124812223B8
:1023000051F00E944B111D8281E08F8380E0DF91AC
:10231000CF911F91089511E01E832C8130E0368308
:1023200025830E94BB0D1D8381E0F1CFCF93DF9306
:10233000EC018D81811119C09F81911116C02E81F0
:10234000222369F08A819B81FC013481332381F04F
:10235000211108C0CE01DF91CF910C9473118881B7
:102360009981F2CF81E08F8380E0DF91CF91089552
:102370002C8130E0368325830E94BB0D81E08D8364
:10238000F4CFCF9390E0009769F5C1E0C0930908BE
:1023900061E080910A080E945F0584EF91E0A0E06F
:1023A000B0E08093EC079093ED07A093EE07B09315
:1023B000EF078093F0079093F107A093F207B09393
:1023C000F30781EC91E19093F6078093F507C093B2
:1023D000F4078091F70781608D7F8B7F8093F707EB
:1023E000CF9108950197E1F78FE299E00E9496114D
:1023F0008CED8093330980913409882389F380918F
:102400003509882341F080913109909132096CEDB2
:10241000CF910C94590C80912F0990913009F7CFEE
:1024200090E0009749F589E098E00E942E0E84EF35
:1024300091E0A0E0B0E08093E0079093E107A093E3
:10244000E207B093E3078093E4079093E507A09336
:10245000E607B093E70780E192E19093EA07809363
:10246000E90781E08093E8078091EB0781608D7F29
:102470008B7F8093EB070895019721F48FE299E019
:102480000C94961108951F93CF93DF93CDB7DEB7C9
:1024900068970FB6F894DEBF0FBECDBF90E00097EF
:1024A00009F045C08091090990910A09823091058F
:1024B00080F1029799F184EF91E0A0E0B0E0809381
:1024C000D4079093D507A093D607B093D7078093EE
:1024D000D8079093D907A093DA07B093DB0783E47A
:1024E00092E19093DE078093DD0781E08093DC0723
:1024F0008091DF0781608D7F8B7F8093DF076896F7
:102500000FB6F894DEBF0FBECDBFDF91CF911F9104
:1025100008958DE098E00E942E0ECDCF81E080934B
:102520000D0861E080910E080E945F05C4CF0197FD
:1025300031F7EDE6F5E0DE0111968DEF95E040A56F
:1025400051A562A573A54D935D936D937D93789688
:102550008E179F07A1F78091090990910A09813090
:10256000910539F1029709F447C080916B088823DF
:1025700039F082E698E00E9480098DE08093060899
:102580008091B708882359F18EE598E00E94280EC3
:1025900080E698E00E94280E80E498E00E944B11AB
:1025A00087E498E00E944B118EEA98E00E9480092F
:1025B00016C069817A818B819C810E94A32D81E064
:1025C00080936B08862F90E090936D0880936C0841
:1025D00082E698E00E94A10985E10E94340E87E21C
:1025E00099E068960FB6F894DEBF0FBECDBFDF91BD
:1025F000CF911F910C94961180E498E00E94BB0D3E
:1026000087E498E00E94BB0D11E010935F0861E041
:1026100080915E080E945F051093610861E08091DF
:1026200060080E945F0569817A818B819C810E948C
:10263000A32D1093B708862F90E09093B90880934C
:10264000B8088EEA98E00E94A10987E1C6CF1F93DF
:10265000CF93DF93FC012581222309F1EC018681D0
:10266000811113C08081918111E0FC0114830E94CB
:102670004B11CE010E947311811113C01F831D8263
:1026800082E0DF91CF911F9108958281938111E0C3
:10269000FC0114830E944B111D821F83F1CF80E047
:1026A000F0CF81E0EECFCF93DF93EC018881998169
:1026B0000E944B118A819B810E944B111D82DF91E8
:1026C000CF91089587E299E00E94531384EF91E03F
:1026D000A0E0B0E08093D4079093D507A093D607ED
:1026E000B093D7078093D8079093D907A093DA07C0
:1026F000B093DB0783E492E19093DE078093DD07DC
:102700001092DC07EFEDF7E0808181608D7F8B7F99
:102710008083089590910608981302C080E0089580
:10272000953061F1A0F49430C9F78B30B9F78BE0A4
:10273000809306088091090990910A09892B71F309
:1027400010920A09109209090E946213E7CF96308D
:1027500071F19B3019F78430B9F08630F9F6809327
:1027600006088091090990910A090197B9F281E060
:1027700090E090930A0980930909E6CF8430A9F686
:102780008093060881E008958093060880910909E6
:1027900090910A09029741F082E090E090930A0933
:1027A000809309090E9462130E945502EBCF8B307F
:1027B00009F0B4CF82E698E00E9480098DE0809312
:1027C0000608ACCF109213078091450690914606FB
:1027D000009751F00297A9F48BE00E948A1310929F
:1027E000460610924506089580914806811109C059
:1027F00086E00E948A1381E090E0909346068093E1
:102800004506089510921F0780914506909146064F
:102810008130910521F058F0029791F008958BE0F6
:102820000E948A131092460610924506089584E08D
:102830000E948A1382E090E09093460680934506BA
:102840001092AF070895809107089091080883308F
:10285000910571F1892B61F18FE299E00E94531388
:1028600084EF91E0A0E0B0E08093E0079093E1076F
:10287000A093E207B093E3078093E4079093E50702
:10288000A093E607B093E70780E192E19093EA070F
:102890008093E9071092E8078091EB0781608D7FB4
:1028A0008B7F8093EB071092080810920708089519
:1028B00010920808109207088FE299E00C94961184
:1028C000CF93DF93EC010E945313E881F9811482C6
:1028D000EA81FB8114821E821F82DF91CF910895CD
:1028E00010920508109204081092DF071092EB076F
:1028F0001092F70787E299E00E9453138FE299E064
:102900000E94531387E299E00E9460148FE299E0DD
:102910000E9460148BE298E00E944B1182E398E0E1
:102920000E944B1189E398E00E944B1180E498E0EB
:102930000E944B1187E498E00E944B118EE498E0CE
:102940000E944B1185E598E00E944B1189E098E0C8
:102950000E942E0E8BE098E00E942E0E8DE098E0F3
:102960000E942E0E8CE598E00E94280E8EE598E0DD
:102970000E94280E80E698E00E94280E82E698E0E9
:102980000E9456098EEA98E00E94560910920709A3
:1029900010923707109243071092670710925B0757
:1029A0001092730710924F0710927F0787E299E009
:1029B0000E9460148FE299E00C946014CF93C62FAC
:1029C00010922206109221061092FA08109299088D
:1029D00088E492E00E947014809106088C50823046
:1029E00010F010920608809123068E7F84608093F9
:1029F0002306109272051092710510927A051092BA
:102A000079051092CB061092D7061092E306109229
:102A1000EF061092FB061092130710921F071092F8
:102A20008B07109297071092BF061092A30710927F
:102A3000AF0710924806C11104C089E1CF910C94F0
:102A4000340ECF9108950E94240C9091070488239E
:102A500021F094609093070408959B7F909307045E
:102A600080916D0590916E05029709F47EC02091CA
:102A70007105309172058091730590917405281746
:102A8000390708F460C081E090E090936E05809370
:102A90006D0520916D0530916E0591E02130310575
:102AA00009F090E08091060481FD52C0213031058B
:102AB00009F44EC08260809306048091370981300A
:102AC00041F0823059F487E299E00E942713823066
:102AD00029F460E088E592E00E94DE14809175059B
:102AE00090917605029709F440C0809182050E947A
:102AF000C9059C01909384058093830560918505A9
:102B00007091860541E06817790708F440E09091DC
:102B1000060492FD24C06217730708F5892F8460AC
:102B20008093060480913709813041F08230E9F4C6
:102B30008FE299E00E9427138230B9F460E08BE6BF
:102B400092E00C94DE1410926E0510926D05A1CFE8
:102B50008091060490FB81F980930604BFCF809199
:102B6000060440FB82F98093060408950E94231511
:102B700085E40E94690420910704892B21F02860D4
:102B8000209307040895277FFBCF1092A30710928C
:102B9000D706909106049870811112C08CE109F05B
:102BA0008DE10E94340E1092FA081092990888E480
:102BB00092E00E94701460E090E080E00C94DE14DB
:102BC000911112C010920508109204088BE08093B6
:102BD00006080E942E0280E00E944D038CE10E94B4
:102BE000340E8EE10C94340E60E090E080E00E94A0
:102BF000DE148DE1F7CF60E080E892E00C94DE1403
:102C000060E087E992E00C94DE149EEF980F92301A
:102C100008F063C010924307833079F180E498E0B4
:102C20000E94BB0D87E498E00E94BB0D80EC94ED00
:102C3000A1E0B0E08093380790933907A0933A075A
:102C4000B0933B0780933C0790933D07A0933E07CA
:102C5000B0933F0785E096E1909342078093410748
:102C600083E0809340078091430781608D7F8B7F55
:102C70008093430781E10C94340E80E498E00E9435
:102C80004B1187E498E00E944B1182E10E94340EC0
:102C900080E395E7A0E0B0E0809338079093390790
:102CA000A0933A07B0933B0780933C0790933D076E
:102CB000A0933E07B0933F0785E096E190934207CB
:102CC0008093410784E080934007809143078160AF
:102CD0008D7F8B7F80934307089560E088EA92E0C0
:102CE0000C94DE148230A9F5109237078BE298E03D
:102CF0000E944B118FE299E00E94531389E398E000
:102D00000E94BB0D80E395E7A0E0B0E080932C0724
:102D100090932D07A0932E07B0932F078093300731
:102D200090933107A0933207B093330782E796E17F
:102D3000909336078093350781E080933407809124
:102D4000370781608D7F8B7F809337078EE00C94EF
:102D5000340E60E087EB92E00C94DE14E6E0F4E0E1
:102D600080818D7F808360E086EC92E00C94DE149D
:102D7000E6E0F4E080818460808360E082EE92E0AF
:102D80000C94DE141092EF06909106089C3039F4F2
:102D90008FEF92E00E9470141092060808958093BD
:102DA000060888E10C94340E1092FB0690910608F8
:102DB0009D3039F4809306080E942E0286E10C941F
:102DC000340E9C3031F48BE093E00E94701410922A
:102DD000060808958F929F92AF92BF92CF92DF9292
:102DE000EF92FF920F931F93CF93DF93809104088C
:102DF00090910508019721F5E0910608E150EB302C
:102E0000C8F4F0E08827E85FF84E8F4F0C949C2CB4
:102E100013177417821787171A1787179017B81781
:102E2000E117EF17231882E398E00E94BB0D87E0BB
:102E30000E94340E10920508109204080E94550258
:102E40000E94240C9091070480FB92F99093070450
:102E500085E40E94690421E0892B09F420E0809137
:102E6000070420FB83F98093070480912106909149
:102E70002206009741F0C0910608029709F0E8C0C9
:102E80008C2F0E948E028091060490910704A091DD
:102E90000804B0910904409191035091920360910C
:102EA00093037091940384179507A607B70759F009
:102EB00021E0209390038093910390939203A09339
:102EC0009303B093940360E08AEE96E1DF91CF9193
:102ED0001F910F91FF90EF90DF90CF90BF90AF9038
:102EE0009F908F900C94C10380915508882321F006
:102EF00085E598E00E944B118EE498E00E94BB0D9E
:102F000089E096CF10920A091092090993CF109286
:102F10000A09109209090E9462130E9423148ACFA1
:102F20008FE299E00E94531384EF91E0A0E0B0E0BB
:102F30008093EC079093ED07A093EE07B093EF0713
:102F40008093F0079093F107A093F207B093F307F3
:102F500081EC91E19093F6078093F5071092F407C6
:102F60008091F70781608D7F8B7F8093F70762CF19
:102F70008BE298E00E94BB0D80E69AEEA0E0B0E004
:102F80008093440790934507A0934607B093470763
:102F90008093480790934907A0934A07B0934B0743
:102FA00080E096E190934E0780934D0710924C0776
:102FB00080914F0781608D7F8B7F80934F0783E1E6
:102FC00037CF1092FA081092990888E492E00E9494
:102FD000701489E398E00E94BB0D8BE029CF10921A
:102FE000FA081092990888E492E00E94701485E52E
:102FF00098E00E94BB0D8FE00E94340E80E49CE9B3
:10300000A0E0B0E08093380790933907A0933A0787
:10301000B0933B0780933C0790933D07A0933E07F6
:10302000B0933F0785E096E1909342078093410774
:1030300082E0809340078091430781608D7F8B7F82
:1030400080934307F7CE10920A091092090965CFC1
:1030500090914806992339F18091AF0780FD23C0F4
:1030600082FD21C040E355E760E070E04093A40793
:103070005093A5076093A6077093A7074093A807EE
:103080005093A9076093AA077093AB072BEF35E124
:103090003093AE072093AD071092AC0781608D7F0F
:1030A0008B7F8093AF078CEF8C0F833028F0CB3071
:1030B00019F0992309F4AAC080914506909146061B
:1030C000039709F4A3C0D0915D08C63009F4B5C0D8
:1030D0002091D9053091DA054091DB055091DC054E
:1030E0006091F1057091F2058091F3059091F405DE
:1030F0000E94252D87FFA1C0D11133C081E08093AC
:103100005D0861E080915C080E945F058BE098E0BB
:103110000E942E0E8FE299E00E94531384EF91E0FB
:10312000A0E0B0E08093E0079093E107A093E2076E
:10313000B093E3078093E4079093E507A093E60735
:10314000B093E70780E192E19093EA078093E90763
:103150001092E8078091EB0781608D7F8B7F8093D1
:10316000EB07C0909105D0909205E0909305F09008
:1031700094058090950590909605A0909705B09045
:10318000980520E030E040E85FE3C501B4010E940B
:10319000B92CA70196010E94252D18160CF45DC0CC
:1031A00010921307D0911F07D0FD30C0D2FD2EC062
:1031B0000091450610914606F801EE0FFF1FEE0F35
:1031C000FF1FEB5CF94F60817181828193810E94C6
:1031D000A32D60931407709315078093160790939F
:1031E0001707609318077093190780931A07909335
:1031F0001B0782E094E190931E0780931D070093C4
:103200001C07D160DD7FDB7FD0931F07C150CB301F
:1032100008F039CEEC2FF0E08827EE5EF64E8F4FA7
:103220000C949C2C751981198B19F519F519F8193D
:10323000FB19621AB41A4317F819DD2309F491CF68
:103240008CE598E00E94280E81E080930B0861E0F5
:1032500080910C080E945F0584CF10921F0720E028
:1032600030E040E85FE3C501B4010E94B82CA7013B
:1032700096010E94842E87FD35C0D0911307D0FDA2
:10328000C5CFD2FDC3CF0091450610914606F80187
:10329000EE0FFF1FEE0FFF1FEB5CF94F6081718196
:1032A000828193810E94A32D609308077093090780
:1032B00080930A0790930B0760930C0770930D0798
:1032C00080930E0790930F0782EE93E1909312077D
:1032D0008093110700931007D160DD7FDB7FD093CF
:1032E000130794CF1092130791CF80E20E946904D4
:1032F000892B09F0C8CD60E086E193E00E94DE14DE
:10330000C2CD84E40E946904892B09F0BCCD60E041
:1033100084E293E0F3CF0E94240C9091060488236A
:1033200039F091609093060460E082E393E0E6CF89
:103330009E7F9093060480916D0590916E05029793
:1033400009F4A1CD2091710530917205809173052A
:103350009091740528173907D8F181E090E0909397
:103360006E0580936D0580916D0590916E050197B6
:10337000A1F5809106048D7F809306048091CB0691
:1033800080FD81CD82FD7FCD4091290650912A0696
:1033900070E060E04093C0065093C1066093C2069F
:1033A0007093C3064093C4065093C5066093C60647
:1033B0007093C7062EEA36E13093CA062093C906F9
:1033C0001092C80681608D7F8B7F8093CB065BCD8A
:1033D00010926E0510926D05C6CF8091060481FD96
:1033E00052CD8260809306044ECD0E94B6154BCD1F
:1033F0000E94231548CD0E94240C882359F060E0D8
:1034000087EB92E00E94DE14809107048460809331
:10341000070439CD8091750590917605029709F4DE
:1034200032CD2091790530917A0580917B0590917C
:103430007C0528173907C8F181E090E09093760564
:10344000809375058091750590917605019791F5AA
:1034500080910604877F809306048091D70680FDC3
:1034600012CD82FD10CD48EE53E060E070E0409355
:10347000CC065093CD066093CE067093CF06409352
:10348000D0065093D1066093D2067093D30620EAFB
:1034900038E03093D6062093D5061092D40681608A
:1034A0008D7F8B7F8093D706EECC1092760510929D
:1034B0007505C8CF1092D7068091060483FDE3CC32
:1034C000886090CF80E20E946904892B49F460E013
:1034D00088E593E00E94DE1480910604806882CF24
:1034E000809182050E94C90590938405809383058D
:1034F00020918505309186052817390778F5809148
:1035000006048B7F809306048091E30680FDBBCC8C
:1035100082FDB9CC40912D0650912E0670E060E0FE
:103520004093D8065093D9066093DA067093DB0671
:103530004093DC065093DD066093DE067093DF0651
:1035400028EB36E13093E2062093E1061092E00684
:1035500081608D7F8B7F8093E30695CC80910604FC
:1035600082FD91CC84603ECF0E94240C882309F414
:103570008ACC8091370780FD86CC82FD84CC89E39C
:1035800098E00E944B118BE298E00E94BB0D8FE205
:1035900099E00E9496118DE00E94340E80E395E739
:1035A000A0E0B0E080932C0790932D07A0932E0706
:1035B000B0932F078093300790933107A093320781
:1035C000B093330782E796E19093360780933507EF
:1035D00082E0809334078091370781608D7F8B7FF5
:1035E0008093370750CCFF920F931F93CF93DF93B5
:1035F000CDB7DEB7C456D1090FB6F894DEBF0FBE03
:10360000CDBFFC01F1804F2D50E08E010F5F1F4FA9
:10361000BC01C8010E94F62E8091C6008091C600B0
:103620008091C1008F778093C1008091C100886034
:103630008093C100F8018E2F801B8F1588F4819133
:103640008093C6008091C00086FFFCCF8091C000AF
:1036500080648093C0008091C6008091C600EBCF4B
:10366000CC59DF4F0FB6F894DEBF0FBECDBFDF9150
:10367000CF911F910F91FF900C9450094F925F9240
:103680006F927F928F929F92AF92BF92CF92DF9272
:10369000EF92FF920F931F93CF93DF93CDB7DEB7D7
:1036A000CF58D1400FB6F894DEBF0FBECDBF84E631
:1036B000E5E9F3E0DE01AB59BF4F01900D928A9529
:1036C000E1F7A896EFADA897E550E33308F08CC07A
:1036D000F0E08827E159F44E8F4F0C949C2C4F203A
:1036E000F41B841CF41BF41BF41BF41BF41BF41BD1
:1036F000F41BF41BF41BF41B201C421C6F1C791CD4
:103700008D1C0C1CF71C3B1DA21BCF1DF41BF41BB6
:10371000E81D401E881ED71BB71EE41E5A1F0A1F35
:10372000F41FF41BF41BF41B2720F41BF41BF41BE5
:10373000F41BF41BF41B5B206B207720D3200B21A0
:103740007322A21CA9962FADA997213009F4C2C1FA
:10375000AB968FADAB97813009F4CAC1AD968FADF2
:10376000AD97813009F4C7C180E080932B0990E0C8
:10377000E0912709F091280996838583E091290932
:10378000F0912A0996838583243009F4B7C1AB965A
:103790008FADAB97843009F4FFC1AD968FADAD9777
:1037A000E2E0F0E0843009F4ABC180E0B4C1C09045
:1037B0000604D0900704E0900804F090090461E248
:1037C000CE0101960E94E408CF82D886E986FA8667
:1037D0008BE08A83CE0101960E94CD08CE0101962E
:1037E0000E94F31A10929003C157DE4F0FB6F8945F
:1037F000DEBF0FBECDBFDF91CF911F910F91FF9024
:10380000EF90DF90CF90BF90AF909F908F907F9080
:103810006F905F904F9008951092060410920704E5
:10382000109208041092090461E2CE0101960E94F0
:10383000E4081F82188619861A868BE08A83C3C122
:10384000CE0187539F4F0E94920488E0FE01E75308
:10385000FF4FDE01AE57BE4F01900D928A95E1F702
:1038600062E1CE0101960E94E4088FE08A8388E03D
:10387000FE01EE57FE4FDE01179601900D928A95DC
:10388000E1F7A1C1109206041092070410920804F7
:1038900010920904A9969FADA9971092050810925D
:1038A0000408909306089B3011F0973039F4AA96DB
:1038B0008FADAA978695837080933709AA968FADAE
:1038C000AA9780FF0CC09B3051F48BE00E948E02BF
:1038D000882329F00E942E0280E00E944D0310915F
:1038E000060864E1CE0101960E94E4081F8388E087
:1038F000A5CF809106080E948E02882329F00E949D
:103900002E0280E00E944D03CE0101960E944509DF
:10391000CE0101960E94F31A67CF809106088B3082
:1039200019F08450833040F410920604109207047A
:10393000109208041092090460E08DE793E00E9461
:10394000DE14E2CF81E08093480681E090E090931E
:103950002206809321061092FA081092990810927C
:103960000508109204081092DF071092EB071092DE
:10397000F7078BE298E00E944B1182E398E00E94E7
:103980004B1189E398E00E944B1189E098E00E9476
:103990002E0E8BE098E00E942E0E8DE098E00E94A3
:1039A0002E0E8EE598E00E94280E80E698E00E9498
:1039B000280E82E698E00E945609809123068160D5
:1039C0008B7F809323068091F1059091F205A09161
:1039D000F305B091F4058093950590939605A09317
:1039E0009705B09398058AE10E94340E8DCFE5E6E5
:1039F000F0E0EC0FFD1F3396ADE6B5E085E690E014
:103A00008C0F9D1F4B9641915191619171919896A8
:103A10004D935D936D937C939B9758968E179F075C
:103A200091F788E1E5E6F0E0EC0FFD1F3396DE014B
:103A3000A750BF4F01900D928A95E1F768E1CE0142
:103A400001960E94E4088FE18A8388E1FE01E75035
:103A5000FF4FDE01179601900D928A95E1F7CE0196
:103A600001960E94CD08CE0101960E94F31A88E1CA
:103A70000E94AC08B9CEADE6B5E0CE0187539F4FAA
:103A80002DEF35E0182F092F98964D915D916D918E
:103A90007C919B97FC014193519361937193CF016A
:103AA00058962A173B0781F788E1E12FF02FDE01B6
:103AB000AF51BF4F01900D928A95E1F769E1CE01B8
:103AC00001960E94E4088FE18A8388E1FE01EF51AC
:103AD000FF4FD1CEF0E0E0E0EE0FFF1F81E090E07D
:103AE0008C0F9D1FE80FF91FE959FF4F81813DCED3
:103AF000E1E0F0E0F1CFE2E0F0E0EECFF0E0E0E096
:103B0000EE0FFF1F81E090E08C0F9D1FE80FF91F63
:103B1000E959FF4F81818093330990E0E0912F09AB
:103B2000F091300996838583E0913109F091320953
:103B300096838583AE968FADAE97AA969FADAA97D2
:103B400090931A0980931B0986E0E5E6F0E0EC0FFC
:103B5000FD1F3396DE01A657BE4F01900D928A9548
:103B6000E1F76AE1CE0101960E94E4088DE08A83C4
:103B700086E0FE01E657FE4FDE01179601900D929A
:103B80008A95E1F7CE0101960E94CD08CE010196FB
:103B90000E94F31A8AE16CCFE1E0F0E0B1CF10911E
:103BA0001A0900911B096BE1CE0101960E94E408FD
:103BB0008DE08A8381E08F83188782E089871A8766
:103BC00084E08B870C87CE0101960E94CD08A0CEA1
:103BD000AA968EAD9FADAA979093740580937305B6
:103BE000AC968EAD9FADAC9790937C0580937B0592
:103BF000AE968EAD9FADAE97909381058093800574
:103C0000E0968EAD9FADE0979093860580938505F5
:103C1000E2968EAD9FADE29790938B0580938A05D7
:103C2000E4968EAD9FADE4979093900580938F05B9
:103C30008EE0E5E6F0E0EC0FFD1F3396DE01A35BBE
:103C4000BE4F01900D928A95E1F76EE1CE0101968B
:103C50000E94E40885E18A838EE0FE01E35BFE4F6B
:103C6000DE01179601900D928A95E1F7CE0101963B
:103C70000E94CD08CE0101960E94F31A8EE1F8CE83
:103C8000E0917B05F0917C05609180057091810544
:103C9000409185055091860520918A0530918B05CC
:103CA00080918F0590919005A0917305B091740556
:103CB000C15CDE4FB983A883CF53D140CF5BDE4FC9
:103CC000F983E883C154D140CD5BDE4F79836883AB
:103CD000C354D140CB5BDE4F59834883C554D14098
:103CE000C95BDE4F39832883C754D140C75BDE4FA1
:103CF00099838883C954D1406FE1CE0101960E9417
:103D0000E40885E18A838EE0FE01E15CFE4FB3CDDD
:103D1000ADE6B5E0CE018F519F4F2DEF35E0182F66
:103D2000092F94964D915D916D917C919797FC012F
:103D30004193519361937193CF0158962A173B0792
:103D400081F788E1E12FF02FDE01A753BF4F0190EB
:103D50000D928A95E1F760E2CE0101960E94E40897
:103D60008FE18A8388E1FE01E753FF4F84CD05E6AA
:103D700010E00C0F1D1F0D5F1F4FC8010E94F502C0
:103D800080E1F801DE01AF5DBE4F01900D928A9592
:103D9000E1F762E2CE0101960E94E40880E1FE01B3
:103DA000EF5DFE4FDE01179601900D928A95E1F7C7
:103DB00087E18A83CE0101960E94CD08CE0101964B
:103DC0000E94F31A82E254CE80E1E5E2F6E0DE01E1
:103DD000A753BF4F01900D928A95E1F780E1FE0154
:103DE000E753FF4FDE01AF5EBE4F01900D928A9503
:103DF000E1F763E2CE0101960E94E40880E1FE0152
:103E0000EF5EFE4FDE01179601900D928A95E1F765
:103E100087E114CD8090710590907205A09079058E
:103E2000B0907A0580917D050E94C9056C01809152
:103E300082050E94C9057C01809187050E94C90501
:103E40008C0180918C050E94C905CF5CDE4F998260
:103E50008882C153D140CD5CDE4FB982A882C35362
:103E6000D140CB5CDE4FD982C882C553D140C95CFA
:103E7000DE4FF982E882C753D140C75CDE4F198319
:103E80000883C953D140C55CDE4F99838883CB53E7
:103E9000D14065E2CE0101960E94E4088EE0FE0169
:103EA000EF5CFE4FDE01179601900D928A95E1F7C7
:103EB00085E1C4CCA9968FADA997982F9F779230B2
:103EC00009F465C070F59923B1F1913009F44BC044
:103ED00080910F0890911D08892B90911608892BCD
:103EE00090912408892B8093FA08CE0187539F4F25
:103EF0000E94920488E0FE01E753FF4FDE01A658BE
:103F0000BE4F01900D928A95E1F764E2CE010196D1
:103F10000E94E4088FE08A8388E0FE01E658FE4FA5
:103F2000AACC933009F447C0943091F687FF57C06C
:103F300089E398E004C087FF05C08FE098E00E9405
:103F40004B11C6CF8FE098E00E94BB0DBE016F5FA2
:103F50007F4F8FE098E00E944E0C6A818FE098E0DE
:103F60000E94590CB5CF87FF03C086E198E0E7CFE8
:103F700086E198E00E94BB0DBE016F5F7F4F86E136
:103F800098E00E944E0C6A8186E198E0E9CF87FFB5
:103F900003C08DE198E0D3CF8DE198E00E94BB0D86
:103FA000BE016F5F7F4F8DE198E00E944E0C6A81E9
:103FB0008DE198E0D5CF87FF03C084E298E0BFCFC2
:103FC00084E298E00E94BB0DBE016F5F7F4F84E2E8
:103FD00098E00E944E0C6A8184E298E0C1CF89E3A8
:103FE00098E00E94BB0D74CF81E20E9469044C01ED
:103FF00080E20E9469045C01F090590600915A0623
:1040000085E40E9469046C0184E40E9469049C01B7
:1040100091E0892809F090E010E090FB10F991E020
:10402000AB2809F090E090FB11F991E0CD2809F060
:1040300090E090FB12F991E0232B09F090E090FBC7
:1040400013F9F0FA14F900FB15F966E24BCC8BE09A
:10405000E5E6F0E0EC0FFD1F3396DE01A959BE4FF7
:1040600001900D928A95E1F76AE2CE0101960E94D5
:10407000E4088BE0FE01E959FE4FDE01179601903E
:104080000D928A95E1F782E18A83CE0101960E9422
:10409000CD08CE0101960E94F31A8AE2E9CC109273
:1040A000060410920704109208041092090461E0BB
:1040B0008AE893E044CC61E3CE0101960E94E408D3
:1040C0008BE08A8383E090E0A4E0B1E08F8398875F
:1040D000A987BA8778CD62E3CE0101960E94E408F1
:1040E0008BE08A8387E095E3A0E0B0E0EFCFE49631
:1040F0006CAD7DAD8EAD9FADE4970E94D22D6B016E
:104100007C01E0966CAD7DAD8EAD9FADE0970E94D9
:10411000D22D4B015C01AC966CAD7DAD8EAD9FADEB
:10412000AC970E94D22D609335067093360680932B
:104130003706909338068092390690923A06A092FC
:104140003B06B0923C06C0923D06D0923E06E092FD
:104150003F06F09240068CE0E5E6F0E0EC0FFD1F34
:104160003396DE01A55ABE4F01900D928A95E1F774
:1041700063E3CE0101960E94E40883E18A838CE028
:10418000FE01E55AFE4FDE01179601900D928A95C9
:10419000E1F7CE0101960E94CD08CE0101960E9462
:1041A000F31A83E365CC60913D0670913E068091E1
:1041B0003F06909140060E94A32D6B017C01609107
:1041C000390670913A0680913B0690913C060E9418
:1041D000A32D4B015C0160913506709136068091EC
:1041E0003706909138060E94A32D2B013C0164E311
:1041F000CE0101960E94E40883E18A834F825886AB
:1042000069867A868B869C86AD86BE86CF86D88A5E
:10421000E98AFA8AD8CCA9961FADA997AA966FAD5C
:10422000AA97AB965FADAB97AC964FADAC97AD96FA
:104230003FADAD97AE962FADAE97AF969FADAF9712
:10424000E0968FADE09719836A835B834C833D834F
:104250002E839F8388878FE098E013FF38C10E94E8
:10426000BB0DBE0167537F4F8DE198E00E944E0C5D
:10427000C653DF4F6881CA5CD0408DE198E00E9450
:10428000590C86E198E014FF25C10E94BB0DBE01C8
:1042900067537F4F86E198E00E944E0CC653DF4F74
:1042A0006881CA5CD04086E198E00E94590C8DE19B
:1042B00098E015FF12C10E94BB0DBE0167537F4FEE
:1042C0008DE198E00E944E0CC653DF4F6881CA5CB6
:1042D000D0408DE198E00E94590C84E298E016FFEE
:1042E000FFC00E94BB0DBE0167537F4F84E298E080
:1042F0000E944E0CC653DF4F6881CA5CD04084E2F6
:1043000098E00E94590C6981617085E30E945F0505
:104310006A816695617087E10E945F056A81629596
:10432000617086E10E945F05698162FB662760F922
:104330008FE10E945F056A8165FB662760F981E174
:104340000E945F056981669561708BE10E945F053F
:104350006A81617088E10E945F05698167FB662759
:1043600060F989E10E945F056A8162FB662760F956
:1043700080E10E945F056A8163FB662760F98FE038
:104380000E945F056A8166FB662760F98EE00E94E5
:104390005F056A8167FB662760F98DE00E945F0513
:1043A0006B8161708CE00E945F056B8165FB662705
:1043B00060F985E20E945F056B8166FB662760F904
:1043C00084E20E945F056B8167FB662760F987E2E4
:1043D0000E945F056C81617086E20E945F056C81BE
:1043E0006695617089E20E945F056C8162FB6627B9
:1043F00060F988E20E945F056C8163FB662760F9C3
:104400008BE20E945F056C81629561708AE20E9476
:104410005F056B81669561708CE20E945F056B8120
:1044200062FB662760F98EE20E945F056B8163FB89
:10443000662760F98DE20E945F056B81629561706D
:104440008FE20E945F05C753DF4F1882C95CD040DE
:10445000C653DF4F1882CA5CD040C553DF4F188265
:10446000CB5CD040C453DF4F1882CC5CD040C353E8
:10447000DF4F1882CD5CD040C253DF4F1882CE5C34
:10448000D040C153DF4F1882CF5CD040C053DF4FC4
:104490001882C05DD040CE0187539F4F0E94920486
:1044A00088E0FE01E753FF4FDE01AE58BE4F01909A
:1044B0000D928A95E1F765E3CE0101960E94E4082A
:1044C0008FE08A8388E0FE01EE58FE4FD4C90E9437
:1044D0004B11D7CE0E944B11EACE0E944B11FDCE5C
:1044E0000E944B1110CFCE0101960E944509CE01CA
:1044F00001960E94F31A10928F066EE375E081E92F
:1045000095E00E94521069E175E089EA95E00E9409
:10451000521064EF74E081EC95E00E9452106FEC51
:1045200074E089ED95E00E9452106AEA74E081EF30
:1045300095E00E94521065E874E089E096E00E94E0
:1045400052108091330690913406B0E0A0E0809341
:10455000840690938506A0938606B0938706809381
:10456000880690938906A0938A06B0938B068EE105
:1045700090E190938E0680938D0610928C06809128
:104580008F0683608B7F80938F062EC90C943E1B11
:10459000E5E9F3E084E6DF011D928A95E9F71092E0
:1045A00003040C9450091F920F920FB60F9211241E
:1045B0002F933F938F939F93AF93BF938091FB0370
:1045C0009091FC03A091FD03B091FE033091FA039A
:1045D00023E0230F2D3758F50196A11DB11D20931F
:1045E000FA038093FB039093FC03A093FD03B09325
:1045F000FE038091FF0390910004A0910104B0910B
:1046000002040196A11DB11D8093FF039093000445
:10461000A0930104B0930204BF91AF919F918F9139
:104620003F912F910F900FBE0F901F90189526E885
:10463000230F0296A11DB11DD2CF1F920F920FB66C
:104640000F9211240BB60F922F933F934F935F93CA
:104650006F937F938F939F93AF93BF93EF93FF934A
:10466000E0911E02F0911F021995FF91EF91BF9109
:10467000AF919F918F917F916F915F914F913F91FA
:104680002F910F900BBE0F900FBE0F901F9018959B
:104690001F920F920FB60F9211240BB60F922F9309
:1046A0003F934F935F936F937F938F939F93AF93BA
:1046B000BF93EF93FF93E0911C02F0911D021995B7
:1046C000FF91EF91BF91AF919F918F917F916F91EA
:1046D0005F914F913F912F910F900BBE0F900FBEA6
:1046E0000F901F9018951F920F920FB60F921124E2
:1046F0000BB60F922F933F934F935F936F937F93DC
:104700008F939F93AF93BF93EF93FF93E091120228
:10471000F09113021995FF91EF91BF91AF919F9185
:104720008F917F916F915F914F913F912F910F905A
:104730000BBE0F900FBE0F901F9018951F920F92F7
:104740000FB60F9211240BB60F922F933F934F93F6
:104750005F936F937F938F939F93AF93BF93EF93E9
:10476000FF93E0911002F09111021995FF91EF91E2
:10477000BF91AF919F918F917F916F915F914F9179
:104780003F912F910F900BBE0F900FBE0F901F9077
:1047900018951F920F920FB60F9211240BB60F921D
:1047A0002F933F934F935F936F937F938F939F9339
:1047B000AF93BF93EF93FF93E0911A02F0911B0226
:1047C0001995FF91EF91BF91AF919F918F917F913B
:1047D0006F915F914F913F912F910F900BBE0F9072
:1047E0000FBE0F901F9018951F920F920FB60F9249
:1047F00011240BB60F922F933F934F935F936F93B8
:104800007F938F939F93AF93BF93EF93FF93E09129
:104810001802F09119021995FF91EF91BF91AF9194
:104820009F918F917F916F915F914F913F912F91C8
:104830000F900BBE0F900FBE0F901F9018951F92F8
:104840000F920FB60F9211240BB60F922F933F9336
:104850004F935F936F937F938F939F93AF93BF9388
:10486000EF93FF93E0911602F09117021995FF91D3
:10487000EF91BF91AF919F918F917F916F915F91D8
:104880004F913F912F910F900BBE0F900FBE0F9045
:104890001F9018951F920F920FB60F9211240BB60E
:1048A0000F922F933F934F935F936F937F938F93C9
:1048B0009F93AF93BF93EF93FF93E0911402F09116
:1048C00015021995FF91EF91BF91AF919F918F9133
:1048D0007F916F915F914F913F912F910F900BBE00
:1048E0000F900FBE0F901F9018951F920F920FB64A
:1048F0000F9211240BB60F922F933F934F935F9318
:104900006F937F938F939F93AF93BF93CF93EF93C7
:10491000FF938091C10080688093C1008091C100A5
:1049200088608093C100C091C60080919B068E7FF5
:1049300080939B0680910304843658F0E5E9F3E008
:1049400084E6DF011D928A95E9F7109203040E9424
:104950005009E0910304E33020F0809196038093A6
:10496000050481E08E0F80930304F0E0EB56FC4FCA
:10497000C0839091050489136BC090919503913089
:1049800009F05AC040EA5FE060E070E040939C06A6
:1049900050939D0660939E0670939F064093A006D9
:1049A0005093A1066093A2067093A30628EC32E20E
:1049B0003093A6062093A5061092A4069091A70610
:1049C00093609B7F9093A70650E040E090E0BC018D
:1049D00061507109252F30E0261737073CF42B561C
:1049E0003C4FF9012081420F5F5FF4CF8C569C4F02
:1049F000DC018C9160E048131CC086EC92E20E94BE
:104A0000C103109203040E945009FF91EF91CF91CE
:104A1000BF91AF919F918F917F916F915F914F91D6
:104A20003F912F910F900BBE0F900FBE0F901F90D4
:104A3000189587E299E0E3CFE5E9F3E084E6DF014A
:104A40001D928A95E9F7109203040E945009D9CF6C
:104A50008AE090E0A0E0B0E0809390069093910609
:104A6000A0939206B0939306809394069093950634
:104A7000A0939606B093970688EC92E290939A06DC
:104A8000809399061092980680919B0681608D7F95
:104A90008B7F80939B06B7CF1F920F920FB60F921A
:104AA00011240BB60F92FF920F931F932F933F93F6
:104AB0004F935F936F937F938F939F93AF93BF9326
:104AC000CF93DF93EF93FF93C4E8D6E010E000E0CC
:104AD0008CE0F82EF09EF001F19EF00D1124E157CC
:104AE000F94F808180FF23C08C819D81AE81BF8181
:104AF0000197A109B1098C839D83AE83BF83892B64
:104B00008A2B8B2BA1F480818460808381FF2DC050
:104B100088819981AA81BB818C839D83AE83BF8369
:104B200089859A85009719F068850E94C1030F5FF7
:104B30001F4F2C960032110569F6FF91EF91DF911E
:104B4000CF91BF91AF919F918F917F916F915F9125
:104B50004F913F912F911F910F91FF900F900BBE9E
:104B60000F900FBE0F901F9018958E7F8083D8CF27
:104B70001F920F920FB60F9211240BB60F922F9324
:104B80003F934F935F936F937F938F939F93AF93D5
:104B9000BF93EF93FF93F0E0E0E01995FF91EF9161
:104BA000BF91AF919F918F917F916F915F914F9145
:104BB0003F912F910F900BBE0F900FBE0F901F9043
:104BC00018951F920F920FB60F9211240BB60F92E9
:104BD0002F933F934F935F936F937F938F939F9305
:104BE000AF93BF93EF93FF93F0E0E0E01995FF914F
:104BF000EF91BF91AF919F918F917F916F915F9155
:104C00004F913F912F910F900BBE0F900FBE0F90C1
:104C10001F901895FC0117821086108289E083830B
:104C200081E08483858386831182168A158A8FEFBB
:104C3000838B148A7287618708951F93CF93DF93C4
:104C4000EC01162F60E0812F0E948D05612F70E02E
:104C5000FB01E859FC4FE491E883FB01EE5DFC4F5A
:104C6000E491F0E0EE0FFF1FE85FFC4F8591949117
:104C70009A8389831B861D861C861A861986188648
:104C80001F821E821D821C821B82DF91CF911F9189
:104C90000895CF93DF93EC01862F49836A832B839A
:104CA0001C8220E830E03E832D83411103C061E087
:104CB0000E948D05CE01DF91CF910C944B114F9244
:104CC0005F926F927F928F929F92AF92BF92CF929C
:104CD000DF92EF92FF920F931F93CF93DF93CDB7A5
:104CE000DEB72F970FB6F894DEBF0FBECDBFE4E856
:104CF000F6E084E098E0108211821282138214821E
:104D000015821682178210861286118613863C96AB
:104D10008E179F0781F710928204109283041092DD
:104D20008404F89480917A00806880937A00789463
:104D3000F89480917A008E7F80937A0080917A0037
:104D4000866080937A007894F89480917C008F77C5
:104D500080937C0080917C00806480937C007894B8
:104D60006FE385E595E00E941D2665E575E08EE31D
:104D700095E00E940A266EE380E395E00E941D26DE
:104D800060E375E089E195E00E940A2661E48BE02A
:104D900095E00E941D266BE075E084EF94E00E9490
:104DA0000A2660E486EE94E00E941D2666EE74E01A
:104DB0008FEC94E00E940A2663E481EC94E00E9468
:104DC0001D2661EC74E08AEA94E00E940A2662E4FF
:104DD0008CE994E00E941D266CE974E085E894E07B
:104DE0000E940A2682E090E090936E0580936D0504
:104DF00023E635E03093700520936F059093760598
:104E00008093750588E695E0909378058093770503
:104E100088E380937D0510927F0510927E0584E1E2
:104E200090E090938105809380052BE32093820589
:104E300010928405109283059093860580938505D2
:104E40002AE3209387051092890510928805909394
:104E50008B0580938A052DE320938C0510928E0597
:104E600010928D059093900580938F05E1E9F5E010
:104E700081E296E023E030E01082118212821382F8
:104E80001482158216821782138A358B248B178A17
:104E9000168A78968E179F0779F705E000934706E4
:104EA000109248061092490610924A0610924C063B
:104EB00010924B0610925106109252061092540610
:104EC000109253061092590610925A0610925B06E1
:104ED0008AE090E090934E0680934D0690935006A2
:104EE00080934F068FE090E090935606809355068E
:104EF000909358068093570680E1809323068CE5B3
:104F000096E090937D0680937C0680E280937E06F7
:104F100010927F06109280061092810610928306EE
:104F2000109282061092050810920408109206084A
:104F3000109208081092070885E380930A0861E040
:104F40000E948D0589E098E00E942E0E8FE18093EB
:104F50000C0861E00E948D058BE098E00E942E0E07
:104F60008BE180930E0861E00E948D058DE098E052
:104F70000E942E0E11E0109310088AE08093110811
:104F8000109312081092130880E8C82ED12CD092EA
:104F90001508C09214088FE098E00E944B111093FE
:104FA00017088BE08093180882E08093190810920C
:104FB0001A08D0921C08C0921B0886E198E00E9453
:104FC0004B1110931E0898E0E92EE0921F0824E090
:104FD000F22EF092200810922108D0922308C0925D
:104FE00022088DE198E00E944B111093250889E07A
:104FF000809326080093270810922808D0922A0848
:10500000C092290884E298E00E944B1123E040E01E
:1050100069E18BE298E00E94492626E040E068E1E1
:1050200082E398E00E94492627E040E067E189E3B7
:1050300098E00E94492628E040E060E180E498E0A2
:105040000E94492629E040E06FE087E498E00E9452
:1050500049262AE040E066E18EE498E00E94492675
:105060002BE040E061E185E598E00E9449268EE072
:1050700080935C0810925D0861E00E948D058CE5CC
:1050800098E00E94280E8DE080935E0810925F08E1
:1050900061E00E948D058EE598E00E94280E8CE06C
:1050A000809360081092610861E00E948D0580E69F
:1050B00098E00E94280E2AE332E0309363082093A0
:1050C000620884E492E09093650880936408F0920B
:1050D000660880EF96E0909368088093670884EDF7
:1050E00096E190936A088093690810926B08109279
:1050F0006D0810926C0810926F0810926E08109252
:1051000071081092700810927E0810927F08109219
:1051100080081092810810928A0810928B081092D1
:105120008D0810928C08109291081092900810929D
:1051300092081092930810929408109295084DECE2
:105140005CEC6CEC7DE34093860850938708609399
:10515000880870938908E4E64E2E512C612C712C3E
:105160004092820850928308609284087092850869
:10517000812C912CF0EAAF2EF0E4BF2E80927208C1
:1051800090927308A0927408B092750880E090E045
:10519000A0E4B0E48093760890937708A093780811
:1051A000B093790880937A0890937B08A0937C0849
:1051B000B0937D0810929908F092A1081092A2086D
:1051C0001092AB081092A3081092A4081092A508A0
:1051D0001092A6081092A7081092A8081092A90889
:1051E0001092AA081092AC081092AD08E4E0F0E02A
:1051F000F0938F08E0938E083093AF082093AE08A9
:105200002CE332E03093B1082093B008E092B2086A
:1052100024EE36E03093B4082093B30822EC36E154
:105220003093B6082093B5081092B7081092B908C9
:105230001092B8081092BB081092BA081092BD08DC
:105240001092BC081092CA081092CB081092CC0899
:105250001092CD081092D6081092D9081092D80852
:105260001092DD081092DC081092DE081092DF0820
:105270001092E0081092E1084093D2085093D308AE
:105280006093D4087093D5084092CE085092CF080E
:105290006092D0087092D1088092BE089092BF08A8
:1052A000A092C008B092C1088093C2089093C3082E
:1052B000A093C408B093C5088093C6089093C7080C
:1052C000A093C808B093C9081092E508F092ED08C1
:1052D0001092EE081092F7081092EF081092F00862
:1052E0001092F1081092F2081092F3081092F4084C
:1052F0001092F5081092F6081092F8081092F9082A
:105300001093D70888E090E09093DB088093DA0848
:105310001092FA08198686E489838A8398EC9B8325
:105320009CED9C838D838E830F839EE198870A87F3
:105330009B872EEE32E03D872C8722E330E03F87CB
:105340002E879FE0FE013196ABE0B9E001900D920F
:105350009A95E1F710921C0910921E0910921D09EE
:105360001092200910921F0910922109109222090F
:1053700010922309109225091092240910922609EF
:1053800080931A0980931B098FE098E09093280975
:105390008093270986E198E090932A098093290950
:1053A00010E810932B0910922C0910922D091092DD
:1053B0002E098FE098E00E944B118091290990916D
:1053C0002A090E944B118DE198E090933009809357
:1053D0002F0984E298E09093320980933109109369
:1053E00033091092340910923509109236098DE173
:1053F00098E00E944B1180913109909132090E94EE
:105400004B11109237092F960FB6F894DEBF0FBEDE
:10541000CDBFDF91CF911F910F91FF90EF90DF9063
:10542000CF90BF90AF909F908F907F906F905F9044
:105430004F900895789484B5826084BD84B581606E
:1054400084BD85B5826085BD85B5816085BD80914F
:105450006E00816080936E001092810080918100C7
:1054600082608093810080918100816080938100BF
:10547000809180008160809380008091B100846081
:105480008093B1008091B00081608093B0008091E2
:10549000910082608093910080919100816080935F
:1054A0009100809190008160809390008091A10094
:1054B00082608093A1008091A10081608093A1000F
:1054C0008091A00081608093A00080912101826082
:1054D000809321018091210181608093210180913D
:1054E000200181608093200180917A008460809304
:1054F0007A0080917A00826080937A0080917A00AD
:10550000816080937A0080917A00806880937A002D
:105510001092C1002FEF83ED90E321508040904026
:10552000E1F700C0000061E084E30E948D0560E0C7
:1055300084E30E945F051092C1001092C00086E0D3
:105540008093C2001092C50087E68093C40088E96A
:105550008093C1000E945009809120018C7F80932C
:10556000200189E1809321018FE79EE39093270139
:10557000809326018091210187708093F9038091A7
:10558000730082608093730082E698E00E94F90BBA
:105590008EEA98E00E94F90B80ED97E0A0E0B0E081
:1055A0008093BC079093BD07A093BE07B093BF073D
:1055B0008093C0079093C107A093C207B093C3071D
:1055C00081EF9BE09093C6078093C5071092C407B4
:1055D0008091C70783608B7F8093C7071092240652
:1055E0008091330690913406892B31F488EE93E054
:1055F000909334068093330680913306909134065D
:10560000B0E0A0E08093840690938506A093860680
:10561000B09387068093880690938906A0938A06A4
:10562000B0938B068EE190E190938E0680938D0669
:1056300010928C0680918F0683608B7F80938F06FB
:1056400062E082E10E948D0562E083E10E948D05A7
:1056500062E081E20E948D0562E080E20E948D0599
:1056600062E085E40E948D0562E084E40E948D057D
:1056700062E083E20E948D0562E082E20E948D0575
:105680006EE375E081E995E00E94521069E175E0F2
:1056900089EA95E00E94521064EF74E081EC95E095
:1056A0000E9452106FEC74E089ED95E00E94521058
:1056B0006AEA74E081EF95E00E94521065E874E0B8
:1056C00089E096E00E9452104EE356E062E180913C
:1056D0006F05909170050E94CD0D46E456E063E1A0
:1056E00080917705909178050E94CD0D84E190E03E
:1056F000909374058093730590937C0580937B054C
:1057000048EE53E060E070E04093A8065093A9068D
:105710006093AA067093AB064093AC065093AD0617
:105720006093AE067093AF0628E538E03093B2067A
:105730002093B1061092B0062091B30623602B7F10
:105740002093B306909381058093800590938605FE
:105750008093850590938B0580938A05809131060F
:1057600090913206892B31F484E690E090933206D2
:10577000809331068091310690913206B0E0A0E02E
:105780008093FC069093FD06A093FE06B093FF065F
:105790008093000790930107A0930207B09303073B
:1057A00089E19BE090930607809305071092040718
:1057B0008091070783608B7F8093070784E190E0E7
:1057C000A0E0B0E08093B0079093B107A093B20738
:1057D000B093B3078093B4079093B507A093B6072F
:1057E000B093B7078DE39DE09093BA078093B90714
:1057F0001092B8078091BB0783608B7F8093BB07B3
:105800008091230684608093230680E292E00E94C8
:10581000F50260E08AEE96E10E94C10361E087E054
:105820000E948D0560E087E00E945F0580E197E2BD
:10583000A0E0B0E08093F8079093F907A093FA07EF
:10584000B093FB078093FC079093FD07A093FE079E
:10585000B093FF0788EA98E09093020880930108CC
:10586000109200088091030883608B7F8093030867
:1058700083E0E82EC0E0D0E0909182048091830420
:10588000981324C080918404882329F19FB7F89449
:10589000E091820480918304E81719F181E08E0F72
:1058A00080938204EE9DF0011124E65FFB4F00819E
:1058B0001181F280883211F4109282049FBF011589
:1058C000110549F08F2DF801199505C09817F0F2D0
:1058D000885D8913DBCFA895209771F20E940000A4
:1058E000CBCF80918404882349F381E08E0F80938D
:1058F0008204EE9DF0011124E65FFB4F00811181CF
:10590000F280883211F41092820410928404D6CF6F
:1059100097FB072E16F4009407D077FD09D00E945C
:10592000A42C07FC05D03EF4909581959F4F0895D7
:10593000709561957F4F0895EE0FFF1F881F8BBFF5
:105940000790F691E02D1994AA1BBB1B51E107C0EB
:10595000AA1FBB1FA617B70710F0A61BB70B881FFF
:10596000991F5A95A9F780959095BC01CD0108958E
:105970005058BB27AA270E94D02C0C944A2E0E9474
:105980003C2E38F00E94432E20F039F49F3F19F44A
:1059900026F40C94392E0EF4E095E7FB0C94332E8C
:1059A000E92F0E945B2E58F3BA176207730784072A
:1059B000950720F079F4A6F50C947D2E0EF4E09571
:1059C0000B2EBA2FA02D0B01B90190010C01CA01B9
:1059D000A0011124FF27591B99F0593F50F4503E64
:1059E00068F11A16F040A22F232F342F4427585F56
:1059F000F3CF469537952795A795F0405395C9F76E
:105A00007EF41F16BA0B620B730B840BBAF0915025
:105A1000A1F0FF0FBB1F661F771F881FC2F70EC0C4
:105A2000BA0F621F731F841F48F487957795679597
:105A3000B795F7959E3F08F0B0CF9395880F08F083
:105A40009927EE0F9795879508950E940F2E08F4D9
:105A500081E008950E943E2D0C944A2E0E94432E10
:105A600058F00E943C2E40F029F45F3F29F00C943E
:105A7000332E51110C947E2E0C94392E0E945B2EE5
:105A800068F39923B1F3552391F3951B550BBB276D
:105A9000AA2762177307840738F09F5F5F4F220FB2
:105AA000331F441FAA1FA9F335D00E2E3AF0E0E8A9
:105AB00032D091505040E695001CCAF72BD0FE2FF3
:105AC00029D0660F771F881FBB1F26173707480787
:105AD000AB07B0E809F0BB0B802DBF01FF2793583F
