:100000000C942F020C94EA270C94BF270C9494278D
:100010000C9469270C943E270C9413270C94E82623
:100020000C94BD260C9460020C9460020C94600247
:100030000C9460020C9460020C9460020C946002B8
:100040000C9460020C9460020C9460020C946002A8
:100050000C9460020C9460020C9460020C94732661
:100060000C9460020C9475280C9460020C9460024D
:100070000C94B8290C94E1290C9460020C94600251
:100080000C9460020C9460020C9460020C94600268
:100090000C9460020C9460020C9460020C94600258
:1000A0000C9460020C9460020C9460020C94600248
:1000B0000C9460020C9460020C9460020C944C2925
:1000C0000C9460020C9460020C9460020C943F2823
:1000D0000C9415280C9460020C9460020C9460023D
:1000E0000C9460020C9494220C9499240C94671E36
:1000F0000C943D200C94F1030C946F0E0C94EE03C1
:100100000C94191A0C94EA030C9436180C94BE093A
:100110000C9431180C943B0C0C94A2060C94CD2238
:100120000C94B7220C94F9230C94E6030C94881CCD
:100130000C94B3190C94140E0C9447230C94790E60
:100140000C9489160C94A1220C946A0A0C94A309AD
:100150000C948E1F0C94BF1E0C94B6060C940104D4
:100160000C940A0E0C941A1C0C94DC030C94AF2112
:100170000C94331F0C94E3220C94D6210C949D1AFA
:100180000C9466220C94FB030C94510E0C940524E1
:100190000C94411E0C941D120C9407220C9497167B
:1001A0000C945D060C941D040C94BD160C940F0465
:1001B0000C94C81E0C9466260C94742A0C9412227B
:1001C0000C9465060C94D8220C944A180C94761F53
:1001D0000C94241A0C942C180C94CE1E0C94930698
:1001E0000C9421040C9433220C94380E0C945A2253
:1001F0000C94E9230C9409040C94511D0C94DD23F8
:100200000C9404190C940C210C94551E0C94FD258F
:100210000C94891E0C9408200C9403160C948E1CCC
:100220000C94871A0C94DD200C94F10D0C94FC06B0
:100230000C944D220C9466060C9491180C9417049F
:100240000C947F220C94B41E0C94561A0C94DF214B
:100250000C94001A0C940E1A0C94420E0C9449073C
:100260000C9405230C941C0E0C9468260C94E51732
:100270000C94830E0C941C040C94101C0C94050418
:100280000C94AC220C94D71A0C94650E0C9444195F
:100290000C94E2030C94041C0C94000E0C94392171
:1002A0000C94F60D0C947A180C943E220C940A0DC2
:1002B0000C94BD1F0C94381A0C9440180C948B1C91
:1002C0000C94C4060C94E80D0C94EF190C9481194D
:1002D0000C945F210C9495200C94490D0C942E0ED7
:1002E0000C9461240C94F91C0C94351A0C94240E73
:1002F0000C9455060C941D220C94C2220C941304E9
:100300000C9428220C94F6220C94F7030C94AA1E49
:100310000C94EB090C9414230C945B0E005EBCE26D
:10032000613FDD83C29C7E20A3FD1F41009D23BE53
:1003300046DB65F88C11AF32CA57E9740000210022
:10034000240027002A002D003000330001010000A6
:10035000040107010A0100002200250028002B00EB
:100360002E003100340002010000050108010B01DC
:10037000000020002300260029002C002F0032005E
:100380000001000003010601090105050505070537
:1003900008080808020202020A0A08080404040401
:1003A000010101010101010103030303030303032D
:1003B000040707070C0C0C0C0C0C0C0C02020202BC
:1003C00006060606060606060B0B0B0B0B0B0B0BA5
:1003D0000102102020080810204010204080020157
:1003E000020108040201010204081020408080403C
:1003F000201008040201800402018040201008043B
:1004000002010804020101020408102040800102D8
:1004100004081020408000000A0B02090C0D0E0891
:1004200007030401000000000000000000000000BD
:1004300000000000000000000000000000000000BC
:100440000000121110000000000000000000000079
:10045000000000000000000000000000742A1124C9
:100460001FBECFEFD1E2DEBFCDBF00E00CBF17E073
:10047000A0E0B2E0E8ECF5E600E00BBF02C00790B8
:100480000D92A83DB107D9F72EE0A8EDB7E001C065
:100490001D92AA37B207E1F712E0CFE2D2E000E006
:1004A00006C021970109802FFE010E947A30CE32CA
:1004B000D10780E00807A9F70E94082E0C94E232C9
:1004C0000C9400008091EC0C882311F181E090E005
:1004D0009093EB0C8093EA0C10926F0E1092710EB9
:1004E0001092700E1092750E1092730E1092720E82
:1004F0001092740E8091620E80936D0E8091630E47
:1005000080936E0E1092780E1092770E1092790EE4
:100510000895EDE4F8E0A089B18982E08C93A48588
:10052000B5851C92A685B78580E18C93108EA48931
:10053000B58986E08C93A289B3898C9180618C9374
:10054000A289B3898C9188608C93A289B3898C919C
:1005500080688C930288F389E02D80818F7D808371
:1005600008959CEF980F933018F08B3009F05EC01F
:1005700080911B0B811104C080911C0B882341F0DA
:100580001092AD0C8091A10C80FF2CC080E00895EA
:100590001092A10C9091AD0C90FDF8CF92FDF6CF8A
:1005A00048EE53E060E070E04093A20C5093A30C3F
:1005B0006093A40C7093A50C4093A60C5093A70CC9
:1005C0006093A80C7093A90C2AE738E13093AC0C27
:1005D0002093AB0C1092AA0C91609D7F9B7F90930F
:1005E000AD0C089582FDD2CF48EE53E060E070E09C
:1005F0004093960C5093970C6093980C7093990CC1
:1006000040939A0C50939B0C60939C0C70939D0CA0
:1006100029E836E13093A00C20939F0C10929E0C99
:1006200081608D7F8B7F8093A10CB0CF81E0089596
:10063000CF93DF93FC01C7EEDAE090E1DE01019099
:100640000D929A95E1F78091F30A9091F40AB0E047
:10065000A0E0E6E4FBE08093060C9093070CA093E7
:10066000080CB093090C80930A0C90930B0CA09388
:100670000C0CB0930D0C8BE39CE09093100C8093CA
:100680000F0C10920E0CA1E1BCE08C9183608B7F6B
:100690008C938091F50A9091F60AB0E0A0E08083F7
:1006A0009183A283B38384839583A683B7838DE1EB
:1006B00092E1928781871086E1E5FBE0808183608B
:1006C0008B7F8083EAEEFCE0D0934F0EC0934E0EFA
:1006D00088819981968F858F92AB81AB8091F10A49
:1006E0009091F20A9093360E8093350E9093EA0D16
:1006F0008093E90DDF91CF9108959C014FB7F89455
:1007000080916409E091630981111CC081E08E0F22
:100710008093630993E0E99FF0011124E651F74FBC
:10072000318320836283883211F41092630990919F
:10073000630980916209981303C081E08093640982
:100740004FBF0895909162099F5F9832A1F09093F6
:10075000620991E09E0F9093630983E0E89FF001A6
:100760001124E651F74F318320836283983241F799
:1007700010926309E5CF10926209EBCF815082316C
:1007800008F05AC0E82FF0E08827E653FC4F8F4F5F
:100790000C947A30EA03EE03DC03E203E6031C0464
:1007A000F103F703FB030104050409040F04130418
:1007B0001C0417041D042104809180008F7780930E
:1007C00080000895809180008F7DF9CF8091800016
:1007D000877FF5CF84B58F7784BD089584B58F7DED
:1007E000FBCF8091B0008F778093B0000895809107
:1007F000B0008F7DF9CF809190008F77809390002B
:100800000895809190008F7DF9CF80919000877F2F
:10081000F5CF8091A0008F778093A00008958091FC
:10082000A0008F7DF9CF8091A000877FF5CF8091C8
:1008300020018F77809320010895809120018F7D82
:10084000F9CF80912001877FF5CFCF93DF93282FB9
:1008500030E0F901EA5EFB4F8491F901E053FC4F6F
:10086000D491F901E657FC4FC491CC23A1F081113A
:100870000E94BE03EC2FF0E0EE0FFF1FE059FC4F8B
:10088000A591B491EC91ED2381E090E009F480E032
:10089000DF91CF91089580E090E0FACF0F931F93FE
:1008A000CF93DF93EC01188219821A821B821C827B
:1008B0001D821E821F828FE00E9425049C8180FB86
:1008C00093F99C838CE00E9425049C8180FB94F921
:1008D0009C838EE00E9425049C8180FB95F99C837B
:1008E0000AEE1CE08B81F801938990FB80F98B83E1
:1008F00086E00E9425049B8180FB91F99B8389E11E
:100900000E9425049B8180FB94F9F80187A180FB5C
:1009100092F99B8388E00E9425049B8180FB93F9D8
:100920009B8388E10E9425049B8180FB95F99B8332
:1009300087E10E9425049B8180FB96F99B838EE1D1
:100940000E9425049B8180FB97F99B838DE10E9487
:1009500025049C8180FB90F99C8386E10E942504FC
:100960009C8180FB91F99C8381E10E9425049C81FC
:1009700080FB92F99C838CE20E942504998180FB84
:1009800090F999838EE20E942504998180FB91F968
:1009900099838DE20E942504998180FB92F99983C5
:1009A0008FE20E942504998180FB93F9998381E36A
:1009B0000E942504998180FB94F9998380E30E9429
:1009C0002504998180FB95F9998383E30E9425048E
:1009D000998180FB96F9998382E30E94250499818D
:1009E00080FB97F9998385E20E9425049A8180FB18
:1009F00090F99A8384E20E9425049A8180FB91F900
:100A00009A8387E20E9425049A8180FB92F99A8357
:100A100086E20E9425049A8180FB93F99A8389E2F9
:100A20000E9425049A8180FB94F99A8388E20E94AF
:100A300025049A8180FB95F99A838BE20E94250414
:100A40009A8180FB96F99A838AE20E9425049A8112
:100A500080FB97F99A8384E30E942504988180FBA8
:100A600091F9988385E30E942504988180FB90F991
:100A700098838CE10E942504988180FB95F99883E6
:100A80008FE10E942504988180FB94F998838AE184
:100A90000E942504988180FB97F998838BE10E943E
:100AA0002504988180FB96F9988387E00E942504AD
:100AB0009C8180FB96F99C8389E00E9425049C819F
:100AC00080FB97F99C838AE00E9425049D8180FB2E
:100AD00090F99D838BE00E9425049D8180FB91F914
:100AE0009D83DF91CF911F910F9108951F93CF9315
:100AF000DF93282F30E0F901EA5EFB4F8491F90182
:100B0000E053FC4FD491F901E657FC4FC491CC233C
:100B1000A9F0162F81110E94BE03EC2FF0E0EE0F1A
:100B2000FF1FEA5AFC4FA591B4918FB7F894EC914E
:100B3000111108C0D095DE23DC938FBFDF91CF91D8
:100B40001F910895DE2BF8CFCF93DF9390E0FC0147
:100B5000E053FC4F249186579C4FFC0184918823DD
:100B6000C9F090E0880F991FFC01E45CFC4FA5914F
:100B7000B491FC01EA5AFC4FC591D49161110DC0AA
:100B80009FB7F8948C91209582238C938881282399
:100B900028839FBFDF91CF910895623051F49FB7B2
:100BA000F8943C91822F809583238C93E8812E2B9F
:100BB000EFCF8FB7F894EC912E2B2C938FBFEACF09
:100BC000863308F0865320917B00982F9870277FFA
:100BD000922B90937B008770806480937C0080913F
:100BE0007A00806480937A0080917A0086FDFCCF41
:100BF000809178009091790008953FB7F8948091A2
:100C0000420890914308A0914408B091450826B548
:100C1000A89B05C02F3F19F00196A11DB11D3FBF34
:100C2000BA2FA92F982F8827BC01CD01620F711D03
:100C3000811D911D42E0660F771F881F991F4A95FD
:100C4000D1F708958F929F92AF92BF92CF92DF9289
:100C5000EF92FF926B017C010E94FD054B015C014C
:100C6000C114D104E104F104B9F00E94FD05681932
:100C700079098A099B09683E73408105910580F3D3
:100C800021E0C21AD108E108F10888EE880E83E05D
:100C9000981EA11CB11CE4CFFF90EF90DF90CF9085
:100CA000BF90AF909F908F900895E3E4FAE0838126
:100CB00094810196948383830895E3E4FAE0808528
:100CC000918501969187808708950895AF92BF928C
:100CD000CF92DF92EF92FF920F931F93CF93DF9308
:100CE0006C017B018B01040F151FEB015E01AE1837
:100CF000BF08C017D10759F06991D601ED91FC9159
:100D00000190F081E02DC6011995892B79F7C50175
:100D1000DF91CF911F910F91FF90EF90DF90CF90D7
:100D2000BF90AF900895FC01538D448D252F30E086
:100D3000842F90E0821B930B541710F0CF960895E8
:100D400001970895FC01918D828D981761F0A28D15
:100D5000AE0FBF2FB11D5D968C91928D9F5F9F73DB
:100D6000928F90E008958FEF9FEF0895FC01918D91
:100D7000828D981731F0828DE80FF11D858D90E0FE
:100D800008958FEF9FEF0895FC01918D228D892F9B
:100D900090E0805C9F4F821B91098F739927089583
:100DA0008DE498E00E94C40621E0892B09F420E03C
:100DB000822F0895FC01A48DA80FB92FB11DA35A4D
:100DC000BF4F2C91848D90E001968F739927848F6B
:100DD000A689B7892C93A089B1898C91837080648E
:100DE0008C93938D848D981306C00288F389E02D2F
:100DF00080818F7D80830895EF92FF920F931F93E0
:100E0000CF93DF93EC0181E0888F9B8D8C8D9813BD
:100E10001AC0E889F989808185FF15C09FB7F894C9
:100E2000EE89FF896083E889F98980818370806415
:100E300080839FBF81E090E0DF91CF911F910F9160
:100E4000FF90EF900895F62E0B8D10E00F5F1F4F6F
:100E50000F731127E02E8C8D8E110CC00FB607FC7E
:100E6000FACFE889F989808185FFF5CFCE010E940C
:100E7000DA06F1CFEB8DEC0FFD2FF11DE35AFF4F9A
:100E8000F0829FB7F8940B8FEA89FB89808180629A
:100E9000CFCFCF93DF93EC01888D8823B9F0AA8957
:100EA000BB89E889F9898C9185FD03C0808186FD25
:100EB0000DC00FB607FCF7CF8C9185FFF2CF808174
:100EC00085FFEDCFCE010E94DA06E9CFDF91CF9109
:100ED000089580E090E0892B49F080E090E0892B34
:100EE00029F00E94000081110E94000080E090E043
:100EF000892B49F080E090E0892B29F00E940000C6
:100F000081110E94000080E090E0892B29F00E946E
:100F1000D00681110E94000080E090E0892B49F00A
:100F200080E090E0892B29F00E94000081110C9450
:100F300000000895DC0180E0615090F09D919827B9
:100F4000E92FEF70F0E0E45EFC4F2491E92FE29589
:100F5000EF70F0E0E45DFC4FE491822F8E27ECCF40
:100F60000895DC012C911196ED91FC91F89481810A
:100F7000822B81839281322F30959323928387E055
:100F800090E00197F1F781818323818383E290E0F0
:100F90000197F1F790817894EFECF0E03197F1F759
:100FA000922381E009F480E00895FC0190810180A2
:100FB000F281E02D292F209560FF14C0F8948281E2
:100FC000822382838181892B8183A3E2B0E0119700
:100FD000F1F78281982B9283789487ED90E00197C6
:100FE000F1F70895F8948281822382838181892B8D
:100FF0008183AFEFB0E01197F1F78281982B928354
:1010000078948FE090E0EBCFDF92EF92FF920F9316
:101010001F93CF93DF93EC01D62EE42E08E010E06F
:10102000FF24F39461E08D2D8F2109F460E0CE015F
:101030000E94D507FF0C01501109A1F7E11010C063
:10104000F894E981FA81918188818095892381834F
:10105000E981FA81928188818095892382837894BD
:10106000DF91CF911F910F91FF90EF90DF90089546
:10107000EF92FF920F931F93CF93DF938C017B012D
:1010800040E065E50E940408E70188E0E80EF11CF5
:10109000699140E0C8010E940408CE15DF05C1F740
:1010A000DF91CF911F910F91FF90EF900895FC0178
:1010B00090810180F281E02DF8948181292F209583
:1010C0008223818378943DE743E050E0315029F159
:1010D000DA011197F1F780818923C1F3F8948281B5
:1010E000822382838181892B81837894ABE7B7E067
:1010F0001197F1F7F894818182238183A3E1B1E014
:101100001197F1F78081982381E009F080E07894CD
:10111000E3E6F6E03197F1F7089580E008958F92C5
:101120009F92AF92BF92CF92DF92EF92FF920F9376
:101130001F93CF93DF9300D01F921F92CDB7DEB7DE
:101140008C01DC0119968D919C910E94570840E01A
:101150006CECF801818592850E940408D8014C91BD
:1011600064E419968D919C910E9404088FB7F894BD
:10117000C0903E08D0903F08E0904008F0904108B1
:101180008FBFF8018481811120C081E08983CA82E8
:10119000DB82EC82FD8229813A814B815C816D8109
:1011A00070E080E090E00F900F900F900F900F9004
:1011B000DF91CF911F910F91FF90EF90DF90CF9033
:1011C000BF90AF909F908F90089585818823F9F00C
:1011D000808181111CC0F801818592850E94B10730
:1011E000813099F22FB7F89480913E0890913F0892
:1011F000A0914008B09141082FBF8C199D09AE09FC
:10120000BF098E3E9240A105B10528F3BECFD8019B
:101210001396EC91E9508EEE92E0E33038F4F0E072
:10122000EE0FFF1FE05DFD4F808191814C01B12CDD
:10123000A12CF8018181882321F060E082810E9445
:101240007605C501B4010E942206D80111968C9141
:101250001197882309F499CF61E012968C910E942E
:10126000760593CF4F925F926F927F928F929F926B
:10127000AF92BF92CF92DF92EF92FF920F931F93A4
:10128000CF93DF938C017B01EA01FC01818592857C
:101290000E9457088823D9F1B701F801818592850A
:1012A0000E94380840E06EEBF801818592850E942B
:1012B00004086E015E01F9E0AF0EB11C7E01F80179
:1012C0008184928488E0682E712C512C44244394AC
:1012D000C4010E94B10781115428440CF1E06F1A37
:1012E0007108B1F7F70151927F01AE16BF0639F7C9
:1012F000F801818592850E945708813041F4F601FA
:1013000081916F01811105C0EE15FF05C1F790E0D5
:1013100008C068E0CE010E949A0791E02885281352
:10132000F6CF892FDF91CF911F910F91FF90EF9012
:10133000DF90CF90BF90AF909F908F907F906F90F5
:101340005F904F900895EDE4FAE0A281B381139687
:101350008D919C91149714961C921E9213979583CD
:101360008483A285B38513968D919C9114971496CE
:101370001C921E9213979587848708952091510A95
:101380003091520A8091530A9091540A28173907D4
:10139000C0F081E090E090934E0A80934D0A209136
:1013A000590A30915A0A80915B0A90915C0A281779
:1013B000390760F081E090E09093560A8093550AD7
:1013C000089510924E0A10924D0AE9CF1092560AD3
:1013D0001092550A08951092990BE9E4F8E0808183
:1013E000877F80830895CF93DF93A0E0B2E0FD0173
:1013F00090E0219131912817390721F4EF012297CC
:101400001982188222E0E031F20799F78D919D91BF
:10141000892B41F482E0A031B807C1F781E0DF9168
:10142000CF91089580E0FBCFFC0121812150330B47
:1014300070E060E0472F50E0421753073CF4480F3C
:10144000591FFA014081640F7F5FF4CF820F931F11
:10145000FC0160830895FC0181E08083658385E061
:1014600082838091E50AA0E0B2E020E132E04D9174
:101470005D91452BC1F42A173B07C9F791E0877F9F
:1014800090FF88608383F8949091430B8091420B86
:1014900091110BC09091410B981307C0789414825E
:1014A00087E08183089590E0EACF90E0A0913E0B21
:1014B000B0913F0BA80FB91F2C9101966091400B82
:1014C00070E00E9466308093420B1092430B789438
:1014D0002483E6CFCF93DF93CDB7DEB7C456D109CF
:1014E0000FB6F894DEBF0FBECDBF66E0CE01019609
:1014F0000E942B0ACE0101960E94140ACC59DF4F9C
:101500000FB6F894DEBF0FBECDBFDF91CF91089527
:10151000CF93DF93EC0167E00E942B0ACE01DF91AD
:10152000CF910C94140AE1ECF0E080818068808314
:1015300008951F93CF93DF93EC0119861EAAFC0137
:10154000E05CFF4F10829FAD319680E0981719F054
:1015500011928F5FFBCFFE01E55BFF4F1082319749
:10156000108210E08FAD181750F4EA81FB81E10F73
:10157000F11D60E080810E9476051F5FF3CFDF914F
:10158000CF911F9108953F924F925F926F927F92F9
:101590008F929F92AF92BF92CF92DF92EF92FF9283
:1015A0000F931F93CF93DF9300D000D0CDB7DEB75A
:1015B0009E838D83062F10E08FB7F894C0903E086D
:1015C000D0903F08E0904008F09041088FBFED8137
:1015D000FE8180A991A9A2A9B3A9C81AD90AEA0AC9
:1015E000FB0AC701B6010E94B03120E030E04AE7B3
:1015F00054E40E940831AD81BE8194966D937D9331
:101600008D939C939797FD01C0A2D1A2E2A2F3A271
:101610002FB7F89480913E0890913F08A091400820
:10162000B09141082FBFED81FE8180AB91ABA2ABA1
:10163000B3AB1587048762857385601B710BE6A4C5
:10164000F7A4E01AF10A17A706A781A5882331F0AD
:10165000719561957109F194E194F108AD81BE81B4
:1016600098963C90072E000C880B990B0E94B23183
:101670004B015C0110E000E031100BC0ED81FE81F8
:1016800020893189428953890E9467320E947A31C8
:101690008B01B701FF0C880B990B0E94B2316B01D3
:1016A0007C01AD81BE8194968D919D910D90BC91F0
:1016B000A02D89839A83AB83BC83ED81FE81208D2D
:1016C000318D428D538DC701B6010E946732298149
:1016D0003A814B815C810E9408312B013C01B801A9
:1016E000110F880B990B0E94B2319B01AC01C30111
:1016F000B2010E9497300E947A312B01AD81BE81E8
:101700001F967C936E931E9754962D913D914D910B
:101710005C915797C501B4010E94673229813A81D3
:101720004B815C810E946732ED81FE81248D358D75
:10173000468D578D0E9497304B015C01AD81BE8173
:101740005C968D929D92AD92BC925F973320A1F0F2
:1017500050962D913D914D915C915397C701B601E3
:101760000E946732A50194010E949730ED81FE81AD
:10177000648F758F868F978FAD81BE815C968C90BC
:101780005C975D969C905D975E96AC905E975F9639
:10179000BC905F979A960D911C91B801012E000C98
:1017A000880B990B0E94B2316B017C019B01AC014B
:1017B000B401C5010E94033187FD16C0ED81FE8191
:1017C00064A575A5072E000C880B990B0E94B231F9
:1017D0006B017C019B01AC01B401C5010E94623226
:1017E000181614F064017501C601D701ED81FE8160
:1017F000848F958FA68FB78FB201550C880B990BEC
:101800000E94B2319601A7010E9497300E947A315E
:10181000601771074CF0AD81BE819C960D911C91B3
:10182000601771070CF48B01ED81FE811787068725
:1018300006ABE55BFF4FAD81BE8114968C91081716
:1018400008F4802F808326960FB6F894DEBF0FBE73
:10185000CDBFDF91CF911F910F91FF90EF90DF905F
:10186000CF90BF90AF909F908F907F906F905F9040
:101870004F903F900895CF93DF93CDB7DEB7689731
:101880000FB6F894DEBF0FBECDBFEDE4FAE0DE0187
:10189000119644A155A166A177A14D935D936D93D7
:1018A0007D9373968AE0EF3BF80799F78091BE0D20
:1018B000882351F069817A818B819C810E948131DA
:1018C00085EB9DE00E94C30A80910A0E882391F067
:1018D00069817A818B819C810E94813181E09EE0C7
:1018E00068960FB6F894DEBF0FBECDBFDF91CF91E3
:1018F0000C94C30A68960FB6F894DEBF0FBECDBF36
:10190000DF91CF9108951F93CF93DF93EC01162FB2
:101910000E94990AED81FE812F8138858CA99DA9AD
:10192000B0E0A0E080839183A283B3838483958316
:10193000A683B783328721871087838581608D7F57
:101940008B7F8387DF91CF911F910895E62FDC0174
:1019500014962C911497621758F461E0642712963C
:101960008D919C91E80FF92FF11D80810C947605E3
:101970000895CF92DF92EF92FF920F931F93CF9330
:10198000DF9300D000D01F921F92CDB7DEB7FC01CD
:101990008E010F5F1F4F88E0D8011D928A95E9F7ED
:1019A0004285C180E0802E2D30E0842FF12CDD2493
:1019B000D394CF100EC0CF010296B801562F501B02
:1019C0005E1590F4DB015D91BD01DC015D93CD01FD
:1019D000F5CF90E0D801A80FB91FDC920196B901AC
:1019E0000E946630F394E5CF842F90E00196B90110
:1019F0000E946630828728960FB6F894DEBF0FBE2D
:101A0000CDBFDF91CF911F910F91FF90EF90DF90AD
:101A1000CF9008951F93CF93DF93FC018185882396
:101A2000A1F1DF01A65BBF4F9C91EF01C55BDF4FCA
:101A30008881981730F59F5F9C939F01205C3F4FF2
:101A400097AD8C91981708F4892FEF01F9018083E5
:101A5000CE01CF960E94B90C10E08FAD1817A8F4F4
:101A6000812F90E0DE01A80FB91FAF5BBF4FEA8165
:101A7000FB81E80FF91F6C9180810E9476051F5F42
:101A8000ECCF8917D0F69150D7CFDF91CF911F912E
:101A9000089585EB9DE00E940A0D81E09EE00C9484
:101AA0000A0DEF92FF921F93CF93DF93EC0110E0AA
:101AB0008C811817A0F4E12EF12CEA81FB81EE0D48
:101AC000FF1D61E080810E94A405EA81FB81EE0D8B
:101AD000FF1D60E080810E9476051F5FE9CFFE0157
:101AE000E05CFF4F1082CE01CF96DF91CF911F9126
:101AF000FF90EF900C94B90C81E20E94250421E044
:101B0000892B09F420E0822F0895FC01818186173A
:101B100099F0618381E090E09383828380818617CE
:101B200051F0662381F084819581228133812817C9
:101B3000390708F060830895828193818F3F980769
:101B400069F30196E9CF86819781EFCF0F931F93B9
:101B5000CF93DF93FC012281222309F43DC0162F8D
:101B6000C62FD0E0048161E0802F0E94A405209759
:101B700041F460E0802FDF91CF911F910F910C9481
:101B80007605CF3FD10511F461E0F4CFE02FF0E00E
:101B9000EA5EFB4FE491E150E23108F0B4C0F0E0BE
:101BA0008827EA52F24F8F4F0C947A30E80DF10DEE
:101BB000F60D000E0A0E830E140E1C0E240E2E0EB1
:101BC000380E420E510E5B0E830E650E6F0E790EAF
:101BD00084B5806884BD17BDDF91CF911F910F91AF
:101BE000089584B5806284BD18BDF6CF80918000D1
:101BF000806880938000D0938900C0938800ECCFE8
:101C000080918000806280938000D0938B00C0938D
:101C10008A00E2CF80918000886080938000D0931A
:101C20008D00C0938C00D8CF8091B00080688093E5
:101C3000B0001093B300D0CF8091B0008062809349
:101C4000B0001093B400C8CF80919000806880935A
:101C50009000D0939900C0939800BECF80919000DF
:101C6000806280939000D0939B00C0939A00B4CF81
:101C700080919000886080939000D0939D00C093E5
:101C80009C00AACF8091A00080688093A0008091E2
:101C9000A0008F7B8093A000D093A900C093A800E0
:101CA0009BCF8091A00080628093A000D093AB0076
:101CB000C093AA0091CF8091A00088608093A0007B
:101CC000D093AD00C093AC0087CF80912001806895
:101CD00080932001D0932901C09328017DCF80916A
:101CE0002001806280932001D0932B01C0932A01B0
:101CF00073CF80912001886080932001D0932D01C3
:101D0000C0932C0169CFC038D1050CF03DCF31CF45
:101D1000CF93DF93EC018A8181111EC081E08A8319
:101D20008B81811117C08C81813171F48091D00039
:101D300080648093D0008091D100877E8093D10011
:101D400061E081E10E94A40561E08C81DF91CF9187
:101D50000C94760588818987DF91CF910895CF9380
:101D6000DF93EC01862F68835A8349831C821B8290
:101D700062E00E94A40529813A819881923069F439
:101D8000309311022093100280916A008360809347
:101D90006A00EC9ADF91CF910895933059F4309313
:101DA00013022093120280916A008C6080936A0073
:101DB000ED9AF0CF8EEE890F843060F787E1891BB2
:101DC000E82FF0E0EE0FFF1FE05FFD4F318320832F
:101DD000843091F08530B9F0833039F0809169001A
:101DE000836080936900E89AD5CF809169008C6008
:101DF00080936900E99ACECF8091690080638093D7
:101E00006900EA9AC7CF80916900806C809369006D
:101E1000EB9AC0CFFC01118260E080810C947605C2
:101E2000FC01108260E081810C94760521E0FC01C8
:101E3000208361E081810C947605F8949091430BA6
:101E4000992359F08091440B9091450B0196909302
:101E5000450B8093440B789408952091410B30E01A
:101E6000E0913E0BF0913F0BE20FF31F8083C9011D
:101E700001966091400B70E00E9466308093410BA8
:101E80009091420B9813E7CF81E08093430BE3CF0F
:101E9000FC0101900020E9F73197AF01481B590B75
:101EA000BC018DE498E00C9466068F929F92AF92ED
:101EB000BF920F931F93CF93DF93CDB7DEB7A19758
:101EC0000FB6F894DEBF0FBECDBF19A2423008F4A2
:101ED0004AE08E010F5D1F4F842E912CB12CA12C56
:101EE000A50194010E944430E62FB901CA01EA30ED
:101EF000F4F4E05DD801EE938D01232B242B252BE8
:101F000079F790E080E0109719F0CD010E94480F1A
:101F1000A1960FB6F894DEBF0FBECDBFDF91CF9173
:101F20001F910F91BF90AF909F908F900895E95CA3
:101F3000E1CF009711F00E94480F8EE592E00C94DB
:101F4000480F8FEE9CE00E94100F81EF9CE00E94F2
:101F5000100F8091ED0C9091EE0C039761F485EFDA
:101F60009CE00E94160F81E692E00E94990F8FE09C
:101F70009DE00C94880E83EF9CE00E94100FF7CF39
:101F80008EE692E00E94990FEDE4FAE01582148249
:101F9000A6E4BBE04CE251E060E070E0D0964D93E7
:101FA0005D936D937C93D397D4964D935D936D938E
:101FB0007C93D7978EEB99E0DA969C938E93D99782
:101FC000D8961C92A1E8BBE08C9181608D7F8B7FBD
:101FD0008C9382E090E091838083A281B3811496F8
:101FE0001C921E921397918780871586148602840F
:101FF000F385E02D1482138208950E947C0D8823BE
:1020000071F080914B0880FD04C083E892E00E944B
:10201000990F80914B08816080934B0808958091BF
:102020004B088E7F80934B0880914D0A90914E0A09
:10203000029709F450C02091510A3091520A8091C0
:10204000530A9091540A2817390708F445C081E0D3
:1020500090E090934E0A80934D0A20914D0A309162
:102060004E0A91E02130310509F090E08091490855
:1020700081FD04C082602130310521F4809149083E
:1020800090FB81F9809349088091550A9091560AF6
:10209000029709F18091620A0E94E0059C019093E9
:1020A000640A8093630A6091650A7091660A41E050
:1020B0006817790708F440E09091490892FD05C03F
:1020C000892F84606217730720F08091490840FBD4
:1020D00082F980934908089510924E0A10924D0A91
:1020E000BCCF0E94FD0F85E40E942504892B71F06E
:1020F00080914B0881FD04C083E992E00E94990F12
:1021000080914B08826080934B08089580914B0822
:102110008D7FF9CFBF92CF92DF92EF92FF920F9314
:102120001F93CF93DF93EC01B62EC72E8D858111BF
:1021300005C0CE010E94570881110EC01B861D8666
:102140001C8680E0DF91CF911F910F91FF90EF905F
:10215000DF90CF90BF90089540E060EFCE010E94E5
:10216000040801E0E12CD12C11E0CE010E94B1075E
:10217000F82ECE010E94B10791E0F91218C081300B
:1021800099F51134D8F2DB86D11002C081E08D8739
:102190008B81882399F22396EB2DFC2DCF01089695
:1021A00029912193E817F907D9F781E0CBCFEE2DDC
:1021B000F0E0F8120FC08B851817A0F4DE01AE0F07
:1021C000BF1F13968C91802379F4F12C193008F4F9
:1021D0001C87D12EEC0FFD1F8381902F90958923B2
:1021E00083830AC08113F1CFFE01EE0DF11D8381BF
:1021F000802B8383FF24F3946F2DCE010E94D5079B
:102200001F5F000F11F4E39401E087E08E1508F0E2
:10221000ACCFB7CFCF93DF93EB01DC011996ED91F3
:10222000FC911A97138615861486128611861086DD
:102230001782168215821482138219968D919C91B1
:102240000E948A10982F882341F067E0CE010E94F7
:102250009A0791E02F81281390E0892FDF91CF9189
:1022600008958F929F92AF92BF92EF92FF920F9339
:102270001F93CF93DF93CDB7DEB761970FB6F89476
:10228000DEBF0FBECDBF7C01FC0100851185F801CA
:102290008781882309F470C0BE01665F7F4FC80143
:1022A0000E940A11882309F467C0AE014F5F5F4F97
:1022B000BE01665F7F4FC8010E943209882309F47E
:1022C0005BC08A81812C912C540187FF06C0812C30
:1022D000912CF8EFAF2EBB24BA949A8549819B3399
:1022E00009F065C02D8127FF62C040FD45C0042F65
:1022F00010E030E020E073E0000F111F221F331FB9
:102300007A95D1F7B901A801407E577066277727E3
:1023100090E0B0E0A0E08C019D01EBE0000F111F08
:10232000221F331FEA95D1F7042B152B262B372BB1
:10233000082919292A293B29013854EE15075FEF8E
:1023400025073507CCF0C901B8010E94B23120E061
:1023500030E040E05CE30E9467324B015C0120E02A
:1023600030E04EEF52EC0E940331882329F0F70150
:1023700080829182A282B382F701808591850E943A
:102380008F08F701608171818281938161960FB618
:10239000F894DEBF0FBECDBFDF91CF911F910F919B
:1023A000FF90EF90BF90AF909F908F900895082F6F
:1023B00010E0102F0027110F110F110FF8E04F9FA1
:1023C000A0011124042B152B012E000C220B330B22
:1023D000082919292A293B29903109F0ADCF6885B0
:1023E000662309F4A9CF70E08F81AB01481B510926
:1023F000CA019695982F8827979587950E946630F1
:10240000CB01770FAA0BBB0B53E0000F111F221F4C
:10241000331F5A95D1F700782770332700521109DE
:1024200021093109800F911FA21FB31F950184015B
:10243000082B192B2A2B3B2B7FCF8091090B815026
:102440008093090B811118C085E08093090B80915E
:10245000E60A23E1829FC00111248F58954F0E9404
:1024600031119091E60A892F8F5FF1F39FEF86304B
:10247000D0F78093E60A089581E79AE00C94311131
:10248000BF92CF92DF92EF92FF920F931F93CF9361
:10249000DF93CDB7DEB761970FB6F894DEBF0FBEFE
:1024A000CDBF7C018B01DC0119967C936E9318974C
:1024B00083E0D82ECC24C394D8011996ED91FC91D9
:1024C0001A9713861586148612861186108617822F
:1024D000168215821482138217961C9217971896EB
:1024E0001C9262E370E080E090E00E942206BE0150
:1024F000665F7F4FF801818592850E948A1088234C
:1025000009F477C067E0CE010A960E949A0799897C
:102510008913EDCFD80117968C9117978F5F179677
:102520008C938A85883231F008F04AC0803111F0EE
:102530008232E9F6F80180858F5F80878081811182
:1025400024C0818592850E945708BE01665F7F4F37
:10255000D80119968D919C910E94380840E064EB57
:10256000F801818592850E940408D80119968D9101
:102570009C910E94B107B82EF801818592850E9436
:102580005708B11002C0D801CC928A85803119F168
:10259000AE014F5F5F4FBE01665F7F4FC8010E9473
:1025A0003209882359F08D819A859B3311F487FD78
:1025B00012C08F3391F058F48F31B9F080E00EC023
:1025C0008B3309F4B7CF823409F091CFB3CF8F3575
:1025D00071F08F3799F78CE001C08AE0F8019381A0
:1025E000981708F084CF838382CF89E0F7CF8BE000
:1025F000F5CFD80117969C91911103C0DA94D110B0
:102600005BCFD7011896ED91FC919781992331F01A
:10261000B701665F7F4FCF010E940A11F701828BDD
:102620000084F185E02D1482D70118968D919C913C
:102630000E948F0861960FB6F894DEBF0FBECDBF23
:10264000DF91CF911F910F91FF90EF90DF90CF908E
:10265000BF9008958F929F92AF92BF92CF92DF92D8
:10266000EF92FF92CF93DF936A017B01E9010E9411
:10267000480FC530D10509F0A5C0A7019601C701D3
:10268000B6010E94D432882391F083EA92E00E943E
:10269000480F8EE592E0DF91CF91FF90EF90DF90B1
:1026A000CF90BF90AF909F908F900C94480F4601B1
:1026B0005701E894B7F82FEF3FEF4FE75FE7C50109
:1026C000B4010E94D43281110DC02FEF3FEF4FE7CC
:1026D0005FE7C501B4010E94033118161CF487EAB4
:1026E00092E0D5CF2FEF3FEF4FE75FE4C701B60190
:1026F0000E94623218161CF48BEA92E0C8CF2FEFCA
:102700003FEF4FE75FECC701B6010E94033187FD41
:10271000F3CF20E030E0A901C701B6010E940331E8
:1027200087FF09C06DE28DE498E00E94FC06F7FA8D
:10273000F094F7F8F0942BEA35EC47EA56E3C7013A
:10274000B6010E9497306B017C010E9481314B01E0
:102750005C010E94B0319B01AC01C701B6010E942F
:1027600096306B017C014AE0C501B4010E94550F0F
:102770006EE28DE498E00E94FC06C6E0C15009F4C8
:1027800088CF20E030E040E251E4C701B6010E946A
:1027900067324B015C010E9481316B01F12CE12C0D
:1027A0004AE0C701B6010E94550FC701B6010E9459
:1027B000B0319B01AC01C501B4010E9496306B01A0
:1027C0007C01DCCFC701B6010E9481314C2F0E94F1
:1027D000550F5FCFCF93C82F682F70E090E080E057
:1027E0000E94B031AB01BC012AE030E08FEA92E0F8
:1027F0000E942A1381E080930A0E8C2F90E0909320
:102800000C0E80930B0E6C2F81E09EE00E94C30A99
:1028100082EC92E0CF910C94990FCF93C82F682F40
:1028200070E090E080E00E94B031AB01BC012AE092
:1028300030E08DEC92E00E942A136C2F81E09EE044
:102840000E94830C8DE08093EC0CCF910895CF9281
:10285000DF92EF92FF92CF93DF93CDB7DEB7689709
:102860000FB6F894DEBF0FBECDBFEDE4FAE0DE0197
:1028700011968FEB9AE040A551A562A573A54D93E3
:102880005D936D937D9373968E179F07A1F780914B
:102890005C0E90915D0E81309105E9F098F0029701
:1028A00009F446C08BEF9CE068960FB6F894DEBF43
:1028B0000FBECDBFDF91CF91FF90EF90DF90CF9013
:1028C0000C94880E87EF9CE00E94100F89EF9CE02B
:1028D0000E94100FE7CF87EF9CE00E94100F89EF56
:1028E0009CE00E94100FC980DA80EB80FC80C70159
:1028F000B6010E94813181E08093BE0D862F90E069
:102900009093C00D8093BF0D85EB9DE00E94C30A9C
:1029100082EC92E00E94990F2AE030E0B701A60114
:102920008FEE92E00E942A1385E10E941D0FBACF1C
:1029300089EF9CE00E94160F87EF9CE00E94160F23
:102940008FE59DE00E94880E83E79DE00E94880E3F
:1029500061E08CE00E94760561E08EE00E947605E1
:10296000C980DA80EB80FC80C701B6010E9481310A
:10297000862F0E94EA132AE030E0B701A6018FEE0D
:1029800092E00E942A1387E1D0CF1F93CF93DF9369
:10299000CDB7DEB768970FB6F894DEBF0FBECDBFD8
:1029A000EDE4FAE0DE0111962FEB3AE040A551A5E7
:1029B00062A573A54D935D936D937D9373962E17CA
:1029C0003F07A1F79091EC0C981739F0182F95302C
:1029D00009F456C020F49430A1F180E047C096304D
:1029E00009F47AC09B30C9F7843009F45DC08630A1
:1029F000A1F769817A818B819C810E94813181E07C
:102A00008093BE0D862F90E09093C00D8093BF0DF4
:102A100085EB9DE00E94C30A82EC92E00E94990F30
:102A20001093EC0C81E090E090935D0E80935C0E2F
:102A30001092EE0C1092ED0C0E9427140E94A10F30
:102A4000CCCF853031F01B3041F68BE00E940D1465
:102A5000C4CF83E090E09093EE0C8093ED0C0E9445
:102A6000A10F1093EC0C0E94C00F81E068960FB686
:102A7000F894DEBF0FBECDBFDF91CF911F910895B7
:102A8000843009F769817A818B819C810E94813130
:102A9000862F0E94EA131093EC0C1092EE0C109209
:102AA000ED0C0E94A10FDFCF69817A818B819C811F
:102AB0000E948131862F0E94EA131093EC0C82E071
:102AC00090E090935D0E80935C0E1092EE0C10924D
:102AD000ED0C0E942714E5CF8B3009F07ECF2AE061
:102AE00030E040E050E060E371E489E193E00E946F
:102AF0002A136BE085EB9DE00E94830C8DE08093B0
:102B0000EC0C6BCFCF9321E030E03093E40A2093BC
:102B1000E30A9091E50A91609B7F9093E50A4CE26D
:102B200051E060E070E04093760B5093770B609338
:102B3000780B7093790B40937A0B50937B0B6093D7
:102B40007C0B70937D0B4EEB59E05093800B4093C0
:102B50007F0B10927E0B9091810B91609D7F9B7FEC
:102B60009093810B9091EC0C9B3031F41092080BF8
:102B70001092070BCF910895963029F43093080BEB
:102B80002093070BF7CF2CEF290F223038F482E087
:102B900090E09093080B8093070BECCF973081F572
:102BA000C82F2AE030E040E050E060E87FE389E3AE
:102BB00093E00E942A134091ED0A5091EE0A70E0D2
:102BC00060E04093AE0C5093AF0C6093B00C7093E8
:102BD000B10C4093B20C5093B30C6093B40C70934F
:102BE000B50C85EE97E19093B80C8093B70CC09329
:102BF000B60C8091B90C81608D7F8B7F8093B90C6E
:102C000083E090E0C6CF0F931F93CF93DF9383E2CF
:102C10000E9425048C0182E20E942504EC0161E0FF
:102C2000012B09F460E08BE09BE00E94850D61E0E0
:102C3000CD2B09F460E083E19BE00E94850D60915B
:102C40000B0B60931B0B8091130B80931C0B81115A
:102C500005C081E0662319F082E001C083E0809323
:102C60001D0B8091FD0C882309F44EC08091110D3D
:102C7000882309F449C080914D0E811145C080918F
:102C80005E0E80936D0E88EC80936E0E70E090E087
:102C900080E00E94B031AB01BC012AE030E083E566
:102CA00093E00E942A136091770E7091780E072EA0
:102CB000000C880B990B0E94B231AB01BC012AE0D9
:102CC00030E085E693E00E942A1360916D0E70E07B
:102CD00090E080E00E94B031AB01BC012AE030E01E
:102CE00080E793E00E942A1360916D0E8BEF9CE0C9
:102CF0000E94A60D60916E0E8FE09DE0DF91CF9156
:102D00001F910F910C94A60DDF91CF911F910F9100
:102D1000089582E090E09093E40A8093E30A8DE7BF
:102D200093E00E94990F83E29DE00C94880E10922C
:102D30001D0C8091070B9091080B009769F002978A
:102D4000D9F48BE00E94C5141092080B1092070B67
:102D500082E993E00C94990F80910A0B81110CC0C9
:102D600086E00E94C51481E090E09093080B809368
:102D7000070B89EB93E0EECF08951092290C809118
:102D8000070B9091080B8130910521F070F00297AC
:102D9000D1F008958BE00E94C5141092080B109298
:102DA000070B8DED93E00C94990F84E00E94C514FD
:102DB00082E090E09093080B8093070B1092C50C73
:102DC0008FEF93E0F0CF1092C50C08951F93CF932F
:102DD000DF93FC0122812223A1F0EC0112821481F5
:102DE0008381882391F061E0812F0E94A40560E037
:102DF000812F0E947605E889F9891386EE85FF8583
:102E00001386DF91CF911F91089560E0812F0E947A
:102E100076058C818131A9F7DF91CF911F910C94B8
:102E200089020E94990F1092EB0C1092EA0C8BEF22
:102E30009CE00E94E6168FE09DE00E94E61683E289
:102E40009DE00E94E61687E39DE00E94E6168BE473
:102E50009DE00E94E6168FE59DE00E94E61683E75E
:102E60009DE00E94E61687E89DE00E94E6168BE949
:102E70009DE00E94E6168FEE9CE00E94100F81EF0D
:102E80009CE00E94100F83EF9CE00E94100F85EFE2
:102E90009CE00E94100F87EF9CE00E94100F89EFCA
:102EA0009CE00E94100F8FEA9DE00E940A0F81EBC8
:102EB0009DE00E940A0F83EB9DE00E940A0F85EBC4
:102EC0009DE00E94990A81E09EE00E94990A10927A
:102ED0005A0E1092410C10924D0C1092710C1092DF
:102EE000650C1092890C1092590C10927D0C109266
:102EF000950CEBE4F8E080818860808308951F934F
:102F0000CF93DF93EC01162F009711F00E94990FD9
:102F100083E294E00E94990F1092E40A1092E30A6F
:102F200010924D0E1092EC0D83E394E00E94111765
:102F30008091EC0C8C50823010F01092EC0C2097A9
:102F400019F0CE010E94990F6091E50A6E7F6460CE
:102F50006093E50A1092520A1092510A10925A0A8E
:102F60001092590A10928D0B1092990B1092A50B8A
:102F70001092B10B1092BD0B10921D0C1092290CE7
:102F80001092A10C1092AD0C1092810B1092B90C02
:102F90001092C50C70E090E080E00E94B031AB016F
:102FA000BC0120E130E083E494E00E942A131092F7
:102FB0000A0B111106C089E1DF91CF911F910C948A
:102FC0001D0FDF91CF911F910895CF93C82F1092BD
:102FD000B90C1092990B84E594E00E94990F8091AE
:102FE0004908C11115C083FD11C08CE10E941D0F5D
:102FF00010924D0E1092EC0D83E394E00E94111795
:1030000060E090E080E0CF910C947F178DE1EECFEF
:1030100083FD17C084E694E00E94990F1092EB0C98
:103020001092EA0C8BE08093EC0C0E94620280E02C
:103030000E9482158CE10E941D0F8EE1CF910C94AD
:103040001D0F80E794E00E94990F60E090E080E01F
:103050000E947F178DE1F2CF60E087E994E00C9445
:103060007F1760E08EEA94E00C947F17E9E4F8E0C3
:1030700080818D7F808360E08FEB94E00C947F17DC
:10308000E9E4F8E080818460808360E08BED94E087
:103090000C947F17CF93C82F1092BD0B88EF94E04C
:1030A0000E94990F8091EC0C8D30D1F4C093EC0C00
:1030B00087EF9CE00E94100F6C2F70E090E080E0A2
:1030C0000E94B031AB01BC012AE030E080E195E024
:1030D0000E942A130E94620286E1CF910C941D0F78
:1030E0008C3031F487E295E00E9411171092EC0CBD
:1030F000CF9108951092A10C1092AD0C82E395E04F
:103100000E94990F83E29DE00E94E616EAEEFCE041
:103110001182108287E082830E94620281E00C9417
:1031200082159EEF980F923008F069C010924D0CF6
:10313000833099F18FE59DE00E94880E83E79DE042
:103140000E94880E80EC94EDA1E0B0E08093420CE8
:103150009093430CA093440CB093450C8093460C81
:103160009093470CA093480CB093490C81E998E1E7
:1031700090934C0C80934B0C83E080934A0C80918D
:103180004D0C81608D7F8B7F80934D0C81E10E947F
:103190001D0F86E495E00C94990F8FE59DE00E9449
:1031A000E61683E79DE00E94E61682E10E941D0F6D
:1031B00080E395E7A0E0B0E08093420C9093430C4D
:1031C000A093440CB093450C8093460C9093470C0D
:1031D000A093480CB093490C81E998E190934C0C72
:1031E00080934B0C84E080934A0C80914D0C81605D
:1031F0008D7F8B7F80934D0C8FE495E0CCCF60E08A
:1032000087E595E00C947F178230C9F51092410C48
:1032100083E29DE00E94E6168FE09DE00E94E616A4
:103220008BE49DE00E94880E80E395E7A0E0B0E08B
:103230008093360C9093370CA093380CB093390CD4
:1032400080933A0C90933B0CA0933C0CB0933D0CB4
:1032500084E099E19093400C80933F0C81E080934F
:103260003E0C8091410C81608D7F8B7F8093410C5F
:103270008EE00E941D0F86E695E00C94990F60E0A9
:103280008EE695E00C947F17CF93C82F1092B10B68
:103290008FE59DE00E94E61660E08CE00E947605D6
:1032A0008091EC0C8C3059F48DE795E00E94111759
:1032B0001092EC0C85EA95E0CF910C94990F8D302B
:1032C000C9F7C093EC0C10925D0E10925C0E109238
:1032D000EE0C1092ED0C0E9427140E94A10F88E1C1
:1032E0000E941D0F6C2F70E090E080E00E94B031D2
:1032F000AB01BC012AE030E089E895E00E942A1386
:10330000D9CF8F929F92AF92BF92CF92DF92EF92DE
:10331000FF920F931F93CF93DF938091EA0C9091CC
:10332000EB0C019709F034C08FEB95E00E94990FE8
:1033300080EE95E00E94990FE091EC0CE150EB30AB
:1033400008F5F0E08827E855F64E8F4F0C947A3058
:10335000B319001A0E1A191A241A351A381A561ADD
:10336000871A9D1AD71A8091F10C882321F081EFDA
:103370009CE00E94100F87E39DE00E94880E87E08A
:103380000E941D0F1092EB0C1092EA0C0E94C00FCD
:103390000E947C0D90914B0880FB90F990934B0814
:1033A00085E40E94250421E0892B09F420E0809126
:1033B0004B0820FB81F990911B0B90FB82F98093C5
:1033C0004B088091E30A9091E40A009741F0C09184
:1033D000EC0C029709F0F0C08C2F0E94B10260E063
:1033E00081E899E1DF91CF911F910F91FF90EF90CC
:1033F000DF90CF90BF90AF909F908F900C947D0303
:1034000080919D0D882321F08BE99DE00E94E616B6
:1034100087E89DE00E94880E89E0B2CF10925D0E91
:1034200010925C0E1092EE0C1092ED0C0E9427147C
:10343000A9CF82E090E090935D0E80935C0E109295
:10344000EE0C1092ED0C0CC083E090E09093EE0C2B
:103450008093ED0C82E090E090935D0E80935C0E83
:103460000E9427140E94A10F8DCF81E090E0E3CF4E
:1034700081EF9CE00E94160F8FEE9CE00E94160FD9
:1034800083EF9CE00E94100F85EF9CE00E94100FDC
:103490008FE09DE00E94880E6CED8FE09DE00E9421
:1034A000A60D86EF95E00E94990F6CCF83E29DE018
:1034B0000E94880E80E69AEEA0E0B0E080934E0C69
:1034C00090934F0CA093500CB093510C8093520CDE
:1034D0009093530CA093540CB093550C81E398E156
:1034E0009093580C8093570C1092560C8091590C65
:1034F00081608D7F8B7F8093590C8DE496E00E94D4
:10350000990F8FE596E00E94990F83E139CF1092D1
:103510004D0E1092EC0D83E394E00E9411178BE4A2
:103520009DE00E94880E8BE00E941D0F8AE696E0C7
:103530000E94990F8BE796E0B6CF10924D0E109235
:10354000EC0D83E394E00E9411178BE99DE00E944B
:10355000880E8FE00E941D0F80E49CE9A0E0B0E09F
:103560008093420C9093430CA093440CB093450C71
:103570008093460C9093470CA093480CB093490C51
:1035800081E998E190934C0C80934B0C82E08093FE
:103590004A0C80914D0C81608D7F8B7F80934D0C08
:1035A00086E896E00E94990F86E996E07CCF10921B
:1035B0005D0E10925C0E43CF90910A0B992339F166
:1035C0008091C50C80FD23C082FD21C040E355E7FA
:1035D00060E070E04093BA0C5093BB0C6093BC0C5D
:1035E0007093BD0C4093BE0C5093BF0C6093C00C05
:1035F0007093C10C2CE238E13093C40C2093C30CBF
:103600001092C20C81608D7F8B7F8093C50C8CEFF4
:103610008C0F833028F0CB3019F0992309F488C03F
:103620008091070B9091080B039709F481C0C63075
:1036300021F12091970A3091980A4091990A50916E
:103640009A0A6091BD0A7091BE0A8091BF0A90915A
:10365000C00A0E94033187FF82C085EF9CE00E9470
:10366000160F83EF9CE00E94160F81E08093B00D4F
:1036700061E08091AF0D0E947605C090710AD090F4
:10368000720AE090730AF090740A8090750A909024
:10369000760AA090770AB090780A20E030E040E8FF
:1036A0005FE3C501B4010E949730A70196010E9413
:1036B000033118160CF460C010921D0C8091290C77
:1036C00080FD36C082FD34C081EA96E00E94990FE9
:1036D0000091070B1091080BF801EE0FFF1FEE0F82
:1036E000FF1FE950F54F60817181828193810E94B3
:1036F000813160931E0C70931F0C8093200C90936B
:10370000210C6093220C7093230C8093240C9093D3
:10371000250C8DEB96E19093280C8093270C009359
:10372000260C8091290C81608D7F8B7F8093290CE2
:10373000C150CB3008F053CEEC2FF0E08827EC5589
:10374000F44E8F4F0C947A30041C101C1A1C881CE9
:10375000881C8B1C8E1CF91C511DEF198B1C83EFD0
:103760009CE00E94100F85EF9CE00E94100F8FEAF2
:103770009DE00E940A0F81CF1092290C20E030E0DA
:1037800040E85FE3C501B4010E949630A7019601AD
:103790000E94623287FD35C0D0911D0CD0FDC8CF8C
:1037A000D2FDC6CF0091070B1091080BF801EE0F68
:1037B000FF1FEE0FFF1FE950F54F6081718182817D
:1037C00093810E9481316093120C7093130C80934B
:1037D000140C9093150C6093160C7093170C809337
:1037E000180C9093190C87E996E190931C0C809328
:1037F0001B0C00931A0CD160DD7FDB7FD0931D0C76
:1038000097CF10921D0C94CF80E20E942504892B43
:1038100009F0E5CD60E08CEB96E00E947F17DFCDEC
:1038200084E40E942504892B09F0D9CD60E08AEC5C
:1038300096E0F3CF0E947C0D90914908882339F0DF
:1038400091609093490860E088ED96E0E6CF9E7F16
:103850009093490880914D0A90914E0A029709F47D
:10386000BECD2091510A3091520A8091530A909115
:10387000540A28173907D8F181E090E090934E0A56
:1038800080934D0A80914D0A90914E0A0197A1F5BF
:10389000809149088D7F8093490880918D0B80FD30
:1038A0009ECD82FD9CCD4091EB0A5091EC0A70E0D8
:1038B00060E04093820B5093830B6093840B709372
:1038C000850B4093860B5093870B6093880B709306
:1038D000890B26E338E130938C0B20938B0B1092ED
:1038E0008A0B81608D7F8B7F80938D0B78CD1092BA
:1038F0004E0A10924D0AC6CF8091490881FD6FCDC6
:103900008260809349088EEF96E00E94990F67CD00
:103910000E94711064CD0E94FD0F61CD0E947C0D4C
:10392000882359F060E08EE695E00E947F17809131
:103930004B08816080934B0852CD8091550A90913D
:10394000560A029709F44BCD2091590A30915A0A30
:1039500080915B0A90915C0A28173907C8F181E0D1
:1039600090E09093560A8093550A8091550A909161
:10397000560A019791F580914908877F80934908FD
:103980008091990B80FD2BCD82FD29CD48EE53E02F
:1039900060E070E040938E0B50938F0B6093900B20
:1039A0007093910B4093920B5093930B6093940BF5
:1039B0007093950B2BEE39E03093980B2093970B77
:1039C0001092960B81608D7F8B7F8093990B07CD32
:1039D0001092560A1092550AC8CF1092990B8091F6
:1039E000490883FDFCCC88608093490882E197E018
:1039F0008CCF80E20E942504892B59F460E086E296
:103A000097E00E947F1780914A08806280934A085D
:103A1000E6CC8091620A0E94E0059093640A80934C
:103A2000630A2091650A3091660A2817390778F5EC
:103A3000809149088B7F809349088091A50B80FD78
:103A4000CECC82FDCCCC4091EF0A5091F00A70E0D0
:103A500060E040939A0B50939B0B60939C0B709388
:103A60009D0B40939E0B50939F0B6093A00B709304
:103A7000A10B20E438E13093A40B2093A30B109208
:103A8000A20B81608D7F8B7F8093A50BA8CC80914A
:103A9000490882FDA4CC8460809349088BE497E0B8
:103AA00034CF0E947C0D882309F499CC8091410C7D
:103AB00080FD95CC82FD93CC8BE49DE00E94E616C0
:103AC00083E29DE00E94880E8FE09DE00E94880EB8
:103AD0008DE00E941D0F80E395E7A0E0B0E08093A9
:103AE000360C9093370CA093380CB093390C80931C
:103AF0003A0C90933B0CA0933C0CB0933D0C84E0AB
:103B000099E19093400C80933F0C82E080933E0CAF
:103B10008091410C81608D7F8B7F8093410C86E486
:103B200095E0F3CEFF920F931F93CF93DF93CDB722
:103B3000DEB7C456D1090FB6F894DEBF0FBECDBFB5
:103B4000FC01F1804F2D50E08E010F5F1F4FBC0133
:103B5000C8010E94D9328091C6008091C600809130
:103B6000C1008F778093C1008091C10088608093ED
:103B7000C100F8018E2F801B8F1588F481918093EE
:103B8000C6008091C00086FFFCCF8091C000806499
:103B90008093C0008091C6008091C600EBCFCC59C5
:103BA000DF4F0FB6F894DEBF0FBECDBFDF91CF91D0
:103BB0001F910F91FF900C94930A4F925F926F9216
:103BC0007F928F929F92AF92BF92CF92DF92EF92AD
:103BD000FF920F931F93CF93DF93CDB7DEB7C95AF0
:103BE000D1400FB6F894DEBF0FBECDBF84E6E8ED3E
:103BF000F7E0DE01AB59BF4F01900D928A95E1F7D6
:103C0000A896EFADA897E550E33308F06FC1F0E058
:103C10008827E25FF14E8F4F0C947A30DD23761FB8
:103C2000BF1E761F761F761F761F761F761F761FA4
:103C3000761F761F761F671E891EAA1EB41EC81E19
:103C4000551E331F8E1FBD1F0820761F761F3D2077
:103C50009520DD20411E0C213921AF215F21142345
:103C6000761F761F761F4723761F761F761F761FD7
:103C7000761F761FE923F923052461249924FD2565
:103C8000CE1EC0904908D0904A08E0904B08F090B2
:103C90004C0861E2CE0101960E942B0ACF82D886A1
:103CA000E986FA868BE08A83E3C110924908109274
:103CB0004A0810924B0810924C0861E2CE0101961E
:103CC0000E942B0A1F82188619861A86EBCFCE0116
:103CD00087539F4F0E944E0488E0FE01E753FF4F39
:103CE000DE01A456BE4F01900D928A95E1F762E184
:103CF000CE0101960E942B0A8FE08A8388E0FE01A4
:103D0000E456FE4FDE01179601900D928A95E1F779
:103D1000AFC11092490810924A0810924B081092B5
:103D20004C08A9968FADA9971092EB0C1092EA0C53
:103D30008093EC0CAA969FADAA97992359F08B30EB
:103D400049F40E94B102882329F00E94620280E0B7
:103D50000E9482151091EC0C64E1CE0101960E9444
:103D60002B0A1F8388E09FCF8091EC0C0E94B10248
:103D7000882329F00E94620280E00E948215CE0111
:103D800001960E94880ACE0101960E94921DAEC043
:103D900060E081E697E00E947F17F1CF8EE697E022
:103DA0000E94990F81E080930A0B81E090E090934C
:103DB000E40A8093E30A10924D0E1092EC0D1092DB
:103DC000EB0C1092EA0C83E29DE00E94E61687E37A
:103DD0009DE00E94E6168BE49DE00E94E6168FEEC1
:103DE0009CE00E94100F81EF9CE00E94100F83EF77
:103DF0009CE00E94100F85EF9CE00E94100F87EF5F
:103E00009CE00E94100F89EF9CE00E94100F81EB54
:103E10009DE00E940A0F83EB9DE00E940A0F85EB54
:103E20009DE00E94990A8091E50A81608B7F8093D2
:103E3000E50A4091BD0A5091BE0A6091BF0A709197
:103E4000C00A4093750A5093760A6093770A70937C
:103E5000780A25E030E088E797E00E942A138AE19B
:103E60000E941D0F8CCFE5E6F0E0EC0FFD1F3396AE
:103E7000ADE4BAE085E690E08C0F9D1F4B96419132
:103E800051916191719198964D935D936D937C934F
:103E90009B9753968E179F0791F788E1E5E6F0E030
:103EA000EC0FFD1F3396DE01A750BF4F01900D921E
:103EB0008A95E1F768E1CE0101960E942B0A8FE115
:103EC0008A8388E1FE01E750FF4FDE0117960190DB
:103ED0000D928A95E1F7CE0101960E94140ACE0157
:103EE00001960E94921D88E10E94F309C755DE4F9A
:103EF0000FB6F894DEBF0FBECDBFDF91CF911F91FB
:103F00000F91FF90EF90DF90CF90BF90AF909F9078
:103F10008F907F906F905F904F900895ADE4BAE0DE
:103F2000CE0187539F4F2FEB3AE0182F092F989619
:103F30004D915D916D917C919B97FC0141935193C3
:103F400061937193CF0153962A173B0781F788E15C
:103F5000E12FF02FDE01AF51BF4F01900D928A95F6
:103F6000E1F769E1CE0101960E942B0A8FE18A8375
:103F700088E1FE01EF51FF4FC5CEFE01EB59FF4F27
:103F80009F012A5F3F4F41E050E083819091000DF7
:103F9000891709F485C69091140DAFE0BDE089172B
:103FA00009F480C632962E173F0779F7AE968FAD8B
:103FB000AE97AA969FADAA9790936D0E80936E0EC2
:103FC00086E0E5E6F0E0EC0FFD1F3396DE01AC5530
:103FD000BE4F01900D928A95E1F76AE1CE010196FC
:103FE0000E942B0A8DE08A8386E0FE01EC55FE4F8D
:103FF000DE01179601900D928A95E1F7CE010196A8
:104000000E94140ACE0101960E94921D8AE16CCF93
:1040100010916D0E00916E0E612F70E090E080E0C7
:104020000E94B031AB01BC0120E130E081E897E0B3
:104030000E942A13602F70E090E080E00E94B0316F
:10404000AB01BC0120E130E087EA97E00E942A132F
:104050006BE1CE0101960E942B0A8DE08A8381E0FC
:104060008F83188782E089871A8784E08B870C8783
:10407000CE0101960E94140A86CEAA968EAD9FADFF
:10408000AA979093540A8093530AAC968EAD9FAD35
:10409000AC9790935C0A80935B0AAE968EAD9FAD11
:1040A000AE979093610A8093600AE0968EAD9FADC3
:1040B000E0979093660A8093650AE2968EAD9FAD75
:1040C000E29790936B0A80936A0AE4968EAD9FAD57
:1040D000E4979093700A80936F0A8EE0E5E6F0E033
:1040E000EC0FFD1F3396DE01A45ABE4F01900D92D6
:1040F0008A95E1F76EE1CE0101960E942B0A85E1D7
:104100008A838EE0FE01E45AFE4FDE01179601908D
:104110000D928A95E1F7CE0101960E94140ACE0114
:1041200001960E94921D8EE1DFCEE0915B0AF09134
:104130005C0A6091600A7091610A4091650A509131
:10414000660A20916A0A30916B0A80916F0A9091F9
:10415000700AA091530AB091540AC25BDE4FB98332
:10416000A883CE54D140C05BDE4FF983E883C055AD
:10417000D140CE5ADE4F79836883C255D140CC5AA4
:10418000DE4F59834883C455D140CA5ADE4F398324
:104190002883C655D140C85ADE4F99838883C855B5
:1041A000D1406FE1CE0101960E942B0A85E18A83FE
:1041B0008EE0FE01E25BFE4FA5CDADE4BAE0CE019C
:1041C0008F519F4F2FEB3AE0182F092F94964D9166
:1041D0005D916D917C919797FC014193519361930F
:1041E0007193CF0153962A173B0781F788E1E12F9E
:1041F000F02FDE01A753BF4F01900D928A95E1F792
:1042000060E2CE0101960E942B0A8FE18A8388E149
:10421000FE01E753FF4F76CD05E610E00C0F1D1FA2
:104220000D5F1F4FC8010E94180380E1F801DE01F5
:10423000AF5DBE4F01900D928A95E1F762E2CE012B
:1042400001960E942B0A80E1FE01EF5DFE4FDE0128
:10425000179601900D928A95E1F787E18A83CE0146
:1042600001960E94140ACE0101960E94921D82E2DC
:104270003BCE80E1E7EEFAE0DE01A753BF4F0190AD
:104280000D928A95E1F780E1FE01E753FF4FDE01D1
:10429000AF5EBE4F01900D928A95E1F763E2CE01C9
:1042A00001960E942B0A80E1FE01EF5EFE4FDE01C7
:1042B000179601900D928A95E1F787E1F4CC8090F2
:1042C000510A9090520AA090590AB0905A0A8091CF
:1042D0005D0A0E94E0056C018091620A0E94E0057F
:1042E0007C018091670A0E94E0058C0180916C0A34
:1042F0000E94E005C05CDE4F99828882C054D140A4
:10430000CE5BDE4FB982A882C254D140CC5BDE4F77
:10431000D982C882C454D140CA5BDE4FF982E88298
:10432000C654D140C85BDE4F19830883C854D140BE
:10433000C65BDE4F99838883CA54D14065E2CE01C3
:1043400001960E942B0A8EE0FE01E05CFE4FDE012A
:10435000179601900D928A95E1F785E1A4CCA99674
:10436000EFADA997EF77E93108F029C0F0E0882791
:10437000E354FE4D8F4F0C947A30D621072212223F
:10438000122212221D22282233223E224D225A229C
:104390006622DF217F22DF219422A122AC22B722D4
:1043A000C222CD22D822E322F6220523A9968FAD80
:1043B000A99787FF27C08FEE9CE00E94100F809185
:1043C000FD0C9091110D892B80934D0ECE018753DA
:1043D0009F4F0E944E0488E0FE01E753FF4FDE012D
:1043E000AC56BE4F01900D928A95E1F764E2CE0182
:1043F00001960E942B0A8FE08A8388E0FE01EC562A
:10440000FE4F80CC8FEE9CE00E94160FD8CFA9966D
:104410008FADA99787FF03C081EF9CE0CECF81EFDE
:104420009CE0F2CFA9968FADA99787FF03C083EFD9
:104430009CE0C3CF83EF9CE0E7CFA9968FADA9970F
:1044400087FF03C085EF9CE0B8CF85EF9CE0DCCF11
:10445000A9968FADA99787FF03C087EF9CE0ADCFEA
:1044600087EF9CE0D1CFA9968FADA99787FF03C0B6
:1044700089EF9CE0A2CF89EF9CE0C6CFA9964FAD13
:10448000A997441F4427441FAA966FADAA97677047
:1044900085EB9DE00E94A60C92CFA9964FADA997FF
:1044A000441F4427441FAA966FADAA97677081E006
:1044B0009EE0F0CFA9964FADA997441F4427441F13
:1044C000AA966FADAA9767706C5FF1CFA9968FAD72
:1044D000A99787FF05C08BEF9CE00E94E6166FCF7F
:1044E0008BEF9CE00E94880E8091FE0C8111009160
:1044F000FB0C602F8BEF9CE00E94A60D60CFA9966D
:104500008FADA99787FF03C08FE09DE0E6CF8FE0D6
:104510009DE00E94880E8091120D811110910F0D67
:10452000612F8FE09DE0E8CFA9968FADA99787FF17
:1045300003C083E29DE0D1CF83E29DE00E94880E1C
:104540003ECFA9968FADA99787FF03C087E39DE073
:10455000C4CF87E39DE0F2CFA9968FADA99787FFDF
:1045600003C08BE49DE0B9CF8BE49DE0E7CFA99633
:104570008FADA99787FF03C08FE59DE0AECF8FE594
:104580009DE0DCCFA9968FADA99787FF03C083E795
:104590009DE0A3CF83E79DE0D1CFA9968FADA997EA
:1045A00087FF03C087E89DE098CF87E89DE0C6CFEE
:1045B000A9968FADA99787FF03C08BE99DE08DCFAA
:1045C0008BE99DE0BBCFA9968FADA99787FF05C06A
:1045D0008FEA9DE00E940A0FF2CE81E08093B00D39
:1045E00061E08091AF0D0E947605E9CEA9968FAD6E
:1045F000A99787FF03C081EB9DE0ECCF81E080931A
:10460000B20D61E08091B10DEECFA9968FADA99763
:1046100087FF03C083EB9DE0DDCF81E08093B40D85
:1046200061E08091B30DDFCF81E20E9425044C014F
:1046300080E20E9425045C01F0901B0B00911C0B92
:1046400085E40E9425046C0184E40E9425049C01F9
:1046500091E0892809F090E010E090FB10F991E0DA
:10466000AB2809F090E090FB11F991E0CD2809F01A
:1046700090E090FB12F991E0232B09F090E090FB81
:1046800013F9F0FA14F900FB15F966E266CB8BE03A
:10469000E5E6F0E0EC0FFD1F3396DE01AA58BE4FB1
:1046A00001900D928A95E1F7E3968FADE397C0589C
:1046B000DE4F8883C058D1409BE0FE01EA58FE4F90
:1046C000A0E5BEE001900D929A95E1F74091530E5E
:1046D000242F30E03093FC0C2093FB0C3091550ECE
:1046E000632F70E07093100D60930F0D9FE0EEE567
:1046F000FEE0DE01AF5CBE4F01900D929A95E1F7AE
:104700002091500E9091520ECD5CDE4F4883C353E2
:10471000D140CC5CDE4F3883C453D140CB5CDE4FFC
:104720002883C553D140CA5CDE4F9883C653D1401D
:104730003FE0FE01EF5CFE4FAEE5BEE001900D9262
:104740003A95E1F720936D0E90936E0E1092750ED0
:1047500091E090935B0E882341F08BEF9CE00E94E8
:10476000880E8FE09DE00E94880E8BE0E5E6F0E089
:10477000EC0FFD1F3396DE01AF57BE4F01900D9237
:104780008A95E1F76AE2CE0101960E942B0A8BE03E
:10479000FE01EF57FE4FDE01179601900D928A95AC
:1047A000E1F782E18A83CE0101960E94140ACE01CC
:1047B00001960E94921D8AE297CB109249081092AE
:1047C0004A0810924B0810924C0861E08DEC97E07B
:1047D000E2CA61E3CE0101960E942B0A8BE08A8334
:1047E00084E090E0A3E0B1E08F839887A987BA873F
:1047F0003FCC62E3CE0101960E942B0A8BE08A83B4
:1048000087EA94E3A0E0B0E0EFCFE4966CAD7DAD35
:104810008EAD9FADE4970E94B0316B017C01E096B4
:104820006CAD7DAD8EAD9FADE0970E94B0314B0178
:104830005C01AC966CAD7DAD8EAD9FADAC970E942A
:10484000B0316093F70A7093F80A8093F90A909355
:10485000FA0A8092FB0A9092FC0AA092FD0AB0929A
:10486000FE0AC092FF0AD092000BE092010BF09278
:10487000020B8CE0E5E6F0E0EC0FFD1F3396DE0165
:10488000A659BE4F01900D928A95E1F763E3CE01E0
:1048900001960E942B0A83E18A838CE0FE01E6598F
:1048A000FE4FDE01179601900D928A95E1F7CE0139
:1048B00001960E94140ACE0101960E94921D83E384
:1048C00013CB6091FF0A7091000B8091010B9091C6
:1048D000020B0E9481316B017C016091FB0A709197
:1048E000FC0A8091FD0A9091FE0A0E9481314B01E1
:1048F0005C016091F70A7091F80A8091F90A909131
:10490000FA0A0E9481312B013C0164E3CE01019639
:104910000E942B0A83E18A834F82588669867A86B1
:104920008B869C86AD86BE86CF86D88AE98AFA8A2F
:104930009FCBA9968FADA9978983AA968FADAA9789
:104940008A83AB968FADAB978B83AC966FADAC97EC
:104950006C83AD968FADAD978D83AE968FADAE97D0
:104960008E83AF968FADAF978F83E0968FADE09734
:104970008887617085E00E9476056C81669561701C
:1049800086E00E9476056C8162FB662760F984E010
:104990000E9476056C8163FB662760F988E00E94BF
:1049A00076056981617085E30E9476056981669567
:1049B000617084E30E9476056981629561708FE180
:1049C0000E947605698165FB662760F98CE10E948B
:1049D0007605698166FB662760F98BE10E947605A2
:1049E000698167FB662760F98AE10E9476056C8120
:1049F0006295617089E10E9476056C8165FB66278E
:104A000060F988E10E9476056C8166FB662760F993
:104A100087E10E9476056C8167FB662760F98EE16D
:104A20000E9476056D8161708DE10E9476056D8131
:104A30006695617086E10E9476056D8162FB66274E
:104A400060F981E10E9476056D8163FB662760F95C
:104A50008FE00E9476056D81629561708CE00E9406
:104A600076056D8165FB662760F98EE00E9476050C
:104A70006B81617085E20E9476056B81669561703D
:104A800084E20E9476056B8162FB662760F987E20B
:104A90000E9476056B8163FB662760F986E20E94BF
:104AA00076056B816295617089E20E9476056B8163
:104AB00065FB662760F988E20E9476056B8166FBDC
:104AC000662760F98BE20E9476056B8167FB66279B
:104AD00060F98AE20E9476056A8161708CE20E9428
:104AE00076056A81669561708EE20E9476056A811C
:104AF00062FB662760F98DE20E9476056A8163FB9E
:104B0000662760F98FE20E9476056A81629561707E
:104B100081E30E9476056A8165FB662760F980E380
:104B20000E9476056A8166FB662760F983E30E942E
:104B300076056A8167FB662760F982E30E94760545
:104B40006D8166FB662760F987E00E9476056D81BE
:104B500067FB662760F989E00E9476056E816170C7
:104B60008AE00E9476056E81669561708BE00E94F6
:104B70007605C753DF4F1882C95CD040C653DF4F5C
:104B80001882CA5CD040C553DF4F1882CB5CD0403E
:104B9000C453DF4F1882CC5CD040C353DF4F188220
:104BA000CD5CD040C253DF4F1882CE5CD040C153A1
:104BB000DF4F1882CF5CD040C053DF4F1882C05DFA
:104BC000D040CE0187539F4F0E944E0488E0FE01E3
:104BD000E753FF4FDE01A457BE4F01900D928A9517
:104BE000E1F765E3CE0101960E942B0A8FE08A83EC
:104BF00088E0FE01E457FE4F85C8CE0101960E9471
:104C0000880ACE0101960E94921D1092510B6EE10E
:104C10007AE081E79AE00E94401269EF79E084E847
:104C20009AE00E94401264ED79E087E99AE00E94E0
:104C300040126FEA79E080ED9AE00E9440126AE843
:104C400079E08AEA9AE00E94401265E679E08DEB0D
:104C50009AE00E9440128091F50A9091F60AB0E025
:104C6000A0E08093460B9093470BA093480BB09322
:104C7000490B80934A0B90934B0BA0934C0BB09332
:104C80004D0B8DE192E19093500B80934F0B10925E
:104C90004E0B8091510B83608B7F8093510B26C903
:104CA000ABEFBCE013969C911397992309F47AC952
:104CB00015969C911597891375C91B965C934E9315
:104CC0001A97848190E08D939C936CC90C94DD1DA0
:104CD000E8EDF7E084E6DF011D928A95E9F710928E
:104CE00046080C94930A1F920F920FB60F9211244C
:104CF0002F933F938F939F93AF93BF9380913E08E1
:104D000090913F08A0914008B091410830913D0832
:104D100023E0230F2D3758F50196A11DB11D2093D7
:104D20003D0880933E0890933F08A0934008B093BD
:104D300041088091420890914308A0914408B091A5
:104D400045080196A11DB11D809342089093430828
:104D5000A0934408B0934508BF91AF919F918F9164
:104D60003F912F910F900FBE0F901F90189526E83E
:104D7000230F0296A11DB11DD2CF1F920F920FB625
:104D80000F9211240BB60F922F933F934F935F9383
:104D90006F937F938F939F93AF93BF93EF93FF9303
:104DA000E0911E02F0911F021995FF91EF91BF91C2
:104DB000AF919F918F917F916F915F914F913F91B3
:104DC0002F910F900BBE0F900FBE0F901F90189554
:104DD0001F920F920FB60F9211240BB60F922F93C2
:104DE0003F934F935F936F937F938F939F93AF9373
:104DF000BF93EF93FF93E0911C02F0911D02199570
:104E0000FF91EF91BF91AF919F918F917F916F91A2
:104E10005F914F913F912F910F900BBE0F900FBE5E
:104E20000F901F9018951F920F920FB60F9211249A
:104E30000BB60F922F933F934F935F936F937F9394
:104E40008F939F93AF93BF93EF93FF93E0911202E1
:104E5000F09113021995FF91EF91BF91AF919F913E
:104E60008F917F916F915F914F913F912F910F9013
:104E70000BBE0F900FBE0F901F9018951F920F92B0
:104E80000FB60F9211240BB60F922F933F934F93AF
:104E90005F936F937F938F939F93AF93BF93EF93A2
:104EA000FF93E0911002F09111021995FF91EF919B
:104EB000BF91AF919F918F917F916F915F914F9132
:104EC0003F912F910F900BBE0F900FBE0F901F9030
:104ED00018951F920F920FB60F9211240BB60F92D6
:104EE0002F933F934F935F936F937F938F939F93F2
:104EF000AF93BF93EF93FF93E0911A02F0911B02DF
:104F00001995FF91EF91BF91AF919F918F917F91F3
:104F10006F915F914F913F912F910F900BBE0F902A
:104F20000FBE0F901F9018951F920F920FB60F9201
:104F300011240BB60F922F933F934F935F936F9370
:104F40007F938F939F93AF93BF93EF93FF93E091E2
:104F50001802F09119021995FF91EF91BF91AF914D
:104F60009F918F917F916F915F914F913F912F9181
:104F70000F900BBE0F900FBE0F901F9018951F92B1
:104F80000F920FB60F9211240BB60F922F933F93EF
:104F90004F935F936F937F938F939F93AF93BF9341
:104FA000EF93FF93E0911602F09117021995FF918C
:104FB000EF91BF91AF919F918F917F916F915F9191
:104FC0004F913F912F910F900BBE0F900FBE0F90FE
:104FD0001F9018951F920F920FB60F9211240BB6C7
:104FE0000F922F933F934F935F936F937F938F9382
:104FF0009F93AF93BF93EF93FF93E0911402F091CF
:1050000015021995FF91EF91BF91AF919F918F91EB
:105010007F916F915F914F913F912F910F900BBEB8
:105020000F900FBE0F901F9018951F920F920FB602
:105030000F9211240BB60F922F933F934F935F93D0
:105040006F937F938F939F93AF93BF93EF93FF9350
:105050008DE498E00E94DA06FF91EF91BF91AF9145
:105060009F918F917F916F915F914F913F912F9180
:105070000F900BBE0F900FBE0F901F9018951F92B0
:105080000F920FB60F9211240BB60F922F938F939E
:105090009F93EF93FF93E0915D08F0915E0880810C
:1050A000E0916308F091640882FD1DC090818091B9
:1050B00066088F5F8F7320916708821741F0E09137
:1050C0006608F0E0E35BF74F958F80936608FF91E9
:1050D000EF919F918F912F910F900BBE0F900FBE6C
:1050E0000F901F9018958081F2CF1F920F920FB6EC
:1050F0000F9211240BB60F922F933F934F935F9310
:105100006F937F938F939F93AF93BF93CF93EF93BF
:10511000FF938091C10080688093C1008091C1009D
:1051200088608093C100C091C60080915D0B8E7F26
:1051300080935D0B80914608843658F0E8EDF7E0E7
:1051400084E6DF011D928A95E9F7109246080E94D5
:10515000930AE0914608E33020F08091D9078093CC
:10516000480881E08E0F80934608F0E0E852F84F3F
:10517000C0839091480889136BC09091D8079130F3
:1051800009F05AC040EA5FE060E070E040935E0BD7
:1051900050935F0B6093600B7093610B4093620BB5
:1051A0005093630B6093640B7093650B28E636E2B3
:1051B0003093680B2093670B1092660B9091690BEC
:1051C00093609B7F9093690B50E040E090E0BC01BE
:1051D00061507109252F30E0261737073CF428521B
:1051E000384FF9012081420F5F5FF4CF8952984F09
:1051F000DC018C9160E048131CC086E696E20E94B8
:105200007D03109246080E94930AFF91EF91CF917F
:10521000BF91AF919F918F917F916F915F914F91CE
:105220003F912F910F900BBE0F900FBE0F901F90CC
:1052300018958AE69AE0E3CFE8EDF7E084E6DF012F
:105240001D928A95E9F7109246080E94930AD9CFD9
:105250008AE090E0A0E0B0E08093520B9093530B73
:10526000A093540BB093550B8093560B9093570B10
:10527000A093580BB093590B88E696E290935C0B81
:1052800080935B0B10925A0B80915D0B81608D7F38
:105290008B7F80935D0BB7CF1F920F920FB60F924B
:1052A00011240BB60F92FF920F931F932F933F93EE
:1052B0004F935F936F937F938F939F93AF93BF931E
:1052C000CF93DF93EF93FF93C6E4DBE010E000E0C1
:1052D0008CE0F82EF09EF001F19EF00D1124EF5AB3
:1052E000F44F808180FF23C08C819D81AE81BF817E
:1052F0000197A109B1098C839D83AE83BF83892B5C
:105300008A2B8B2BA1F480818460808381FF2DC048
:1053100088819981AA81BB818C839D83AE83BF8361
:1053200089859A85009719F068850E947D030F5F33
:105330001F4F2C960332110569F6FF91EF91DF9113
:10534000CF91BF91AF919F918F917F916F915F911D
:105350004F913F912F911F910F91FF900F900BBE96
:105360000F900FBE0F901F9018958E7F8083D8CF1F
:105370001F920F920FB60F9211240BB60F922F931C
:105380003F934F935F936F937F938F939F93AF93CD
:10539000BF93EF93FF93F0E0E0E01995FF91EF9159
:1053A000BF91AF919F918F917F916F915F914F913D
:1053B0003F912F910F900BBE0F900FBE0F901F903B
:1053C00018951F920F920FB60F9211240BB60F92E1
:1053D0002F933F934F935F936F937F938F939F93FD
:1053E000AF93BF93EF93FF93F0E0E0E01995FF9147
:1053F000EF91BF91AF919F918F917F916F915F914D
:105400004F913F912F910F900BBE0F900FBE0F90B9
:105410001F901895FC0117821086108289E0838303
:1054200081E08483858386831182168A158A8FEFB3
:10543000838B148A7287618708951F93CF93DF93BC
:10544000EC01162F60E0812F0E94A405612F70E00F
:10545000FB01E053FC4FE491E883FB01E657FC4F6E
:10546000E491F0E0EE0FFF1FE059FC4F859194911D
:105470009A8389831B861D861C861A861986188640
:105480001F821E821D821C821B82DF91CF911F9181
:105490000895CF93DF93EC01862F698361E00E942A
:1054A000A405CE01DF91CF910C94100FCF93DF9321
:1054B000EC01862F198218824B836C832D831E8208
:1054C0009FEF998721E030E03B872A872FEF30E07C
:1054D0003B8B2A8B411103C061E00E94A405CE01E1
:1054E000DF91CF910C94E6167F928F929F92AF92AC
:1054F000BF92CF92DF92EF92FF920F931F93CF93C1
:10550000DF93CDB7DEB72F970FB6F894DEBF0FBE8F
:10551000CDBF1092500810924F0888EE93E0A0E0A3
:10552000B0E08093510890935208A0935308B09331
:1055300054088AE392E090934E0880934D0885EDDD
:1055400090E090935A088093590884ED90E09093EE
:105550005C0880935B0880ED90E090935E088093F8
:105560005D0881ED90E09093600880935F0882ED84
:1055700090E0909362088093610886ED90E09093AC
:10558000640880936308109266081092670810926E
:10559000680810926908E6E4FBE08AEE9CE010825D
:1055A000118212821382148215821682178210864B
:1055B0001286118613863C968E179F0781F71092EC
:1055C00062091092630910926409F89480917A003C
:1055D000806880937A007894F89480917A008E7F26
:1055E00080937A0080917A00866080937A00789424
:1055F000F89480917C008F7780937C0080917C0070
:10560000806480937C0078946FE385E39AE00E9445
:105610001D2A65E37AE08EE19AE00E940A2A6EE391
:1056200080E19AE00E941D2A60E17AE089EF99E02A
:105630000E940A2A61E48BEE99E00E941D2A6BEE1B
:1056400079E084ED99E00E940A2A60E486EC99E012
:105650000E941D2A66EC79E08FEA99E00E940A2AEE
:1056600063E481EA99E00E941D2A61EA79E08AE810
:1056700099E00E940A2A62E48CE799E00E941D2AC0
:105680006CE779E085E699E00E940A2A82E090E0E2
:1056900090934E0A80934D0A23E43AE03093500AE7
:1056A00020934F0A9093560A8093550A88E49AE013
:1056B0009093580A8093570A88E380935D0A10926A
:1056C0005F0A10925E0A84E190E09093610A8093F1
:1056D000600A2BE32093620A1092640A1092630A14
:1056E0009093660A8093650A2AE32093670A1092D2
:1056F000690A1092680A90936B0A80936A0A2DE3F4
:1057000020936C0A10926E0A10926D0A9093700AA0
:1057100080936F0AE1E7FAE083EE9AE0108211824B
:1057200012821382148215821682178273968E1744
:105730009F07A1F705E00093090B10920A0B109246
:105740000B0B10920C0B10920E0B10920D0B109273
:10575000130B1092140B1092160B1092150B109243
:105760001B0B10921C0B10921D0B8AE090E0909383
:10577000100B80930F0B9093120B8093110B8FE003
:1057800090E09093180B8093170B90931A0B8093D3
:10579000190B18E01093E50A8EE19BE090933F0B04
:1057A00080933E0B80E28093400B1092410B10924D
:1057B000420B1092430B1092450B1092440B109227
:1057C000EB0C1092EA0C1092EC0C1092EE0C109272
:1057D000ED0C65E38FEE9CE00E94492A64E381EFC3
:1057E0009CE00E94492A6FE183EF9CE00E94492AD5
:1057F0006CE185EF9CE00E94492A6BE187EF9CE019
:105800000E94492A6AE189EF9CE00E94492A21E02E
:1058100041E065E08BEF9CE00E94562A24E041E0E5
:1058200064E08FE09DE00E94562A23E040E069E1B9
:1058300083E29DE00E94562A26E040E068E187E38B
:105840009DE00E94562A27E040E067E18BE49DE05E
:105850000E94562A28E040E06EE18FE59DE00E941C
:10586000562A29E040E06DE183E79DE00E94562A38
:105870002AE040E066E187E89DE00E94562A2BE09E
:1058800040E061E18BE99DE00E94562A8FE0782E8E
:105890007092AF0D1092B00D61E08FE00E94A405F0
:1058A0008FEA9DE00E940A0F8CE08093B10D109268
:1058B000B20D61E00E94A40581EB9DE00E940A0FF9
:1058C0008EE08093B30D1092B40D61E00E94A405A8
:1058D00083EB9DE00E940A0FECE4F2E0F093B60D3A
:1058E000E093B50D86E592E09093B80D8093B70DE7
:1058F0001093B90D82EB9BE09093BB0D8093BA0D92
:105900008AE498E19093BD0D8093BC0D1092BE0D7A
:105910001092C00D1092BF0D1092C20D1092C10DC9
:105920001092C40D1092C30D1092D10D1092D20D91
:105930001092D30D1092D40D1092DD0D1092DE0D49
:105940001092E00D1092DF0D1092E40D1092E30D15
:105950001092E50D1092E60D1092E70D1092E80DF1
:105960009DEC892E9CEC992EA92C9DE3B92E80925A
:10597000D90D9092DA0DA092DB0DB092DC0D24E6E9
:10598000C22ED12CE12CF12CC092D50DD092D60D87
:10599000E092D70DF092D80D40E050E060EA70E45C
:1059A0004093C50D5093C60D6093C70D7093C80DFD
:1059B00080E090E0A0E4B0E48093C90D9093CA0D1C
:1059C000A093CB0DB093CC0D8093CD0D9093CE0DC5
:1059D000A093CF0DB093D00D1092EC0D1093F40D59
:1059E0001092F50D1092FE0D1092F60D1092F70D1B
:1059F0001092F80D1092F90D1092FA0D1092FB0D05
:105A00001092FC0D1092FD0D1092FF0D1092000EE1
:105A100028E030E03093E20D2093E10DF093020E88
:105A2000E093010EEEE4F2E0F093040EE093030E37
:105A30001093050EE6EAFBE0F093070EE093060EE6
:105A4000E4E4F9E1F093090EE093080E10920A0ED7
:105A500010920C0E10920B0E10920E0E10920D0E54
:105A60001092100E10920F0E10921D0E10921E0E1C
:105A700010921F0E1092200E1092290E10922C0ED2
:105A800010922B0E1092300E10922F0E1092310E9B
:105A90001092320E1092330E1092340E8092250E18
:105AA0009092260EA092270EB092280EC092210E40
:105AB000D092220EE092230EF092240E4093110E0B
:105AC0005093120E6093130E7093140E8093150E64
:105AD0009093160EA093170EB093180E8093190E84
