:100000000C9433020C9486280C945B280C943028B2
:100010000C9405280C94DA270C94AF270C948427B1
:100020000C9459270C9464020C9464020C9464029E
:100030000C9464020C9464020C9464020C946402A8
:100040000C9464020C9464020C9464020C94640298
:100050000C9464020C9464020C9464020C940F27B8
:100060000C9464020C9411290C9464020C946402A4
:100070000C94542A0C947D2A0C9464020C9464020F
:100080000C9464020C9464020C9464020C94640258
:100090000C9464020C9464020C9464020C94640248
:1000A0000C9464020C9464020C9464020C94640238
:1000B0000C9464020C9464020C9464020C94E8297D
:1000C0000C9464020C9464020C9464020C94DB287B
:1000D0000C94B1280C9464020C9464020C94640295
:1000E0000C9464020C94AF220C942B1F0C94140EED
:1000F0000C94380E0C94C6060C94BC1C0C94F5227F
:100100000C942D1D0C94E3230C9407220C94F10DF8
:100110000C94B21C0C9432150C94D81A0C94E41262
:100120000C9465200C9467060C94611F0C94301D90
:100130000C94591A0C9402270C9407040C94FD0398
:100140000C94EB1A0C949A230C945A170C94561F87
:100150000C945F230C940E230C9457220C9487224A
:100160000C946E170C94102B0C94E1210C94D41861
:100170000C9457060C94000E0C94EA150C94C71AB4
:100180000C94FE060C945B0E0C94091F0C94BA227E
:100190000C9414190C94F9030C941F040C94492327
:1001A0000C94ED090C944B070C9410160C948524B8
:1001B0000C946A230C9454230C9499260C94E80D07
:1001C0000C9435250C94FC1A0C94B4210C949524B1
:1001D0000C9402230C94EC030C9413170C940A0D4A
:1001E0000C94890F0C94880E0C94E8030C94A124B1
:1001F0000C940A0E0C940B040C943C230C944A1897
:100200000C949B1D0C94B0200C94510E0C949A1AD3
:100210000C94B8060C9479240C9427230C945F1743
:100220000C942A1D0C94AB170C9419040C94DB1F2E
:100230000C9404270C94240E0C94C0090C947E2278
:100240000C94F0030C9436200C94B0230C946806A4
:100250000C941E200C94C5220C94E5200C9461187B
:100260000C94E61A0C94420E0C948B1A0C94110404
:100270000C9478170C94F41A0C947D1B0C941504B0
:100280000C9464170C94F31D0C9495060C94830E37
:100290000C948B230C94FD240C942E0E0C94E622CB
:1002A0000C943D210C941E040C94F71E0C94701FAA
:1002B0000C9485210C942D1B0C945E0C0C94431B08
:1002C0000C94E31E0C9480230C94F3030C94A50966
:1002D0000C94F60D0C94A61C0C94A4060C94230408
:1002E0000C94A5230C941C0E0C946F0E0C94490DC9
:1002F0000C94D0220C94E4030C9403040C944C1F33
:100300000C940E110C94790E0C946C0A0C94DB2254
:100310000C94DE030C945F060C946A1F0C94650E1B
:100320000C947523005EBCE2613FDD83C29C7E209D
:10033000A3FD1F41009D23BE46DB65F88C11AF3243
:10034000CA57E97400002100240027002A002D006C
:100350003000330001010000040107010A01000020
:100360002200250028002B002E003100340002015D
:100370000000050108010B010000200023002600F9
:1003800029002C002F0032000001000003010601AB
:10039000090105050505070508080808020202020B
:1003A0000A0A080804040404010101010101010111
:1003B0000303030303030303040707070C0C0C0CDC
:1003C0000C0C0C0C020202020606060606060606C5
:1003D0000B0B0B0B0B0B0B0B010210202008081052
:1003E00020401020408002010201080402010102A5
:1003F000040810204080804020100804020180047E
:1004000002018040201008040201080402010102D8
:1004100004081020408001020408102040800000E1
:100420000A0B02090C0D0E0807030401000000006E
:1004300000000000000000000000000000000000BC
:100440000000000000000000000012111000000079
:10045000000000000000000000000000000000009C
:1004600000000000102B11241FBECFEFD1E2DEBF31
:10047000CDBF00E00CBF18E0A0E0B2E0E0E0F7E69E
:1004800000E00BBF02C007900D92A438B107D9F766
:100490002FE0A4E8B8E001C01D92AA34B207E1F74A
:1004A00012E0C3E3D2E000E006C021970109802FEB
:1004B000FE010E941631C233D10780E00807A9F778
:1004C0000E94A42E0C947E330C940000E9EFF8E017
:1004D000A089B18982E08C93A485B5851C92A685FC
:1004E000B78580E18C93108EA489B58986E08C93C2
:1004F000A289B3898C9180618C93A289B3898C91F4
:1005000088608C93A289B3898C9180688C930288CF
:10051000F389E02D80818F7D808308958091BC0DCB
:10052000882311F181E090E09093BB0D8093BA0D88
:1005300010923F0F1092410F1092400F1092450FF2
:100540001092430F1092420F1092440F8091320F7D
:1005500080933D0F8091330F80933E0F1092480F90
:100560001092470F1092490F08959CEF980F933007
:1005700018F08B3009F05EC08091C70B811104C068
:100580008091C80B882341F01092590D80914D0D38
:1005900080FF2CC080E0089510924D0D9091590D70
:1005A00090FDF8CF92FDF6CF48EE53E060E070E0AA
:1005B00040934E0D50934F0D6093500D7093510D1D
:1005C0004093520D5093530D6093540D7093550DFD
:1005D0002AE438E13093580D2093570D1092560DB0
:1005E00091609D7F9B7F9093590D089582FDD2CF9E
:1005F00048EE53E060E070E04093420D5093430DAD
:100600006093440D7093450D4093460D5093470DF4
:100610006093480D7093490D22E335E130934C0D02
:1006200020934B0D10924A0D81608D7F8B7F8093BC
:100630004D0DB0CF81E00895CF93DF93FC01C3E966
:10064000DBE090E1DE0101900D929A95E1F7809157
:100650009F0B9091A00BB0E0A0E0E2EFFBE0809355
:10066000B20C9093B30CA093B40CB093B50C8093E0
:10067000B60C9093B70CA093B80CB093B90C8EE560
:100680009CE09093BC0C8093BB0C1092BA0CADEB29
:10069000BCE08C9183608B7F8C938091A10B9091B7
:1006A000A20BB0E0A0E080839183A283B383848314
:1006B0009583A683B78384EE92E192878187108623
:1006C000EDEFFBE0808183608B7F8083EAEBFDE0D0
:1006D000D0931F0FC0931E0F88819981968F858FAD
:1006E00092AB81AB84E690E09093060F8093050F68
:1006F0009093BA0E8093B90EDF91CF9108959C012B
:100700004FB7F8948091100AE0910F0A81111CC034
:1007100081E08E0F80930F0A93E0E99FF00111248E
:10072000EA56F64F318320836283883211F41092A7
:100730000F0A90910F0A80910E0A981303C081E06E
:100740008093100A4FBF089590910E0A9F5F9832D0
:10075000A1F090930E0A91E09E0F90930F0A83E010
:10076000E89FF0011124EA56F64F3183208362831B
:10077000983241F710920F0AE5CF10920E0AEBCF94
:100780008150823108F05AC0E82FF0E08827E45306
:10079000FC4F8F4F0C941631EC03F003DE03E4039F
:1007A000E8031E04F303F903FD03030407040B0429
:1007B000110415041E0419041F04230480918000F1
:1007C0008F77809380000895809180008F7DF9CF8E
:1007D00080918000877FF5CF84B58F7784BD0895A1
:1007E00084B58F7DFBCF8091B0008F778093B00070
:1007F00008958091B0008F7DF9CF809190008F7720
:10080000809390000895809190008F7DF9CF809122
:100810009000877FF5CF8091A0008F778093A00014
:1008200008958091A0008F7DF9CF8091A000877FEF
:10083000F5CF809120018F778093200108958091DA
:1008400020018F7DF9CF80912001877FF5CFCF9355
:10085000DF93282F30E0F901E25EFB4F8491F9012C
:10086000E852FC4FD491F901EE56FC4FC491CC23D1
:10087000A1F081110E94C003EC2FF0E0EE0FFF1FEA
:10088000E858FC4FA591B491EC91ED2381E090E004
:1008900009F480E0DF91CF91089580E090E0FACFF5
:1008A0000F931F93CF93DF93EC01188219821A8262
:1008B0001B821C821D821E821F828FE00E942704E1
:1008C0009C8180FB93F99C838CE00E9427049C818F
:1008D00080FB94F99C838EE00E9427049C8180FB1E
:1008E00095F99C830AEB1DE08B81F801938990FBBD
:1008F00080F98B8386E00E9427049B8180FB91F91D
:100900009B8389E10E9427049B8180FB94F9F80175
:1009100087A180FB92F99B8388E00E9427049B813A
:1009200080FB93F99B8388E10E9427049B8180FBD5
:1009300095F99B8387E10E9427049B8180FB96F9B0
:100940009B838EE10E9427049B8180FB97F99B8308
:100950008DE10E9427049C8180FB90F99C8386E1B5
:100960000E9427049C8180FB91F99C8381E10E9475
:1009700027049C8180FB92F99C838CE20E942704CF
:10098000998180FB90F999838EE20E9427049981D6
:1009900080FB91F999838DE20E942704998180FB65
:1009A00092F999838FE20E942704998180FB93F941
:1009B000998381E30E942704998180FB94F99983AC
:1009C00080E30E942704998180FB95F9998383E352
:1009D0000E942704998180FB96F9998382E30E9403
:1009E0002704998180FB97F9998385E20E94270467
:1009F0009A8180FB90F99A8384E20E9427049A816D
:100A000080FB91F99A8387E20E9427049A8180FBF8
:100A100092F99A8386E20E9427049A8180FB93F9D7
:100A20009A8389E20E9427049A8180FB94F99A8331
:100A300088E20E9427049A8180FB95F99A838BE2D1
:100A40000E9427049A8180FB96F99A838AE20E9489
:100A500027049A8180FB97F99A8384E30E942704F4
:100A6000988180FB91F9988385E30E9427049881FF
:100A700080FB90F998838CE10E942704988180FB89
:100A800095F998838FE10E942704988180FB94F95F
:100A900098838AE10E942704988180FB97F99883C4
:100AA0008BE10E942704988180FB96F9988387E068
:100AB0000E9427049C8180FB96F99C8389E00E9418
:100AC00027049C8180FB97F99C838AE00E9427047D
:100AD0009D8180FB90F99D838BE00E9427049D817E
:100AE00080FB91F99D83DF91CF911F910F91089524
:100AF0001F93CF93DF93282F30E0F901E25EFB4F85
:100B00008491F901E852FC4FD491F901EE56FC4F63
:100B1000C491CC23A9F0162F81110E94C003EC2FA1
:100B2000F0E0EE0FFF1FE25AFC4FA591B4918FB792
:100B3000F894EC91111108C0D095DE23DC938FBF9F
:100B4000DF91CF911F910895DE2BF8CFCF93DF93E4
:100B500090E0FC01E852FC4F24918E569C4FFC0122
:100B600084918823C9F090E0880F991FFC01EC5B09
:100B7000FC4FA591B491FC01E25AFC4FC591D49170
:100B800061110DC09FB7F8948C91209582238C93AE
:100B90008881282328839FBFDF91CF9108956230F9
:100BA00051F49FB7F8943C91822F809583238C93C6
:100BB000E8812E2BEFCF8FB7F894EC912E2B2C934E
:100BC0008FBFEACF863308F0865320917B00982FA1
:100BD0009870277F922B90937B008770806480931E
:100BE0007C0080917A00806480937A0080917A0002
:100BF00086FDFCCF809178009091790008953FB7F1
:100C0000F8948091EE089091EF08A091F008B091CF
:100C1000F10826B5A89B05C02F3F19F00196A11D2C
:100C2000B11D3FBFBA2FA92F982F8827BC01CD0136
:100C3000620F711D811D911D42E0660F771F881F95
:100C4000991F4A95D1F708958F929F92AF92BF92C4
:100C5000CF92DF92EF92FF926B017C010E94FF0521
:100C60004B015C01C114D104E104F104B9F00E940C
:100C7000FF05681979098A099B09683E7340810557
:100C8000910580F321E0C21AD108E108F10888EE4D
:100C9000880E83E0981EA11CB11CE4CFFF90EF905A
:100CA000DF90CF90BF90AF909F908F900895EFEE20
:100CB000FAE0838194810196948383830895EFEE13
:100CC000FAE080859185019691878087089508953F
:100CD000AF92BF92CF92DF92EF92FF920F931F934A
:100CE000CF93DF936C017B018B01040F151FEB0188
:100CF0005E01AE18BF08C017D10759F06991D6013F
:100D0000ED91FC910190F081E02DC6011995892BA0
:100D100079F7C501DF91CF911F910F91FF90EF906F
:100D2000DF90CF90BF90AF900895FC01538D448D1C
:100D3000252F30E0842F90E0821B930B541710F086
:100D4000CF96089501970895FC01918D828D981793
:100D500061F0A28DAE0FBF2FB11D5D968C91928D6B
:100D60009F5F9F73928F90E008958FEF9FEF08959C
:100D7000FC01918D828D981731F0828DE80FF11D65
:100D8000858D90E008958FEF9FEF0895FC01918D80
:100D9000228D892F90E0805C9F4F821B91098F7379
:100DA0009927089589EF98E00E94C60621E0892BD3
:100DB00009F420E0822F0895FC01A48DA80FB92F1B
:100DC000B11DA35ABF4F2C91848D90E001968F7373
:100DD0009927848FA689B7892C93A089B1898C9192
:100DE000837080648C93938D848D981306C00288E1
:100DF000F389E02D80818F7D80830895EF92FF92AB
:100E00000F931F93CF93DF93EC0181E0888F9B8D2D
:100E10008C8D98131AC0E889F989808185FF15C0E7
:100E20009FB7F894EE89FF896083E889F98980810A
:100E30008370806480839FBF81E090E0DF91CF91D9
:100E40001F910F91FF90EF900895F62E0B8D10E0FB
:100E50000F5F1F4F0F731127E02E8C8D8E110CC06A
:100E60000FB607FCFACFE889F989808185FFF5CFB5
:100E7000CE010E94DC06F1CFEB8DEC0FFD2FF11DB2
:100E8000E35AFF4FF0829FB7F8940B8FEA89FB89F2
:100E900080818062CFCFCF93DF93EC01888D882350
:100EA000B9F0AA89BB89E889F9898C9185FD03C0CD
:100EB000808186FD0DC00FB607FCF7CF8C9185FFB2
:100EC000F2CF808185FFEDCFCE010E94DC06E9CF15
:100ED000DF91CF91089580E090E0892B49F080E088
:100EE00090E0892B29F00E94000081110E940000EF
:100EF00080E090E0892B49F080E090E0892B29F098
:100F00000E94000081110E94000080E090E0892B87
:100F100029F00E94D20681110E94000080E090E03A
:100F2000892B49F080E090E0892B29F00E94000095
:100F300081110C9400000895DC0180E0615090F074
:100F40009D919827E92FEF70F0E0EC5DFC4F249124
:100F5000E92FE295EF70F0E0EC5CFC4FE491822F1A
:100F60008E27ECCF0895DC012C911196ED91FC9128
:100F7000F8948181822B81839281322F3095932343
:100F8000928387E090E00197F1F781818323818349
:100F900083E290E00197F1F790817894EFECF0E034
:100FA0003197F1F7922381E009F480E00895FC0184
:100FB00090810180F281E02D292F209560FF14C0DF
:100FC000F8948281822382838181892B8183A3E2A9
:100FD000B0E01197F1F78281982B9283789487ED96
:100FE00090E00197F1F70895F8948281822382833B
:100FF0008181892B8183AFEFB0E01197F1F7828176
:10100000982B928378948FE090E0EBCFDF92EF9271
:10101000FF920F931F93CF93DF93EC01D62EE42E14
:1010200008E010E0FF24F39461E08D2D8F2109F496
:1010300060E0CE010E94D707FF0C01501109A1F713
:10104000E11010C0F894E981FA819181888180953E
:1010500089238183E981FA8192818881809589231E
:1010600082837894DF91CF911F910F91FF90EF9041
:10107000DF900895EF92FF920F931F93CF93DF932A
:101080008C017B0140E065E50E940608E70188E0ED
:10109000E80EF11C699140E0C8010E940608CE15D7
:1010A000DF05C1F7DF91CF911F910F91FF90EF9076
:1010B0000895FC0190810180F281E02DF8948181F6
:1010C000292F20958223818378943DE743E050E0E7
:1010D000315029F1DA011197F1F780818923C1F3A9
:1010E000F8948281822382838181892B8183789401
:1010F000ABE7B7E01197F1F7F89481818223818300
:10110000A3E1B1E01197F1F78081982381E009F024
:1011100080E07894E3E6F6E03197F1F7089580E017
:1011200008958F929F92AF92BF92CF92DF92EF92EB
:10113000FF920F931F93CF93DF9300D01F921F92C4
:10114000CDB7DEB78C01DC0119968D919C910E9480
:10115000590840E06CECF801818592850E940608F0
:10116000D8014C9164E419968D919C910E940608D7
:101170008FB7F894C090EA08D090EB08E090EC08A4
:10118000F090ED088FBFF8018481811120C081E0CB
:101190008983CA82DB82EC82FD8229813A814B817C
:1011A0005C816D8170E080E090E00F900F900F9077
:1011B0000F900F90DF91CF911F910F91FF90EF90C3
:1011C000DF90CF90BF90AF909F908F9008958581D2
:1011D0008823F9F0808181111CC0F80181859285F6
:1011E0000E94B307813099F22FB7F8948091EA08F2
:1011F0009091EB08A091EC08B091ED082FBF8C19ED
:101200009D09AE09BF098E3E9240A105B10528F3A4
:10121000BECFD8011396EC91E9508EEE92E0E33008
:1012200038F4F0E0EE0FFF1FE05DFD4F808191810B
:101230004C01B12CA12CF8018181882321F060E0C0
:1012400082810E947805C501B4010E942406D8015C
:1012500011968C911197882309F499CF61E0129629
:101260008C910E94780593CF4F925F926F927F92FC
:101270008F929F92AF92BF92CF92DF92EF92FF92A6
:101280000F931F93CF93DF938C017B01EA01FC0145
:10129000818592850E9459088823D9F1B701F80108
:1012A000818592850E943A0840E06EEBF8018185C5
:1012B00092850E9406086E015E01F9E0AF0EB11C36
:1012C0007E01F8018184928488E0682E712C512C73
:1012D00044244394C4010E94B30781115428440C50
:1012E000F1E06F1A7108B1F7F70151927F01AE1664
:1012F000BF0639F7F801818592850E94590881302F
:1013000041F4F60181916F01811105C0EE15FF05D1
:10131000C1F790E008C068E0CE010E949C0791E010
:1013200028852813F6CF892FDF91CF911F910F9138
:10133000FF90EF90DF90CF90BF90AF909F908F90F5
:101340007F906F905F904F900895E9EFFAE0A2814F
:10135000B38113968D919C91149714961C921E92B2
:10136000139795838483A285B38513968D919C9161
:10137000149714961C921E9213979587848708954C
:101380002091FD0A3091FE0A8091FF0A9091000B96
:1013900028173907C0F081E090E09093FA0A809313
:1013A000F90A2091050B3091060B8091070B909163
:1013B000080B2817390760F081E090E09093020B4A
:1013C0008093010B08951092FA0A1092F90AE9CF5E
:1013D0001092020B1092010B08951092450CE5EF4C
:1013E000F8E08081877F80830895CF93DF93A0E02A
:1013F000B2E0FD0190E0219131912817390721F4E5
:10140000EF0122971982188222E0E031F20799F762
:101410008D919D91892B41F482E0A031B807C1F7ED
:1014200081E0DF91CF91089580E0FBCFFC01218125
:101430002150330B70E060E0472F50E04217530714
:101440003CF4480F591FFA014081640F7F5FF4CFCD
:10145000820F931FFC0160830895FC0181E080836B
:10146000658385E082838091910BA0E0B2E020E16A
:1014700032E04D915D91452BC1F42A173B07C9F726
:1014800091E0877F90FF88608383F8949091EF0BC1
:101490008091EE0B91110BC09091ED0B981307C04A
:1014A0007894148287E08183089590E0EACF90E0F9
:1014B000A091EA0BB091EB0BA80FB91F2C910196EC
:1014C0006091EC0B70E00E9402318093EE0B109261
:1014D000EF0B78942483E6CFCF93DF93CDB7DEB7BD
:1014E000C456D1090FB6F894DEBF0FBECDBF66E07B
:1014F000CE0101960E942D0ACE0101960E94160A85
:10150000CC59DF4F0FB6F894DEBF0FBECDBFDF91D1
:10151000CF910895CF93DF93EC0167E00E942D0AED
:10152000CE01DF91CF910C94160AE1ECF0E08081BE
:101530008068808308951F93CF93DF93EC01198611
:101540001EAAFC01E05CFF4F10829FAD319680E047
:10155000981719F011928F5FFBCFFE01E55BFF4FEB
:1015600010823197108210E08FAD181750F4EA8185
:10157000FB81E10FF11D60E080810E9478051F5F13
:10158000F3CFDF91CF911F910895CF93DF93EC01BB
:101590000E949B0AED81FE812F8138858CA99DA92F
:1015A000B0E0A0E080839183A283B383848395839A
:1015B000A683B783328721878BE08087838581600C
:1015C0008D7F8B7F8387DF91CF9108953F924F92DC
:1015D0005F926F927F928F929F92AF92BF92CF92C3
:1015E000DF92EF92FF920F931F93CF93DF9300D080
:1015F00000D0CDB7DEB79E838D83062F10E08FB766
:10160000F894C090EA08D090EB08E090EC08F090D5
:10161000ED088FBFED81FE8180A991A9A2A9B3A990
:10162000C81AD90AEA0AFB0AC701B6010E944C325D
:1016300020E030E04AE754E40E94A431AD81BE814D
:1016400094966D937D938D939C939797FD01C0A283
:10165000D1A2E2A2F3A22FB7F8948091EA08909168
:10166000EB08A091EC08B091ED082FBFED81FE8151
:1016700080AB91ABA2ABB3AB158704876285738552
:10168000601B710BE6A4F7A4E01AF10A17A706A7DE
:1016900081A5882331F0719561957109F194E194E8
:1016A000F108AD81BE8198963C90072E000C880B06
:1016B000990B0E944E324B015C0110E000E03110AA
:1016C0000BC0ED81FE8120893189428953890E94B6
:1016D00003330E9416328B01B701FF0C880B990B64
:1016E0000E944E326B017C01AD81BE8194968D913A
:1016F0009D910D90BC91A02D89839A83AB83BC836F
:10170000ED81FE81208D318D428D538DC701B60153
:101710000E94033329813A814B815C810E94A4316C
:101720002B013C01B801110F880B990B0E944E321E
:101730009B01AC01C301B2010E9433310E941632F9
:101740002B01AD81BE811F967C936E931E9754969C
:101750002D913D914D915C915797C501B4010E9427
:10176000033329813A814B815C810E940333ED81EF
:10177000FE81248D358D468D578D0E9433314B016E
:101780005C01AD81BE815C968D929D92AD92BC92C2
:101790005F973320A1F050962D913D914D915C9132
:1017A0005397C701B6010E940333A50194010E941B
:1017B0003331ED81FE81648F758F868F978FAD8178
:1017C000BE815C968C905C975D969C905D975E96D2
:1017D000AC905E975F96BC905F979A960D911C9126
:1017E000B801012E000C880B990B0E944E326B0140
:1017F0007C019B01AC01B401C5010E949F3187FDB2
:1018000016C0ED81FE8164A575A5072E000C880B1E
:10181000990B0E944E326B017C019B01AC01B4011B
:10182000C5010E94FE32181614F064017501C6014C
:10183000D701ED81FE81848F958FA68FB78FB2017E
:10184000550C880B990B0E944E329601A7010E94FD
:1018500033310E941632601771074CF0AD81BE81A2
:101860009C960D911C91601771070CF48B01ED8112
:10187000FE811787068706ABE55BFF4FAD81BE8112
:1018800014968C91081708F4802F808326960FB643
:10189000F894DEBF0FBECDBFDF91CF911F910F91A6
:1018A000FF90EF90DF90CF90BF90AF909F908F9080
:1018B0007F906F905F904F903F900895CF93DF930C
:1018C000CDB7DEB768970FB6F894DEBF0FBECDBFB9
:1018D000E9EFFAE0DE01119644A155A166A177A1D6
:1018E0004D935D936D937D9373968BE0EB36F80784
:1018F00099F780918E0E882351F069817A818B81CE
:101900009C810E941D3285E89EE00E94E60A80913B
:10191000DA0E882391F069817A818B819C810E9403
:101920001D3281ED9EE068960FB6F894DEBF0FBEC3
:10193000CDBFDF91CF910C94E60A68960FB6F8946C
:10194000DEBF0FBECDBFDF91CF910895E62FDC0142
:1019500014962C911497621758F461E0642712963C
:101960008D919C91E80FF92FF11D80810C947805E1
:101970000895CF92DF92EF92FF920F931F93CF9330
:10198000DF9300D000D01F921F92CDB7DEB7FC01CD
:101990008E010F5F1F4F88E0D8011D928A95E9F7ED
:1019A0004285C180E0802E2D30E0842FF12CDD2493
:1019B000D394CF100EC0CF010296B801562F501B02
:1019C0005E1590F4DB015D91BD01DC015D93CD01FD
:1019D000F5CF90E0D801A80FB91FDC920196B901AC
:1019E0000E940231F394E5CF842F90E00196B90173
:1019F0000E940231828728960FB6F894DEBF0FBE90
:101A0000CDBFDF91CF911F910F91FF90EF90DF90AD
:101A1000CF9008951F93CF93DF93FC018185882396
:101A2000A1F1DF01A65BBF4F9C91EF01C55BDF4FCA
:101A30008881981730F59F5F9C939F01205C3F4FF2
:101A400097AD8C91981708F4892FEF01F9018083E5
:101A5000CE01CF960E94B90C10E08FAD1817A8F4F4
:101A6000812F90E0DE01A80FB91FAF5BBF4FEA8165
:101A7000FB81E80FF91F6C9180810E9478051F5F40
:101A8000ECCF8917D0F69150D7CFDF91CF911F912E
:101A9000089585E89EE00E940A0D81ED9EE00C9479
:101AA0000A0DEF92FF921F93CF93DF93EC0110E0AA
:101AB0008C811817A0F4E12EF12CEA81FB81EE0D48
:101AC000FF1D61E080810E94A605EA81FB81EE0D89
:101AD000FF1D60E080810E9478051F5FE9CFFE0155
:101AE000E05CFF4F1082CE01CF96DF91CF911F9126
:101AF000FF90EF900C94B90C81E20E94270421E042
:101B0000892B09F420E0822F0895FC01818186173A
:101B100099F0618381E090E09383828380818617CE
:101B200051F0662381F084819581228133812817C9
:101B3000390708F060830895828193818F3F980769
:101B400069F30196E9CF86819781EFCF0F931F93B9
:101B5000CF93DF93FC012281222309F43DC0162F8D
:101B6000C62FD0E0048161E0802F0E94A605209757
:101B700041F460E0802FDF91CF911F910F910C9481
:101B80007805CF3FD10511F461E0F4CFE02FF0E00C
:101B9000E25EFB4FE491E150E23108F0B4C0F0E0C6
:101BA0008827EA52F24F8F4F0C941631E80DF10D51
:101BB000F60D000E0A0E830E140E1C0E240E2E0EB1
:101BC000380E420E510E5B0E830E650E6F0E790EAF
:101BD00084B5806884BD17BDDF91CF911F910F91AF
:101BE000089584B5806284BD18BDF6CF80918000D1
:101BF000806880938000D0938900C0938800ECCFE8
:101C000080918000806280938000D0938B00C0938D
:101C10008A00E2CF80918000886080938000D0931A
:101C20008D00C0938C00D8CF8091B00080688093E5
:101C3000B0001093B300D0CF8091B0008062809349
:101C4000B0001093B400C8CF80919000806880935A
:101C50009000D0939900C0939800BECF80919000DF
:101C6000806280939000D0939B00C0939A00B4CF81
:101C700080919000886080939000D0939D00C093E5
:101C80009C00AACF8091A00080688093A0008091E2
:101C9000A0008F7B8093A000D093A900C093A800E0
:101CA0009BCF8091A00080628093A000D093AB0076
:101CB000C093AA0091CF8091A00088608093A0007B
:101CC000D093AD00C093AC0087CF80912001806895
:101CD00080932001D0932901C09328017DCF80916A
:101CE0002001806280932001D0932B01C0932A01B0
:101CF00073CF80912001886080932001D0932D01C3
:101D0000C0932C0169CFC038D1050CF03DCF31CF45
:101D10000F931F93CF93DF9383E20E9427048C01DC
:101D200082E20E942704EC0161E0012B09F460E0EB
:101D300087EB9BE00E94850D61E0CD2B09F460E00C
:101D40008FEB9BE00E94850D8091B70B8093C70BB2
:101D50009091BF0B9093C80B23E0911103C021E039
:101D6000811122E02093C90B2091CD0D222349F14E
:101D70002091E10D222329F120911D0F211121C075
:101D80009923B1F080912F0F80933E0F10923D0F59
:101D900060913D0F8BEC9DE00E94A60D60913E0F7F
:101DA0008FED9DE0DF91CF911F910F910C94A60DC7
:101DB0008111EECF80912E0F80933D0F10923E0F38
:101DC000E7CFDF91CF911F910F910895CF93DF93CC
:101DD000EC018A8181111EC081E08A838B8181118F
:101DE00017C08C81813171F48091D0008064809320
:101DF000D0008091D100877E8093D10061E081E1A5
:101E00000E94A60561E08C81DF91CF910C9478054A
:101E100088818987DF91CF910895CF93DF93EC017B
:101E2000862F68835A8349831C821B8262E00E944A
:101E3000A60529813A819881923069F43093110284
:101E40002093100280916A00836080936A00EC9A6C
:101E5000DF91CF910895933059F43093130220937A
:101E6000120280916A008C6080936A00ED9AF0CF34
:101E70008EEE890F843060F787E1891BE82FF0E050
:101E8000EE0FFF1FE05FFD4F31832083843091F020
:101E90008530B9F0833039F0809169008360809398
:101EA0006900E89AD5CF809169008C6080936900C1
:101EB000E99ACECF80916900806380936900EA9AA5
:101EC000C7CF80916900806C80936900EB9AC0CF86
:101ED000FC01118260E080810C94780521E0FC0116
:101EE000218361E080810C947805FC01108260E020
:101EF00081810C94780521E0FC01208361E08181DF
:101F00000C947805FC01208121110C94750F0C9420
:101F10007B0F90E0009769F583EC9DE00E94820FB3
:101F200085EC9DE00E94820F84EF91E0A0E0B0E09C
:101F30008093A20D9093A30DA093A40DB093A50D33
:101F40008093A60D9093A70DA093A80DB093A90D13
:101F500089E89FE09093AC0D8093AB0D81E0809376
:101F6000AA0D8091AD0D81608D7F8B7F8093AD0D2B
:101F70000895019721F48FED9DE00C94E60E0895ED
:101F8000F8949091EF0B992359F08091F00B909178
:101F9000F10B01969093F10B8093F00B78940895D8
:101FA0002091ED0B30E0E091EA0BF091EB0BE20FAA
:101FB000F31F8083C90101966091EC0B70E00E94D1
:101FC00002318093ED0B9091EE0B9813E7CF81E0F7
:101FD0008093EF0BE3CFFC0101900020E9F73197EC
:101FE000AF01481B590BBC0189EF98E00C946806BF
:101FF0008F929F92AF92BF920F931F93CF93DF93D5
:10200000CDB7DEB7A1970FB6F894DEBF0FBECDBF38
:1020100019A2423008F44AE08E010F5D1F4F842E52
:10202000912CB12CA12CA50194010E94E030E62F47
:10203000B901CA01EA30F4F4E05DD801EE938D01F4
:10204000232B242B252B79F790E080E0109719F0B3
:10205000CD010E94EB0FA1960FB6F894DEBF0FBE24
:10206000CDBFDF91CF911F910F91BF90AF909F9007
:102070008F900895E95CE1CF009711F00E94EB0F7B
:102080008EE592E00C94EB0F81E692E00E943C100A
:10209000E9EFFAE015821482A2EFBBE04CE251E0D6
:1020A00060E070E0D0964D935D936D937C93D397F1
:1020B000D4964D935D936D937C93D79780EC99E084
:1020C000DA969C938E93D997D8961C92ADE2BCE099
:1020D0008C9181608D7F8B7F8C9382E090E09183E7
:1020E0008083A281B38114961C921E9213979187CC
:1020F0008087158614860284F385E02D148213826E
:1021000008950E947C0D882371F08091F70880FD6E
:1021100004C086E792E00E943C108091F70881603D
:102120008093F70808958091F7088E7F8093F708D1
:102130008091F90A9091FA0A029709F450C020910F
:10214000FD0A3091FE0A8091FF0A9091000B28173A
:10215000390708F445C081E090E09093FA0A809333
:10216000F90A2091F90A3091FA0A91E021303105FB
:1021700009F090E08091F50881FD04C08260213073
:10218000310521F48091F50890FB81F98093F508E1
:102190008091010B9091020B029709F180910E0B37
:1021A0000E94E2059C019093100B80930F0B6091AD
:1021B000110B7091120B41E06817790708F440E0A9
:1021C0009091F50892FD05C0892F8460621773070E
:1021D00020F08091F50840FB82F98093F50808957E
:1021E0001092FA0A1092F90ABCCF0E94811085E47D
:1021F0000E942704892B71F08091F70881FD04C0AB
:1022000086E892E00E943C108091F70882608093FB
:10221000F70808958091F7088D7FF9CF90E0009737
:1022200081F58FEB9DE00E94820F81EC9DE00E9482
:10223000820F84EF91E0A0E0B0E08093AE0D909328
:10224000AF0DA093B00DB093B10D8093B20D9093EC
:10225000B30DA093B40DB093B50D8EE091E19093C2
:10226000B80D8093B70D81E08093B60D8091B90DC4
:1022700081608D7F8B7F8093B90D86E992E00C940D
:102280003C10019769F487EB92E00E943C108FEDBF
:102290009DE00E94E60E6CED8FED9DE00C94A60D86
:1022A0000895BF92CF92DF92EF92FF920F931F9308
:1022B000CF93DF93EC01B62EC72E8D85811105C01B
:1022C000CE010E94590881110EC01B861D861C86F6
:1022D00080E0DF91CF911F910F91FF90EF90DF9001
:1022E000CF90BF90089540E060EFCE010E940608B5
:1022F00001E0E12CD12C11E0CE010E94B307F82EB1
:10230000CE010E94B30791E0F91218C0813099F50F
:102310001134D8F2DB86D11002C081E08D878B8129
:10232000882399F22396EB2DFC2DCF010896299155
:102330002193E817F907D9F781E0CBCFEE2DF0E034
:10234000F8120FC08B851817A0F4DE01AE0FBF1F67
:1023500013968C91802379F4F12C193008F41C87A2
:10236000D12EEC0FFD1F8381902F909589238383BD
:102370000AC08113F1CFFE01EE0DF11D8381802B88
:102380008383FF24F3946F2DCE010E94D7071F5F34
:10239000000F11F4E39401E087E08E1508F0ACCF54
:1023A000B7CFCF93DF93EB01DC011996ED91FC9150
:1023B0001A97138615861486128611861086178240
:1023C000168215821482138219968D919C910E9417
:1023D0005111982F882341F067E0CE010E949C079D
:1023E00091E02F81281390E0892FDF91CF910895FC
:1023F0008F929F92AF92BF92EF92FF920F931F9393
:10240000CF93DF93CDB7DEB761970FB6F894DEBFF9
:102410000FBECDBF7C01FC0100851185F8018781CD
:10242000882309F470C0BE01665F7F4FC8010E9417
:10243000D111882309F467C0AE014F5F5F4FBE0121
:10244000665F7F4FC8010E943409882309F45BC08E
:102450008A81812C912C540187FF06C0812C912CFC
:10246000F8EFAF2EBB24BA949A8549819B3309F0CB
:1024700065C02D8127FF62C040FD45C0042F10E0DC
:1024800030E020E073E0000F111F221F331F7A9508
:10249000D1F7B901A801407E57706627772790E0F1
:1024A000B0E0A0E08C019D01EBE0000F111F221FA6
:1024B000331FEA95D1F7042B152B262B372B082930
:1024C00019292A293B29013854EE15075FEF250702
:1024D0003507CCF0C901B8010E944E3220E030E04F
:1024E00040E05CE30E9403334B015C0120E030E0FC
:1024F0004EEF52EC0E949F31882329F0F701808231
:102500009182A282B382F701808591850E94910811
:10251000F701608171818281938161960FB6F89491
:10252000DEBF0FBECDBFDF91CF911F910F91FF9006
:10253000EF90BF90AF909F908F900895082F10E07C
:10254000102F0027110F110F110FF8E04F9FA0015E
:102550001124042B152B012E000C220B330B082900
:1025600019292A293B29903109F0ADCF68856623C6
:1025700009F4A9CF70E08F81AB01481B5109CA0152
:102580009695982F8827979587950E940231CB01C1
:10259000770FAA0BBB0B53E0000F111F221F331F35
:1025A0005A95D1F700782770332700521109210975
:1025B0003109800F911FA21FB31F95018401082BC1
:1025C000192B2A2B3B2B7FCF8091B50B8150809309
:1025D000B50B811118C085E08093B50B8091920BEB
:1025E00023E1829FC0011124835E944F0E94F81161
:1025F0009091920B892F8F5FF1F39FEF8630D0F788
:102600008093920B08958DE19BE00C94F811BF929A
:10261000CF92DF92EF92FF920F931F93CF93DF93AE
:10262000CDB7DEB761970FB6F894DEBF0FBECDBF52
:102630007C018B01DC0119967C936E93189783E0E3
:10264000D82ECC24C394D8011996ED91FC911A97F9
:1026500013861586148612861186108617821682B6
:1026600015821482138217961C92179718961C9243
:1026700062E370E080E090E00E942406BE01665FA5
:102680007F4FF801818592850E945111882309F4BA
:1026900077C067E0CE010A960E949C07998989134A
:1026A000EDCFD80117968C9117978F5F17968C9363
:1026B0008A85883231F008F04AC0803111F08232C8
:1026C000E9F6F80180858F5F80878081811124C0C1
:1026D000818592850E945908BE01665F7F4FD801AF
:1026E00019968D919C910E943A0840E064EBF801A4
:1026F000818592850E940608D80119968D919C913A
:102700000E94B307B82EF801818592850E9459086E
:10271000B11002C0D801CC928A85803119F1AE0186
:102720004F5F5F4FBE01665F7F4FC8010E94340953
:10273000882359F08D819A859B3311F487FD12C04F
:102740008F3391F058F48F31B9F080E00EC08B33A5
:1027500009F4B7CF823409F091CFB3CF8F3571F040
:102760008F3799F78CE001C08AE0F80193819817C0
:1027700008F084CF838382CF89E0F7CF8BE0F5CF59
:10278000D80117969C91911103C0DA94D1105BCFB8
:10279000D7011896ED91FC919781992331F0B701FB
:1027A000665F7F4FCF010E94D111F701828B0084B9
:1027B000F185E02D1482D70118968D919C910E948D
:1027C000910861960FB6F894DEBF0FBECDBFDF91C2
:1027D000CF911F910F91FF90EF90DF90CF90BF901E
:1027E00008958F929F92AF92BF92CF92DF92EF9215
:1027F000FF92CF93DF936A017B01E9010E94EB0F07
:10280000C530D10509F0A5C0A7019601C701B601E1
:102810000E947033882391F088ED92E00E94EB0FC4
:102820008EE592E0DF91CF91FF90EF90DF90CF9017
:10283000BF90AF909F908F900C94EB0F4601570183
:10284000E894B7F82FEF3FEF4FE75FE7C501B4011A
:102850000E94703381110DC02FEF3FEF4FE75FE70C
:10286000C501B4010E949F3118161CF48CED92E052
:10287000D5CF2FEF3FEF4FE75FE4C701B6010E94CE
:10288000FE3218161CF480EE92E0C8CF2FEF3FEF17
:102890004FE75FECC701B6010E949F3187FDF3CF80
:1028A00020E030E0A901C701B6010E949F3187FFF7
:1028B00009C06DE289EF98E00E94FE06F7FAF094F5
:1028C000F7F8F0942BEA35EC47EA56E3C701B60176
:1028D0000E9433316B017C010E941D324B015C016F
:1028E0000E944C329B01AC01C701B6010E943231FB
:1028F0006B017C014AE0C501B4010E94F80F6EE251
:1029000089EF98E00E94FE06C6E0C15009F488CF26
:1029100020E030E040E251E4C701B6010E940333F9
:102920004B015C010E941D326B01F12CE12C4AE04D
:10293000C701B6010E94F80FC701B6010E944C32D0
:102940009B01AC01C501B4010E9432316B017C01D5
:10295000DCCFC701B6010E941D324C2F0E94F80F38
:102960005FCFCF9321E030E03093900B20938F0B1B
:102970009091910B91609B7F9093910B4CE251E071
:1029800060E070E04093220C5093230C6093240C81
:102990007093250C4093260C5093270C6093280CC1
:1029A0007093290C40EC59E050932C0C40932B0C65
:1029B00010922A0C90912D0C91609D7F9B7F90939B
:1029C0002D0C9091BC0D9B3031F41092B40B1092F1
:1029D000B30BCF910895963029F43093B40B209324
:1029E000B30BF7CF2CEF290F223038F482E090E0C0
:1029F0009093B40B8093B30BECCF973081F5C82F35
:102A00002AE030E040E050E060E87FE384EE92E0CE
:102A10000E94F1134091990B50919A0B70E060E085
:102A200040935A0D50935B0D60935C0D70935D0D58
:102A300040935E0D50935F0D6093600D7093610D38
:102A400083E197E19093640D8093630DC093620DD1
:102A50008091650D81608D7F8B7F8093650D83E014
:102A600090E0C6CF82E090E09093900B80938F0B24
:102A70008EEF92E00E943C1083EF9DE00C94E60EF6
:102A80001F93CF93DF93FC0122812223A1F0EC015D
:102A9000128214818381882391F061E0812F0E944A
:102AA000A60560E0812F0E947805E889F9891386E0
:102AB000EE85FF851386DF91CF911F91089560E029
:102AC000812F0E9478058C818131A9F7DF91CF9108
:102AD0001F910C94660283E193E00E943C108BEC02
:102AE0009DE00E94401584EF91E0A0E0B0E080936B
:102AF000960D9093970DA093980DB093990D809398
:102B00009A0D90939B0DA0939C0DB0939D0D84E125
:102B100099E19093A00D80939F0D10929E0DE1EA94
:102B2000FDE0808181608D7F8B7F8083089520917F
:102B30002C0F30912D0F2817390731F090932D0F5E
:102B400080932C0F0C946B1508959091BC0D9817E1
:102B500029F0953091F020F4943089F080E00895C8
:102B6000963021F19B30D1F78430B9F08630B1F73F
:102B70008093BC0D81E090E009C0843051F08B302F
:102B800069F78BE08093BC0D90E080E00E94971580
:102B9000E5CF8093BC0D81E008958093BC0D82E069
:102BA00090E00E9497150E944410F5CF8B30B1F64B
:102BB0002AE030E040E050E060E371E483E393E03A
:102BC0000E94F11385E89EE00E94C50A8DE0809383
:102BD000BC0DC4CF1092C90C8091B30B9091B40B73
:102BE000009769F00297D9F48BE00E94A515109226
:102BF000B40B1092B30B83E593E00C943C108091DE
:102C0000B60B81110CC086E00E94A51581E090E012
:102C10009093B40B8093B30B8AE793E0EECF0895C3
:102C20001092D50C8091B30B9091B40B813091052B
:102C300021F070F00297D1F008958BE00E94A51565
:102C40001092B40B1092B30B8EE993E00C943C10ED
:102C500084E00E94A51582E090E09093B40B8093ED
:102C6000B30B1092710D80EC93E0F0CF1092710DC8
:102C700008950E943C101092BB0D1092BA0D109254
:102C8000A10D1092AD0D1092B90D8BEC9DE00E943C
:102C900040158FED9DE00E94401583EF9DE00E945E
:102CA000401587E09EE00E9440158BE19EE00E9467
:102CB00040158FE29EE00E94401583E49EE00E9452
:102CC000401587E59EE00E9440158BE69EE00E943D
:102CD00040158FEB9DE00E94750F81EC9DE00E94F6
:102CE000750F83EC9DE00E94750F85EC9DE00E94BE
:102CF000750F87EC9DE00E94750F89EC9DE00E94A6
:102D0000750F8FE79EE00E94680F81E89EE00E94A9
:102D1000680F83E89EE00E94680F85E89EE00E94AD
:102D20009B0A81ED9EE00E949B0A10922A0F10924E
:102D3000ED0C1092F90C10921D0D1092110D1092C5
:102D4000350D1092050D1092290D1092410DE7EFEF
:102D5000F8E080818860808308951F93CF93DF938C
:102D6000EC01162F009711F00E943C1084EE93E0C6
:102D70000E943C101092900B10928F0B10921D0F1E
:102D80001092BC0E84EF93E00E9439168091BC0D26
:102D90008C50823010F01092BC0D209719F0CE01AB
:102DA0000E943C106091910B6E7F64606093910B68
:102DB0001092FE0A1092FD0A1092060B1092050B5B
:102DC0001092390C1092450C1092510C10925D0C1F
:102DD0001092690C1092C90C1092D50C10924D0DE6
:102DE0001092590D10922D0C1092650D1092710DCC
:102DF00070E090E080E00E944C32AB01BC0120E129
:102E000030E084E094E00E94F1131092B60B1111AF
:102E100006C089E1DF91CF911F910C94C00FDF9123
:102E2000CF911F910895CF93C82F1092650D1092E6
:102E3000450C85E194E00E943C108091F508C11199
:102E400015C083FD11C08CE10E94C00F10921D0FB0
:102E50001092BC0E84EF93E00E94391660E090E07F
:102E600080E0CF910C94AD168DE1EECF83FD17C0BD
:102E700085E294E00E943C101092BB0D1092BA0DB6
:102E80008BE08093BC0D0E948E0280E00E94B11402
:102E90008CE10E94C00F8EE1CF910C94C00F81E3B2
:102EA00094E00E943C1060E090E080E00E94AD164B
:102EB0008DE1F2CF60E088E594E00C94AD1660E01F
:102EC0008FE694E00C94AD16E5EFF8E080818D7FFD
:102ED000808360E080E894E00C94AD16E5EFF8E0C4
:102EE00080818460808360E08CE994E00C94AD166E
:102EF000CF93C82F10925D0C6091BC0D70E090E0F4
:102F000080E00E944C32AB01BC012AE030E089EB4A
:102F100094E00E94F1138091BC0D8C3041F48CEC54
:102F200094E00E9439161092BC0DCF910895C09381
:102F3000BC0D88E10E94C00F6C2F70E090E080E033
:102F40000E944C32AB01BC012AE030E088ED94E0F5
:102F5000CF910C94F113CF93C82F1092690C84EF8A
:102F600094E00E943C108091BC0D8D30B1F4C09370
:102F7000BC0D6C2F70E090E080E00E944C32AB0101
:102F8000BC012AE030E08CE095E00E94F1130E9441
:102F90008E0286E1CF910C94C00F8C3031F483E225
:102FA00095E00E9439161092BC0DCF9108958330A0
:102FB00061F18EE295E00E943C108FED9DE00E9451
:102FC000401584EF91E0A0E0B0E08093A20D9093D3
:102FD000A30DA093A40DB093A50D8093A60D90937F
:102FE000A70DA093A80DB093A90D89E89FE0909339
:102FF000AC0D8093AB0D1092AA0D8091AD0D816048
:103000008D7F8B7F8093AD0D08958EE495E00E94B7
:103010003C108FED9DE00E94401584EF91E0A0E010
:10302000B0E08093AE0D9093AF0DA093B00DB09330
:10303000B10D8093B20D9093B30DA093B40DB093E6
:10304000B50D8EE091E19093B80D8093B70D10927D
:10305000B60D8091B90D81608D7F8B7F8093B90D06
:1030600008958091BD0D9091BE0D8330910551F072
:10307000892B41F082E00E94D7171092BE0D10926A
:10308000BD0D08951092BE0D1092BD0D8FED9DE007
:103090000C94E60E10924D0D1092590D8FE695E0AE
:1030A0000E943C1083EF9DE00E944015EAEBFDE09A
:1030B0001182108287E082830E948E0281E00C944C
:1030C000B1149EEF980F923008F069C01092F90C7D
:1030D000833099F18FE29EE00E94E60E83E49EE049
:1030E0000E94E60E80EC94EDA1E0B0E08093EE0C3F
:1030F0009093EF0CA093F00CB093F10C8093F20C32
:103100009093F30CA093F40CB093F50C81E698E146
:103110009093F80C8093F70C83E08093F60C8091E9
:10312000F90C81608D7F8B7F8093F90C81E10E9487
:10313000C00F83E895E00C943C108FE29EE00E9463
:10314000401583E49EE00E94401582E10E94C00F7A
:1031500080E395E7A0E0B0E08093EE0C9093EF0C55
:10316000A093F00CB093F10C8093F20C9093F30CBD
:10317000A093F40CB093F50C81E698E19093F80CD1
:103180008093F70C84E08093F60C8091F90C8160B9
:103190008D7F8B7F8093F90C8CE895E0CCCF60E03D
:1031A00084E995E00C94AD168230C9F51092ED0CCF
:1031B00083EF9DE00E9440158FED9DE00E94401539
:1031C0008BE19EE00E94E60E80E395E7A0E0B0E090
:1031D0008093E20C9093E30CA093E40CB093E50C85
:1031E0008093E60C9093E70CA093E80CB093E90C65
:1031F00084ED98E19093EC0C8093EB0C81E080934C
:10320000EA0C8091ED0C81608D7F8B7F8093ED0CBB
:103210008EE00E94C00F83EA95E00C943C1060E0C1
:103220008BEA95E00C94AD161F93CF93DF93CDB747
:10323000DEB768970FB6F894DEBF0FBECDBF90E043
:10324000009709F065C08AEB95E00E943C10609100
:103250002C0F70912D0F90E080E00E944C32AB015A
:10326000BC012AE030E08AED95E00E94F1138091E4
:103270002C0F90912D0F8230910580F10297D9F19A
:1032800084EF91E0A0E0B0E08093960D9093970DCD
:10329000A093980DB093990D80939A0D90939B0DE8
:1032A000A0939C0DB0939D0D84E199E19093A00DA6
:1032B00080939F0D81E080939E0D8091A10D816090
:1032C0008D7F8B7F8093A10D68960FB6F894DEBF3B
:1032D0000FBECDBFDF91CF911F9108958CEE95E089
:1032E0000E943C1087EC9DE00E94750F89EC9DE0E8
:1032F0000E94750FC5CF86E196E00E943C1089ECD4
:103300009DE00E947B0F87EC9DE00E947B0FB8CF71
:103310000197D1F6E9EFFAE0DE0111968BE69BE02A
:1033200040A551A562A573A54D935D936D937D93C3
:1033300073968E179F07A1F785E396E00E943C10D5
:1033400060912C0F70912D0F90E080E00E944C3224
:10335000AB01BC012AE030E085E596E00E94F11364
:1033600080912C0F90912D0F81309105D9F102970A
:1033700009F463C080918E0E882389F02AE030E042
:1033800040E050E060E371E483E393E00E94F113D6
:1033900085E89EE00E94C50A8DE08093BC0D809177
:1033A000DA0E8823E9F12AE030E040E050E060E303
:1033B00071E489E996E00E94F11381E89EE00E94A1
:1033C000680F83E89EE00E94680F8FE29EE00E94F3
:1033D000401583E49EE00E94401581ED9EE00E942E
:1033E000C50A1EC069817A818B819C810E941D3231
:1033F00081E080938E0E862F90E09093900E8093C4
:103400008F0E85E89EE00E94E60A89E696E00E941B
:103410003C1084E796E00E943C1085E10E94C00FBA
:103420008BEC9DE068960FB6F894DEBF0FBECDBF63
:10343000DF91CF911F910C94E60E8FE29EE00E94E7
:10344000E60E83E49EE00E94E60E81E89EE00E9484
:103450006E0F83E89EE00E946E0F69817A818B81F6
:103460009C810E941D32162F70E090E080E00E9447
:103470004C32AB01BC012AE030E08EE796E00E94BE
:10348000F11381E08093DA0E812F90E09093DC0EAF
:103490008093DB0E612F81ED9EE00E94E60A89E6B3
:1034A00096E00E943C1081E996E00E943C1087E182
:1034B000B5CF8F929F92AF92BF92CF92DF92EF9251
:1034C000FF920F931F93CF93DF938091BA0D90914A
:1034D000BB0D019709F034C08BEB96E00E943C10C5
:1034E0008CED96E00E943C10E091BC0DE150EB3079
:1034F00008F5F0E08827E058F54E8F4F0C94163110
:103500008B1AD81AE61AEB1A9A1AEB1AF41AFC1A42
:103510002D1B431B7D1B8091C10D882321F081EC65
:103520009DE00E94750F87E09EE00E94E60E87E016
:103530000E94C00F1092BB0D1092BA0D0E94441051
:103540000E947C0D9091F70880FB90F99093F7080A
:1035500085E40E94270421E0892B09F420E0809172
:10356000F70820FB81F99091C70B90FB82F98093BB
:10357000F70880918F0B9091900B009741F0C091CC
:10358000BC0D029709F0CAC08C2F0E94B50260E002
:1035900089E59AE1DF91CF911F910F91FF90EF9014
:1035A000DF90CF90BF90AF909F908F900C947F034F
:1035B00080916D0E882321F08BE69EE00E944015DD
:1035C00087E59EE00E94E60E89E0B2CF10922D0FB3
:1035D00010922C0FAFCF10922D0F10922C0F0E9433
:1035E0006B150E943118A6CF83E00E94D71782EF97
:1035F00096E00E943C109ECF83EF9DE00E94E60E75
:1036000080E69AEEA0E0B0E08093FA0C9093FB0C79
:10361000A093FC0CB093FD0C8093FE0C9093FF0CD8
:10362000A093000DB093010D8FE597E19093040DE9
:103630008093030D1092020D8091050D81608D7FA6
:103640008B7F8093050D84E197E00E943C1086E219
:1036500097E00E943C1083E16BCF10921D0F1092F7
:10366000BC0E84EF93E00E9439168BE19EE00E942D
:10367000E60E8BE00E94C00F81E397E00E943C10B1
:1036800082E497E0B6CF10921D0F1092BC0E84EF2B
:1036900093E00E9439168BE69EE00E94E60E8FE0D2
:1036A0000E94C00F80E49CE9A0E0B0E08093EE0CA3
:1036B0009093EF0CA093F00CB093F10C8093F20C6C
:1036C0009093F30CA093F40CB093F50C81E698E181
:1036D0009093F80C8093F70C82E08093F60C809125
:1036E000F90C81608D7F8B7F8093F90C8DE497E0DE
:1036F0000E943C108DE597E07CCF10922D0F109228
:103700002C0F83EC9DE00E947B0F85EC9DE00E94D6
:103710007B0F90E080E00E94971563CF9091B60BED
:10372000992339F18091710D80FD23C082FD21C064
:1037300040E355E760E070E04093660D5093670DFD
:103740006093680D7093690D40936A0D50936B0DF3
:1037500060936C0D70936D0D2AE537E13093700D19
:1037600020936F0D10926E0D81608D7F8B7F809303
:10377000710D8CEF8C0F833028F0CB3019F099232A
:1037800009F47DC08091B30B9091B40B039709F4B9
:1037900076C0C630F9F0D091800E2091430B309165
:1037A000440B4091450B5091460B6091690B709111
:1037B0006A0B80916B0B90916C0B0E949F3187FF7D
:1037C00075C0D11107C08FE79EE00E946E0F82E0A6
:1037D0000E94D717C0901D0BD0901E0BE0901F0BBE
:1037E000F090200B8090210B9090220BA090230B47
:1037F000B090240B20E030E040E85FE3C501B40165
:103800000E943331A70196010E949F3118160CF4D3
:1038100055C01092C90CD091D50CD0FD30C0D2FD4E
:103820002EC00091B30B1091B40BF801EE0FFF1FE7
:10383000EE0FFF1FED55F44F6081718182819381FE
:103840000E941D326093CA0C7093CB0C8093CC0CF9
:103850009093CD0C6093CE0C7093CF0C8093D00CD2
:103860009093D10C80E196E19093D40C8093D30C8B
:103870000093D20CD160DD7FDB7FD093D50CC1509B
:10388000CB3008F084CEEC2FF0E08827E55BF34ED8
:103890008F4F0C941631A61CB21CBC1C2A1D2A1D6D
:1038A0002D1D301D9B1DF31DC71A2D1DDD2309F491
:1038B00091CF8FE79EE00E94680F89CF1092D50CC0
:1038C00020E030E040E85FE3C501B4010E943231FE
:1038D000A70196010E94FE3287FD35C0D091C90C28
:1038E000D0FDCDCFD2FDCBCF0091B30B1091B40B57
:1038F000F801EE0FFF1FEE0FFF1FED55F44F608133
:103900007181828193810E941D326093BE0C7093FD
:10391000BF0C8093C00C9093C10C6093C20C709349
:10392000C30C8093C40C9093C50C8AEE95E19093E0
:10393000C80C8093C70C0093C60CD160DD7FDB7F81
:10394000D093C90C9CCF1092C90C99CF80E20E94F1
:103950002704892B09F01BCE60E088E697E00E94DF
:10396000AD1615CE84E40E942704892B09F00FCEF2
:1039700060E086E797E0F3CF0E947C0D9091F50818
:10398000882339F091609093F50860E084E897E02F
:10399000E6CF9E7F9093F5088091F90A9091FA0AFC
:1039A000029709F4F4CD2091FD0A3091FE0A80912E
:1039B000FF0A9091000B28173907D8F181E090E0B9
:1039C0009093FA0A8093F90A8091F90A9091FA0A81
:1039D0000197A1F58091F5088D7F8093F50880917E
:1039E000390C80FDD4CD82FDD2CD4091970B509102
:1039F000980B70E060E040932E0C50932F0C609376
:103A0000300C7093310C4093320C5093330C609314
:103A1000340C7093350C24E637E13093380C209346
:103A2000370C1092360C81608D7F8B7F8093390C20
:103A3000AECD1092FA0A1092F90AC6CF8091F5081D
:103A400081FDA5CD82608093F5088AEA97E00E9407
:103A50003C109DCD0E94F5109ACD0E94811097CD0B
:103A60000E947C0D882359F060E08BEA95E00E946B
:103A7000AD168091F70881608093F70888CD80911A
:103A8000010B9091020B029709F481CD2091050B57
:103A90003091060B8091070B9091080B281739077E
:103AA000C8F181E090E09093020B8093010B80912C
:103AB000010B9091020B019791F58091F508877F9A
:103AC0008093F5088091450C80FD61CD82FD5FCD2E
:103AD00048EE53E060E070E040933A0C50933B0CAA
:103AE00060933C0C70933D0C40933E0C50933F0C04
:103AF0006093400C7093410C2DEE39E03093440CF0
:103B00002093430C1092420C81608D7F8B7F8093B9
:103B1000450C3DCD1092020B1092010BC8CF1092B4
:103B2000450C8091F50883FD32CD88608093F508BF
:103B30008EEB97E08CCF80E20E942704892B59F40A
:103B400060E082ED97E00E94AD168091F6088062F9
:103B50008093F6081CCD80910E0B0E94E205909395
:103B6000100B80930F0B2091110B3091120B281723
:103B7000390778F58091F5088B7F8093F50880915F
:103B8000510C80FD04CD82FD02CD40919B0B5091E4
:103B90009C0B70E060E04093460C5093470C6093A0
:103BA000480C7093490C40934A0C50934B0C609313
:103BB0004C0C70934D0C2EE637E13093500C209353
:103BC0004F0C10924E0C81608D7F8B7F8093510C37
:103BD000DECC8091F50882FDDACC84608093F50814
:103BE00087EF97E034CF0E947C0D882309F4CFCC77
:103BF0008091ED0C80FDCBCC82FDC9CC8BE19EE0A9
:103C00000E94401583EF9DE00E94E60E8FED9DE03F
:103C10000E94E60E8DE00E94C00F80E395E7A0E0D1
:103C2000B0E08093E20C9093E30CA093E40CB0938B
:103C3000E50C8093E60C9093E70CA093E80CB0930E
:103C4000E90C84ED98E19093EC0C8093EB0C82E00E
:103C50008093EA0C8091ED0C81608D7F8B7F809347
:103C6000ED0C83E895E0F3CEFF920F931F93CF9373
:103C7000DF93CDB7DEB7C456D1090FB6F894DEBFD7
:103C80000FBECDBFFC01F1804F2D50E08E010F5FC4
:103C90001F4FBC01C8010E9475338091C6008091FE
:103CA000C6008091C1008F778093C1008091C100D0
:103CB00088608093C100F8018E2F801B8F1588F4D7
:103CC00081918093C6008091C00086FFFCCF8091D7
:103CD000C00080648093C0008091C6008091C600BF
:103CE000EBCFCC59DF4F0FB6F894DEBF0FBECDBF80
:103CF000DF91CF911F910F91FF900C94950A4F92F5
:103D00005F926F927F928F929F92AF92BF92CF926B
:103D1000DF92EF92FF920F931F93CF93DF93CDB774
:103D2000DEB7C95AD1400FB6F894DEBF0FBECDBF83
:103D300084E6E4E8F8E0DE01AB59BF4F01900D9254
:103D40008A95E1F7A896EFADA897E550E33308F020
:103D500075C1F0E08827E055F14E8F4F0C94163175
:103D600079241E20611F1E201E201E201E201E20C2
:103D70001E201E201E201E201E20091F2B1F4C1F30
:103D8000561F6A1FF71EDB1F36206520B0201E203D
:103D90001E20E5203D218521E31EB421E12157228B
:103DA0000722B0231E201E201E20E3231E201E20DB
:103DB0001E201E201E201E2085249524A124FD24C3
:103DC00035259926701FC090F508D090F608E09030
:103DD000F708F090F80861E2CE0101960E942D0AE2
:103DE000CF82D886E986FA868BE08A83E9C1109271
:103DF000F5081092F6081092F7081092F80861E2A0
:103E0000CE0101960E942D0A1F82188619861A86F5
:103E1000EBCFCE0187539F4F0E94500488E0FE01F4
:103E2000E753FF4FDE01A456BE4F01900D928A95D5
:103E3000E1F762E1CE0101960E942D0A8FE08A83AC
:103E400088E0FE01E456FE4FDE01179601900D92C8
:103E50008A95E1F7B5C11092F5081092F608109214
:103E6000F7081092F808A9968FADA9971092BB0D8C
:103E70001092BA0D8093BC0DAA969FADAA97992374
:103E800059F08B3049F40E94B502882329F00E9432
:103E90008E0280E00E94B1141091BC0D64E1CE014D
:103EA00001960E942D0A1F8388E09FCF8091BC0D50
:103EB0000E94B502882329F00E948E0280E00E94B1
:103EC000B114CE0101960E948A0ACE0101960E9489
:103ED000341EB4C060E08DE098E00E94AD16F1CFD2
:103EE0008AE198E00E943C1081E08093B60B81E06B
:103EF00090E09093900B80938F0B10921D0F109277
:103F0000BC0E1092BB0D1092BA0D1092A10D109222
:103F1000AD0D1092B90D83EF9DE00E94401587E032
:103F20009EE00E9440158BE19EE00E9440158FEBC1
:103F30009DE00E94750F81EC9DE00E94750F83EC5F
:103F40009DE00E94750F85EC9DE00E94750F87EC47
:103F50009DE00E94750F89EC9DE00E94750F81E83D
:103F60009EE00E94680F83E89EE00E94680F85E84B
:103F70009EE00E949B0A8091910B81608B7F8093D1
:103F8000910B4091690B50916A0B60916B0B709192
:103F90006C0B4093210B5093220B6093230B709377
:103FA000240B25E030E084E298E00E94F1138AE1DE
:103FB0000E94C00F86CFE5E6F0E0EC0FFD1F3396C0
:103FC000A9EFBAE085E690E08C0F9D1F4B964191DA
:103FD00051916191719198964D935D936D937C93FE
:103FE0009B9753968E179F0791F788E1E5E6F0E0DF
:103FF000EC0FFD1F3396DE01A750BF4F01900D92CD
:104000008A95E1F768E1CE0101960E942D0A8FE1C1
:104010008A8388E1FE01E750FF4FDE011796019089
:104020000D928A95E1F7CE0101960E94160ACE0103
:1040300001960E94341E88E10E94F509C755DE4FA3
:104040000FB6F894DEBF0FBECDBFDF91CF911F91A9
:104050000F91FF90EF90DF90CF90BF90AF909F9027
:104060008F907F906F905F904F900895A9EFBAE086
:10407000CE0187539F4F2BE63BE0182F092F9896D0
:104080004D915D916D917C919B97FC014193519372
:1040900061937193CF0153962A173B0781F788E10B
:1040A000E12FF02FDE01AF51BF4F01900D928A95A5
:1040B000E1F769E1CE0101960E942D0A8FE18A8322
:1040C00088E1FE01EF51FF4FBFCEFE01EB59FF4FDC
:1040D0009F012A5F3F4F41E050E083819091D00DD6
:1040E000891709F479C69091E40DAFEDBDE0891709
:1040F00009F474C632962E173F0779F7AE968FAD46
:10410000AE97AA969FADAA9790933D0F80933E0FCE
:1041100086E0E5E6F0E0EC0FFD1F3396DE01AC55DE
:10412000BE4F01900D928A95E1F76AE1CE010196AA
:104130000E942D0A8DE08A8386E0FE01EC55FE4F39
:10414000DE01179601900D928A95E1F7CE01019656
:104150000E94160ACE0101960E94341E8AE16CCF9D
:1041600010913D0F00913E0F612F70E090E080E0D4
:104170000E944C32AB01BC0120E130E08DE298E0BE
:104180000E94F113602F70E090E080E00E944C32BA
:10419000AB01BC0120E130E083E598E00E94F1131F
:1041A0006BE1CE0101960E942D0A8DE08A8381E0A9
:1041B0008F83188782E089871A8784E08B870C8732
:1041C000CE0101960E94160A80CEAA968EAD9FADB2
:1041D000AA979093000B8093FF0AAC968EAD9FAD8B
:1041E000AC979093080B8093070BAE968EAD9FAD66
:1041F000AE9790930D0B80930C0BE0968EAD9FAD18
:10420000E0979093120B8093110BE2968EAD9FADC9
:10421000E2979093170B8093160BE4968EAD9FADAB
:10422000E49790931C0B80931B0B8EE0E5E6F0E087
:10423000EC0FFD1F3396DE01A45ABE4F01900D9284
:104240008A95E1F76EE1CE0101960E942D0A85E183
:104250008A838EE0FE01E45AFE4FDE01179601903C
:104260000D928A95E1F7CE0101960E94160ACE01C1
:1042700001960E94341E8EE1DFCEE091070BF09193
:10428000080B60910C0B70910D0B4091110B50912C
:10429000120B2091160B3091170B80911B0B9091F4
:1042A0001C0BA091FF0AB091000BC25BDE4FB983DB
:1042B000A883CE54D140C05BDE4FF983E883C0555C
:1042C000D140CE5ADE4F79836883C255D140CC5A53
:1042D000DE4F59834883C455D140CA5ADE4F3983D3
:1042E0002883C655D140C85ADE4F99838883C85564
:1042F000D1406FE1CE0101960E942D0A85E18A83AB
:104300008EE0FE01E25BFE4F9FCDA9EFBAE0CE0149
:104310008F519F4F2BE63BE0182F092F94964D911C
:104320005D916D917C919797FC01419351936193BD
:104330007193CF0153962A173B0781F788E1E12F4C
:10434000F02FDE01A753BF4F01900D928A95E1F740
:1043500060E2CE0101960E942D0A8FE18A8388E1F6
:10436000FE01E753FF4F70CD05E610E00C0F1D1F57
:104370000D5F1F4FC8010E941C0380E1F801DE01A0
:10438000AF5DBE4F01900D928A95E1F762E2CE01DA
:1043900001960E942D0A80E1FE01EF5DFE4FDE01D5
:1043A000179601900D928A95E1F787E18A83CE01F5
:1043B00001960E94160ACE0101960E94341E82E2E6
:1043C0003BCE80E1E3E9FBE0DE01A753BF4F019064
:1043D0000D928A95E1F780E1FE01E753FF4FDE0180
:1043E000AF5EBE4F01900D928A95E1F763E2CE0178
:1043F00001960E942D0A80E1FE01EF5EFE4FDE0174
:10440000179601900D928A95E1F787E1EECC8090A6
:10441000FD0A9090FE0AA090050BB090060B8091CB
:10442000090B0E94E2056C0180910E0B0E94E205CF
:104430007C018091130B0E94E2058C018091180B86
:104440000E94E205C05CDE4F99828882C054D14050
:10445000CE5BDE4FB982A882C254D140CC5BDE4F26
:10446000D982C882C454D140CA5BDE4FF982E88247
:10447000C654D140C85BDE4F19830883C854D1406D
:10448000C65BDE4F99838883CA54D14065E2CE0172
:1044900001960E942D0A8EE0FE01E05CFE4FDE01D7
:1044A000179601900D928A95E1F785E19ECCA99629
:1044B000EFADA997EF77E93108F029C0F0E0882740
:1044C000EB59FD4D8F4F0C9416317E22AF22BA224C
:1044D000BA22BA22C522D022DB22E622F52202230A
:1044E0000E238722272387223C23492354235F233B
:1044F0006A23752380238B239A23A523A9968FAD46
:10450000A99787FF27C08FEB9DE00E94750F8091D0
:10451000CD0D9091E10D892B80931D0FCE01875316
:104520009F4F0E94500488E0FE01E753FF4FDE01D9
:10453000AC56BE4F01900D928A95E1F764E2CE0130
:1045400001960E942D0A8FE08A8388E0FE01EC56D6
:10455000FE4F7ACC8FEB9DE00E947B0FD8CFA996BF
:104560008FADA99787FF03C081EC9DE0CECF81EC92
:104570009DE0F2CFA9968FADA99787FF03C083EC8A
:104580009DE0C3CF83EC9DE0E7CFA9968FADA997BF
:1045900087FF03C085EC9DE0B8CF85EC9DE0DCCFC4
:1045A000A9968FADA99787FF03C087EC9DE0ADCF9B
:1045B00087EC9DE0D1CFA9968FADA99787FF03C067
:1045C00089EC9DE0A2CF89EC9DE0C6CFA9964FADC6
:1045D000A997441F4427441FAA966FADAA976770F6
:1045E00085E89EE00E94A60C92CFA9964FADA997B0
:1045F000441F4427441FAA966FADAA97677081EDA8
:104600009EE0F0CFA9964FADA997441F4427441FC1
:10461000AA966FADAA9767706C5FF1CFA9968FAD20
:10462000A99787FF05C08BEC9DE00E9440156FCFD6
:104630008BEC9DE00E94E60E8091CE0D81110091E1
:10464000CB0D602F8BEC9DE00E94A60D60CFA9964C
:104650008FADA99787FF03C08FED9DE0E6CF8FED6B
:104660009DE00E94E60E8091E20D81111091DF0D18
:10467000612F8FED9DE0E8CFA9968FADA99787FFB9
:1046800003C083EF9DE0D1CF83EF9DE00E94E60E53
:104690003ECFA9968FADA99787FF03C087E09EE024
:1046A000C4CF87E09EE0F2CFA9968FADA99787FF90
:1046B00003C08BE19EE0B9CF8BE19EE0E7CFA996E6
:1046C0008FADA99787FF03C08FE29EE0AECF8FE248
:1046D0009EE0DCCFA9968FADA99787FF03C083E446
:1046E0009EE0A3CF83E49EE0D1CFA9968FADA9979A
:1046F00087FF03C087E59EE098CF87E59EE0C6CFA1
:10470000A9968FADA99787FF03C08BE69EE08DCF5A
:104710008BE69EE0BBCFA9968FADA99787FF05C01A
:104720008FE79EE00E94680FF2CE8FE79EE00E9426
:104730006E0FEDCEA9968FADA99787FF03C081E8D4
:104740009EE0F0CF81E89EE0F2CFA9968FADA997C9
:1047500087FF03C083E89EE0E5CF83E89EE0E7CFD4
:1047600081E20E9427044C0180E20E9427045C0140
:10477000F090C70B0091C80B85E40E9427046C01E0
:1047800084E40E9427049C0191E0892809F090E0CC
:1047900010E090FB10F991E0AB2809F090E090FB5D
:1047A00011F991E0CD2809F090E090FB12F991E029
:1047B000232B09F090E090FB13F9F0FA14F900FBB9
:1047C00015F966E26CCB8BE0E5E6F0E0EC0FFD1F3F
:1047D0003396DE01AA58BE4F01900D928A95E1F7FB
:1047E000E3968FADE397C058DE4F8883C058D14021
:1047F0009BE0FE01EA58FE4FA0E2BFE001900D925F
:104800009A95E1F74091230F242F30E03093CC0D9F
:104810002093CB0D3091250F632F70E07093E00D46
:104820006093DF0D9FE0EEE2FFE0DE01AF5CBE4F84
:1048300001900D929A95E1F72091200F9091220F0F
:10484000CD5CDE4F4883C353D140CC5CDE4F388310
:10485000C453D140CB5CDE4F2883C553D140CA5CE2
:10486000DE4F9883C653D1403FE0FE01EF5CFE4F20
:10487000AEE2BFE001900D923A95E1F720933D0F33
:1048800090933E0F1092450F91E090932B0F882349
:1048900041F08BEC9DE00E94E60E8FED9DE00E94C2
:1048A000E60E8BE0E5E6F0E0EC0FFD1F3396DE014F
:1048B000AF57BE4F01900D928A95E1F76AE2CE01A3
:1048C00001960E942D0A8BE0FE01EF57FE4FDE019C
:1048D000179601900D928A95E1F782E18A83CE01C5
:1048E00001960E94160ACE0101960E94341E8AE2A9
:1048F000A3CB1092F5081092F6081092F7081092C8
:10490000F80861E089E798E0E8CA61E3CE01019622
:104910000E942D0A8BE08A8385E090E0A3E0B1E05D
:104920008F839887A987BA874BCC62E3CE01019623
:104930000E942D0A8BE08A838AEC94E3A0E0B0E029
:10494000EFCFE4966CAD7DAD8EAD9FADE4970E9448
:104950004C326B017C01E0966CAD7DAD8EAD9FADB0
:10496000E0970E944C324B015C01AC966CAD7DAD82
:104970008EAD9FADAC970E944C326093A30B7093A9
:10498000A40B8093A50B9093A60B8092A70B9092FB
:10499000A80BA092A90BB092AA0BC092AB0BD0921D
:1049A000AC0BE092AD0BF092AE0B8CE0E5E6F0E0E4
:1049B000EC0FFD1F3396DE01A659BE4F01900D92FC
:1049C0008A95E1F763E3CE0101960E942D0A83E107
:1049D0008A838CE0FE01E659FE4FDE0117960190B6
:1049E0000D928A95E1F7CE0101960E94160ACE013A
:1049F00001960E94341E83E31FCB6091AB0B709134
:104A0000AC0B8091AD0B9091AE0B0E941D326B01EF
:104A10007C016091A70B7091A80B8091A90B9091DC
:104A2000AA0B0E941D324B015C016091A30B709197
:104A3000A40B8091A50B9091A60B0E941D322B0117
:104A40003C0164E3CE0101960E942D0A83E18A8332
:104A50004F82588669867A868B869C86AD86BE860E
:104A6000CF86D88AE98AFA8AABCBA9968FADA99767
:104A70008983AA968FADAA978A83AB968FADAB97A1
:104A80008B83AC966FADAC976C83AD968FADAD97C5
:104A90008D83AE968FADAE978E83AF968FADAF9769
:104AA0008F83E0968FADE0978887617085E00E94E4
:104AB00078056C816695617086E00E9478056C814E
:104AC00062FB662760F984E00E9478056C8163FBD5
:104AD000662760F988E00E9478056981617085E346
:104AE0000E94780569816695617084E30E9478056B
:104AF0006981629561708FE10E947805698165FB2B
:104B0000662760F98CE10E947805698166FB66275B
:104B100060F98BE10E947805698167FB662760F97F
:104B20008AE10E9478056C816295617089E10E943A
:104B300078056C8165FB662760F988E10E9478053D
:104B40006C8166FB662760F987E10E9478056C81BD
:104B500067FB662760F98EE10E9478056D816170C0
:104B60008DE10E9478056D816695617086E10E94F5
:104B700078056D8162FB662760F981E10E94780506
:104B80006D8163FB662760F98FE00E9478056D8177
:104B9000629561708CE00E9478056D8165FB6627E7
:104BA00060F98EE00E9478056B81617085E20E9459
:104BB00078056B816695617084E20E9478056B814F
:104BC00062FB662760F987E20E9478056B8163FBD0
:104BD000662760F986E20E9478056B8162956170B4
:104BE00089E20E9478056B8165FB662760F988E29F
:104BF0000E9478056B8166FB662760F98BE20E9454
:104C000078056B8167FB662760F98AE20E94780568
:104C10006A8161708CE20E9478056A816695617094
:104C20008EE20E9478056A8162FB662760F98DE258
:104C30000E9478056A8163FB662760F98FE20E9413
:104C400078056A816295617081E30E9478056A81C6
:104C500065FB662760F980E30E9478056A8166FB40
:104C6000662760F983E30E9478056A8167FB6627FF
:104C700060F982E30E9478056D8166FB662760F922
:104C800087E00E9478056D8167FB662760F989E0FF
:104C90000E9478056E8161708AE00E9478056E81BD
:104CA000669561708BE00E947805C753DF4F1882CC
:104CB000C95CD040C653DF4F1882CA5CD040C55390
:104CC000DF4F1882CB5CD040C453DF4F1882CC5CDE
:104CD000D040C353DF4F1882CD5CD040C253DF4F6A
:104CE0001882CE5CD040C153DF4F1882CF5CD040D9
:104CF000C053DF4F1882C05DD040CE0187539F4F15
:104D00000E94500488E0FE01E753FF4FDE01A457E4
:104D1000BE4F01900D928A95E1F765E3CE010196B1
:104D20000E942D0A8FE08A8388E0FE01E457FE4F3F
:104D30008BC8CE0101960E948A0ACE0101960E947C
:104D4000341E1092FD0B6AEC7AE08DE19BE00E942C
:104D5000071365EA7AE080E39BE00E94071360E8AE
:104D60007AE083E49BE00E9407136BE57AE08CE72E
:104D70009BE00E94071366E37AE086E59BE00E94D1
:104D8000071361E17AE089E69BE00E9407138091B6
:104D9000A10B9091A20BB0E0A0E08093F20B909356
:104DA000F30BA093F40BB093F50B8093F60B909359
:104DB000F70BA093F80BB093F90B84EE92E190936C
:104DC000FC0B8093FB0B1092FA0B8091FD0B836020
:104DD0008B7F8093FD0B32C9ABECBDE013969C91A9
:104DE0001397992309F486C915969C9115978913F1
:104DF00081C91B965C934E931A97848190E08D93A2
:104E00009C9378C90C947F1EE4E8F8E084E6DF0107
:104E10001D928A95E9F71092F2080C94950A1F9258
:104E20000F920FB60F9211242F933F938F939F935E
:104E3000AF93BF938091EA089091EB08A091EC08A2
:104E4000B091ED083091E90823E0230F2D3758F594
:104E50000196A11DB11D2093E9088093EA08909363
:104E6000EB08A093EC08B093ED088091EE089091C8
:104E7000EF08A091F008B091F1080196A11DB11DB5
:104E80008093EE089093EF08A093F008B093F10898
:104E9000BF91AF919F918F913F912F910F900FBE36
:104EA0000F901F90189526E8230F0296A11DB11DA3
:104EB000D2CF1F920F920FB60F9211240BB60F9202
:104EC0002F933F934F935F936F937F938F939F9312
:104ED000AF93BF93EF93FF93E0911E02F0911F02F7
:104EE0001995FF91EF91BF91AF919F918F917F9114
:104EF0006F915F914F913F912F910F900BBE0F904B
:104F00000FBE0F901F9018951F920F920FB60F9221
:104F100011240BB60F922F933F934F935F936F9390
:104F20007F938F939F93AF93BF93EF93FF93E09102
:104F30001C02F0911D021995FF91EF91BF91AF9165
:104F40009F918F917F916F915F914F913F912F91A1
:104F50000F900BBE0F900FBE0F901F9018951F92D1
:104F60000F920FB60F9211240BB60F922F933F930F
:104F70004F935F936F937F938F939F93AF93BF9361
:104F8000EF93FF93E0911202F09113021995FF91B4
:104F9000EF91BF91AF919F918F917F916F915F91B1
:104FA0004F913F912F910F900BBE0F900FBE0F901E
:104FB0001F9018951F920F920FB60F9211240BB6E7
:104FC0000F922F933F934F935F936F937F938F93A2
:104FD0009F93AF93BF93EF93FF93E0911002F091F3
:104FE00011021995FF91EF91BF91AF919F918F9110
:104FF0007F916F915F914F913F912F910F900BBED9
:105000000F900FBE0F901F9018951F920F920FB622
:105010000F9211240BB60F922F933F934F935F93F0
:105020006F937F938F939F93AF93BF93EF93FF9370
:10503000E0911A02F0911B021995FF91EF91BF9137
:10504000AF919F918F917F916F915F914F913F9120
:105050002F910F900BBE0F900FBE0F901F901895C1
:105060001F920F920FB60F9211240BB60F922F932F
:105070003F934F935F936F937F938F939F93AF93E0
:10508000BF93EF93FF93E0911802F09119021995E5
:10509000FF91EF91BF91AF919F918F917F916F9110
:1050A0005F914F913F912F910F900BBE0F900FBECC
:1050B0000F901F9018951F920F920FB60F92112408
:1050C0000BB60F922F933F934F935F936F937F9302
:1050D0008F939F93AF93BF93EF93FF93E09116024B
:1050E000F09117021995FF91EF91BF91AF919F91A8
:1050F0008F917F916F915F914F913F912F910F9081
:105100000BBE0F900FBE0F901F9018951F920F921D
:105110000FB60F9211240BB60F922F933F934F931C
:105120005F936F937F938F939F93AF93BF93EF930F
:10513000FF93E0911402F09115021995FF91EF9100
:10514000BF91AF919F918F917F916F915F914F919F
:105150003F912F910F900BBE0F900FBE0F901F909D
:1051600018951F920F920FB60F9211240BB60F9243
:105170002F933F934F935F936F937F938F939F935F
:10518000AF93BF93EF93FF9389EF98E00E94DC0603
:10519000FF91EF91BF91AF919F918F917F916F910F
:1051A0005F914F913F912F910F900BBE0F900FBECB
:1051B0000F901F9018951F920F920FB60F92112407
:1051C0000BB60F922F938F939F93EF93FF93E091E2
:1051D0000909F0910A098081E0910F09F091100905
:1051E00082FD1DC09081809112098F5F8F73209185
:1051F0001309821741F0E0911209F0E0E750F74FF0
:10520000958F80931209FF91EF919F918F912F912C
:105210000F900BBE0F900FBE0F901F9018958081BE
:10522000F2CF1F920F920FB60F9211240BB60F926E
:105230002F933F934F935F936F937F938F939F939E
:10524000AF93BF93CF93EF93FF938091C10080689A
:105250008093C1008091C10088608093C100C0919B
:10526000C6008091090C8E7F8093090C8091F20812
:10527000843658F0E4E8F8E084E6DF011D928A9570
:10528000E9F71092F2080E94950AE091F208E330E3
:1052900020F0809185088093F40881E08E0F809340
:1052A000F208F0E0EC57F74FC0839091F4088913AF
:1052B0006BC090918408913009F05AC040EA5FE0D9
:1052C00060E070E040930A0C50930B0C60930C0C60
:1052D00070930D0C40930E0C50930F0C6093100CB8
:1052E0007093110C24E037E23093140C2093130CCC
:1052F0001092120C9091150C93609B7F9093150C5B
:1053000050E040E090E0BC0161507109252F30E091
:10531000261737073CF42C57374FF9012081420FED
:105320005F5FF4CF8D57974FDC018C9160E048139D
:105330001CC082E097E20E947F031092F2080E9454
:10534000950AFF91EF91CF91BF91AF919F918F916E
:105350007F916F915F914F913F912F910F900BBE75
:105360000F900FBE0F901F9018958CE69AE0E3CF38
:10537000E4E8F8E084E6DF011D928A95E9F71092EF
:10538000F2080E94950AD9CF8AE090E0A0E0B0E050
:105390008093FE0B9093FF0BA093000CB093010C35
:1053A0008093020C9093030CA093040CB093050C13
:1053B00084E097E29093080C8093070C1092060CFF
:1053C0008091090C81608D7F8B7F8093090CB7CF12
:1053D0001F920F920FB60F9211240BB60F92FF92ED
:1053E0000F931F932F933F934F935F936F937F93ED
:1053F0008F939F93AF93BF93CF93DF93EF93FF93DD
:10540000C2EFDBE010E000E08CE0F82EF09EF0014F
:10541000F19EF00D1124E350F44F808180FF23C0F2
:105420008C819D81AE81BF810197A109B1098C83D7
:105430009D83AE83BF83892B8A2B8B2BA1F4808124
:105440008460808381FF2DC088819981AA81BB817E
:105450008C839D83AE83BF8389859A85009719F0DD
:1054600068850E947F030F5F1F4F2C96063211053F
:1054700069F6FF91EF91DF91CF91BF91AF919F912D
:105480008F917F916F915F914F913F912F911F91DC
:105490000F91FF900F900BBE0F900FBE0F901F90BB
:1054A00018958E7F8083D8CF1F920F920FB60F92E0
:1054B00011240BB60F922F933F934F935F936F93EB
:1054C0007F938F939F93AF93BF93EF93FF93F0E0FE
:1054D000E0E01995FF91EF91BF91AF919F918F916E
:1054E0007F916F915F914F913F912F910F900BBEE4
:1054F0000F900FBE0F901F9018951F920F920FB62E
:105500000F9211240BB60F922F933F934F935F93FB
:105510006F937F938F939F93AF93BF93EF93FF937B
:10552000F0E0E0E01995FF91EF91BF91AF919F916D
:105530008F917F916F915F914F913F912F910F903C
:105540000BBE0F900FBE0F901F901895FC01178295
:105550001086108289E0838381E08483858386833B
:105560001182168A158A8FEF838B148A728761875E
:1055700008951F93CF93DF93EC01162F60E0812FE6
:105580000E94A605612F70E0FB01E852FC4FE491F8
:10559000E883FB01EE56FC4FE491F0E0EE0FFF1FB5
:1055A000E858FC4F859194919A8389831B861D86C8
:1055B0001C861A86198618861F821E821D821C82EE
:1055C0001B82DF91CF911F910895CF93DF93EC0160
:1055D000862F698361E00E94A605CE01DF91CF91FD
:1055E0000C94750FCF93DF93EC01862F19821882EC
:1055F0004B836C832D831E829FEF998721E030E0DF
:105600003B872A872FEF30E03B8B2A8B411103C069
:1056100061E00E94A605CE01DF91CF910C94401568
:105620007F928F929F92AF92BF92CF92DF92EF9232
:10563000FF920F931F93CF93DF93CDB7DEB72F97D2
:105640000FB6F894DEBF0FBECDBF1092FC081092CB
:10565000FB0888EE93E0A0E0B0E08093FD08909313
:10566000FE08A093FF08B09300098AE392E09093AC
:10567000FA088093F90885ED90E0909306098093ED
:10568000050984ED90E0909308098093070980ED67
:1056900090E090930A098093090981ED90E090933E
:1056A0000C0980930B0982ED90E090930E09809392
:1056B0000D0986ED90E09093100980930F091092E8
:1056C0001209109213091092140910921509E2EFB1
:1056D000FBE08AEB9DE01082118212821382148219
:1056E00015821682178210861286118613863C96C2
:1056F0008E179F0781F710920E0A10920F0A1092D0
:10570000100AF89480917A00806880937A007894E7
:10571000F89480917A008E7F80937A0080917A004D
:10572000866080937A007894F89480917C008F77DB
:1057300080937C0080917C00806480937C007894CE
:105740006FE381EE9AE00E94B92A61EE7AE08AEC7A
:105750009AE00E94A62A6EE38CEB9AE00E94B92A96
:105760006CEB7AE085EA9AE00E94A62A61E487E978
:105770009AE00E94B92A67E97AE080E89AE00E94FC
:10578000A62A60E482E79AE00E94B92A62E77AE0FA
:105790008BE59AE00E94A62A63E48DE49AE00E94D9
:1057A000B92A6DE47AE086E39AE00E94A62A62E4D0
:1057B00088E29AE00E94B92A68E27AE081E19AE000
:1057C0000E94A62A82E090E09093FA0A8093F90A58
:1057D0002FEE3AE03093FC0A2093FB0A9093020BE1
:1057E0008093010B84EF9AE09093040B8093030B5A
:1057F00088E38093090B10920B0B10920A0B84E143
:1058000090E090930D0B80930C0B2BE320930E0BE9
:105810001092100B10920F0B9093120B8093110BA0
:105820002AE32093130B1092150B1092140B9093F4
:10583000170B8093160B2DE32093180B10921A0B65
:105840001092190B90931C0B80931B0BEDE1FBE066
:105850008FE89BE0108211821282138214821582DB
:105860001682178273968E179F07A1F705E00093A3
:10587000B50B1092B60B1092B70B1092B80B10929A
:10588000BA0B1092B90B1092BF0B1092C00B109272
:10589000C20B1092C10B1092C70B1092C80B109242
:1058A000C90B8AE090E09093BC0B8093BB0B909364
:1058B000BE0B8093BD0B8FE090E09093C40B809360
:1058C000C30B9093C60B8093C50B18E01093910BFC
:1058D0008AEC9BE09093EB0B8093EA0B80E2809341
:1058E000EC0B1092ED0B1092EE0B1092EF0B10924E
:1058F000F10B1092F00B1092BB0D1092BA0D10929A
:10590000BC0D1092BE0D1092BD0D65E38FEB9DE0B6
:105910000E94E52A64E381EC9DE00E94E52A6FE1A4
:1059200083EC9DE00E94E52A6CE185EC9DE00E94FD
:10593000E52A6BE187EC9DE00E94E52A6AE189ECAB
:105940009DE00E94E52A21E041E065E08BEC9DE0CE
:105950000E94F22A24E041E064E08FED9DE00E9485
:10596000F22A23E040E069E183EF9DE00E94F22A01
:1059700026E040E068E187E09EE00E94F22A27E00E
:1059800040E067E18BE19EE00E94F22A28E040E0DF
:105990006EE18FE29EE00E94F22A29E040E06DE194
:1059A00083E49EE00E94F22A2AE040E066E187E577
:1059B0009EE00E94F22A2BE040E061E18BE69EE04F
:1059C0000E94F22A8FE0782E70927F0E1092800E45
:1059D00061E08FE00E94A6058FE79EE00E94680FBD
:1059E0008CE08093810E1092820E61E00E94A605E9
:1059F00081E89EE00E94680F8EE08093830E1092F3
:105A0000840E61E00E94A60583E89EE00E94680F74
:105A1000ECE4F2E0F093860EE093850E86E592E0EA
:105A20009093880E8093870E1093890E8EE59CE0EC
:105A300090938B0E80938A0E8BEA97E190938D0E54
:105A400080938C0E10928E0E1092900E10928F0EEC
:105A50001092920E1092910E1092940E1092930E3C
:105A60001092A10E1092A20E1092A30E1092A40EEC
:105A70001092AD0E1092AE0E1092B00E1092AF0EAC
:105A80001092B40E1092B30E1092B50E1092B60E84
:105A90001092B70E1092B80E9DEC892E9CEC992EA8
:105AA000A92C9DE3B92E8092A90E9092AA0EA092E5
:105AB000AB0EB092AC0E24E6C22ED12CE12CF12C10
:105AC000C092A50ED092A60EE092A70EF092A80E5C
:105AD00040E050E060EA70E44093950E5093960EDB
