:100000000C942F020C94A7270C947C270C94512756
:100010000C9426270C94FB260C94D0260C94A52631
:100020000C947A260C9460020C9460020C9460028A
:100030000C9460020C9460020C9460020C946002B8
:100040000C9460020C9460020C9460020C946002A8
:100050000C9460020C9460020C9460020C943026A4
:100060000C9460020C9432280C9460020C94600290
:100070000C9475290C949E290C9460020C946002D7
:100080000C9460020C9460020C9460020C94600268
:100090000C9460020C9460020C9460020C94600258
:1000A0000C9460020C9460020C9460020C94600248
:1000B0000C9460020C9460020C9460020C94092968
:1000C0000C9460020C9460020C9460020C94FC2767
:1000D0000C94D2270C9460020C9460020C94600281
:1000E0000C9460020C9479070C9406220C94671E01
:1000F0000C94F1030C9404230C94EE030C94EA0387
:100100000C94D1220C94BA250C9453220C941321F4
:100110000C94410B0C9431180C9445180C949A23B0
:100120000C948D070C943F190C94E6030C94881CD6
:100130000C9471060C9412120C9420220C94B02191
:100140000C9456240C94DA210C948E1F0C94BF1E30
:100150000C9401040C941A1C0C94DC030C94331FB3
:100160000C94B7200C94B2060C94B9210C94331A59
:100170000C9448220C943B180C9425060C9492166F
:100180000C949D1A0C946F200C94091A0C949522CF
:100190000C944B060C94FB030C949E060C94411E8D
:1001A0000C94E6200C948C180C945D060C94C223DD
:1001B0000C941D040C94B8160C947A0A0C946922C1
:1001C0000C940F040C94C81E0C94312A0C94950ABC
:1001D0000C9453060C94EA190C94761F0C94430665
:1001E0000C948A060C942D220C942C180C94C20AA0
:1001F0000C94CE1E0C9420060C94F0210C94141A2E
:100200000C9421040C946A070C9425260C94090480
:100210000C94A6230C943D070C94511D0C94392288
:100220000C948A220C94301A0C94200E0C942C07F7
:100230000C94551E0C94FB190C94E10D0C94891E22
:100240000C9418060C948E1C0C94871A0C943C0782
:100250000C94B3220C94D3070C945E220C941704D4
:100260000C947F220C942F060C94B41E0C94561AF6
:100270000C9494060C941E240C94FF180C94120DEC
:100280000C94AE190C94A8060C94F8150C949B07CA
:100290000C941C040C94101C0C9405040C94D71A98
:1002A0000C9434070C9474220C947C190C94E20383
:1002B0000C94041C0C9439210C94E0170C941F1A14
:1002C0000C9427180C94FB210C94E5210C948416B3
:1002D0000C9411220C94BD1F0C948B1C0C94800662
:1002E0000C94FE1F0C9423260C9467060C94172084
:1002F0000C94A0220C94F91C0C9489210C94751870
:100300000C9420080C94C2220C9413040C94B62371
:100310000C94F7030C9439060C94AA1E005EBCE200
:10032000613FDD83C29C7E20A3FD1F41009D23BE53
:1003300046DB65F88C11AF32CA57E9740000210022
:10034000240027002A002D003000330001010000A6
:10035000040107010A0100002200250028002B00EB
:100360002E003100340002010000050108010B01DC
:10037000000020002300260029002C002F0032005E
:100380000001000003010601090105050505070537
:1003900008080808020202020A0A08080404040401
:1003A000010101010101010103030303030303032D
:1003B000040707070C0C0C0C0C0C0C0C02020202BC
:1003C00006060606060606060B0B0B0B0B0B0B0BA5
:1003D0000102102020080810204010204080020157
:1003E000020108040201010204081020408080403C
:1003F000201008040201800402018040201008043B
:1004000002010804020101020408102040800102D8
:1004100004081020408000000A0B02090C0D0E0891
:1004200007030401000000000000000000000000BD
:1004300000000000000000000000000000000000BC
:100440000000121110000000000000000000000079
:10045000000000000000000000000000312A11240C
:100460001FBECFEFD1E2DEBFCDBF00E00CBF17E073
:10047000A0E0B2E0E2E4F5E600E00BBF02C00790C6
:100480000D92AC38B107D9F72EE0ACE8B7E001C067
:100490001D92AE32B207E1F712E0CFE2D2E000E007
:1004A00006C021970109802FFE010E943730CE320D
:1004B000D10780E00807A9F70E94C52D0C949F3250
:1004C0000C9400008091A00C882311F181E090E051
:1004D00090939F0C80939E0C1092230E1092250EE9
:1004E0001092240E1092290E1092270E1092260EB2
:1004F0001092280E8091160E8093210E8091170E77
:100500008093220E10922C0E10922B0E10922D0E14
:100510000895E1E0F8E0A089B18982E08C93A48598
:10052000B5851C92A685B78580E18C93108EA48931
:10053000B58986E08C93A289B3898C9180618C9374
:10054000A289B3898C9188608C93A289B3898C919C
:1005500080688C930288F389E02D80818F7D808371
:1005600008959CEF980F933018F08B3009F05EC01F
:100570008091CF0A811104C08091D00A882341F074
:100580001092610C8091550C80FF2CC080E0089582
:100590001092550C9091610C90FDF8CF92FDF6CF22
:1005A00048EE53E060E070E04093560C5093570CD7
:1005B0006093580C7093590C40935A0C50935B0CF9
:1005C00060935C0C70935D0C25E738E13093600C10
:1005D00020935F0C10925E0C91609D7F9B7F9093A7
:1005E000610C089582FDD2CF48EE53E060E070E0E8
:1005F00040934A0C50934B0C60934C0C70934D0CF1
:1006000040934E0C50934F0C6093500C7093510CD0
:1006100024E836E13093540C2093530C1092520C82
:1006200081608D7F8B7F8093550CB0CF81E00895E2
:10063000CF93DF93FC01CBE9DAE090E1DE0101909A
:100640000D929A95E1F78091A70A9091A80AB0E0DF
:10065000A0E0EAEFFAE08093BA0B9093BB0BA09373
:10066000BC0BB093BD0B8093BE0B9093BF0BA093BC
:10067000C00BB093C10B82E19DE09093C40B8093BB
:10068000C30B1092C20BA5ECBBE08C9183608B7FF7
:100690008C938091A90A9091AA0AB0E0A0E080838F
:1006A0009183A283B38384839583A683B78382E1F6
:1006B00092E1928781871086E5E0FBE0808183608C
:1006C0008B7F8083EEE9FCE0D093030EC093020E93
:1006D00088819981968F858F92AB81AB8091A50A95
:1006E0009091A60A9093EA0D8093E90D90939E0D48
:1006F00080939D0DDF91CF9108959C014FB7F894A1
:1007000080911809E091170981111CC081E08E0FBA
:100710008093170993E0E99FF0011124E256F74F07
:10072000318320836283883211F4109217099091EB
:10073000170980911609981303C081E08093180966
:100740004FBF0895909116099F5F9832A1F0909342
:10075000160991E09E0F9093170983E0E89FF0013E
:100760001124E256F74F318320836283983241F798
:1007700010921709E5CF10921609EBCF8150823104
:1007800008F05AC0E82FF0E08827E653FC4F8F4F5F
:100790000C943730EA03EE03DC03E203E6031C04A7
:1007A000F103F703FB030104050409040F04130418
:1007B0001C0417041D042104809180008F7780930E
:1007C00080000895809180008F7DF9CF8091800016
:1007D000877FF5CF84B58F7784BD089584B58F7DED
:1007E000FBCF8091B0008F778093B0000895809107
:1007F000B0008F7DF9CF809190008F77809390002B
:100800000895809190008F7DF9CF80919000877F2F
:10081000F5CF8091A0008F778093A00008958091FC
:10082000A0008F7DF9CF8091A000877FF5CF8091C8
:1008300020018F77809320010895809120018F7D82
:10084000F9CF80912001877FF5CFCF93DF93282FB9
:1008500030E0F901EA5EFB4F8491F901E053FC4F6F
:10086000D491F901E657FC4FC491CC23A1F081113A
:100870000E94BE03EC2FF0E0EE0FFF1FE059FC4F8B
:10088000A591B491EC91ED2381E090E009F480E032
:10089000DF91CF91089580E090E0FACF0F931F93FE
:1008A000CF93DF93EC01188219821A821B821C827B
:1008B0001D821E821F828FE00E9425049C8180FB86
:1008C00093F99C838CE00E9425049C8180FB94F921
:1008D0009C838EE00E9425049C8180FB95F99C837B
:1008E0000EE91CE08B81F801938990FB80F98B83E2
:1008F00086E00E9425049B8180FB91F99B8389E11E
:100900000E9425049B8180FB94F9F80187A180FB5C
:1009100092F99B8388E00E9425049B8180FB93F9D8
:100920009B8388E10E9425049B8180FB95F99B8332
:1009300087E10E9425049B8180FB96F99B838EE1D1
:100940000E9425049B8180FB97F99B838DE10E9487
:1009500025049C8180FB90F99C8386E10E942504FC
:100960009C8180FB91F99C8381E10E9425049C81FC
:1009700080FB92F99C838CE20E942504998180FB84
:1009800090F999838EE20E942504998180FB91F968
:1009900099838DE20E942504998180FB92F99983C5
:1009A0008FE20E942504998180FB93F9998381E36A
:1009B0000E942504998180FB94F9998380E30E9429
:1009C0002504998180FB95F9998383E30E9425048E
:1009D000998180FB96F9998382E30E94250499818D
:1009E00080FB97F9998385E20E9425049A8180FB18
:1009F00090F99A8384E20E9425049A8180FB91F900
:100A00009A8387E20E9425049A8180FB92F99A8357
:100A100086E20E9425049A8180FB93F99A8389E2F9
:100A20000E9425049A8180FB94F99A8388E20E94AF
:100A300025049A8180FB95F99A838BE20E94250414
:100A40009A8180FB96F99A838AE20E9425049A8112
:100A500080FB97F99A8384E30E942504988180FBA8
:100A600091F9988385E30E942504988180FB90F991
:100A700098838CE10E942504988180FB95F99883E6
:100A80008FE10E942504988180FB94F998838AE184
:100A90000E942504988180FB97F998838BE10E943E
:100AA0002504988180FB96F9988387E00E942504AD
:100AB0009C8180FB96F99C8389E00E9425049C819F
:100AC00080FB97F99C838AE00E9425049D8180FB2E
:100AD00090F99D838BE00E9425049D8180FB91F914
:100AE0009D83DF91CF911F910F9108951F93CF9315
:100AF000DF93282F30E0F901EA5EFB4F8491F90182
:100B0000E053FC4FD491F901E657FC4FC491CC233C
:100B1000A9F0162F81110E94BE03EC2FF0E0EE0F1A
:100B2000FF1FEA5AFC4FA591B4918FB7F894EC914E
:100B3000111108C0D095DE23DC938FBFDF91CF91D8
:100B40001F910895DE2BF8CFCF93DF9390E0FC0147
:100B5000E053FC4F249186579C4FFC0184918823DD
:100B6000C9F090E0880F991FFC01E45CFC4FA5914F
:100B7000B491FC01EA5AFC4FC591D49161110DC0AA
:100B80009FB7F8948C91209582238C938881282399
:100B900028839FBFDF91CF910895623051F49FB7B2
:100BA000F8943C91822F809583238C93E8812E2B9F
:100BB000EFCF8FB7F894EC912E2B2C938FBFEACF09
:100BC0001F93CF93DF93182FEB0161E00E94A405E0
:100BD000209739F460E0812FDF91CF911F910C9421
:100BE0007605CF3FD10511F461E0F5CFE12FF0E0BC
:100BF000EA5EFB4FE491E150E23108F0B3C0F0E06F
:100C00008827EA5FF94F8F4F0C943730180620067B
:100C100025062F063906B20643064B0653065D0627
:100C20006706710680068A06B20694069E06A80626
:100C300084B5806884BDC7BDDF91CF911F910895B1
:100C400084B5806284BDC8BDF7CF80918000806884
:100C500080938000D0938900C0938800EDCF80916D
:100C60008000806280938000D0938B00C0938A00C4
:100C7000E3CF80918000886080938000D0938D00C6
:100C8000C0938C00D9CF8091B00080688093B00071
:100C9000C093B300D1CF8091B00080628093B00048
:100CA000C093B400C9CF8091900080688093900079
:100CB000D0939900C0939800BFCF8091900080623C
:100CC00080939000D0939B00C0939A00B5CF809101
:100CD0009000886080939000D0939D00C0939C000A
:100CE000ABCF8091A00080688093A0008091A0008D
:100CF0008F7B8093A000D093A900C093A8009CCFC5
:100D00008091A00080628093A000D093AB00C0933C
:100D1000AA0092CF8091A00088608093A000D09319
:100D2000AD00C093AC0088CF809120018068809393
:100D30002001D0932901C09328017ECF809120010A
:100D4000806280932001D0932B01C0932A0174CF3D
:100D500080912001886080932001D0932D01C09361
:100D60002C016ACFC038D1050CF03ECF33CF86338B
:100D700008F0865320917B00982F9870277F922B44
:100D800090937B008770806480937C0080917A00D0
:100D9000806480937A0080917A0086FDFCCF8091F8
:100DA00078009091790008953FB7F8948091F60704
:100DB0009091F707A091F807B091F90726B5A89B85
:100DC00005C02F3F19F00196A11DB11D3FBFBA2FDD
:100DD000A92F982F8827BC01CD01620F711D811D9D
:100DE000911D42E0660F771F881F991F4A95D1F722
:100DF00008958F929F92AF92BF92CF92DF92EF921F
:100E0000FF926B017C010E94D4064B015C01C1146E
:100E1000D104E104F104B9F00E94D40668197909FB
:100E20008A099B09683E73408105910580F321E0A2
:100E3000C21AD108E108F10888EE880E83E0981EF6
:100E4000A11CB11CE4CFFF90EF90DF90CF90BF903A
:100E5000AF909F908F900895E7EFF9E083819481A0
:100E60000196948383830895E7EFF9E08085918567
:100E700001969187808708950895AF92BF92CF928F
:100E8000DF92EF92FF920F931F93CF93DF936C014A
:100E90007B018B01040F151FEB015E01AE18BF082B
:100EA000C017D10759F06991D601ED91FC910190DD
:100EB000F081E02DC6011995892B79F7C501DF91E5
:100EC000CF911F910F91FF90EF90DF90CF90BF9047
:100ED000AF900895FC01538D448D252F30E0842F71
:100EE00090E0821B930B541710F0CF960895019752
:100EF0000895FC01918D828D981761F0A28DAE0F3F
:100F0000BF2FB11D5D968C91928D9F5F9F73928FC5
:100F100090E008958FEF9FEF0895FC01918D828DF1
:100F2000981731F0828DE80FF11D858D90E00895BE
:100F30008FEF9FEF0895FC01918D228D892F90E016
:100F4000805C9F4F821B91098F739927089581E0E0
:100F500098E00E949B0721E0892B09F420E0822F72
:100F60000895FC01A48DA80FB92FB11DA35ABF4F3E
:100F70002C91848D90E001968F739927848FA68998
:100F8000B7892C93A089B1898C91837080648C93EC
:100F9000938D848D981306C00288F389E02D80819B
:100FA0008F7D80830895EF92FF920F931F93CF93CD
:100FB000DF93EC0181E0888F9B8D8C8D98131AC094
:100FC000E889F989808185FF15C09FB7F894EE897B
:100FD000FF896083E889F9898081837080648083D8
:100FE0009FBF81E090E0DF91CF911F910F91FF9023
:100FF000EF900895F62E0B8D10E00F5F1F4F0F73CB
:101000001127E02E8C8D8E110CC00FB607FCFACF85
:10101000E889F989808185FFF5CFCE010E94B1076B
:10102000F1CFEB8DEC0FFD2FF11DE35AFF4FF08256
:101030009FB7F8940B8FEA89FB8980818062CFCFBC
:10104000CF93DF93EC01888D8823B9F0AA89BB89FF
:10105000E889F9898C9185FD03C0808186FD0DC0EA
:101060000FB607FCF7CF8C9185FFF2CF808185FF0B
:10107000EDCFCE010E94B107E9CFDF91CF91089566
:1010800080E090E0892B49F080E090E0892B29F006
:101090000E94000081110E94000080E090E0892BF6
:1010A00049F080E090E0892B29F00E940000811136
:1010B0000E94000080E090E0892B29F00E94A707A1
:1010C00081110E94000080E090E0892B49F080E0CF
:1010D00090E0892B29F00E94000081110C940000FF
:1010E0000895DC0180E0615090F09D919827E92FF0
:1010F000EF70F0E0E45EFC4F2491E92FE295EF7091
:10110000F0E0E45DFC4FE491822F8E27ECCF089550
:10111000DC012C911196ED91FC91F8948181822B48
:1011200081839281322F30959323928387E090E0E0
:101130000197F1F781818323818383E290E0019716
:10114000F1F790817894EFECF0E03197F1F792238A
:1011500081E009F480E00895FC0190810180F28132
:10116000E02D292F209560FF14C0F89482818223FE
:1011700082838181892B8183A3E2B0E01197F1F70B
:101180008281982B9283789487ED90E00197F1F714
:101190000895F8948281822382838181892B8183BF
:1011A000AFEFB0E01197F1F78281982B928378949A
:1011B0008FE090E0EBCFDF92EF92FF920F931F93BF
:1011C000CF93DF93EC01D62EE42E08E010E0FF244D
:1011D000F39461E08D2D8F2109F460E0CE010E942F
:1011E000AC08FF0C01501109A1F7E11010C0F894F0
:1011F000E981FA8191818881809589238183E981C0
:10120000FA81928188818095892382837894DF9105
:10121000CF911F910F91FF90EF90DF900895EF9283
:10122000FF920F931F93CF93DF938C017B0140E0DC
:1012300065E50E94DB08E70188E0E80EF11C699192
:1012400040E0C8010E94DB08CE15DF05C1F7DF9141
:10125000CF911F910F91FF90EF900895FC01908125
:101260000180F281E02DF8948181292F209582233D
:10127000818378943DE743E050E0315029F1DA0171
:101280001197F1F780818923C1F3F8948281822339
:1012900082838181892B81837894ABE7B7E01197B2
:1012A000F1F7F894818182238183A3E1B1E0119762
:1012B000F1F78081982381E009F080E07894E3E6FB
:1012C000F6E03197F1F7089580E008958F929F92AC
:1012D000AF92BF92CF92DF92EF92FF920F931F9344
:1012E000CF93DF9300D01F921F92CDB7DEB78C0152
:1012F000DC0119968D919C910E942E0940E06CECC6
:10130000F801818592850E94DB08D8014C9164E444
:1013100019968D919C910E94DB088FB7F894C0902C
:10132000F207D090F307E090F407F090F5078FBF35
:10133000F8018481811120C081E08983CA82DB8227
:10134000EC82FD8229813A814B815C816D8170E064
:1013500080E090E00F900F900F900F900F90DF9132
:10136000CF911F910F91FF90EF90DF90CF90BF90A2
:10137000AF909F908F90089585818823F9F08081A8
:1013800081111CC0F801818592850E9488088130F6
:1013900099F22FB7F8948091F2079091F307A091FA
:1013A000F407B091F5072FBF8C199D09AE09BF094D
:1013B0008E3E9240A105B10528F3BECFD801139609
:1013C000EC91E9508EEE92E0E33038F4F0E0EE0F6D
:1013D000FF1FE05DFD4F808191814C01B12CA12C5C
:1013E000F8018181882321F060E082810E947605E6
:1013F000C501B4010E94F906D80111968C9111978C
:10140000882309F499CF61E012968C910E947605A9
:1014100093CF4F925F926F927F928F929F92AF92F3
:10142000BF92CF92DF92EF92FF920F931F93CF93D1
:10143000DF938C017B01EA01FC01818592850E948A
:101440002E098823D9F1B701F801818592850E9480
:101450000F0940E06EEBF801818592850E94DB0860
:101460006E015E01F9E0AF0EB11C7E01F8018184CE
:10147000928488E0682E712C512C44244394C4013A
:101480000E94880881115428440CF1E06F1A7108F9
:10149000B1F7F70151927F01AE16BF0639F7F80197
:1014A000818592850E942E09813041F4F601819157
:1014B0006F01811105C0EE15FF05C1F790E008C06E
:1014C00068E0CE010E94710891E028852813F6CFCC
:1014D000892FDF91CF911F910F91FF90EF90DF90B7
:1014E000CF90BF90AF909F908F907F906F905F90C4
:1014F0004F900895E1E0FAE0A281B38113968D91B7
:101500009C91149714961C921E9213979583848332
:10151000A285B38513968D919C91149714961C9275
:101520001E9213979587848708952091050A30911C
:10153000060A8091070A9091080A28173907C0F017
:1015400081E090E09093020A8093010A20910D0AB5
:1015500030910E0A80910F0A9091100A28173907CE
:1015600060F081E090E090930A0A8093090A089560
:101570001092020A1092010AE9CF10920A0A109200
:10158000090A089510924D0BEDEFF7E08081877FF7
:1015900080830895CF93DF93A0E0B2E0FD0190E057
:1015A000219131912817390721F4EF0122971982EF
:1015B000188222E0E031F20799F78D919D91892BF5
:1015C00041F482E0A031B807C1F781E0DF91CF910B
:1015D000089580E0FBCFFC0121812150330B70E0A6
:1015E00060E0472F50E0421753073CF4480F591F63
:1015F000FA014081640F7F5FF4CF820F931FFC01DB
:1016000060830895FC0181E08083658385E08283A7
:101610008091990AA0E0B2E020E132E04D915D9125
:10162000452BC1F42A173B07C9F791E0877F90FF4C
:1016300088608383F8949091F70A8091F60A91115B
:101640000BC09091F50A981307C07894148287E034
:101650008183089590E0EACF90E0A091F20AB091E2
:10166000F30AA80FB91F2C9101966091F40A70E05B
:101670000E9423308093F60A1092F70A789424830C
:10168000E6CFCF93DF93CDB7DEB7C456D1090FB6FF
:10169000F894DEBF0FBECDBF66E0CE0101960E947A
:1016A000020BCE0101960E94EB0ACC59DF4F0FB618
:1016B000F894DEBF0FBECDBFDF91CF910895CF93D9
:1016C000DF93EC0167E00E94020BCE01DF91CF9126
:1016D0000C94EB0AE1ECF0E080818068808308954F
:1016E0001F93CF93DF93EC0119861EAAFC01E05CE7
:1016F000FF4F10829FAD319680E0981719F011923C
:101700008F5FFBCFFE01E55BFF4F108231971082A8
:1017100010E08FAD181750F4EA81FB81E10FF11D45
:1017200060E080810E9476051F5FF3CFDF91CF914B
:101730001F9108953F924F925F926F927F928F9286
:101740009F92AF92BF92CF92DF92EF92FF920F9350
:101750001F93CF93DF9300D000D0CDB7DEB79E8329
:101760008D83062F10E08FB7F894C090F207D090C9
:10177000F307E090F407F090F5078FBFED81FE814D
:1017800080A991A9A2A9B3A9C81AD90AEA0AFB0A91
:10179000C701B6010E946D3120E030E04AE754E411
:1017A0000E94C530AD81BE8194966D937D938D93DB
:1017B0009C939797FD01C0A2D1A2E2A2F3A22FB7FA
:1017C000F8948091F2079091F307A091F407B091FB
:1017D000F5072FBFED81FE8180AB91ABA2ABB3AB20
:1017E0001587048762857385601B710BE6A4F7A4D7
:1017F000E01AF10A17A706A781A5882331F0719591
:1018000061957109F194E194F108AD81BE819896DA
:101810003C90072E000C880B990B0E946F314B01F6
:101820005C0110E000E031100BC0ED81FE812089E9
:101830003189428953890E9424320E9437318B01B9
:10184000B701FF0C880B990B0E946F316B017C0173
:10185000AD81BE8194968D919D910D90BC91A02DEE
:1018600089839A83AB83BC83ED81FE81208D318D8A
:10187000428D538DC701B6010E94243229813A81DD
:101880004B815C810E94C5302B013C01B801110FD6
:10189000880B990B0E946F319B01AC01C301B2010F
:1018A0000E9454300E9437312B01AD81BE811F96BA
:1018B0007C936E931E9754962D913D914D915C9122
:1018C0005797C501B4010E94243229813A814B8186
:1018D0005C810E942432ED81FE81248D358D468D00
:1018E000578D0E9454304B015C01AD81BE815C96E6
:1018F0008D929D92AD92BC925F973320A1F050964D
:101900002D913D914D915C915397C701B6010E9475
:101910002432A50194010E945430ED81FE81648F30
:10192000758F868F978FAD81BE815C968C905C970A
:101930005D969C905D975E96AC905E975F96BC902E
:101940005F979A960D911C91B801012E000C880B9F
:10195000990B0E946F316B017C019B01AC01B401BA
:10196000C5010E94C03087FD16C0ED81FE8164A5CF
:1019700075A5072E000C880B990B0E946F316B0127
:101980007C019B01AC01B401C5010E941F321816F5
:1019900014F064017501C601D701ED81FE81848FC9
:1019A000958FA68FB78FB201550C880B990B0E94AB
:1019B0006F319601A7010E9454300E9437316017A1
:1019C00071074CF0AD81BE819C960D911C91601702
:1019D00071070CF48B01ED81FE811787068706AB3A
:1019E000E55BFF4FAD81BE8114968C91081708F41A
:1019F000802F808326960FB6F894DEBF0FBECDBF32
:101A0000DF91CF911F910F91FF90EF90DF90CF90DA
:101A1000BF90AF909F908F907F906F905F904F900E
:101A20003F900895CF93DF93CDB7DEB768970FB699
:101A3000F894DEBF0FBECDBFE1E0FAE0DE01119603
:101A400044A155A166A177A14D935D936D937D93BC
:101A500073968AE0E337F80799F78091720D88232F
:101A600051F069817A818B819C810E943E3189E6A7
:101A70009DE00E949A0B8091BE0D882391F06981B0
:101A80007A818B819C810E943E3185EB9DE0689636
:101A90000FB6F894DEBF0FBECDBFDF91CF910C948F
:101AA0009A0B68960FB6F894DEBF0FBECDBFDF91DC
:101AB000CF9108951F93CF93DF93EC01162F0E94CF
:101AC000700BED81FE812F8138858CA99DA9B0E036
:101AD000A0E080839183A283B38384839583A683CC
:101AE000B783328721871087838581608D7F8B7FC5
:101AF0008387DF91CF911F910895E62FDC01149623
:101B00002C911497621758F461E0642712968D9116
:101B10009C91E80FF92FF11D80810C9476050895B2
:101B2000CF92DF92EF92FF920F931F93CF93DF93A9
:101B300000D000D01F921F92CDB7DEB7FC018E01FE
:101B40000F5F1F4F88E0D8011D928A95E9F7428503
:101B5000C180E0802E2D30E0842FF12CDD24D39441
:101B6000CF100EC0CF010296B801562F501B5E1544
:101B700090F4DB015D91BD01DC015D93CD01F5CFFA
:101B800090E0D801A80FB91FDC920196B9010E941C
:101B90002330F394E5CF842F90E00196B9010E94A1
:101BA0002330828728960FB6F894DEBF0FBECDBFD4
:101BB000DF91CF911F910F91FF90EF90DF90CF9029
:101BC00008951F93CF93DF93FC0181858823A1F1B2
:101BD000DF01A65BBF4F9C91EF01C55BDF4F8881A2
:101BE000981730F59F5F9C939F01205C3F4F97AD06
:101BF0008C91981708F4892FEF01F9018083CE01A9
:101C0000CF960E94900D10E08FAD1817A8F4812F89
:101C100090E0DE01A80FB91FAF5BBF4FEA81FB81E7
:101C2000E80FF91F6C9180810E9476051F5FECCF51
:101C30008917D0F69150D7CFDF91CF911F9108959A
:101C400089E69DE00E94E10D85EB9DE00C94E10D9D
:101C5000EF92FF921F93CF93DF93EC0110E08C8102
:101C60001817A0F4E12EF12CEA81FB81EE0DFF1D87
:101C700061E080810E94A405EA81FB81EE0DFF1DD9
:101C800060E080810E9476051F5FE9CFFE01E05C85
:101C9000FF4F1082CE01CF96DF91CF911F91FF9021
:101CA000EF900C94900D81E20E94250421E0892B95
:101CB00009F420E0822F0895FC018181861799F0B4
:101CC000618381E090E0938382838081861751F065
:101CD000662381F084819581228133812817390719
:101CE00008F060830895828193818F3F980769F39C
:101CF0000196E9CF86819781EFCFCF93DF93EC01F7
:101D00008A8181111EC081E08A838B81811117C075
:101D10008C81813171F48091D00080648093D000F7
:101D20008091D100877E8093D10061E081E10E94A3
:101D3000A40561E08C81DF91CF910C9476058881B8
:101D40008987DF91CF910895CF93DF93EC01862FA0
:101D500068835A8349831C821B8262E00E94A40527
:101D600029813A819881923069F43093110220934D
:101D7000100280916A00836080936A00EC9ADF9180
:101D8000CF910895933059F43093130220931202A7
:101D900080916A008C6080936A00ED9AF0CF8EEE9D
:101DA000890F843060F787E1891BE82FF0E0EE0FA0
:101DB000FF1FE05FFD4F31832083843091F0853039
:101DC000B9F0833039F080916900836080936900B5
:101DD000E89AD5CF809169008C6080936900E99A78
:101DE000CECF80916900806380936900EA9AC7CF63
:101DF00080916900806C80936900EB9AC0CFFC01F0
:101E0000118260E080810C947605FC01108260E014
:101E100081810C94760521E0FC01208361E08181C1
:101E20000C947605F8949091F70A992359F08091D3
:101E3000F80A9091F90A01969093F90A8093F80AAA
:101E4000789408952091F50A30E0E091F20AF0913B
:101E5000F30AE20FF31F8083C90101966091F40A2F
:101E600070E00E9423308093F50A9091F60A98134F
:101E7000E7CF81E08093F70AE3CFFC0101900020D7
:101E8000E9F73197AF01481B590BBC0181E098E09D
:101E90000C943D078F929F92AF92BF920F931F9326
:101EA000CF93DF93CDB7DEB7A1970FB6F894DEBF1F
:101EB0000FBECDBF19A2423008F44AE08E010F5D7B
:101EC0001F4F842E912CB12CA12CA50194010E94AE
:101ED0000130E62FB901CA01EA30F4F4E05DD8011F
:101EE000EE938D01232B242B252B79F790E080E0B6
:101EF000109719F0CD010E943D0FA1960FB6F894EE
:101F0000DEBF0FBECDBFDF91CF911F910F91BF906C
:101F1000AF909F908F900895E95CE1CF009711F00A
:101F20000E943D0F8EE592E00C943D0F83EA9CE009
:101F30000E94050F85EA9CE00E94050F8091A10C8C
:101F40009091A20C039761F489EA9CE00E940B0F28
:101F500081E692E00E948E0F83EC9CE00C947D0E53
:101F600087EA9CE00E94050FF7CF8EE692E00E9480
:101F70008E0FE1E0FAE015821482AAEFBAE04CE29B
:101F800051E060E070E0D0964D935D936D937C934B
:101F9000D397D4964D935D936D937C93D79785E9B2
:101FA0009AE0DA969C938E93D997D8961C92A5E3E3
:101FB000BBE08C9181608D7F8B7F8C9382E090E081
:101FC00091838083A281B38114961C921E921397F1
:101FD00091878087158614860284F385E02D14820C
:101FE000138208950E94530E882371F08091FF0799
:101FF00080FD04C083E892E00E948E0F8091FF076D
:1020000081608093FF0708958091FF078E7F809302
:10201000FF078091010A9091020A029709F450C0CB
:102020002091050A3091060A8091070A9091080ACA
:102030002817390708F445C081E090E09093020A20
:102040008093010A2091010A3091020A91E0213027
:10205000310509F090E08091FD0781FD04C08260A8
:102060002130310521F48091FD0790FB81F98093A7
:10207000FD078091090A90910A0A029709F180915F
:10208000160A0E94B7069C019093180A8093170ABB
:102090006091190A70911A0A41E06817790708F4EB
:1020A00040E09091FD0792FD05C0892F8460621782
:1020B000730720F08091FD0740FB82F98093FD07B4
:1020C00008951092020A1092010ABCCF0E94F20FEA
:1020D00085E40E942504892B71F08091FF0781FD22
:1020E00004C083E992E00E948E0F8091FF07826016
:1020F0008093FF0708958091FF078D7FF9CFBF92EE
:10210000CF92DF92EF92FF920F931F93CF93DF93C3
:10211000EC01B62EC72E8D85811105C0CE010E941F
:102120002E0981110EC01B861D861C8680E0DF9162
:10213000CF911F910F91FF90EF90DF90CF90BF90C4
:10214000089540E060EFCE010E94DB0801E0E12C41
:10215000D12C11E0CE010E948808F82ECE010E94F9
:10216000880891E0F91218C0813099F51134D8F23D
:10217000DB86D11002C081E08D878B81882399F2A4
:102180002396EB2DFC2DCF01089629912193E8177A
:10219000F907D9F781E0CBCFEE2DF0E0F8120FC0B0
:1021A0008B851817A0F4DE01AE0FBF1F13968C911C
:1021B000802379F4F12C193008F41C87D12EEC0F10
:1021C000FD1F8381902F9095892383830AC08113FB
:1021D000F1CFFE01EE0DF11D8381802B8383FF245F
:1021E000F3946F2DCE010E94AC081F5F000F11F415
:1021F000E39401E087E08E1508F0ACCFB7CFCF9322
:10220000DF93EB01DC011996ED91FC911A9713868F
:1022100015861486128611861086178216821582FC
:102220001482138219968D919C910E947F10982F91
:10223000882341F067E0CE010E94710891E02F8170
:10224000281390E0892FDF91CF9108958F929F926C
:10225000AF92BF92EF92FF920F931F93CF93DF93B2
:10226000CDB7DEB761970FB6F894DEBF0FBECDBF16
:102270007C01FC0100851185F8018781882309F420
:1022800070C0BE01665F7F4FC8010E94FF108823A7
:1022900009F467C0AE014F5F5F4FBE01665F7F4FBD
:1022A000C8010E94090A882309F45BC08A81812C35
:1022B000912C540187FF06C0812C912CF8EFAF2E92
:1022C000BB24BA949A8549819B3309F065C02D815E
:1022D00027FF62C040FD45C0042F10E030E020E041
:1022E00073E0000F111F221F331F7A95D1F7B90138
:1022F000A801407E57706627772790E0B0E0A0E005
:102300008C019D01EBE0000F111F221F331FEA9586
:10231000D1F7042B152B262B372B082919292A290D
:102320003B29013854EE15075FEF25073507CCF040
:10233000C901B8010E946F3120E030E040E05CE369
:102340000E9424324B015C0120E030E04EEF52EC61
:102350000E94C030882329F0F70180829182A282F6
:10236000B382F701808591850E946609F70160813B
:1023700071818281938161960FB6F894DEBF0FBEA2
:10238000CDBFDF91CF911F910F91FF90EF90BF9044
:10239000AF909F908F900895082F10E0102F002786
:1023A000110F110F110FF8E04F9FA0011124042B02
:1023B000152B012E000C220B330B082919292A2971
:1023C0003B29903109F0ADCF6885662309F4A9CF88
:1023D00070E08F81AB01481B5109CA019695982F77
:1023E0008827979587950E942330CB01770FAA0BFA
:1023F000BB0B53E0000F111F221F331F5A95D1F75B
:102400000078277033270052110921093109800F04
:10241000911FA21FB31F95018401082B192B2A2B92
:102420003B2B7FCF8091BD0A81508093BD0A8111E3
:1024300018C085E08093BD0A80919A0A23E1829FAB
:10244000C00111248B5D954F0E94261190919A0A2C
:10245000892F8F5FF1F39FEF8630D0F780939A0A30
:10246000089585E29AE00C942611BF92CF92DF92F4
:10247000EF92FF920F931F93CF93DF93CDB7DEB709
:1024800061970FB6F894DEBF0FBECDBF7C018B0104
:10249000DC0119967C936E93189783E0D82ECC2498
:1024A000C394D8011996ED91FC911A97138615865D
:1024B000148612861186108617821682158214825F
:1024C000138217961C92179718961C9262E370E07D
:1024D00080E090E00E94F906BE01665F7F4FF80140
:1024E000818592850E947F10882309F477C067E078
:1024F000CE010A960E94710899898913EDCFD801FF
:1025000017968C9117978F5F17968C938A858832D0
:1025100031F008F04AC0803111F08232E9F6F8015A
:1025200080858F5F80878081811124C0818592851D
:102530000E942E09BE01665F7F4FD80119968D91CA
:102540009C910E940F0940E064EBF801818592851F
:102550000E94DB08D80119968D919C910E948808F1
:10256000B82EF801818592850E942E09B11002C013
:10257000D801CC928A85803119F1AE014F5F5F4F4F
:10258000BE01665F7F4FC8010E94090A882359F087
:102590008D819A859B3311F487FD12C08F3391F0A2
:1025A00058F48F31B9F080E00EC08B3309F4B7CF07
:1025B000823409F091CFB3CF8F3571F08F3799F70F
:1025C0008CE001C08AE0F8019381981708F084CF6D
:1025D000838382CF89E0F7CF8BE0F5CFD8011796C0
:1025E0009C91911103C0DA94D1105BCFD70118965A
:1025F000ED91FC919781992331F0B701665F7F4F90
:10260000CF010E94FF10F701828B0084F185E02D3D
:102610001482D70118968D919C910E94660961964B
:102620000FB6F894DEBF0FBECDBFDF91CF911F91E3
:102630000F91FF90EF90DF90CF90BF9008958F9211
:102640009F92AF92BF92CF92DF92EF92FF92CF9381
:10265000DF936A017B01E9010E943D0FC530D1057E
:1026600009F0A5C0A7019601C701B6010E949132E9
:10267000882391F083EA92E00E943D0F8EE592E07C
:10268000DF91CF91FF90EF90DF90CF90BF90AF9010
:102690009F908F900C943D0F46015701E894B7F836
:1026A0002FEF3FEF4FE75FE7C501B4010E94913282
:1026B00081110DC02FEF3FEF4FE75FE7C501B40178
:1026C0000E94C03018161CF487EA92E0D5CF2FEF95
:1026D0003FEF4FE75FE4C701B6010E941F321816B3
:1026E0001CF48BEA92E0C8CF2FEF3FEF4FE75FEC8F
:1026F000C701B6010E94C03087FDF3CF20E030E073
:10270000A901C701B6010E94C03087FF09C06DE270
:1027100081E098E00E94D307F7FAF094F7F8F0947C
:102720002BEA35EC47EA56E3C701B6010E94543064
:102730006B017C010E943E314B015C010E946D31B6
:102740009B01AC01C701B6010E9453306B017C01B3
:102750004AE0C501B4010E944A0F6EE281E098E0B0
:102760000E94D307C6E0C15009F488CF20E030E0D2
:1027700040E251E4C701B6010E9424324B015C01E2
:102780000E943E316B01F12CE12C4AE0C701B601F9
:102790000E944A0FC701B6010E946D319B01AC0136
:1027A000C501B4010E9453306B017C01DCCFC7012D
:1027B000B6010E943E314C2F0E944A0F5FCFCF934B
:1027C000C82F682F70E090E080E00E946D31AB016F
:1027D000BC012AE030E08FEA92E00E941F1381E002
:1027E0008093BE0D8C2F90E09093C00D8093BF0D11
:1027F0006C2F85EB9DE00E949A0B82EC92E0CF91CA
:102800000C948E0FCF93C82F682F70E090E080E07B
:102810000E946D31AB01BC012AE030E08DEC92E00A
:102820000E941F136C2F85EB9DE00E945A0D8DE0D6
:102830008093A00CCF910895CF92DF92EF92FF92F8
:10284000CF93DF93CDB7DEB768970FB6F894DEBFAE
:102850000FBECDBFE1E0FAE0DE01119683E79AE01A
:1028600040A551A562A573A54D935D936D937D938E
:1028700073968E179F07A1F78091100E9091110EFD
:1028800081309105E9F098F0029709F446C08FEA8B
:102890009CE068960FB6F894DEBF0FBECDBFDF9107
:1028A000CF91FF90EF90DF90CF900C947D0E8BEA4C
:1028B0009CE00E94050F8DEA9CE00E94050FE7CF87
:1028C0008BEA9CE00E94050F8DEA9CE00E94050FB8
:1028D000C980DA80EB80FC80C701B6010E943E31DE
:1028E00081E08093720D862F90E09093740D809319
:1028F000730D89E69DE00E949A0B82EC92E00E94A3
:102900008E0F2AE030E0B701A6018FEE92E00E9420
:102910001F1385E10E94120FBACF8DEA9CE00E943E
:102920000B0F8BEA9CE00E940B0F83E19DE00E945D
:102930007D0E87E29DE00E947D0E61E08CE00E94AA
:10294000760561E08EE00E947605C980DA80EB8032
:10295000FC80C701B6010E943E31862F0E94DF1322
:102960002AE030E0B701A6018FEE92E00E941F132B
:1029700087E1D0CF1F93CF93DF93CDB7DEB76897B2
:102980000FB6F894DEBF0FBECDBFE1E0FAE0DE0186
:10299000119623E73AE040A551A562A573A54D9392
:1029A0005D936D937D9373962E173F07A1F79091DA
:1029B000A00C981739F0182F953009F456C020F460
:1029C0009430A1F180E047C0963009F47AC09B3082
:1029D000C9F7843009F45DC08630A1F769817A8136
:1029E0008B819C810E943E3181E08093720D862F05
:1029F00090E09093740D8093730D89E69DE00E94A2
:102A00009A0B82EC92E00E948E0F1093A00C81E052
:102A100090E09093110E8093100E1092A20C1092E1
:102A2000A10C0E941C140E94960FCCCF853031F06F
:102A30001B3041F68BE00E940214C4CF83E090E08B
:102A40009093A20C8093A10C0E94960F1093A00C5F
:102A50000E94B50F81E068960FB6F894DEBF0FBEF6
:102A6000CDBFDF91CF911F910895843009F769811F
:102A70007A818B819C810E943E31862F0E94DF13D8
:102A80001093A00C1092A20C1092A10C0E94960F11
:102A9000DFCF69817A818B819C810E943E31862FB4
:102AA0000E94DF131093A00C82E090E09093110E2F
:102AB0008093100E1092A20C1092A10C0E941C1474
:102AC000E5CF8B3009F07ECF2AE030E040E050E0E7
:102AD00060E371E489E193E00E941F136BE089E6F3
:102AE0009DE00E945A0D8DE08093A00C6BCFCF9398
:102AF00021E030E03093980A2093970A9091990A48
:102B000091609B7F9093990A4CE251E060E070E005
:102B100040932A0B50932B0B60932C0B70932D0B2F
:102B200040932E0B50932F0B6093300B7093310B0F
:102B300045E95AE05093340B4093330B1092320B1B
:102B40009091350B91609D7F9B7F9093350B909179
:102B5000A00C9B3031F41092BC0A1092BB0ACF91AA
:102B60000895963029F43093BC0A2093BB0AF7CF1E
:102B70002CEF290F223038F482E090E09093BC0AC9
:102B80008093BB0AECCF973081F5C82F2AE030E064
:102B900040E050E060E87FE389E393E00E941F1388
:102BA0004091A10A5091A20A70E060E04093620C4B
:102BB0005093630C6093640C7093650C4093660CA7
:102BC0005093670C6093680C7093690C80EE97E1EA
:102BD00090936C0C80936B0CC0936A0C80916D0C7D
:102BE00081608D7F8B7F80936D0C83E090E0C6CFFA
:102BF0000F931F93CF93DF9383E20E9425048C01F0
:102C000082E20E942504EC0161E0012B09F460E0FE
:102C10008FEB9AE00E945C0E61E0CD2B09F460E03E
:102C200087EC9AE00E945C0E6091BF0A6093CF0A25
:102C30008091C70A8093D00A811105C081E0662384
:102C400019F082E001C083E08093D10A8091B10C39
:102C5000882309F454C08091C50C882309F44FC01F
:102C60008091120E8093210E88EC8093220E70E0EA
:102C700090E080E00E946D31AB01BC012AE030E0C1
:102C800083E593E00E941F1360912B0E70912C0E30
:102C9000072E000C880B990B0E946F31AB01BC0111
:102CA0002AE030E085E693E00E941F136091210E38
:102CB00070E090E080E00E946D31AB01BC012AE041
:102CC00030E080E793E00E941F138091B10C8823CD
:102CD00039F06091210E70E08091B30C0E94E00504
:102CE0008091C50C882359F06091220E70E080918C
:102CF000C70CDF91CF911F910F910C94E005DF91EC
:102D0000CF911F910F91089582E090E09093980ADF
:102D10008093970A8DE793E00E948E0F87ED9CE0E9
:102D20000C947D0E1092D10B8091BB0A9091BC0A3D
:102D3000009769F00297D9F48BE00E94BA141092C0
:102D4000BC0A1092BB0A82E993E00C948E0F80912A
:102D5000BE0A81110CC086E00E94BA1481E090E0A6
:102D60009093BC0A8093BB0A89EB93E0EECF089561
:102D70001092DD0B8091BB0A9091BC0A81309105C5
:102D800021F070F00297D1F008958BE00E94BA1400
:102D90001092BC0A1092BB0A8DED93E00C948E0F3A
:102DA00084E00E94BA1482E090E09093BC0A809381
:102DB000BB0A1092790C8FEF93E0F0CF1092790C50
:102DC00008951F93CF93DF93FC0122812223A1F06A
:102DD000EC01128214818381882391F061E0812FBC
:102DE0000E94A40560E0812F0E947605E889F98998
:102DF0001386EE85FF851386DF91CF911F9108958D
:102E000060E0812F0E9476058C818131A9F7DF91E6
:102E1000CF911F910C9489020E948E0F10929F0CEB
:102E200010929E0C8FEA9CE00E94E11683EC9CE0DD
:102E30000E94E11687ED9CE00E94E1168BEE9CE07B
:102E40000E94E1168FEF9CE00E94E11683E19DE075
:102E50000E94E11687E29DE00E94E1168BE39DE06F
:102E60000E94E1168FE49DE00E94E11683EA9CE057
:102E70000E94050F85EA9CE00E94050F87EA9CE00E
:102E80000E94050F89EA9CE00E94050F8BEA9CE0F6
:102E90000E94050F8DEA9CE00E94050F83E69DE0ED
:102EA0000E94FF0E85E69DE00E94FF0E87E69DE0F2
:102EB0000E94FF0E89E69DE00E94700B85EB9DE06D
:102EC0000E94700B10920E0E1092F50B1092010CD6
:102ED0001092250C1092190C10923D0C10920D0CB2
:102EE0001092310C1092490CEFEFF7E0808188606E
:102EF000808308951F93CF93DF93EC01162F0097E3
:102F000011F00E948E0F83E294E00E948E0F1092C7
:102F1000980A1092970A1092010E1092A00D83E366
:102F200094E00E940C178091A00C8C50823010F01D
:102F30001092A00C209719F0CE010E948E0F609184
:102F4000990A6E7F64606093990A1092060A109243
:102F5000050A10920E0A10920D0A1092410B10925F
:102F60004D0B1092590B1092650B1092710B109231
:102F7000D10B1092DD0B1092550C1092610C109237
:102F8000350B10926D0C1092790C70E090E080E09F
:102F90000E946D31AB01BC0120E130E083E494E09C
:102FA0000E941F131092BE0A111106C089E1DF9121
:102FB000CF911F910C94120FDF91CF911F91089523
:102FC000CF93C82F10926D0C10924D0B84E594E0B6
:102FD0000E948E0F8091FD07C11115C083FD11C0A5
:102FE0008CE10E94120F1092010E1092A00D83E34B
:102FF00094E00E940C1760E090E080E0CF910C9488
:103000007A178DE1EECF83FD17C084E694E00E942D
:103010008E0F10929F0C10929E0C8BE08093A00C50
:103020000E94620280E00E9477158CE10E94120FDC
:103030008EE1CF910C94120F80E794E00E948E0FE6
:1030400060E090E080E00E947A178DE1F2CF60E0CE
:1030500087E994E00C947A1760E08EEA94E00C948F
:103060007A17EDEFF7E080818D7F808360E08FEB52
:1030700094E00C947A17EDEFF7E080818460808310
:1030800060E08BED94E00C947A17CF93C82F1092E8
:10309000710B88EF94E00E948E0F8091A00C8D3010
:1030A000D1F4C093A00C8BEA9CE00E94050F6C2F1A
:1030B00070E090E080E00E946D31AB01BC012AE03D
:1030C00030E080E195E00E941F130E94620286E1D9
:1030D000CF910C94120F8C3031F487E295E00E946E
:1030E0000C171092A00CCF9108951092550C1092CD
:1030F000610C82E395E00E948E0F87ED9CE00E94B8
:10310000E116EEE9FCE01182108287E082830E94E2
:10311000620281E00C9477159EEF980F923008F0D0
:1031200069C01092010C833099F183E19DE00E9407
:103130007D0E87E29DE00E947D0E80EC94EDA1E083
:10314000B0E08093F60B9093F70BA093F80BB0933D
:10315000F90B8093FA0B9093FB0BA093FC0BB093AD
:10316000FD0B8CE898E19093000C8093FF0B83E0BB
:103170008093FE0B8091010C81608D7F8B7F80930B
:10318000010C81E10E94120F86E495E00C948E0FF1
:1031900083E19DE00E94E11687E29DE00E94E11636
:1031A00082E10E94120F80E395E7A0E0B0E08093F7
:1031B000F60B9093F70BA093F80BB093F90B809359
:1031C000FA0B9093FB0BA093FC0BB093FD0B8CE8D8
:1031D00098E19093000C8093FF0B84E08093FE0BAA
:1031E0008091010C81608D7F8B7F8093010C8FE437
:1031F00095E0CCCF60E087E595E00C947A178230BB
:10320000C9F51092F50B87ED9CE00E94E11683EC66
:103210009CE00E94E1168FEF9CE00E947D0E80E30F
:1032200095E7A0E0B0E08093EA0B9093EB0BA093BE
:10323000EC0BB093ED0B8093EE0B9093EF0BA09300
:10324000F00BB093F10B8FEF98E19093F40B809318
:10325000F30B81E08093F20B8091F50B81608D7F01
:103260008B7F8093F50B8EE00E94120F86E695E02F
:103270000C948E0F60E08EE695E00C947A17CF9355
:10328000C82F1092650B83E19DE00E94E11660E07B
:103290008CE00E9476058091A00C8C3059F48DE76B
:1032A00095E00E940C171092A00C85EA95E0CF9152
:1032B0000C948E0F8D30C9F7C093A00C1092110E94
:1032C0001092100E1092A20C1092A10C0E941C14CD
:1032D0000E94960F88E10E94120F6C2F70E090E020
:1032E00080E00E946D31AB01BC012AE030E089E84A
:1032F00095E00E941F13D9CF8F929F92AF92BF92F9
:10330000CF92DF92EF92FF920F931F93CF93DF93B1
:1033100080919E0C90919F0C019709F034C08FEB27
:1033200095E00E948E0F80EE95E00E948E0FE09156
:10333000A00CE150EB3008F5F0E08827ED55F64E93
:103340008F4F0C943730AE19FB19091A141A1F1A33
:10335000301A331A561A871A9D1AD71A8091A50C5B
:10336000882321F085EA9CE00E94050F8BEE9CE00B
:103370000E947D0E87E00E94120F10929F0C109207
:103380009E0C0E94B50F0E94530E9091FF0780FB88
:1033900090F99093FF0785E40E94250421E0892B92
:1033A00009F420E08091FF0720FB81F99091CF0A7A
:1033B00090FB82F98093FF078091970A9091980A79
:1033C000009741F0C091A00C029709F0F5C08C2F36
:1033D0000E94B10260E08CE799E1DF91CF911F91EB
:1033E0000F91FF90EF90DF90CF90BF90AF909F90A4
:1033F0008F900C947D038091510D882321F08FE4F0
:103400009DE00E94E1168BE39DE00E947D0E89E025
:10341000B2CF1092110E1092100E1092A20C1092B8
:10342000A10C0E941C14A9CF82E090E09093110E91
:103430008093100E1092A20C1092A10C0CC083E08D
:1034400090E09093A20C8093A10C82E090E0909386
:10345000110E8093100E0E941C140E94960F8DCFA7
:1034600081E090E0E3CF85EA9CE00E940B0F83EAC5
:103470009CE00E940B0F87EA9CE00E94050F89EAFE
:103480009CE00E94050F83EC9CE00E947D0E8091E1
:10349000C50C882331F06CED70E08091C70C0E9460
:1034A000E00586EF95E00E948E0F67CF87ED9CE0E8
:1034B0000E947D0E80E69AEEA0E0B0E08093020CC0
:1034C0009093030CA093040CB093050C8093060C0E
:1034D0009093070CA093080CB093090C8CE298E130
:1034E00090930C0C80930B0C10920A0C80910D0C95
:1034F00081608D7F8B7F80930D0C8DE496E00E9420
:103500008E0F8FE596E00E948E0F83E134CF1092EC
:10351000010E1092A00D83E394E00E940C178FEF30
:103520009CE00E947D0E8BE00E94120F8AE696E0DE
:103530000E948E0F8BE796E0B6CF1092010E10928C
:10354000A00D83E394E00E940C178FE49DE00E949D
:103550007D0E8FE00E94120F80E49CE9A0E0B0E0B5
:103560008093F60B9093F70BA093F80BB093F90BA5
:103570008093FA0B9093FB0BA093FC0BB093FD0B85
:103580008CE898E19093000C8093FF0B82E080938D
:10359000FE0B8091010C81608D7F8B7F8093010CED
:1035A00086E896E00E948E0F86E996E07CCF109226
:1035B000110E1092100E3ECF9091BE0A992339F150
:1035C0008091790C80FD23C082FD21C040E355E746
:1035D00060E070E040936E0C50936F0C6093700C41
:1035E0007093710C4093720C5093730C6093740C35
:1035F0007093750C27E238E13093780C2093770CA8
:103600001092760C81608D7F8B7F8093790C8CEF8C
:103610008C0F833028F0CB3019F0992309F488C03F
:103620008091BB0A9091BC0A039709F481C0C6300F
:1036300021F120914B0A30914C0A40914D0A509152
:103640004E0A6091710A7091720A8091730A90918A
:10365000740A0E94C03087FF82C089EA9CE00E9401
:103660000B0F87EA9CE00E940B0F81E08093640DB2
:1036700061E08091630D0E947605C090250AD0908C
:10368000260AE090270AF090280A8090290A909054
:103690002A0AA0902B0AB0902C0A20E030E040E8E3
:1036A0005FE3C501B4010E945430A70196010E9456
:1036B000C03018160CF460C01092D10B8091DD0B55
:1036C00080FD36C082FD34C081EA96E00E948E0FF4
:1036D0000091BB0A1091BC0AF801EE0FFF1FEE0F1C
:1036E000FF1FE555F54F60817181828193810E94B2
:1036F0003E316093D20B7093D30B8093D40B909395
:10370000D50B6093D60B7093D70B8093D80B909307
:10371000D90B88EB96E19093DC0B8093DB0B009345
:10372000DA0B8091DD0B81608D7F8B7F8093DD0BC9
:10373000C150CB3008F04ECEEC2FF0E08827EC558E
:10374000F44E8F4F0C943730041C101C1A1C881C2C
:10375000881C8B1C8E1CF91C511DEA198B1C87EAD6
:103760009CE00E94050F89EA9CE00E94050F83E619
:103770009DE00E94FF0E81CF1092DD0B20E030E033
:1037800040E85FE3C501B4010E945330A7019601F0
:103790000E941F3287FD35C0D091D10BD0FDC8CF1C
:1037A000D2FDC6CF0091BB0A1091BC0AF801EE0F02
:1037B000FF1FEE0FFF1FE555F54F6081718182817C
:1037C00093810E943E316093C60B7093C70B809328
:1037D000C80B9093C90B6093CA0B7093CB0B80936B
:1037E000CC0B9093CD0B82E996E19093D00B809314
:1037F000CF0B0093CE0BD160DD7FDB7FD093D10B5D
:1038000097CF1092D10B94CF80E20E942504892B90
:1038100009F0E0CD60E08CEB96E00E947A17DACDFB
:1038200084E40E942504892B09F0D4CD60E08AEC61
:1038300096E0F3CF0E94530E9091FD07882339F054
:1038400091609093FD0760E088ED96E0E6CF9E7F63
:103850009093FD078091010A9091020A029709F462
:10386000B9CD2091050A3091060A8091070A9091FE
:10387000080A28173907D8F181E090E09093020AEE
:103880008093010A8091010A9091020A0197A1F5A3
:103890008091FD078D7F8093FD078091410B80FD16
:1038A00099CD82FD97CD40919F0A5091A00A70E07A
:1038B00060E04093360B5093370B6093380B709356
:1038C000390B40933A0B50933B0B60933C0B709336
:1038D0003D0B21E338E13093400B20933F0B1092D6
:1038E0003E0B81608D7F8B7F8093410B73CD109257
:1038F000020A1092010AC6CF8091FD0781FD6ACDB0
:1039000082608093FD078EEF96E00E948E0F62CD5D
:103910000E9466105FCD0E94F20F5CCD0E94530E94
:10392000882359F060E08EE695E00E947A17809136
:10393000FF0781608093FF074DCD8091090A909128
:103940000A0A029709F446CD20910D0A30910E0A19
:1039500080910F0A9091100A28173907C8F181E069
:1039600090E090930A0A8093090A8091090A909145
:103970000A0A019791F58091FD07877F8093FD07E3
:1039800080914D0B80FD26CD82FD24CD48EE53E085
:1039900060E070E04093420B5093430B6093440B04
:1039A0007093450B4093460B5093470B6093480B25
:1039B0007093490B22EC3AE030934C0B20934B0B65
:1039C00010924A0B81608D7F8B7F80934D0B02CDCF
:1039D00010920A0A1092090AC8CF10924D0B8091DA
:1039E000FD0783FDF7CC88608093FD0782E197E0B7
:1039F0008CCF80E20E942504892B59F460E086E296
:103A000097E00E947A178091FE0780628093FE07FC
:103A1000E1CC8091160A0E94B7069093180A809311
:103A2000170A2091190A30911A0A2817390778F5D0
:103A30008091FD078B7F8093FD078091590B80FD5E
:103A4000C9CC82FDC7CC4091A30A5091A40A70E072
:103A500060E040934E0B50934F0B6093500B70936C
:103A6000510B4093520B5093530B6093540B709334
:103A7000550B2BE338E13093580B2093570B1092E2
:103A8000560B81608D7F8B7F8093590BA3CC8091E7
:103A9000FD0782FD9FCC84608093FD078BE497E057
:103AA00034CF0E94530E882309F494CC8091F50BF7
:103AB00080FD90CC82FD8ECC8FEF9CE00E94E116C1
:103AC00087ED9CE00E947D0E83EC9CE00E947D0EC1
:103AD0008DE00E94120F80E395E7A0E0B0E08093B4
:103AE000EA0B9093EB0BA093EC0BB093ED0B809350
:103AF000EE0B9093EF0BA093F00BB093F10B8FEFC5
:103B000098E19093F40B8093F30B82E08093F20B97
:103B10008091F50B81608D7F8B7F8093F50B86E420
:103B200095E0F3CEFF920F931F93CF93DF93CDB722
:103B3000DEB7C456D1090FB6F894DEBF0FBECDBFB5
:103B4000FC01F1804F2D50E08E010F5F1F4FBC0133
:103B5000C8010E9496328091C6008091C600809173
:103B6000C1008F778093C1008091C10088608093ED
:103B7000C100F8018E2F801B8F1588F481918093EE
:103B8000C6008091C00086FFFCCF8091C000806499
:103B90008093C0008091C6008091C600EBCFCC59C5
:103BA000DF4F0FB6F894DEBF0FBECDBFDF91CF91D0
:103BB0001F910F91FF900C946A0B4F925F926F923E
:103BC0007F928F929F92AF92BF92CF92DF92EF92AD
:103BD000FF920F931F93CF93DF93CDB7DEB7C95AF0
:103BE000D1400FB6F894DEBF0FBECDBF84E6ECE83F
:103BF000F7E0DE01AB59BF4F01900D928A95E1F7D6
:103C0000A896EFADA897E550E33308F06FC1F0E058
:103C10008827E25FF14E8F4F0C9437309A23761F3E
:103C2000BF1E761F761F761F761F761F761F761FA4
:103C3000761F761F761F671E891EAA1EB41EC81E19
:103C4000551E331F8E1FBD1FFE1F761F761F1720A8
:103C50006F20B720411EE620132189213921D1226E
:103C6000761F761F761F0423761F761F761F761F1A
:103C7000761F761FA623B623C2231E245624BA25F8
:103C8000CE1EC090FD07D090FE07E090FF07F09099
:103C9000000861E2CE0101960E94020BCF82D88615
:103CA000E986FA868BE08A83BDC11092FD071092E7
:103CB000FE071092FF071092000861E2CE01019604
:103CC0000E94020B1F82188619861A86EBCFCE013E
:103CD00087539F4F0E944E0488E0FE01E753FF4F39
:103CE000DE01A456BE4F01900D928A95E1F762E184
:103CF000CE0101960E94020B8FE08A8388E0FE01CC
:103D0000E456FE4FDE01179601900D928A95E1F779
:103D100089C11092FD071092FE071092FF071092C2
:103D20000008A9968FADA99710929F0C10929E0C37
:103D30008093A00CAA969FADAA97992359F08B3037
:103D400049F40E94B102882329F00E94620280E0B7
:103D50000E9477151091A00C64E1CE0101960E949B
:103D6000020B1F8388E09FCF8091A00C0E94B102BC
:103D7000882329F00E94620280E00E947715CE011C
:103D800001960E945F0BCE0101960E94921DAEC06B
:103D900060E081E697E00E947A17F1CF8EE697E027
:103DA0000E948E0F81E08093BE0A81E090E09093A4
:103DB000980A8093970A1092010E1092A00D10920B
:103DC0009F0C10929E0C87ED9CE00E94E1168BEEFA
:103DD0009CE00E94E1168FEF9CE00E94E11683EACE
:103DE0009CE00E94050F85EA9CE00E94050F87EA8F
:103DF0009CE00E94050F89EA9CE00E94050F8BEA77
:103E00009CE00E94050F8DEA9CE00E94050F85E66C
:103E10009DE00E94FF0E87E69DE00E94FF0E89E66E
:103E20009DE00E94700B8091990A81608B7F809346
:103E3000990A4091710A5091720A6091730A7091C7
:103E4000740A4093290A50932A0A60932B0A7093AC
:103E50002C0A25E030E088E797E00E941F138AE1F2
:103E60000E94120F8CCFE5E6F0E0EC0FFD1F3396B9
:103E7000A1E0BAE085E690E08C0F9D1F4B96419142
:103E800051916191719198964D935D936D937C934F
:103E90009B9753968E179F0791F788E1E5E6F0E030
:103EA000EC0FFD1F3396DE01A750BF4F01900D921E
:103EB0008A95E1F768E1CE0101960E94020B8FE13D
:103EC0008A8388E1FE01E750FF4FDE0117960190DB
:103ED0000D928A95E1F7CE0101960E94EB0ACE0180
:103EE00001960E94921D88E10E94CA0AC755DE4FC2
:103EF0000FB6F894DEBF0FBECDBFDF91CF911F91FB
:103F00000F91FF90EF90DF90CF90BF90AF909F9078
:103F10008F907F906F905F904F900895A1E0BAE0EE
:103F2000CE0187539F4F23E73AE0182F092F989629
:103F30004D915D916D917C919B97FC0141935193C3
:103F400061937193CF0153962A173B0781F788E15C
:103F5000E12FF02FDE01AF51BF4F01900D928A95F6
:103F6000E1F769E1CE0101960E94020B8FE18A839D
:103F700088E1FE01EF51FF4FC5CEFE01EB59FF4F27
:103F80009F012A5F3F4F41E050E083819091B40C44
:103F9000891709F442C69091C80CA3ECBCE08917BC
:103FA00009F43DC63296E217F30779F786E0E5E6B5
:103FB000F0E0EC0FFD1F3396DE01AC55BE4F0190D3
:103FC0000D928A95E1F76AE1CE0101960E94020BFB
:103FD0008DE08A8386E0FE01EC55FE4FDE011796E8
:103FE00001900D928A95E1F7CE0101960E94EB0AAD
:103FF000CE0101960E94921D8AE176CF1091210E8A
:104000000091220E6BE1CE0101960E94020B8DE021
:104010008A8381E08F83188782E089871A8784E00A
:104020008B870C87CE0101960E94EB0AACCEAA9634
:104030008EAD9FADAA979093080A8093070AAC961D
:104040008EAD9FADAC979093100A80930F0AAE96F9
:104050008EAD9FADAE979093150A8093140AE096AB
:104060008EAD9FADE09790931A0A8093190AE2965D
:104070008EAD9FADE29790931F0A80931E0AE4963F
:104080008EAD9FADE4979093240A8093230A8EE02F
:10409000E5E6F0E0EC0FFD1F3396DE01A45ABE4FBB
:1040A00001900D928A95E1F76EE1CE0101960E9492
:1040B000020B85E18A838EE0FE01E45AFE4FDE01A9
:1040C000179601900D928A95E1F7CE0101960E9414
:1040D000EB0ACE0101960E94921D8EE105CFE09180
:1040E0000F0AF091100A6091140A7091150A40911C
:1040F000190A50911A0A20911E0A30911F0A8091C4
:10410000230A9091240AA091070AB091080AC25B81
:10411000DE4FB983A883CE54D140C05BDE4FF98314
:10412000E883C055D140CE5ADE4F79836883C255AB
:10413000D140CC5ADE4F59834883C455D140CA5A26
:10414000DE4F39832883C655D140C85ADE4F998344
:104150008883C855D1406FE1CE0101960E94020BC1
:1041600085E18A838EE0FE01E25BFE4FCBCDA1E0CC
:10417000BAE0CE018F519F4F23E73AE0182F092F65
:1041800094964D915D916D917C919797FC0141932F
:10419000519361937193CF0153962A173B0781F78F
:1041A00088E1E12FF02FDE01A753BF4F01900D9260
:1041B0008A95E1F760E2CE0101960E94020B8FE141
:1041C0008A8388E1FE01E753FF4F9CCD05E610E0AE
:1041D0000C0F1D1F0D5F1F4FC8010E94180380E1C7
:1041E000F801DE01AF5DBE4F01900D928A95E1F7B7
:1041F00062E2CE0101960E94020B80E1FE01EF5DBA
:10420000FE4FDE01179601900D928A95E1F787E146
:104210008A83CE0101960E94EB0ACE0101960E948C
:10422000921D82E261CE80E1EBE9FAE0DE01A75364
:10423000BF4F01900D928A95E1F780E1FE01E753AF
:10424000FF4FDE01AF5EBE4F01900D928A95E1F700
:1042500063E2CE0101960E94020B80E1FE01EF5E57
:10426000FE4FDE01179601900D928A95E1F787E1E6
:104270001ACD8090050A9090060AA0900D0AB09081
:104280000E0A8091110A0E94B7066C018091160AED
:104290000E94B7067C0180911B0A0E94B7068C0120
:1042A0008091200A0E94B706C05CDE4F9982888206
:1042B000C054D140CE5BDE4FB982A882C254D140F7
:1042C000CC5BDE4FD982C882C454D140CA5BDE4F7A
:1042D000F982E882C654D140C85BDE4F1983088357
:1042E000C854D140C65BDE4F99838883CA54D140FD
:1042F00065E2CE0101960E94020B8EE0FE01E05CB9
:10430000FE4FDE01179601900D928A95E1F785E147
:10431000CACCA996EFADA997EF77E93108F029C08B
:10432000F0E08827E956FE4D8F4F0C943730B021CE
:10433000DA21E521E521E521F021FB2106221122E8
:1043400020222D223922B9214822B92153225E226E
:10435000692274227F228A229522A022B322C222BD
:10436000A9968FADA99787FF20C083EA9CE00E94A1
:10437000050FCE0187539F4F0E944E0488E0FE0137
:10438000E753FF4FDE01AC56BE4F01900D928A9568
:10439000E1F764E2CE0101960E94020B8FE08A836E
:1043A00088E0FE01EC56FE4FADCC83EA9CE00E9413
:1043B0000B0FDFCFA9968FADA99787FF03C085EAC2
:1043C0009CE0D5CF85EA9CE0F2CFA9968FADA99766
:1043D00087FF03C087EA9CE0CACF87EA9CE0E7CF6B
:1043E000A9968FADA99787FF03C089EA9CE0BFCF4C
:1043F00089EA9CE0DCCFA9968FADA99787FF03C01F
:104400008BEA9CE0B4CF8BEA9CE0D1CFA9968FAD2C
:10441000A99787FF03C08DEA9CE0A9CF8DEA9CE0B5
:10442000C6CFA9964FADA997441F4427441FAA960B
:104430006FADAA97677089E69DE00E947D0D99CFC8
:10444000A9964FADA997441F4427441FAA966FAD64
:10445000AA97677085EB9DE0F0CFA9964FADA9971D
:10446000441F4427441FAA966FADAA9767706C5FDC
:10447000F1CFA9968FADA99787FF05C08FEA9CE081
:104480000E94E11676CF8FEA9CE00E947D0E71CFEC
:10449000A9968FADA99787FF03C083EC9CE0F0CF6E
:1044A00083EC9CE0F2CFA9968FADA99787FF03C05C
:1044B00087ED9CE0E5CF87ED9CE0E7CFA9968FAD37
:1044C000A99787FF03C08BEE9CE0DACF8BEE9CE0D0
:1044D000DCCFA9968FADA99787FF03C08FEF9CE033
:1044E000CFCF8FEF9CE0D1CFA9968FADA99787FF53
:1044F00003C083E19DE0C4CF83E19DE0C6CFA996D0
:104500008FADA99787FF03C087E29DE0B9CF87E20F
:104510009DE0BBCFA9968FADA99787FF03C08BE322
:104520009DE0AECF8BE39DE0B0CFA9968FADA9976C
:1045300087FF03C08FE49DE0A3CF8FE49DE0A5CF6C
:10454000A9968FADA99787FF05C083E69DE00E94DD
:10455000FF0E0FCF81E08093640D61E08091630DC9
:104560000E94760506CFA9968FADA99787FF03C055
:1045700085E69DE0ECCF81E08093660D61E080915F
:10458000650DEECFA9968FADA99787FF03C087E68B
:104590009DE0DDCF81E08093680D61E08091670D43
:1045A000DFCF81E20E9425044C0180E20E942504B5
:1045B0005C01F090CF0A0091D00A85E40E942504A6
:1045C0006C0184E40E9425049C0191E0892809F093
:1045D00090E010E090FB10F991E0AB2809F090E03A
:1045E00090FB11F991E0CD2809F090E090FB12F9D1
:1045F00091E0232B09F090E090FB13F9F0FA14F905
:1046000000FB15F966E2A9CB8BE0E5E6F0E0EC0FE4
:10461000FD1F3396DE01AA58BE4F01900D928A9578
:10462000E1F7E3968FADE397C058DE4F8883C0581B
:10463000D1409BE0FE01EA58FE4FA4E0BEE00190AD
:104640000D929A95E1F74091070E242F30E03093B8
:10465000B00C2093AF0C3091090E632F70E0709373
:10466000C40C6093C30C9FE0E2E1FEE0DE01AF5CAE
:10467000BE4F01900D929A95E1F72091040E909112
:10468000060ECD5CDE4F4883C353D140CC5CDE4F79
:104690003883C453D140CB5CDE4F2883C553D1400F
:1046A000CA5CDE4F9883C653D1403FE0FE01EF5C09
:1046B000FE4FA2E1BEE001900D923A95E1F7209302
:1046C000210E9093220E1092290E91E090930F0EDE
:1046D000882341F08FEA9CE00E947D0E83EC9CE0F1
:1046E0000E947D0E8BE0E5E6F0E0EC0FFD1F3396B7
:1046F000DE01AF57BE4F01900D928A95E1F76AE255
:10470000CE0101960E94020B8BE0FE01EF57FE4F97
:10471000DE01179601900D928A95E1F782E18A8376
:10472000CE0101960E94EB0ACE0101960E94921DD5
:104730008AE2DACB1092FD071092FE071092FF0773
:104740001092000861E081E897E025CB61E3CE019B
:1047500001960E94020B8BE08A8383E090E0A3E045
:10476000B1E08F839887A987BA875CCC62E3CE01DA
:1047700001960E94020B8BE08A8387EA94E3A0E013
:10478000B0E0EFCFE4966CAD7DAD8EAD9FADE4971C
:104790000E946D316B017C01E0966CAD7DAD8EADFC
:1047A0009FADE0970E946D314B015C01AC966CAD02
:1047B0007DAD8EAD9FADAC970E946D316093AB0A1D
:1047C0007093AC0A8093AD0A9093AE0A8092AF0AC0
:1047D0009092B00AA092B10AB092B20AC092B30A03
:1047E000D092B40AE092B50AF092B60A8CE0E5E6FF
:1047F000F0E0EC0FFD1F3396DE01A659BE4F01908D
:104800000D928A95E1F763E3CE0101960E94020BB7
:1048100083E18A838CE0FE01E659FE4FDE011796A4
:1048200001900D928A95E1F7CE0101960E94EB0A64
:10483000CE0101960E94921D83E356CB6091B30A8C
:104840007091B40A8091B50A9091B60A0E943E31E7
:104850006B017C016091AF0A7091B00A8091B10A3E
:104860009091B20A0E943E314B015C016091AB0A0B
:104870007091AC0A8091AD0A9091AE0A0E943E31CF
:104880002B013C0164E3CE0101960E94020B83E1FF
:104890008A834F82588669867A868B869C86AD8607
:1048A000BE86CF86D88AE98AFA8ABCCBA9968FAD14
:1048B000A9978983AA968FADAA978A83AB968FAD65
:1048C000AB978B83AC966FADAC976C83AD968FAD89
:1048D000AD978D83AE968FADAE978E83AF968FAD2D
:1048E000AF978F83E0968FADE0978887617085E002
:1048F0000E9476056C816695617086E00E9476055F
:104900006C8162FB662760F984E00E9476056C8109
:1049100063FB662760F988E00E9476056981617013
:1049200085E30E94760569816695617084E30E9443
:1049300076056981629561708FE10E9476056981D3
:1049400065FB662760F98CE10E947605698166FB4C
:10495000662760F98BE10E947605698167FB66270F
:1049600060F98AE10E9476056C816295617089E147
:104970000E9476056C8165FB662760F988E10E94DC
:1049800076056C8166FB662760F987E10E947605F3
:104990006C8167FB662760F98EE10E9476056D8168
:1049A00061708DE10E9476056D816695617086E18A
:1049B0000E9476056D8162FB662760F981E10E94A5
:1049C00076056D8163FB662760F98FE00E947605AE
:1049D0006D81629561708CE00E9476056D8165FB4A
:1049E000662760F98EE00E9476056B81617085E232
:1049F0000E9476056B816695617084E20E9476055F
:104A00006B8162FB662760F987E20E9476056B8105
:104A100063FB662760F986E20E9476056B816295EA
:104A2000617089E20E9476056B8165FB662760F9FB
:104A300088E20E9476056B8166FB662760F98BE24F
:104A40000E9476056B8167FB662760F98AE20E9407
:104A500076056A8161708CE20E9476056A816695AE
:104A600061708EE20E9476056A8162FB662760F9BA
:104A70008DE20E9476056A8163FB662760F98FE20A
:104A80000E9476056A816295617081E30E947605D5
:104A90006A8165FB662760F980E30E9476056A817A
:104AA00066FB662760F983E30E9476056A8167FBEF
:104AB000662760F982E30E9476056D8166FB6627B2
:104AC00060F987E00E9476056D8167FB662760F9D3
:104AD00089E00E9476056E8161708AE00E94760509
:104AE0006E81669561708BE00E947605C753DF4F3B
:104AF0001882C95CD040C653DF4F1882CA5CD040D0
:104B0000C553DF4F1882CB5CD040C453DF4F1882AF
:104B1000CC5CD040C353DF4F1882CD5CD040C25331
:104B2000DF4F1882CE5CD040C153DF4F1882CF5C7C
:104B3000D040C053DF4F1882C05DD040CE018753B4
:104B40009F4F0E944E0488E0FE01E753FF4FDE01B5
:104B5000A457BE4F01900D928A95E1F765E3CE010F
:104B600001960E94020B8FE08A8388E0FE01E457E1
:104B7000FE4FC8C8CE0101960E945F0BCE01019680
:104B80000E94921D1092050B62ED79E085E29AE099
:104B90000E9435126DEA79E088E39AE00E943512AE
:104BA00068E879E08BE49AE00E94351263E679E0E8
:104BB00084E89AE00E9435126EE379E08EE59AE08F
:104BC0000E94351269E179E081E79AE00E9435128E
:104BD0008091A90A9091AA0AB0E0A0E08093FA0A15
:104BE0009093FB0AA093FC0AB093FD0A8093FE0AFF
:104BF0009093FF0AA093000BB093010B82E192E126
:104C00009093040B8093030B1092020B8091050B81
:104C100083608B7F8093050B69C9AFEABCE0139674
:104C20009C911397992309F4BDC915969C911597EA
:104C30008913B8C91B965C934E931A97848190E0B0
:104C40008D939C93AFC90C94DD1DECE8F7E084E6EE
:104C5000DF011D928A95E9F71092FA070C946A0B0E
:104C60001F920F920FB60F9211242F933F938F93A1
:104C70009F93AF93BF938091F2079091F307A09118
:104C8000F407B091F5073091F10723E0230F2D379A
:104C900058F50196A11DB11D2093F1078093F207ED
:104CA0009093F307A093F407B093F5078091F6076C
:104CB0009091F707A091F807B091F9070196A11D0F
:104CC000B11D8093F6079093F707A093F807B09370
:104CD000F907BF91AF919F918F913F912F910F90C5
:104CE0000FBE0F901F90189526E8230F0296A11D66
:104CF000B11DD2CF1F920F920FB60F9211240BB697
:104D00000F922F933F934F935F936F937F938F9364
:104D10009F93AF93BF93EF93FF93E0911E02F091A7
:104D20001F021995FF91EF91BF91AF919F918F91C4
:104D30007F916F915F914F913F912F910F900BBE9B
:104D40000F900FBE0F901F9018951F920F920FB6E5
:104D50000F9211240BB60F922F933F934F935F93B3
:104D60006F937F938F939F93AF93BF93EF93FF9333
:104D7000E0911C02F0911D021995FF91EF91BF91F6
:104D8000AF919F918F917F916F915F914F913F91E3
:104D90002F910F900BBE0F900FBE0F901F90189584
:104DA0001F920F920FB60F9211240BB60F922F93F2
:104DB0003F934F935F936F937F938F939F93AF93A3
:104DC000BF93EF93FF93E0911202F09113021995B4
:104DD000FF91EF91BF91AF919F918F917F916F91D3
:104DE0005F914F913F912F910F900BBE0F900FBE8F
:104DF0000F901F9018951F920F920FB60F921124CB
:104E00000BB60F922F933F934F935F936F937F93C4
:104E10008F939F93AF93BF93EF93FF93E091100213
:104E2000F09111021995FF91EF91BF91AF919F9170
:104E30008F917F916F915F914F913F912F910F9043
:104E40000BBE0F900FBE0F901F9018951F920F92E0
:104E50000FB60F9211240BB60F922F933F934F93DF
:104E60005F936F937F938F939F93AF93BF93EF93D2
:104E7000FF93E0911A02F0911B021995FF91EF91B7
:104E8000BF91AF919F918F917F916F915F914F9162
:104E90003F912F910F900BBE0F900FBE0F901F9060
:104EA00018951F920F920FB60F9211240BB60F9206
:104EB0002F933F934F935F936F937F938F939F9322
:104EC000AF93BF93EF93FF93E0911802F091190213
:104ED0001995FF91EF91BF91AF919F918F917F9124
:104EE0006F915F914F913F912F910F900BBE0F905B
:104EF0000FBE0F901F9018951F920F920FB60F9232
:104F000011240BB60F922F933F934F935F936F93A0
:104F10007F938F939F93AF93BF93EF93FF93E09112
:104F20001602F09117021995FF91EF91BF91AF9181
:104F30009F918F917F916F915F914F913F912F91B1
:104F40000F900BBE0F900FBE0F901F9018951F92E1
:104F50000F920FB60F9211240BB60F922F933F931F
:104F60004F935F936F937F938F939F93AF93BF9371
:104F7000EF93FF93E0911402F09115021995FF91C0
:104F8000EF91BF91AF919F918F917F916F915F91C1
:104F90004F913F912F910F900BBE0F900FBE0F902E
:104FA0001F9018951F920F920FB60F9211240BB6F7
:104FB0000F922F933F934F935F936F937F938F93B2
:104FC0009F93AF93BF93EF93FF9381E098E00E948C
:104FD000B107FF91EF91BF91AF919F918F917F9119
:104FE0006F915F914F913F912F910F900BBE0F905A
:104FF0000FBE0F901F9018951F920F920FB60F9231
:1050000011240BB60F922F938F939F93EF93FF93DF
:10501000E0911108F09112088081E0911708F09159
:10502000180882FD1DC0908180911A088F5F8F73D0
:1050300020911B08821741F0E0911A08F0E0EF5F21
:10504000F74F958F80931A08FF91EF919F918F9161
:105050002F910F900BBE0F900FBE0F901F901895C1
:105060008081F2CF1F920F920FB60F9211240BB6D0
:105070000F922F933F934F935F936F937F938F93F1
:105080009F93AF93BF93CF93EF93FF938091C10012
:1050900080688093C1008091C10088608093C100C6
:1050A000C091C6008091110B8E7F8093110B80916F
:1050B000FA07843658F0ECE8F7E084E6DF011D9249
:1050C0008A95E9F71092FA070E946A0BE091FA07B5
:1050D000E33020F080918D078093FC0781E08E0FF4
:1050E0008093FA07F0E0E457F84FC0839091FC07F3
:1050F00089136BC090918C07913009F05AC040EA37
:105100005FE060E070E04093120B5093130B6093EC
:10511000140B7093150B4093160B5093170B609361
:10512000180B7093190B25E236E230931C0B209379
:105130001B0B10921A0B90911D0B93609B7F909309
:105140001D0B50E040E090E0BC0161507109252F3B
:1051500030E0261737073CF42457384FF9012081F7
:10516000420F5F5FF4CF8557984FDC018C9160E070
:1051700048131CC083E296E20E947D031092FA0756
:105180000E946A0BFF91EF91CF91BF91AF919F91D8
:105190008F917F916F915F914F913F912F910F90E0
:1051A0000BBE0F900FBE0F901F90189581E49BE0EF
:1051B000E3CFECE8F7E084E6DF011D928A95E9F79A
:1051C0001092FA070E946A0BD9CF8AE090E0A0E023
:1051D000B0E08093060B9093070BA093080BB0935D
:1051E000090B80930A0B90930B0BA0930C0BB093BD
:1051F0000D0B85E296E29093100B80930F0B1092AB
:105200000E0B8091110B81608D7F8B7F8093110B32
:10521000B7CF1F920F920FB60F9211240BB60F92B9
:10522000FF920F931F932F933F934F935F936F932F
:105230007F938F939F93AF93BF93CF93DF93EF931E
:10524000FF93CAEFDAE010E000E08CE0F82EF09E69
:10525000F001F19EF00D1124EB5FF44F808180FF8F
:1052600023C08C819D81AE81BF810197A109B109C5
:105270008C839D83AE83BF83892B8A2B8B2BA1F4D8
:1052800080818460808381FF2DC088819981AA817B
:10529000BB818C839D83AE83BF8389859A8500976C
:1052A00019F068850E947D030F5F1F4F2C96033213
:1052B000110569F6FF91EF91DF91CF91BF91AF9109
:1052C0009F918F917F916F915F914F913F912F911E
:1052D0001F910F91FF900F900BBE0F900FBE0F907C
:1052E0001F9018958E7F8083D8CF1F920F920FB694
:1052F0000F9211240BB60F922F933F934F935F930E
:105300006F937F938F939F93AF93BF93EF93FF938D
:10531000F0E0E0E01995FF91EF91BF91AF919F917F
:105320008F917F916F915F914F913F912F910F904E
:105330000BBE0F900FBE0F901F9018951F920F92EB
:105340000FB60F9211240BB60F922F933F934F93EA
:105350005F936F937F938F939F93AF93BF93EF93DD
:10536000FF93F0E0E0E01995FF91EF91BF91AF91CD
:105370009F918F917F916F915F914F913F912F916D
:105380000F900BBE0F900FBE0F901F901895FC0151
:1053900017821086108289E0838381E0848385836D
:1053A00086831182168A158A8FEF838B148A7287FF
:1053B000618708951F93CF93DF93EC01162F60E070
:1053C000812F0E94A405612F70E0FB01E053FC4F88
:1053D000E491E883FB01E657FC4FE491F0E0EE0F27
:1053E000FF1FE059FC4F859194919A8389831B8616
:1053F0001D861C861A86198618861F821E821D82AB
:105400001C821B82DF91CF911F910895CF93DF9370
:10541000EC01862F698361E00E94A405CE01DF9133
:10542000CF910C94050FCF93DF93EC01862F198257
:1054300018824B836C832D831E829FEF998721E016
:1054400030E03B872A872FEF30E03B8B2A8B4111DE
:1054500003C061E00E94A405CE01DF91CF910C94BE
:10546000E1167F928F929F92AF92BF92CF92DF927E
:10547000EF92FF920F931F93CF93DF93CDB7DEB7D9
:105480002F970FB6F894DEBF0FBECDBF1092040861
:105490001092030888EE93E0A0E0B0E08093050846
:1054A00090930608A0930708B09308088AE392E057
:1054B000909302088093010885ED90E090930E0888
:1054C00080930D0884ED90E09093100880930F086E
:1054D00080ED90E0909312088093110881ED90E0A8
:1054E000909314088093130882ED90E0909316082F
:1054F0008093150886ED90E0909318088093170824
:1055000010921A0810921B0810921C0810921D0885
:10551000EAEFFAE08EE99CE0108211821282138297
:1055200014821582168217821086128611861386BF
:105530003C968E179F0781F7109216091092170953
:1055400010921809F89480917A00806880937A000C
:105550007894F89480917A008E7F80937A0080917D
:105560007A00866080937A007894F89480917C0029
:105570008F7780937C0080917C00806480937C0096
:1055800078946FE389EE99E00E94DA2969EE79E078
:1055900082ED99E00E94C7296EE384EC99E00E94B5
:1055A000DA2964EC79E08DEA99E00E94C72961E488
:1055B0008FE999E00E94DA296FE979E088E899E0BB
:1055C0000E94C72960E48AE799E00E94DA296AE725
:1055D00079E083E699E00E94C72963E485E599E0D4
:1055E0000E94DA2965E579E08EE399E00E94C729F7
:1055F00062E480E399E00E94DA2960E379E089E1DE
:1056000099E00E94C72982E090E09093020A80937B
:10561000010A27EF39E03093040A2093030A90939C
:105620000A0A8093090A8CEF99E090930C0A809300
:105630000B0A88E38093110A1092130A1092120A3F
:1056400084E190E09093150A8093140A2BE3209351
:10565000160A1092180A1092170A90931A0A809349
:10566000190A2AE320931B0A10921D0A10921C0AA1
:1056700090931F0A80931E0A2DE32093200A109214
:10568000220A1092210A9093240A8093230AE5E2C9
:10569000FAE087E99AE01082118212821382148262
:1056A00015821682178273968E179F07A1F705E061
:1056B0000093BD0A1092BE0A1092BF0A1092C00A4F
:1056C0001092C20A1092C10A1092C70A1092C80A18
:1056D0001092CA0A1092C90A1092CF0A1092D00AE8
:1056E0001092D10A8AE090E09093C40A8093C30A92
:1056F0009093C60A8093C50A8FE090E09093CC0AFD
:105700008093CB0A9093CE0A8093CD0A18E0109331
:10571000990A82ED9AE09093F30A8093F20A80E26C
:105720008093F40A1092F50A1092F60A1092F70A82
:105730001092F90A1092F80A10929F0C10929E0C87
:105740001092A00C1092A20C1092A10C65E383EAB7
:105750009CE00E94062A64E385EA9CE00E94062AF7
:105760006FE187EA9CE00E94062A6CE189EA9CE0EE
:105770000E94062A6BE18BEA9CE00E94062A6AE1FD
:105780008DEA9CE00E94062A21E041E065E08FEA74
:105790009CE00E94132A24E041E064E083EC9CE05A
:1057A0000E94132A23E040E069E187ED9CE00E941B
:1057B000132A26E040E068E18BEE9CE00E94132A69
:1057C00027E040E067E18FEF9CE00E94132A28E089
:1057D00040E06EE183E19DE00E94132A29E040E071
:1057E0006DE187E29DE00E94132A2AE040E066E135
:1057F0008BE39DE00E94132A2BE040E061E18FE4FF
:105800009DE00E94132A8FE0782E7092630D109213
:10581000640D61E08FE00E94A40583E69DE00E9494
:10582000FF0E8CE08093650D1092660D61E00E9482
:10583000A40585E69DE00E94FF0E8EE08093670D33
:105840001092680D61E00E94A40587E69DE00E9429
:10585000FF0EECE4F2E0F0936A0DE093690D86E54B
:1058600092E090936C0D80936B0D10936D0D86E616
:105870009BE090936F0D80936E0D85E498E190937B
:10588000710D8093700D1092720D1092740D109224
:10589000730D1092760D1092750D1092780D109276
:1058A000770D1092850D1092860D1092870D109233
:1058B000880D1092910D1092920D1092940D1092ED
:1058C000930D1092980D1092970D1092990D1092C1
:1058D0009A0D10929B0D10929C0D9DEC892E9CECC4
:1058E000992EA92C9DE3B92E80928D0D90928E0D4C
:1058F000A0928F0DB092900D24E6C22ED12CE12CF7
:10590000F12CC092890DD0928A0DE0928B0DF0920D
:105910008C0D40E050E060EA70E44093790D5093C4
:105920007A0D60937B0D70937C0D80E090E0A0E495
:10593000B0E480937D0D90937E0DA0937F0DB09386
:10594000800D8093810D9093820DA093830DB09371
:10595000840D1092A00D1093A80D1092A90D109215
:10596000B20D1092AA0D1092AB0D1092AC0D1092C8
:10597000AD0D1092AE0D1092AF0D1092B00D1092B1
:10598000B10D1092B30D1092B40D28E030E03093B9
:10599000960D2093950DF093B60DE093B50DEEE4C2
:1059A000F2E0F093B80DE093B70D1093B90DEAE56E
:1059B000FBE0F093BB0DE093BA0DEFE3F9E1F09358
:1059C000BD0DE093BC0D1092BE0D1092C00D109253
:1059D000BF0D1092C20D1092C10D1092C40D109205
:1059E000C30D1092D10D1092D20D1092D30D1092C2
:1059F000D40D1092DD0D1092E00D1092DF0D10927B
:105A0000E40D1092E30D1092E50D1092E60D109248
:105A1000E70D1092E80D8092D90D9092DA0DA092C8
:105A2000DB0DB092DC0DC092D50DD092D60DE09278
:105A3000D70DF092D80D4093C50D5093C60D6093CD
:105A4000C70D7093C80D8093C90D9093CA0DA09394
:105A5000CB0DB093CC0D8093CD0D9093CE0DA09334
:105A6000CF0DB093D00D1092EC0D1093F40D109259
:105A7000F50D1092FE0D1092F60D1092F70D10928A
:105A8000F80D1092F90D1092FA0D1092FB0D109274
:105A9000FC0D1092FD0D1092FF0D1092000E81E092
:105AA0008093DE0D3093E20D2093E10D1092010EF4
:105AB000198686E489838A8398EC9B839FEF9C8375
:105AC0008D838E830F839EE198870A879B872EEEB6
:105AD00032E03D872C8722E330E03F872E87FE01AE
