:100000000C9433020C94AF280C9484280C94592837
:100010000C942E280C9403280C94D8270C94AD270C
:100020000C9482270C9464020C9464020C94640275
:100030000C9464020C9464020C9464020C946402A8
:100040000C9464020C9464020C9464020C94640298
:100050000C9464020C9464020C9464020C9438278F
:100060000C9464020C943A290C9464020C9464027B
:100070000C947D2A0C94A62A0C9464020C946402BD
:100080000C9464020C9464020C9464020C94640258
:100090000C9464020C9464020C9464020C94640248
:1000A0000C9464020C9464020C9464020C94640238
:1000B0000C9464020C9464020C9464020C94112A53
:1000C0000C9464020C9464020C9464020C94042951
:1000D0000C94DA280C9464020C9464020C9464026C
:1000E0000C9464020C94200E0C94AF220C946317B1
:1000F0000C9465210C94CD230C94C6060C94EE153B
:100100000C94320E0C94A6220C94AD240C94670629
:100110000C943C0E0C9407040C94FD030C942B27B8
:100120000C945E170C9412170C94F8220C941C1F5C
:100130000C944D0D0C946D170C940E230C94620CC2
:100140000C94392B0C9457060C940D210C948B1F96
:100150000C940F1B0C94FE060C948D200C94AF1F76
:100160000C94F9030C941F040C94A91F0C94C12641
:100170000C944C1D0C94ED090C944B070C946018D6
:100180000C944F230C9409220C941D230C940323EC
:100190000C94EC030C94FF1E0C94040E0C94E222BD
:1001A0000C9414160C94730E0C942F220C94E803E8
:1001B0000C9413190C94BD240C949D230C94C21C14
:1001C0000C94A1240C941A200C94280E0C948723D0
:1001D0000C94550E0C940B040C948A1A0C94690E12
:1001E0000C94C21A0C94B8060C94DC210C94491D92
:1001F0000C945E1B0C94F50D0C9419040C942D2793
:100200000C94951F0C94C0090C94F0030C94C92411
:100210000C94341F0C947C230C94D3180C949223CC
:100220000C94481B0C94E8120C9468060C940B2454
:100230000C94D81C0C9477170C94700A0C94981B8F
:100240000C94B71D0C948C0E0C9464230C94110424
:100250000C94D7220C94171B0C94870E0C94150445
:100260000C945D250C94D8200C9495060C94D823FE
:100270000C947D0E0C94CE1C0C941E040C942A231A
:100280000C940E0D0C94FA0D0C945F0E0C94A82394
:100290000C9449180C94A01F0C94581A0C94B32376
:1002A0000C948D0F0C94F3030C94061B0C94A5096D
:1002B0000C9425250C94460E0C940E0E0C94A4065A
:1002C0000C9423040C94AA170C94EC0D0C94ED22BE
:1002D0000C94180E0C9471230C94E4030C940304F6
:1002E0000C9412110C94481F0C94F31A0C945E2079
:1002F0000C94991A0C94C2230C94AD210C94DE0337
:100300000C9436230C945F060C946A1F0C94461DC3
:100310000C9436150C947F220C94011B0C945917E5
:100320000C940F1E005EBCE2613FDD83C29C7E2008
:10033000A3FD1F41009D23BE46DB65F88C11AF3243
:10034000CA57E97400002100240027002A002D006C
:100350003000330001010000040107010A01000020
:100360002200250028002B002E003100340002015D
:100370000000050108010B010000200023002600F9
:1003800029002C002F0032000001000003010601AB
:10039000090105050505070508080808020202020B
:1003A0000A0A080804040404010101010101010111
:1003B0000303030303030303040707070C0C0C0CDC
:1003C0000C0C0C0C020202020606060606060606C5
:1003D0000B0B0B0B0B0B0B0B010210202008081052
:1003E00020401020408002010201080402010102A5
:1003F000040810204080804020100804020180047E
:1004000002018040201008040201080402010102D8
:1004100004081020408001020408102040800000E1
:100420000A0B02090C0D0E0807030401000000006E
:1004300000000000000000000000000000000000BC
:100440000000000000000000000012111000000079
:10045000000000000000000000000000000000009C
:1004600000000000392B11241FBECFEFD1E2DEBF08
:10047000CDBF00E00CBF18E0A0E0B2E0E4E5F7E695
:1004800000E00BBF02C007900D92A438B107D9F766
:100490002FE0A4E8B8E001C01D92AF34B207E1F745
:1004A00012E0C3E3D2E000E006C021970109802FEB
:1004B000FE010E944031C233D10780E00807A9F74E
:1004C0000E94CE2E0C94A8330C940000EEEFF8E0BE
:1004D000A089B18982E08C93A485B5851C92A685FC
:1004E000B78580E18C93108EA489B58986E08C93C2
:1004F000A289B3898C9180618C93A289B3898C91F4
:1005000088608C93A289B3898C9180688C930288CF
:10051000F389E02D80818F7D808308958091C10DC6
:10052000882311F181E090E09093C00D8093BF0D7E
:100530001092440F1092460F1092450F10924A0FDE
:100540001092480F1092470F1092490F8091370F69
:100550008093420F8091380F8093430F10924D0F7C
:1005600010924C0F10924E0F08959CEF980F9330FD
:1005700018F08B3009F05EC08091CC0B811104C063
:100580008091CD0B882341F010925E0D8091520D29
:1005900080FF2CC080E008951092520D90915E0D66
:1005A00090FDF8CF92FDF6CF48EE53E060E070E0AA
:1005B0004093530D5093540D6093550D7093560D09
:1005C0004093570D5093580D6093590D70935A0DE9
:1005D00029E438E130935D0D20935C0D10925B0DA2
:1005E00091609D7F9B7F90935E0D089582FDD2CF99
:1005F00048EE53E060E070E04093470D5093480DA3
:100600006093490D70934A0D40934B0D50934C0DE0
:1006100060934D0D70934E0D26E335E13093510DEF
:100620002093500D10924F0D81608D7F8B7F8093B2
:10063000520DB0CF81E00895CF93DF93FC01C8E95C
:10064000DBE090E1DE0101900D929A95E1F7809157
:10065000A40B9091A50BB0E0A0E0E7EFFBE0809346
:10066000B70C9093B80CA093B90CB093BA0C8093CC
:10067000BB0C9093BC0CA093BD0CB093BE0C82E657
:100680009CE09093C10C8093C00C1092BF0CA2EC24
:10069000BCE08C9183608B7F8C938091A60B9091B2
:1006A000A70BB0E0A0E080839183A283B38384830F
:1006B0009583A683B78388EE92E19287818710861F
:1006C000E2E0FCE0808183608B7F8083EFEBFDE0E4
:1006D000D093240FC093230F88819981968F858FA3
:1006E00092AB81AB84E690E090930B0F80930A0F5E
:1006F0009093BF0E8093BE0EDF91CF9108959C0121
:100700004FB7F8948091150AE091140A81111CC02A
:1007100081E08E0F8093140A93E0E99FF001112489
:10072000E556F64F318320836283883211F41092AC
:10073000140A9091140A8091130A981303C081E05F
:100740008093150A4FBF08959091130A9F5F9832C6
:10075000A1F09093130A91E09E0F9093140A83E006
:10076000E89FF0011124E556F64F31832083628320
:10077000983241F71092140AE5CF1092130AEBCF8A
:100780008150823108F05AC0E82FF0E08827E45306
:10079000FC4F8F4F0C944031EC03F003DE03E40375
:1007A000E8031E04F303F903FD03030407040B0429
:1007B000110415041E0419041F04230480918000F1
:1007C0008F77809380000895809180008F7DF9CF8E
:1007D00080918000877FF5CF84B58F7784BD0895A1
:1007E00084B58F7DFBCF8091B0008F778093B00070
:1007F00008958091B0008F7DF9CF809190008F7720
:10080000809390000895809190008F7DF9CF809122
:100810009000877FF5CF8091A0008F778093A00014
:1008200008958091A0008F7DF9CF8091A000877FEF
:10083000F5CF809120018F778093200108958091DA
:1008400020018F7DF9CF80912001877FF5CFCF9355
:10085000DF93282F30E0F901E25EFB4F8491F9012C
:10086000E852FC4FD491F901EE56FC4FC491CC23D1
:10087000A1F081110E94C003EC2FF0E0EE0FFF1FEA
:10088000E858FC4FA591B491EC91ED2381E090E004
:1008900009F480E0DF91CF91089580E090E0FACFF5
:1008A0000F931F93CF93DF93EC01188219821A8262
:1008B0001B821C821D821E821F828FE00E942704E1
:1008C0009C8180FB93F99C838CE00E9427049C818F
:1008D00080FB94F99C838EE00E9427049C8180FB1E
:1008E00095F99C830FEB1DE08B81F801938990FBB8
:1008F00080F98B8386E00E9427049B8180FB91F91D
:100900009B8389E10E9427049B8180FB94F9F80175
:1009100087A180FB92F99B8388E00E9427049B813A
:1009200080FB93F99B8388E10E9427049B8180FBD5
:1009300095F99B8387E10E9427049B8180FB96F9B0
:100940009B838EE10E9427049B8180FB97F99B8308
:100950008DE10E9427049C8180FB90F99C8386E1B5
:100960000E9427049C8180FB91F99C8381E10E9475
:1009700027049C8180FB92F99C838CE20E942704CF
:10098000998180FB90F999838EE20E9427049981D6
:1009900080FB91F999838DE20E942704998180FB65
:1009A00092F999838FE20E942704998180FB93F941
:1009B000998381E30E942704998180FB94F99983AC
:1009C00080E30E942704998180FB95F9998383E352
:1009D0000E942704998180FB96F9998382E30E9403
:1009E0002704998180FB97F9998385E20E94270467
:1009F0009A8180FB90F99A8384E20E9427049A816D
:100A000080FB91F99A8387E20E9427049A8180FBF8
:100A100092F99A8386E20E9427049A8180FB93F9D7
:100A20009A8389E20E9427049A8180FB94F99A8331
:100A300088E20E9427049A8180FB95F99A838BE2D1
:100A40000E9427049A8180FB96F99A838AE20E9489
:100A500027049A8180FB97F99A8384E30E942704F4
:100A6000988180FB91F9988385E30E9427049881FF
:100A700080FB90F998838CE10E942704988180FB89
:100A800095F998838FE10E942704988180FB94F95F
:100A900098838AE10E942704988180FB97F99883C4
:100AA0008BE10E942704988180FB96F9988387E068
:100AB0000E9427049C8180FB96F99C8389E00E9418
:100AC00027049C8180FB97F99C838AE00E9427047D
:100AD0009D8180FB90F99D838BE00E9427049D817E
:100AE00080FB91F99D83DF91CF911F910F91089524
:100AF0001F93CF93DF93282F30E0F901E25EFB4F85
:100B00008491F901E852FC4FD491F901EE56FC4F63
:100B1000C491CC23A9F0162F81110E94C003EC2FA1
:100B2000F0E0EE0FFF1FE25AFC4FA591B4918FB792
:100B3000F894EC91111108C0D095DE23DC938FBF9F
:100B4000DF91CF911F910895DE2BF8CFCF93DF93E4
:100B500090E0FC01E852FC4F24918E569C4FFC0122
:100B600084918823C9F090E0880F991FFC01EC5B09
:100B7000FC4FA591B491FC01E25AFC4FC591D49170
:100B800061110DC09FB7F8948C91209582238C93AE
:100B90008881282328839FBFDF91CF9108956230F9
:100BA00051F49FB7F8943C91822F809583238C93C6
:100BB000E8812E2BEFCF8FB7F894EC912E2B2C934E
:100BC0008FBFEACF863308F0865320917B00982FA1
:100BD0009870277F922B90937B008770806480931E
:100BE0007C0080917A00806480937A0080917A0002
:100BF00086FDFCCF809178009091790008953FB7F1
:100C0000F8948091F3089091F408A091F508B091C0
:100C1000F60826B5A89B05C02F3F19F00196A11D27
:100C2000B11D3FBFBA2FA92F982F8827BC01CD0136
:100C3000620F711D811D911D42E0660F771F881F95
:100C4000991F4A95D1F708958F929F92AF92BF92C4
:100C5000CF92DF92EF92FF926B017C010E94FF0521
:100C60004B015C01C114D104E104F104B9F00E940C
:100C7000FF05681979098A099B09683E7340810557
:100C8000910580F321E0C21AD108E108F10888EE4D
:100C9000880E83E0981EA11CB11CE4CFFF90EF905A
:100CA000DF90CF90BF90AF909F908F900895E4EF2A
:100CB000FAE0838194810196948383830895E4EF1D
:100CC000FAE080859185019691878087089508953F
:100CD000AF92BF92CF92DF92EF92FF920F931F934A
:100CE000CF93DF936C017B018B01040F151FEB0188
:100CF0005E01AE18BF08C017D10759F06991D6013F
:100D0000ED91FC910190F081E02DC6011995892BA0
:100D100079F7C501DF91CF911F910F91FF90EF906F
:100D2000DF90CF90BF90AF900895FC01538D448D1C
:100D3000252F30E0842F90E0821B930B541710F086
:100D4000CF96089501970895FC01918D828D981793
:100D500061F0A28DAE0FBF2FB11D5D968C91928D6B
:100D60009F5F9F73928F90E008958FEF9FEF08959C
:100D7000FC01918D828D981731F0828DE80FF11D65
:100D8000858D90E008958FEF9FEF0895FC01918D80
:100D9000228D892F90E0805C9F4F821B91098F7379
:100DA000992708958EEF98E00E94C60621E0892BCE
:100DB00009F420E0822F0895FC01A48DA80FB92F1B
:100DC000B11DA35ABF4F2C91848D90E001968F7373
:100DD0009927848FA689B7892C93A089B1898C9192
:100DE000837080648C93938D848D981306C00288E1
:100DF000F389E02D80818F7D80830895EF92FF92AB
:100E00000F931F93CF93DF93EC0181E0888F9B8D2D
:100E10008C8D98131AC0E889F989808185FF15C0E7
:100E20009FB7F894EE89FF896083E889F98980810A
:100E30008370806480839FBF81E090E0DF91CF91D9
:100E40001F910F91FF90EF900895F62E0B8D10E0FB
:100E50000F5F1F4F0F731127E02E8C8D8E110CC06A
:100E60000FB607FCFACFE889F989808185FFF5CFB5
:100E7000CE010E94DC06F1CFEB8DEC0FFD2FF11DB2
:100E8000E35AFF4FF0829FB7F8940B8FEA89FB89F2
:100E900080818062CFCFCF93DF93EC01888D882350
:100EA000B9F0AA89BB89E889F9898C9185FD03C0CD
:100EB000808186FD0DC00FB607FCF7CF8C9185FFB2
:100EC000F2CF808185FFEDCFCE010E94DC06E9CF15
:100ED000DF91CF91089580E090E0892B49F080E088
:100EE00090E0892B29F00E94000081110E940000EF
:100EF00080E090E0892B49F080E090E0892B29F098
:100F00000E94000081110E94000080E090E0892B87
:100F100029F00E94D20681110E94000080E090E03A
:100F2000892B49F080E090E0892B29F00E94000095
:100F300081110C9400000895DC0180E0615090F074
:100F40009D919827E92FEF70F0E0EC5DFC4F249124
:100F5000E92FE295EF70F0E0EC5CFC4FE491822F1A
:100F60008E27ECCF0895DC012C911196ED91FC9128
:100F7000F8948181822B81839281322F3095932343
:100F8000928387E090E00197F1F781818323818349
:100F900083E290E00197F1F790817894EFECF0E034
:100FA0003197F1F7922381E009F480E00895FC0184
:100FB00090810180F281E02D292F209560FF14C0DF
:100FC000F8948281822382838181892B8183A3E2A9
:100FD000B0E01197F1F78281982B9283789487ED96
:100FE00090E00197F1F70895F8948281822382833B
:100FF0008181892B8183AFEFB0E01197F1F7828176
:10100000982B928378948FE090E0EBCFDF92EF9271
:10101000FF920F931F93CF93DF93EC01D62EE42E14
:1010200008E010E0FF24F39461E08D2D8F2109F496
:1010300060E0CE010E94D707FF0C01501109A1F713
:10104000E11010C0F894E981FA819181888180953E
:1010500089238183E981FA8192818881809589231E
:1010600082837894DF91CF911F910F91FF90EF9041
:10107000DF900895EF92FF920F931F93CF93DF932A
:101080008C017B0140E065E50E940608E70188E0ED
:10109000E80EF11C699140E0C8010E940608CE15D7
:1010A000DF05C1F7DF91CF911F910F91FF90EF9076
:1010B0000895FC0190810180F281E02DF8948181F6
:1010C000292F20958223818378943DE743E050E0E7
:1010D000315029F1DA011197F1F780818923C1F3A9
:1010E000F8948281822382838181892B8183789401
:1010F000ABE7B7E01197F1F7F89481818223818300
:10110000A3E1B1E01197F1F78081982381E009F024
:1011100080E07894E3E6F6E03197F1F7089580E017
:1011200008958F929F92AF92BF92CF92DF92EF92EB
:10113000FF920F931F93CF93DF9300D01F921F92C4
:10114000CDB7DEB78C01DC0119968D919C910E9480
:10115000590840E06CECF801818592850E940608F0
:10116000D8014C9164E419968D919C910E940608D7
:101170008FB7F894C090EF08D090F008E090F10895
:10118000F090F2088FBFF8018481811120C081E0C6
:101190008983CA82DB82EC82FD8229813A814B817C
:1011A0005C816D8170E080E090E00F900F900F9077
:1011B0000F900F90DF91CF911F910F91FF90EF90C3
:1011C000DF90CF90BF90AF909F908F9008958581D2
:1011D0008823F9F0808181111CC0F80181859285F6
:1011E0000E94B307813099F22FB7F8948091EF08ED
:1011F0009091F008A091F108B091F2082FBF8C19DE
:101200009D09AE09BF098E3E9240A105B10528F3A4
:10121000BECFD8011396EC91E9508EEE92E0E33008
:1012200038F4F0E0EE0FFF1FE05DFD4F808191810B
:101230004C01B12CA12CF8018181882321F060E0C0
:1012400082810E947805C501B4010E942406D8015C
:1012500011968C911197882309F499CF61E0129629
:101260008C910E94780593CF4F925F926F927F92FC
:101270008F929F92AF92BF92CF92DF92EF92FF92A6
:101280000F931F93CF93DF938C017B01EA01FC0145
:10129000818592850E9459088823D9F1B701F80108
:1012A000818592850E943A0840E06EEBF8018185C5
:1012B00092850E9406086E015E01F9E0AF0EB11C36
:1012C0007E01F8018184928488E0682E712C512C73
:1012D00044244394C4010E94B30781115428440C50
:1012E000F1E06F1A7108B1F7F70151927F01AE1664
:1012F000BF0639F7F801818592850E94590881302F
:1013000041F4F60181916F01811105C0EE15FF05D1
:10131000C1F790E008C068E0CE010E949C0791E010
:1013200028852813F6CF892FDF91CF911F910F9138
:10133000FF90EF90DF90CF90BF90AF909F908F90F5
:101340007F906F905F904F900895EEEFFAE0A2814A
:10135000B38113968D919C91149714961C921E92B2
:10136000139795838483A285B38513968D919C9161
:10137000149714961C921E9213979587848708954C
:101380002091020B3091030B8091040B9091050B7F
:1013900028173907C0F081E090E09093FF0A80930E
:1013A000FE0A20910A0B30910B0B80910C0B90914F
:1013B0000D0B2817390760F081E090E09093070B40
:1013C0008093060B08951092FF0A1092FE0AE9CF4F
:1013D0001092070B1092060B089510924A0CEAEF38
:1013E000F8E08081877F80830895CF93DF93A0E02A
:1013F000B2E0FD0190E0219131912817390721F4E5
:10140000EF0122971982188222E0E031F20799F762
:101410008D919D91892B41F482E0A031B807C1F7ED
:1014200081E0DF91CF91089580E0FBCFFC01218125
:101430002150330B70E060E0472F50E04217530714
:101440003CF4480F591FFA014081640F7F5FF4CFCD
:10145000820F931FFC0160830895FC0181E080836B
:10146000658385E082838091960BA0E0B2E020E165
:1014700032E04D915D91452BE1F42A173B07C9F706
:1014800091E08F7E90FF80619091840890FB81F9BC
:101490008383F8949091F40B8091F30B91110BC01E
:1014A0009091F20B981307C07894148287E081839F
:1014B000089590E0E6CF90E0A091EF0BB091F00B93
:1014C000A80FB91F2C9101966091F10B70E00E945A
:1014D0002C318093F30B1092F40B78942483E6CF95
:1014E000CF93DF93CDB7DEB7C456D1090FB6F894CA
:1014F000DEBF0FBECDBF66E0CE0101960E942D0A71
:10150000CE0101960E94160ACC59DF4F0FB6F8940F
:10151000DEBF0FBECDBFDF91CF910895CF93DF9394
:10152000EC0167E00E942D0ACE01DF91CF910C946F
:10153000160AE1ECF0E080818068808308951F93B3
:10154000CF93DF93EC0119861EAAFC01E05CFF4FEC
:1015500010829FAD319680E0981719F011928F5F3D
:10156000FBCFFE01E55BFF4F10823197108210E048
:101570008FAD181750F4EA81FB81E10FF11D60E097
:1015800080810E9478051F5FF3CFDF91CF911F917B
:101590000895CF93DF93EC010E949F0AED81FE81B5
:1015A0002F8138858CA99DA9B0E0A0E0808391832C
:1015B000A283B38384839583A683B78332872187ED
:1015C0008BE08087838581608D7F8B7F8387DF9130
:1015D000CF9108953F924F925F926F927F928F9238
:1015E0009F92AF92BF92CF92DF92EF92FF920F93B2
:1015F0001F93CF93DF9300D000D0CDB7DEB79E838B
:101600008D83062F10E08FB7F894C090EF08D0902C
:10161000F008E090F108F090F2088FBFED81FE81B4
:1016200080A991A9A2A9B3A9C81AD90AEA0AFB0AF2
:10163000C701B6010E94763220E030E04AE754E468
:101640000E94CE31AD81BE8194966D937D938D9332
:101650009C939797FD01C0A2D1A2E2A2F3A22FB75B
:10166000F8948091EF089091F008A091F108B09162
:10167000F2082FBFED81FE8180AB91ABA2ABB3AB83
:101680001587048762857385601B710BE6A4F7A438
:10169000E01AF10A17A706A781A5882331F07195F2
:1016A00061957109F194E194F108AD81BE8198963C
:1016B0003C90072E000C880B990B0E9478324B014E
:1016C0005C0110E000E031100BC0ED81FE8120894B
:1016D0003189428953890E942D330E9440328B0107
:1016E000B701FF0C880B990B0E9478326B017C01CB
:1016F000AD81BE8194968D919D910D90BC91A02D50
:1017000089839A83AB83BC83ED81FE81208D318DEB
:10171000428D538DC701B6010E942D3329813A8134
:101720004B815C810E94CE312B013C01B801110F2D
:10173000880B990B0E9478329B01AC01C301B20166
:101740000E945D310E9440322B01AD81BE811F9607
:101750007C936E931E9754962D913D914D915C9183
:101760005797C501B4010E942D3329813A814B81DD
:101770005C810E942D33ED81FE81248D358D468D57
:10178000578D0E945D314B015C01AD81BE815C963D
:101790008D929D92AD92BC925F973320A1F05096AE
:1017A0002D913D914D915C915397C701B6010E94D7
:1017B0002D33A50194010E945D31ED81FE81648F7E
:1017C000758F868F978FAD81BE815C968C905C976C
:1017D0005D969C905D975E96AC905E975F96BC9090
:1017E0005F979A960D911C91B801012E000C880B01
:1017F000990B0E9478326B017C019B01AC01B40112
:10180000C5010E94C93187FD16C0ED81FE8164A526
:1018100075A5072E000C880B990B0E9478326B017E
:101820007C019B01AC01B401C5010E94283318164C
:1018300014F064017501C601D701ED81FE81848F2A
:10184000958FA68FB78FB201550C880B990B0E940C
:1018500078329601A7010E945D310E9440326017E4
:1018600071074CF0AD81BE819C960D911C91601763
:1018700071070CF48B01ED81FE811787068706AB9B
:10188000E55BFF4FAD81BE8114968C91081708F47B
:10189000802F808326960FB6F894DEBF0FBECDBF93
:1018A000DF91CF911F910F91FF90EF90DF90CF903C
:1018B000BF90AF909F908F907F906F905F904F9070
:1018C0003F900895CF93DF93CDB7DEB768970FB6FB
:1018D000F894DEBF0FBECDBFEEEFFAE0DE01119649
:1018E00044A155A166A177A14D935D936D937D931E
:1018F00073968BE0E037F80799F78091930E882371
:1019000051F069817A818B819C810E9447328AE8FB
:101910009EE00E94EA0A8091DF0E882391F069819F
:101920007A818B819C810E94473286ED9EE0689689
:101930000FB6F894DEBF0FBECDBFDF91CF910C94F0
:10194000EA0A68960FB6F894DEBF0FBECDBFDF91EE
:10195000CF910895E62FDC0114962C91149762170D
:1019600058F461E0642712968D919C91E80FF92F4D
:10197000F11D80810C9478050895CF92DF92EF924B
:10198000FF920F931F93CF93DF9300D000D01F924D
:101990001F92CDB7DEB7FC018E010F5F1F4F88E0AD
:1019A000D8011D928A95E9F74285C180E0802E2DED
:1019B00030E0842FF12CDD24D394CF100EC0CF0162
:1019C0000296B801562F501B5E1590F4DB015D9115
:1019D000BD01DC015D93CD01F5CF90E0D801A80FEA
:1019E000B91FDC920196B9010E942C31F394E5CF26
:1019F000842F90E00196B9010E942C3182872896AD
:101A00000FB6F894DEBF0FBECDBFDF91CF911F910F
:101A10000F91FF90EF90DF90CF9008951F93CF9399
:101A2000DF93FC0181858823A1F1DF01A65BBF4F15
:101A30009C91EF01C55BDF4F8881981730F59F5F60
:101A40009C939F01205C3F4F97AD8C91981708F4B1
:101A5000892FEF01F9018083CE01CF960E94BD0C42
:101A600010E08FAD1817A8F4812F90E0DE01A80FC9
:101A7000B91FAF5BBF4FEA81FB81E80FF91F6C9183
:101A800080810E9478051F5FECCF8917D0F69150B6
:101A9000D7CFDF91CF911F9108958AE89EE00E94F1
:101AA0000E0D86ED9EE00C940E0DEF92FF921F93AB
:101AB000CF93DF93EC0110E08C811817A0F4E12E96
:101AC000F12CEA81FB81EE0DFF1D61E080810E9417
:101AD000A605EA81FB81EE0DFF1D60E080810E947A
:101AE00078051F5FE9CFFE01E05CFF4F1082CE0159
:101AF000CF96DF91CF911F91FF90EF900C94BD0C8A
:101B000081E20E94270421E0892B09F420E0822F42
:101B10000895FC018181861799F0618381E090E04E
:101B2000938382838081861751F0662381F08481BC
:101B30009581228133812817390708F06083089541
:101B4000828193818F3F980769F30196E9CF86815F
:101B50009781EFCF0F931F93CF93DF93FC012281E7
:101B6000222309F43DC0162FC62FD0E0048161E086
:101B7000802F0E94A605209741F460E0802FDF911E
:101B8000CF911F910F910C947805CF3FD10511F49F
:101B900061E0F4CFE02FF0E0E25EFB4FE491E15032
:101BA000E23108F0B4C0F0E08827E652F24F8F4FE0
:101BB0000C944031EC0DF50DFA0D040E0E0E870E4F
:101BC000180E200E280E320E3C0E460E550E5F0EDD
:101BD000870E690E730E7D0E84B5806884BD17BDB7
:101BE000DF91CF911F910F91089584B5806284BDDC
:101BF00018BDF6CF80918000806880938000D093DC
:101C00008900C0938800ECCF80918000806280932F
:101C10008000D0938B00C0938A00E2CF8091800037
:101C2000886080938000D0938D00C0938C00D8CFC3
:101C30008091B00080688093B0001093B300D0CF43
:101C40008091B00080628093B0001093B400C8CF40
:101C500080919000806880939000D0939900C09309
:101C60009800BECF80919000806280939000D093C6
:101C70009B00C0939A00B4CF8091900088608093BD
:101C80009000D0939D00C0939C00AACF8091A000AB
:101C900080688093A0008091A0008F7B8093A0003B
:101CA000D093A900C093A8009BCF8091A000806230
:101CB0008093A000D093AB00C093AA0091CF8091F5
:101CC000A00088608093A000D093AD00C093AC00CA
:101CD00087CF80912001806880932001D0932901D3
:101CE000C09328017DCF80912001806280932001E4
:101CF000D0932B01C0932A0173CF8091200188607B
:101D000080932001D0932D01C0932C0169CFC0385E
:101D1000D1050CF03DCF31CF0F931F93CF93DF93BD
:101D200083E20E9427048C0182E20E942704EC01D6
:101D300061E0012B09F460E08CEB9BE00E94890DCF
:101D400061E0CD2B09F460E084EC9BE00E94890DFA
:101D50008091BC0B8093CC0B9091C40B9093CD0BD6
:101D600023E0911103C021E0811122E02093CE0BEA
:101D70002091D20D222349F12091E60D222329F151
:101D80002091220F211121C09923B1F08091340FAD
:101D90008093430F1092420F6091420F80ED9DE0BF
:101DA0000E94AA0D6091430F84EE9DE0DF91CF91D8
:101DB0001F910F910C94AA0D8111EECF8091330FDA
:101DC0008093420F1092430FE7CFDF91CF911F9185
:101DD0000F910895CF93DF93EC018A8181111EC08A
:101DE00081E08A838B81811117C08C81813171F4EC
:101DF0008091D00080648093D0008091D100877E54
:101E00008093D10061E081E10E94A60561E08C81B0
:101E1000DF91CF910C94780588818987DF91CF91EC
:101E20000895CF93DF93EC01862F68835A8349830B
:101E30001C821B8262E00E94A60529813A8198815A
:101E4000923069F4309311022093100280916A005D
:101E5000836080936A00EC9ADF91CF91089593306C
:101E600059F4309313022093120280916A008C601F
:101E700080936A00ED9AF0CF8EEE890F843060F780
:101E800087E1891BE82FF0E0EE0FFF1FE05FFD4FB9
:101E900031832083843091F08530B9F0833039F07C
:101EA00080916900836080936900E89AD5CF809122
:101EB00069008C6080936900E99ACECF80916900B7
:101EC000806380936900EA9AC7CF80916900806C33
:101ED00080936900EB9AC0CFFC01118260E08081A1
:101EE0000C94780521E0FC01218361E080810C9451
:101EF0007805FC01108260E081810C94780521E076
:101F0000FC01208361E081810C947805FC01208133
:101F100021110C94790F0C947F0F90E0009769F5D4
:101F200088EC9DE00E94860F8AEC9DE00E94860F5F
:101F300084EF91E0A0E0B0E08093A70D9093A80D0E
:101F4000A093A90DB093AA0D8093AB0D9093AC0D07
:101F5000A093AD0DB093AE0D8DE89FE09093B10DC1
:101F60008093B00D81E08093AF0D8091B20D8160C0
:101F70008D7F8B7F8093B20D0895019721F484EEBD
:101F80009DE00C94EA0E0895F8949091F40B992337
:101F900059F08091F50B9091F60B01969093F60B0A
:101FA0008093F50B789408952091F20B30E0E09146
:101FB000EF0BF091F00BE20FF31F8083C901019644
:101FC0006091F10B70E00E942C318093F20B9091A4
:101FD000F30B9813E7CF81E08093F40BE3CFFC0180
:101FE00001900020E9F73197AF01481B590BBC0164
:101FF0008EEF98E00C9468068F929F92AF92BF92FA
:102000000F931F93CF93DF93CDB7DEB7A1970FB692
:10201000F894DEBF0FBECDBF19A2423008F44AE0EB
:102020008E010F5D1F4F842E912CB12CA12CA50188
:1020300094010E940A31E62FB901CA01EA30F4F492
:10204000E05DD801EE938D01232B242B252B79F70E
:1020500090E080E0109719F0CD010E94EF0FA1965B
:102060000FB6F894DEBF0FBECDBFDF91CF911F91A9
:102070000F91BF90AF909F908F900895E95CE1CF52
:10208000009711F00E94EF0F8EE592E00C94EF0F95
:1020900081E692E00E944010EEEFFAE01582148291
:1020A000A7EFBBE04CE251E060E070E0D0964D93CA
:1020B0005D936D937C93D397D4964D935D936D937D
:1020C0007C93D79780EC99E0DA969C938E93D9977E
:1020D000D8961C92A2E3BCE08C9181608D7F8B7FAF
:1020E0008C9382E090E091838083A281B3811496E7
:1020F0001C921E92139791878087158614860284FE
:10210000F385E02D1482138208950E94800D8823A8
:1021100071F08091FB0882FD04C086E792E00E9486
:1021200040108091FB0884608093FB0808958091A3
:10213000FB088B7F8093FB088091FE0A9091FF0A39
:10214000029709F450C02091020B3091030B80914B
:10215000040B9091050B2817390708F445C081E05E
:1021600090E09093FF0A8093FE0A2091FE0A30913E
:10217000FF0A91E02130310509F090E08091FA08E2
:1021800081FD04C082602130310521F48091FA087C
:1021900090FB81F98093FA088091060B9091070BD0
:1021A000029709F18091130B0E94E2059C01909324
:1021B000150B8093140B6091160B7091170B41E077
:1021C0006817790708F440E09091FA0892FD05C07D
:1021D000892F84606217730720F08091FA0840FB12
:1021E00082F98093FA0808951092FF0A1092FE0A6D
:1021F000BCCF0E94851085E40E942704892B71F0D2
:102200008091FB0883FD04C086E892E00E944010A4
:102210008091FB0888608093FB0808958091FB08FB
:10222000877FF9CF90E0009781F584EC9DE00E94D4
:10223000860F86EC9DE00E94860F84EF91E0A0E07F
:10224000B0E08093B30D9093B40DA093B50DB0930F
:10225000B60D8093B70D9093B80DA093B90DB093C0
:10226000BA0D82E191E19093BD0D8093BC0D81E0A8
:102270008093BB0D8091BE0D81608D7F8B7F80939D
:10228000BE0D86E992E00C944010019769F487EB4B
:1022900092E00E94401084EE9DE00E94EA0E6CEDF8
:1022A00084EE9DE00C94AA0D0895BF92CF92DF9228
:1022B000EF92FF920F931F93CF93DF93EC01B62E13
:1022C000C72E8D85811105C0CE010E94590881114C
:1022D0000EC01B861D861C8680E0DF91CF911F916A
:1022E0000F91FF90EF90DF90CF90BF90089540E066
:1022F00060EFCE010E94060801E0E12CD12C11E034
:10230000CE010E94B307F82ECE010E94B30791E0E0
:10231000F91218C0813099F51134D8F2DB86D1104A
:1023200002C081E08D878B81882399F22396EB2D63
:10233000FC2DCF01089629912193E817F907D9F7C9
:1023400081E0CBCFEE2DF0E0F8120FC08B8518178F
:10235000A0F4DE01AE0FBF1F13968C91802379F499
:10236000F12C193008F41C87D12EEC0FFD1F83814E
:10237000902F9095892383830AC08113F1CFFE01AA
:10238000EE0DF11D8381802B8383FF24F3946F2D49
:10239000CE010E94D7071F5F000F11F4E39401E004
:1023A00087E08E1508F0ACCFB7CFCF93DF93EB016A
:1023B000DC011996ED91FC911A9713861586148607
:1023C0001286118610861782168215821482138255
:1023D00019968D919C910E945511982F882341F058
:1023E00067E0CE010E949C0791E02F81281390E0C6
:1023F000892FDF91CF9108958F929F92AF92BF92D4
:10240000EF92FF920F931F93CF93DF93CDB7DEB779
:1024100061970FB6F894DEBF0FBECDBF7C01FC0103
:1024200000851185F8018781882309F470C0BE01F9
:10243000665F7F4FC8010E94D511882309F467C0E9
:10244000AE014F5F5F4FBE01665F7F4FC8010E94C4
:102450003409882309F45BC08A81812C912C5401B2
:1024600087FF06C0812C912CF8EFAF2EBB24BA94C5
:102470009A8549819B3309F065C02D8127FF62C091
:1024800040FD45C0042F10E030E020E073E0000F75
:10249000111F221F331F7A95D1F7B901A801407E81
:1024A00057706627772790E0B0E0A0E08C019D018F
:1024B000EBE0000F111F221F331FEA95D1F7042B09
:1024C000152B262B372B082919292A293B290138B6
:1024D00054EE15075FEF25073507CCF0C901B801A9
:1024E0000E94783220E030E040E05CE30E942D332F
:1024F0004B015C0120E030E04EEF52EC0E94C9310C
:10250000882329F0F70180829182A282B382F701A9
:10251000808591850E949108F70160817181828197
:10252000938161960FB6F894DEBF0FBECDBFDF91E9
:10253000CF911F910F91FF90EF90BF90AF909F9020
:102540008F900895082F10E0102F0027110F110F02
:10255000110FF8E04F9FA0011124042B152B012E21
:10256000000C220B330B082919292A293B29903109
:1025700009F0ADCF6885662309F4A9CF70E08F819B
:10258000AB01481B5109CA019695982F882797954A
:1025900087950E942C31CB01770FAA0BBB0B53E020
:1025A000000F111F221F331F5A95D1F70078277093
:1025B00033270052110921093109800F911FA21FF1
:1025C000B31F95018401082B192B2A2B3B2B7FCF9E
:1025D0008091BA0B81508093BA0B811118C085E0AD
:1025E0008093BA0B8091970B23E1829FC001112445
:1025F0008E5D944F0E94FC119091970B892F8F5FF5
:10260000F1F39FEF8630D0F78093970B089582E225
:102610009BE00C94FC11BF92CF92DF92EF92FF925D
:102620000F931F93CF93DF93CDB7DEB761970FB6AC
:10263000F894DEBF0FBECDBF7C018B01DC01199683
:102640007C936E93189783E0D82ECC24C394D80142
:102650001996ED91FC911A971386158614861286A9
:10266000118610861782168215821482138217969D
:102670001C92179718961C9262E370E080E090E03D
:102680000E942406BE01665F7F4FF8018185928516
:102690000E945511882309F477C067E0CE010A969D
:1026A0000E949C0799898913EDCFD80117968C91C8
:1026B00017978F5F17968C938A85883231F008F0D0
:1026C0004AC0803111F08232E9F6F80180858F5FCF
:1026D00080878081811124C0818592850E9459085C
:1026E000BE01665F7F4FD80119968D919C910E9423
:1026F0003A0840E064EBF801818592850E94060863
:10270000D80119968D919C910E94B307B82EF801BB
:10271000818592850E945908B11002C0D801CC92DF
:102720008A85803119F1AE014F5F5F4FBE01665F50
:102730007F4FC8010E943409882359F08D819A8502
:102740009B3311F487FD12C08F3391F058F48F3111
:10275000B9F080E00EC08B3309F4B7CF823409F0B2
:1027600091CFB3CF8F3571F08F3799F78CE001C0DF
:102770008AE0F8019381981708F084CF838382CF91
:1027800089E0F7CF8BE0F5CFD80117969C91911196
:1027900003C0DA94D1105BCFD7011896ED91FC916C
:1027A0009781992331F0B701665F7F4FCF010E9477
:1027B000D511F701828B0084F185E02D1482D701B9
:1027C00018968D919C910E94910861960FB6F8948D
:1027D000DEBF0FBECDBFDF91CF911F910F91FF9054
:1027E000EF90DF90CF90BF9008958F929F92AF921D
:1027F000BF92CF92DF92EF92FF92CF93DF936A0165
:102800007B01E9010E94EF0FC530D10509F0A5C099
:10281000A7019601C701B6010E949A33882391F05F
:1028200088ED92E00E94EF0F8EE592E0DF91CF916C
:10283000FF90EF90DF90CF90BF90AF909F908F90E0
:102840000C94EF0F46015701E894B7F82FEF3FEFD4
:102850004FE75FE7C501B4010E949A3381110DC0B3
:102860002FEF3FEF4FE75FE7C501B4010E94C93189
:1028700018161CF48CED92E0D5CF2FEF3FEF4FE709
:102880005FE4C701B6010E94283318161CF480EEDD
:1028900092E0C8CF2FEF3FEF4FE75FECC701B601E3
:1028A0000E94C93187FDF3CF20E030E0A901C701C4
:1028B000B6010E94C93187FF09C06DE28EEF98E032
:1028C0000E94FE06F7FAF094F7F8F0942BEA35EC44
:1028D00047EA56E3C701B6010E945D316B017C01F6
:1028E0000E9447324B015C010E9476329B01AC0191
:1028F000C701B6010E945C316B017C014AE0C50151
:10290000B4010E94FC0F6EE28EEF98E00E94FE067A
:10291000C6E0C15009F488CF20E030E040E251E445
:10292000C701B6010E942D334B015C010E94473262
:102930006B01F12CE12C4AE0C701B6010E94FC0FAB
:10294000C701B6010E9476329B01AC01C501B401FA
:102950000E945C316B017C01DCCFC701B6010E9493
:1029600047324C2F0E94FC0F5FCFCF9321E030E025
:102970003093950B2093940B9091960B91609B7FD5
:102980009093960B4CE251E060E070E04093270C8E
:102990005093280C6093290C70932A0C40932B0CB5
:1029A00050932C0C60932D0C70932E0C40EC59E03E
:1029B0005093310C4093300C10922F0C9091320CAC
:1029C00091609D7F9B7F9093320C9091C10D9B30C5
:1029D00031F41092B90B1092B80BCF910895963044
:1029E00029F43093B90B2093B80BF7CF2CEF290FB4
:1029F000223038F482E090E09093B90B8093B80BCA
:102A0000ECCF973081F5C82F2AE030E040E050E06D
:102A100060E87FE384EE92E00E94F51340919E0B04
:102A200050919F0B70E060E040935F0D5093600DFC
:102A30006093610D7093620D4093630D5093640D2C
:102A40006093650D7093660D82E197E19093690D37
:102A50008093680DC093670D80916A0D81608D7FB2
:102A60008B7F80936A0D83E090E0C6CF82E090E098
:102A70009093950B8093940B8EEF92E00E94401000
:102A800088EF9DE00C94EA0E1F93CF93DF93FC0137
:102A900022812223A1F0EC011282148183818823F8
:102AA00091F061E0812F0E94A60560E0812F0E94D5
:102AB0007805E889F9891386EE85FF851386DF910D
:102AC000CF911F91089560E0812F0E9478058C813D
:102AD0008131A9F7DF91CF911F910C94660283E1B8
:102AE00093E00E94401080ED9DE00E94441584EF29
:102AF00091E0A0E0B0E080939B0D90939C0DA0939B
:102B00009D0DB0939E0D80939F0D9093A00DA0936B
:102B1000A10DB093A20D83E199E19093A50D80934F
:102B2000A40D1092A30DE6EAFDE0808181608D7F07
:102B30008B7F808308952091310F3091320F2817B9
:102B4000390731F09093320F8093310F0C946F1549
:102B500008959091C10D981729F0953091F020F4C7
:102B6000943089F080E00895963021F19B30D1F7C0
:102B70008430B9F08630B1F78093C10D81E090E0E8
:102B800009C0843051F08B3069F78BE08093C10D20
:102B900090E080E00E949B15E5CF8093C10D81E01D
:102BA00008958093C10D82E090E00E949B150E94E1
:102BB0004810F5CF8B30B1F62AE030E040E050E02D
:102BC00060E371E483E393E00E94F5138AE89EE0FA
:102BD0000E94C90A8DE08093C10DC4CF1092CE0C23
:102BE0008091B80B9091B90B009769F00297D9F4D6
:102BF0008BE00E94A9151092B90B1092B80B83E5D7
:102C000093E00C9440108091BB0B81110CC086E0C6
:102C10000E94A91581E090E09093B90B8093B80BC6
:102C20008AE793E0EECF08951092DA0C8091B80B0A
:102C30009091B90B8130910521F070F00297D1F09D
:102C400008958BE00E94A9151092B90B1092B80B51
:102C50008EE993E00C94401084E00E94A91582E074
:102C600090E09093B90B8093B80B1092760D80ECA6
:102C700093E0F0CF1092760D08950E9440101092CC
:102C8000C00D1092BF0D1092A60D1092B20D1092B1
:102C9000BE0D80ED9DE00E94441584EE9DE00E94F3
:102CA000441588EF9DE00E9444158CE09EE00E9450
:102CB000441580E29EE00E94441584E39EE00E9459
:102CC000441588E49EE00E9444158CE59EE00E9435
:102CD000441580E79EE00E94441584EC9DE00E942C
:102CE000790F86EC9DE00E94790F88EC9DE00E94B0
:102CF000790F8AEC9DE00E94790F8CEC9DE00E9498
:102D0000790F8EEC9DE00E94790F84E89EE00E948E
:102D10006C0F86E89EE00E946C0F88E89EE00E949F
:102D20006C0F8AE89EE00E949F0A86ED9EE00E945A
:102D30009F0A10922F0F1092F20C1092FE0C10921C
:102D4000220D1092160D10923A0D10920A0D10924B
:102D50002E0D1092460D08951F93CF93DF93EC0133
:102D6000162F009711F00E94401084EE93E00E940D
:102D700040101092950B1092940B1092220F10920B
:102D8000C10E84EF93E00E943D168091C10D8C50DE
:102D9000823010F01092C10D209719F0CE010E94E0
:102DA00040106091960B6E7F64606093960B10925A
:102DB000030B1092020B10920B0B10920A0B109245
:102DC0003E0C10924A0C1092560C1092620C10920B
:102DD0006E0C1092CE0C1092DA0C1092520D1092D2
:102DE0005E0D1092320C10926A0D1092760D70E00A
:102DF00090E080E00E947632AB01BC0120E130E03F
:102E000084E094E00E94F5131092BB0B111106C0F0
:102E100089E1DF91CF911F910C94C40FDF91CF9185
:102E20001F910895CF93C82F10926A0D10924A0CEB
:102E300085E194E00E9440108091FA08C11115C00C
:102E400083FD11C08CE10E94C40F1092220F1092DA
:102E5000C10E84EF93E00E943D1660E090E080E0B8
:102E6000CF910C94AC168DE1EECF83FD17C085E2B7
:102E700094E00E9440101092C00D1092BF0D8BE0A4
:102E80008093C10D0E948E0280E00E94B5148CE1F7
:102E90000E94C40F8EE1CF910C94C40F81E394E0A3
:102EA0000E94401060E090E080E00E94AC168DE14E
:102EB000F2CF60E088E594E00C94AC1660E08FE619
:102EC00094E00C94AC16EAEFF8E080818D7F80836B
:102ED00060E080E894E00C94AC16EAEFF8E08081C2
:102EE0008460808360E08CE994E00C94AC16CF930E
:102EF000C82F1092620C6091C10D70E090E080E0EC
:102F00000E947632AB01BC012AE030E089EB94E00C
:102F10000E94F5138091C10D8C3041F48CEC94E04B
:102F20000E943D161092C10DCF910895C093C10D1E
:102F300088E10E94C40F6C2F70E090E080E00E9456
:102F40007632AB01BC012AE030E088ED94E0CF910D
:102F50000C94F513CF93C82F10926E0C84EF94E06D
:102F60000E9440108091C10D8D30B1F4C093C10D0D
:102F70006C2F70E090E080E00E947632AB01BC01E3
:102F80002AE030E08CE095E00E94F5130E948E026A
:102F900086E1CF910C94C40F8C3031F483E295E03C
:102FA0000E943D161092C10DCF910895833061F1BA
:102FB0008EE295E00E94401084EE9DE00E94441550
:102FC00084EF91E0A0E0B0E08093A70D9093A80D6E
:102FD000A093A90DB093AA0D8093AB0D9093AC0D67
:102FE000A093AD0DB093AE0D8DE89FE09093B10D21
:102FF0008093B00D1092AF0D8091B20D81608D7FE6
:103000008B7F8093B20D08958EE495E00E9440106E
:1030100084EE9DE00E94441584EF91E0A0E0B0E0D2
:103020008093B30D9093B40DA093B50DB093B60DEE
:103030008093B70D9093B80DA093B90DB093BA0DCE
:1030400082E191E19093BD0D8093BC0D1092BB0D78
:103050008091BE0D81608D7F8B7F8093BE0D089522
:103060008091C20D9091C30D8330910551F0892B51
:1030700041F082E00E94D6171092C30D1092C20D4B
:1030800008951092C30D1092C20D84EE9DE00C9431
:10309000EA0E1092520D10925E0D8FE695E00E949E
:1030A000401088EF9DE00E944415EFEBFDE0118297
:1030B000108287E082830E948E0281E00C94B51416
:1030C0009EEF980F923008F069C01092FE0C83308A
:1030D00099F184E39EE00E94EA0E88E49EE00E945B
:1030E000EA0E80EC94EDA1E0B0E08093F30C9093B5
:1030F000F40CA093F50CB093F60C8093F70C90931E
:10310000F80CA093F90CB093FA0C80E698E1909338
:10311000FD0C8093FC0C83E08093FB0C8091FE0CF3
:1031200081608D7F8B7F8093FE0C81E10E94C40FB4
:1031300083E895E00C94401084E39EE00E944415DF
:1031400088E49EE00E94441582E10E94C40F80E35F
:1031500095E7A0E0B0E08093F30C9093F40CA0937B
:10316000F50CB093F60C8093F70C9093F80CA093A9
:10317000F90CB093FA0C80E698E19093FD0C8093E3
:10318000FC0C84E08093FB0C8091FE0C81608D7FB1
:103190008B7F8093FE0C8CE895E0CCCF60E084E9D7
:1031A00095E00C94AC168230C9F51092F20C88EFC1
:1031B0009DE00E94441584EE9DE00E94441580E24B
:1031C0009EE00E94EA0E80E395E7A0E0B0E08093E5
:1031D000E70C9093E80CA093E90CB093EA0C809371
:1031E000EB0C9093EC0CA093ED0CB093EE0C83EDF4
:1031F00098E19093F10C8093F00C81E08093EF0CB8
:103200008091F20C81608D7F8B7F8093F20C8EE039
:103210000E94C40F83EA95E00C94401060E08BEAB2
:1032200095E00C94AC161F93CF93DF93CDB7DEB728
:1032300068970FB6F894DEBF0FBECDBF90E0009741
:1032400009F065C08AEB95E00E9440106091310F53
:103250007091320F90E080E00E947632AB01BC01A9
:103260002AE030E08AED95E00E94F5138091310F5D
:103270009091320F8230910580F10297D9F184EF5D
:1032800091E0A0E0B0E080939B0D90939C0DA09303
:103290009D0DB0939E0D80939F0D9093A00DA093D4
:1032A000A10DB093A20D83E199E19093A50D8093B8
:1032B000A40D81E08093A30D8091A60D81608D7F88
:1032C0008B7F8093A60D68960FB6F894DEBF0FBE75
:1032D000CDBFDF91CF911F9108958CEE95E00E94B4
:1032E00040108CEC9DE00E94790F8EEC9DE00E94D6
:1032F000790FC5CF86E196E00E9440108EEC9DE0EC
:103300000E947F0F8CEC9DE00E947F0FB8CF019749
:10331000D1F6EEEFFAE0DE01119680E79BE040A5E2
:1033200051A562A573A54D935D936D937D9373969F
:103330008E179F07A1F785E396E00E9440106091E9
:10334000310F7091320F90E080E00E947632AB0135
:10335000BC012AE030E085E596E00E94F5138091FB
:10336000310F9091320F81309105D9F1029709F414
:1033700063C08091930E882389F02AE030E040E01A
:1033800050E060E371E483E393E00E94F5138AE880
:103390009EE00E94C90A8DE08093C10D8091DF0EEE
:1033A0008823E9F12AE030E040E050E060E371E496
:1033B00089E996E00E94F51386E89EE00E946C0F72
:1033C00088E89EE00E946C0F84E39EE00E94441512
:1033D00088E49EE00E94441586ED9EE00E94C90AA2
:1033E0001EC069817A818B819C810E94473281E075
:1033F0008093930E862F90E09093950E8093940E79
:103400008AE89EE00E94EA0A89E696E00E9440105F
:1034100084E796E00E94401085E10E94C40F80ED91
:103420009DE068960FB6F894DEBF0FBECDBFDF916A
:10343000CF911F910C94EA0E84E39EE00E94EA0E65
:1034400088E49EE00E94EA0E86E89EE00E94720FE9
:1034500088E89EE00E94720F69817A818B819C814D
:103460000E944732162F70E090E080E00E94763292
:10347000AB01BC012AE030E08EE796E00E94F51334
:1034800081E08093DF0E812F90E09093E10E809396
:10349000E00E612F86ED9EE00E94EA0A89E696E042
:1034A0000E94401081E996E00E94401087E1B5CF6C
:1034B0008F929F92AF92BF92CF92DF92EF92FF9244
:1034C0000F931F93CF93DF938091BF0D9091C00D09
:1034D000019709F034C08BEB96E00E9440108CED10
:1034E00096E00E944010E091C10DE150EB3008F5EC
:1034F000F0E08827E158F54E8F4F0C9440318A1A3E
:10350000F31A011B061B991A061B0F1B171B481BDE
:103510005E1B981B8091C60D882321F086EC9DE0F0
:103520000E94790F8CE09EE00E94EA0E87E00E94E4
:10353000C40F1092C00D1092BF0D0E9448100E943F
:10354000800D9091FB0880FB92F99093FB0885E435
:103550000E94270421E0892B09F420E08091FB08D8
:1035600020FB83F98093FB088091940B9091950B3D
:10357000009741F0C091C10D029709F0EAC08C2F6D
:103580000E94B5028091FA089091FB08A091FC0876
:10359000B091FD0840918508509186086091870898
:1035A0007091880884179507A607B70759F021E09E
:1035B000209384088093850890938608A0938708B9
:1035C000B093880860E088E59AE1DF91CF911F9180
:1035D0000F91FF90EF90DF90CF90BF90AF909F90B2
:1035E0008F900C947F038091720E882321F080E7E6
:1035F0009EE00E9444158CE59EE00E94EA0E89E060
:1036000096CF1092320F1092310F93CF1092320F4B
:103610001092310F0E946F150E9430188ACF83E0FC
:103620000E94D61782EF96E00E94401082CF88EF6A
:103630009DE00E94EA0E80E69AEEA0E0B0E0809362
:10364000FF0C9093000DA093010DB093020D809399
:10365000030D9093040DA093050DB093060D8EE518
:1036600097E19093090D8093080D1092070D8091BA
:103670000A0D81608D7F8B7F80930A0D84E197E036
:103680000E94401086E297E00E94401083E14FCFF5
:103690001092220F1092C10E84EF93E00E943D160B
:1036A00080E29EE00E94EA0E8BE00E94C40F81E35C
:1036B00097E00E94401082E497E0B6CF1092220F6C
:1036C0001092C10E84EF93E00E943D1680E79EE0C9
:1036D0000E94EA0E8FE00E94C40F80E49CE9A0E003
:1036E000B0E08093F30C9093F40CA093F50CB0939E
:1036F000F60C8093F70C9093F80CA093F90CB09310
:10370000FA0C80E698E19093FD0C8093FC0C82E02B
:103710008093FB0C8091FE0C81608D7F8B7F80936A
:10372000FE0C8DE497E00E9440108DE597E07CCF81
:103730001092320F1092310F88EC9DE00E947F0FA3
:103740008AEC9DE00E947F0F90E080E00E949B1534
:1037500063CF9091BB0B992339F18091760D80FD59
:1037600023C082FD21C040E355E760E070E0409354
:103770006B0D50936C0D60936D0D70936E0D4093B7
:103780006F0D5093700D6093710D7093720D29E55C
:1037900037E13093750D2093740D1092730D816095
:1037A0008D7F8B7F8093760D8CEF8C0F833028F08C
:1037B000CB3019F0992309F47EC08091B80B909119
:1037C000B90B039709F477C0D091850EC63009F480
:1037D00089C02091480B3091490B40914A0B509180
:1037E0004B0B60916E0B70916F0B8091700B9091F1
:1037F000710B0E94C93187FF75C0D11107C084E8E1
:103800009EE00E94720F82E00E94D617C090220BA9
:10381000D090230BE090240BF090250B8090260B8A
:103820009090270BA090280BB090290B20E030E05F
:1038300040E85FE3C501B4010E945D31A701960134
:103840000E94C93118160CF455C01092CE0CD091BC
:10385000DA0CD0FD30C0D2FD2EC00091B80B109113
:10386000B90BF801EE0FFF1FEE0FFF1FE855F44FE5
:1038700060817181828193810E9447326093CF0C75
:103880007093D00C8093D10C9093D20C6093D30C96
:103890007093D40C8093D50C9093D60C84E196E170
:1038A0009093D90C8093D80C0093D70CD160DD7F16
:1038B000DB7FD093DA0CC150CB3008F063CEEC2F15
:1038C000F0E08827E959F34E8F4F0C944031C21C29
:1038D000CE1CD81C461D461D491D4C1DB71D0F1E74
:1038E000C21A491DDD2309F491CF84E89EE00E94AD
:1038F0006C0F89CF1092DA0C20E030E040E85FE3F3
:10390000C501B4010E945C31A70196010E942833D1
:1039100087FD35C0D091CE0CD0FDCDCFD2FDCBCF21
:103920000091B80B1091B90BF801EE0FFF1FEE0FCD
:10393000FF1FE855F44F60817181828193810E945D
:1039400047326093C30C7093C40C8093C50C909362
:10395000C60C6093C70C7093C80C8093C90C9093ED
:10396000CA0C8EEE95E19093CD0C8093CC0C009315
:10397000CB0CD160DD7FDB7FD093CE0C9CCF10923F
:10398000CE0C99CF80E20E942704892B09F0FACD52
:1039900060E088E697E00E94AC16F4CD84E40E94D3
:1039A0002704892B09F0EECD60E086E797E0F3CF9E
:1039B0000E94800D9091FA08882339F091609093CD
:1039C000FA0860E084E897E0E6CF9E7F9093FA08DB
:1039D0008091FE0A9091FF0A029709F4D3CD2091BD
:1039E000020B3091030B8091040B9091050B28176B
:1039F0003907D8F181E090E09093FF0A8093FE0AA6
:103A00008091FE0A9091FF0A0197A1F58091FA0832
:103A10008D7F8093FA0880913E0C80FDB3CD82FDAE
:103A2000B1CD40919C0B50919D0B70E060E04093B4
:103A3000330C5093340C6093350C7093360C4093D8
:103A4000370C5093380C6093390C70933A0C23E682
:103A500037E130933D0C20933C0C10923B0C81607D
:103A60008D7F8B7F80933E0C8DCD1092FF0A10923C
:103A7000FE0AC6CF8091FA0881FD84CD82608093D2
:103A8000FA088AEA97E00E9440107CCD0E94F91063
:103A900079CD0E94851076CD0E94800D882359F043
:103AA00060E08BEA95E00E94AC168091FB08846090
:103AB0008093FB0867CD8091060B9091070B0297CE
:103AC00009F460CD20910A0B30910B0B80910C0B07
:103AD00090910D0B28173907C8F181E090E0909381
:103AE000070B8093060B8091060B9091070B0197B3
:103AF00091F58091FA08877F8093FA0880914A0CAB
:103B000080FD40CD82FD3ECD48EE53E060E070E0A8
:103B100040933F0C5093400C6093410C7093420CC7
:103B20004093430C5093440C6093450C7093460CA7
:103B30002DEE39E03093490C2093480C1092470C3D
:103B400081608D7F8B7F80934A0C1CCD1092070B78
:103B50001092060BC8CF10924A0C8091FA0883FD90
:103B600011CD88608093FA088EEB97E08CCF80E2CD
:103B70000E942704892B59F460E082ED97E00E94AF
:103B8000AC168091FA0880688093FA08FBCC80918B
:103B9000130B0E94E2059093150B8093140B209158
:103BA000160B3091170B2817390778F58091FA0812
:103BB0008B7F8093FA088091560C80FDE3CC82FDC8
:103BC000E1CC4091A00B5091A10B70E060E04093DC
:103BD0004B0C50934C0C60934D0C70934E0C4093D7
:103BE0004F0C5093500C6093510C7093520C2DE677
:103BF00037E13093550C2093540C1092530C816094
:103C00008D7F8B7F8093560CBDCC8091FA0882FD0E
:103C1000B9CC84608093FA0887EF97E034CF0E9494
:103C2000800D882309F4AECC8091F20C80FDAACCE3
:103C300082FDA8CC80E29EE00E94441588EF9DE0C2
:103C40000E94EA0E84EE9DE00E94EA0E8DE00E9442
:103C5000C40F80E395E7A0E0B0E08093E70C909379
:103C6000E80CA093E90CB093EA0C8093EB0C9093D2
:103C7000EC0CA093ED0CB093EE0C83ED98E19093D7
:103C8000F10C8093F00C82E08093EF0C8091F20CA9
:103C900081608D7F8B7F8093F20C83E895E0F3CE7B
:103CA000FF920F931F93CF93DF93CDB7DEB7C45628
:103CB000D1090FB6F894DEBF0FBECDBFFC01F18075
:103CC0004F2D50E08E010F5F1F4FBC01C8010E94B5
:103CD0009F338091C6008091C6008091C1008F778C
:103CE0008093C1008091C10088608093C100F80179
:103CF0008E2F801B8F1588F481918093C600809150
:103D0000C00086FFFCCF8091C00080648093C0001B
:103D10008091C6008091C600EBCFCC59DF4F0FB623
:103D2000F894DEBF0FBECDBFDF91CF911F910F91F1
:103D3000FF900C94990A4F925F926F927F928F92AC
:103D40009F92AF92BF92CF92DF92EF92FF920F932A
:103D50001F93CF93DF93CDB7DEB7C95AD1400FB6CB
:103D6000F894DEBF0FBECDBF84E6E9E8F8E0DE01DF
:103D7000AB59BF4F01900D928A95E1F7A896EFAD30
:103D8000A897E550E33308F057C0F0E08827E453E4
:103D9000F14E8F4F0C944031A1241C1FA01F1C1FFB
:103DA0001C1F1C1F1C1F1C1F1C1F1C1F1C1F1C1F3B
:103DB0001C1F481F6A1F8B1F951FA91F341F1A2025
:103DC0005E208D20D8201C1F1C1F0D216521AD21D8
:103DD000FF1EDC2109227F222F22D8231C1F1C1F3B
:103DE0001C1F0B241C1F1C1F1C1F1C1F1C1F1C1F07
:103DF000AD24BD24C92425255D25C126AF1FC09053
:103E0000FA08D090FB08E090FC08F090FD0861E211
:103E1000CE0101960E942D0ACF82D886E986FA86C5
:103E20008BE08A83CE0101960E94160ACE0101968C
:103E30000E94501E10928408C755DE4F0FB6F894AA
:103E4000DEBF0FBECDBFDF91CF911F910F91FF90CD
:103E5000EF90DF90CF90BF90AF909F908F907F902A
:103E60006F905F904F9008951092FA081092FB089F
:103E70001092FC081092FD0861E2CE0101960E94AA
:103E80002D0A1F82188619861A868BE08A83C0C184
:103E9000CE0187539F4F0E94500488E0FE01E753F4
:103EA000FF4FDE01A456BE4F01900D928A95E1F7B7
:103EB00062E1CE0101960E942D0A8FE08A8388E09C
:103EC000FE01E456FE4FDE01179601900D928A9591
:103ED000E1F79EC11092FA081092FB081092FC08BC
:103EE0001092FD08A9968FADA9971092C00D10925F
:103EF000BF0D8093C10DAA969FADAA97992359F043
:103F00008B3049F40E94B502882329F00E948E026A
:103F100080E00E94B5141091C10D64E1CE010196BC
:103F20000E942D0A1F8388E0B1CF8091C10D0E94AD
:103F3000B502882329F00E948E0280E00E94B51409
:103F4000CE0101960E948E0ACE0101960E94501E5B
:103F500073CF60E08DE098E00E94AC16F1CF8AE16B
:103F600098E00E94401081E08093BB0B81E090E0DC
:103F70009093950B8093940B1092220F1092C10E88
:103F80001092C00D1092BF0D1092A60D1092B20D9E
:103F90001092BE0D88EF9DE00E9444158CE09EE0DB
:103FA0000E94441580E29EE00E94441584EC9DE04E
:103FB0000E94790F86EC9DE00E94790F88EC9DE0CD
:103FC0000E94790F8AEC9DE00E94790F8CEC9DE0B5
:103FD0000E94790F8EEC9DE00E94790F86E89EE0AA
:103FE0000E946C0F88E89EE00E946C0F8AE89EE0B9
:103FF0000E949F0A8091960B81608B7F8093960B25
:1040000040916E0B50916F0B6091700B7091710B22
:104010004093260B5093270B6093280B7093290B2A
:1040200025E030E084E298E00E94F5138AE10E94E6
:10403000C40F86CFE5E6F0E0EC0FFD1F3396AEEF40
:10404000BAE085E690E08C0F9D1F4B96419151910F
:104050006191719198964D935D936D937C939B972D
:1040600053968E179F0791F788E1E5E6F0E0EC0F95
:10407000FD1F3396DE01A750BF4F01900D928A9528
:10408000E1F768E1CE0101960E942D0A8FE18A8353
:1040900088E1FE01E750FF4FDE01179601900D9277
:1040A0008A95E1F7CE0101960E94160ACE0101968B
:1040B0000E94501E88E10E94F509BECEAEEFBAE024
:1040C000CE0187539F4F20E73BE0182F092F98968A
:1040D0004D915D916D917C919B97FC014193519322
:1040E00061937193CF0153962A173B0781F788E1BB
:1040F000E12FF02FDE01AF51BF4F01900D928A9555
:10410000E1F769E1CE0101960E942D0A8FE18A83D1
:1041100088E1FE01EF51FF4FD6CEFE01EB59FF4F74
:104120009F012A5F3F4F41E050E083819091D50D80
:10413000891709F47AC69091E90DA4EEBDE08917BC
:1041400009F475C632962E173F0779F7AE968FADF4
:10415000AE97AA969FADAA979093420F8093430F74
:1041600086E0E5E6F0E0EC0FFD1F3396DE01AC558E
:10417000BE4F01900D928A95E1F76AE1CE0101965A
:104180000E942D0A8DE08A8386E0FE01EC55FE4FE9
:10419000DE01179601900D928A95E1F7CE01019606
:1041A0000E94160ACE0101960E94501E8AE183CF1A
:1041B0001091420F0091430F612F70E090E080E07A
:1041C0000E947632AB01BC0120E130E08DE298E044
:1041D0000E94F513602F70E090E080E00E9476323C
:1041E000AB01BC0120E130E083E598E00E94F513CB
:1041F0006BE1CE0101960E942D0A8DE08A8381E059
:104200008F83188782E089871A8784E08B870C87E1
:10421000CE0101960E94160A97CEAA968EAD9FAD4A
:10422000AA979093050B8093040BAC968EAD9FAD2F
:10423000AC9790930D0B80930C0BAE968EAD9FAD0B
:10424000AE979093120B8093110BE0968EAD9FADBD
:10425000E0979093170B8093160BE2968EAD9FAD6F
:10426000E29790931C0B80931B0BE4968EAD9FAD51
:10427000E4979093210B8093200B8EE0E5E6F0E02D
:10428000EC0FFD1F3396DE01A45ABE4F01900D9234
:104290008A95E1F76EE1CE0101960E942D0A85E133
:1042A0008A838EE0FE01E45AFE4FDE0117960190EC
:1042B0000D928A95E1F7CE0101960E94160ACE0171
:1042C00001960E94501E8EE1F6CEE0910C0BF0910B
:1042D0000D0B6091110B7091120B4091160B5091C8
:1042E000170B20911B0B30911C0B8091200B909190
:1042F000210BA091040BB091050BC25BDE4FB9837B
:10430000A883CE54D140C05BDE4FF983E883C0550B
:10431000D140CE5ADE4F79836883C255D140CC5A02
:10432000DE4F59834883C455D140CA5ADE4F398382
:104330002883C655D140C85ADE4F99838883C85513
:10434000D1406FE1CE0101960E942D0A85E18A835A
:104350008EE0FE01E25BFE4FB6CDAEEFBAE0CE01DD
:104360008F519F4F20E73BE0182F092F94964D91D6
:104370005D916D917C919797FC014193519361936D
:104380007193CF0153962A173B0781F788E1E12FFC
:10439000F02FDE01A753BF4F01900D928A95E1F7F0
:1043A00060E2CE0101960E942D0A8FE18A8388E1A6
:1043B000FE01E753FF4F87CD05E610E00C0F1D1FF0
:1043C0000D5F1F4FC8010E941C0380E1F801DE0150
:1043D000AF5DBE4F01900D928A95E1F762E2CE018A
:1043E00001960E942D0A80E1FE01EF5DFE4FDE0185
:1043F000179601900D928A95E1F787E18A83CE01A5
:1044000001960E94160ACE0101960E94501E82E279
:1044100052CE80E1E8E9FBE0DE01A753BF4F0190F7
:104420000D928A95E1F780E1FE01E753FF4FDE012F
:10443000AF5EBE4F01900D928A95E1F763E2CE0127
:1044400001960E942D0A80E1FE01EF5EFE4FDE0123
:10445000179601900D928A95E1F787E117CD80902C
:10446000020B9090030BA0900A0BB0900B0B809165
:104470000E0B0E94E2056C018091130B0E94E20575
:104480007C018091180B0E94E2058C0180911D0B2C
:104490000E94E205C05CDE4F99828882C054D14000
:1044A000CE5BDE4FB982A882C254D140CC5BDE4FD6
:1044B000D982C882C454D140CA5BDE4FF982E882F7
:1044C000C654D140C85BDE4F19830883C854D1401D
:1044D000C65BDE4F99838883CA54D14065E2CE0122
:1044E00001960E942D0A8EE0FE01E05CFE4FDE0187
:1044F000179601900D928A95E1F785E1C7CCA996B0
:10450000EFADA997EF77E93108F029C0F0E08827EF
:10451000E357FD4D8F4F0C944031A622D722E22263
:10452000E222E222ED22F82203230E231D232A2376
:104530003623AF224F23AF22642371237C238723AA
:1045400092239D23A823B323C223CD23A9968FAD05
:10455000A99787FF27C084EC9DE00E94790F809186
:10456000D20D9091E60D892B8093220FCE018753B7
:104570009F4F0E94500488E0FE01E753FF4FDE0189
:10458000AC56BE4F01900D928A95E1F764E2CE01E0
:1045900001960E942D0A8FE08A8388E0FE01EC5686
:1045A000FE4F91CC84EC9DE00E947F0FD8CFA9965E
:1045B0008FADA99787FF03C086EC9DE0CECF86EC38
:1045C0009DE0F2CFA9968FADA99787FF03C088EC35
:1045D0009DE0C3CF88EC9DE0E7CFA9968FADA9976A
:1045E00087FF03C08AEC9DE0B8CF8AEC9DE0DCCF6A
:1045F000A9968FADA99787FF03C08CEC9DE0ADCF46
:104600008CEC9DE0D1CFA9968FADA99787FF03C011
:104610008EEC9DE0A2CF8EEC9DE0C6CFA9964FAD6B
:10462000A997441F4427441FAA966FADAA976770A5
:104630008AE89EE00E94AA0C92CFA9964FADA99756
:10464000441F4427441FAA966FADAA97677086ED52
:104650009EE0F0CFA9964FADA997441F4427441F71
:10466000AA966FADAA9767706C5FF1CFA9968FADD0
:10467000A99787FF05C080ED9DE00E9444156FCF8C
:1046800080ED9DE00E94EA0E8091D30D8111009192
:10469000D00D602F80ED9DE00E94AA0D60CFA996FD
:1046A0008FADA99787FF03C084EE9DE0E6CF84EE2F
:1046B0009DE00E94EA0E8091E70D81111091E40DBA
:1046C000612F84EE9DE0E8CFA9968FADA99787FF73
:1046D00003C088EF9DE0D1CF88EF9DE00E94EA0EF5
:1046E0003ECFA9968FADA99787FF03C08CE09EE0CF
:1046F000C4CF8CE09EE0F2CFA9968FADA99787FF3B
:1047000003C080E29EE0B9CF80E29EE0E7CFA996A9
:104710008FADA99787FF03C084E39EE0AECF84E30B
:104720009EE0DCCFA9968FADA99787FF03C088E4F0
:104730009EE0A3CF88E49EE0D1CFA9968FADA99744
:1047400087FF03C08CE59EE098CF8CE59EE0C6CF46
:10475000A9968FADA99787FF03C080E79EE08DCF14
:1047600080E79EE0BBCFA9968FADA99787FF05C0D4
:1047700084E89EE00E946C0FF2CE84E89EE00E94E6
:10478000720FEDCEA9968FADA99787FF03C086E87B
:104790009EE0F0CF86E89EE0F2CFA9968FADA99774
:1047A00087FF03C088E89EE0E5CF88E89EE0E7CF7A
:1047B00081E20E9427044C0180E20E9427045C01F0
:1047C000F090CC0B0091CD0B85E40E9427046C0186
:1047D00084E40E9427049C0191E0892809F090E07C
:1047E00010E090FB10F991E0AB2809F090E090FB0D
:1047F00011F991E0CD2809F090E090FB12F991E0D9
:10480000232B09F090E090FB13F9F0FA14F900FB68
:1048100015F966E283CB8BE0E5E6F0E0EC0FFD1FD7
:104820003396DE01AA58BE4F01900D928A95E1F7AA
:10483000E3968FADE397C058DE4F8883C058D140D0
:104840009BE0FE01EA58FE4FA5E2BFE001900D9209
:104850009A95E1F74091280F242F30E03093D10D45
:104860002093D00D30912A0F632F70E07093E50DE7
:104870006093E40D9FE0E3E3FFE0DE01AF5CBE4F39
:1048800001900D929A95E1F72091250F9091270FB5
:10489000CD5CDE4F4883C353D140CC5CDE4F3883C0
:1048A000C453D140CB5CDE4F2883C553D140CA5C92
:1048B000DE4F9883C653D1403FE0FE01EF5CFE4FD0
:1048C000A3E3BFE001900D923A95E1F72093420FE8
:1048D0009093430F10924A0F91E09093300F8823EA
:1048E00041F080ED9DE00E94EA0E84EE9DE00E9482
:1048F000EA0E8BE0E5E6F0E0EC0FFD1F3396DE01FB
:10490000AF57BE4F01900D928A95E1F76AE2CE0152
:1049100001960E942D0A8BE0FE01EF57FE4FDE014B
:10492000179601900D928A95E1F782E18A83CE0174
:1049300001960E94160ACE0101960E94501E8AE23C
:10494000BACB1092FA081092FB081092FC08109251
:10495000FD0861E089E798E0FFCA61E3CE010196B6
:104960000E942D0A8BE08A8387E090E0A3E0B1E00B
:104970008F839887A987BA874BCC62E3CE010196D3
:104980000E942D0A8BE08A8389EE94E3A0E0B0E0D8
:10499000EFCFE4966CAD7DAD8EAD9FADE4970E94F8
:1049A00076326B017C01E0966CAD7DAD8EAD9FAD36
:1049B000E0970E9476324B015C01AC966CAD7DAD08
:1049C0008EAD9FADAC970E9476326093A80B70932A
:1049D000A90B8093AA0B9093AB0B8092AC0B909297
:1049E000AD0BA092AE0BB092AF0BC092B00BD092B9
:1049F000B10BE092B20BF092B30B8CE0E5E6F0E085
:104A0000EC0FFD1F3396DE01A659BE4F01900D92AB
:104A10008A95E1F763E3CE0101960E942D0A83E1B6
:104A20008A838CE0FE01E659FE4FDE011796019065
:104A30000D928A95E1F7CE0101960E94160ACE01E9
:104A400001960E94501E83E336CB6091B00B7091AB
:104A5000B10B8091B20B9091B30B0E9447326B0166
:104A60007C016091AC0B7091AD0B8091AE0B90917D
:104A7000AF0B0E9447324B015C016091A80B709113
:104A8000A90B8091AA0B9091AB0B0E9447322B018E
:104A90003C0164E3CE0101960E942D0A83E18A83E2
:104AA0004F82588669867A868B869C86AD86BE86BE
:104AB000CF86D88AE98AFA8AABCBA9968FADA99717
:104AC0008983AA968FADAA978A83AB968FADAB9751
:104AD0008B83AC966FADAC976C83AD968FADAD9775
:104AE0008D83AE968FADAE978E83AF968FADAF9719
:104AF0008F83E0968FADE0978887617085E00E9494
:104B000078056C816695617086E00E9478056C81FD
:104B100062FB662760F984E00E9478056C8163FB84
:104B2000662760F988E00E9478056981617085E3F5
:104B30000E94780569816695617084E30E9478051A
:104B40006981629561708FE10E947805698165FBDA
:104B5000662760F98CE10E947805698166FB66270B
:104B600060F98BE10E947805698167FB662760F92F
:104B70008AE10E9478056C816295617089E10E94EA
:104B800078056C8165FB662760F988E10E947805ED
:104B90006C8166FB662760F987E10E9478056C816D
:104BA00067FB662760F98EE10E9478056D81617070
:104BB0008DE10E9478056D816695617086E10E94A5
:104BC00078056D8162FB662760F981E10E947805B6
:104BD0006D8163FB662760F98FE00E9478056D8127
:104BE000629561708CE00E9478056D8165FB662797
:104BF00060F98EE00E9478056B81617085E20E9409
:104C000078056B816695617084E20E9478056B81FE
:104C100062FB662760F987E20E9478056B8163FB7F
:104C2000662760F986E20E9478056B816295617063
:104C300089E20E9478056B8165FB662760F988E24E
:104C40000E9478056B8166FB662760F98BE20E9403
:104C500078056B8167FB662760F98AE20E94780518
:104C60006A8161708CE20E9478056A816695617044
:104C70008EE20E9478056A8162FB662760F98DE208
:104C80000E9478056A8163FB662760F98FE20E94C3
:104C900078056A816295617081E30E9478056A8176
:104CA00065FB662760F980E30E9478056A8166FBF0
:104CB000662760F983E30E9478056A8167FB6627AF
:104CC00060F982E30E9478056D8166FB662760F9D2
:104CD00087E00E9478056D8167FB662760F989E0AF
:104CE0000E9478056E8161708AE00E9478056E816D
:104CF000669561708BE00E947805C753DF4F18827C
:104D0000C95CD040C653DF4F1882CA5CD040C5533F
:104D1000DF4F1882CB5CD040C453DF4F1882CC5C8D
:104D2000D040C353DF4F1882CD5CD040C253DF4F19
:104D30001882CE5CD040C153DF4F1882CF5CD04088
:104D4000C053DF4F1882C05DD040CE0187539F4FC4
:104D50000E94500488E0FE01E753FF4FDE01A45794
:104D6000BE4F01900D928A95E1F765E3CE01019661
:104D70000E942D0A8FE08A8388E0FE01E457FE4FEF
:104D8000A2C8CE0101960E948E0ACE0101960E9411
:104D9000501E1092020C6FEC7AE082E29BE00E94BF
:104DA0000B136AEA7AE085E39BE00E940B1365E847
:104DB0007AE088E49BE00E940B1360E67AE08BE5E2
:104DC0009BE00E940B136BE37AE08EE69BE00E946F
:104DD0000B1366E17AE081E89BE00E940B1380915F
:104DE000A60B9091A70BB0E0A0E08093F70B9093F7
:104DF000F80BA093F90BB093FA0B8093FB0B9093F5
:104E0000FC0BA093FD0BB093FE0B88EE92E1909308
:104E1000010C8093000C1092FF0B8091020C8360B8
:104E20008B7F8093020C0C941C1FA0EDBDE01396A9
:104E30009C911397992309F485C915969C91159710
:104E4000891380C91B965C934E931A97848190E0D6
:104E50008D939C9377C90C949B1EE9E8F8E084E657
:104E6000DF011D928A95E9F71092F7080C94990AD0
:104E70001F920F920FB60F9211242F933F938F938F
:104E80009F93AF93BF938091EF089091F008A0910A
:104E9000F108B091F2083091EE0823E0230F2D378E
:104EA00058F50196A11DB11D2093EE088093EF08DF
:104EB0009093F008A093F108B093F2088091F30862
:104EC0009091F408A091F508B091F6080196A11D03
:104ED000B11D8093F3089093F408A093F508B09364
:104EE000F608BF91AF919F918F913F912F910F90B5
:104EF0000FBE0F901F90189526E8230F0296A11D54
:104F0000B11DD2CF1F920F920FB60F9211240BB684
:104F10000F922F933F934F935F936F937F938F9352
:104F20009F93AF93BF93EF93FF93E0911E02F09195
:104F30001F021995FF91EF91BF91AF919F918F91B2
:104F40007F916F915F914F913F912F910F900BBE89
:104F50000F900FBE0F901F9018951F920F920FB6D3
:104F60000F9211240BB60F922F933F934F935F93A1
:104F70006F937F938F939F93AF93BF93EF93FF9321
:104F8000E0911C02F0911D021995FF91EF91BF91E4
:104F9000AF919F918F917F916F915F914F913F91D1
:104FA0002F910F900BBE0F900FBE0F901F90189572
:104FB0001F920F920FB60F9211240BB60F922F93E0
:104FC0003F934F935F936F937F938F939F93AF9391
:104FD000BF93EF93FF93E0911202F09113021995A2
:104FE000FF91EF91BF91AF919F918F917F916F91C1
:104FF0005F914F913F912F910F900BBE0F900FBE7D
:105000000F901F9018951F920F920FB60F921124B8
:105010000BB60F922F933F934F935F936F937F93B2
:105020008F939F93AF93BF93EF93FF93E091100201
:10503000F09111021995FF91EF91BF91AF919F915E
:105040008F917F916F915F914F913F912F910F9031
:105050000BBE0F900FBE0F901F9018951F920F92CE
:105060000FB60F9211240BB60F922F933F934F93CD
:105070005F936F937F938F939F93AF93BF93EF93C0
:10508000FF93E0911A02F0911B021995FF91EF91A5
:10509000BF91AF919F918F917F916F915F914F9150
:1050A0003F912F910F900BBE0F900FBE0F901F904E
:1050B00018951F920F920FB60F9211240BB60F92F4
:1050C0002F933F934F935F936F937F938F939F9310
:1050D000AF93BF93EF93FF93E0911802F091190201
:1050E0001995FF91EF91BF91AF919F918F917F9112
:1050F0006F915F914F913F912F910F900BBE0F9049
:105100000FBE0F901F9018951F920F920FB60F921F
:1051100011240BB60F922F933F934F935F936F938E
:105120007F938F939F93AF93BF93EF93FF93E09100
:105130001602F09117021995FF91EF91BF91AF916F
:105140009F918F917F916F915F914F913F912F919F
:105150000F900BBE0F900FBE0F901F9018951F92CF
:105160000F920FB60F9211240BB60F922F933F930D
:105170004F935F936F937F938F939F93AF93BF935F
:10518000EF93FF93E0911402F09115021995FF91AE
:10519000EF91BF91AF919F918F917F916F915F91AF
:1051A0004F913F912F910F900BBE0F900FBE0F901C
:1051B0001F9018951F920F920FB60F9211240BB6E5
:1051C0000F922F933F934F935F936F937F938F93A0
:1051D0009F93AF93BF93EF93FF938EEF98E00E945E
:1051E000DC06FF91EF91BF91AF919F918F917F91DD
:1051F0006F915F914F913F912F910F900BBE0F9048
:105200000FBE0F901F9018951F920F920FB60F921E
:1052100011240BB60F922F938F939F93EF93FF93CD
:10522000E0910E09F0910F098081E0911409F0914D
:10523000150982FD1DC09081809117098F5F8F73C2
:1052400020911809821741F0E0911709F0E0E2502F
:10525000F74F958F80931709FF91EF919F918F9151
:105260002F910F900BBE0F900FBE0F901F901895AF
:105270008081F2CF1F920F920FB60F9211240BB6BE
:105280000F922F933F934F935F936F937F938F93DF
:105290009F93AF93BF93CF93EF93FF938091C10000
:1052A00080688093C1008091C10088608093C100B4
:1052B000C091C60080910E0C8E7F80930E0C809161
:1052C000F708843658F0E9E8F8E084E6DF011D923B
:1052D0008A95E9F71092F7080E94990AE091F70879
:1052E000E33020F080918A088093F90881E08E0FE6
:1052F0008093F708F0E0E757F74FC0839091F908E3
:1053000089136BC090918908913009F05AC040EA26
:105310005FE060E070E040930F0C5093100C6093DE
:10532000110C7093120C4093130C5093140C609357
:10533000150C7093160C2DE237E23093190C209364
:10534000180C1092170C90911A0C93609B7F9093FD
:105350001A0C50E040E090E0BC0161507109252F2B
:1053600030E0261737073CF42757374FF9012081E3
:10537000420F5F5FF4CF8857974FDC018C9160E05C
:1053800048131CC08BE297E20E947F031092F7083B
:105390000E94990AFF91EF91CF91BF91AF919F9198
:1053A0008F917F916F915F914F913F912F910F90CE
:1053B0000BBE0F900FBE0F901F90189580E79AE0DC
:1053C000E3CFE9E8F8E084E6DF011D928A95E9F78A
:1053D0001092F7080E94990AD9CF8AE090E0A0E0E5
:1053E000B0E08093030C9093040CA093050CB09351
:1053F000060C8093070C9093080CA093090CB093B3
:105400000A0C8DE297E290930D0C80930C0C109295
:105410000B0C80910E0C81608D7F8B7F80930E0C26
:10542000B7CF1F920F920FB60F9211240BB60F92A7
:10543000FF920F931F932F933F934F935F936F931D
:105440007F938F939F93AF93BF93CF93DF93EF930C
:10545000FF93C7EFDBE010E000E08CE0F82EF09E59
:10546000F001F19EF00D1124EE5FF34F808180FF7B
:1054700023C08C819D81AE81BF810197A109B109B3
:105480008C839D83AE83BF83892B8A2B8B2BA1F4C6
:1054900080818460808381FF2DC088819981AA8169
:1054A000BB818C839D83AE83BF8389859A8500975A
:1054B00019F068850E947F030F5F1F4F2C960632FC
:1054C000110569F6FF91EF91DF91CF91BF91AF91F7
:1054D0009F918F917F916F915F914F913F912F910C
:1054E0001F910F91FF900F900BBE0F900FBE0F906A
:1054F0001F9018958E7F8083D8CF1F920F920FB682
:105500000F9211240BB60F922F933F934F935F93FB
:105510006F937F938F939F93AF93BF93EF93FF937B
:10552000F0E0E0E01995FF91EF91BF91AF919F916D
:105530008F917F916F915F914F913F912F910F903C
:105540000BBE0F900FBE0F901F9018951F920F92D9
:105550000FB60F9211240BB60F922F933F934F93D8
:105560005F936F937F938F939F93AF93BF93EF93CB
:10557000FF93F0E0E0E01995FF91EF91BF91AF91BB
:105580009F918F917F916F915F914F913F912F915B
:105590000F900BBE0F900FBE0F901F901895FC013F
:1055A00017821086108289E0838381E0848385835B
:1055B00086831182168A158A8FEF838B148A7287ED
:1055C000618708951F93CF93DF93EC01162F60E05E
:1055D000812F0E94A605612F70E0FB01E852FC4F6D
:1055E000E491E883FB01EE56FC4FE491F0E0EE0F0E
:1055F000FF1FE858FC4F859194919A8389831B86FD
:105600001D861C861A86198618861F821E821D8298
:105610001C821B82DF91CF911F910895CF93DF935E
:10562000EC01862F698361E00E94A605CE01DF911F
:10563000CF910C94790FCF93DF93EC01862F1982D1
:1056400018824B836C832D831E829FEF998721E004
:1056500030E03B872A872FEF30E03B8B2A8B4111CC
:1056600003C061E00E94A605CE01DF91CF910C94AA
:1056700044157F928F929F92AF92BF92CF92DF920A
:10568000EF92FF920F931F93CF93DF93CDB7DEB7C7
:105690002F970FB6F894DEBF0FBECDBF1092010951
:1056A0001092000988EE93E0A0E0B0E08093020938
:1056B00090930309A0930409B09305098AE392E04B
:1056C0009093FF088093FE0885ED90E090930B097E
:1056D00080930A0984ED90E090930D0980930C0962
:1056E00080ED90E090930F0980930E0981ED90E09A
:1056F000909311098093100982ED90E09093130923
:105700008093120986ED90E0909315098093140917
:1057100010921709109218091092190910921A097B
:10572000E7EFFBE08FEB9DE0108211821282138283
:1057300014821582168217821086128611861386AD
:105740003C968E179F0781F71092130A1092140A45
:105750001092150AF89480917A00806880937A00FC
:105760007894F89480917A008E7F80937A0080916B
:105770007A00866080937A007894F89480917C0017
:105780008F7780937C0080917C00806480937C0084
:1057900078946FE386EE9AE00E94E22A66EE7AE061
:1057A0008FEC9AE00E94CF2A6EE381EC9AE00E948F
:1057B000E22A61EC7AE08AEA9AE00E94CF2A61E468
:1057C0008CE99AE00E94E22A6CE97AE085E89AE0A6
:1057D0000E94CF2A60E487E79AE00E94E22A67E706
:1057E0007AE080E69AE00E94CF2A63E482E59AE0BC
:1057F0000E94E22A62E57AE08BE39AE00E94CF2AD7
:1058000062E48DE29AE00E94E22A6DE27AE086E1AB
:105810009AE00E94CF2A82E090E09093FF0A809362
:10582000FE0A24EF3AE03093010B2093000B909393
:10583000070B8093060B89EF9AE09093090B8093F6
:10584000080B88E380930E0B1092100B10920F0B35
:1058500084E190E09093120B8093110B2BE3209343
:10586000130B1092150B1092140B9093170B80933F
:10587000160B2AE32093180B10921A0B1092190B97
:1058800090931C0B80931B0B2DE320931D0B109208
:105890001F0B10921E0B9093210B8093200BE2E2C2
:1058A000FBE084E99BE01082118212821382148251
:1058B00015821682178273968E179F07A1F715E03F
:1058C0001093BA0B1092BB0B1092BC0B1092BD0B35
:1058D0001092BF0B1092BE0B1092C40B1092C50B0E
:1058E0001092C70B1092C60B1092CC0B1092CD0BDE
:1058F0001092CE0B8AE090E09093C10B8093C00B86
:105900009093C30B8093C20B8FE090E09093C90BF0
:105910008093C80B9093CB0B8093CA0B80E180934C
:10592000960B8FEC9BE09093F00B8093EF0B80E253
:105930008093F10B1092F20B1092F30B1092F40B78
:105940001092F60B1092F50B1092C00D1092BF0D35
:105950001092C10D1092C30D1092C20D65E384EC3C
:105960009DE00E940E2B64E386EC9DE00E940E2BCE
:105970006FE188EC9DE00E940E2B6CE18AEC9DE0CB
:105980000E940E2B6BE18CEC9DE00E940E2B6AE1D5
:105990008EEC9DE00E940E2B21E041E065E080ED61
:1059A0009DE00E941B2B24E041E064E084EE9DE03A
:1059B0000E941B2B23E040E069E188EF9DE00E94FC
:1059C0001B2B26E040E068E18CE09EE00E941B2B50
:1059D00027E040E067E180E29EE00E941B2B28E088
:1059E00040E06EE184E39EE00E941B2B29E040E052
:1059F0006DE188E49EE00E941B2B2AE040E066E116
:105A00008CE59EE00E941B2B2BE040E061E180E7EB
:105A10009EE00E941B2B8FE0782E7092840E1092D5
:105A2000850E61E08FE00E94A60584E89EE00E945A
:105A30006C0F8CE08093860E1092870E61E00E94BE
:105A4000A60586E89EE00E946C0F8EE08093880E8B
:105A50001092890E61E00E94A60588E89EE00E94EF
:105A60006C0FECE4F2E0F0938B0EE0938A0E86E587
:105A700092E090938D0E80938C0E08E000938E0E32
:105A800083E69CE09093900E80938F0E8AEA97E1D4
:105A90009093920E8093910E1092930E1092950E09
:105AA0001092940E1092970E1092960E1092990EDC
:105AB0001092980E1092A60E1092A70E1092A80E99
:105AC0001092A90E1092B20E1092B30E1092B50E53
:105AD0001092B40E1092B90E1092B80E1092BA0E27
