:100000000C94E3030C940A440C94DF430C94B44323
:100010000C9489430C945E430C9433430C94084332
:100020000C94DD420C9414040C9414040C941404E9
:100030000C9414040C9414040C9414040C941404E0
:100040000C9414040C9414040C9414040C941404D0
:100050000C9414040C9414040C9414040C94934203
:100060000C9414040C94B9450C9414040C941404CA
:100070000C94FC460C9425470C9414040C94140422
:100080000C9414040C9414040C9414040C94140490
:100090000C9414040C9414040C9414040C949544BF
:1000A0000C9414040C9414040C9414040C94140470
:1000B0000C9414040C9414040C9414040C949046A2
:1000C0000C9414040C9414040C9414040C945F44C5
:1000D0000C9435440C9414040C9414040C941404DF
:1000E0000C9414040C94F3120C94D0410C947133BE
:1000F0000C94CD190C94520F0C94A40D0C94C4269E
:100100000C94263F0C94B53E0C9457140C94D44197
:100110000C94A32C0C9428230C94ED130C94181419
:100120000C94F2130C9495110C948A0A0C940B28DD
:100130000C94D41A0C94A61F0C942F130C945D11DC
:100140000C9459110C94AD0A0C9475140C94C50AB6
:100150000C94C22E0C94F83E0C9410140C9470174E
:100160000C940B0A0C94851F0C94432A0C946B334B
:100170000C9461140C944D140C94A3090C94D84164
:100180000C94D5250C944F2A0C9491270C94201490
:100190000C9467330C949A300C9437270C94841485
:1001A0000C9442260C948F1D0C9408270C94730D0C
:1001B0000C94360F0C94B70A0C94990A0C943414CE
:1001C0000C94080F0C9469330C94D6280C94C40A30
:1001D0000C94BB0A0C94A3470C94BA190C949D413F
:1001E0000C948D3E0C9406310C94091E0C949F0ABD
:1001F0000C946B260C949E250C94FB300C94BE3E04
:100200000C943E040C94EA3E0C94840A0C94272A25
:100210000C942A140C94930D0C9444090C943E14E1
:100220000C94933E0C948B0D0C94C90A0C946B1493
:100230000C9467090C94AA3E0C943A290C94E92575
:100240000C9406140C94271B0C946C2B0C94A01883
:100250000C9442320C94651F0C948C300C94332A0D
:100260000C94830D0C9467280C94AB410C947F1470
:100270000C94170F0C94F1220C9483280C94410FCA
:100280000C9436190C948E0A0C94A30D0C947509D9
:100290000C94FC2A0C94A30A0C94C1300C94F03EEC
:1002A0000C9453090C94CC290C94960A0C949D112F
:1002B0000C944D260C94FF290C94BB250C940B2F09
:1002C0000C942A1D0C94FC130C94A50D0C94E413AF
:1002D0000C94D02D0C94B6410C94CA2F0C940B2680
:1002E0000C941B120C94863E0C94B10A0C94F62CC0
:1002F0000C946A080C946D330C94A13E0C94A21ECD
:100300000C947C310C9456260C944E420C942B3F4A
:100310000C9454040C946F330C949B0D0C94A327F1
:100320000C9465330C94BF0A0C94920A0C94A90A9D
:100330000C94A60D0C94B0280C94382620E28692DA
:100340000020E286980020E286970020E29AA00032
:10035000202074616E3A200020206970436F756E12
:10036000743A200020206970436F756E743A200043
:1003700020207076506B436F756E743A20002020F9
:100380007076506B3A2000202070763A20002020B2
:100390006F75743A2000207365633A200020205462
:1003A000643A200020204B643A2000202054693A0F
:1003B000200020204B693A200020204B703A20007A
:1003C0004D697865645F504900436F68656E436F9F
:1003D0006F6E5F5049004E6F4F76657273686F6F36
:1003E000745F50490044616D7065645F5049005A04
:1003F0004E5F5049004D697865645F504944004341
:100400006F68656E436F6F6E5F504944004E6F4F6B
:1004100076657273686F6F745F5049440044616D14
:100420007065645F504944005A4E5F504944002053
:1004300054756E696E67204D6574686F643A20006C
:1004400020286C6F772073616D706C652072617409
:100450006529002028676F6F642073616D706C657B
:1004600020726174652900205461752F53616D708D
:100470006C6520506572696F643A200020286469B9
:1004800066666963756C7420746F20636F6E747236
:100490006F6C290020286176657261676520636F43
:1004A0006E74726F6C6C6162696C6974792900207A
:1004B000286561737920746F20636F6E74726F6C3E
:1004C0002900205461752F446561642054696D656D
:1004D0003A20202020200020546175205365633A83
:1004E0002020202020202020202020002044656182
:1004F000642054696D65205365633A2020202020D4
:10050000002050726F63657373204761696E3A20F3
:1005100020202020200020507620446966663A2062
:100520002020202020202020202000205076204D38
:10053000696E3A202020202020202020202020002A
:10054000205076204D61783A202020202020202045
:1005500020202020002050762053746172743A20AD
:1005600020202020202020202000204970205076AC
:100570003A20202020202020202020202020002081
:10058000E286930020E286910020497020536C6F30
:1005900070653A20202020202020202020002049A3
:1005A00070205365633A2020202020202020202026
:1005B0002020002053616D706C65205365633A20E4
:1005C0002020202020202000204F7574707574207A
:1005D000537465703A2020202020202000204F7581
:1005E000747075742053746172743A202020202036
:1005F00020007265766572736535540072657665A4
:10060000727365495000646972656374355400649F
:10061000697265637449500020436F6E74726F6C29
:100620006C657220416374696F6E3A20002041420C
:100630004F52543A207076496E7374203E206553B1
:10064000746F70002020736574746C696E6720206D
:10065000E2A4B3E2A4B300202070763A2000202068
:100660006F75743A2000207365633A200020414280
:100670004F52543A207076496E7374203E20655371
:10068000746F7000005EBCE2613FDD83C29C7E201F
:10069000A3FD1F41009D23BE46DB65F88C11AF32E0
:1006A000CA57E97400002100240027002A002D0009
:1006B0003000330001010000040107010A010000BD
:1006C0002200250028002B002E00310034000201FA
:1006D0000000050108010B01000020002300260096
:1006E00029002C002F003200000100000301060148
:1006F00009010505050507050808080802020202A8
:100700000A0A0808040404040101010101010101AD
:100710000303030303030303040707070C0C0C0C78
:100720000C0C0C0C02020202060606060606060661
:100730000B0B0B0B0B0B0B0B0102102020080810EE
:100740002040102040800201020108040201010241
:10075000040810204080804020100804020180041A
:100760000201804020100804020108040201010275
:10077000040810204080010204081020408000007E
:100780000A0B02090C0D0E0807030401000000000B
:100790000000000000000000000000000000000059
:1007A0000000000000000000000012111000000016
:1007B0000000000000000000000000000000000039
:1007C00000000000A34711241FBECFEFD1E2DEBF1F
:1007D000CDBF00E00CBF13E0A0E0B2E0E2EBFAEA2C
:1007E00000E00BBF02C007900D92A835B107D9F702
:1007F0002BE0A8E5B3E001C01D92A53EB207E1F7EA
:1008000013E0C3EED3E000E006C021970109802F7A
:10081000FE010E949051C23ED10780E00807A9F76F
:100820000E94434D0C9457550C94000080E197E2D0
:10083000A0E0B0E08093E3089093E408A093E5087B
:10084000B093E6088093E7089093E808A093E9083E
:10085000B093EA088EE394E09093ED088093EC085F
:100860001092EB08EEEEF8E0808181608D7F8B7F47
:1008700080831092980710929907089581E08093E1
:1008800097070895EBE8F6E040AD51AD62AD73AD6A
:10089000DC014D935D936D937D93CD017896B7E028
:1008A000EB31FB0789F7089508954F925F926F929D
:1008B0007F928F929F92AF92BF92CF92DF92EF92F0
:1008C000FF92CF938090130A9090140AA090150A7B
:1008D000B090160A20E030E040E05FE3C501B401CB
:1008E0000E94B0539B01AC0160E070E080E89FE3A0
:1008F0000E941E526B017C01C091AE09C11109C05A
:10090000C092070AD092080AE092090AF0920A0AF5
:1009100022C020E030E040E151E460910F0A709184
:10092000100A8091110A9091120A0E941E529B0196
:10093000AC0160E070E080E89FE30E941E522B0152
:100940003C01C130F1F44092070A5092080A6092CB
:10095000090A70920A0A6091070A7091080A809148
:10096000090A90910A0ACF91FF90EF90DF90CF9003
:10097000BF90AF909F908F907F906F905F904F90BF
:100980000895C23009F4BCCF20E030E040E850E4E4
:10099000C501B4010E94B0534B015C016091170A7C
:1009A0007091180A8091190A90911A0A9B01AC0162
:1009B0000E94AD5120E030E040E351E40E94AD518F
:1009C0009B01AC01C501B4010E941E529B01AC0108
:1009D00060E070E080E89FE30E941E524B015C01E2
:1009E000C33049F48092070A9092080AA092090A3B
:1009F000B0920A0AB0CFC430E9F4A3019201C70152
:100A0000B6010E94AD51A70196010E94AD51A5010A
:100A100094010E94AD5120E030E040E85EE30E9486
:100A2000B0536093070A7093080A8093090A909361
:100A30000A0A91CF1092070A1092080A1092090A26
:100A400010920A0A88CF4F925F926F927F928F9294
:100A50009F92AF92BF92CF92DF92EF92FF92CF938D
:100A6000DF93CDB7DEB761970FB6F894DEBF0FBE48
:100A7000CDBF8090130A9090140AA090150AB090F0
:100A8000160AA5019401C501B4010E94AD519B0154
:100A9000AC0160E070E080E89FE30E941E522B01F1
:100AA0003C018091AE09898B811109C04092030AF3
:100AB0005092040A6092050A7092060A2FC0809133
:100AC0000F0A9091100AA091110AB091120A89831D
:100AD0009A83AB83BC8326E636E646E650E4BC0147
:100AE000CD010E941E529B01AC0160E070E080E8E5
:100AF0009FE30E941E526D837E838F83988799891E
:100B0000913049F58D819E81AF81B8858093030A2C
:100B10009093040AA093050AB093060A6091030A11
:100B20007091040A8091050A9091060A61960FB6A9
:100B3000F894DEBF0FBECDBFDF91CF91FF90EF9055
:100B4000DF90CF90BF90AF909F908F907F906F90ED
:100B50005F904F90089529813A814B815C8160E0DC
:100B600070E080E89FE30E941E5269877A878B8736
:100B70009C879989923029F489859A85AB85BC85B3
:100B8000C5CFC090170AD090180AE090190AF090CB
:100B90001A0A20E030E040E450E4C701B6010E94A8
:100BA000B05320E030E040EF51E40E94AD51A50188
:100BB00094010E94B0536D877E878F87988B20E0C9
:100BC00030E040EA51E4C701B6010E94B05320E092
:100BD00030E040E151E40E94AD519B01AC016D85D4
:100BE0007E858F8598890E941E529B01AC0160E032
:100BF00070E080E89FE30E941E526B017C0199899E
:100C0000933049F4C092030AD092040AE092050A94
:100C1000F092060A83CFA989A43009F52D813E817F
:100C20004F815885C301B2010E94AD5129853A8593
:100C30004B855C850E94AD51A70196010E94AD5184
:100C400020E030E040E85EE30E94B0536093030A86
:100C50007093040A8093050A9093060A5FCF2AECEA
:100C600034E545E550E4C501B4010E94B0539B0151
:100C7000AC0160E070E080E89FE30E941E524B01EF
:100C80005C01B989B53049F48092030A9092040A54
:100C9000A092050AB092060A41CF26E636E646E261
:100CA00050E469817A818B819C810E941E529B0154
:100CB000AC0160E070E080E89FE30E941E522B01CF
:100CC0003C018989863009F4F1CE2AE939E949E9FC
:100CD0005FE369817A818B819C810E94B0539B0183
:100CE000AC0160E070E080E89FE30E941E526983DF
:100CF0007A838B839C839989973029F489819A819F
:100D0000AB81BC8103CF9989983009F47BCFA301D3
:100D10009201C501B4010E94AD5129813A814B81F4
:100D20005C8188CF4F925F926F927F928F929F9259
:100D3000AF92BF92CF92DF92EF92FF92CF93DF9369
:100D4000CDB7DEB769970FB6F894DEBF0FBECDBF43
:100D5000C0900F0AD090100AE090110AF090120A89
:100D600080910B0A90910C0AA0910D0AB0910E0A85
:100D700089839A83AB83BC838090130A9090140A72
:100D8000A090150AB090160AA5019401BC01CD01EE
:100D90000E94B0532B013C012AE939E949E95FE39C
:100DA000C701B6010E94B053A30192010E941E52D6
:100DB00020E030E040E05FE30E94B05369877A872B
:100DC0008B879C879091AE09998F911129C0898555
:100DD0009A85AB85BC858093FF099093000AA09308
:100DE000010AB093020A6091FF097091000A809194
:100DF000010A9091020A69960FB6F894DEBF0FBE01
:100E0000CDBFDF91CF91FF90EF90DF90CF90BF905B
:100E1000AF909F908F907F906F905F904F900895CC
:100E200023EC35EF48E25FE3C701B6010E94B053FF
:100E3000A30192010E941E526D877E878F87988B37
:100E4000998D913029F48D859E85AF85B889C3CF62
:100E5000A5019401C701B6010E941E52698B7A8BCD
:100E60008B8B9C8B29813A814B815C816AE979E982
:100E700089E19FE30E941E5229893A894B895C8946
:100E80000E94B0536D8B7E8B8F8B988F998D923093
:100E900029F48D899E89AF89B88D9DCF8091170ADD
:100EA0009091180AA091190AB0911A0A8D839E8315
:100EB000AF83B88720E030E040E85EE3BC01CD01BD
:100EC0000E94B05321E73DE34AEA5FE30E94AD513F
:100ED00029813A814B815C810E94B0534B015C01B6
:100EE000998D933049F48092FF099092000AA09264
:100EF000010AB092020A77CFA98DA430D9F42D85CA
:100F00003E854F85588969857A858B859C850E94A9
:100F1000AD512D893E894F89588D0E94AD51A50153
:100F200094010E94AD5120E030E040E85EE30E9471
:100F3000B0536CC026E636E646E65FE3C701B6016D
:100F40000E94B053A30192010E941E5220E030E0A3
:100F500040E05FE30E94B0534B015C01B98DB530B6
:100F600011F224EA30E74DEF5EE3C701B6010E94BB
:100F7000B053A30192010E941E522B013C01898DA6
:100F8000863049F44092FF095092000A6092010AAB
:100F90007092020A28CF29813A814B815C8163E3F8
:100FA00073E383EB9EE30E941E5229893A894B89A1
:100FB0005C890E94B0536B017C01998D973049F494
:100FC000C092FF09D092000AE092010AF092020A50
:100FD0000ACF20E030E040E451E46D817E818F81D2
:100FE00098850E941E5226E636E646E65FE30E949A
:100FF000AD5129813A814B815C810E94B053698354
:101000007A838B839C83A98DA83049F46093FF0970
:101010007093000A8093010A9093020AE4CEA30120
:101020009201C501B4010E94AD51A70196010E9431
:10103000AD5129813A814B815C8173CF8091AE0A99
:10104000882309F446C081E090E09093AD0A809334
:10105000AC0A1092C40B1092C60B1092C50B1092E2
:10106000CA0B1092C80B1092C70B1092C90B80913B
:10107000B70B8093C20B8091B80B8093C30B109277
:10108000CD0B1092CC0B1092CE0B1092260B10921F
:10109000270B1092280B1092290B1092190B10920B
:1010A000180B1092390B1092380B1092490B1092BA
:1010B000720B1092730B1092740B1092750B1092AE
:1010C000650B1092640B1092850B1092840B10929A
:1010D000950B08958091740490917304891B990B6A
:1010E0000895FC0190E1A7E5B7E001900D929A9573
:1010F000E1F78091650790916607B0E0A0E0EFEF1F
:10110000F7E080839183A283B38384839583A6834E
:10111000B78380E797E1928781871086EAE0F8E05D
:10112000808183608B7F808387E597E09093A40B19
:101130008093A30B84E690E090938B0B80938A0BB3
:1011400090933F0B80933E0B08951F93CF93DF93B3
:10115000182F10928207C1E0D0E0D0935407C093BB
:1011600053078091550781608B7F809355071092BC
:1011700097070E9416048091AE0A8B3041F41092BA
:10118000800710927F07DF91CF911F9108958630DD
:1011900029F4D0938007C0937F07F5CF9CEF980F79
:1011A000923038F482E090E09093800780937F073C
:1011B000EACF873029F580915D0790915E07B0E016
:1011C000A0E080931F0990932009A0932109B09378
:1011D00022098093230990932409A0932509B093B1
:1011E00026098FE89DE1909329098093280910939F
:1011F000270980912A0981608D7F8B7F80932A093E
:1012000083E090E0D1CF9C014FB7F894809198058E
:10121000E091970581111CC081E08E0F80939705A6
:1012200093E0E99FF0011124E25EFA4F31832083BD
:101230006283883211F410929705909197058091FE
:101240009605981303C081E0809398054FBF0895D9
:10125000909196059F5F9832A1F09093960591E04A
:101260009E0F9093970583E0E89FF0011124E25EC2
:10127000FA4F318320836283983241F710929705A9
:10128000E5CF10929605EBCFFC01538D448D252FB1
:1012900030E0842F90E0821B930B541710F0CF9610
:1012A000089501970895FC01918D828D981761F042
:1012B000A28DAE0FBF2FB11D5D968C91928D9F5F59
:1012C0009F73928F90E008958FEF9FEF0895FC0138
:1012D000918D828D981731F0828DE80FF11D858DEB
:1012E00090E008958FEF9FEF0895FC01918D228D7E
:1012F000892F90E0805C9F4F821B91098F73992703
:101300000895FC01A48DA80FB92FB11DA35ABF4F9A
:101310002C91848D90E001968F739927848FA689F4
:10132000B7892C93A089B1898C91837080648C9348
:10133000938D848D981306C00288F389E02D8081F7
:101340008F7D80830895EF92FF920F931F93CF9329
:10135000DF93EC0181E0888F9B8D8C8D98131AC0F0
:10136000E889F989808185FF15C09FB7F894EE89D7
:10137000FF896083E889F989808183708064808334
:101380009FBF81E090E0DF91CF911F910F91FF907F
:10139000EF900895F62E0B8D10E00F5F1F4F0F7327
:1013A0001127E02E8C8D8E110CC00FB607FCFACFE2
:1013B000E889F989808185FFF5CFCE010E948109F6
:1013C000F1CFEB8DEC0FFD2FF11DE35AFF4FF082B3
:1013D0009FB7F8940B8FEA89FB8980818062CFCF19
:1013E0000F931F93CF93DF938C01D0E0C0E0F801FF
:1013F000EC0FFD1F6491662341F085E794E00E94A5
:10140000A309892B11F02196F2CFCE01DF91CF9164
:101410001F910F910895CF93DF93EC01888D88235E
:10142000B9F0AA89BB89E889F9898C9185FD03C047
:10143000808186FD0DC00FB607FCF7CF8C9185FF2C
:10144000F2CF808185FFEDCFCE010E948109E9CFE7
:10145000DF91CF91089585E794E00E94750921E01E
:10146000892B09F420E0822F089580E090E0892BF9
:1014700049F080E090E0892B29F00E940000811162
:101480000E94000080E090E0892B49F080E090E02D
:10149000892B29F00E94000081110E94000080E049
:1014A00090E0892B29F00E942B0A81110E940000F4
:1014B00080E090E0892B49F080E090E0892B29F0D2
:1014C0000E94000081110C94000008958150823127
:1014D00008F05AC0E82FF0E08827EE58F54F8F4FFC
:1014E0000C949051920A960A840A8A0A8E0AC40AB7
:1014F000990A9F0AA30AA90AAD0AB10AB70ABB0A48
:10150000C40ABF0AC50AC90A809180008F778093F8
:1015100080000895809180008F7DF9CF80918000B8
:10152000877FF5CF84B58F7784BD089584B58F7D8F
:10153000FBCF8091B0008F778093B00008958091A9
:10154000B0008F7DF9CF809190008F7780939000CD
:101550000895809190008F7DF9CF80919000877FD2
:10156000F5CF8091A0008F778093A000089580919F
:10157000A0008F7DF9CF8091A000877FF5CF80916B
:1015800020018F77809320010895809120018F7D25
:10159000F9CF80912001877FF5CFCF93DF93282F5C
:1015A00030E0F901E258F84F8491F901E85CF84F16
:1015B000D491F901EE50F94FC491CC23A1F08111DF
:1015C0000E94660AEC2FF0E0EE0FFF1FE852F94F81
:1015D000A591B491EC91ED2381E090E009F480E0D5
:1015E000DF91CF91089580E090E0FACFCF93DF9321
:1015F000EC01188219821A821B821C821D821E82B3
:101600001F828EE00E94CD0A9A8180FB90F99A8316
:101610008DE00E94CD0A9A8180FB91F99A838CE03B
:101620000E94CD0A9A8180FB92F99A83ECEAFAE053
:101630008881938590FB85F9928990FB86F9918D3D
:1016400090FB87F98883898190A190FB80F9898339
:1016500089E10E94CD0A998180FB91F9998388E103
:101660000E94CD0A998180FB92F9998387E10E94BB
:10167000CD0A998180FB93F9998380E10E94CD0A7C
:10168000998180FB94F999838FE00E94CD0A99811A
:1016900080FB95F9998386E10E94CD0A998180FBB0
:1016A00096F9998381E10E94CD0A998180FB97F98F
:1016B00099838CE20E94CD0A9A8180FB93F99A83E8
:1016C0008EE20E94CD0A9A8180FB94F99A838DE282
:1016D0000E94CD0A9A8180FB95F99A838FE20E943D
:1016E000CD0A9A8180FB96F99A8385E20E94CD0A01
:1016F0009A8180FB97F99A8384E20E94CD0A9B81AC
:1017000080FB90F99B8387E20E94CD0A9B8180FB3E
:1017100091F99B8386E20E94CD0A9B8180FB92F91E
:101720009B8389E20E94CD0A9B8180FB93F99B8376
:1017300088E20E94CD0A9B8180FB94F99B838BE217
:101740000E94CD0A9B8180FB95F99B838AE20E94CF
:10175000CD0A9B8180FB96F99B8385E30E94CD0A8D
:10176000988180FB90F998838FE10E94CD0A98813F
:1017700080FB92F998838BE10E94CD0A988180FBCF
:1017800091F998838DE10E94CD0A988180FB93F9AD
:1017900098838EE10E94CD0A988180FB94F998830A
:1017A000DF91CF9108951F93CF93DF93282F30E0DF
:1017B000F901E258F84F8491F901E85CF84FD491AF
:1017C000F901EE50F94FC491CC23A9F0162F8111E5
:1017D0000E94660AEC2FF0E0EE0FFF1FE254F94F73
:1017E000A591B4918FB7F894EC91111108C0D095E0
:1017F000DE23DC938FBFDF91CF911F910895DE2B05
:10180000F8CFCF93DF9390E0FC01E85CF84F249190
:101810008E50994FFC0184918823C9F090E0880F85
:10182000991FFC01EC55F94FA591B491FC01E254CC
:10183000F94FC591D49161110DC09FB7F8948C9167
:10184000209582238C938881282328839FBFDF9152
:10185000CF910895623051F49FB7F8943C91822F54
:10186000809583238C93E8812E2BEFCF8FB7F8944C
:10187000EC912E2B2C938FBFEACF863308F0865342
:1018800020917B00982F9870277F922B90937B005C
:101890008770806480937C0080917A00806480935C
:1018A0007A0080917A0086FDFCCF8091780090913B
:1018B000790008953FB7F89480911C0490911D041D
:1018C000A0911E04B0911F0426B5A89B05C02F3F10
:1018D00019F00196A11DB11D3FBFBA2FA92F982F56
:1018E0008827BC01CD01620F711D811D911D42E051
:1018F000660F771F881F991F4A95D1F70895CF93D8
:10190000DF93C3EAD9E081E08A878CA19DA1AEA1D3
:10191000BFA1EE85FF8580839183A283B3830E945C
:101920005A0C6093350A7093360A8093370A909365
:10193000380A6093390A70933A0A80933B0A90936D
:101940003C0A1092450A1092460A1092470A1092D9
:10195000480A1092410A1092420A1092430A1092C9
:10196000440A10920B0A10920C0A10920D0A10925F
:101970000E0A10920F0A1092100A1092110A109279
:10198000120A1092130A1092140A1092150A109259
:10199000160A1092FF091092000A1092010A109282
:1019A000020A1092030A1092040A1092050A109279
:1019B000060A1092070A1092080A1092090A109259
:1019C0000A0A18AE19AE1AAE1BAE1CAE1DAE1EAE84
:1019D0001FAE1092E3091092E4091092E5091092EB
:1019E000E6091092EF091092F0091092F109109295
:1019F000F2091092F3091092F4091092F50910926D
:101A0000F6091092F7091092F8091092F90910924C
:101A1000FA0988A999A9AAA9BBA98CAB9DABAEABC1
:101A2000BFAB8093FB099093FC09A093FD09B09391
:101A3000FE098093E7099093E809A093E909B09320
:101A4000EA091092280A1092270A10922A0A109284
:101A5000290A1092240A1092230A1092260A109240
:101A6000250ADF91CF9108958F929F92AF92BF92F6
:101A7000CF92DF92EF92FF926B017C010E945A0C91
:101A80004B015C01C114D104E104F104B9F00E94DE
:101A90005A0C681979098A099B09683E73408105C7
:101AA000910580F321E0C21AD108E108F10888EE1F
:101AB000880E83E0981EA11CB11CE4CFFF90EF902C
:101AC000DF90CF90BF90AF909F908F9008952FB7E9
:101AD000F894609118047091190480911A049091FF
:101AE0001B042FBF0895CF93C091CB0381E0C8277B
:101AF000C093CB0361E084E30E94010C6C2F84E36C
:101B0000CF910C94D30BE7E7F6E0838194810196A3
:101B1000948383830895E7E7F6E0808591850196B5
:101B2000918780870895E7E7F6E085859685019699
:101B3000968785870895E7E7F6E08289938901967D
:101B4000938B828B0895089508950895AF92BF9264
:101B5000CF92DF92EF92FF920F931F93CF93DF9379
:101B60006C017B018B01040F151FEB015E01AE18A8
:101B7000BF08C017D10759F06991D601ED91FC91CA
:101B80000190F081E02DC6011995892B79F7C501E7
:101B9000DF91CF911F910F91FF90EF90DF90CF9049
:101BA000BF90AF9008952091EC03260F3327331F89
:101BB00021323105ECF420916D04FC0190E080E0CD
:101BC000243069F082E00895A091EC032191AC01EA
:101BD00044535C4FA40FB52FB11D2C93019686176B
:101BE00098F38091EC03680F6093EC0380E0089514
:101BF00081E0089510926D0481E080934C0410926E
:101C0000470461E084E10E94D30B61E085E10E941A
:101C1000D30BE9EBF0E080818E7F808380818D7F24
:101C2000808388E48093B80085E48093BC000895A5
:101C3000CF93DF9391E0909310048823B9F0C09183
:101C4000B800D091BA008091BC008A7B8093BC0020
:101C500060E084E10E94D30B60E085E10E94D30B39
:101C60000E94FA0DD093BA00C093B800DF91CF91D3
:101C70000895CF92DF92EF92FF920F931F93CF932D
:101C8000DF93D82FC62F613208F098C00E945A0CFB
:101C90006B017C0180916D0481116BC081E08093A8
:101CA0006D0480934C049FEF90934B0410924A0470
:101CB0009C0F909349048093480480914804DD0F61
:101CC000D82BD093480480914704813009F078C024
:101CD000109247040E945A0C6B017C0180914804C9
:101CE0008093BB0080916F0490917004A091710467
:101CF000B0917204892B8A2B8B2BA1F00E945A0C75
:101D000000916F041091700420917104309172045D
:101D10006C197D098E099F090617170728073907CF
:101D200008F448C08091BC0083FDD8CF85EC809337
:101D3000BC000E945A0C6B017C0180916D048130C3
:101D400009F440C080914A048C1710F4C0914A04F1
:101D5000E7E2F4E0ADE4B4E080E08C1355C08C2FF2
:101D6000DF91CF911F910F91FF90EF90DF90CF9077
:101D7000089580916F0490917004A0917104B091C6
:101D80007204892B8A2B8B2B09F484CF0E945A0C66
:101D900000916F04109170042091710430917204CD
:101DA0006C197D098E099F0906171707280739073F
:101DB00008F070CF80916E040E94180EC0E0CFCF63
:101DC00085EEB5CF80916F0490917004A09171045D
:101DD000B0917204892B8A2B8B2B09F4AECF0E9411
:101DE0005A0C00916F04109170042091710430918D
:101DF00072046C197D098E099F09061717072807B9
:101E0000390708F09ACFD6CF91919D938F5FA5CFD8
:101E1000E091730480917404E81730F4F0E0E35B20
:101E2000FB4F808190E008958FEF9FEF0895909190
:101E30007304809174042FEF3FEF981748F4E92F53
:101E4000F0E0E35BFB4F208130E09F5F90937304F1
:101E5000C90108959091740480917304981729F032
:101E600082E195E00E94170FF5CF0895CF93DF939D
:101E7000CB01EA01642F0E94D30DCE01DF91CF91F7
:101E80000895CF93DF931F92CDB7DEB7698361E0EA
:101E9000CE0101960E94D30D81E090E00F90DF917A
:101EA000CF91089590E080E00895DC0180E06150DA
:101EB00090F09D919827E92FEF70F0E0EC57F94FE3
:101EC0002491E92FE295EF70F0E0EC56F94FE491A0
:101ED000822F8E27ECCF0895DC012C911196ED9185
:101EE000FC91F8948181822B81839281322F3095ED
:101EF0009323928387E090E00197F1F78181832318
:101F0000818383E290E00197F1F790817894EFEC80
:101F1000F0E03197F1F7922381E009F480E0089531
:101F2000FC0190810180F281E02D292F209560FF36
:101F300014C0F8948281822382838181892B8183DA
:101F4000A3E2B0E01197F1F78281982B9283789405
:101F500087ED90E00197F1F70895F894828182234C
:101F600082838181892B8183AFEFB0E01197F1F7F4
:101F70008281982B928378948FE090E0EBCFDF9270
:101F8000EF92FF920F931F93CF93DF93EC01D62E26
:101F9000E42E08E010E0FF24F39461E08D2D8F2102
:101FA00009F460E0CE010E94900FFF0C015011096E
:101FB000A1F7E11010C0F894E981FA81918188813C
:101FC000809589238183E981FA8192818881809536
:101FD000892382837894DF91CF911F910F91FF9095
:101FE000EF90DF900895EF92FF920F931F93CF939E
:101FF000DF938C017B0140E065E50E94BF0FE701A4
:1020000088E0E80EF11C699140E0C8010E94BF0F12
:10201000CE15DF05C1F7DF91CF911F910F91FF9092
:10202000EF900895FC0190810180F281E02DF894F9
:102030008181292F20958223818378943DE743E095
:1020400050E0315029F1DA011197F1F780818923AD
:10205000C1F3F8948281822382838181892B8183D9
:102060007894ABE7B7E01197F1F7F8948181822378
:102070008183A3E1B1E01197F1F78081982381E09A
:1020800009F080E07894E3E6F6E03197F1F70895FF
:1020900080E008958F929F92AF92BF92CF92DF928D
:1020A000EF92FF920F931F93CF93DF9300D01F9275
:1020B0001F92CDB7DEB78C01DC0119968D919C91F2
:1020C0000E94121040E06CECF801818592850E941C
:1020D000BF0FD8014C9164E419968D919C910E9498
:1020E000BF0F0E94670D6B017C01F8018481811193
:1020F00020C081E08983CA82DB82EC82FD82298153
:102100003A814B815C816D8170E080E090E00F90BE
:102110000F900F900F900F90DF91CF911F910F9123
:10212000FF90EF90DF90CF90BF90AF909F908F90F7
:10213000089585818823B1F08081811113C0F80151
:10214000818592850E946C0F813099F20E94670D03
:102150006C197D098E099F096E3E724081059105BB
:1021600070F3C7CFD8011396EC91E9508EEE92E050
:10217000E33038F4F0E0EE0FFF1FEA5CFD4F8081A2
:1021800091814C01B12CA12CF8018181882321F08F
:1021900060E082810E94D30BC501B4010E94340D1E
:1021A000D80111968C911197882309F4A2CF61E090
:1021B00012968C910E94D30B9CCF4F925F926F929C
:1021C0007F928F929F92AF92BF92CF92DF92EF92C7
:1021D000FF920F931F93CF93DF938C017B01EA0152
:1021E000FC01818592850E9412108823D9F1B701E4
:1021F000F801818592850E94F30F40E06EEBF801B3
:10220000818592850E94BF0F6E015E01F9E0AF0EDD
:10221000B11C7E01F8018184928488E0682E712CC3
:10222000512C44244394C4010E946C0F8111542802
:10223000440CF1E06F1A7108B1F7F70151927F0178
:10224000AE16BF0639F7F801818592850E941210FB
:10225000813041F4F60181916F01811105C0EE15C5
:10226000FF05C1F790E008C068E0CE010E94550F5D
:1022700091E028852813F6CF892FDF91CF911F9108
:102280000F91FF90EF90DF90CF90BF90AF909F9015
:102290008F907F906F905F904F900895CF93C82F4D
:1022A000682F8DE10E94D30B6C2F8EE1CF910C949F
:1022B000D30B81E08093AA0A0895EBE8F6E0A281AF
:1022C000B38113968D919C91149714961C921E9233
:1022D00013979583848381E08087A385B4851396C3
:1022E0002D913C91149714961C921E921397368749
:1022F0002587818BA489B58913962D913C911497DC
:1023000014961C921E921397378B268B828FA58D65
:10231000B68D13962D913C91149714961C921E9293
:10232000139730A3278F83A3089510925208E3E2F6
:10233000F4E08081877F8083089581E00C944E11C2
:10234000CF93DF93A0E0B2E0FD0190E021913191C5
:102350002817390721F4EF0122971982188222E009
:10236000E031F20799F78D919D91892B41F482E03C
:10237000A031B807C1F781E0DF91CF91089580E0E7
:10238000FBCFFC0121812150330B70E060E0472F2F
:1023900050E0421753073CF4480F591FFA0140819F
:1023A000640F7F5FF4CF820F931FFC016083089559
:1023B000FC0181E08083658385E0828380915507FD
:1023C000A0E0B2E020E132E04D915D91452BE1F4D7
:1023D0002A173B07C9F791E08F7E90FF80619091AB
:1023E000620390FB81F98383F8949091FC078091BC
:1023F000FB0791110BC09091FA07981307C07894CE
:10240000148287E08183089590E0E6CF90E0A09168
:10241000F707B091F807A80FB91F2C9101966091AA
:10242000F90770E00E947C518093FB071092FC0733
:1024300078942483E6CFCF93DF93CDB7DEB7C4562D
:10244000D1090FB6F894DEBF0FBECDBF66E0CE0156
:1024500001960E94D811CE0101960E94C111CC595B
:10246000DF4F0FB6F894DEBF0FBECDBFDF91CF9127
:102470000895CF93DF93EC0167E00E94D811CE015D
:10248000DF91CF910C94C111E1ECF0E08081806884
:1024900080830895682F660F692F661F81E090E0A2
:1024A0006F3F11F490E080E00895EF92FF921F9348
:1024B000CF93DF93EC0119867C0180E4E80EF11CD8
:1024C000F70111829081329680E0981719F01192ED
:1024D0008F5FFBCF1FAE1EAE10E0F7018081181793
:1024E00050F4EA81FB81E10FF11D60E080810E94E0
:1024F000D30B1F5FF2CFDF91CF911F91FF90EF9031
:102500000895CF93DF93EC010E945512ED81FE8177
:102510002F8138858CA99DA9B0E0A0E080839183AC
:10252000A283B38384839583A683B783328721876D
:102530008BE08087838581608D7F8B7F8387DF91B0
:10254000CF910895CF92DF92EF92FF920F931F9356
:10255000CF93DF9300D000D01F921F92CDB7DEB78C
:10256000FC018E010F5F1F4F88E0D8011D928A95F4
:10257000E9F74285C180E0802E2D30E0842FF12CD8
:10258000DD24D394CF100EC0CF010296B801562F90
:10259000501B5E1590F4DB015D91BD01DC015D9384
:1025A000CD01F5CF90E0D801A80FB91FDC920196BC
:1025B000B9010E947C51F394E5CF842F90E00196FD
:1025C000B9010E947C51828728960FB6F894DEBF2D
:1025D0000FBECDBFDF91CF911F910F91FF90EF9074
:1025E000DF90CF900895FF920F931F93CF93DF93C7
:1025F000EC018985882369F18EAD9FAD891728F597
:102600008F5F8EAF8E01005C1F4FF80190818EAD01
:10261000981708F4892FF8018183C8010E94A2123B
:10262000F12CF8018081F816A0F48F2D90E0D801EC
:10263000A80FB91FEA81FB81E80FF91F12966C9170
:1026400080810E94D30BF394ECCF9817D8F6815079
:10265000D8CFDF91CF911F910F91FF9008958AE01D
:102660009BE00E94F31286E59BE00C94F312EF923C
:10267000FF921F93CF93DF93EC0110E08C8118172A
:10268000A0F4E12EF12CEA81FB81EE0DFF1D61E04B
:1026900080810E94010CEA81FB81EE0DFF1D60E04C
:1026A00080810E94D30B1F5FE9CFCE01805C9F4FDA
:1026B000FC011182DF91CF911F91FF90EF900C945C
:1026C000A21281E20E94CD0A21E0892B09F420E0C8
:1026D000822F0895FC018181861799F0618381E042
:1026E00090E0938382838081861751F0662381F086
:1026F00084819581228133812817390708F060830E
:102700000895828193818F3F980769F30196E9CFFD
:1027100086819781EFCFFC018581882361F08681D6
:10272000882351F00280F381E02D81E025813681FC
:10273000232B09F480E008950190F081E02DF5CF7E
:102740000F931F93CF93DF93FC012081222309F481
:102750003FC0162FC62FD0E0D683C583028161E02B
:10276000802F0E94010C209741F460E0802FDF91C0
:10277000CF911F910F910C94D30BCF3FD10511F442
:1027800061E0F4CFE02FF0E0E258F84FE491E1503F
:10279000E23108F0B4C0F0E08827EE52FC4E8F4FD3
:1027A0000C949051E413ED13F213FC1306147F14F0
:1027B0001014181420142A1434143E144D145714F1
:1027C0007F1461146B14751484B5806884BD17BDC3
:1027D000DF91CF911F910F91089584B5806284BDE0
:1027E00018BDF6CF80918000806880938000D093E0
:1027F0008900C0938800ECCF809180008062809334
:102800008000D0938B00C0938A00E2CF809180003B
:10281000886080938000D0938D00C0938C00D8CFC7
:102820008091B00080688093B0001093B300D0CF47
:102830008091B00080628093B0001093B400C8CF44
:1028400080919000806880939000D0939900C0930D
:102850009800BECF80919000806280939000D093CA
:102860009B00C0939A00B4CF8091900088608093C1
:102870009000D0939D00C0939C00AACF8091A000AF
:1028800080688093A0008091A0008F7B8093A0003F
:10289000D093A900C093A8009BCF8091A000806234
:1028A0008093A000D093AB00C093AA0091CF8091F9
:1028B000A00088608093A000D093AD00C093AC00CE
:1028C00087CF80912001806880932001D0932901D7
:1028D000C09328017DCF80912001806280932001E8
:1028E000D0932B01C0932A0173CF8091200188607F
:1028F00080932001D0932D01C0932C0169CFC03863
:10290000D1050CF03DCF31CF0F931F93CF93DF93C1
:1029100083E20E94CD0A8C0182E20E94CD0AEC0182
:1029200061E0012B09F460E083E897E00E946A13FC
:1029300061E0CD2B09F460E08BE897E00E946A1318
:10294000809183078093930790918B0790939407CE
:1029500023E0911104C022E0811101C021E0209305
:1029600095072091D40B222309F448C02091DC0B59
:10297000222309F443C02091A20B21113FC09923C7
:1029800051F18091B80B8093C30B1092C20B6091F0
:10299000C20B6093D30B8091D50B882329F18091D2
:1029A000D10B9091D20B0E94A0136091C30B609346
:1029B000DB0B8091DC0B882309F18091DD0B8823F0
:1029C000C1F08091D90B9091DA0BDF91CF911F91DB
:1029D0000F910C94A0138111D4CF8091B70B8093E9
:1029E000C20B1092C30BD3CF8091CF0B9091D00B21
:1029F000DACF8091D70B9091D80BE7CFDF91CF91B1
:102A00001F910F910895FC01808181110DC081E01B
:102A100080838181811104C061E082810C94D30B99
:102A20006581CF010C94A0130895CF93DF93EC013F
:102A3000862F68835A8349831C821B8262E00E942E
:102A4000010C29813A819881923069F43093110206
:102A50002093100280916A00836080936A00EC9A50
:102A6000DF91CF910895933059F43093130220935E
:102A7000120280916A008C6080936A00ED9AF0CF18
:102A80008EEE890F843060F787E1891BE82FF0E034
:102A9000EE0FFF1FE05FFD4F31832083843091F004
:102AA0008530B9F0833039F080916900836080937C
:102AB0006900E89AD5CF809169008C6080936900A5
:102AC000E99ACECF80916900806380936900EA9A89
:102AD000C7CF80916900806C80936900EB9AC0CF6A
:102AE000FC01118260E080810C94D30BFC01108208
:102AF00060E081810C94D30BF8949091FC079923AA
:102B000059F08091FD079091FE0701969093FE0782
:102B10008093FD07789408952091FA0730E0E091C2
:102B2000F707F091F807E20FF31F8083C9010196C0
:102B30006091F90770E00E947C518093FA079091B0
:102B4000FB079813E7CF81E08093FC07E3CFBF92A8
:102B5000CF92DF92EF92FF920F931F93CF93DF9369
:102B6000EC01B62EC72E8D85811105C0CE010E94C5
:102B7000121081110EC01B861D861C8680E0DF911D
:102B8000CF911F910F91FF90EF90DF90CF90BF906A
:102B9000089540E060EFCE010E94BF0F01E0E12CFC
:102BA000D12C11E0CE010E946C0FF82ECE010E94B4
:102BB0006C0F91E0F91218C0813099F51134D8F2F8
:102BC000DB86D11002C081E08D878B81882399F24A
:102BD0002396EB2DFC2DCF01089629912193E81720
:102BE000F907D9F781E0CBCFEE2DF0E0F8120FC056
:102BF0008B851817A0F4DE01AE0FBF1F13968C91C2
:102C0000802379F4F12C193008F41C87D12EEC0FB5
:102C1000FD1F8381902F9095892383830AC08113A0
:102C2000F1CFFE01EE0DF11D8381802B8383FF2404
:102C3000F3946F2DCE010E94900F1F5F000F11F4CF
:102C4000E39401E087E08E1508F0ACCFB7CFCF93C7
:102C5000DF93EB01DC011996ED91FC911A97138635
:102C600015861486128611861086178216821582A2
:102C70001482138219968D919C910E94A715982F0A
:102C8000882341F067E0CE010E94550F91E02F812B
:102C9000281390E0892FDF91CF9108958F929F9212
:102CA000AF92BF92EF92FF920F931F93CF93DF9358
:102CB000CDB7DEB761970FB6F894DEBF0FBECDBFBC
:102CC0007C01FC0100851185F8018781882309F4C6
:102CD0006BC0BE01665F7F4FC8010E942716882324
:102CE00009F462C0AE014F5F5F4FBE01665F7F4F68
:102CF000C8010E94DD10882309F456C08A81812C06
:102D0000912C540187FF06C0812C912CF8EFAF2E37
:102D1000BB24BA949A8549819B3309F057C02D8111
:102D200027FF54C040FD40C0042F10E030E020E0F9
:102D300073E0000F111F221F331F7A95D1F7B901DD
:102D4000A801407E57706627772790E0B0E0A0E0AA
:102D50008C019D01EBE0000F111F221F331FEA952C
:102D6000D1F7042B152B262B372B082919292A29B3
:102D70003B29013854EE15075FEF25073507A4F00E
:102D8000C901B8010E94C85220E030E040E05CE395
:102D90000E94B0534B015C0120E030E04EEF52EC5A
:102DA0000E941952811158C0F70186899789248998
:102DB00035898217930718F40196978B868B812C9F
:102DC000912C8EEFA82E82ECB82E49C0082F10E06F
:102DD000102F0027110F110F110FF8E04F9FA001C6
:102DE0001124042B152B012E000C220B330B082968
:102DF00019292A293B29903109F0BBCF6885662320
:102E000009F4B7CF70E08F81AB01481B5109CA01AB
:102E10009695982F8827979587950E947C51CB018E
:102E2000770FAA0BBB0B53E0000F111F221F331F9C
:102E30005A95D1F7007827703327005211092109DC
:102E40003109800F911FA21FB31F95018401082B28
:102E5000192B2A2B3B2B8DCFF701178A168A81E07D
:102E6000F70146895789248935894217530708F4A1
:102E700080E0F701838B808591850E944A1020E0D5
:102E800030E04EEF52ECC501B4010E941952F70137
:102E90008823D1F080829182A282B382F70160817F
:102EA00071818281938161960FB6F894DEBF0FBE67
:102EB000CDBFDF91CF911F910F91FF90EF90BF9009
:102EC000AF909F908F9008958389882339F380E095
:102ED00090E0AAE7B4EC80839183A283B383DECF32
:102EE00080918107815080938107811118C085E00E
:102EF000809381078091560728E1829FC0011124A9
:102F00008D53994F0E944E1690915607892F8F5FCF
:102F1000F1F39FEF8630D0F780935607089583EC46
:102F200096E00E944E163091D60620912404332359
:102F300049F0822F8064809324041092960781E0E8
:102F40000C944E112F7B2093240420E030E04AE7BC
:102F500054EC0E941952882319F081E0809396075F
:102F60000895BF92CF92DF92EF92FF920F931F933B
:102F7000CF93DF93CDB7DEB761970FB6F894DEBF7E
:102F80000FBECDBF7C018B01DC0119967C936E9343
:102F9000189783E0D82ECC24C394D8011996ED91CC
:102FA000FC911A9713861586148612861186108650
:102FB0001782168215821482138217961C92179715
:102FC00018961C9262E370E080E090E00E94340D5D
:102FD000BE01665F7F4FF801818592850E94A7152B
:102FE000882309F477C067E0CE010A960E94550F46
:102FF00099898913EDCFD80117968C9117978F5F18
:1030000017968C938A85883231F008F04AC0803157
:1030100011F08232E9F6F80180858F5F8087808128
:10302000811124C0818592850E941210BE01665FC5
:103030007F4FD80119968D919C910E94F30F40E02B
:1030400064EBF801818592850E94BF0FD801199623
:103050008D919C910E946C0FB82EF801818592850C
:103060000E941210B11002C0D801CC928A85803122
:1030700019F1AE014F5F5F4FBE01665F7F4FC80120
:103080000E94DD10882359F08D819A859B3311F4BD
:1030900087FD12C08F3391F058F48F31B9F080E082
:1030A0000EC08B3309F4B7CF823409F091CFB3CF80
:1030B0008F3571F08F3799F78CE001C08AE0F80105
:1030C0009381981708F084CF838382CF89E0F7CF6C
:1030D0008BE0F5CFD80117969C91911103C0DA943B
:1030E000D1105BCFF701138A178A168A0084F18505
:1030F000E02D9781992331F0B701665F7F4FCF01B3
:103100000E942716D70152968C9352971896ED91EC
:10311000FC911997148218968D919C910E944A10E7
:1031200061960FB6F894DEBF0FBECDBFDF91CF9191
:103130001F910F91FF90EF90DF90CF90BF90089577
:1031400082E090E0909354078093530783ED9AE0D8
:103150000C940315AF92BF92CF92DF92EF92FF9241
:103160000F931F93CF93DF93CDB7DEB765970FB65D
:10317000F894DEBF0FBECDBF8E010F5F1F4F85E1FC
:10318000F80111928A95E9F7F090D2070E942A0F70
:1031900065E18F2D0E94390E1092730480937404A0
:1031A000853109F047C078015E01F6E1AF0EB11C30
:1031B000680182E195E00E94170FF60181936F018B
:1031C000EA15FB05B1F789818130B1F52D89A80198
:1031D0004C5E5F4F80E031E3F70191917F018927D9
:1031E00098E087FF3DC0880F83279150D1F7E41600
:1031F000F50691F7281320C08091D607882391F116
:1032000081E02C899091D007291301C080E095E1DD
:10321000F801ADEBB7E001900D929A95E1F791E0DE
:103220009093D6079B8990FF1FC092FD1DC080938D
:10323000D50705C00E942A0F1092D50780E0659639
:103240000FB6F894DEBF0FBECDBFDF91CF911F91B7
:103250000F91FF90EF90DF90CF90BF90AF900895C7
:10326000880FC3CF81E0D3CF80E0E1CF0C94AA18C0
:10327000CF93FC018081882371F01082C28181810B
:10328000882321F061E08C2F0E94010C60E08C2FDC
:10329000CF910C94D30BCF910895CF939CEF980FBF
:1032A000933018F0C1E08B3079F48091930781114D
:1032B00004C0C0919407CC2351F010921E09809154
:1032C000120980FF32C0C0E08C2FCF91089583EDAA
:1032D0009AE00E9438191092120980911E0980FD0F
:1032E000F2CF82FDF0CF48EB5BE060E070E040930E
:1032F00013095093140960931509709316094093AC
:103300001709509318096093190970931A092AEB49
:1033100039E130931D0920931C0910921B0981602B
:103320008D7F8B7F80931E09CFCF82FDCCCF48EB62
:103330005BE060E070E040930709509308096093F8
:10334000090970930A0940930B0950930C09609383
:103350000D0970930E0920EA38E13093110920938A
:10336000100991E090930F0981608D7F8B7F80938E
:103370001209A9CF1092120910921E0983ED9AE04A
:103380000E943819ECEAFAE01182108287E0828309
:103390000E941E0881E00C94A5089EEF980F9230C1
:1033A00008F063C01092BE08833079F188EE9AE08D
:1033B0000E9403158FEE9AE00E94031580EC94EDB5
:1033C000A1E0B0E08093B3089093B408A093B5084F
:1033D000B093B6088093B7089093B808A093B90843
:1033E000B093BA088DEC99E19093BD088093BC0826
:1033F00083E08093BB088091BE0881608D7F8B7FC6
:103400008093BE0881E10C947C1588EE9AE00E94BE
:1034100038198FEE9AE00E94381982E10E947C15DB
:1034200080E395E7A0E0B0E08093B3089093B40800
:10343000A093B508B093B6088093B7089093B808E6
:10344000A093B908B093BA088DEC99E19093BD08A8
:103450008093BC0884E08093BB088091BE088160A3
:103460008D7F8B7F8093BE0808951092AD0A1092D5
:10347000AC0A8AE08093AE0A0E941E0880E00C9499
:10348000A5081F93CF93DF93EC018A819B81FC01F8
:103490002481222369F00E9438191D8281E08F83E4
:1034A00080E20E947C1580E0DF91CF911F9108950A
:1034B000888199810E94381911E01E838A819B813D
:1034C0002C8130E0FC01368325830E9403158FE1B7
:1034D0000E947C151D8381E0E7CF0F931F93CF934C
:1034E000DF93EC018091DF0B813021F0823061F0BD
:1034F00010E004C080E20E947C1511E0812FDF9172
:10350000CF911F910F9108951D811123B9F30E8161
:10351000011114C08881998101E0FC0104830E949B
:103520003819CE010E94411A882329F0109297077A
:103530000E941604DDCF0F831D82E0CF8A819B811C
:1035400011E0FC0114830E9438191D821F83102F83
:10355000D5CFCF93DF93EC018D81811119C09F816D
:10356000911116C02E81222369F08A819B81FC0172
:103570003481332381F0211108C0CE01DF91CF9136
:103580000C94411A88819981F2CF81E08F8380E089
:10359000DF91CF9108952C8130E0368325830E94FE
:1035A000031581E08D83F4CFCF9390E0009769F508
:1035B000C1E0C093B10A61E08091B20A0E94D30BCE
:1035C00084EF91E0A0E0B0E08093730990937409D8
:1035D000A0937509B0937609809377099093780941
:1035E000A0937909B0937A0984ED9AE190937D09CB
:1035F00080937C09C0937B0980917E0981608D7FD7
:103600008B7F80937E09CF9108950197E1F787ED35
:103610009BE00E94A91A86E48093DB0B8091DC0B6F
:10362000882359F08091DD0B882361F08091D90BBC
:103630009091DA0B66E40E94A01310929707CF9145
:103640000C9416048091D70B9091D80BF3CF90E097
:10365000009749F581EB9AE00E94761584EF91E09E
:10366000A0E0B0E08093670990936809A09369098E
:10367000B0936A0980936B0990936C09A0936D09CC
:10368000B0936E0987E29BE1909371098093700972
:1036900081E080936F098091720981608D7F8B7FBB
:1036A000809372090895019741F4109297070E9440
:1036B000160487ED9BE00C94A91A0895CF93DF932D
:1036C000EC01888199810E9438198A819B810E942E
:1036D00038191D82DF91CF9108951092AD0A109292
:1036E000AC0A109266091092720910927E098FEC52
:1036F0009BE00E945E1B87ED9BE00E945E1B8FECAF
:103700009BE00E945E1BE091CF0BF091D00B1482E6
:10371000E091D10BF091D20B14821092D50B109244
:10372000D60B87ED9BE00E945E1BE091D70BF091DA
:10373000D80B1482E091D90BF091DA0B148210921D
:10374000DD0B1092DE0B83ED9AE00E9438198AEDB2
:103750009AE00E94381981EE9AE00E94381988EEAA
:103760009AE00E9438198FEE9AE00E94381986EF8D
:103770009AE00E9438198DEF9AE00E94381981EB87
:103780009AE00E94761583EB9AE00E94761585EB0D
:103790009AE00E94761584E09BE00E94701586E016
:1037A0009BE00E94701588E09BE00E9470158AE003
:1037B0009BE00E94551286E59BE00E9455121092F4
:1037C000E00B1092AF0B1092B2081092BE0810924C
:1037D000E2081092D6081092FA081092CA081092C5
:1037E000060908951092A20B1092400B82E792E016
:1037F0000C946D1BCF93C82F1092A7091092A809A3
:103800001092A9091092AA090E94F21B1092790A3B
:1038100086E080939B0AC0939C0ACF910895CF9332
:10382000C62F1092820710925407109253070E94DD
:10383000F21B8091AE0A8C50823010F01092AE0ACA
:10384000809155078E7F8460809355071092900673
:1038500010928F0610929906109298061092A20666
:103860001092A1061092AB061092AA06109246087A
:103870001092520810925E0810926A081092760810
:1038800010928E0810929A081092120910921E0936
:1038900010923A0810922A09109236091092820763
:1038A000C11104C089E1CF910C947C15CF9108958A
:1038B0000E94611390912404882321F094609093D6
:1038C000240408959B7F909324048091970781118D
:1038D00007C0809123048D7F8B7F809323040895FC
:1038E0008FEC9BE00E948B1381112FC010929807E0
:1038F000809123048D7F80932304809197078823F0
:1039000009F498C087ED9BE00E948B13882309F48B
:1039100068C0209198063091990680919A069091FE
:103920009B062817390708F457C081E090E0909370
:103930009506809394068091940690919506019740
:1039400020919C06211152C0089520918F0630913C
:103950009006809191069091920628173907B8F148
:1039600081E090E090938C0680938B0680918B068B
:1039700090918C06019720919306222319F21092C0
:103980009306029708F4B2CF80919807833018F419
:103990008F5F8093980780919807833008F4B2CFA7
:1039A0008091230481FDAECF82608093230481E067
:1039B0000E944E118FEC9BE00E946D1A882309F43F
:1039C0009CCF60E082E892E00E940F1C96CF10929C
:1039D0008C0610928B06CACF109295061092940610
:1039E000AACF109299078091230476CF10929C065B
:1039F0000297B8F380919907833018F48F5F809312
:103A00009907809199078330A8F08091230482FD63
:103A100011C084608093230481E00E944E1187EDE1
:103A20009BE00E946D1A882329F060E085E992E00E
:103A30000C940F1C08950E94581C85E40E94CD0A26
:103A400020912404892B21F02860209324040895D8
:103A5000277FFBCFCF92DF92EF92FF928091820778
:103A6000882309F457C0C0902307D0902407E09022
:103A70002507F090260720E030E040ED51E4C70133
:103A8000B6010E947853181634F0C12CD12C80ED69
:103A9000E82E81E4F82E2091C3063091C4064091AF
:103AA000C5065091C606C701B6010E947853181684
:103AB00074F41092820760E08AEA92E00E940F1C80
:103AC00089E1FF90EF90DF90CF900C947C1580E31C
:103AD00095E7A0E0B0E080932B0990932C09A09388
:103AE0002D09B0932E0980932F0990933009A0934C
:103AF0003109B09332098AE29DE1909335098093B0
:103B00003409109233098091360981608D7F8B7F53
:103B100080933609FF90EF90DF90CF900895CF9378
:103B2000C82F10922A09109252089091DF0B8091B1
:103B300023048870992309F446C081113BC0923058
:103B400009F050C08091DD0B81114CC087ED9BE0E6
:103B50000E94411A882371F180E395E7A0E0B0E06C
:103B600080931F0990932009A0932109B093220903
:103B70008093230990932409A0932509B0932609E3
:103B80008FE89DE1909329098093280981E0C11174
:103B900001C080E08093270980912A0981608D7F90
:103BA0008B7F80932A0910929707CF910C9416046B
:103BB0008DE10EC00E94F21B60E090E080E00E9468
:103BC0000F1C8DE123C0C1110FC08111F1CF8CE119
:103BD0000E947C150E94F21B60E090E080E0CF9193
:103BE0000C940F1CCC2399F30E94F21B1092AD0A87
:103BF0001092AC0A8BE08093AE0A0E941E0880E00F
:103C00000E94A5088CE10E947C158EE1CF910C9456
:103C10007C158F929F92AF92BF92CF92DF92EF92DC
:103C2000FF921F93CF93DF93CDB7DEB768970FB6A0
:103C3000F894DEBF0FBECDBF182F10926A08809196
:103C4000AE0A8C30D9F481E08093AB0A8FEB92E01E
:103C50000E946D1B1092AE0A68960FB6F894DEBFF4
:103C60000FBECDBFDF91CF911F91FF90EF90DF90FE
:103C7000CF90BF90AF909F908F900895CE01019606
:103C80000E944204C988DA88EB88FC8820E030E092
:103C900040ED51E4C701B6010E947853181634F084
:103CA000C12CD12C80EDE82E81E4F82E8D889E88E1
:103CB000AF88B88C81E08093AB0A9091E00B9111B2
:103CC00009C08093E00B1093AE0A0E941E0888E1A1
:103CD0000E947C15A7019601C501B4010E9478538A
:103CE0001816ECF4E0915B0BF0915C0B20915D0BEE
:103CF00030915E0B80E69AEEA0E0B0E08083918385
:103D0000A283B38384839583A683B7833287218775
:103D10001087838581608D7F8B7F83879DCF1092F5
:103D2000E00B86E09BE00E94701588E09BE00E941B
:103D3000701588EE9AE00E9438198FEE9AE00E9482
:103D400038198ACF1092760891E09093AB0A90913F
:103D5000AE0A9D3039F48093AE0A0E941E0886E1B7
:103D60000C947C159C3031F48BEC92E00E946D1B1E
:103D70001092AE0A08958091AF0A9091B00A8330F4
:103D8000910591F1892B81F1109297070E941604F9
:103D900087ED9BE00E945E1B84EF91E0A0E0B0E025
:103DA0008093670990936809A0936909B0936A09A1
:103DB00080936B0990936C09A0936D09B0936E0981
:103DC00087E29BE1909371098093700910926F09CB
:103DD0008091720981608D7F8B7F80937209109230
:103DE000B00A1092AF0A08951092B00A1092AF0A6A
:103DF00087ED9BE00C94A91A9093B20B8093B10BC2
:103E0000109297070E9416048FEC9BE00E945E1BA5
:103E100084EF91E0A0E0B0E080935B0990935C09AF
:103E2000A0935D09B0935E0980935F099093600948
:103E3000A0936109B093620988E293E290936509C7
:103E40008093640910926309E6E6F9E0808181605D
:103E50008D7F8B7F808308959091AE0A981729F00B
:103E6000953091F020F4943089F080E008959630F8
:103E700011F19B30D1F78430B9F08630B1F78093DF
:103E8000AE0A81E090E009C0843051F08B3069F7D0
:103E90008BE08093AE0A90E080E00E94FC1EE5CFAC
:103EA0008093AE0A81E008958093AE0A82E090E0AC
:103EB0000E94FC1EF7CF8B30C1F68AE09BE00E9487
:103EC00081128DE08093AE0AD0CF10928E0880913F
:103ED0007F0790918007009751F00297A9F48BE03B
:103EE0000E942C1F1092800710927F0708958091E6
:103EF0008207811109C086E00E942C1F81E090E0BA
:103F00009093800780937F07089510929A0880917C
:103F10007F07909180078130910521F058F002973A
:103F200091F008958BE00E942C1F10928007109250
:103F30007F07089584E00E942C1F82E090E0909318
:103F4000800780937F071092360908958230A9F583
:103F50001092B20883ED9AE00E94381987ED9BE039
:103F60000E945E1B81EE9AE00E94031580E395E7B4
:103F7000A0E0B0E08093A7089093A808A093A908B8
:103F8000B093AA088093AB089093AC08A093AD08B7
:103F9000B093AE0886EA9FE19093B1088093B00891
:103FA00081E08093AF088091B20881608D7F8B7F24
:103FB0008093B2088EE00C947C151092AD0A10929A
:103FC000AC0A89E08093AE0A0E941E0880E00C943F
:103FD000A508FC0101900020E9F73197AF01481BCB
:103FE000590BBC0185E794E00C94A60D86ED92E098
:103FF0000C94E91FCF93DF930E94F009EC010E941B
:10400000F61F8C0F9D1FDF91CF9108958F929F9285
:10401000AF92BF920F931F93CF93DF93CDB7DEB7CD
:10402000A1970FB6F894DEBF0FBECDBF19A24230E4
:1040300008F44AE08E010F5D1F4F842E912CB12CA5
:10404000A12CA50194010E943B51E62FB901CA01A0
:10405000EA30F4F4E05DD801EE938D01232B242B9C
:10406000252B79F790E080E0109719F0CD010E94A0
:10407000E91FA1960FB6F894DEBF0FBECDBFDF914A
:10408000CF911F910F91BF90AF909F908F90089507
:10409000E95CE1CF4F925F926F927F928F929F92F5
:1040A000AF92BF92CF92DF92EF92FF920F931F9346
:1040B000CF936B017C01742EAC019B010E941D54B7
:1040C000882399F089ED92E0CF911F910F91FF9095
:1040D000EF90DF90CF90BF90AF909F908F907F90A8
:1040E0006F905F904F900C94E91F46015701E89440
:1040F000B7F82FEF3FEF4FE75FE7C501B4010E942C
:104100001D5481110DC02FEF3FEF4FE75FE7C50151
:10411000B4010E94195218161CF48DED92E0D4CF10
:104120002FEF3FEF4FE75FE4C701B6010E947853DE
:1041300018161CF481EE92E0C7CF2FEF3FEF4FE748
:104140005FECC701B6010E94195287FDF3CF20E052
:1041500030E0A901C701B6010E94195210E000E049
:1041600087FF0AC06DE285E794E00E94A3098C01F5
:10417000F7FAF094F7F8F094C0E060E070E080E0C7
:104180009FE37C1641F020E030E040E251E40E94E1
:104190001E52CF5FF6CFA70196010E94AD512B01B1
:1041A0003C010E9497524B015C014AE00E940620AC
:1041B0007C01E00EF11ECC23C1F1C501B4010E94C7
:1041C000C6529B01AC01C301B2010E94AC514B012C
:1041D0005C016EE285E794E00E94A309E80EF91EF7
:1041E000C15018F120E030E040E251E4C501B401D3
:1041F0000E94B0532B013C010E9497524B01B12CFD
:10420000A12C4AE0C501B4010E940620E80EF91E67
:10421000C501B4010E94C6529B01AC01C301B201A9
:104220000E94AC514B015C01DBCFC701CF911F91C4
:104230000F91FF90EF90DF90CF90BF90AF909F9045
:104240008F907F906F905F904F9008950C944A20CC
:10425000CF93DF930E944A20EC010E94F61F8C0F3F
:104260009D1FDF91CF910895CF92DF92EF92FF9241
:104270001F93CF93DF93EC016A017B0120E030E0D4
:10428000A901CB01B6010E94195287FD34C020E07C
:1042900030E048EC52E4C701B6010E94785318168A
:1042A00074F11C81612F70E090E080E00E94C852A0
:1042B000A70196010E94B05320E030E048EC52E4A0
:1042C0000E941E520E947D53D62EF12CE12CE11645
:1042D000E8F49C81E91658F461E0ED1408F060E020
:1042E000EA81FB81EE0DFF1D80810E94D30B8FEFD1
:1042F000E81AF80AECCFC12CD12C7601D2CFC12C10
:10430000D12C88ECE82E82E4F82ECBCFDF91CF9130
:104310001F91FF90EF90DF90CF9008953F924F92C2
:104320005F926F927F928F929F92AF92BF92CF9245
:10433000DF92EF92FF920F931F93CF93DF9300D002
:1043400000D0CDB7DEB79E838D83CB01BA010E942A
:104350009052AD81BE811D967C936E931C971A96E8
:104360002D913C911B97A901461B570B9E96ED90F2
:10437000FC909F97E61AF70A9F967C936E939E9700
:1043800099962C91222331F0519541955109F19440
:10439000E194F108ED81FE8130A4BA01550F880B3C
:1043A000990B0E94C8524B015C0110E000E03110F3
:1043B0000DC0AD81BE8150962D913D914D915C9186
:1043C00053970E94B0530E9490528B01B701FF0C8B
:1043D000880B990B0E94C8526B017C01AD81BE8194
:1043E00094968D919D910D90BC91A02D89839A8377
:1043F000AB83BC83ED81FE81208D318D428D538D49
:10440000C701B6010E94B05329813A814B815C817A
:104410000E941E522B013C01B801110F880B990B11
:104420000E94C8529B01AC01C301B2010E94AD5170
:104430000E9490522B01AD81BE811F967C936E939A
:104440001E9754962D913D914D915C915797C501C2
:10445000B4010E94B05329813A814B815C810E9452
:10446000B053ED81FE81248D358D468D578D0E9490
:10447000AD514B015C01AD81BE815C968D929D92E8
:10448000AD92BC925F973320A1F050962D913D9153
:104490004D915C915397C701B6010E94B053A5019D
:1044A00094010E94AD51ED81FE81648F758F868FDE
:1044B000978FAD81BE815C968C905C975D969C9049
:1044C0005D975E96AC905E975F96BC905F979A966C
:1044D0000D911C91B801012E000C880B990B0E94C4
:1044E000C8526B017C019B01AC01B401C5010E9463
:1044F000195287FD16C0ED81FE8164A575A5072EB2
:10450000000C880B990B0E94C8526B017C019B0127
:10451000AC01B401C5010E947853181614F064016F
:104520007501C601D701ED81FE81848F958FA68F1D
:10453000B78FB201550C880B990B0E94C852960197
:10454000A7010E94AD510E949052601771074CF074
:10455000AD81BE819C960D911C91601771070CF482
:104560008B01ED81FE8117870687F4806F2D70E047
:1045700090E080E00E94C8524B015C01B801110F2D
:10458000880B990B0E94C8529B01AC01C501B40174
:104590000E94B05320E030E048EC52E40E941E52EA
:1045A0000E947D53F61608F46F2DAD81BE81DF9613
:1045B0006C9326960FB6F894DEBF0FBECDBFDF9189
:1045C000CF911F910F91FF90EF90DF90CF90BF9010
:1045D000AF909F908F907F906F905F904F903F90A3
:1045E0000895CF92DF92EF92FF92CF93DF93CDB7F2
:1045F000DEB768970FB6F894DEBF0FBECDBFCE0111
:1046000001960E944204C980DA80EB80FC80809190
:10461000130B882331F0B701A6018AE09BE00E94CA
:104620008E2180915F0B882331F0B701A60186E5CA
:104630009BE00E948E2168960FB6F894DEBF0FBEF5
:10464000CDBFDF91CF91FF90EF90DF90CF90089595
:104650001F93CF93DF93CDB7DEB768970FB6F8946B
:10466000DEBF0FBECDBF90E0009709F045C080913E
:10467000B10B9091B20B8230910580F1029799F1C4
:1046800084EF91E0A0E0B0E080935B0990935C0937
:10469000A0935D09B0935E0980935F0990936009D0
:1046A000A0936109B093620988E293E2909365094F
:1046B0008093640981E08093630980916609816039
:1046C0008D7F8B7F8093660968960FB6F894DEBF66
:1046D0000FBECDBFDF91CF911F91089585EB9AE07A
:1046E0000E947615CDCF81E08093B50A61E080917C
:1046F000B60A0E94D30BC4CF019731F7EBE8F6E07E
:10470000DE0111968BE197E044AD55AD66AD77AD16
:104710004D935D936D937D9378968E179F07A1F7C8
:104720008091B10B9091B20B81309105B9F0029755
:1047300009F442C08091130B882339F08AE09BE092
:104740000E9481128DE08093AE0A80915F0B8823D6
:1047500011F186E59BE00E9481121DC069817A817A
:104760008B819C810E94975281E08093130B862F4E
:1047700090E09093150B8093140B70E090E080E034
:104780000E94C652AB01BC018AE09BE00E948E21D0
:1047900085E10E947C15109297070E9416048FEC09
:1047A0009BE068960FB6F894DEBF0FBECDBFDF91D9
:1047B000CF911F910C94A91A88EE9AE00E940315DC
:1047C0008FEE9AE00E94031511E01093070B61E051
:1047D0008091060B0E94D30B1093090B61E080912E
:1047E000080B0E94D30B69817A818B819C810E9486
:1047F00097521092E00B10935F0B862F90E09093EE
:10480000610B8093600B70E090E080E00E94C652E4
:10481000AB01BC0186E59BE00E948E2187E1B9CF08
:104820008F929F92AF92BF92CF92DF92EF92FF92C0
:104830000F931F93CF93DF93CDB7DEB761970FB67A
:10484000F894DEBF0FBECDBF91E3892E94E4992E7C
:1048500099E4A92E90E5B92E89829A82AB82BC8216
:1048600091E09D834E835F83688779870A871B87E2
:104870002C873D87CE86DF86E88AF98AF12CE12CE9
:10488000882319F081E1E82EF12CCE0101966C010C
:1048900010E000E0F60191906F015701A00EB11EEB
:1048A000C5010E941A51981621F0692DC5010E9478
:1048B00022510F5F1F4F0131110561F761960FB64D
:1048C000F894DEBF0FBECDBFDF91CF911F910F9146
:1048D000FF90EF90DF90CF90BF90AF909F908F9020
:1048E0000895CF92DF92EF92FF920F931F93CF9391
:1048F000DF93EB01811145C090E080E06E0121E182
:10490000C20ED11C8E017C01EC1AFD0AC701800F7A
:10491000911F0E941A51F80181938F01EC15FD053A
:10492000A9F788819981AA81BB8181339444A944E4
:10493000B045E1F48C818130C9F46D817E818F8135
:1049400098850E944A12892B89F069857A858B8522
:104950009C850E944A12892B49F06D857E858F8542
:1049600098890E944A1221E0892B09F420E0822FC5
:10497000DF91CF911F910F91FF90EF90DF90CF903B
:10498000089581E190E0BACFFF920F931F93CF93E8
:10499000DF93CDB7DEB7C456D1090FB6F894DEBFAA
:1049A0000FBECDBFFC01F1804F2D50E08E010F5F97
:1049B0001F4FBC01C8010E9447558091C6008091DD
:1049C000C6008091C1008F778093C1008091C100A3
:1049D00088608093C100F8018E2F801B8F1588F4AA
:1049E00081918093C6008091C00086FFFCCF8091AA
:1049F000C00080648093C0008091C6008091C60092
:104A0000EBCFCC59DF4F0FB6F894DEBF0FBECDBF52
:104A1000DF91CF911F910F91FF900C9444122F9230
:104A20003F924F925F926F927F928F929F92AF923E
:104A3000BF92CF92DF92EF92FF920F931F93CF938B
:104A4000DF93CDB7DEB7C75FD1400FB6F894DEBFB6
:104A50000FBECDBF84E6E7E6F3E0DE01AB59BF4F02
:104A600001900D928A95E1F780E69AEEA0E0B0E021
:104A700080937F0990938009A0938109B093820964
:104A80008093830990938409A0938509B093860944
:104A90008DE991E1909389098093880910928709A3
:104AA00080918A0983608B7F80938A09A896EFADF5
:104AB000A897E550EA3308F05EC0F0E08827EC598B
:104AC000FA4D8F4F0C949051272ABB254D26BB25BC
:104AD000BB25BB25BB25BB25BB25BB25BB25BB25D6
:104AE000BB25E9250B26382642265626D525C42681
:104AF000082737279127BB25BB25A3270B28672825
:104B00009E258328B0283A29D628CC29BB25BB2549
:104B1000BB25FF29BB25BB25BB25BB25BB25BB254D
:104B2000332A432A4F2AFC2A6C2BA32C6B26F62C03
:104B3000D02DC22E0B2FCA2F8C309A30C090230458
:104B4000D0902404E0902504F090260461E2CE0188
:104B500001960E94D811CF82D886E986FA868BE02A
:104B60008A83CE0101960E94C111CE0101960E9456
:104B7000C42410926203C950DE4F0FB6F894DEBF12
:104B80000FBECDBFDF91CF911F910F91FF90EF909E
:104B9000DF90CF90BF90AF909F908F907F906F905D
:104BA0005F904F903F902F900895109223041092A1
:104BB0002404109225041092260461E2CE0101968D
:104BC0000E94D8111F82188619861A868BE08A8364
:104BD000B5C1CE0187539F4F0E94F60A88E0FE01BF
:104BE000E753FF4FDE01AC52BE4F01900D928A9504
:104BF000E1F762E1CE0101960E94D8118FE08A832D
:104C000088E0FE01EC52FE4FDE01179601900D92F6
:104C10008A95E1F793C11092230410922404109214
:104C2000250410922604A9969FADA9971092AD0A6B
:104C30001092AC0A9093AE0A9B3011F0973039F481
:104C4000AA968FADAA97869583708093DF0BAA965C
:104C50008FADAA9780FF0CC09B3051F48BE00E946F
:104C60004D19882329F00E941E0880E00E94A508A3
:104C70001091AE0A64E1CE0101960E94D8111F8303
:104C800088E0A5CF8091AE0A0E944D19882329F0B3
:104C90000E941E0880E00E94A508CE0101960E9495
:104CA0003912CE0101960E94C42465CF8091AE0ACC
:104CB0008B3019F08450833040F41092230410920A
:104CC0002404109225041092260460E085EE92E000
:104CD0000E940F1CE2CF81E08093820781E090E088
:104CE00090935407809353071092A20B1092400B9D
:104CF0001092AD0A1092AC0A1092660910927209D5
:104D000010927E0983ED9AE00E9438198AED9AE0AC
:104D10000E94381981EE9AE00E94381981EB9AE0DE
:104D20000E94761583EB9AE00E9476158AE09BE05C
:104D30000E9455128091550781608B7F80935507A3
:104D4000C0902307D0902407E0902507F090260715
:104D500020E030E040ED51E4C701B6010E947853F5
:104D6000181634F0C12CD12C30EDE32E31E4F32EA3
:104D7000C092C706D092C806E092C906F092CA0651
:104D80008AE10E947C1589CFE5E6F0E0EC0FFD1F7B
:104D90003396ABE8B6E085E690E08C0F9D1F4B960E
:104DA0004191519161917191DC964D935D936D9319
:104DB0007C93DF9758968E179F0791F788E1E5E679
:104DC000F0E0EC0FFD1F3396DE01AE5DBE4F0190AB
:104DD0000D928A95E1F768E1CE0101960E94D81103
:104DE0008FE18A8388E1FE01EE5DFE4FDE011796BA
:104DF00001900D928A95E1F7CE0101960E94C111B2
:104E0000CE0101960E94C42488E10E94A011B3CE75
:104E1000ABE8B6E0CE0187539F4F2BE137E0182F68
:104E2000092FDC964D915D916D917C91DF97FC018E
:104E30004193519361937193CF0158962A173B0781
:104E400081F788E1E12FF02FDE01A65FBE4F0190D0
:104E50000D928A95E1F769E1CE0101960E94D81181
:104E60008FE18A8388E1FE01E65FFE4FCDCEA996F1
:104E70006FADA9976093D30B862F90E0E091CF0B95
:104E8000F091D00B96838583E091D10BF091D20BFA
:104E900096838583AA968FADAA978093DB0B282FE4
:104EA00030E0E091D70BF091D80B36832583E09169
:104EB000D90BF091DA0B368325836093B70B80937F
:104EC000B80B87EB9AE00E94A013A9966FADA99743
:104ED0008EEB9AE00E94A013AA966FADAA9785EC7C
:104EE0009AE00E94A013AA966FADAA978CEC9AE064
:104EF0000E94A0130091BC0A1091CA0A6AE1CE0177
:104F000001960E94D81189E08A830F831887CE0109
:104F100001960E94C111CE0101960E94C4248AE12B
:104F200074CF0091BC0A1091CA0A6BE1CE010196C0
:104F30000E94D81189E08A830F831887CE010196D9
:104F40000E94C111AECEAA968EAD9FADAA97909346
:104F5000920680939106AC968EAD9FADAC979093E0
:104F60009B0680939A06AE968EAD9FADAE979093BA
:104F7000A4068093A306E0968EAD9FADE097909334
:104F8000AD068093AC06E2968EAD9FADE29790930E
:104F9000B3068093B206E4968EAD9FADE4979093EE
:104FA000B8068093B706E6968EAD9FADE6979093D0
:104FB000BD068093BC06E8968EAD9FADE8979093B2
:104FC000C2068093C10682E1E5E6F0E0EC0FFD1F2A
:104FD0003396DE01A957BE4F01900D928A95E1F7F5
:104FE0006EE1CE0101960E94D81189E18A8382E1A7
:104FF000FE01E957FE4FDE01179601900D928A954A
:10500000E1F7CE0101960E94C111CE0101960E94E6
:10501000C4248EE1FACE00919A0610919B06A091CD
:10502000A306B091A406E091AC06F091AD066091A4
:10503000B2067091B3064091B7065091B806209120
:10504000BC063091BD068091C1069091C206E090E9
:105050009106F0909206CB58DE4FF982E882C55750
:10506000D140C958DE4F19830883C757D140C7586C
:10507000DE4FB983A883C957D140C558DE4FF983A5
:10508000E883CB57D140C358DE4F79836883CD572F
:10509000D140C158DE4F59834883CF57D140CF57B5
:1050A000DE4F39832883C158D140CD57DE4F9983D5
:1050B0008883C358D1406FE1CE0101960E94D81178
:1050C00089E18A8382E1FE01EB58FE4F9DCDCE013E
:1050D00087539F4F0E94420488E1FE01E753FF4F30
:1050E000DE01AE50BF4F01900D928A95E1F760E26C
:1050F000CE0101960E94D8118FE18A8388E1FE01DA
:10510000EE50FF4F81CD05E610E00C0F1D1F0D5F27
:105110001F4FC8010E94710880E1F801DE01A75508
:10512000BE4F01900D928A95E1F762E2CE010196A1
:105130000E94D81180E1FE01E755FE4FDE0117966F
:1051400001900D928A95E1F787E18A83CE0101965D
:105150000E94C111CE0101960E94C42482E255CE64
:1051600080E1E7E5F7E0DE01A753BF4F01900D9224
:105170008A95E1F780E1FE01E753FF4FDE01A75674
:10518000BE4F01900D928A95E1F763E2CE01019640
:105190000E94D81180E1FE01E756FE4FDE0117960E
:1051A00001900D928A95E1F787E111CD60908F060D
:1051B0007090900680909806909099064090A10675
:1051C0005090A2060091AA061091AB068091AF06FE
:1051D0000E943D0C5C018091B4060E943D0C6C0164
:1051E0008091B9060E943D0C7C018091BE060E9410
:1051F0003D0CCD59DE4F79826882C356D140CB59E0
:10520000DE4F99828882C556D140C959DE4F5982F6
:105210004882C756D140C759DE4F19830883C95603
:10522000D140C559DE4FB982A882CB56D140C3596F
:10523000DE4FD982C882CD56D140C159DE4FF982A6
:10524000E882CF56D140CF58DE4F99838883C1572B
:10525000D14065E2CE0101960E94D81182E1FE01A3
:10526000ED59FE4FDE01179601900D928A95E1F7F8
:1052700089E1ADCCA9968FADA997982F9F779230F1
:1052800009F461C070F59923B1F1913009F449C076
:105290008091B70A9091C50A892B9091BE0A892BFB
:1052A0009091CC0A892B8093A20BCE0187539F4FFC
:1052B0000E94F60A88E0FE01E753FF4FDE01A45387
:1052C000BE4F01900D928A95E1F764E2CE010196FE
:1052D0000E94D8118FE08A8388E0FE01E453FE4FDC
:1052E00093CC933009F441C0943091F687FF4FC0BE
:1052F00081EE9AE004C087FF05C087EB9AE00E9428
:105300003819C6CF87EB9AE00E9403158091B80A3E
:105310008111E090BC0A6E2D87EB9AE00E94A013E9
:10532000B7CF87FF03C08EEB9AE0E9CF8EEB9AE010
:105330000E9403158091BF0A8111F090C30A6F2D5E
:105340008EEB9AE0EBCF87FF03C085EC9AE0D7CFD6
:1053500085EC9AE00E9403158091C60A81110091A4
:10536000CA0A602F85EC9AE0D9CF87FF03C08CEC86
:105370009AE0C5CF8CEC9AE00E9403158091CD0A8B
:1053800081111091D10A612F8CEC9AE0C7CF81EE88
:105390009AE00E9403157CCF81E20E94CD0A4C0165
:1053A00080E20E94CD0A5C01F0909307009194077F
:1053B00085E40E94CD0A6C0184E40E94CD0A9C0120
:1053C00091E0892809F090E010E090FB10F991E05D
:1053D000AB2809F090E090FB11F991E0CD2809F09D
:1053E00090E090FB12F991E0232B09F090E090FB04
:1053F00013F9F0FA14F900FB15F966E23CCC8BE0E6
:10540000E5E6F0E0EC0FFD1F3396DE01A754BE4F3A
:1054100001900D928A95E1F76AE2CE0101960E9411
:10542000D8118BE0FE01E754FE4FDE011796019084
:105430000D928A95E1F782E18A83CE0101960E945E
:10544000C111CE0101960E94C4248AE2DECC1092E2
:10545000230410922404109225041092260461E083
:1054600082EF92E035CC61E3CE0101960E94D81123
:105470008BE08A8386E190E0A4E0B1E08F83988797
:10548000A987BA875BCD62E3CE0101960E94D8114D
:105490008BE08A8387E395E3A0E0B0E0EFCFE4966A
:1054A0006CAD7DAD8EAD9FADE4970E94C6526B0191
:1054B0007C01E0966CAD7DAD8EAD9FADE0970E9416
:1054C000C6524B015C01AC966CAD7DAD8EAD9FAD0F
:1054D000AC970E94C6522B013C0120E030E84BEB18
:1054E00054E4C701B6010E94195287FF07C0C12CBE
:1054F00020E8D22E2BEBE22E24E4F22E20E030E83E
:105500004BEB54E4C501B4010E94195287FF07C058
:10551000812C90E8992E9BEBA92E94E4B92E20E0E3
:1055200030E84BEB54E4C301B2010E94195287FFEB
:1055300007C0412C80E8582E8BEB682E84E4782E2F
:10554000E8964CAD5DAD6EAD7FADE897EC968CAD59
:105550009DADAEADBFADEC97409267075092680726
:105560006092690770926A0780926B0790926C074D
:10557000A0926D07B0926E07C0926F07D09270072D
:10558000E0927107F0927207409377075093780783
:105590006093790770937A0780937B0790937C07D9
:1055A000A0937D07B0937E0784E1E5E6F0E0EC0F81
:1055B000FD1F3396DE01A15BBE4F01900D928A95CF
:1055C000E1F763E3CE0101960E94D8118BE18A8353
:1055D00084E1FE01E15BFE4FDE01179601900D9222
:1055E0008A95E1F7CE0101960E94C111CE01019684
:1055F0000E94C42483E309CC8091770790917807B7
:10560000A0917907B0917A07C452DE4F88839983BD
:10561000AA83BB83CC5DD14080917B0790917C07AE
:10562000A0917D07B0917E07C052DE4F8883998399
:10563000AA83BB83C05ED14060916F0770917007F1
:1056400080917107909172070E9497526B017C01C3
:1056500060916B0770916C0780916D0790916E0758
:105660000E9497524B015C01609167077091680737
:105670008091690790916A070E9497522B013C0123
:1056800064E3CE0101960E94D8118BE18A834F8298
:10569000588669867A868B869C86AD86BE86CF863E
:1056A000D88AE98AFA8AC452DE4F88819981AA8110
:1056B000BB81CC5DD1408B8B9C8BAD8BBE8BC052A4
:1056C000DE4F88819981AA81BB81C05ED1408F8BDA
:1056D000988FA98FBA8F32CCA9961FADA997AA9699
:1056E0000FADAA97AB965FADAB97AC964FADAC97AD
:1056F000AD963FADAD97AE962FADAE97AF969FAD41
:10570000AF97E0968FADE09719830A835B834C8354
:105710003D832E839F83888787EB9AE015FF07C11F
:105720000E9403158EEB9AE016FF04C10E94031538
:1057300085EC9AE017FF01C10E9403158CEC9AE0FA
:1057400000FFFEC00E9403156981617085E30E941D
:10575000D30B6A8163FB662760F987E10E94D30B54
:105760006A8166FB662760F986E10E94D30B698136
:1057700062FB662760F98FE10E94D30B6A8167FBA9
:10578000662760F981E10E94D30B6981669561709B
:105790008BE10E94D30B6A8162FB662760F988E186
:1057A0000E94D30B6A816695617089E10E94D30BD8
:1057B0006A816295617080E10E94D30B6A8165FB0A
:1057C000662760F98FE00E94D30B6B8161708EE0D9
:1057D0000E94D30B6B81669561708DE00E94D30BA4
:1057E0006B8162FB662760F98CE00E94D30B6B81B2
:1057F00067FB662760F985E20E94D30B6C816170BC
:1058000084E20E94D30B6C816695617087E20E94EE
:10581000D30B6C8162FB662760F986E20E94D30B92
:105820006C8163FB662760F989E20E94D30B6C816F
:105830006295617088E20E94D30B6C8165FB6627DC
:1058400060F98BE20E94D30B6C8166FB662760F9DE
:105850008AE20E94D30B6B8163FB662760F98CE2BE
:105860000E94D30B6B81629561708EE20E94D30B14
:105870006B8165FB662760F98DE20E94D30B6B811B
:1058800066FB662760F98FE20E94D30B698163FB98
:10589000662760F98DE10E94D30B69816295617082
:1058A0008EE10E94D30BC753DF4F1882C95CD040F2
:1058B000C653DF4F1882CA5CD040C553DF4F1882F1
:1058C000CB5CD040C453DF4F1882CC5CD040C35374
:1058D000DF4F1882CD5CD040C253DF4F1882CE5CC0
:1058E000D040C153DF4F1882CF5CD040C053DF4F50
:1058F0001882C05DD040CE0187539F4F0E94F60AA8
:1059000088E0FE01E753FF4FDE01AC53BE4F01902C
:105910000D928A95E1F765E3CE0101960E94D811B8
:105920008FE08A8388E0FE01EC53FE4F6DC90E9430
:105930003819F8CE0E943819FBCE0E943819FECED5
:105940000E94381901CFCE0101960E943912CE0172
:1059500001960E94C42410920A0862E576E083EC66
:1059600096E00E94B1176DE276E08BED96E00E9422
:10597000B11768E076E083EF96E00E94B11763EE1E
:1059800075E08BE097E00E94B1176EEB75E083E263
:1059900097E00E94B11769E975E08BE397E00E94F8
:1059A000B1178091650790916607B0E0A0E0809301
:1059B000FF0790930008A0930108B093020880931A
:1059C000030890930408A0930508B093060880E7A5
:1059D00097E1909309088093080810920708809136
:1059E0000A0883608B7F80930A08C5C8A9968FAD8B
:1059F000A997882309F4BFC0AA968FADAA97809370
:105A0000510AAB968FADAB978093520AAF968CAD8F
:105A10009DADAEADBFADAF978093530A9093540A3E
:105A2000A093550AB093560AE3968CAD9DADAEADEA
:105A3000BFADE3978093570A9093580AA093590AF1
:105A4000B0935A0AE7968CAD9DADAEADBFADE7976A
:105A500080935B0A90935C0AA0935D0AB0935E0A00
:105A6000EB968CAD9DADAEADBFADEB9780935F0A6D
:105A70009093600AA093610AB093620AEF968CAD8E
:105A80009DADAEADBFADEF978093630A9093640A6E
:105A9000A093650AB093660AC158DF4F8881998147
:105AA000AA81BB81CF57D0408093670A9093680A40
:105AB000A093690AB0936A0ACD57DF4F8881998114
:105AC000AA81BB81C358D04080936B0A90936C0A23
:105AD000A0936D0AB0936E0AC957DF4F88819981F0
