:100000000C94CB030C9496400C946B400C944040A1
:100010000C9415400C94EA3F0C94BF3F0C94943F11
:100020000C94693F0C94FC030C94FC030C94FC03AB
:100030000C94FC030C94FC030C94FC030C94FC0344
:100040000C94FC030C94FC030C94FC030C94FC0334
:100050000C94FC030C94FC030C94FC030C941F3FC5
:100060000C94FC030C9421410C94FC030C94FC03B1
:100070000C9464420C948D420C94FC030C94FC038D
:100080000C94FC030C94FC030C94FC030C94FC03F4
:100090000C94FC030C94FC030C94FC030C94FC03E4
:1000A0000C94FC030C94FC030C94FC030C94FC03D4
:1000B0000C94FC030C94FC030C94FC030C94F8418A
:1000C0000C94FC030C94FC030C94FC030C94EB4088
:1000D0000C94C1400C94FC030C94FC030C94FC03A2
:1000E0000C94FC030C947F120C94E4230C94B13A0E
:1000F0000C94A90A0C94A50A0C945C120C945B094C
:100100000C94943A0C94C80A0C941D3E0C945D25F2
:100110000C9419280C94D60A0C947B2F0C94FC2672
:100120000C94EA3D0C946A090C9430250C94F62248
:100130000C94E4120C94A8220C94F0260C942B1C22
:100140000C94B60A0C94A20D0C94A9270C94382D8B
:100150000C94981C0C94813E0C9445170C94BA0A8C
:100160000C94B91F0C94B20D0C94832F0C94772F20
:100170000C94C31B0C94AC260C9499120C94542E22
:100180000C947F2F0C949B0A0C94213B0C94BA097D
:100190000C94F01F0C94F03A0C94DB0A0C94C612E9
:1001A0000C9450240C94C33A0C94452D0C94E00A02
:1001B0000C9477110C948F120C94193B0C94BC1274
:1001C0000C94BB0D0C94D4260C949F100C94213EDF
:1001D0000C94C00A0C94B91B0C94E50F0C94B31149
:1001E0000C9483250C94B00A0C94C83A0C94CE0A53
:1001F0000C9418100C9420100C9443180C940023A9
:100200000C94A10A0C949B3A0C94762C0C948712B3
:100210000C9414250C94A3120C94E10F0C943E241E
:100220000C9413230C946E2B0C94033E0C948A0DA7
:100230000C94EE120C94AD120C94C40A0C94BF19D9
:100240000C94B41B0C94B5230C947C2A0C948E2D26
:100250000C947D2F0C940B430C94E7250C94CA222C
:100260000C948C090C9461120C9479260C94792FBF
:100270000C94B72B0C94F83D0C94B83A0C94BA0D2E
:100280000C946F1B0C94DA120C94A3290C94712318
:100290000C946B120C9453120C94EF130C947A225E
:1002A0000C940A230C94D0120C94FF150C947E0924
:1002B0000C94AD0A0C94253E0C94AA0D0C942823A2
:1002C0000C9441190C94F3120C944F3B0C94B824E9
:1002D0000C9461190C94D20A0C9492180C94DA3E86
:1002E0000C94A33A0C943A2D0C94812F0C94E02694
:1002F0000C9450290C9475120C94220A0C945D22D3
:100300000C9494220C94DC0A0C949A0D20E28692B0
:100310000020E286980020E286970020E29AA00062
:10032000202074616E3A200020206970436F756E42
:10033000743A200020206970436F756E743A200073
:1003400020207076506B436F756E743A2000202029
:100350007076506B3A2000202070763A20002020E2
:100360006F75743A2000207365633A200020205492
:10037000643A200020204B643A2000202054693A3F
:10038000200020204B693A200020204B703A2000AA
:100390004D697865645F504900436F68656E436FCF
:1003A0006F6E5F5049004E6F4F76657273686F6F66
:1003B000745F50490044616D7065645F5049005A34
:1003C0004E5F5049004D697865645F504944004371
:1003D0006F68656E436F6F6E5F504944004E6F4F9C
:1003E00076657273686F6F745F5049440044616D45
:1003F0007065645F504944005A4E5F504944002084
:1004000054756E696E67204D6574686F643A20009C
:1004100020286C6F772073616D706C652072617439
:100420006529002028676F6F642073616D706C65AB
:1004300020726174652900205461752F53616D70BD
:100440006C6520506572696F643A200020286469E9
:1004500066666963756C7420746F20636F6E747266
:100460006F6C290020286176657261676520636F73
:100470006E74726F6C6C6162696C697479290020AA
:10048000286561737920746F20636F6E74726F6C6E
:100490002900205461752F446561642054696D659D
:1004A0003A20202020200020546175205365633AB3
:1004B00020202020202020202020200020446561B2
:1004C000642054696D65205365633A202020202004
:1004D000002050726F63657373204761696E3A2024
:1004E00020202020200020507620446966663A2093
:1004F0002020202020202020202000205076204D69
:10050000696E3A202020202020202020202020005A
:10051000205076204D61783A202020202020202075
:1005200020202020002050762053746172743A20DD
:1005300020202020202020202000204970205076DC
:100540003A202020202020202020202020200020B1
:10055000E286930020E286910020497020536C6F60
:1005600070653A20202020202020202020002049D3
:1005700070205365633A2020202020202020202056
:100580002020002053616D706C65205365633A2014
:100590002020202020202000204F757470757420AA
:1005A000537465703A2020202020202000204F75B1
:1005B000747075742053746172743A202020202066
:1005C00020007265766572736535540072657665D4
:1005D00072736549500064697265637435540064D0
:1005E000697265637449500020436F6E74726F6C5A
:1005F0006C657220416374696F6E3A20002041423D
:100600004F52543A207076496E7374203E206553E1
:10061000746F70002020736574746C696E6720209D
:10062000E2A4B3E2A4B300202070763A2000202098
:100630006F75743A2000207365633A2000204142B0
:100640004F52543A207076496E7374203E206553A1
:10065000746F7000005EBCE2613FDD83C29C7E204F
:10066000A3FD1F41009D23BE46DB65F88C11AF3210
:10067000CA57E97400002100240027002A002D0039
:100680003000330001010000040107010A010000ED
:100690002200250028002B002E003100340002012A
:1006A0000000050108010B010000200023002600C6
:1006B00029002C002F003200000100000301060178
:1006C00009010505050507050808080802020202D8
:1006D0000A0A0808040404040101010101010101DE
:1006E0000303030303030303040707070C0C0C0CA9
:1006F0000C0C0C0C02020202060606060606060692
:100700000B0B0B0B0B0B0B0B01021020200808101E
:100710002040102040800201020108040201010271
:10072000040810204080804020100804020180044A
:1007300002018040201008040201080402010102A5
:1007400004081020408001020408102040800000AE
:100750000A0B02090C0D0E0807030401000000003B
:100760000000000000000000000000000000000089
:100770000000000000000000000012111000000046
:100780000000000000000000000000000000000069
:10079000000000000B4311241FBECFEFD1E2DEBFEB
:1007A000CDBF00E00CBF13E0A0E0B2E0ECEEFFE94B
:1007B00000E00BBF02C007900D92AA38B107D9F72D
:1007C0002BE0AAE8B3E001C01D92A631B207E1F721
:1007D00013E0CBECD3E000E006C021970109802FA5
:1007E000FE010E94344CCA3CD10780E00807A9F7FB
:1007F0000E9472480C94F44F0C940000E9E1F6E07A
:1008000044A955A966A977A9DC014D935D936D9321
:100810007D93CD017896B6E0E93AFB0789F7089514
:100820004F925F926F927F928F929F92AF92BF9200
:10083000CF92DF92EF92FF92CF93809045099090F4
:100840004609A0904709B090480920E030E040E018
:100850005FE3C501B4010E94544E9B01AC0160E00E
:1008600070E080E89FE30E94C24C6B017C01C09164
:10087000E008C11109C0C0923909D0923A09E0924A
:100880003B09F0923C0922C020E030E040E151E415
:100890006091410970914209809143099091440906
:1008A0000E94C24C9B01AC0160E070E080E89FE3D5
:1008B0000E94C24C2B013C01C130F1F44092390935
:1008C00050923A0960923B0970923C096091390953
:1008D00070913A0980913B0990913C09CF91FF902A
:1008E000EF90DF90CF90BF90AF909F908F907F90D0
:1008F0006F905F904F900895C23009F4BCCF20E014
:1009000030E040E850E4C501B4010E94544E4B0170
:100910005C016091490970914A0980914B0990915D
:100920004C099B01AC010E94514C20E030E040E3B7
:1009300051E40E94514C9B01AC01C501B4010E94DD
:10094000C24C9B01AC0160E070E080E89FE30E9434
:10095000C24C4B015C01C33049F48092390990923A
:100960003A09A0923B09B0923C09B0CFC430E9F4F7
:10097000A3019201C701B6010E94514CA701960143
:100980000E94514CA50194010E94514C20E030E09E
:1009900040E85EE30E94544E6093390970933A092F
:1009A00080933B0990933C0991CF109239091092A2
:1009B0003A0910923B0910923C0988CF4F925F92FE
:1009C0006F927F928F929F92AF92BF92CF92DF925F
:1009D000EF92FF92CF93DF93CDB7DEB761970FB65B
:1009E000F894DEBF0FBECDBF8090450990904609B8
:1009F000A0904709B0904809A5019401C501B40130
:100A00000E94514C9B01AC0160E070E080E89FE3E4
:100A10000E94C24C2B013C018091E008898B81111E
:100A200009C0409235095092360960923709709298
:100A300038092FC08091410990914209A091430942
:100A4000B091440989839A83AB83BC8326E636E65A
:100A500046E650E4BC01CD010E94C24C9B01AC01B2
:100A600060E070E080E89FE30E94C24C6D837E836B
:100A70008F8398879989913049F58D819E81AF81C7
:100A8000B8858093350990933609A0933709B093C0
:100A90003809609135097091360980913709909134
:100AA000380961960FB6F894DEBF0FBECDBFDF9157
:100AB000CF91FF90EF90DF90CF90BF90AF909F903D
:100AC0008F907F906F905F904F90089529813A8129
:100AD0004B815C8160E070E080E89FE30E94C24C43
:100AE00069877A878B879C879989923029F48985D1
:100AF0009A85AB85BC85C5CFC0904909D0904A097D
:100B0000E0904B09F0904C0920E030E040E450E4E4
:100B1000C701B6010E94544E20E030E040EF51E49E
:100B20000E94514CA50194010E94544E6D877E870E
:100B30008F87988B20E030E040EA51E4C701B6018E
:100B40000E94544E20E030E040E151E40E94514CBC
:100B50009B01AC016D857E858F8598890E94C24C72
:100B60009B01AC0160E070E080E89FE30E94C24C12
:100B70006B017C019989933049F4C0923509D09278
:100B80003609E0923709F092380983CFA989A43059
:100B900009F52D813E814F815885C301B2010E9424
:100BA000514C29853A854B855C850E94514CA701A3
:100BB00096010E94514C20E030E040E85EE30E9444
:100BC000544E60933509709336098093370990939A
:100BD00038095FCF2AEC34E545E550E4C501B4019E
:100BE0000E94544E9B01AC0160E070E080E89FE3FE
:100BF0000E94C24C4B015C01B989B53049F4809226
:100C0000350990923609A0923709B092380941CF40
:100C100026E636E646E250E469817A818B819C8142
:100C20000E94C24C9B01AC0160E070E080E89FE351
:100C30000E94C24C2B013C018989863009F4F1CE17
:100C40002AE939E949E95FE369817A818B819C81ED
:100C50000E94544E9B01AC0160E070E080E89FE38D
:100C60000E94C24C69837A838B839C8399899730D5
:100C700029F489819A81AB81BC8103CF998998300D
:100C800009F47BCFA3019201C501B4010E94514C2C
:100C900029813A814B815C8188CF4F925F926F921C
:100CA0007F928F929F92AF92BF92CF92DF92EF92FC
:100CB000FF92CF93DF93CDB7DEB769970FB6F89465
:100CC000DEBF0FBECDBFC0904109D0904209E09079
:100CD0004309F090440980913D0990913E09A0910B
:100CE0003F09B091400989839A83AB83BC8380908C
:100CF000450990904609A0904709B0904809A50180
:100D00009401BC01CD010E94544E2B013C012AE903
:100D100039E949E95FE3C701B6010E94544EA301D6
:100D200092010E94C24C20E030E040E05FE30E946C
:100D3000544E69877A878B879C879091E008998FBA
:100D4000911129C089859A85AB85BC85809331092D
:100D500090933209A0933309B0933409609131091B
:100D600070913209809133099091340969960FB6D8
:100D7000F894DEBF0FBECDBFDF91CF91FF90EF9013
:100D8000DF90CF90BF90AF909F908F907F906F90AB
:100D90005F904F90089523EC35EF48E25FE3C70181
:100DA000B6010E94544EA30192010E94C24C6D876D
:100DB0007E878F87988B998D913029F48D859E85BC
:100DC000AF85B889C3CFA5019401C701B6010E94C0
:100DD000C24C698B7A8B8B8B9C8B29813A814B819E
:100DE0005C816AE979E989E19FE30E94C24C298923
:100DF0003A894B895C890E94544E6D8B7E8B8F8B18
:100E0000988F998D923029F48D899E89AF89B88DFC
:100E10009DCF8091490990914A09A0914B09B091C9
:100E20004C098D839E83AF83B88720E030E040E893
:100E30005EE3BC01CD010E94544E21E73DE34AEA46
:100E40005FE30E94514C29813A814B815C810E9471
:100E5000544E4B015C01998D933049F480923109D5
:100E600090923209A0923309B092340977CFA98DBC
:100E7000A430D9F42D853E854F85588969857A85BA
:100E80008B859C850E94514C2D893E894F89588DB8
:100E90000E94514CA50194010E94514C20E030E089
:100EA00040E85EE30E94544E6CC026E636E646E615
:100EB0005FE3C701B6010E94544EA30192010E9454
:100EC000C24C20E030E040E05FE30E94544E4B0112
:100ED0005C01B98DB53011F224EA30E74DEF5EE3E5
:100EE000C701B6010E94544EA30192010E94C24C58
:100EF0002B013C01898D863049F440923109509292
:100F00003209609233097092340928CF29813A81DD
:100F10004B815C8163E373E383EB9EE30E94C24CED
:100F200029893A894B895C890E94544E6B017C0166
:100F3000998D973049F4C0923109D0923209E092EC
:100F40003309F09234090ACF20E030E040E451E464
:100F50006D817E818F8198850E94C24C26E636E69F
:100F600046E65FE30E94514C29813A814B815C81C6
:100F70000E94544E69837A838B839C83A98DA83009
:100F800049F4609331097093320980933309909347
:100F90003409E4CEA3019201C501B4010E94514C71
:100FA000A70196010E94514C29813A814B815C81B5
:100FB00073CF8091E009882309F446C081E090E076
:100FC0009093DF098093DE091092F60A1092F80AD6
:100FD0001092F70A1092FC0A1092FA0A1092F90A7B
:100FE0001092FB0A8091E90A8093F40A8091EA0A40
:100FF0008093F50A1092FF0A1092FE0A1092000BDD
:101000001092580A1092590A10925A0A10925B0ACA
:1010100010924B0A10924A0A10926B0A10926A0AB6
:1010200010927B0A1092A40A1092A50A1092A60AA6
:101030001092A70A1092970A1092960A1092B70A75
:101040001092B60A1092C70A0895E9E1F6E01582F7
:101050001482A9E4B7E04CE251E060E070E0D09681
:101060004D935D936D937C93D397D4964D935D93FD
:101070006D937C93D7978FEE93E1DA969C938E9342
:10108000D997D8961C92A4E8B7E08C9181608D7FA7
:101090008B7F8C9382E090E091838083A281B381E7
:1010A00014961C921E92139791878087158614863A
:1010B000A285B38514961C921E921397918B808BF8
:1010C000158A148AA289B38914961C921E921397CA
:1010D000918F808F158E148E028CF38DE02D1482EB
:1010E0001382089521E030E03093DE062093DD0680
:1010F0008091DF0681608B7F8093DF068CE291E038
:10110000A0E0B0E08093790790937A07A0937B07E3
:10111000B0937C0780937D0790937E07A0937F0711
:10112000B09380078FEE93E19093830780938207BB
:10113000109281078091840781608D7F8B7F8093DF
:1011400084078091E0098B3029F410920A071092ED
:1011500009070895863029F430930A072093090778
:1011600008959CEF980F923038F482E090E09093CD
:101170000A07809309070895873029F58091E706CB
:101180009091E806B0E0A0E080935D0890935E083F
:10119000A0935F08B0936008809361089093620801
:1011A000A0936308B093640883EC9BE19093670875
:1011B00080936608109265088091680881608D7F31
:1011C0008B7F8093680883E090E0D1CFFC0190E1B1
:1011D000A1EEB6E001900D929A95E1F78091EF06AD
:1011E0009091F006B0E0A0E0E9E4F7E0808391831D
:1011F000A283B38384839583A683B7838FEF95E11E
:10120000928781871086E4E5F7E0808183608B7F99
:10121000808381EE96E09093D60A8093D50A84E687
:1012200090E09093BD0A8093BC0A9093710A8093DA
:10123000700A08959C014FB7F89480912605E091BB
:10124000250581111CC081E08E0F8093250593E058
:10125000E99FF0011124E455FB4F31832083628321
:10126000883211F41092250590912505809124056E
:10127000981303C081E0809326054FBF0895909195
:1012800024059F5F9832A1F09093240591E09E0F72
:101290009093250583E0E89FF0011124E455FB4F6E
:1012A000318320836283983241F710922505E5CF80
:1012B00010922405EBCFFC01538D448D252F30E097
:1012C000842F90E0821B930B541710F0CF96089553
:1012D00001970895FC01918D828D981761F0A28D80
:1012E000AE0FBF2FB11D5D968C91928D9F5F9F7346
:1012F000928F90E008958FEF9FEF0895FC01918DFC
:10130000828D981731F0828DE80FF11D858D90E068
:1013100008958FEF9FEF0895FC01918D228D892F05
:1013200090E0805C9F4F821B91098F7399270895ED
:10133000FC01A48DA80FB92FB11DA35ABF4F2C914A
:10134000848D90E001968F739927848FA689B78941
:101350002C93A089B1898C91837080648C93938D38
:10136000848D981306C00288F389E02D80818F7DDB
:1013700080830895EF92FF920F931F93CF93DF9393
:10138000EC0181E0888F9B8D8C8D98131AC0E889C1
:10139000F989808185FF15C09FB7F894EE89FF8990
:1013A0006083E889F98980818370806480839FBF2E
:1013B00081E090E0DF91CF911F910F91FF90EF902E
:1013C0000895F62E0B8D10E00F5F1F4F0F7311273E
:1013D000E02E8C8D8E110CC00FB607FCFACFE88979
:1013E000F989808185FFF5CFCE010E949809F1CF60
:1013F000EB8DEC0FFD2FF11DE35AFF4FF0829FB7ED
:10140000F8940B8FEA89FB8980818062CFCF0F939C
:101410001F93CF93DF938C01D0E0C0E0F801EC0F75
:10142000FD1F6491662341F08FE094E00E94BA09A9
:10143000892B11F02196F2CFCE01DF91CF911F9130
:101440000F910895CF93DF93EC01888D8823B9F035
:10145000AA89BB89E889F9898C9185FD03C08081BF
:1014600086FD0DC00FB607FCF7CF8C9185FFF2CF3C
:10147000808185FFEDCFCE010E949809E9CFDF91F1
:10148000CF9108958FE094E00E948C0921E0892B90
:1014900009F420E0822F089580E090E0892B49F044
:1014A00080E090E0892B29F00E94000081110E94C9
:1014B000000080E090E0892B49F080E090E0892BEB
:1014C00029F00E94000081110E94000080E090E05D
:1014D000892B29F00E94420A81110E94000080E0BD
:1014E00090E0892B49F080E090E0892B29F00E9460
:1014F000000081110C94000008958150823108F0A1
:101500005AC0E82FF0E08827E757F54F8F4F0C942B
:10151000344CA90AAD0A9B0AA10AA50ADB0AB00A43
:10152000B60ABA0AC00AC40AC80ACE0AD20ADB0A34
:10153000D60ADC0AE00A809180008F7780938000D1
:101540000895809180008F7DF9CF80918000877F02
:10155000F5CF84B58F7784BD089584B58F7DFBCF9B
:101560008091B0008F778093B00008958091B00093
:101570008F7DF9CF809190008F77809390000895B0
:10158000809190008F7DF9CF80919000877FF5CF7B
:101590008091A0008F778093A00008958091A00093
:1015A0008F7DF9CF8091A000877FF5CF80912001BA
:1015B0008F77809320010895809120018F7DF9CF4E
:1015C00080912001877FF5CFCF93DF93282F30E0E4
:1015D000F901E25BF84F8491F901E85FF84FD4918B
:1015E000F901EE53F94FC491CC23A1F081110E946F
:1015F0007D0AEC2FF0E0EE0FFF1FE855F94FA591A3
:10160000B491EC91ED2381E090E009F480E0DF916A
:10161000CF91089580E090E0FACFCF93DF93EC0173
:10162000188219821A821B821C821D821E821F82CE
:101630008EE00E94E40A9A8180FB90F99A838DE003
:101640000E94E40A9A8180FB91F99A838CE00E94BF
:10165000E40A9A8180FB92F99A83EEEDF9E08881A1
:10166000938590FB85F9928990FB86F9918D90FB8B
:1016700087F98883898190A190FB80F9898389E12A
:101680000E94E40A998180FB91F9998388E10E9484
:10169000E40A998180FB92F9998387E10E94E40A28
:1016A000998180FB93F9998380E10E94E40A9981F2
:1016B00080FB94F999838FE00E94E40A998180FB72
:1016C00095F9998386E10E94E40A998180FB96F955
:1016D000998381E10E94E40A998180FB97F99983BB
:1016E0008CE20E94E40A9A8180FB93F99A838EE24D
:1016F0000E94E40A9A8180FB94F99A838DE20E9409
:10170000E40A9A8180FB95F99A838FE20E94E40AA9
:101710009A8180FB96F99A8385E20E94E40A9A8175
:1017200080FB97F99A8384E20E94E40A9B8180FB04
:1017300090F99B8387E20E94E40A9B8180FB91F9E8
:101740009B8386E20E94E40A9B8180FB92F99B8343
:1017500089E20E94E40A9B8180FB93F99B8388E2E3
:101760000E94E40A9B8180FB94F99B838BE20E9498
:10177000E40A9B8180FB95F99B838AE20E94E40A3C
:101780009B8180FB96F99B8385E30E94E40A988104
:1017900080FB90F998838FE10E94E40A988180FB96
:1017A00092F998838BE10E94E40A988180FB91F979
:1017B00098838DE10E94E40A988180FB93F99883D5
:1017C0008EE10E94E40A988180FB94F99883DF916E
:1017D000CF9108951F93CF93DF93282F30E0F90125
:1017E000E25BF84F8491F901E85FF84FD491F90179
:1017F000EE53F94FC491CC23A9F0162F81110E940A
:101800007D0AEC2FF0E0EE0FFF1FE257F94FA59194
:10181000B4918FB7F894EC91111108C0D095DE23E4
:10182000DC938FBFDF91CF911F910895DE2BF8CF0E
:10183000CF93DF9390E0FC01E85FF84F24918E5343
:10184000994FFC0184918823C9F090E0880F991F7B
:10185000FC01EC58F94FA591B491FC01E257F94F06
:10186000C591D49161110DC09FB7F8948C912095CA
:1018700082238C938881282328839FBFDF91CF9177
:101880000895623051F49FB7F8943C91822F80956F
:1018900083238C93E8812E2BEFCF8FB7F894EC91B4
:1018A0002E2B2C938FBFEACF863308F086532091DE
:1018B0007B00982F9870277F922B90937B008770E6
:1018C000806480937C0080917A00806480937A00A9
:1018D00080917A0086FDFCCF80917800909179000C
:1018E00008953FB7F8948091040490910504A09165
:1018F0000604B091070426B5A89B05C02F3F19F038
:101900000196A11DB11D3FBFBA2FA92F982F88277F
:10191000BC01CD01620F711D811D911D42E0660F5A
:10192000771F881F991F4A95D1F70895CF93DF93AA
:10193000C5EDD8E081E08A878CA19DA1AEA1BFA1B1
:10194000EE85FF8580839183A283B3830E94710C0F
:1019500060936709709368098093690990936A0995
:1019600060936B0970936C0980936D0990936E0975
:1019700010927709109278091092790910927A09D9
:1019800010927309109274091092750910927609D9
:1019900010923D0910923E0910923F0910924009A1
:1019A0001092410910924209109243091092440981
:1019B0001092450910924609109247091092480961
:1019C00010923109109232091092330910923409A1
:1019D0001092350910923609109237091092380981
:1019E0001092390910923A0910923B0910923C0961
:1019F00018AE19AE1AAE1BAE1CAE1DAE1EAE1FAE9B
:101A000010921509109216091092170910921809D0
:101A10001092210910922209109223091092240990
:101A20001092250910922609109227091092280970
:101A30001092290910922A0910922B0910922C0950
:101A400088A999A9AAA9BBA98CAB9DABAEABBFAB2A
:101A500080932D0990932E09A0932F09B0933009FC
:101A60008093190990931A09A0931B09B0931C093C
:101A700010925A091092590910925C0910925B0950
:101A80001092560910925509109258091092570950
:101A9000DF91CF9108958F929F92AF92BF92CF9294
:101AA000DF92EF92FF926B017C010E94710C4B015F
:101AB0005C01C114D104E104F104B9F00E94710C7D
:101AC000681979098A099B09683E73408105910567
:101AD00080F321E0C21AD108E108F10888EE880EEF
:101AE00083E0981EA11CB11CE4CFFF90EF90DF9023
:101AF000CF90BF90AF909F908F9008952FB7F8949C
:101B0000609100047091010480910204909103049B
:101B10002FBF0895CF93C091FD0381E0C827C093E4
:101B2000FD0361E084E30E94180C6C2F84E3CF91E5
:101B30000C94EA0BE5E0F6E08381948101969483AE
:101B400083830895E5E0F6E080859185019691878D
:101B500080870895E5E0F6E085859685019696876D
:101B600085870895E5E0F6E0828993890196938B55
:101B7000828B08950895AF92BF92CF92DF92EF9239
:101B8000FF920F931F93CF93DF936C017B018B0127
:101B9000040F151FEB015E01AE18BF08C017D10777
:101BA00059F06991D601ED91FC910190F081E02D01
:101BB000C6011995892B79F7C501DF91CF911F9146
:101BC0000F91FF90EF90DF90CF90BF90AF9008956E
:101BD000DC0180E0615090F09D919827E92FEF7033
:101BE000F0E0EC5AF94F2491E92FE295EF70F0E024
:101BF000EC59F94FE491822F8E27ECCF0895DC0148
:101C00002C911196ED91FC91F8948181822B818326
:101C10009281322F30959323928387E090E0019751
:101C2000F1F781818323818383E290E00197F1F7CB
:101C300090817894EFECF0E03197F1F7922381E016
:101C400009F480E00895FC0190810180F281E02D8B
:101C5000292F209560FF14C0F8948281822382830B
:101C60008181892B8183A3E2B0E01197F1F7828112
:101C7000982B9283789487ED90E00197F1F708957F
:101C8000F8948281822382838181892B8183AFEFC3
:101C9000B0E01197F1F78281982B928378948FE0CE
:101CA00090E0EBCFDF92EF92FF920F931F93CF93D1
:101CB000DF93EC01D62EE42E08E010E0FF24F3942D
:101CC00061E08D2D8F2109F460E0CE010E94230E8A
:101CD000FF0C01501109A1F7E11010C0F894E9813F
:101CE000FA8191818881809589238183E981FA81B4
:101CF000928188818095892382837894DF91CF9126
:101D00001F910F91FF90EF90DF900895EF92FF9257
:101D10000F931F93CF93DF938C017B0140E065E528
:101D20000E94520EE70188E0E80EF11C699140E044
:101D3000C8010E94520ECE15DF05C1F7DF91CF9189
:101D40001F910F91FF90EF900895FC019081018009
:101D5000F281E02DF8948181292F209582238183BF
:101D600078943DE743E050E0315029F1DA011197D2
:101D7000F1F780818923C1F3F894828182238283E1
:101D80008181892B81837894ABE7B7E01197F1F7D4
:101D9000F894818182238183A3E1B1E01197F1F767
:101DA0008081982381E009F080E07894E3E6F6E012
:101DB0003197F1F7089580E008958F929F92AF9246
:101DC000BF92CF92DF92EF92FF920F931F93CF9328
:101DD000DF9300D01F921F92CDB7DEB78C01DC01DC
:101DE00019968D919C910E94A50E40E06CECF80133
:101DF000818592850E94520ED8014C9164E4199617
:101E00008D919C910E94520E0E947E0D6B017C016F
:101E1000F8018481811120C081E08983CA82DB823C
:101E2000EC82FD8229813A814B815C816D8170E079
:101E300080E090E00F900F900F900F900F90DF9147
:101E4000CF911F910F91FF90EF90DF90CF90BF90B7
:101E5000AF909F908F90089585818823B1F0808105
:101E6000811113C0F801818592850E94FF0D813098
:101E700099F20E947E0D6C197D098E099F096E3EB4
:101E800072408105910570F3C7CFD8011396EC918C
:101E9000E9508EEE92E0E33038F4F0E0EE0FFF1FF1
:101EA000EA5CFD4F808191814C01B12CA12CF8019D
:101EB0008181882321F060E082810E94EA0BC501C4
:101EC000B4010E944B0DD80111968C911197882373
:101ED00009F4A2CF61E012968C910E94EA0B9CCF8C
:101EE0004F925F926F927F928F929F92AF92BF922A
:101EF000CF92DF92EF92FF920F931F93CF93DF93D6
:101F00008C017B01EA01FC01818592850E94A50E6E
:101F10008823D9F1B701F801818592850E94860E48
:101F200040E06EEBF801818592850E94520E6E01B1
:101F30005E01F9E0AF0EB11C7E01F801818492844C
:101F400088E0682E712C512C44244394C4010E94D3
:101F5000FF0D81115428440CF1E06F1A7108B1F79C
:101F6000F70151927F01AE16BF0639F7F80181855E
:101F700092850E94A50E813041F4F60181916F0196
:101F8000811105C0EE15FF05C1F790E008C068E0BB
:101F9000CE010E94E80D91E028852813F6CF892F05
:101FA000DF91CF911F910F91FF90EF90DF90CF9035
:101FB000BF90AF909F908F907F906F905F904F9069
:101FC000089581E08093DC090895E9E1F6E0A281BB
:101FD000B38113968D919C91149714961C921E9226
:101FE000139795838483A285B38513968D919C91D5
:101FF000149714961C921E92139795878487A28932
:10200000B38913968D919C91149714961C921E92ED
:102010001397958B848BA28DB38D13968D919C9184
:10202000149714961C921E921397958F848F08957F
:1020300010929C07EBE0F4E08081877F8083089515
:1020400061E08DE10C94EA0BCF93DF93A0E0B2E066
:10205000FD0190E0219131912817390721F4EF011A
:1020600022971982188222E0E031F20799F78D91C8
:102070009D91892B41F482E0A031B807C1F781E03E
:10208000DF91CF91089580E0FBCFFC0121812150A9
:10209000330B70E060E0472F50E0421753073CF4E9
:1020A000480F591FFA014081640F7F5FF4CF820F00
:1020B000931FFC0160830895FC0181E080836583A8
:1020C00085E082838091DF06A0E0B2E020E132E08B
:1020D0004D915D91452BE1F42A173B07C9F791E03B
:1020E0008F7E90FF80619091940390FB81F98383B0
:1020F000F894909146078091450791110BC09091FB
:102100004407981307C07894148287E08183089568
:1021100090E0E6CF90E0A0914107B0914207A80F70
:10212000B91F2C9101966091430770E00E94204CEA
:10213000809345071092460778942483E6CFCF9387
:10214000DF93CDB7DEB7C456D1090FB6F894DEBF22
:102150000FBECDBF66E0CE0101960E945C10CE019D
:1021600001960E944510CC59DF4F0FB6F894DEBFA0
:102170000FBECDBFDF91CF910895CF93DF93EC01D8
:1021800067E00E945C10CE01DF91CF910C94451066
:10219000E1ECF0E08081806880830895682F660F0D
:1021A000692F661F81E090E06F3F11F490E080E0BE
:1021B0000895EF92FF921F93CF93DF93EC0119865E
:1021C0007C0180E4E80EF11CF701118290813296C7
:1021D00080E0981719F011928F5FFBCF1FAE1EAEF3
:1021E00010E0F7018081181750F4EA81FB81E10FBC
:1021F000F11D60E080810E94EA0B1F5FF2CFDF914A
:10220000CF911F91FF90EF900895CF93DF93EC0152
:102210000E94D910ED81FE812F8138858CA99DA95E
:10222000B0E0A0E080839183A283B383848395830D
:10223000A683B783328721878BE08087838581607F
:102240008D7F8B7F8387DF91CF910895CF92DF922F
:10225000EF92FF920F931F93CF93DF9300D000D0A4
:102260001F921F92CDB7DEB7FC018E010F5F1F4F8B
:1022700088E0D8011D928A95E9F74285C180E08007
:102280002E2D30E0842FF12CDD24D394CF100EC0FE
:10229000CF010296B801562F501B5E1590F4DB015A
:1022A0005D91BD01DC015D93CD01F5CF90E0D801DA
:1022B000A80FB91FDC920196B9010E94204CF3943B
:1022C000E5CF842F90E00196B9010E94204C8287CF
:1022D00028960FB6F894DEBF0FBECDBFDF91CF9129
:1022E0001F910F91FF90EF90DF90CF900895FF9294
:1022F0000F931F93CF93DF93EC018985882369F1B6
:102300008EAD9FAD891728F58F5F8EAF8E01005C73
:102310001F4FF80190818EAD981708F4892FF801AE
:102320008183C8010E942611F12CF8018081F816E2
:10233000A0F48F2D90E0D801A80FB91FEA81FB818E
:10234000E80FF91F12966C9180810E94EA0BF394BA
:10235000ECCF9817D8F68150D8CFDF91CF911F914D
:102360000F91FF9008958CE39AE00E94771188E81E
:102370009AE00C947711EF92FF921F93CF93DF9323
:10238000EC0110E08C811817A0F4E12EF12CEA8109
:10239000FB81EE0DFF1D61E080810E94180CEA8137
:1023A000FB81EE0DFF1D60E080810E94EA0B1F5F44
:1023B000E9CFCE01805C9F4FFC011182DF91CF916C
:1023C0001F91FF90EF900C94261181E20E94E40A85
:1023D00021E0892B09F420E0822F0895FC018181FE
:1023E000861799F0618381E090E0938382838081F6
:1023F000861751F0662381F0848195812281338193
:102400002817390708F060830895828193818F3FF0
:10241000980769F30196E9CF86819781EFCF0F93F3
:102420001F93CF93DF93FC012081222309F43FC047
:10243000162FC62FD0E0D683C583028161E0802F9E
:102440000E94180C209741F460E0802FDF91CF911B
:102450001F910F910C94EA0BCF3FD10511F461E06D
:10246000F4CFE02FF0E0E25BF84FE491E150E2318D
:1024700008F0B4C0F0E08827EF5BFD4E8F4F0C945E
:10248000344C53125C1261126B127512EE127F12F1
:1024900087128F129912A312AD12BC12C612EE123D
:1024A000D012DA12E41284B5806884BD17BDDF91C2
:1024B000CF911F910F91089584B5806284BD18BD9E
:1024C000F6CF80918000806880938000D09389004F
:1024D000C0938800ECCF8091800080628093800060
:1024E000D0938B00C0938A00E2CF809180008860F7
:1024F00080938000D0938D00C0938C00D8CF8091C2
:10250000B00080688093B0001093B300D0CF80916A
:10251000B00080628093B0001093B400C8CF809167
:102520009000806880939000D0939900C0939800A9
:10253000BECF80919000806280939000D0939B00EA
:10254000C0939A00B4CF80919000886080939000EF
:10255000D0939D00C0939C00AACF8091A00080687A
:102560008093A0008091A0008F7B8093A000D093E7
:10257000A900C093A8009BCF8091A00080628093A7
:10258000A000D093AB00C093AA0091CF8091A0008F
:1025900088608093A000D093AD00C093AC0087CF3B
:1025A00080912001806880932001D0932901C093FD
:1025B00028017DCF80912001806280932001D093FB
:1025C0002B01C0932A0173CF8091200188608093F2
:1025D0002001D0932D01C0932C0169CFC038D105C3
:1025E0000CF03DCF31CF0F931F93CF93DF9383E256
:1025F0000E94E40A8C0182E20E94E40AEC0161E09C
:10260000012B09F460E08DE097E00E94EE1161E09B
:10261000CD2B09F460E085E197E00E94EE118091F6
:102620000D0780931D079091150790931E0723E0D7
:10263000911104C022E0811101C021E020931F0705
:102640002091060B222309F448C020910E0B22236F
:1026500009F443C02091D40A21113FC0992351F1BC
:102660008091EA0A8093F50A1092F40A6091F40AC4
:102670006093050B8091070B882329F18091030B50
:102680009091040B0E940F126091F50A60930D0B5C
:1026900080910E0B882309F180910F0B8823C1F0E4
:1026A00080910B0B90910C0BDF91CF911F910F91AB
:1026B0000C940F128111D4CF8091E90A8093F40A0F
:1026C0001092F50AD3CF8091010B9091020BDACFD3
:1026D0008091090B90910A0BE7CFDF91CF911F9169
:1026E0000F910895FC01808181110DC081E08083EC
:1026F0008181811104C061E082810C94EA0B6581C3
:10270000CF010C940F120895CF93DF93EC01862F25
:1027100068835A8349831C821B8262E00E94180CE2
:1027200029813A819881923069F430931102209383
:10273000100280916A00836080936A00EC9ADF91B6
:10274000CF910895933059F43093130220931202DD
:1027500080916A008C6080936A00ED9AF0CF8EEED3
:10276000890F843060F787E1891BE82FF0E0EE0FD6
:10277000FF1FE05FFD4F31832083843091F085306F
:10278000B9F0833039F080916900836080936900EB
:10279000E89AD5CF809169008C6080936900E99AAE
:1027A000CECF80916900806380936900EA9AC7CF99
:1027B00080916900806C80936900EB9AC0CFFC0126
:1027C00024813581868197812817390728F081E097
:1027D00090E091838083089511821082089589E1A9
:1027E00096E00E94DF1381E296E00E94DF1389E207
:1027F00096E00E94DF1381E396E00C94DF13FC0166
:10280000118260E080810C94EA0BFC01108260E090
:1028100081810C94EA0BF89490914607992359F022
:1028200080914707909148070196909348078093BD
:102830004707789408952091440730E0E0914107DC
:10284000F0914207E20FF31F8083C9010196609166
:10285000430770E00E94204C809344079091450705
:102860009813E7CF81E080934607E3CFBF92CF92E2
:10287000DF92EF92FF920F931F93CF93DF93EC01C0
:10288000B62EC72E8D85811105C0CE010E94A50EE2
:1028900081110EC01B861D861C8680E0DF91CF91C2
:1028A0001F910F91FF90EF90DF90CF90BF90089510
:1028B00040E060EFCE010E94520E01E0E12CD12CED
:1028C00011E0CE010E94FF0DF82ECE010E94FF0DF7
:1028D00091E0F91218C0813099F51134D8F2DB86F5
:1028E000D11002C081E08D878B81882399F22396D5
:1028F000EB2DFC2DCF01089629912193E817F907BC
:10290000D9F781E0CBCFEE2DF0E0F8120FC08B8528
:102910001817A0F4DE01AE0FBF1F13968C91802311
:1029200079F4F12C193008F41C87D12EEC0FFD1F1F
:102930008381902F9095892383830AC08113F1CFDF
:10294000FE01EE0DF11D8381802B8383FF24F39420
:102950006F2DCE010E94230E1F5F000F11F4E39430
:1029600001E087E08E1508F0ACCFB7CFCF93DF93AF
:10297000EB01DC011996ED91FC911A9713861586EF
:10298000148612861186108617821682158214828A
:10299000138219968D919C910E943614982F88234A
:1029A00041F067E0CE010E94E80D91E02F812813ED
:1029B00090E0892FDF91CF9108958F929F92AF92EF
:1029C000BF92EF92FF920F931F93CF93DF93CDB7F8
:1029D000DEB761970FB6F894DEBF0FBECDBF7C01A6
:1029E000FC0100851185F8018781882309F46BC0FB
:1029F000BE01665F7F4FC8010E94B614882309F4A8
:102A000062C0AE014F5F5F4FBE01665F7F4FC8017E
:102A10000E94700F882309F456C08A81812C912C62
:102A2000540187FF06C0812C912CF8EFAF2EBB24F8
:102A3000BA949A8549819B3309F057C02D8127FFAD
:102A400054C040FD40C0042F10E030E020E073E0AF
:102A5000000F111F221F331F7A95D1F7B901A8016A
:102A6000407E57706627772790E0B0E0A0E08C01A9
:102A70009D01EBE0000F111F221F331FEA95D1F7D4
:102A8000042B152B262B372B082919292A293B29FA
:102A9000013854EE15075FEF25073507A4F0C9018B
:102AA000B8010E946C4D20E030E040E05CE30E9401
:102AB000544E4B015C0120E030E04EEF52EC0E949E
:102AC000BD4C811158C0F7018689978924893589C1
:102AD0008217930718F40196978B868B812C912C83
:102AE0008EEFA82E82ECB82E49C0082F10E0102FD0
:102AF0000027110F110F110FF8E04F9FA0011124B3
:102B0000042B152B012E000C220B330B082919293D
:102B10002A293B29903109F0BBCF6885662309F447
:102B2000B7CF70E08F81AB01481B5109CA01969560
:102B3000982F8827979587950E94204CCB01770F77
:102B4000AA0BBB0B53E0000F111F221F331F5A9516
:102B5000D1F7007827703327005211092109310974
:102B6000800F911FA21FB31F95018401082B192B01
:102B70002A2B3B2B8DCFF701178A168A81E0F701AC
:102B800046895789248935894217530708F480E01C
:102B9000F701838B808591850E94DD0E20E030E077
:102BA0004EEF52ECC501B4010E94BD4CF7018823E1
:102BB000D1F080829182A282B382F701608171811B
:102BC0008281938161960FB6F894DEBF0FBECDBFB0
:102BD000DF91CF911F910F91FF90EF90BF90AF9039
:102BE0009F908F9008958389882339F380E090E047
:102BF000AAE7B4EC80839183A283B383DECF809174
:102C00000B07815080930B07811118C085E08093DA
:102C10000B078091E00628E1829FC0011124835BAD
:102C2000994F0E94DD149091E006892F8F5FF1F398
:102C30009FEF8630D0F78093E00608958DE496E00C
:102C40000E94DD143091600620910C04332351F072
:102C5000822F806480930C041092200761E08DE144
:102C60000C94EA0B2F7B20930C0420E030E04AE721
:102C700054EC0E94BD4C882319F081E0809320071A
:102C80000895BF92CF92DF92EF92FF920F931F931E
:102C9000CF93DF93CDB7DEB761970FB6F894DEBF61
:102CA0000FBECDBF7C018B01DC0119967C936E9326
:102CB000189783E0D82ECC24C394D8011996ED91AF
:102CC000FC911A9713861586148612861186108633
:102CD0001782168215821482138217961C921797F8
:102CE00018961C9262E370E080E090E00E944B0D29
:102CF000BE01665F7F4FF801818592850E94361480
:102D0000882309F477C067E0CE010A960E94E80D97
:102D100099898913EDCFD80117968C9117978F5FFA
:102D200017968C938A85883231F008F04AC080313A
:102D300011F08232E9F6F80180858F5F808780810B
:102D4000811124C0818592850E94A50EBE01665F17
:102D50007F4FD80119968D919C910E94860E40E07C
:102D600064EBF801818592850E94520ED801199674
:102D70008D919C910E94FF0DB82EF801818592855E
:102D80000E94A50EB11002C0D801CC928A85803174
:102D900019F1AE014F5F5F4FBE01665F7F4FC80103
:102DA0000E94700F882359F08D819A859B3311F40E
:102DB00087FD12C08F3391F058F48F31B9F080E065
:102DC0000EC08B3309F4B7CF823409F091CFB3CF63
:102DD0008F3571F08F3799F78CE001C08AE0F801E8
:102DE0009381981708F084CF838382CF89E0F7CF4F
:102DF0008BE0F5CFD80117969C91911103C0DA941E
:102E0000D1105BCFF701138A178A168A0084F185E7
:102E1000E02D9781992331F0B701665F7F4FCF0195
:102E20000E94B614D70152968C9352971896ED9142
:102E3000FC911997148218968D919C910E94DD0E39
:102E400061960FB6F894DEBF0FBECDBFDF91CF9174
:102E50001F910F91FF90EF90DF90CF90BF9008955A
:102E6000CF93FC018081882371F01082C28181811F
:102E7000882321F061E08C2F0E94180C60E08C2FD9
:102E8000CF910C94EA0BCF9108959EEF980F92305A
:102E900008F063C010920808833079F18AE19AE063
:102EA0000E94721381E29AE00E94721380EC94ED0A
:102EB000A1E0B0E08093FD079093FE07A093FF0789
:102EC000B09300088093010890930208A093030830
:102ED000B093040885E497E190930708809306086F
:102EE00083E0809305088091080881608D7F8B7F47
:102EF0008093080881E10C940B148AE19AE00E9407
:102F0000301781E29AE00E94301782E10E940B1490
:102F100080E395E7A0E0B0E08093FD079093FE0783
:102F2000A093FF07B09300088093010890930208D4
:102F3000A0930308B093040885E497E190930708F1
:102F40008093060884E080930508809108088160DA
:102F50008D7F8B7F8093080808951092DF0910926F
:102F6000DE098AE08093E0090E94D9070C94720878
:102F70001F93CF93DF93EC01888199810E943017D2
:102F80008A819B81FC012481222369F00E943017F1
:102F90001D8281E08F8380E20E940B1480E0DF912C
:102FA000CF911F91089511E01E832C8130E036836C
:102FB00025830E9472138FE10E940B141D8381E010
:102FC000EECF0F931F93CF93DF93EC018091110B02
:102FD000813021F0823061F010E004C080E20E9474
:102FE0000B1411E0812FDF91CF911F910F91089564
:102FF0001D81112389F30E8101110FC088819981F0
:1030000001E0FC0104830E943017CE010E94B81732
:103010008111E2CF0F831D82E5CF8A819B8111E070
:10302000FC0114830E9430171D821F83102FDACFFA
:10303000CF93DF93EC018D81811119C09F81911194
:1030400016C02E81222369F08A819B81FC01348184
:10305000332381F0211108C0CE01DF91CF910C9470
:10306000B81788819981F2CF81E08F8380E0DF916A
:10307000CF9108952C8130E0368325830E9472130E
:1030800081E08D83F4CFCF9390E0009769F5C1E0A4
:10309000C093E30961E08091E4090E94EA0B84EFA8
:1030A00091E0A0E0B0E08093B1089093B208A093C3
:1030B000B308B093B4088093B5089093B608A09372
:1030C000B708B093B80883E498E19093BB08809365
:1030D000BA08C093B9088091BC0881608D7F8B7F4E
:1030E0008093BC08CF9108950197E1F789E09BE0B8
:1030F0000E9418188CED80930D0B80910E0B882385
:1031000089F380910F0B882341F080910B0B9091F4
:103110000C0B6CEDCF910C940F128091090B9091D8
:103120000A0BF7CF90E0009749F583EE99E00E94F3
:10313000051484EF91E0A0E0B0E08093A50890939F
:10314000A608A093A708B093A8088093A908909315
:10315000AA08A093AB08B093AC0882E998E19093D9
:10316000AF088093AE0881E08093AD088091B008ED
:1031700081608D7F8B7F8093B0080895019721F443
:1031800089E09BE00C9418180895CF93DF93EC012D
:10319000888199810E9430178A819B810E94301713
:1031A0001D82DF91CF91089581E09BE00E94C518B8
:1031B00084EF91E0A0E0B0E08093990890939A08A2
:1031C000A0939B08B0939C0880939D0890939E08C1
:1031D000A0939F08B093A00880EF9FE19093A3086D
:1031E0008093A2081092A108E4EAF8E0808181604F
:1031F0008D7F8B7F808308959091E009981729F047
:103200009530B1F020F49430A9F080E00895963024
:1032100071F19B30D1F78430E9F08630B1F78093BB
:10322000E00981E090E09093E40A8093E30A0BC008
:10323000843061F08B3049F78BE08093E009109285
:10324000E40A1092E30A0E94D418DFCF8093E009C9
:1032500081E008958093E00982E090E09093E40A91
:103260008093E30A0E94D4180E942508F1CF8B3086
:1032700061F68CE39AE00E9405118DE08093E009ED
:10328000C4CF1092D8078091090790910A07009740
:1032900051F00297A9F48BE00E94FC1810920A07E3
:1032A00010920907089580910C07811109C086E0EA
:1032B0000E94FC1881E090E090930A078093090730
:1032C00008951092E4078091090790910A078130D0
:1032D000910521F058F0029791F008958BE00E943B
:1032E000FC1810920A0710920907089584E00E94C2
:1032F000FC1882E090E090930A07809309071092EF
:10330000740808958091E1099091E2098330910554
:1033100071F1892B61F189E09BE00E94C51884EF6F
:1033200091E0A0E0B0E08093A5089093A608A09358
:10333000A708B093A8088093A9089093AA08A0931F
:10334000AB08B093AC0882E998E19093AF08809302
:10335000AE081092AD088091B00881608D7F8B7FA0
:103360008093B0081092E2091092E109089510923A
:10337000E2091092E10989E09BE00C941818823070
:10338000A9F51092FC0785E09AE00E94301789E0C9
:103390009BE00E94C51883E19AE00E94721380E3CB
:1033A00095E7A0E0B0E08093F1079093F207A09337
:1033B000F307B093F4078093F5079093F607A09373
:1033C000F707B093F8078FEB99E19093FB07809391
:1033D000FA0781E08093F9078091FC0781608D7F77
:1033E0008B7F8093FC078EE00C940B141092DF0906
:1033F0001092DE0989E08093E0090E94D9070C94BD
:103400007208CF93DF93EC010E94C518E881F9811F
:103410001482EA81FB8114821E821F82DF91CF9188
:1034200008951092DF091092DE091092A4081092FC
:10343000B0081092BC0881E09BE00E94C51889E0AA
:103440009BE00E94C51881E09BE00E94011A89E080
:103450009BE00E94011A85E09AE00E9430178CE000
:103460009AE00E94301783E19AE00E9430178AE1C7
:103470009AE00E94301781E29AE00E94301788E2B9
:103480009AE00E9430178FE29AE00E94301783EE94
:1034900099E00E94051485EE99E00E94051487EEDC
:1034A00099E00E94051486E39AE00E94FF1388E3E6
:1034B0009AE00E94FF138AE39AE00E94FF138CE3D4
:1034C0009AE00E94D91088E89AE00E94D9101092E0
:1034D000E10A1092FC071092080810922C08109232
:1034E000200810923808109214081092440881E0C5
:1034F0009BE00E94011A89E09BE00C94011A109253
:10350000D40A1092720A80E692E00C94111ACF93BA
:10351000C82F1092D9081092DA081092DB08109286
:10352000DC080E947F1A1092AB0986E08093CD09D7
:10353000C093CE09CF910895CF93C62F10920C0758
:103540001092DE061092DD060E947F1A8091E0093B
:103550008C50823010F01092E0098091DF068E7F4F
:1035600084608093DF0610921E0610921D06109252
:1035700026061092250610922E0610922D06109205
:103580003606109235061092900710929C07109202
:10359000A8071092B4071092C0071092D807109293
:1035A000E4071092500810925C0810928407109261
:1035B00068081092740810920C07C11104C089E1C8
:1035C000CF910C940B14CF9108950E94E511909126
:1035D0000C04882321F0946090930C0408959B7F41
:1035E00090930C048091190690911A06029709F4A1
:1035F00066C089E196E00E94DF13209119063091A0
:103600001A0691E02130310509F090E080910B0419
:1036100081FD48C02130310509F444C082608093A7
:103620000B0481E09BE00E94E117882349F060E0F1
:1036300080E792E00E949C1A61E08DE10E94EA0B13
:1036400080912106909122060297C9F180913E0651
:103650000E94540C9C019093400680933F06609119
:1036600041067091420641E06817790708F440E08E
:1036700090910B0492FD1DC062177307D0F4892F3F
:10368000846080930B0489E09BE00E94E11788230B
:10369000B1F060E083E892E00E949C1A61E08DE165
:1036A0000C94EA0B80910B0490FB81F980930B043E
:1036B000C7CF80910B0440FB82F980930B040895DF
:1036C0000E94E51A85E40E94E40A20910C04892BEB
:1036D00021F0286020930C040895277FFBCF809170
:1036E0000C07882309F43FC02091AD063091AE0647
:1036F0004091AF065091B00660914D0670914E0614
:1037000080914F06909150060E94BD4C87FF08C0E3
:1037100060E088E992E00E949C1A89E10C940B1405
:1037200080E395E7A0E0B0E08093690890936A0891
:10373000A0936B08B0936C0880936D0890936E080B
:10374000A0936F08B09370088FE69BE19093730885
:1037500080937208109271088091740881608D7F47
:103760008B7F80937408089560E08DEA92E00C945A
:103770009C1AEBE0F4E080818460808360E08EEB53
:1037800092E00C949C1ACF93C82F10926808109264
:103790009C078091110B823099F580910F0B81115C
:1037A0002FC089E09BE00E94B817882349F180E38D
:1037B00095E7A0E0B0E080935D0890935E08A09349
:1037C0005F08B09360088093610890936208A093AB
:1037D0006308B093640883EC9BE19093670880933F
:1037E000660881E0C11101C080E080936508809186
:1037F000680881608D7F8B7F80936808CF910895E2
:103800008CE10E940B14C11108C00E947F1A60E075
:1038100090E080E0CF910C949C1A0E947F1A8EE178
:103820000E940B141092DF091092DE098BE0809346
:10383000E0090E94D907CF910C9472089CEF980F71
:10384000933010F08B3029F481E00E94C31B80E09C
:10385000089581E008951F93CF93DF93CDB7DEB72E
:1038600068970FB6F894DEBF0FBECDBF182F109229
:10387000B4078091E0098C3099F481E08093DD09F0
:103880008BED92E00E94111A1092E00968960FB633
:10389000F894DEBF0FBECDBFDF91CF911F91089589
:1038A000CE0101960E94FE032D893E894F89588DD5
:1038B00069897A898B899C890E94BD4C87FF1DC0CC
:1038C000E0918D0AF0918E0A20918F0A3091900A32
:1038D00080E69AEEA0E0B0E080839183A283B38378
:1038E00084839583A683B783328721871087838556
:1038F00081608D7F8B7F8387C9CF88E39AE00E94A8
:10390000FF138AE39AE00E94FF138AE19AE00E9483
:10391000301781E29AE00E94301781E08093DD0940
:103920001093E0090E94D90788E10E940B14AECFE2
:103930001092C00791E09093DD099091E0099D30CD
:1039400039F48093E0090E94D90786E10C940B14A6
:103950009C3031F487EE92E00E94111A1092E00937
:103960000895FC0101900020E9F73197AF01481B51
:10397000590BBC018FE094E00C94BB0D82EF92E0F8
:103980000C94B11CCF93DF930E94070AEC010E94B4
:10399000BE1C8C0F9D1FDF91CF9108958F929F9237
:1039A000AF92BF920F931F93CF93DF93CDB7DEB744
:1039B000A1970FB6F894DEBF0FBECDBF19A242305B
:1039C00008F44AE08E010F5D1F4F842E912CB12C1C
:1039D000A12CA50194010E94DF4BE62FB901CA0179
:1039E000EA30F4F4E05DD801EE938D01232B242B13
:1039F000252B79F790E080E0109719F0CD010E9417
:103A0000B11CA1960FB6F894DEBF0FBECDBFDF91FB
:103A1000CF911F910F91BF90AF909F908F9008957D
:103A2000E95CE1CF4F925F926F927F928F929F926B
:103A3000AF92BF92CF92DF92EF92FF920F931F93BC
:103A4000CF936B017C01742EAC019B010E94C14E8F
:103A5000882399F085EF92E0CF911F910F91FF900D
:103A6000EF90DF90CF90BF90AF909F908F907F901E
:103A70006F905F904F900C94B11C46015701E894F1
:103A8000B7F82FEF3FEF4FE75FE7C501B4010E94A2
:103A9000C14E81110DC02FEF3FEF4FE75FE7C5012A
:103AA000B4010E94BD4C18161CF489EF92E0D4CFEB
:103AB0002FEF3FEF4FE75FE4C701B6010E941C4EB6
:103AC00018161CF48DEF92E0C7CF2FEF3FEF4FE7B2
:103AD0005FECC701B6010E94BD4C87FDF3CF20E02B
:103AE00030E0A901C701B6010E94BD4C10E000E022
:103AF00087FF0AC06DE28FE094E00E94BA098C0152
:103B0000F7FAF094F7F8F094C0E060E070E080E03D
:103B10009FE37C1641F020E030E040E251E40E9457
:103B2000C24CCF5FF6CFA70196010E94514C2B01EA
:103B30003C010E943B4D4B015C014AE00E94CE1CBF
:103B40007C01E00EF11ECC23C1F1C501B4010E943D
:103B50006A4D9B01AC01C301B2010E94504C4B0164
:103B60005C016EE28FE094E00E94BA09E80EF91E53
:103B7000C15018F120E030E040E251E4C501B40149
:103B80000E94544E2B013C010E943B4D4B01B12C35
:103B9000A12C4AE0C501B4010E94CE1CE80EF91E1A
:103BA000C501B4010E946A4D9B01AC01C301B20181
:103BB0000E94504C4B015C01DBCFC701CF911F919C
:103BC0000F91FF90EF90DF90CF90BF90AF909F90BC
:103BD0008F907F906F905F904F9008950C94121D7E
:103BE000CF93DF930E94121DEC010E94BE1C8C0F2C
:103BF0009D1FDF91CF910895CF92DF92EF92FF92B8
:103C00001F93CF93DF93EC016A017B0120E030E04A
:103C1000A901CB01B6010E94BD4C87FD34C020E054
:103C200030E048EC52E4C701B6010E941C4E181661
:103C300074F11C81612F70E090E080E00E946C4D77
:103C4000A70196010E94544E20E030E048EC52E477
:103C50000E94C24C0E94214ED62EF12CE12CE1167E
:103C6000E8F49C81E91658F461E0ED1408F060E096
:103C7000EA81FB81EE0DFF1D80810E94EA0B8FEF30
:103C8000E81AF80AECCFC12CD12C7601D2CFC12C86
:103C9000D12C88ECE82E82E4F82ECBCFDF91CF91A7
:103CA0001F91FF90EF90DF90CF9008953F924F9239
:103CB0005F926F927F928F929F92AF92BF92CF92BC
:103CC000DF92EF92FF920F931F93CF93DF9300D079
:103CD00000D0CDB7DEB79E838D83CB01BA010E94A1
:103CE000344DAD81BE811D967C936E931C971A96C0
:103CF0002D913C911B97A901461B570B9E96ED9069
:103D0000FC909F97E61AF70A9F967C936E939E9776
:103D100099962C91222331F0519541955109F194B6
:103D2000E194F108ED81FE8130A4BA01550F880BB2
:103D3000990B0E946C4D4B015C0110E000E03110CA
:103D40000DC0AD81BE8150962D913D914D915C91FC
:103D500053970E94544E0E94344D8B01B701FF0CC3
:103D6000880B990B0E946C4D6B017C01AD81BE816B
:103D700094968D919D910D90BC91A02D89839A83ED
:103D8000AB83BC83ED81FE81208D318D428D538DBF
:103D9000C701B6010E94544E29813A814B815C8152
:103DA0000E94C24C2B013C01B801110F880B990BEA
:103DB0000E946C4D9B01AC01C301B2010E94514CA9
:103DC0000E94344D2B01AD81BE811F967C936E9372
:103DD0001E9754962D913D914D915C915797C50139
:103DE000B4010E94544E29813A814B815C810E942A
:103DF000544EED81FE81248D358D468D578D0E9468
:103E0000514C4B015C01AD81BE815C968D929D92BF
:103E1000AD92BC925F973320A1F050962D913D91C9
:103E20004D915C915397C701B6010E94544EA50174
:103E300094010E94514CED81FE81648F758F868FB5
:103E4000978FAD81BE815C968C905C975D969C90BF
:103E50005D975E96AC905E975F96BC905F979A96E2
:103E60000D911C91B801012E000C880B990B0E943A
:103E70006C4D6B017C019B01AC01B401C5010E943A
:103E8000BD4C87FD16C0ED81FE8164A575A5072E8A
:103E9000000C880B990B0E946C4D6B017C019B01FF
:103EA000AC01B401C5010E941C4E181614F0640147
:103EB0007501C601D701ED81FE81848F958FA68F94
:103EC000B78FB201550C880B990B0E946C4D96016F
:103ED000A7010E94514C0E94344D601771074CF0AD
:103EE000AD81BE819C960D911C91601771070CF4F9
:103EF0008B01ED81FE8117870687F4806F2D70E0BE
:103F000090E080E00E946C4D4B015C01B801110F04
:103F1000880B990B0E946C4D9B01AC01C501B4014B
:103F20000E94544E20E030E048EC52E40E94C24C23
:103F30000E94214EF61608F46F2DAD81BE81DF96EA
:103F40006C9326960FB6F894DEBF0FBECDBFDF91FF
:103F5000CF911F910F91FF90EF90DF90CF90BF9086
:103F6000AF909F908F907F906F905F904F903F9019
:103F70000895CF92DF92EF92FF92CF93DF93CDB768
:103F8000DEB768970FB6F894DEBF0FBECDBFCE0187
:103F900001960E94FE03C980DA80EB80FC8080914C
:103FA000450A882331F0B701A6018CE39AE00E940C
:103FB000561E8091910A882331F0B701A60188E846
:103FC0009AE00E94561E68960FB6F894DEBF0FBEA8
:103FD000CDBFDF91CF91FF90EF90DF90CF9008950C
:103FE0001F93CF93DF93CDB7DEB768970FB6F894E2
:103FF000DEBF0FBECDBF90E0009709F045C08091B5
:10400000E30A9091E40A8230910580F1029799F1D8
:1040100084EF91E0A0E0B0E08093990890939A0833
:10402000A0939B08B0939C0880939D0890939E0852
:10403000A0939F08B093A00880EF9FE19093A308FE
:104040008093A20881E08093A1088091A4088160F8
:104050008D7F8B7F8093A40868960FB6F894DEBF9F
:104060000FBECDBFDF91CF911F91089587EE99E0EC
:104070000E940514CDCF81E08093E70961E0809133
:10408000E8090E94EA0BC4CF019731F7E9E1F6E0B5
:10409000DE01119689EA96E040AD51AD62AD73AD97
:1040A0004D935D936D937D9378968E179F07A1F73F
:1040B0008091E30A9091E40A81309105B1F0029772
:1040C000F1F18091450A882339F08CE39AE00E944F
:1040D00005118DE08093E0098091910A882311F108
:1040E00088E89AE00E9405111DC069817A818B8160
:1040F0009C810E943B4D81E08093450A862F90E091
:104100009093470A8093460A70E090E080E00E9416
:104110006A4DAB01BC018CE39AE00E94561E85E11A
:104120000E940B1481E09BE068960FB6F894DEBF06
:104130000FBECDBFDF91CF911F910C9418188AE16B
:104140009AE00E94721381E29AE00E94721311E0D9
:104150001093390A61E08091380A0E94EA0B1093AB
:104160003B0A61E080913A0A0E94EA0B69817A81F8
:104170008B819C810E943B4D1093910A862F90E089
:104180009093930A8093920A70E090E080E00E94FE
:104190006A4DAB01BC0188E89AE00E94561E87E197
:1041A000BFCF8F929F92AF92BF92CF92DF92EF924A
:1041B000FF920F931F93CF93DF93CDB7DEB7619735
:1041C0000FB6F894DEBF0FBECDBF91E3892E94E405
:1041D000992E99E4A92E90E5B92E89829A82AB8214
:1041E000BC8291E09D834E835F83688779870A87CD
:1041F0001B872C873D87CE86DF86E88AF98AF12CDB
:10420000E12C882319F081E1E82EF12CCE010196F2
:104210006C0110E000E0F60191906F015701A00ED3
:10422000B11EC5010E94BE4B981621F0692DC50133
:104230000E94C64B0F5F1F4F0131110561F7619658
:104240000FB6F894DEBF0FBECDBFDF91CF911F91A7
:104250000F91FF90EF90DF90CF90BF90AF909F9025
:104260008F900895CF92DF92EF92FF920F931F935A
:10427000CF93DF93EB01811145C090E080E06E01A8
:1042800021E1C20ED11C8E017C01EC1AFD0AC7018E
:10429000800F911F0E94BE4BF80181938F01EC1596
:1042A000FD05A9F788819981AA81BB818133944456
:1042B000A944B045E1F48C818130C9F46D817E81DF
:1042C0008F8198850E94CE10892B89F069857A8527
:1042D0008B859C850E94CE10892B49F06D857E854B
:1042E0008F8598890E94CE1021E0892B09F420E067
:1042F000822FDF91CF911F910F91FF90EF90DF9070
:10430000CF90089581E190E0BACFFF920F931F9371
:10431000CF93DF93CDB7DEB7C456D1090FB6F8946B
:10432000DEBF0FBECDBFFC01F1804F2D50E08E01EE
:104330000F5F1F4FBC01C8010E94EB4F8091C60068
:104340008091C6008091C1008F778093C1008091D9
:10435000C10088608093C100F8018E2F801B8F15EB
:1043600088F481918093C6008091C00086FFFCCFC5
:104370008091C00080648093C0008091C6008091CD
:10438000C600EBCFCC59DF4F0FB6F894DEBF0FBE9F
:10439000CDBFDF91CF911F910F91FF900C94C8106A
:1043A0002F923F924F925F926F927F928F929F9245
:1043B000AF92BF92CF92DF92EF92FF920F931F9333
:1043C000CF93DF93CDB7DEB7C25ED1400FB6F8947E
:1043D000DEBF0FBECDBF84E6E9E9F3E0DE01AB59F5
:1043E000BF4F01900D928A95E1F780E69AEEA0E02A
:1043F000B0E08093BD089093BE08A093BF08B0932F
:10440000C0088093C1089093C208A093C308B093DA
:10441000C40880E290E19093C7088093C608109288
:10442000C5088091C80883608B7F8093C808A896D0
:10443000EFADA897E550E83308F05CC0F0E08827BE
:10444000EB5DFD4D8F4F0C94344CD4267A220A2319
:104450007A227A227A227A227A227A227A227A227C
:104460007A227A22A822CA22F62200231323942237
:104470007123B523E4233E247A227A225024B824DF
:1044800014255D2230255D25E725832579267A22AE
:104490007A227A22AC267A227A227A227A227A2206
:1044A0007A22E026F026FC26A9271928502928235D
:1044B000A3297C2A6E2BB72B762CC0900B04D090AE
:1044C0000C04E0900D04F0900E0461E2CE01019620
:1044D0000E945C10CF82D886E986FA868BE08A83B8
:1044E000CE0101960E944510CE0101960E948521C1
:1044F00010929403CE51DE4F0FB6F894DEBF0FBE7C
:10450000CDBFDF91CF911F910F91FF90EF90DF9082
:10451000CF90BF90AF909F908F907F906F905F9063
:104520004F903F902F90089510920B0410920C041E
:1045300010920D0410920E0461E2CE0101960E94C9
:104540005C101F82188619861A868BE08A83A3C1A5
:10455000CE0187539F4F0E940D0B88E0FE01E75369
:10456000FF4FDE01A154BE4F01900D928A95E1F7F5
:1045700062E1CE0101960E945C108FE08A8388E0A0
:10458000FE01E154FE4FDE01179601900D928A95CF
:10459000E1F781C110920B0410920C0410920D04EB
:1045A00010920E04A9969FADA9971092DF09109260
:1045B000DE099093E0099B3011F0973039F4AA9608
:1045C0008FADAA97869583708093110BAA968FADB5
:1045D000AA9780FF0BC09B3049F48BE00E941E1C01
:1045E000882321F00E94D9070E9472081091E009E7
:1045F00064E1CE0101960E945C101F8388E0A6CF83
:104600008091E0090E941E1C882321F00E94D90796
:104610000E947208CE0101960E94BD10CE01019643
:104620000E94852167CF8091E0098B3019F084507A
:10463000833040F410920B0410920C0410920D047D
:1046400010920E0460E081E093E00E949C1AE2CF99
:1046500081E080930C0781E090E09093DE068093E8
:10466000DD061092D40A1092720A1092DF0910929D
:10467000DE091092A4081092B0081092BC0885E0E0
:104680009AE00E9430178CE09AE00E94301783E194
:104690009AE00E94301783EE99E00E94051485EE9F
:1046A00099E00E9405148CE39AE00E94D910809151
:1046B000DF0681608B7F8093DF068091AD0690914D
:1046C000AE06A091AF06B091B006809351069093CC
:1046D0005206A0935306B09354068AE10E940B142D
:1046E00099CFE5E6F0E0EC0FFD1F3396A9E1B6E0C7
:1046F00085E690E08C0F9D1F4B9641915191619101
:104700007191D8964D935D936D937C93DB975896FA
:104710008E179F0791F788E1E5E6F0E0EC0FFD1FAB
:104720003396DE01AE5DBE4F01900D928A95E1F7A2
:1047300068E1CE0101960E945C108FE18A8388E1D6
:10474000FE01EE5DFE4FDE01179601900D928A95F7
:10475000E1F7CE0101960E944510CE0101960E941C
:10476000852188E10E942410C5CEA9E1B6E0CE01E2
:1047700087539F4F29EA36E0182F092FD8964D917D
:104780005D916D917C91DB97FC0141935193619315
:104790007193CF0158962A173B0781F788E1E12FE3
:1047A000F02FDE01A65FBE4F01900D928A95E1F7D2
:1047B00069E1CE0101960E945C108FE18A8388E155
:1047C000FE01E65FFE4FDFCEA9966FADA99760931D
:1047D000050B862F90E0E091010BF091020B968380
:1047E0008583E091030BF091040B96838583AA9651
:1047F0008FADAA9780930D0B282F30E0E091090B25
:10480000F0910A0B36832583E0910B0BF0910C0B92
:10481000368325836093E90A8093EA0A89EE99E05A
:104820000E940F12A9966FADA99780EF99E00E94A0
:104830000F12AA966FADAA9787EF99E00E940F1208
:10484000AA966FADAA978EEF99E00E940F12009181
:10485000EE091091FC096AE1CE0101960E945C10FC
:1048600089E08A830F831887CE0101960E94451044
:10487000CE0101960E9485218AE174CF0091EE0954
:104880001091FC096BE1CE0101960E945C1089E059
:104890008A830F831887CE0101960E944510BECEF1
:1048A000AA968EAD9FADAA979093200680931F067F
:1048B000AC968EAD9FADAC9790932806809327065B
:1048C000AE968EAD9FADAE979093300680932F0637
:1048D000E0968EAD9FADE0979093380680933706B3
:1048E000E2968EAD9FADE29790933D0680933C0695
:1048F000E4968EAD9FADE497909342068093410677
:10490000E6968EAD9FADE697909347068093460658
:10491000E8968EAD9FADE89790934C0680934B063A
:1049200082E1E5E6F0E0EC0FFD1F3396DE01AE58C4
:10493000BE4F01900D928A95E1F76EE1CE0101968E
:104940000E945C1089E18A8382E1FE01EE58FE4FED
:10495000DE01179601900D928A95E1F7CE0101963E
:104960000E944510CE0101960E9485218EE1FACE6B
:104970000091270610912806A0912F06B0913006CD
:10498000E0913706F091380660913C0670913D0643
:1049900040914106509142062091460630914706CB
:1049A00080914B0690914C06E0901F06F0902006F7
:1049B000C05ADE4FF982E882C056D140CE59DE4F50
:1049C00019830883C256D140CC59DE4FB983A883DE
:1049D000C456D140CA59DE4FF983E883C656D14048
:1049E000C859DE4F79836883C856D140C659DE4F17
:1049F00059834883CA56D140C459DE4F398328832E
:104A0000CC56D140C259DE4F99838883CE56D140CF
:104A10006FE1CE0101960E945C1089E18A8382E1F8
:104A2000FE01E05AFE4FAFCDCE0187539F4F0E944B
:104A3000FE0388E1FE01E753FF4FDE01AE50BF4F9A
:104A400001900D928A95E1F760E2CE0101960E94F5
:104A50005C108FE18A8388E1FE01EE50FF4F93CD19
:104A600005E610E00C0F1D1F0D5F1F4FC8010E94CF
:104A7000E60880E1F801DE01AC56BE4F01900D92D0
:104A80008A95E1F762E2CE0101960E945C1080E116
:104A9000FE01EC56FE4FDE01179601900D928A95AD
:104AA000E1F787E18A83CE0101960E944510CE018D
:104AB00001960E94852182E255CE80E1E1EEF6E08A
:104AC000DE01A753BF4F01900D928A95E1F780E177
:104AD000FE01E753FF4FDE01AC57BE4F01900D9230
:104AE0008A95E1F763E2CE0101960E945C1080E1B5
:104AF000FE01EC57FE4FDE01179601900D928A954C
:104B0000E1F787E123CD60901D0670901E0680902E
:104B100025069090260640902D0650902E06009176
:104B2000350610913606809139060E94540C5C01BE
:104B300080913E060E94540C6C01809143060E94B5
:104B4000540C7C01809148060E94540CC25BDE4FDD
:104B500079826882CE54D140C05BDE4F99828882D0
:104B6000C055D140CE5ADE4F59824882C255D140FD
:104B7000CC5ADE4F19830883C455D140CA5ADE4F40
:104B8000B982A882C655D140C85ADE4FD982C882A0
:104B9000C855D140C65ADE4FF982E882CA55D14085
:104BA000C45ADE4F99838883CC55D14065E2CE014B
:104BB00001960E945C1082E1FE01E25BFE4FDE0185
:104BC000179601900D928A95E1F789E1BFCCA996DD
:104BD0008FADA997982F9F77923009F461C070F537
:104BE0009923B1F1913009F449C08091E90990917C
:104BF000F709892B9091F009892B9091FE09892B57
:104C00008093D40ACE0187539F4F0E940D0B88E0FA
:104C1000FE01E753FF4FDE01A954BE4F01900D92F4
:104C20008A95E1F764E2CE0101960E945C108FE064
:104C30008A8388E0FE01E954FE4FA5CC933009F445
:104C400041C0943091F687FF4FC083E19AE004C0E1
:104C500087FF05C089EE99E00E943017C6CF89EE24
:104C600099E00E9472138091EA098111E090EE09A7
:104C70006E2D89EE99E00E940F12B7CF87FF03C017
:104C800080EF99E0E9CF80EF99E00E947213809164
:104C9000F1098111F090F5096F2D80EF99E0EBCFCC
:104CA00087FF03C087EF99E0D7CF87EF99E00E9495
:104CB00072138091F80981110091FC09602F87EF30
:104CC00099E0D9CF87FF03C08EEF99E0C5CF8EEF73
:104CD00099E00E9472138091FF0981111091030ADB
:104CE000612F8EEF99E0C7CF83E19AE00E947213A3
:104CF0007CCF81E20E94E40A4C0180E20E94E40A37
:104D00005C01F0901D0700911E0785E40E94E40AF3
:104D10006C0184E40E94E40A9C0191E0892809F076
:104D200090E010E090FB10F991E0AB2809F090E0E2
:104D300090FB11F991E0CD2809F090E090FB12F979
:104D400091E0232B09F090E090FB13F9F0FA14F9AD
:104D500000FB15F966E24DCC8BE0E5E6F0E0EC0FE8
:104D6000FD1F3396DE01AC55BE4F01900D928A9522
:104D7000E1F76AE2CE0101960E945C108BE0FE0131
:104D8000EC55FE4FDE01179601900D928A95E1F7E2
:104D900082E18A83CE0101960E944510CE010196E0
:104DA0000E9485218AE2DECC10920B0410920C0442
:104DB00010920D0410920E0461E08EE093E045CC59
:104DC00061E3CE0101960E945C108BE08A8380E152
:104DD00090E0A4E0B1E08F839887A987BA875BCD84
:104DE00062E3CE0101960E945C108BE08A8387E229
:104DF00095E3A0E0B0E0EFCFE4966CAD7DAD8EAD75
:104E00009FADE4970E946A4D6B017C01E0966CAD0A
:104E10007DAD8EAD9FADE0970E946A4D4B015C0168
:104E2000AC966CAD7DAD8EAD9FADAC970E946A4DDA
:104E30002B013C0120E030E84BEB54E4C701B60104
:104E40000E94BD4C87FF07C0C12C20E8D22E2BEB5F
:104E5000E22E24E4F22E20E030E84BEB54E4C501CE
:104E6000B4010E94BD4C87FF07C0812C90E8992EA9
:104E70009BEBA92E94E4B92E20E030E84BEB54E4F0
:104E8000C301B2010E94BD4C87FF07C0412C80E8DE
:104E9000582E8BEB682E84E4782EE8964CAD5DADF1
:104EA0006EAD7FADE897EC968CAD9DADAEADBFAD70
:104EB000EC974092F1065092F2066092F3067092DF
:104EC000F4068092F5069092F606A092F706B0924C
:104ED000F806C092F906D092FA06E092FB06F0922C
:104EE000FC064093010750930207609303077093F9
:104EF00004078093050790930607A0930707B093D4
:104F0000080784E1E5E6F0E0EC0FFD1F3396DE01D3
:104F1000A65CBE4F01900D928A95E1F763E3CE0146
:104F200001960E945C108BE18A8384E1FE01E65CBD
:104F3000FE4FDE01179601900D928A95E1F7CE01A2
:104F400001960E944510CE0101960E94852183E3BF
:104F500009CC8091010790910207A0910307B091BD
:104F60000407C953DE4F88839983AA83BB83C75C38
:104F7000D1408091050790910607A0910707B09155
:104F80000807C553DE4F88839983AA83BB83CB5C14
:104F9000D1406091F9067091FA068091FB069091DC
:104FA000FC060E943B4D6B017C016091F5067091FF
:104FB000F6068091F7069091F8060E943B4D4B0152
:104FC0005C016091F1067091F2068091F306909178
:104FD000F4060E943B4D2B013C0164E3CE01019697
:104FE0000E945C108BE18A834F82588669867A869C
:104FF0008B869C86AD86BE86CF86D88AE98AFA8A59
:10500000C953DE4F88819981AA81BB81C75CD14099
:105010008B8B9C8BAD8BBE8BC553DE4F888199816A
:10502000AA81BB81CB5CD1408F8B988FA98FBA8F1F
:1050300032CCA9961FADA997AA960FADAA97AB96A9
:105040005FADAB97AC964FADAC97AD963FADAD971E
:10505000AE962FADAE97AF969FADAF97E0968FAD62
:10506000E09719830A835B834C833D832E839F8360
:10507000888789EE99E015FF07C10E94721380EFBF
:1050800099E016FF04C10E94721387EF99E017FFA1
:1050900001C10E9472138EEF99E000FFFEC00E94D2
:1050A00072136981617085E30E94EA0B6A8163FB78
:1050B000662760F987E10E94EA0B6A8166FB662732
:1050C00060F986E10E94EA0B698162FB662760F95C
:1050D0008FE10E94EA0B6A8167FB662760F981E134
:1050E0000E94EA0B6981669561708BE10E94EA0B70
:1050F0006A8162FB662760F988E10E94EA0B6A8197
:105100006695617089E10E94EA0B6A81629561701F
:1051100080E10E94EA0B6A8165FB662760F98FE0F7
:105120000E94EA0B6B8161708EE00E94EA0B6B813A
:10513000669561708DE00E94EA0B6B8162FB6627C9
:1051400060F98CE00E94EA0B6B8167FB662760F9CF
:1051500085E20E94EA0B6C81617084E20E94EA0B96
:105160006C816695617087E20E94EA0B6C8162FB3C
:10517000662760F986E20E94EA0B6C8163FB662772
:1051800060F989E20E94EA0B6C816295617088E2A5
:105190000E94EA0B6C8165FB662760F98BE20E9436
:1051A000EA0B6C8166FB662760F98AE20E94EA0BD3
:1051B0006B8163FB662760F98CE20E94EA0B6B81CE
:1051C000629561708EE20E94EA0B6B8165FB662737
:1051D00060F98DE20E94EA0B6B8166FB662760F93D
:1051E0008FE20E94EA0B698163FB662760F98DE11B
:1051F0000E94EA0B6981629561708EE10E94EA0B60
:10520000C753DF4F1882C95CD040C653DF4F1882A6
:10521000CA5CD040C553DF4F1882CB5CD040C4532A
:10522000DF4F1882CC5CD040C353DF4F1882CD5C77
:10523000D040C253DF4F1882CE5CD040C153DF4F05
:105240001882CF5CD040C053DF4F1882C05DD04081
:10525000CE0187539F4F0E940D0B88E0FE01E7535C
:10526000FF4FDE01A155BE4F01900D928A95E1F7E7
:1052700065E3CE0101960E945C108FE08A8388E08E
:10528000FE01E155FE4F7FC90E943017F8CE0E9403
:105290003017FBCE0E943017FECE0E94301701CF90
:1052A000CE0101960E94BD10CE0101960E9485217B
:1052B0001092540760EE75E08DE496E00E9441166E
:1052C0006BEB75E085E696E00E94411666E975E0B5
:1052D0008DE796E00E94411661E775E085E996E06A
:1052E0000E9441166CE475E08DEA96E00E9441163A
:1052F00067E275E085EC96E00E9441168091EF062A
:105300009091F006B0E0A0E08093490790934A079F
:10531000A0934B07B0934C0780934D0790934E0793
:10532000A0934F07B09350078FEF95E190935307E9
:1053300080935207109251078091540783608B7FAE
:1053400080935407D7C8A9968FADA997882309F4ED
:10535000BEC0AA968FADAA9780938309AB968FADF6
:10536000AB9780938409AF968CAD9DADAEADBFADCC
:10537000AF978093850990938609A0938709B0938E
:105380008809E3968CAD9DADAEADBFADE39780933C
:10539000890990938A09A0938B09B0938C09E796A9
:1053A0008CAD9DADAEADBFADE79780938D09909369
:1053B0008E09A0938F09B0939009EB968CAD9DADAB
:1053C000AEADBFADEB978093910990939209A093F6
:1053D0009309B0939409EF968CAD9DADAEADBFAD82
:1053E000EF978093950990939609A0939709B093AE
:1053F0009809C158DF4F88819981AA81BB81CF5715
:10540000D0408093990990939A09A0939B09B093F7
:105410009C09CD57DF4F88819981AA81BB81C358F0
:10542000D04080939D0990939E09A0939F09B093CB
:10543000A009C957DF4F88819981AA81BB81C758CC
:10544000D0408093A1099093A209A093A309B0939F
:10545000A409C557DF4F88819981AA81BB81CB58A8
:10546000D0408093A5099093A609A093A709B09373
:10547000A809C157DF4F88819981CF58D0409093B8
:10548000AA098093A9091092DF091092DE098EE023
:105490008093E0090E94D9070E94720889E2E5E63C
:1054A000F0E0EC0FFD1F3396DE01A753BF4F0190D4
:1054B0000D928A95E1F768E3CE0101960E945C1097
:1054C00080E38A8389E2FE01E753FF4F5CC8809145
:1054D000CD098150833010F71092D9081092DA0864
:1054E0001092DB081092DC080E947F1A85E08093FE
:1054F000CD091092CE09D2CF8091CD09815011E013
:10550000833008F010E090918309C953DE4F9883EF
:10551000C75CD1400091840940908509509086096C
:1055200060908709709088098091890990918A0913
:10553000A0918B09B0918C09C553DE4F8883998364
:10554000AA83BB83CB5CD14080918D0990918E0959
:10555000A0918F09B0919009C153DE4F8883998340
:10556000AA83BB83CF5CD14080919109909192092D
:10557000A0919309B0919409CD52DE4F888399830D
:10558000AA83BB83C35DD140809195099091960910
:10559000A0919709B0919809C952DE4F88839983E9
:1055A000AA83BB83C75DD1408091990990919A09E4
:1055B000A0919B09B0919C09C552DE4F88839983C5
:1055C000AA83BB83CB5DD14080919D0990919E09B8
:1055D000A0919F09B091A009C152DE4F88839983A1
:1055E000AA83BB83CF5DD1408090A1099090A2098E
:1055F000A090A309B090A409C090A509D090A609D5
:10560000E090A709F090A8092090A9093090AA0974
:1056100069E3CE0101960E945C1080E38A831F83B8
:10562000C953DE4F9881C75CD140988709874A8665
:105630005B866C867D86C553DE4F88819981AA8101
:10564000BB81CB5CD1408E879F87A88BB98BC15320
:10565000DE4F88819981AA81BB81CF5CD1408A8B42
:105660009B8BAC8BBD8BCD52DE4F88819981AA81FB
:10567000BB81C35DD1408E8B9F8BA88FB98FC952E0
:10568000DE4F88819981AA81BB81C75DD1408A8F15
:105690009B8FAC8FBD8FC552DE4F88819981AA81C7
:1056A000BB81CB5DD1408E8F9F8FA8A3B9A3C15280
:1056B000DE4F88819981AA81BB81CF5DD1408AA3C9
:1056C0009BA3ACA3BDA38EA29FA2A8A6B9A6CAA65F
:1056D000DBA6ECA6FDA63FA62EA6DDC8F090CD0960
:1056E000E090CE098091CF099091D009A091D10985
:1056F000B091D209892B8A2B8B2BA9F194E0F91256
:105700001DC02091C9093091CA094091CB0950911F
:10571000CC090FEF1FEF21153105A1E04A07510514
:1057200008F489016AE3CE0101960E945C108BE0C7
:105730008A83FF82E8861A870987ADC80E947E0D9A
:105740000091CF091091D0092091D1093091D2094F
:10575000601B710B820B930B28EE33E040E050E0AE
:105760000E94DF4BD6CF20E030E0A901DACF0091D4
:10577000AB091091AC094090AD095090AE09609012
:10578000AF097090B0098090B1099090B209A090D3
:10579000B309B090B409C090B509D090B609E090B3
:1057A000B709F090B8098091B9099091BA09A09110
:1057B000BB09B091BC09C953DE4F88839983AA8382
:1057C000BB83C75CD1408091BD099091BE09A09177
:1057D000BF09B091C009C553DE4F88839983AA835E
:1057E000BB83CB5CD1408091C1099091C209A0914B
:1057F000C309B091C409C153DE4F88839983AA833A
:10580000BB83CF5CD1408091C5099091C609A0911E
:10581000C709B091C809CD52DE4F88839983AA8306
:10582000BB83C35DD1408091C9099091CA09A09101
:10583000CB09B091CC09C952DE4F88839983AA83E2
:10584000BB83C75DD1406BE3CE0101960E945C1023
:1058500089E28A830F83188749865A866B867C86FD
:105860008D869E86AF86B88AC98ADA8AEB8AFC8AD8
:10587000C953DE4F88819981AA81BB81C75CD14021
:105880008D8B9E8BAF8BB88FC553DE4F88819981EE
:10589000AA81BB81CB5CD140898F9A8FAB8FBC8FA3
:1058A000C153DE4F88819981AA81BB81CF5CD140F1
:1058B0008D8F9E8FAF8FB8A3CD52DE4F8881998197
:1058C000AA81BB81C35DD14089A39AA3ABA3BCA32A
:1058D000C952DE4F88819981AA81BB81C75DD140C1
:1058E0008DA39EA3AFA3B8A70C944B248091CD09A0
:1058F0008150833008F4BAC03090AB09332009F4EA
:1059000075C04090AD095090AE096090AF0970909D
:10591000B009C301B2010E94CE10892B09F4A6C0C0
:105920008090B1099090B209A090B309B090B409E9
:10593000C501B4010E94CE10892B09F497C0C09014
:10594000B509D090B609E090B709F090B809C70141
:10595000B6010E94CE10892B09F488C0C301B201A0
:105960000E943B4D062FC501B4010E943B4D162FEE
:10597000C701B6010E943B4D8091AC09811140C026
:1059800040924C0A50924D0A60924E0A70924F0A11
:105990008092500A9092510AA092520AB092530AF1
:1059A000C092540AD092550AE092560AF092570AD1
:1059B0000093770A1093780A6093790A1092580A34
:1059C0001092590A10925A0A10925B0A10924B0ACE
:1059D00010924A0A10926B0A10926A0A10927B0A7D
:1059E00095018401B301A2010E94D1206CE3CE0194
:1059F00001960E945C1088E08A833F820C944B24BD
:105A00004092980A5092990A60929A0A70929B0A60
:105A100080929C0A90929D0AA0929E0AB0929F0A40
:105A2000C092A00AD092A10AE092A20AF092A30A20
:105A30000093C30A1093C40A6093C50A1092A40A83
:105A40001092A50A1092A60A1092A70A1092970A1D
:105A50001092960A1092B70A1092B60A1092C70ACC
:105A600095018401B301A20181E0BECF312CBECFEC
:105A70000C94D021E9E9F3E084E6DF011D928A95D8
:105A8000E9F7109208040C94C8102F923F924F929D
:105A90005F926F927F928F929F92AF92BF92CF92BE
:105AA000DF92EF92FF920F931F93CF93DF93CDB7C7
:105AB000DEB7AE970FB6F894DEBF0FBECDBF8091B4
:105AC000DE099091DF09009709F466C0019711F48F
:105AD0000C947A3A0E94E51190910C0480FB92F9A3
