:100000000C94F9010C9420240C94F5230C94CA232D
:100010000C949F230C9474230C9449230C941E235A
:100020000C94F3220C942A020C942A020C942A02B7
:100030000C942A020C942A020C942A020C942A0290
:100040000C942A020C942A020C942A020C942A0280
:100050000C942A020C942A020C942A020C94A922D1
:100060000C942A020C944B240C942A020C942A021D
:100070000C948E250C94B7250C942A020C942A0219
:100080000C942A020C942A020C942A020C942A0240
:100090000C942A020C942A020C942A020C942A0230
:1000A0000C942A020C942A020C942A020C942A0220
:1000B0000C942A020C942A020C942A020C942225F5
:1000C0000C942A020C942A020C942A020C942A0200
:1000D0000C942A020C942A020C942A020C942A02F0
:1000E0000C942A020C94C7110C94191C0C94ED0862
:1000F0000C9449120C9416120C9419060C942D179A
:100100000C94CC160C948F0C0C94CB030C94A41769
:100110000C9406040C94C9130C9442170C94381ECA
:100120000C94F5150C94EA0C0C9435260C94F819E3
:100130000C9435190C94850C0C94821B0C940204BD
:100140000C9411060C94630C0C941F190C94061C4F
:100150000C9431160C940C040C947B0C0C94D60C5F
:100160000C94E6030C94D1030C94F9050C94BA1E7C
:100170000C94D3160C942E1C0C94301B0C94FC1B6A
:100180000C94CF200C94E00C0C949C220C943B1704
:100190000C94B81F0C94BD0C0C94EB1F0C945419C8
:1001A0000C9497200C94A3160C946E080C943B208E
:1001B0000C947E150C94CC0C0C94AE1B0C94F00398
:1001C0000C94741D0C9483150C94DF0A0C949A1BE8
:1001D0000C94F40C0C94780B0C942F200C944B176B
:1001E0000C94F4030C9429060C94DC1D0C941F2031
:1001F0000C941E1F0C946C0C0C94F8030C94330894
:100200000C942B190C9451190C9449220C940B0446
:100210000C9466080C94FE0D0C94EA030C94E00315
:100220000C94941E0C94DD030C94371A0C94710CEE
:100230000C945B1D0C9413200C94970C0C94FE0CE6
:100240000C94FC160C94651B0C94A6190C94B70B1B
:100250000C94D9030C9488150C9410040C94491A2E
:100260000C94831C0C94101C0C9421060C944E19B5
:100270000C94FE030C94B30C0C94A9130C94D503AA
:100280000C949E220C94D01B0C94030D0C947317A9
:100290000C949F0C0C94671E0C943B160C949C17AA
:1002A0000C94A90C0C94C71C0C9404100C94090613
:1002B000005EBCE2613FDD83C29C7E20A3FD1F4146
:1002C000009D23BE46DB65F88C11AF32CA57E97436
:1002D00000002100240027002A002D0030003300F8
:1002E00001010000040107010A01000022002500AD
:1002F00028002B002E00310034000201000005010F
:1003000008010B01000020002300260029002C001A
:100310002F0032000001000003010601090105055C
:100320000505070508080808020202020A0A08086B
:100330000404040401010101010101010303030399
:1003400003030303040707070C0C0C0C0C0C0C0C28
:100350000202020206060606060606060B0B0B0B39
:100360000B0B0B0B0102102020080810204010205E
:100370004080020102010804020101020408102069
:100380004080804020100804020180040201804067
:1003900020100804020108040201010204081020D0
:1003A0004080010204081020408000000A0B02096E
:1003B0000C0D0E08070304010000000000000000FF
:1003C000000000000000000000000000000000002D
:1003D00000000000000012111000000000000000EA
:1003E000000000000000000000000000000000000D
:1003F000352611241FBECFEFD1E2DEBFCDBF00E016
:100400000CBF13E0A0E0B2E0E2E5FEE500E00BBFC8
:1004100002C007900D92A438B107D9F729E0A4E8EB
:10042000B3E001C01D92A734B207E1F711E0C9EFB4
:10043000D1E000E006C021970109802FFE010E9453
:10044000C42CC83FD10780E00807A9F70E94092AF9
:100450000C94272F0C94000080911508882311F12B
:1004600081E090E0909314088093130810922B0978
:1004700010922D0910922C091092310910922F0917
:1004800010922E091092300980911E09809329093B
:1004900080911F0980932A09109234091092330920
:1004A000109235090895ECE6F5E015821482A3E96F
:1004B000B6E04CE251E060E070E0D0964D935D9381
:1004C0006D937C93D397D4964D935D936D937C936A
:1004D000D7978EEF9DE0DA969C938E93D997D89616
:1004E0001C92AEECB6E08C9181608D7F8B7F8C93FB
:1004F00082E090E091838083A281B38114961C9264
:100500001E9213979187808715861486A285B385DE
:1005100014961C921E921397918B808B158A148AC5
:10052000A289B38914961C921E921397918F808F83
:10053000158E148E028CF38DE02D14821382089593
:1005400021E030E03093310620933006809132066E
:1005500081608B7F809332068CE291E0A0E0B0E076
:100560008093C3069093C406A093C506B093C606B5
:100570008093C7069093C806A093C906B093CA0695
:100580008EEF9DE09093CD068093CC061092CB0623
:100590008091CE0681608D7F8B7F8093CE06809187
:1005A00015088B3029F410925506109254060895C0
:1005B000863029F4309355062093540608959CEF15
:1005C000980F923038F482E090E090935506809333
:1005D00054060895873029F580913A0690913B069C
:1005E000B0E0A0E08093A7079093A807A093A90785
:1005F000B093AA078093AB079093AC07A093AD0785
:10060000B093AE078BE396E19093B1078093B00768
:100610001092AF078091B20781608D7F8B7F8093AE
:10062000B20783E090E0D1CFFC0190E1A4E3B6E013
:1006300001900D929A95E1F78091400690914106C4
:10064000B0E0A0E0E3E9F6E080930B0790930C079D
:10065000A0930D07B0930E0780930F079093100798
:10066000A0931107B09312078FED9AE090931507AE
:100670008093140710921307A6E1B7E08C91836072
:100680008B7F8C938091420690914306B0E0A0E06E
:1006900080839183A283B38384839583A683B78366
:1006A00084E090E1928781871086EEE9F6E0808110
:1006B00083608B7F808384E396E090930B09809323
:1006C0000A0984E690E09093F2088093F1089093F1
:1006D000A6088093A50808959C014FB7F8948091CF
:1006E0007904E091780481111CC081E08E0F809321
:1006F000780493E0E99FF0011124E150FC4F31832D
:1007000020836283883211F41092780490917804E7
:1007100080917704981303C081E0809379044FBFE0
:100720000895909177049F5F9832A1F09093770499
:1007300091E09E0F9093780483E0E89FF0011124EC
:10074000E150FC4F318320836283983241F710924D
:100750007804E5CF10927704EBCF8150823108F016
:100760005AC0E82FF0E08827E754FC4F8F4F0C94D5
:10077000C42CD903DD03CB03D103D5030B04E00361
:10078000E603EA03F003F403F803FE0302040B0498
:1007900006040C041004809180008F778093800001
:1007A0000895809180008F7DF9CF80918000877FB0
:1007B000F5CF84B58F7784BD089584B58F7DFBCF49
:1007C0008091B0008F778093B00008958091B00041
:1007D0008F7DF9CF809190008F778093900008955E
:1007E000809190008F7DF9CF80919000877FF5CF29
:1007F0008091A0008F778093A00008958091A00041
:100800008F7DF9CF8091A000877FF5CF8091200167
:100810008F77809320010895809120018F7DF9CFFB
:1008200080912001877FF5CFCF93DF93282F30E091
:10083000F901E655FC4F8491F901EC59FC4FD49134
:10084000F901E25EFC4FC491CC23A1F081110E941A
:10085000AD03EC2FF0E0EE0FFF1FEC5FFC4FA59116
:10086000B491EC91ED2381E090E009F480E0DF9118
:10087000CF91089580E090E0FACFCF93DF93EC0121
:10088000188219821A821B821C821D821E821F827C
:100890008EE00E9414049A8180FB90F99A838DE087
:1008A0000E9414049A8180FB91F99A838CE00E9443
:1008B00014049A8180FB92F99A83E3E1F8E088813D
:1008C000938590FB85F9928990FB86F9918D90FB39
:1008D00087F98883898190A190FB80F9898389E1D8
:1008E0000E941404998180FB91F9998388E10E9408
:1008F0001404998180FB92F9998387E10E94140482
:10090000998180FB93F9998380E10E941404998175
:1009100080FB94F999838FE00E941404998180FBF5
:1009200095F9998386E10E941404998180FB96F9D8
:10093000998381E10E941404998180FB97F999833E
:100940008CE20E9414049A8180FB93F99A838EE2D0
:100950000E9414049A8180FB94F99A838DE20E948C
:1009600014049A8180FB95F99A838FE20E94140403
:100970009A8180FB96F99A8385E20E9414049A81F9
:1009800080FB97F99A8384E20E9414049B8180FB88
:1009900090F99B8387E20E9414049B8180FB91F96C
:1009A0009B8386E20E9414049B8180FB92F99B83C7
:1009B00089E20E9414049B8180FB93F99B8388E267
:1009C0000E9414049B8180FB94F99B838BE20E941C
:1009D00014049B8180FB95F99B838AE20E94140496
:1009E0009B8180FB96F99B8385E30E941404988188
:1009F00080FB90F998838FE10E941404988180FB1A
:100A000092F998838BE10E941404988180FB91F9FC
:100A100098838DE10E941404988180FB93F9988358
:100A20008EE10E941404988180FB94F99883DF91F1
:100A3000CF9108951F93CF93DF93282F30E0F901D2
:100A4000E655FC4F8491F901EC59FC4FD491F90122
:100A5000E25EFC4FC491CC23A9F0162F81110E94B5
:100A6000AD03EC2FF0E0EE0FFF1FE651FD4FA59117
:100A7000B4918FB7F894EC91111108C0D095DE2392
:100A8000DC938FBFDF91CF911F910895DE2BF8CFBC
:100A9000CF93DF9390E0FC01EC59FC4F2491825EF0
:100AA0009C4FFC0184918823C9F090E0880F991F26
:100AB000FC01E053FD4FA591B491FC01E651FD4FBF
:100AC000C591D49161110DC09FB7F8948C91209578
:100AD00082238C938881282328839FBFDF91CF9125
:100AE0000895623051F49FB7F8943C91822F80951D
:100AF00083238C93E8812E2BEFCF8FB7F894EC9162
:100B00002E2B2C938FBFEACF863308F0865320918B
:100B10007B00982F9870277F922B90937B00877093
:100B2000806480937C0080917A00806480937A0056
:100B300080917A0086FDFCCF8091780090917900B9
:100B400008953FB7F8948091F4039091F503A09134
:100B5000F603B091F70326B5A89B05C02F3F19F007
:100B60000196A11DB11D3FBFBA2FA92F982F88272D
:100B7000BC01CD01620F711D811D911D42E0660F08
:100B8000771F881F991F4A95D1F708958F929F92DA
:100B9000AF92BF92CF92DF92EF92FF926B017C01F6
:100BA0000E94A1054B015C01C114D104E104F104D0
:100BB000B9F00E94A105681979098A099B09683E64
:100BC00073408105910580F321E0C21AD108E10844
:100BD000F10888EE880E83E0981EA11CB11CE4CFBA
:100BE000FF90EF90DF90CF90BF90AF909F908F904D
:100BF0000895CF93C091ED0381E0C827C093ED0322
:100C000061E084E30E9448056C2F84E3CF910C944B
:100C10001A05E8E5F5E08381948101969483838346
:100C20000895E8E5F5E080859185019691878087B4
:100C30000895E8E5F5E08585968501969687858790
:100C40000895E8E5F5E0828993890196938B828B7C
:100C500008950895DC0180E0615090F09D919827FF
:100C6000E92FEF70F0E0E055FD4F2491E92FE29578
:100C7000EF70F0E0E054FD4FE491822F8E27ECCF2F
:100C80000895DC012C911196ED91FC91F8948181ED
:100C9000822B81839281322F30959323928387E038
:100CA00090E00197F1F781818323818383E290E0D3
:100CB0000197F1F790817894EFECF0E03197F1F73C
:100CC000922381E009F480E00895FC019081018085
:100CD000F281E02D292F209560FF14C0F8948281C5
:100CE000822382838181892B8183A3E2B0E01197E3
:100CF000F1F78281982B9283789487ED90E00197A9
:100D0000F1F70895F8948281822382838181892B6F
:100D10008183AFEFB0E01197F1F78281982B928336
:100D200078948FE090E0EBCFDF92EF92FF920F93F9
:100D30001F93CF93DF93EC01D62EE42E08E010E052
:100D4000FF24F39461E08D2D8F2109F460E0CE0142
:100D50000E946506FF0C01501109A1F7E11010C0B7
:100D6000F894E981FA819181888180958923818332
:100D7000E981FA81928188818095892382837894A0
:100D8000DF91CF911F910F91FF90EF90DF90089529
:100D9000EF92FF920F931F93CF93DF938C017B0110
:100DA00040E065E50E949406E70188E0E80EF11C4A
:100DB000699140E0C8010E949406CE15DF05C1F795
:100DC000DF91CF911F910F91FF90EF900895FC015B
:100DD00090810180F281E02DF8948181292F209566
:100DE0008223818378943DE743E050E0315029F13C
:100DF000DA011197F1F780818923C1F3F894828198
:100E0000822382838181892B81837894ABE7B7E049
:100E10001197F1F7F894818182238183A3E1B1E0F6
:100E20001197F1F78081982381E009F080E07894B0
:100E3000E3E6F6E03197F1F7089580E008958F92A8
:100E40009F92AF92BF92CF92DF92EF92FF920F9359
:100E50001F93CF93DF9300D01F921F92CDB7DEB7C1
:100E60008C01DC0119968D919C910E94E70640E06F
:100E70006CECF801818592850E949406D8014C9112
:100E800064E419968D919C910E9494068FB7F89412
:100E9000C090F003D090F103E090F203F090F303E0
:100EA0008FBFF8018481811120C081E08983CA82CB
:100EB000DB82EC82FD8229813A814B815C816D81EC
:100EC00070E080E090E00F900F900F900F900F90E7
:100ED000DF91CF911F910F91FF90EF90DF90CF9016
:100EE000BF90AF909F908F90089585818823F9F0EF
:100EF000808181111CC0F801818592850E94410684
:100F0000813099F22FB7F8948091F0039091F1031A
:100F1000A091F203B091F3032FBF8C199D09AE0984
:100F2000BF098E3E9240A105B10528F3BECFD8017E
:100F30001396EC91E9508EEE92E0E33038F4F0E055
:100F4000EE0FFF1FE05DFD4F808191814C01B12CC0
:100F5000A12CF8018181882321F060E082810E9428
:100F60001A05C501B4010E94C605D80111968C91DD
:100F70001197882309F499CF61E012968C910E9411
:100F80001A0593CF4F925F926F927F928F929F92AA
:100F9000AF92BF92CF92DF92EF92FF920F931F9387
:100FA000CF93DF938C017B01EA01FC01818592855F
:100FB0000E94E7068823D9F1B701F801818592855F
:100FC0000E94C80640E06EEBF801818592850E9480
:100FD00094066E015E01F9E0AF0EB11C7E01F801CE
:100FE0008184928488E0682E712C512C442443948F
:100FF000C4010E94410681115428440CF1E06F1A8B
:101000007108B1F7F70151927F01AE16BF0639F7AB
:10101000F801818592850E94E706813041F4F6014E
:1010200081916F01811105C0EE15FF05C1F790E0B8
:1010300008C068E0CE010E942A0691E028852813A6
:10104000F6CF892FDF91CF911F910F91FF90EF90F5
:10105000DF90CF90BF90AF909F908F907F906F90D8
:101060005F904F900895ECE6F5E0A281B38113966E
:101070008D919C91149714961C921E9213979583B0
:101080008483A285B38513968D919C9114971496B1
:101090001C921E92139795878487A289B389139611
:1010A0008D919C91149714961C921E921397958B78
:1010B000848BA28DB38D13968D919C911497149669
:1010C0001C921E921397958F848F08951092E606B6
:1010D000EBEFF3E08081877F8083089561E08DE10D
:1010E0000C941A05CF93DF93A0E0B2E0FD0190E0ED
:1010F000219131912817390721F4EF0122971982A4
:10110000188222E0E031F20799F78D919D91892BA9
:1011100041F482E0A031B807C1F781E0DF91CF91BF
:10112000089580E0FBCFFC0121812150330B70E05A
:1011300060E0472F50E0421753073CF4480F591F17
:10114000FA014081640F7F5FF4CF820F931FFC018F
:1011500060830895FC0181E08083658385E082835C
:1011600080913206A0E0B2E020E132E04D915D9145
:10117000452BE1F42A173B07C9F791E08F7E90FFDA
:1011800080619091840390FB81F98383F89490911E
:10119000900680918F0691110BC090918E06981346
:1011A00007C07894148287E08183089590E0E6CFA9
:1011B00090E0A0918B06B0918C06A80FB91F2C91DE
:1011C000019660918D0670E00E94B02C80938F068E
:1011D0001092900678942483E6CFCF93DF93CDB717
:1011E000DEB7C456D1090FB6F894DEBF0FBECDBF2F
:1011F00066E0CE0101960E94AA08CE0101960E94E7
:101200009308CC59DF4F0FB6F894DEBF0FBECDBFA9
:10121000DF91CF910895CF93DF93EC0167E00E94B7
:10122000AA08CE01DF91CF910C949308E1ECF0E095
:1012300080818068808308951F93CF93DF93EC01B2
:1012400019861EAAFC01E05CFF4F10829FAD31960B
:1012500080E0981719F011928F5FFBCFFE01E55BDC
:10126000FF4F10823197108210E08FAD181750F4A5
:10127000EA81FB81E10FF11D60E080810E941A0587
:101280001F5FF3CFDF91CF911F910895CF93DF932D
:10129000EC010E941C09ED81FE812F8138858CA90B
:1012A0009DA9B0E0A0E080839183A283B38384836F
:1012B0009583A683B783328721878BE080878385D8
:1012C00081608D7F8B7F8387DF91CF9108953F92DF
:1012D0004F925F926F927F928F929F92AF92BF9246
:1012E000CF92DF92EF92FF920F931F93CF93DF93F2
:1012F00000D000D0CDB7DEB79E838D83062F10E0DF
:101300008FB7F894C090F003D090F103E090F2030F
:10131000F090F3038FBFED81FE8180A991A9A2A96E
:10132000B3A9C81AD90AEA0AFB0AC701B6010E9482
:10133000FA2D20E030E04AE754E40E94522DAD81BE
:10134000BE8194966D937D938D939C939797FD01A9
:10135000C0A2D1A2E2A2F3A22FB7F8948091F00329
:101360009091F103A091F203B091F3032FBFED81AF
:10137000FE8180AB91ABA2ABB3AB158704876285CE
:101380007385601B710BE6A4F7A4E01AF10A17A796
:1013900006A781A5882331F0719561957109F194B3
:1013A000E194F108AD81BE8198963C90072E000C27
:1013B000880B990B0E94FC2D4B015C0110E000E0B2
:1013C00031100BC0ED81FE8120893189428953891A
:1013D0000E94B12E0E94C42D8B01B701FF0C880B17
:1013E000990B0E94FC2D6B017C01AD81BE8194960E
:1013F0008D919D910D90BC91A02D89839A83AB8393
:10140000BC83ED81FE81208D318D428D538DC701CE
:10141000B6010E94B12E29813A814B815C810E94E4
:10142000522D2B013C01B801110F880B990B0E9422
:10143000FC2D9B01AC01C301B2010E94E12C0E9472
:10144000C42D2B01AD81BE811F967C936E931E9798
:1014500054962D913D914D915C915797C501B401E2
:101460000E94B12E29813A814B815C810E94B12E6C
:10147000ED81FE81248D358D468D578D0E94E12CA6
:101480004B015C01AD81BE815C968D929D92AD92C7
:10149000BC925F973320A1F050962D913D914D91D4
:1014A0005C915397C701B6010E94B12EA50194012A
:1014B0000E94E12CED81FE81648F758F868F978F5E
:1014C000AD81BE815C968C905C975D969C905D979B
:1014D0005E96AC905E975F96BC905F979A960D91E2
:1014E0001C91B801012E000C880B990B0E94FC2D59
:1014F0006B017C019B01AC01B401C5010E944D2D23
:1015000087FD16C0ED81FE8164A575A5072E000C30
:10151000880B990B0E94FC2D6B017C019B01AC0197
:10152000B401C5010E94AC2E181614F064017501B7
:10153000C601D701ED81FE81848F958FA68FB78F6D
:10154000B201550C880B990B0E94FC2D9601A70146
:101550000E94E12C0E94C42D601771074CF0AD81F0
:10156000BE819C960D911C91601771070CF48B0144
:10157000ED81FE811787068706ABE55BFF4FAD81E6
:10158000BE8114968C91081708F4802F80832696CC
:101590000FB6F894DEBF0FBECDBFDF91CF911F9184
:1015A0000F91FF90EF90DF90CF90BF90AF909F9002
:1015B0008F907F906F905F904F903F900895CF9362
:1015C000DF93CDB7DEB768970FB6F894DEBF0FBED6
:1015D000CDBFECE6F5E0DE01119644A955A966A958
:1015E00077A94D935D936D937D93789685E0EC3F5D
:1015F000F80799F780917A08882351F069817A81F8
:101600008B819C810E94CB2D81E798E00E94670925
:101610008091C608882391F069817A818B819C81B1
:101620000E94CB2D8DEB98E068960FB6F894DEBF44
:101630000FBECDBFDF91CF910C94670968960FB6AE
:10164000F894DEBF0FBECDBFDF91CF910895CF924A
:10165000DF92EF92FF920F931F93CF93DF9300D00F
:1016600000D01F921F92CDB7DEB7FC018E010F5F35
:101670001F4F88E0D8011D928A95E9F74285C18005
:10168000E0802E2D30E0842FF12CDD24D394CF1078
:101690000EC0CF010296B801562F501B5E1590F474
:1016A000DB015D91BD01DC015D93CD01F5CF90E0E3
:1016B000D801A80FB91FDC920196B9010E94B02C85
:1016C000F394E5CF842F90E00196B9010E94B02CED
:1016D000828728960FB6F894DEBF0FBECDBFDF918C
:1016E000CF911F910F91FF90EF90DF90CF900895D1
:1016F0001F93CF93DF93FC0181858823A1F1DF0144
:10170000A65BBF4F9C91EF01C55BDF4F88819817A7
:1017100030F59F5F9C939F01205C3F4F97AD8C916C
:10172000981708F4892FEF01F9018083CE01CF9635
:101730000E94270B10E08FAD1817A8F4812F90E0BE
:10174000DE01A80FB91FAF5BBF4FEA81FB81E80F35
:10175000F91F6C9180810E941A051F5FECCF8917D9
:10176000D0F69150D7CFDF91CF911F91089581E7A7
:1017700098E00E94780B8DEB98E00C94780BEF9238
:10178000FF921F93CF93DF93EC0110E08C81181729
:10179000A0F4E12EF12CEA81FB81EE0DFF1D61E04A
:1017A00080810E944805EA81FB81EE0DFF1D60E00B
:1017B00080810E941A051F5FE9CFFE01E05CFF4FA8
:1017C0001082CE01CF96DF91CF911F91FF90EF90C5
:1017D0000C94270B81E20E94140421E0892B09F468
:1017E00020E0822F0895FC018181861799F06183A2
:1017F00081E090E0938382838081861751F0662395
:1018000081F084819581228133812817390708F07E
:1018100060830895828193818F3F980769F30196D1
:10182000E9CF86819781EFCFFC018181882331F058
:101830008381DB018C93858111968C9308950F939E
:101840001F93CF93DF93FC012081222309F43FC033
:10185000162FC62FD0E0D683C583028161E0802F8A
:101860000E944805209741F460E0802FDF91CF91DE
:101870001F910F910C941A05CF3FD10511F461E02F
:10188000F4CFE02FF0E0E655FC4FE491E150E23177
:1018900008F0B4C0F0E08827EF5AF34F8F4F0C9454
:1018A000C42C630C6C0C710C7B0C850CFE0C8F0C27
:1018B000970C9F0CA90CB30CBD0CCC0CD60CFE0CD9
:1018C000E00CEA0CF40C84B5806884BD17BDDF9190
:1018D000CF911F910F91089584B5806284BD18BD8A
:1018E000F6CF80918000806880938000D09389003B
:1018F000C0938800ECCF809180008062809380004C
:10190000D0938B00C0938A00E2CF809180008860E2
:1019100080938000D0938D00C0938C00D8CF8091AD
:10192000B00080688093B0001093B300D0CF809156
:10193000B00080628093B0001093B400C8CF809153
:101940009000806880939000D0939900C093980095
:10195000BECF80919000806280939000D0939B00D6
:10196000C0939A00B4CF80919000886080939000DB
:10197000D0939D00C0939C00AACF8091A000806866
:101980008093A0008091A0008F7B8093A000D093D3
:10199000A900C093A8009BCF8091A0008062809393
:1019A000A000D093AB00C093AA0091CF8091A0007B
:1019B00088608093A000D093AD00C093AC0087CF27
:1019C00080912001806880932001D0932901C093E9
:1019D00028017DCF80912001806280932001D093E7
:1019E0002B01C0932A0173CF8091200188608093DE
:1019F0002001D0932D01C0932C0169CFC038D105AF
:101A00000CF03DCF31CF0F931F93CF93DF9383E241
:101A10000E9414048C0182E20E941404EC0161E033
:101A2000012B09F460E088E596E00E94F30B61E089
:101A3000CD2B09F460E080E696E00E94F30B8091E4
:101A4000580680936806909160069093690623E09B
:101A5000911103C021E0811122E020936A062091B8
:101A60003B09222309F448C020914309222309F4A9
:101A700043C02091090921113FC0992351F1809160
:101A80001B0980932A091092290960912909609302
:101A90003A0980913C09882329F180913809909175
:101AA00039090E941F0C60912A09609342098091B4
:101AB0004309882309F1809144098823C1F080916A
:101AC000400990914109DF91CF911F910F910C94A2
:101AD0001F0C8111DACF80911A0980932909109285
:101AE0002A09D3CF8091360990913709DACF8091B6
:101AF0003E0990913F09E7CFDF91CF911F910F9160
:101B00000895FC01808181110DC081E08083818175
:101B1000811104C061E082810C941A056581CF01B6
:101B20000C941F0C0895CF93DF93EC01862F6883EC
:101B30005A8349831C821B8262E00E9448052981E6
:101B40003A819881923069F4309311022093100207
:101B500080916A00836080936A00EC9ADF91CF9154
:101B60000895933059F43093130220931202809118
:101B70006A008C6080936A00ED9AF0CF8EEE890F38
:101B8000843060F787E1891BE82FF0E0EE0FFF1F3C
:101B9000E05FFD4F31832083843091F08530B9F0D0
:101BA000833039F080916900836080936900E89AFE
:101BB000D5CF809169008C6080936900E99ACECF7F
:101BC00080916900806380936900EA9AC7CF809111
:101BD0006900806C80936900EB9AC0CFFC0124817E
:101BE0003581868197812817390728F081E090E0B8
:101BF0009183808308951182108208958CE695E088
:101C00000E94EE0D84E795E00E94EE0D8CE795E0D2
:101C10000E94EE0D84E895E00C94EE0DFC0111821B
:101C200060E080810C941A05FC01108260E08181E3
:101C30000C941A05F89490919006992359F080918C
:101C40009106909192060196909392068093910648
:101C50007894089520918E0630E0E0918B06F09103
:101C60008C06E20FF31F8083C901019660918D06F7
:101C700070E00E94B02C80938E0690918F0698138E
:101C8000E7CF81E080939006E3CFBF92CF92DF92BF
:101C9000EF92FF920F931F93CF93DF93EC01B62E39
:101CA000C72E8D85811105C0CE010E94E7068111E6
:101CB0000EC01B861D861C8680E0DF91CF911F9190
:101CC0000F91FF90EF90DF90CF90BF90089540E08C
:101CD00060EFCE010E94940601E0E12CD12C11E0CE
:101CE000CE010E944106F82ECE010E94410691E0ED
:101CF000F91218C0813099F51134D8F2DB86D11071
:101D000002C081E08D878B81882399F22396EB2D89
:101D1000FC2DCF01089629912193E817F907D9F7EF
:101D200081E0CBCFEE2DF0E0F8120FC08B851817B5
:101D3000A0F4DE01AE0FBF1F13968C91802379F4BF
:101D4000F12C193008F41C87D12EEC0FFD1F838174
:101D5000902F9095892383830AC08113F1CFFE01D0
:101D6000EE0DF11D8381802B8383FF24F3946F2D6F
:101D7000CE010E9465061F5F000F11F4E39401E09D
:101D800087E08E1508F0ACCFB7CFCF93DF93EB0190
:101D9000DC011996ED91FC911A971386158614862D
:101DA000128611861086178216821582148213827B
:101DB00019968D919C910E94450E982F882341F091
:101DC00067E0CE010E942A0691E02F81281390E05F
:101DD000892FDF91CF9108958F929F92AF92BF92FA
:101DE000EF92FF920F931F93CF93DF93CDB7DEB7A0
:101DF00061970FB6F894DEBF0FBECDBF7C01FC012A
:101E000000851185F8018781882309F46BC0BE0124
:101E1000665F7F4FC8010E94C50E882309F462C027
:101E2000AE014F5F5F4FBE01665F7F4FC8010E94EA
:101E3000C207882309F456C08A81812C912C540151
:101E400087FF06C0812C912CF8EFAF2EBB24BA94EB
:101E50009A8549819B3309F057C02D8127FF54C0D3
:101E600040FD40C0042F10E030E020E073E0000FA0
:101E7000111F221F331F7A95D1F7B901A801407EA7
:101E800057706627772790E0B0E0A0E08C019D01B5
:101E9000EBE0000F111F221F331FEA95D1F7042B2F
:101EA000152B262B372B082919292A293B290138DC
:101EB00054EE15075FEF25073507A4F0C901B801F7
:101EC0000E94FC2D20E030E040E05CE30E94B12E57
:101ED0004B015C0120E030E04EEF52EC0E944D2DB2
:101EE000811158C0F701868997892489358982171D
:101EF000930718F40196978B868B812C912C8EEF8B
:101F0000A82E82ECB82E49C0082F10E0102F002711
:101F1000110F110F110FF8E04F9FA0011124042B96
:101F2000152B012E000C220B330B082919292A2905
:101F30003B29903109F0BBCF6885662309F4B7CF00
:101F400070E08F81AB01481B5109CA019695982F0B
:101F50008827979587950E94B02CCB01770FAA0B05
:101F6000BB0B53E0000F111F221F331F5A95D1F7EF
:101F70000078277033270052110921093109800F99
:101F8000911FA21FB31F95018401082B192B2A2B27
:101F90003B2B8DCFF701178A168A81E0F70146891E
:101FA0005789248935894217530708F480E0F701DF
:101FB000838B808591850E941F07F701838981119A
:101FC0001AC080829182A282B382F70160817181FE
:101FD0008281938161960FB6F894DEBF0FBECDBFAC
:101FE000DF91CF911F910F91FF90EF90BF90AF9035
:101FF0009F908F90089580E090E0AAE7B4EC8083F2
:102000009183A283B383E1CF809156068150809360
:102010005606811118C085E08093560680913306DC
:1020200028E1829FC001112480569A4F0E94EC0E35
:1020300090913306892F8F5FF1F39FEF8630D0F7B1
:1020400080933306089580EA95E00E94EC0E90910B
:10205000B3058091FC03992339F080648093FC03DD
:1020600061E08DE10C941A058F7B8093FC03089549
:10207000BF92CF92DF92EF92FF920F931F93CF9375
:10208000DF93CDB7DEB761970FB6F894DEBF0FBE12
:10209000CDBF7C018B01DC0119967C936E93189760
:1020A00083E0D82ECC24C394D8011996ED91FC91ED
:1020B0001A97138615861486128611861086178243
:1020C000168215821482138217961C9217971896FF
:1020D0001C9262E370E080E090E00E94C605BE01C1
:1020E000665F7F4FF801818592850E94450E8823A7
:1020F00009F477C067E0CE010A960E942A06998902
:102100008913EDCFD80117968C9117978F5F17968B
:102110008C938A85883231F008F04AC0803111F002
:102120008232E9F6F80180858F5F80878081811196
:1021300024C0818592850E94E706BE01665F7F4FBD
:10214000D80119968D919C910E94C80640E064EBDD
:10215000F801818592850E949406D80119968D9187
:102160009C910E944106B82EF801818592850E94BB
:10217000E706B11002C0D801CC928A85803119F1EE
:10218000AE014F5F5F4FBE01665F7F4FC8010E9487
:10219000C207882359F08D819A859B3311F487FDFE
:1021A00012C08F3391F058F48F31B9F080E00EC037
:1021B0008B3309F4B7CF823409F091CFB3CF8F3589
:1021C00071F08F3799F78CE001C08AE0F8019381B4
:1021D000981708F084CF838382CF89E0F7CF8BE014
:1021E000F5CFD80117969C91911103C0DA94D110C4
:1021F0005BCFF701138A178A168A0084F185E02DD8
:102200009781992331F0B701665F7F4FCF010E941C
:10221000C50ED70152968C9352971896ED91FC916A
:102220001997148218968D919C910E941F076196B0
:102230000FB6F894DEBF0FBECDBFDF91CF911F91D7
:102240000F91FF90EF90DF90CF90BF900895CF93C4
:10225000FC018081882371F01082C28181818823F2
:1022600021F061E08C2F0E94480560E08C2FCF9117
:102270000C941A05CF9108951F93CF93DF93EC012F
:10228000888199810E9427118A819B81FC01248188
:10229000222369F00E9427111D8281E08F8380E252
:1022A0000E941A0E80E0DF91CF911F91089511E0F6
:1022B0001E832C8130E0368325830E94810D8FE1BF
:1022C0000E941A0E1D8381E0EECF0F931F93CF93D0
:1022D000DF93EC0180914609813021F0823061F07A
:1022E00010E004C080E20E941A0E11E0812FDF91FD
:1022F000CF911F910F9108951D81112389F30E81B4
:1023000001110FC08881998101E0FC0104830E94C2
:102310002711CE010E943C118111E2CF0F831D8253
:10232000E5CF8A819B8111E0FC0114830E94271173
:102330001D821F83102FDACFCF93DF93EC018D81A5
:10234000811119C09F81911116C02E81222369F03D
:102350008A819B81FC013481332381F0211108C0E3
:10236000CE01DF91CF910C943C1188819981F2CFFD
:1023700081E08F8380E0DF91CF9108952C8130E060
:10238000368325830E94810D81E08D83F4CFCF9326
:1023900090E0009769F5C1E0C093180861E0809172
:1023A00019080E941A0584EF91E0A0E0B0E0809344
:1023B000FB079093FC07A093FD07B093FE07809363
:1023C000FF0790930008A0930108B093020887ECE0
:1023D00091E19093050880930408C09303088091CD
:1023E000060881608D7F8B7F80930608CF910895CA
:1023F0000197E1F78EE399E00E949C118CED8093A8
:10240000420980914309882389F3809144098823F4
:1024100041F080914009909141096CEDCF910C946D
:102420001F0C80913E0990913F09F7CF90E00097F3
:1024300049F588E198E00E94140E84EF91E0A0E055
:10244000B0E08093EF079093F007A093F107B0936B
:10245000F2078093F3079093F407A093F507B093E6
:10246000F60786E192E19093F9078093F80781E0FF
:102470008093F7078091FA0781608D7F8B7F80932F
:10248000FA070895019721F48EE399E00C949C11CA
:1024900008951F93CF93DF93CDB7DEB768970FB63C
:1024A000F894DEBF0FBECDBF90E0009709F045C0A5
:1024B00080911809909119098230910580F1029755
:1024C00099F184EF91E0A0E0B0E08093E30790936E
:1024D000E407A093E507B093E6078093E70790939E
:1024E000E807A093E907B093EA0789E492E19093A3
:1024F000ED078093EC0781E08093EB078091EE0776
:1025000081608D7F8B7F8093EE0768960FB6F8947D
:10251000DEBF0FBECDBFDF91CF911F9108958CE13B
:1025200098E00E94140ECDCF81E080931C0861E0FA
:1025300080911D080E941A05C4CF019731F7ECE67F
:10254000F5E0DE0111968CEF95E040AD51AD62AD46
:1025500073AD4D935D936D937D9378968E179F0722
:10256000A1F780911809909119098130910539F1ED
:10257000029709F447C080917A08882339F081E7EF
:1025800098E00E9446098DE0809315088091C60866
:10259000882359F18DE698E00E940E0E8FE698E0B0
:1025A0000E940E0E8FE498E00E94271186E598E0C5
:1025B0000E9427118DEB98E00E94460916C06981A0
:1025C0007A818B819C810E94CB2D81E080937A0857
:1025D000862F90E090937C0880937B0881E798E0B9
:1025E0000E94670985E10E941A0E86E399E06896C9
:1025F0000FB6F894DEBF0FBECDBFDF91CF911F9114
:102600000C949C118FE498E00E94810D86E598E07F
:102610000E94810D11E010936E0861E080916D08B9
:102620000E941A051093700861E080916F080E9463
:102630001A0569817A818B819C810E94CB2D109330
:10264000C608862F90E09093C8088093C7088DEB4A
:1026500098E00E94670987E1C6CFCF93DF93EC0132
:10266000888199810E9427118A819B810E9427116C
:102670001D82DF91CF91089586E399E00E942D138A
:1026800084EF91E0A0E0B0E08093E3079093E4074B
:10269000A093E507B093E6078093E7079093E807D8
:1026A000A093E907B093EA0789E492E19093ED07DC
:1026B0008093EC071092EB07EEEEF7E080818160EB
:1026C0008D7F8B7F8083089590911508981729F04E
:1026D0009530B1F020F49430A9F080E00895963060
:1026E00071F19B30D1F78430E9F08630B1F78093F7
:1026F000150881E090E090931909809318090BC0A8
:10270000843061F08B3049F78BE08093150810928C
:102710001909109218090E943C13DFCF8093150805
:1027200081E008958093150882E090E09093190964
:10273000809318090E943C130E945302F1CF8B3002
:1027400061F681E798E00E9446098DE080931508C4
:10275000C4CF10922207809154069091550600979D
:1027600051F00297A9F48BE00E9464131092550671
:1027700010925406089580915706811109C086E091
:102780000E94641381E090E0909355068093540674
:10279000089510922E07809154069091550681302D
:1027A000910521F058F0029791F008958BE00E9476
:1027B00064131092550610925406089584E00E9406
:1027C000641382E090E09093550680935406109233
:1027D000BE070895809116089091170883309105DF
:1027E00071F1892B61F18EE399E00E942D1384EF42
:1027F00091E0A0E0B0E08093EF079093F007A09302
:10280000F107B093F2078093F3079093F407A09336
:10281000F507B093F60786E192E19093F90780936C
:10282000F8071092F7078091FA0781608D7F8B7F00
:102830008093FA07109217081092160808951092C4
:102840001708109216088EE399E00C949C11CF9310
:10285000DF93EC010E942D13E881F9811482EA8153
:10286000FB8114821E821F82DF91CF910895109206
:102870001408109213081092EE071092FA071092A3
:10288000060886E399E00E942D138EE399E00E94EA
:102890002D1386E399E00E9427148EE399E00E94AD
:1028A00027148AE398E00E94271181E498E00E94AF
:1028B000271188E498E00E9427118FE498E00E9495
:1028C000271186E598E00E9427118DE598E00E9487
:1028D000271184E698E00E94271188E198E00E9481
:1028E000140E8AE198E00E94140E8CE198E00E9498
:1028F000140E8BE698E00E940E0E8DE698E00E9482
:102900000E0E8FE698E00E940E0E81E798E00E947E
:102910001C098DEB98E00E941C0910921609109278
:102920004607109252071092760710926A0710928B
:10293000820710925E0710928E0786E399E00E944C
:1029400027148EE399E00C94271410920909109231
:10295000A80888E492E00C943714CF93C62F109205
:102960003106109230060E94A514809115088C50F3
:10297000823010F010921508809132068E7F8460AC
:1029800080933206109271051092700510927905AD
:102990001092780510928105109280051092890599
:1029A000109288051092DA061092E6061092F2064E
:1029B0001092FE0610920A071092220710922E071C
:1029C00010929A071092A6071092CE061092B207A4
:1029D0001092BE0710925706C11104C089E1CF9131
:1029E0000C941A0ECF9108950E94EA0B9091FC036B
:1029F000882321F094609093FC0308959B7F90932B
:102A0000FC0380916C0590916D05029709F466C0F6
:102A10008CE695E00E94EE0D20916C0530916D05DD
:102A200091E02130310509F090E08091FB0381FDB8
:102A300048C02130310509F444C082608093FB0313
:102A400086E399E00E946511882349F060E088E5FB
:102A500092E00E94AD1461E08DE10E941A05809120
:102A60007405909175050297C9F1809191050E94B6
:102A700084059C0190939305809392056091940541
:102A80007091950541E06817790708F440E090914E
:102A9000FB0392FD1DC062177307D0F4892F846079
:102AA0008093FB038EE399E00E9465118823B1F0C7
:102AB00060E08BE692E00E94AD1461E08DE10C9441
:102AC0001A058091FB0390FB81F98093FB03C7CF2C
:102AD0008091FB0340FB82F98093FB0308950E94E1
:102AE000F41485E40E9414042091FC03892B21F046
:102AF00028602093FC030895277FFBCF60E080E8E7
:102B000092E00C94AD1460E087E992E00C94AD146F
:102B10009EEF980F923008F063C0109252078330F6
:102B200079F18FE498E00E94810D86E598E00E949B
:102B3000810D80EC94EDA1E0B0E080934707909385
:102B40004807A0934907B0934A0780934B07909397
:102B50004C07A0934D07B0934E0788E895E19093FA
:102B600051078093500783E080934F07809152076D
:102B700081608D7F8B7F8093520781E10C941A0EC8
:102B80008FE498E00E94271186E598E00E942711C3
:102B900082E10E941A0E80E395E7A0E0B0E0809306
:102BA000470790934807A0934907B0934A0780933B
:102BB0004B0790934C07A0934D07B0934E0788E8BE
:102BC00095E1909351078093500784E080934F07DD
:102BD0008091520781608D7F8B7F8093520708958B
:102BE00060E088EA92E00C94AD148230A9F510926E
:102BF00046078AE398E00E9427118EE399E00E943D
:102C00002D1388E498E00E94810D80E395E7A0E011
:102C1000B0E080933B0790933C07A0933D07B093AF
:102C20003E0780933F0790934007A0934107B093DE
:102C3000420785EF95E1909345078093440781E033
:102C4000809343078091460781608D7F8B7F8093BF
:102C500046078EE00C941A0E60E087EB92E00C942D
:102C6000AD14EBEFF3E080818460808360E086EC5C
:102C700092E00C94AD14CF93C82F1092B20710922B
:102C8000E60680914609823099F5809144098111C8
:102C90002FC08EE399E00E943C11882349F180E324
:102CA00095E7A0E0B0E08093A7079093A807A093D2
:102CB000A907B093AA078093AB079093AC07A093A2
:102CC000AD07B093AE078BE396E19093B107809385
:102CD000B00781E0C11101C080E08093AF0780910F
:102CE000B20781608D7F8B7F8093B207CF9108956B
:102CF0008CE10E941A0EC11108C00E94A51460E068
:102D000090E080E0CF910C94AD140E94A5148EE168
:102D10000E941A0E10921408109213088BE08093F0
:102D200015080E942C02CF910C94A0029CEF980FE2
:102D3000933010F08B3029F481E00E943B1680E044
:102D4000089581E008958F929F92AF92BF92CF92A3
:102D5000DF92EF92FF920F931F93CF93DF938091B7
:102D6000130890911408019721F5E0911508E1509E
:102D7000EB30C8F4F0E08827EF53F94E8F4F0C94F6
:102D8000C42CCC162D173B174217D31642174B17DE
:102D900073179C17A417421781E498E00E94810DD5
:102DA00087E00E941A0E10921408109213080E94D5
:102DB00053020E94EA0B9091FC0380FB92F99093DE
:102DC000FC0385E40E94140421E0892B09F420E02F
:102DD0008091FC0320FB83F98093FC0380913006F3
:102DE00090913106009741F0C0911508029709F0C3
:102DF000D9C08C2F0E9496168091FB039091FC0302
:102E0000A091FD03B091FE0340918503509186038C
:102E1000609187037091880384179507A607B70709
:102E200059F021E0209384038093850390938603D7
:102E3000A0938703B093880360E083EA96E1DF9173
:102E4000CF911F910F91FF90EF90DF90CF90BF90A7
:102E5000AF909F908F900C946C03809164088823AE
:102E600021F084E698E00E9427118DE598E00E9409
:102E7000810D89E096CF10921909109218090E94CD
:102E80003C1391CF10921909109218090E943C131B
:102E90000E94EA1388CF8EE399E00E942D1384EFFD
:102EA00091E0A0E0B0E08093FB079093FC07A09333
:102EB000FD07B093FE078093FF0790930008A0934F
:102EC0000108B093020887EC91E190930508809384
:102ED0000408109203088091060881608D7F8B7F23
:102EE0008093060860CF8AE398E00E94810D80E617
:102EF0009AEEA0E0B0E08093530790935407A0931C
:102F00005507B09356078093570790935807A0939F
:102F10005907B0935A0783E895E190935D07809332
:102F20005C0710925B0780915E0781608D7F8B7FCD
:102F300080935E0783E135CF0E94A51488E498E072
:102F40000E94810D8BE02DCF0E94A51484E698E0AD
:102F50000E94810D8FE00E941A0E80E49CE9A0E09F
:102F6000B0E08093470790934807A0934907B09338
:102F70004A0780934B0790934C07A0934D07B0935B
:102F80004E0788E895E1909351078093500782E0BF
:102F900080934F078091520781608D7F8B7F809354
:102FA000520701CF90915706992339F18091BE07BE
:102FB00080FD23C082FD21C040E355E760E070E062
:102FC0004093B3075093B4076093B5077093B60767
:102FD0004093B7075093B8076093B9077093BA0747
:102FE0002EE735E13093BD072093BC071092BB0755
:102FF00081608D7F8B7F8093BE078CEF8C0F833039
:1030000028F0CB3019F0992309F4AAC08091540616
:1030100090915506039709F4A3C0D0916C08C6306F
:1030200009F4B5C02091E8053091E9054091EA0521
:103030005091EB05609100067091010680910206A7
:10304000909103060E944D2D87FFA1C0D11133C07E
:1030500081E080936C0861E080916B080E941A0502
:103060008AE198E00E94140E8EE399E00E942D13ED
:1030700084EF91E0A0E0B0E08093EF079093F00739
:10308000A093F107B093F2078093F3079093F407AE
:10309000A093F507B093F60786E192E19093F907C4
:1030A0008093F8071092F7078091FA0781608D7F6F
:1030B0008B7F8093FA07C090A005D090A105E09087
:1030C000A205F090A3058090A4059090A505A0907E
:1030D000A605B090A70520E030E040E85FE3C50119
:1030E000B4010E94E12CA70196010E944D2D1816F3
:1030F0000CF45DC010922207D0912E07D0FD30C095
:10310000D2FD2EC00091540610915506F801EE0F25
:10311000FF1FEE0FFF1FEC5BF94F60817181828111
:1031200093810E94CB2D6093230770932407809393
:1031300025079093260760932707709328078093AD
:10314000290790932A0789EC93E190932D078093A8
:103150002C0700932B07D160DD7FDB7FD0932E07F8
:10316000C150CB3008F048CEEC2FF0E08827E45473
:10317000F74E8F4F0C94C42C1F192B1935194E196B
:103180004E1951195419A619F819FC165119DD23B5
:1031900009F491CF8BE698E00E940E0E81E08093B7
:1031A0001A0861E080911B080E941A0584CF1092D2
:1031B0002E0720E030E040E85FE3C501B4010E9443
:1031C000E02CA70196010E94AC2E87FD35C0D0915E
:1031D0002207D0FDC5CFD2FDC3CF00915406109178
:1031E0005506F801EE0FFF1FEE0FFF1FEC5BF94FC6
:1031F00060817181828193810E94CB2D609317073A
:10320000709318078093190790931A0760931B0710
:1032100070931C0780931D0790931E0789EA93E122
:10322000909321078093200700931F07D160DD7FD3
:10323000DB7FD093220794CF1092220791CF80E2B8
:103240000E941404892B09F0D7CD60E083EE92E050
:103250000E94AD14D1CD84E40E941404892B09F09E
:10326000CBCD60E081EF92E0F3CF0E94EA0B90912A
:10327000FB03882339F091609093FB0360E08FEFAC
:1032800092E0E6CF9E7F9093FB03809168068823AF
:1032900009F4B2CD60E085E293E0DACF0E946F15C9
:1032A000ABCD0E94F414A8CD0E94EA0B882331F024
:1032B0008091FC0384608093FC039ECD8091740513
:1032C00090917505029709F497CD84E795E00E94E7
:1032D000EE0D8091740590917505019769F58091C7
:1032E000FB03877F8093FB038091E60680FD84CDFE
:1032F00082FD82CD48EE53E060E070E04093DB0653
:103300005093DC066093DD067093DE064093DF0683
:103310005093E0066093E1067093E20626E638E0FB
:103320003093E5062093E4061092E30681608D7FDA
:103330008B7F8093E60660CD1092E6068091FB03BA
:1033400083FD5ACD88608093FB0356CD80E20E94B6
:103350001404892B49F460E085E393E00E94AD14E6
:103360008091FB038068EFCF809191050E948405D6
:103370009093930580939205209194053091950543
:103380002817390778F58091FB038B7F8093FB0327
:103390008091F20680FD30CD82FD2ECD40913C061D
:1033A00050913D0670E060E04093E7065093E806D8
:1033B0006093E9067093EA064093EB065093EC069F
:1033C0006093ED067093EE0621E336E13093F1064B
:1033D0002093F0061092EF0681608D7F8B7F8093A3
:1033E000F2060ACD8091FB0382FD06CD8460ABCF4F
:1033F0000E94EA0B882309F4FFCC8091460780FDE8
:10340000FBCC82FDF9CC88E498E00E9427118AE386
:1034100098E00E94810D8EE399E00E949C118DE05E
:103420000E941A0E80E395E7A0E0B0E080933B078E
:1034300090933C07A0933D07B0933E0780933F07CE
:1034400090934007A0934107B093420785EF95E121
:10345000909345078093440782E0809343078091CF
:10346000460781608D7F8B7F80934607C5CC109285
:10347000FE06909115089C3039F48AE593E00E948D
:1034800037141092150808958093150888E10C945C
:103490001A0E10920A07909115089D3039F4809306
:1034A00015080E942C0286E10C941A0E9C3031F40F
:1034B00086E693E00E943714109215080895FF9253
:1034C0000F931F93CF93DF93CDB7DEB7C456D109C7
:1034D0000FB6F894DEBF0FBECDBFFC01F1804F2DBB
:1034E00050E08E010F5F1F4FBC01C8010E941E2FCC
:1034F0008091C6008091C6008091C1008F77809333
:10350000C1008091C10088608093C100F8018E2FB6
:10351000801B8F1588F481918093C6008091C00034
:1035200086FFFCCF8091C00080648093C0008091B2
:10353000C6008091C600EBCFCC59DF4F0FB6F89490
:10354000DEBF0FBECDBFDF91CF911F910F91FF90D6
:103550000C9416094F925F926F927F928F929F9276
:10356000AF92BF92CF92DF92EF92FF920F931F9391
:10357000CF93DF93CDB7DEB7CB59D1400FB6F894D8
:10358000DEBF0FBECDBF84E6E9E8F3E0DE01AB5954
:10359000BF4F01900D928A95E1F780E69AEEA0E088
:1035A000B0E08093070890930808A0930908B093AF
:1035B0000A0880930B0890930C08A0930D08B09311
:1035C0000E088EE698E090931108809310081092F0
:1035D0000F088091120883608B7F80931208A89651
:1035E000EFADA897E550E33308F08CC0F0E08827F2
:1035F000E350F54E8F4F0C94C42C1320821B101CEB
:10360000821B821B821B821B821B821B821B821BD2
:10361000821B821BAE1BD01BFC1B061C191C9A1B99
:10362000831CC71C301B5B1D821B821B741DDC1D91
:10363000381E651B671E941E1E1FBA1EB81F821BF4
:10364000821B821BEB1F821B821B821B821B821B25
:10365000821B1F202F203B209720CF2049222E1C89
:10366000A9962FADA997213009F4C0C1AB968FADB3
:10367000AB97813009F4C8C1AD968FADAD9781305D
:1036800009F4C5C180E080933A0990E0E0913609E1
:10369000F091370996838583E0913809F0913909D3
:1036A00096838583243009F4B5C1AB968FADAB9773
:1036B000843009F4FDC1AD968FADAD97E2E0F0E046
:1036C000843009F4A9C180E0B2C1C090FB03D0905E
:1036D000FC03E090FD03F090FE0361E2CE01019651
:1036E0000E94AA08CF82D886E986FA868BE08A8370
:1036F000CE0101960E949308CE0101960E945F1AA6
:1037000010928403C556DE4F0FB6F894DEBF0FBE8D
:10371000CDBFDF91CF911F910F91FF90EF90DF9080
:10372000CF90BF90AF909F908F907F906F905F9061
:103730004F9008951092FB031092FC031092FD032A
:103740001092FE0361E2CE0101960E94AA081F8238
:10375000188619861A868BE08A83C1C1CE018753E9
:103760009F4F0E943D0488E0FE01E753FF4FDE01BA
:10377000A257BE4F01900D928A95E1F762E1CE010A
:1037800001960E94AA088FE08A8388E0FE01E25732
:10379000FE4FDE01179601900D928A95E1F79FC1C9
:1037A0001092FB031092FC031092FD031092FE0393
:1037B000A9969FADA99710921408109213089093A0
:1037C00015089B3011F0973039F4AA968FADAA975F
:1037D0008695837080934609AA968FADAA9780FF3D
:1037E0000BC09B3049F48BE00E949616882321F091
:1037F0000E942C020E94A0021091150864E1CE01E3
:1038000001960E94AA081F8388E0A6CF8091150820
:103810000E949616882321F00E942C020E94A0028A
:10382000CE0101960E940B09CE0101960E945F1AFB
:1038300069CF809115088B3019F08450833040F4A3
:103840001092FB031092FC031092FD031092FE03F2
:1038500060E081E793E00E94AD14E2CF81E08093C5
:10386000570681E090E090933106809330061092E5
:1038700009091092A80810921408109213081092C7
:10388000EE071092FA07109206088AE398E00E9469
:10389000271181E498E00E94271188E498E00E94B3
:1038A000271188E198E00E94140E8AE198E00E94B6
:1038B000140E8CE198E00E94140E8DE698E00E94B0
:1038C0000E0E8FE698E00E940E0E81E798E00E94AF
:1038D0001C098091320681608B7F80933206809133
:1038E000000690910106A0910206B0910306809314
:1038F000A4059093A505A093A605B093A7058AE11A
:103900000E941A0E8DCFE5E6F0E0EC0FFD1F339616
:10391000ACE6B5E085E690E08C0F9D1F4B9641919B
:10392000519161917191D8964D935D936D937C9374
:10393000DB9758968E179F0791F788E1E5E6F0E050
:10394000EC0FFD1F3396DE01A750BF4F01900D9283
:103950008A95E1F768E1CE0101960E94AA088FE1FD
:103960008A8388E1FE01E750FF4FDE011796019040
:103970000D928A95E1F7CE0101960E949308CE013F
:1039800001960E945F1A88E10E947208BBCEACE6E5
:10399000B5E0CE0187539F4F2CEF35E0182F092F4C
:1039A000D8964D915D916D917C91DB97FC0141938F
:1039B000519361937193CF0158962A173B0781F772
:1039C00088E1E12FF02FDE01AF51BF4F01900D9242
:1039D0008A95E1F769E1CE0101960E94AA088FE17C
:1039E0008A8388E1FE01EF51FF4FD3CEF0E0E0E0A3
:1039F000EE0FFF1F81E090E08C0F9D1FE80FF91F75
:103A0000E959FF4F81813FCEE1E0F0E0F1CFE2E004
:103A1000F0E0EECFF0E0E0E0EE0FFF1F81E090E09D
:103A20008C0F9D1FE80FF91FE959FF4F818180938B
:103A3000420990E0E0913E09F0913F099683858329
:103A4000E0914009F091410996838583AE968FAD50
:103A5000AE97AA969FADAA979093290980932A09B9
:103A600086E0E5E6F0E0EC0FFD1F3396DE01AA5696
:103A7000BE4F01900D928A95E1F76AE1CE01019661
:103A80000E94AA088DE08A8386E0FE01EA56FE4F76
:103A9000DE01179601900D928A95E1F7CE0101960D
:103AA0000E949308CE0101960E945F1A8AE16CCFB2
:103AB000E1E0F0E0B1CF1091290900912A096BE112
:103AC000CE0101960E94AA088DE08A8381E08F834F
:103AD000188782E089871A8784E08B870C87CE015C
:103AE00001960E949308A0CEAA968EAD9FADAA978C
:103AF0009093730580937205AC968EAD9FADAC9795
:103B000090937B0580937A05AE968EAD9FADAE9770
:103B10009093830580938205E0968EAD9FADE097EC
:103B200090938B0580938A05E2968EAD9FADE297C8
:103B30009093900580938F05E4968EAD9FADE497AA
:103B40009093950580939405E6968EAD9FADE6978C
:103B500090939A0580939905E8968EAD9FADE8976E
:103B600090939F0580939E0582E1E5E6F0E0EC0FDF
:103B7000FD1F3396DE01AB5CBE4F01900D928A951E
:103B8000E1F76EE1CE0101960E94AA0889E18A83DD
:103B900082E1FE01EB5CFE4FDE01179601900D9273
:103BA0008A95E1F7CE0101960E949308CE01019615
:103BB0000E945F1A8EE1E8CE00917A0510917B0594
:103BC000A0918205B0918305E0918A05F0918B0563
:103BD00060918F05709190054091940550919505E5
:103BE0002091990530919A0580919E0590919F05AD
:103BF000E0907205F0907305CD5DDE4FF982E882AA
:103C0000C352D140CB5DDE4F19830883C552D140EA
:103C1000C95DDE4FB983A883C752D140C75DDE4F6F
:103C2000F983E883C952D140C55DDE4F798368834B
:103C3000CB52D140C35DDE4F59834883CD52D14032
:103C4000C15DDE4F39832883CF52D140CF5CDE4F38
:103C500099838883C153D1406FE1CE0101960E94C0
:103C6000AA0889E18A8382E1FE01ED5DFE4F91CDD4
:103C7000ACE6B5E0CE018F519F4F2CEF35E0182F09
:103C8000092FD4964D915D916D917C91D797FC0150
:103C90004193519361937193CF0158962A173B0733
:103CA00081F788E1E12FF02FDE01A753BF4F01908C
:103CB0000D928A95E1F760E2CE0101960E94AA0872
:103CC0008FE18A8388E1FE01E753FF4F62CD05E66D
:103CD00010E00C0F1D1F0D5F1F4FC8010E94140341
:103CE00080E1F801DE01A95ABE4F01900D928A953C
:103CF000E1F762E2CE0101960E94AA0880E1FE018E
:103D0000E95AFE4FDE01179601900D928A95E1F770
:103D100087E18A83CE0101960E949308CE01019625
:103D20000E945F1A82E230CE80E1E4E3F6E0DE0139
:103D3000A753BF4F01900D928A95E1F780E1FE01F4
:103D4000E753FF4FDE01A95BBE4F01900D928A95AC
:103D5000E1F763E2CE0101960E94AA0880E1FE012C
:103D6000E95BFE4FDE01179601900D928A95E1F70F
:103D700087E1F2CC8090700590907105A090780555
:103D8000B09079056090800570908105409088051D
:103D90005090890580918C050E9484056C0180916A
:103DA00091050E9484057C01809196050E948405FE
:103DB0008C0180919B050E948405CF5EDE4F998225
:103DC0008882C151D140CD5EDE4FB982A882C351F5
:103DD000D140CB5EDE4F79826882C551D140C95E49
:103DE000DE4F59824882C751D140C75EDE4FD9822B
:103DF000C882C951D140C55EDE4FF982E882CB51FD
:103E0000D140C35EDE4F19830883CD51D140C15EDE
:103E1000DE4F99838883CF51D14065E2CE01019670
:103E20000E94AA0882E1FE01EF5EFE4FDE011796B6
:103E300001900D928A95E1F789E18ECCA9968FAD1C
:103E4000A997982F9F77923009F465C070F5992350
:103E5000B1F1913009F44BC080911E0890912C086B
:103E6000892B90912508892B90913308892B809379
:103E70000909CE0187539F4F0E943D0488E0FE014F
:103E8000E753FF4FDE01AA57BE4F01900D928A956E
:103E9000E1F764E2CE0101960E94AA088FE08A83CE
:103EA00088E0FE01EA57FE4F74CC933009F447C016
:103EB000943091F687FF57C088E498E004C087FFEC
:103EC00005C08EE198E00E942711C6CF8EE198E0F0
:103ED0000E94810DBE016F5F7F4F8EE198E00E94CE
:103EE000140C6A818EE198E00E941F0CB5CF87FF09
:103EF00003C085E298E0E7CF85E298E00E94810D5B
:103F0000BE016F5F7F4F85E298E00E94140C6A81CA
:103F100085E298E0E9CF87FF03C08CE298E0D3CF39
:103F20008CE298E00E94810DBE016F5F7F4F8CE2B2
:103F300098E00E94140C6A818CE298E0D5CF87FF4C
:103F400003C083E398E0BFCF83E398E00E94810D34
:103F5000BE016F5F7F4F83E398E00E94140C6A817B
:103F600083E398E0C1CF88E498E00E94810D74CF8C
:103F700081E20E9414044C0180E20E9414045C015E
:103F8000F09068060091690685E40E9414046C01B3
:103F900084E40E9414049C0191E0892809F090E0D7
:103FA00010E090FB10F991E0AB2809F090E090FB55
:103FB00011F991E0CD2809F090E090FB12F991E021
:103FC000232B09F090E090FB13F9F0FA14F900FBB1
:103FD00015F966E214CC8BE0E5E6F0E0EC0FFD1F8E
:103FE0003396DE01AD58BE4F01900D928A95E1F7F0
:103FF0006AE2CE0101960E94AA088BE0FE01ED580C
:10400000FE4FDE01179601900D928A95E1F782E14D
:104010008A83CE0101960E949308CE0101960E94E8
:104020005F1A8AE2B1CC1092FB031092FC0310924B
:10403000FD031092FE0361E08EE793E00CCC61E398
:10404000CE0101960E94AA088BE08A838AE090E064
:10405000A4E0B1E08F839887A987BA8740CD62E357
:10406000CE0101960E94AA088BE08A8387E195E33E
:10407000A0E0B0E0EFCFE4966CAD7DAD8EAD9FAD2E
:10408000E4970E94FA2D6B017C01E0966CAD7DAD4A
:104090008EAD9FADE0970E94FA2D4B015C01AC966E
:1040A0006CAD7DAD8EAD9FADAC970E94FA2D609347
:1040B0004406709345068093460690934706809287
:1040C000480690924906A0924A06B0924B06C092CA
:1040D0004C06D0924D06E0924E06F0924F068CE0D0
:1040E000E5E6F0E0EC0FFD1F3396DE01A959BE4F67
:1040F00001900D928A95E1F763E3CE0101960E944B
:10410000AA0883E18A838CE0FE01E959FE4FDE01B3
:10411000179601900D928A95E1F7CE0101960E94C3
:104120009308CE0101960E945F1A83E32DCC609123
:104130004C0670914D0680914E0690914F060E945C
:10414000CB2D6B017C0160914806709149068091EE
:104150004A0690914B060E94CB2D4B015C01609169
:1041600044067091450680914606909147060E944C
:10417000CB2D2B013C0164E3CE0101960E94AA08DD
:1041800083E18A834F82588669867A868B869C86ED
:10419000AD86BE86CF86D88AE98AFA8AA0CCA9964F
:1041A0001FADA997AA966FADAA97AB965FADAB97D7
:1041B000AC964FADAC97AD963FADAD97AE962FADEB
:1041C000AE97AF969FADAF97E0968FADE09719830E
:1041D0006A835B834C833D832E839F8388878EE134
:1041E00098E015FF48C10E94810DBE0167537F4FC3
:1041F0008CE298E00E94140CC653DF4F6881CA5CC1
:10420000D0408CE298E00E941F0C85E298E016FFF7
:1042100035C10E94810DBE0167537F4F85E298E052
:104220000E94140CC653DF4F6881CA5CD04085E2FF
:1042300098E00E941F0C8CE298E017FF22C10E94B8
:10424000810DBE0167537F4F8CE298E00E94140CF1
:10425000C653DF4F6881CA5CD0408CE298E00E9470
:104260001F0C8A8180FF10C183E398E00E94810DBA
:10427000BE0167537F4F83E398E00E94140CC6533E
:10428000DF4F6881CA5CD04083E398E00E941F0C36
:104290006981617085E30E941A056A8163FB662764
:1042A00060F987E10E941A056A8166FB662760F95A
:1042B00086E10E941A05698162FB662760F98FE139
:1042C0000E941A056A8167FB662760F981E10E94F6
:1042D0001A056981669561708BE10E941A056A81F1
:1042E00062FB662760F988E10E941A056A8166957B
:1042F000617089E10E941A056A816295617080E1AE
:104300000E941A056A8165FB662760F98FE00E94AA
:104310001A056B8161708EE00E941A056B816695AB
:1043200061708DE00E941A056B8162FB662760F95F
:104330008CE00E941A056B8167FB662760F985E2B5
:104340000E941A056C81617084E20E941A056C81DA
:104350006695617087E20E941A056C8162FB662790
:1043600060F986E20E941A056C8163FB662760F99A
:1043700089E20E941A056C816295617088E20E9450
:104380001A056C8165FB662760F98BE20E941A05AD
:104390006C8166FB662760F98AE20E941A056B81D0
:1043A00063FB662760F98CE20E941A056B816295B7
:1043B00061708EE20E941A056B8165FB662760F9C9
:1043C0008DE20E941A056B8166FB662760F98FE219
:1043D0000E941A05698163FB662760F98DE10E94DE
:1043E0001A056981629561708EE10E941A05C753B2
:1043F000DF4F1882C95CD040C653DF4F1882CA5CB9
:10440000D040C553DF4F1882CB5CD040C453DF4F40
:104410001882CC5CD040C353DF4F1882CD5CD040B3
:10442000C253DF4F1882CE5CD040C153DF4F188299
:10443000CF5CD040C053DF4F1882C05DD040CE016A
:1044400087539F4F0E943D0488E0FE01E753FF4FD2
:10445000DE01A258BE4F01900D928A95E1F765E307
:10446000CE0101960E94AA088FE08A8388E0FE01AF
:10447000E258FE4F8EC90E942711C7CE0E94271115
:10448000DACE0E942711EDCE83E398E00E94271137
:10449000FFCECE0101960E940B09CE0101960E942B
:1044A0005F1A10929E0663E375E080EA95E00E9431
:1044B00038106EE075E088EB95E00E94381069EEE8
:1044C00074E080ED95E00E94381064EC74E088EEB2
:1044D00095E00E9438106FE974E080E096E00E9459
:1044E00038106AE774E088E196E00E943810809105
:1044F000420690914306B0E0A0E08093930690932B
:104500009406A0939506B093960680939706909391
:104510009806A0939906B0939A0684E090E1909350
:104520009D0680939C0610929B0680919E06836058
:104530008B7F80939E06E6C80C94AA1AE9E8F3E004
:1045400084E6DF011D928A95E9F71092F8030C9436
:1045500016091F920F920FB60F9211242F933F93BB
:104560008F939F93AF93BF938091F0039091F1034A
:10457000A091F203B091F3033091EF0323E0230FF6
:104580002D3758F50196A11DB11D2093EF0380939F
:10459000F0039093F103A093F203B093F30380919F
:1045A000F4039091F503A091F603B091F7030196FF
:1045B000A11DB11D8093F4039093F503A093F6031E
:1045C000B093F703BF91AF919F918F913F912F913E
:1045D0000F900FBE0F901F90189526E8230F02969C
:1045E000A11DB11DD2CF1F920F920FB60F921124B1
:1045F0000BB60F922F933F934F935F936F937F93DD
:104600008F939F93AF93BF93EF93FF93E0911E021D
:10461000F0911F021995FF91EF91BF91AF919F917A
:104620008F917F916F915F914F913F912F910F905B
:104630000BBE0F900FBE0F901F9018951F920F92F8
:104640000FB60F9211240BB60F922F933F934F93F7
:104650005F936F937F938F939F93AF93BF93EF93EA
:10466000FF93E0911C02F0911D021995FF91EF91CB
:10467000BF91AF919F918F917F916F915F914F917A
:104680003F912F910F900BBE0F900FBE0F901F9078
:1046900018951F920F920FB60F9211240BB60F921E
:1046A0002F933F934F935F936F937F938F939F933A
:1046B000AF93BF93EF93FF93E0911202F091130237
:1046C0001995FF91EF91BF91AF919F918F917F913C
:1046D0006F915F914F913F912F910F900BBE0F9073
:1046E0000FBE0F901F9018951F920F920FB60F924A
:1046F00011240BB60F922F933F934F935F936F93B9
:104700007F938F939F93AF93BF93EF93FF93E0912A
:104710001002F09111021995FF91EF91BF91AF91A5
:104720009F918F917F916F915F914F913F912F91C9
:104730000F900BBE0F900FBE0F901F9018951F92F9
:104740000F920FB60F9211240BB60F922F933F9337
:104750004F935F936F937F938F939F93AF93BF9389
:10476000EF93FF93E0911A02F0911B021995FF91CC
:10477000EF91BF91AF919F918F917F916F915F91D9
:104780004F913F912F910F900BBE0F900FBE0F9046
:104790001F9018951F920F920FB60F9211240BB60F
:1047A0000F922F933F934F935F936F937F938F93CA
:1047B0009F93AF93BF93EF93FF93E0911802F09113
:1047C00019021995FF91EF91BF91AF919F918F9130
:1047D0007F916F915F914F913F912F910F900BBE01
:1047E0000F900FBE0F901F9018951F920F920FB64B
:1047F0000F9211240BB60F922F933F934F935F9319
:104800006F937F938F939F93AF93BF93EF93FF9398
:10481000E0911602F09117021995FF91EF91BF9167
:10482000AF919F918F917F916F915F914F913F9148
:104830002F910F900BBE0F900FBE0F901F901895E9
:104840001F920F920FB60F9211240BB60F922F9357
:104850003F934F935F936F937F938F939F93AF9308
:10486000BF93EF93FF93E0911402F0911502199515
:10487000FF91EF91BF91AF919F918F917F916F9138
:104880005F914F913F912F910F900BBE0F900FBEF4
:104890000F901F9018951F920F920FB60F92112430
:1048A0000BB60F922F933F934F935F936F937F932A
:1048B0008F939F93AF93BF93CF93EF93FF93809189
:1048C000C10080688093C1008091C100886080939E
:1048D000C100C091C6008091AA068E7F8093AA066F
:1048E0008091F803843658F0E9E8F3E084E6DF01CC
:1048F0001D928A95E9F71092F8030E941609E0913B
:10490000F803E33020F080918A038093FA0381E07A
:104910008E0F8093F803F0E0E757FC4FC08390912F
:10492000FA0389136BC090918903913009F05AC042
:1049300040EA5FE060E070E04093AB065093AC0665
:104940006093AD067093AE064093AF065093B006E9
:104950006093B1067093B2062EE932E23093B50649
:104960002093B4061092B3069091B60693609B7F95
:104970009093B60650E040E090E0BC0161507109B0
:10498000252F30E0261737073CF427573C4FF90115
:104990002081420F5F5FF4CF88579C4FDC018C91E0
:1049A00060E048131CC08CE992E20E946C031092F4
:1049B000F8030E941609FF91EF91CF91BF91AF913B
:1049C0009F918F917F916F915F914F913F912F9127
:1049D0000F900BBE0F900FBE0F901F9018958DEE8D
:1049E00098E0E3CFE9E8F3E084E6DF011D928A95E1
:1049F000E9F71092F8030E941609D9CF8AE090E0F7
:104A0000A0E0B0E080939F069093A006A093A1063B
:104A1000B093A2068093A3069093A406A093A50644
:104A2000B093A6068EE992E29093A9068093A80619
:104A30001092A7068091AA0681608D7F8B7F80935C
:104A4000AA06B7CF1F920F920FB60F9211240BB682
:104A50000F92FF920F931F932F933F934F935F9368
:104A60006F937F938F939F93AF93BF93CF93DF9376
:104A7000EF93FF93C3E9D6E010E000E08CE0F82E5E
:104A8000F09EF001F19EF00D1124E256F94F808165
:104A900080FF23C08C819D81AE81BF810197A109D8
:104AA000B1098C839D83AE83BF83892B8A2B8B2B8B
:104AB000A1F480818460808381FF2DC088819981E9
:104AC000AA81BB818C839D83AE83BF8389859A85B0
:104AD000009719F068850E946C030F5F1F4F2C969A
:104AE0000032110569F6FF91EF91DF91CF91BF91EF
:104AF000AF919F918F917F916F915F914F913F9176
:104B00002F911F910F91FF900F900BBE0F900FBE32
:104B10000F901F9018958E7F8083D8CF1F920F9291
:104B20000FB60F9211240BB60F922F933F934F9312
:104B30005F936F937F938F939F93AF93BF93EF9305
:104B4000FF93F0E0E0E01995FF91EF91BF91AF91F5
:104B50009F918F917F916F915F914F913F912F9195
:104B60000F900BBE0F900FBE0F901F9018951F92C5
:104B70000F920FB60F9211240BB60F922F933F9303
:104B80004F935F936F937F938F939F93AF93BF9355
:104B9000EF93FF93F0E0E0E01995FF91EF91BF9163
:104BA000AF919F918F917F916F915F914F913F91C5
:104BB0002F910F900BBE0F900FBE0F901F90189566
:104BC000FC0117821086108289E0838381E0848350
:104BD000858386831182168A158A8FEF838B148AC8
:104BE0007287618708951F93CF93DF93EC01162F8F
:104BF00060E0812F0E944805612F70E0FB01EC59B5
:104C0000FC4FE491E883FB01E25EFC4FE491F0E0AD
:104C1000EE0FFF1FEC5FFC4F859194919A8389837F
:104C20001B861D861C861A86198618861F821E8280
:104C30001D821C821B82DF91CF911F910895CF931B
:104C4000DF93EC01862F49836A832B831C8220E843
:104C500030E03E832D83411103C061E00E9448058E
:104C6000CE01DF91CF910C9427114F925F926F92FA
:104C70007F928F929F92AF92BF92CF92DF92EF92EC
:104C8000FF920F931F93CF93DF93CDB7DEB72F978C
:104C90000FB6F894DEBF0FBECDBFE3E9F6E083E1C7
:104CA00098E0108211821282138214821582168279
:104CB000178210861286118613863C968E179F07E0
:104CC00081F7109277041092780410927904F89486
:104CD00080917A00806880937A007894F89480912B
:104CE0007A008E7F80937A0080917A00866080932C
:104CF0007A007894F89480917C008F7780937C0080
:104D000080917C00806480937C0078946FE38AE4D7
:104D100095E00E94F3256AE475E083E395E00E9444
:104D2000E02561E485E295E00E94F32565E275E007
:104D30008EE095E00E94E0256EE380E095E00E9421
:104D4000F32560E075E089EE94E00E94E02560E4E0
:104D50008BED94E00E94F3256BED74E084EC94E01D
:104D60000E94E02563E486EB94E00E94F32566EB65
:104D700074E08FE994E00E94E02562E481E994E028
:104D80000E94F32561E974E08AE794E00E94E0253F
:104D900082E090E090936D0580936C0528E535E006
:104DA00030936F0520936E0590937505809374057D
:104DB0002DE535E0309377052093760590937D05BA
:104DC00080937C0522E635E030937F0520937E05B5
:104DD000909385058093840587E695E090938705F9
:104DE000809386058AE380938C0510928E0510923D
:104DF0008D0584E190E09093900580938F052DE3DD
:104E00002093910510929305109292059093950529
:104E10008093940528E320939605109298051092AC
:104E2000970590939A05809399052CE320939B0511
:104E300010929D0510929C0590939F0580939E056E
:104E4000E0EAF5E080E396E040E050E06AE774ECE9
:104E500023E030E0408351836283738314821582A0
:104E600016821782138A358B248B178A168A7896B6
:104E70008E179F0779F705E00093560610925706A4
:104E8000109258061092590610925B0610925A061C
:104E900010926006109261061092630610926206EC
:104EA000109268061092690610926A068AE090E0F5
:104EB00090935D0680935C0690935F0680935E06F8
:104EC0008FE090E090936506809364069093670668
:104ED0008093660680E1809332068BE696E090939D
:104EE0008C0680938B0680E280938D0610928E064E
:104EF00010928F06109290061092920610929106D0
:104F000010921408109213081092150810921708A6
:104F10001092160885E38093190861E00E94480505
:104F200088E198E00E94140E8FE180931B0861E0F5
:104F30000E9448058AE198E00E94140E8BE180935C
:104F40001D0861E00E9448058CE198E00E94140E63
:104F500011E010931F088AE0809320081093210825
:104F60001092220880E8E82EF12CF0922408E092BA
:104F700023088EE198E00E942711109326088BE009
:104F80008093270882E08093280810922908F092E5
:104F90002B08E0922A0885E298E00E9427111093DE
:104FA0002D0898E0D92ED0922E0824E0C22EC0926F
:104FB0002F0810923008F0923208E09231088CE20B
:104FC00098E00E9427111093340889E080933508F7
:104FD0000093360810923708F0923908E0923808AA
:104FE00083E398E00E94271123E040E069E18AE32F
:104FF00098E00E941F2626E040E068E181E498E006
:105000000E941F2627E040E067E188E498E00E94C4
:105010001F2628E040E060E18FE498E00E941F2610
:1050200029E040E06FE086E598E00E941F262AE034
:1050300040E066E18DE598E00E941F262BE040E00D
:1050400061E184E698E00E941F268EE080936B0861
:1050500010926C0861E00E9448058BE698E00E947F
:105060000E0E8DE080936D0810926E0861E00E9434
:1050700048058DE698E00E940E0E8CE080936F0844
:105080001092700861E00E9448058FE698E00E9447
:105090000E0E2AE332E0309372082093710884E404
:1050A00092E09093740880937308C09275088FEF14
:1050B00096E0909377088093760889E49AE190933C
:1050C00079088093780810927A0810927C081092E0
:1050D0007B0810927E0810927D0810928008109232
:1050E0007F0810928D0810928E0810928F081092EF
:1050F00090081092990810929A0810929C081092A9
:105100009B081092A00810929F081092A10810927C
:10511000A2081092A3081092A4084DEC442E4CEC67
:10512000542E652C4DE3742E4092950850929608AB
:10513000609297087092980854E6852E912CA12CC5
:10514000B12C8092910890929208A0929308B0920C
:10515000940840E050E060EA70E440938108509386
:105160008208609383087093840880E090E0A0E454
:10517000B0E48093850890938608A0938708B09345
:1051800088088093890890938A08A0938B08B0932D
:105190008C081092A808C092B0081092B108109222
:1051A000BA081092B2081092B3081092B408109284
:1051B000B5081092B6081092B7081092B80810926D
:1051C000B9081092BB081092BC08E4E0F0E0F0933C
:1051D0009E08E0939D083093BE082093BD082CE301
:1051E00032E03093C0082093BF08D092C10823EF6B
:1051F00036E03093C3082093C20827E33AE13093A6
:10520000C5082093C4081092C6081092C8081092CE
:10521000C7081092CA081092C9081092CC081092C0
:10522000CB081092D9081092DA081092DB0810927D
:10523000DC081092E5081092E8081092E708109236
:10524000EC081092EB081092ED081092EE08109204
:10525000EF081092F0084092E1085092E208609244
:10526000E3087092E4088092DD089092DE08A09234
:10527000DF08B092E0084093CD085093CE086093C9
:10528000CF087093D0088093D1089093D208A09350
:10529000D308B093D4088093D5089093D608A093F0
:1052A000D708B093D8081092F408D092FC08109256
:1052B000FD08109206091092FE081092FF08109245
:1052C000000910920109109202091092030910922C
:1052D0000409109205091092070910920809109309
:1052E000E60888E090E09093EA088093E90810923D
:1052F0000909198686E489838A8398EC9B839CED4F
:105300009C838D838E830F839EE198870A879B877A
:105310002EEE32E03D872C8722E330E03F872E8758
:105320009FE0FE013196AAE1B9E001900D929A95B5
:10533000E1F710922B0910922D0910922C0910926E
:105340002F0910922E0910923009109231091092F3
:105350003209109234091092330910923509809362
:10536000290980932A098EE198E090933709809368
:10537000360985E298E0909339098093380910E85E
:1053800010933A0910923B0910923C0910923D0982
:105390008EE198E00E942711809138099091390997
:1053A0000E9427118CE298E090933F0980933E0978
:1053B00083E398E090934109809340091093420958
:1053C0001092430910924409109245098CE298E02A
:1053D0000E94271180914009909141090E94271154
:1053E000109246092F960FB6F894DEBF0FBECDBFC0
:1053F000DF91CF911F910F91FF90EF90DF90CF90B1
:10540000BF90AF909F908F907F906F905F904F90E4
:105410000895789484B5826084BD84B5816084BD2C
:1054200085B5826085BD85B5816085BD80916E0042
:10543000816080936E001092810080918100826073
:1054400080938100809181008160809381008091B0
:1054500080008160809380008091B100846080939F
:10546000B1008091B00081608093B0008091910084
:10547000826080939100809191008160809391007F
:10548000809190008160809390008091A100826063
:105490008093A1008091A10081608093A100809100
:1054A000A00081608093A0008091210182608093A0
:1054B000210180912101816080932101809120014F
:1054C00081608093200180917A00846080937A00CB
:1054D00080917A00826080937A0080917A00816066
:1054E00080937A0080917A00806880937A0010928D
:1054F000C10061E08DE10E94480560E08DE10E94FD
:105500001A0561E08EE10E94480560E08EE10E948C
:105510001A052FEF83ED90E3215080409040E1F792
:1055200000C000001092C1001092C00086E080937D
:10553000C2001092C50087E68093C40088E980937A
:10554000C1000E941609809120018C7F8093200168
:1055500089E1809321018FE79EE390932701809357
:1055600026018091210187708093EE038091730062
:1055700082608093730081E798E00E94BF0B8DEBFF
:1055800098E00E94BF0B80ED97E0A0E0B0E0809330
:10559000CB079093CC07A093CD07B093CE07809311
:1055A000CF079093D007A093D107B093D20787EB92
:1055B0009BE09093D5078093D4071092D3078091F6
:1055C000D60783608B7F8093D60710923306809135
:1055D000420690914306892B31F488EE93E0909334
:1055E0004306809342068091420690914306B0E0C4
:1055F000A0E08093930690939406A0939506B093B1
:1056000096068093970690939806A0939906B09378
:105610009A0684E090E190939D0680939C061092F8
:105620009B0680919E0683608B7F80939E0662E03E
:1056300082E10E94480562E083E10E94480562E041
:1056400081E20E94480562E080E20E94480562E033
:1056500085E40E94480562E084E40E94480562E017
:1056600083E20E94480562E082E20E94480563E30B
:1056700075E080EA95E00E9438106EE075E088EBF6
:1056800095E00E94381069EE74E080ED95E00E948C
:10569000381064EC74E088EE95E00E9438106FE9F1
:1056A00074E080E096E00E9438106AE774E088E1D8
:1056B00096E00E94381049E056E062E180916E0564
:1056C00090916F050E94930D41E156E063E1809156
:1056D0007605909177050E94930DC4E1D0E0D093B8
:1056E0007305C0937205D0937B05C0937A0549E199
:1056F00056E062E080917E0590917F050E94930DB7
:1057000041E256E063E080918605909187050E9412
:10571000930DD0938305C0938205D0938B05C093DE
:105720008A0588EE93E0A0E0B0E08093B7069093FE
:10573000B806A093B906B093BA068093BB069093BF
:10574000BC06A093BD06B093BE0683E398E0909399
:10575000C1068093C0061092BF068091C206836086
:105760008B7F8093C206D0939005C0938F05D09312
:105770009505C0939405D0939A05C093990580919F
:10578000400690914106892B31F484E690E0909395
:105790004106809340068091400690914106B0E01A
:1057A000A0E080930B0790930C07A0930D07B09394
:1057B0000E0780930F0790931007A0931107B093E3
:1057C00012078FED9AE090931507809314071092BB
:1057D00013078091160783608B7F8093160784E1FF
:1057E000C82ED12CE12CF12CC092BF07D092C0075B
:1057F000E092C107F092C207C092C307D092C407DB
:10580000E092C507F092C60783E09DE09093C90738
:105810008093C8071092C7078091CA0783608B7F67
:105820008093CA078091320684608093320680E2BA
:1058300092E00E94140360E083EA96E10E946C0308
:1058400080E69AEEA0E0B0E0809307089093080805
:10585000A0930908B0930A0880930B0890930C0852
:10586000A0930D08B0930E088EE698E0909311086F
:105870008093100810920F088091120883608B7F2C
:1058800080931208C0922F07D0923007E092310720
:10589000F0923207C0923307D0923407E092350776
:1058A000F092360789EF95E0909339078093380797
:1058B0001092370780913A0783608B7F80933A0775
:1058C00093E0F92EC0E0D0E09091770480917804C5
:1058D000981324C080917904882329F19FB7F89404
:1058E000E091770480917804E81719F181E08E0F38
:1058F00080937704EF9DF0011124E150FC4F00816B
:105900001181B280883211F4109277049FBF011583
:10591000110549F08B2DF801199505C09817F0F283
:10592000885D8913DBCFA895209771F20E94000053
:10593000CBCF80917904882349F381E08E0F809347
:105940007704EF9DF0011124E150FC4F008111819B
:10595000B280883211F41092770410927904D6CF75
:1059600097FB072E16F4009407D077FD09D00E940C
:10597000CC2C07FC05D03EF4909581959F4F08955F
:10598000709561957F4F0895EE0FFF1F881F8BBFA5
:105990000790F691E02D1994AA1BBB1B51E107C09B
:1059A000AA1FBB1FA617B70710F0A61BB70B881FAF
:1059B000991F5A95A9F780959095BC01CD0108953E
:1059C0005058BB27AA270E94F82C0C94722E0E94D4
:1059D000642E38F00E946B2E20F039F49F3F19F4AA
:1059E00026F40C94612E0EF4E095E7FB0C945B2EEC
:1059F000E92F0E94832E58F3BA17620773078407B2
:105A0000950720F079F4A6F50C94A52E0EF4E095F8
:105A10000B2EBA2FA02D0B01B90190010C01CA0168
:105A2000A0011124FF27591B99F0593F50F4503E13
:105A300068F11A16F040A22F232F342F4427585F05
:105A4000F3CF469537952795A795F0405395C9F71D
:105A50007EF41F16BA0B620B730B840BBAF09150D5
:105A6000A1F0FF0FBB1F661F771F881FC2F70EC074
:105A7000BA0F621F731F841F48F487957795679547
:105A8000B795F7959E3F08F0B0CF9395880F08F033
:105A90009927EE0F9795879508950E94372E08F461
:105AA00081E008950E94662D0C94722E0E946B2E48
:105AB00058F00E94642E40F029F45F3F29F00C94C6
:105AC0005B2E51110C94A62E0C94612E0E94832EF5
:105AD00068F39923B1F3552391F3951B550BBB271D
