:100000000C9401020C94DB240C94B0240C948524F1
:100010000C945A240C942F240C9404240C94D9236B
:100020000C94AE230C9432020C9432020C943202E3
:100030000C9432020C9432020C9432020C94320270
:100040000C9432020C9432020C9432020C94320260
:100050000C9432020C9432020C9432020C946423FD
:100060000C9432020C9406250C9432020C94320249
:100070000C9449260C9472260C9432020C94320291
:100080000C9432020C9432020C9432020C94320220
:100090000C9432020C9432020C9432020C94320210
:1000A0000C9432020C9432020C9432020C94320200
:1000B0000C9432020C9432020C9432020C94DD2522
:1000C0000C9432020C9432020C9432020C943202E0
:1000D0000C9432020C9432020C9432020C943202D0
:1000E0000C9432020C942F1A0C94A6200C942F1E00
:1000F0000C94590D0C94D9170C940B170C94D20C2A
:100100000C94E00C0C94EA200C9452210C94180DE1
:100110000C94720D0C946D040C946D0E0C9496114D
:100120000C944C040C9463170C9457140C94891C75
:100130000C94BD170C9444040C9448040C94E91CD2
:100140000C9455040C94BB160C94D41C0C946C1891
:100150000C9416120C947A040C9440040C944916D6
:100160000C944E0B0C9401180C94BE190C94780648
:100170000C94161E0C9498060C94971E0C94B511B2
:100180000C9457230C9473100C94EA0C0C94D4190F
:100190000C948C170C94A2080C94D5080C944F0D59
:1001A0000C94CE200C94751F0C94F7160C94DB0C59
:1001B0000C9467040C948A210C94B61C0C94221F96
:1001C0000C9437140C9490060C9480060C94060D35
:1001D0000C947B040C9488060C9459040C94D0174E
:1001E0000C94CB1C0C94260C0C94C01C0C94450D48
:1001F0000C94F31E0C9498120C9459230C94CA1965
:100200000C9401170C9463040C94671C0C946D0DF2
:100210000C942C0D0C944F1F0C944E160C940E162F
:100220000C941E1C0C947F040C9444160C94D91F3F
:100230000C9475040C94DA200C94FE0C0C9471044C
:100240000C94CB170C94F0260C94E70B0C942C1AFE
:100250000C94630D0C943E1D0C945C090C943B1C97
:100260000C94DD080C9473200C9438180C946512CF
:100270000C941D170C942A180C9404230C94F40C61
:100280000C94220D0C94871A0C94F6200C943317BE
:100290000C943B0D0C945F040C94821D0C94E91B90
:1002A0000C94531C0C940E0D0C943A040C945C1793
:1002B0000C94321A0C944F040C9468060C94D91ABE
:1002C000005EBCE2613FDD83C29C7E20A3FD1F4136
:1002D000009D23BE46DB65F88C11AF32CA57E97426
:1002E00000002100240027002A002D0030003300E8
:1002F00001010000040107010A010000220025009D
:1003000028002B002E0031003400020100000501FE
:1003100008010B01000020002300260029002C000A
:100320002F0032000001000003010601090105054C
:100330000505070508080808020202020A0A08085B
:100340000404040401010101010101010303030389
:1003500003030303040707070C0C0C0C0C0C0C0C18
:100360000202020206060606060606060B0B0B0B29
:100370000B0B0B0B0102102020080810204010204E
:100380004080020102010804020101020408102059
:100390004080804020100804020180040201804057
:1003A00020100804020108040201010204081020C0
:1003B0004080010204081020408000000A0B02095E
:1003C0000C0D0E08070304010000000000000000EF
:1003D000000000000000000000000000000000001D
:1003E00000000000000012111000000000000000DA
:1003F00000000000000000000000000000000000FD
:10040000F02611241FBECFEFD1E2DEBFCDBF00E04A
:100410000CBF13E0A0E0B2E0EEEBFFE500E00BBFA5
:1004200002C007900D92A039B107D9F729E0A0E9E1
:10043000B3E001C01D92A335B207E1F712E0C1E0BD
:10044000D2E000E006C021970109802FFE010E9442
:100450007A2DC030D10780E00807A9F70E94BF2A93
:100460000C94DD2F0C94000080912108882311F159
:1004700081E090E09093200880931F081092370944
:10048000109239091092380910923D0910923B09D7
:1004900010923A0910923C0980912A0980933509FB
:1004A00080912B09809336091092400910923F09E0
:1004B000109241090895E8E7F5E015821482AFE94A
:1004C000B6E04CE251E060E070E0D0964D935D9371
:1004D0006D937C93D397D4964D935D936D937C935A
:1004E000D7978DE69EE0DA969C938E93D997D8960F
:1004F0001C92AAEDB6E08C9181608D7F8B7F8C93EE
:1005000082E090E091838083A281B38114961C9253
:100510001E9213979187808715861486A285B385CE
:1005200014961C921E921397918B808B158A148AB5
:10053000A289B38914961C921E921397918F808F73
:10054000158E148E028CF38DE02D14821382089583
:100550009CEF980F933018F08B3009F05EC08091BB
:100560007406811104C080917506882341F01092B1
:10057000B2078091A60780FF2CC080E008951092FA
:10058000A6079091B20790FDF8CF92FDF6CF48EE06
:1005900053E060E070E04093A7075093A807609392
:1005A000A9077093AA074093AB075093AC076093D9
:1005B000AD077093AE0725EB31E13093B10720937F
:1005C000B0071092AF0791609D7F9B7F9093B20719
:1005D000089582FDD2CF48EE53E060E070E0409392
:1005E0009B0750939C0760939D0770939E074093D1
:1005F0009F075093A0076093A1077093A20726E975
:1006000031E13093A5072093A4071092A3078160DE
:100610008D7F8B7F8093A607B0CF81E00895FC018A
:1006200090E1A0E4B6E001900D929A95E1F78091F7
:100630004C0690914D06B0E0A0E0EFE9F6E0809323
:10064000170790931807A0931907B0931A07809380
:100650001B0790931C07A0931D07B0931E078EE401
:100660009BE0909321078093200710921F07A2E23E
:10067000B7E08C9183608B7F8C9380914E06909134
:100680004F06B0E0A0E080839183A283B38384838C
:100690009583A683B78383E790E19287818710864D
:1006A000EAEAF6E0808183608B7F808380E496E0D5
:1006B000909317098093160984E690E09093FE08C2
:1006C0008093FD089093B2088093B108089521E0CB
:1006D00030E030933D0620933C0690913E069160B9
:1006E0009B7F90933E064CE251E060E070E04093C7
:1006F000CF065093D0066093D1067093D2064093F4
:10070000D3065093D4066093D5067093D6064DE673
:100710005EE05093D9064093D8061092D706909188
:10072000DA0691609D7F9B7F9093DA069091210875
:100730009B3029F41092610610926006089596305D
:1007400029F4309361062093600608952CEF290F59
:10075000223038F482E090E0909361068093600646
:100760000895973029F5409146065091470670E06C
:1007700060E04093B3075093B4076093B50770935C
:10078000B6074093B7075093B8076093B9077093C3
:10079000BA072EE036E13093BD072093BC07809363
:1007A000BB078091BE0781608D7F8B7F8093BE07E2
:1007B00083E090E0D1CF9C014FB7F89480918504FD
:1007C000E091840481111CC081E08E0F8093840429
:1007D00093E0E99FF0011124E55FFB4F3183208313
:1007E0006283883211F41092840490918404809181
:1007F0008304981303C081E0809385044FBF08955C
:10080000909183049F5F9832A1F09093830491E0CC
:100810009E0F9093840483E0E89FF0011124E55F2C
:10082000FB4F318320836283983241F71092840416
:10083000E5CF10928304EBCF8150823108F05AC08B
:10084000E82FF0E08827E85DFB4F8F4F0C947A2D5E
:1008500048044C043A04400444047A044F04550408
:1008600059045F04630467046D0471047A04750419
:100870007B047F04809180008F77809380000895AF
:10088000809180008F7DF9CF80918000877FF5CFA8
:1008900084B58F7784BD089584B58F7DFBCF80911B
:1008A000B0008F778093B00008958091B0008F7D65
:1008B000F9CF809190008F77809390000895809178
:1008C00090008F7DF9CF80919000877FF5CF809148
:1008D000A0008F778093A00008958091A0008F7D65
:1008E000F9CF8091A000877FF5CF809120018F778D
:1008F000809320010895809120018F7DF9CF809110
:100900002001877FF5CFCF93DF93282F30E0F901C7
:10091000E654FC4F8491F901EC58FC4FD491F90155
:10092000E25DFC4FC491CC23A1F081110E941C0414
:10093000EC2FF0E0EE0FFF1FEC5EFC4FA591B491A1
:10094000EC91ED2381E090E009F480E0DF91CF911C
:10095000089580E090E0FACFCF93DF93EC01188206
:1009600019821A821B821C821D821E821F828EE0C7
:100970000E9483049A8180FB90F99A838DE00E9403
:1009800083049A8180FB91F99A838CE00E9483040E
:100990009A8180FB92F99A83EFE1F8E08881938550
:1009A00090FB85F9928990FB86F9918D90FB87F9F0
:1009B0008883898190A190FB80F9898389E10E94D5
:1009C0008304998180FB91F9998388E10E948304D3
:1009D000998180FB92F9998387E10E948304998130
:1009E00080FB93F9998380E10E948304998180FBC5
:1009F00094F999838FE00E948304998180FB95F993
:100A0000998386E10E948304998180FB96F99983FA
:100A100081E10E948304998180FB97F999838CE29C
:100A20000E9483049A8180FB93F99A838EE20E944C
:100A300083049A8180FB94F99A838DE20E94830457
:100A40009A8180FB95F99A838FE20E9483049A81B0
:100A500080FB96F99A8385E20E9483049A8180FB49
:100A600097F99A8384E20E9483049B8180FB90F92A
:100A70009B8387E20E9483049B8180FB91F99B8387
:100A800086E20E9483049B8180FB92F99B8389E22A
:100A90000E9483049B8180FB93F99B8388E20E94E0
:100AA00083049B8180FB94F99B838BE20E948304E7
:100AB0009B8180FB95F99B838AE20E9483049B8142
:100AC00080FB96F99B8385E30E948304988180FBD9
:100AD00090F998838FE10E948304988180FB92F9BA
:100AE00098838BE10E948304988180FB91F998831D
:100AF0008DE10E948304988180FB93F998838EE1B5
:100B00000E948304988180FB94F99883DF91CF91B0
:100B100008951F93CF93DF93282F30E0F901E65417
:100B2000FC4F8491F901EC58FC4FD491F901E25D3E
:100B3000FC4FC491CC23A9F0162F81110E941C04F4
:100B4000EC2FF0E0EE0FFF1FE650FD4FA591B491A2
:100B50008FB7F894EC91111108C0D095DE23DC9387
:100B60008FBFDF91CF911F910895DE2BF8CFCF93E8
:100B7000DF9390E0FC01EC58FC4F2491825D9C4F88
:100B8000FC0184918823C9F090E0880F991FFC0133
:100B9000E052FD4FA591B491FC01E650FD4FC59187
:100BA000D49161110DC09FB7F8948C912095822348
:100BB0008C938881282328839FBFDF91CF9108954C
:100BC000623051F49FB7F8943C91822F8095832333
:100BD0008C93E8812E2BEFCF8FB7F894EC912E2BCE
:100BE0002C938FBFEACF863308F0865320917B0089
:100BF000982F9870277F922B90937B00877080644A
:100C000080937C0080917A00806480937A00809148
:100C10007A0086FDFCCF809178009091790008954C
:100C20003FB7F8948091000490910104A0910204D0
:100C3000B091030426B5A89B05C02F3F19F001967B
:100C4000A11DB11D3FBFBA2FA92F982F8827BC0126
:100C5000CD01620F711D811D911D42E0660F771F4E
:100C6000881F991F4A95D1F708958F929F92AF924E
:100C7000BF92CF92DF92EF92FF926B017C010E94B4
:100C800010064B015C01C114D104E104F104B9F078
:100C90000E941006681979098A099B09683E734009
:100CA0008105910580F321E0C21AD108E108F1081D
:100CB00088EE880E83E0981EA11CB11CE4CFFF9043
:100CC000EF90DF90CF90BF90AF909F908F9008955E
:100CD000CF93C091F90381E0C827C093F90361E085
:100CE00084E30E94B7056C2F84E3CF910C948905AF
:100CF000E4E6F5E0838194810196948383830895EB
:100D0000E4E6F5E0808591850196918780870895D6
:100D1000E4E6F5E0858596850196968785870895B2
:100D2000E4E6F5E0828993890196938B828B08959E
:100D30000895DC0180E0615090F09D919827E92FA3
:100D4000EF70F0E0E054FD4F2491E92FE295EF7051
:100D5000F0E0E053FD4FE491822F8E27ECCF089511
:100D6000DC012C911196ED91FC91F8948181822BFC
:100D700081839281322F30959323928387E090E094
:100D80000197F1F781818323818383E290E00197CA
:100D9000F1F790817894EFECF0E03197F1F792233E
:100DA00081E009F480E00895FC0190810180F281E6
:100DB000E02D292F209560FF14C0F89482818223B2
:100DC00082838181892B8183A3E2B0E01197F1F7BF
:100DD0008281982B9283789487ED90E00197F1F7C8
:100DE0000895F8948281822382838181892B818373
:100DF000AFEFB0E01197F1F78281982B928378944E
:100E00008FE090E0EBCFDF92EF92FF920F931F9372
:100E1000CF93DF93EC01D62EE42E08E010E0FF2400
:100E2000F39461E08D2D8F2109F460E0CE010E94E2
:100E3000D406FF0C01501109A1F7E11010C0F8947D
:100E4000E981FA8191818881809589238183E98173
:100E5000FA81928188818095892382837894DF91B9
:100E6000CF911F910F91FF90EF90DF900895EF9237
:100E7000FF920F931F93CF93DF938C017B0140E090
:100E800065E50E940307E70188E0E80EF11C69911F
:100E900040E0C8010E940307CE15DF05C1F7DF91CE
:100EA000CF911F910F91FF90EF900895FC019081D9
:100EB0000180F281E02DF8948181292F20958223F1
:100EC000818378943DE743E050E0315029F1DA0125
:100ED0001197F1F780818923C1F3F89482818223ED
:100EE00082838181892B81837894ABE7B7E0119766
:100EF000F1F7F894818182238183A3E1B1E0119716
:100F0000F1F78081982381E009F080E07894E3E6AE
:100F1000F6E03197F1F7089580E008958F929F925F
:100F2000AF92BF92CF92DF92EF92FF920F931F93F7
:100F3000CF93DF9300D01F921F92CDB7DEB78C0105
:100F4000DC0119968D919C910E94560740E06CEC53
:100F5000F801818592850E940307D8014C9164E4D1
:100F600019968D919C910E9403078FB7F894C090B9
:100F7000FC03D090FD03E090FE03F090FF038FBFD1
:100F8000F8018481811120C081E08983CA82DB82DB
:100F9000EC82FD8229813A814B815C816D8170E018
:100FA00080E090E00F900F900F900F900F90DF91E6
:100FB000CF911F910F91FF90EF90DF90CF90BF9056
:100FC000AF909F908F90089585818823F9F080815C
:100FD00081111CC0F801818592850E94B006813084
:100FE00099F22FB7F8948091FC039091FD03A091A2
:100FF000FE03B091FF032FBF8C199D09AE09BF09F5
:101000008E3E9240A105B10528F3BECFD8011396BC
:10101000EC91E9508EEE92E0E33038F4F0E0EE0F20
:10102000FF1FE05DFD4F808191814C01B12CA12C0F
:10103000F8018181882321F060E082810E94890586
:10104000C501B4010E943506D80111968C91119703
:10105000882309F499CF61E012968C910E9489054A
:1010600093CF4F925F926F927F928F929F92AF92A7
:10107000BF92CF92DF92EF92FF920F931F93CF9385
:10108000DF938C017B01EA01FC01818592850E943E
:1010900056078823D9F1B701F801818592850E940E
:1010A000370740E06EEBF801818592850E940307C7
:1010B0006E015E01F9E0AF0EB11C7E01F801818482
:1010C000928488E0682E712C512C44244394C401EE
:1010D0000E94B00681115428440CF1E06F1A710887
:1010E000B1F7F70151927F01AE16BF0639F7F8014B
:1010F000818592850E945607813041F4F6018191E5
:101100006F01811105C0EE15FF05C1F790E008C021
:1011100068E0CE010E94990691E028852813F6CF59
:10112000892FDF91CF911F910F91FF90EF90DF906A
:10113000CF90BF90AF909F908F907F906F905F9077
:101140004F900895E8E7F5E0A281B38113968D9161
:101150009C91149714961C921E92139795838483E6
:10116000A285B38513968D919C91149714961C9229
:101170001E92139795878487A289B38913968D91C0
:101180009C91149714961C921E921397958B848BA6
:10119000A28DB38D13968D919C91149714961C92E9
:1011A0001E921397958F848F08951092F206E7E0B0
:1011B000F4E08081877F8083089561E08DE10C9465
:1011C0008905CF93DF93A0E0B2E0FD0190E021918B
:1011D00031912817390721F4EF01229719821882DB
:1011E00022E0E031F20799F78D919D91892B41F42E
:1011F00082E0A031B807C1F781E0DF91CF91089577
:1012000080E0FBCFFC0121812150330B70E060E0D6
:10121000472F50E0421753073CF4480F591FFA017B
:101220004081640F7F5FF4CF820F931FFC016083C6
:101230000895FC0181E08083658385E0828380914D
:101240003E06A0E0B2E020E132E04D915D91452BF9
:10125000E1F42A173B07C9F791E08F7E90FF806188
:101260009091900390FB81F98383F89490919C0670
:1012700080919B0691110BC090919A06981307C01C
:101280007894148287E08183089590E0E6CF90E01F
:10129000A0919706B0919806A80FB91F2C910196BE
:1012A0006091990670E00E94662D80939B061092D3
:1012B0009C0678942483E6CFCF93DF93CDB7DEB737
:1012C000C456D1090FB6F894DEBF0FBECDBF66E09D
:1012D000CE0101960E941909CE0101960E940209D1
:1012E000CC59DF4F0FB6F894DEBF0FBECDBFDF91F4
:1012F000CF910895CF93DF93EC0167E00E94190925
:10130000CE01DF91CF910C940209E1ECF0E08081F5
:101310008068808308951F93CF93DF93EC01198633
:101320001EAAFC01E05CFF4F10829FAD319680E069
:10133000981719F011928F5FFBCFFE01E55BFF4F0D
:1013400010823197108210E08FAD181750F4EA81A7
:10135000FB81E10FF11D60E080810E9489051F5F24
:10136000F3CFDF91CF911F910895CF93DF93EC01DD
:101370000E948B09ED81FE812F8138858CA99DA962
:10138000B0E0A0E080839183A283B38384839583BC
:10139000A683B783328721878BE08087838581602E
:1013A0008D7F8B7F8387DF91CF9108953F924F92FE
:1013B0005F926F927F928F929F92AF92BF92CF92E5
:1013C000DF92EF92FF920F931F93CF93DF9300D0A2
:1013D00000D0CDB7DEB79E838D83062F10E08FB788
:1013E000F894C090FC03D090FD03E090FE03F090D1
:1013F000FF038FBFED81FE8180A991A9A2A9B3A9A6
:10140000C81AD90AEA0AFB0AC701B6010E94B02E1F
:1014100020E030E04AE754E40E94082EAD81BE810E
:1014200094966D937D938D939C939797FD01C0A2A5
:10143000D1A2E2A2F3A22FB7F8948091FC0390917D
:10144000FD03A091FE03B091FF032FBFED81FE814C
:1014500080AB91ABA2ABB3AB158704876285738574
:10146000601B710BE6A4F7A4E01AF10A17A706A700
:1014700081A5882331F0719561957109F194E1940A
:10148000F108AD81BE8198963C90072E000C880B28
:10149000990B0E94B22E4B015C0110E000E031106C
:1014A0000BC0ED81FE8120893189428953890E94D8
:1014B000672F0E947A2E8B01B701FF0C880B990BC6
:1014C0000E94B22E6B017C01AD81BE8194968D91FC
:1014D0009D910D90BC91A02D89839A83AB83BC8391
:1014E000ED81FE81208D318D428D538DC701B60176
:1014F0000E94672F29813A814B815C810E94082ECE
:101500002B013C01B801110F880B990B0E94B22EE0
:101510009B01AC01C301B2010E94972D0E947A2E5B
:101520002B01AD81BE811F967C936E931E975496BE
:101530002D913D914D915C915797C501B4010E9449
:10154000672F29813A814B815C810E94672FED8151
:10155000FE81248D358D468D578D0E94972D4B0130
:101560005C01AD81BE815C968D929D92AD92BC92E4
:101570005F973320A1F050962D913D914D915C9154
:101580005397C701B6010E94672FA50194010E94DD
:10159000972DED81FE81648F758F868F978FAD813A
:1015A000BE815C968C905C975D969C905D975E96F4
:1015B000AC905E975F96BC905F979A960D911C9148
:1015C000B801012E000C880B990B0E94B22E6B0102
:1015D0007C019B01AC01B401C5010E94032E87FD73
:1015E00016C0ED81FE8164A575A5072E000C880B41
:1015F000990B0E94B22E6B017C019B01AC01B401DE
:10160000C5010E94622F181614F064017501C6010D
:10161000D701ED81FE81848F958FA68FB78FB201A0
:10162000550C880B990B0E94B22E9601A7010E94BF
:10163000972D0E947A2E601771074CF0AD81BE8104
:101640009C960D911C91601771070CF48B01ED8134
:10165000FE811787068706ABE55BFF4FAD81BE8134
:1016600014968C91081708F4802F808326960FB665
:10167000F894DEBF0FBECDBFDF91CF911F910F91C8
:10168000FF90EF90DF90CF90BF90AF909F908F90A2
:101690007F906F905F904F903F900895CF93DF932E
:1016A000CDB7DEB768970FB6F894DEBF0FBECDBFDB
:1016B000E8E7F5E0DE01119644A955A966A977A9E6
:1016C0004D935D936D937D93789686E0E830F807AF
:1016D00099F780918608882351F069817A818B81FE
:1016E0009C810E94812E8DE798E00E94D60980910E
:1016F000D208882391F069817A818B819C810E9434
:10170000812E89EC98E068960FB6F894DEBF0FBE84
:10171000CDBFDF91CF910C94D60968960FB6F8949F
:10172000DEBF0FBECDBFDF91CF910895CF92DF9284
:10173000EF92FF920F931F93CF93DF9300D000D0CF
:101740001F921F92CDB7DEB7FC018E010F5F1F4FB6
:1017500088E0D8011D928A95E9F74285C180E08032
:101760002E2D30E0842FF12CDD24D394CF100EC029
:10177000CF010296B801562F501B5E1590F4DB0185
:101780005D91BD01DC015D93CD01F5CF90E0D80105
:10179000A80FB91FDC920196B9010E94662DF3943F
:1017A000E5CF842F90E00196B9010E94662D8287D3
:1017B00028960FB6F894DEBF0FBECDBFDF91CF9154
:1017C0001F910F91FF90EF90DF90CF9008951F939E
:1017D000CF93DF93FC0181858823A1F1DF01A65B14
:1017E000BF4F9C91EF01C55BDF4F8881981730F5A3
:1017F0009F5F9C939F01205C3F4F97AD8C91981702
:1018000008F4892FEF01F9018083CE01CF960E9461
:10181000960B10E08FAD1817A8F4812F90E0DE0131
:10182000A80FB91FAF5BBF4FEA81FB81E80FF91F1B
:101830006C9180810E9489051F5FECCF8917D0F6DB
:101840009150D7CFDF91CF911F9108958DE798E008
:101850000E94E70B89EC98E00C94E70BEF92FF9263
:101860001F93CF93DF93EC0110E08C811817A0F445
:10187000E12EF12CEA81FB81EE0DFF1D61E08081FC
:101880000E94B705EA81FB81EE0DFF1D60E08081BB
:101890000E9489051F5FE9CFFE01E05CFF4F1082C7
:1018A000CE01CF96DF91CF911F91FF90EF900C94D6
:1018B000960B81E20E94830421E0892B09F420E049
:1018C000822F0895FC018181861799F0618381E060
:1018D00090E0938382838081861751F0662381F0A4
:1018E00084819581228133812817390708F060832C
:1018F0000895828193818F3F980769F30196E9CF1C
:1019000086819781EFCFFC018181882331F083812B
:10191000DB018C93858111968C9308950F931F930F
:10192000CF93DF93FC012081222309F43FC0162FBF
:10193000C62FD0E0D683C583028161E0802F0E944C
:10194000B705209741F460E0802FDF91CF911F9180
:101950000F910C948905CF3FD10511F461E0F4CFCC
:10196000E02FF0E0E654FC4FE491E150E23108F062
:10197000B4C0F0E08827E054F34F8F4F0C947A2DD9
:10198000D20CDB0CE00CEA0CF40C6D0DFE0C060D19
:101990000E0D180D220D2C0D3B0D450D6D0D4F0D2F
:1019A000590D630D84B5806884BD17BDDF91CF915B
:1019B0001F910F91089584B5806284BD18BDF6CF44
:1019C00080918000806880938000D0938900C093CC
:1019D0008800ECCF80918000806280938000D0935B
:1019E0008B00C0938A00E2CF809180008860809352
:1019F0008000D0938D00C0938C00D8CF8091B00030
:101A000080688093B0001093B300D0CF8091B00075
:101A100080628093B0001093B400C8CF8091900092
:101A2000806880939000D0939900C0939800BECFB7
:101A300080919000806280939000D0939B00C0932F
:101A40009A00B4CF80919000886080939000D093EA
:101A50009D00C0939C00AACF8091A00080688093D5
:101A6000A0008091A0008F7B8093A000D093A9005C
:101A7000C093A8009BCF8091A00080628093A000BB
:101A8000D093AB00C093AA0091CF8091A000886052
:101A90008093A000D093AD00C093AC0087CF80911D
:101AA0002001806880932001D0932901C0932801F0
:101AB0007DCF80912001806280932001D0932B0103
:101AC000C0932A0173CF8091200188608093200108
:101AD000D0932D01C0932C0169CFC038D1050CF0F3
:101AE0003DCF31CF0F931F93CF93DF9383E20E94BB
:101AF00083048C0182E20E948304EC0161E0012BEB
:101B000009F460E084E696E00E94620C61E0CD2B6F
:101B100009F460E08CE696E00E94620C8091640615
:101B20008093740690916C069093750623E0911152
:101B300003C021E0811122E020937606209147091D
:101B4000222309F448C020914F09222309F443C0FD
:101B50002091150921113FC0992351F18091270946
:101B600080933609109235096091350960934609D2
:101B700080914809882329F1809144099091450971
:101B80000E948E0C6091360960934E0980914F0936
:101B9000882309F1809150098823C1F080914C0974
:101BA00090914D09DF91CF911F910F910C948E0C64
:101BB0008111DACF80912609809335091092360978
:101BC000D3CF8091420990914309DACF80914A099D
:101BD00090914B09E7CFDF91CF911F910F9108951D
:101BE000FC01808181110DC081E0808381818111A0
:101BF00004C061E082810C9489056581CF010C9459
:101C00008E0C0895CF93DF93EC01862F68835A835F
:101C100049831C821B8262E00E94B70529813A81B8
:101C20009881923069F430931102209310028091D0
:101C30006A00836080936A00EC9ADF91CF910895E7
:101C4000933059F4309313022093120280916A006A
:101C50008C6080936A00ED9AF0CF8EEE890F84300D
:101C600060F787E1891BE82FF0E0EE0FFF1FE05FD0
:101C7000FD4F31832083843091F08530B9F083307B
:101C800039F080916900836080936900E89AD5CF2C
:101C9000809169008C6080936900E99ACECF809131
:101CA0006900806380936900EA9AC7CF80916900D8
:101CB000806C80936900EB9AC0CFFC012481358150
:101CC000868197812817390728F081E090E0918379
:101CD0008083089511821082089588E795E00E941C
:101CE0005D0E80E895E00E945D0E88E895E00E9418
:101CF0005D0E80E995E00C945D0EFC01118260E0C0
:101D000080810C948905FC01108260E081810C9433
:101D10008905F89490919C06992359F080919D062D
:101D200090919E06019690939E0680939D067894CE
:101D3000089520919A0630E0E0919706F091980678
:101D4000E20FF31F8083C90101966091990670E04C
:101D50000E94662D80939A0690919B069813E7CF78
:101D600081E080939C06E3CFBF92CF92DF92EF9207
:101D7000FF920F931F93CF93DF93EC01B62EC72EE4
:101D80008D85811105C0CE010E94560781110EC0BC
:101D90001B861D861C8680E0DF91CF911F910F91DD
:101DA000FF90EF90DF90CF90BF90089540E060EFFC
:101DB000CE010E94030701E0E12CD12C11E0CE01FD
:101DC0000E94B006F82ECE010E94B00691E0F912F2
:101DD00018C0813099F51134D8F2DB86D11002C0D9
:101DE00081E08D878B81882399F22396EB2DFC2D42
:101DF000CF01089629912193E817F907D9F781E0D7
:101E0000CBCFEE2DF0E0F8120FC08B851817A0F4A1
:101E1000DE01AE0FBF1F13968C91802379F4F12C55
:101E2000193008F41C87D12EEC0FFD1F8381902FF1
:101E30009095892383830AC08113F1CFFE01EE0DB3
:101E4000F11D8381802B8383FF24F3946F2DCE01BA
:101E50000E94D4061F5F000F11F4E39401E087E0B5
:101E60008E1508F0ACCFB7CFCF93DF93EB01DC0139
:101E70001996ED91FC911A97138615861486128691
:101E80001186108617821682158214821382199683
:101E90008D919C910E94B40E982F882341F067E0A9
:101EA000CE010E94990691E02F81281390E0892F9E
:101EB000DF91CF9108958F929F92AF92BF92EF9250
:101EC000FF920F931F93CF93DF93CDB7DEB7619748
:101ED0000FB6F894DEBF0FBECDBF7C01FC010085BC
:101EE0001185F8018781882309F46BC0BE01665F04
:101EF0007F4FC8010E94340F882309F462C0AE01ED
:101F00004F5F5F4FBE01665F7F4FC8010E9431087F
:101F1000882309F456C08A81812C912C540187FFB3
:101F200006C0812C912CF8EFAF2EBB24BA949A8571
:101F300049819B3309F057C02D8127FF54C040FDD4
:101F400040C0042F10E030E020E073E0000F111FCC
:101F5000221F331F7A95D1F7B901A801407E57702F
:101F60006627772790E0B0E0A0E08C019D01EBE0D0
:101F7000000F111F221F331FEA95D1F7042B152BD9
:101F8000262B372B082919292A293B29013854EEF9
:101F900015075FEF25073507A4F0C901B8010E94B6
:101FA000B22E20E030E040E05CE30E94672F4B015E
:101FB0005C0120E030E04EEF52EC0E94032E8111D4
:101FC00058C0F70186899789248935898217930734
:101FD00018F40196978B868B812C912C8EEFA82E6E
:101FE00082ECB82E49C0082F10E0102F0027110FE7
:101FF000110F110FF8E04F9FA0011124042B152B96
:10200000012E000C220B330B082919292A293B2900
:10201000903109F0BBCF6885662309F4B7CF70E033
:102020008F81AB01481B5109CA019695982F8827CB
:10203000979587950E94662DCB01770FAA0BBB0B56
:1020400053E0000F111F221F331F5A95D1F700785C
:10205000277033270052110921093109800F911F80
:10206000A21FB31F95018401082B192B2A2B3B2B90
:102070008DCFF701178A168A81E0F70146895789C3
:10208000248935894217530708F480E0F701838BD0
:10209000808591850E948E07F701838981111AC07E
:1020A00080829182A282B382F701608171818281F4
:1020B000938161960FB6F894DEBF0FBECDBFDF915E
:1020C000CF911F910F91FF90EF90BF90AF909F9095
:1020D0008F90089580E090E0AAE7B4EC808391832C
:1020E000A283B383E1CF8091620681508093620620
:1020F000811118C085E08093620680913F0628E137
:10210000829FC001112484559A4F0E945B0F9091C9
:102110003F06892F8F5FF1F39FEF8630D0F78093D2
:102120003F0608958CEA95E00E945B0F9091BF05F1
:1021300080910804992339F080648093080461E059
:102140008DE10C9489058F7B809308040895BF92DC
:10215000CF92DF92EF92FF920F931F93CF93DF9373
:10216000CDB7DEB761970FB6F894DEBF0FBECDBF17
:102170007C018B01DC0119967C936E93189783E0A8
:10218000D82ECC24C394D8011996ED91FC911A97BE
:10219000138615861486128611861086178216827B
:1021A00015821482138217961C92179718961C9208
:1021B00062E370E080E090E00E943506BE01665F59
:1021C0007F4FF801818592850E94B40E882309F41F
:1021D00077C067E0CE010A960E9499069989891313
:1021E000EDCFD80117968C9117978F5F17968C9328
:1021F0008A85883231F008F04AC0803111F082328D
:10220000E9F6F80180858F5F80878081811124C085
:10221000818592850E945607BE01665F7F4FD80177
:1022200019968D919C910E94370740E064EBF8016C
:10223000818592850E940307D80119968D919C9102
:102240000E94B006B82EF801818592850E9456073B
:10225000B11002C0D801CC928A85803119F1AE014B
:102260004F5F5F4FBE01665F7F4FC8010E9431081C
:10227000882359F08D819A859B3311F487FD12C014
:102280008F3391F058F48F31B9F080E00EC08B336A
:1022900009F4B7CF823409F091CFB3CF8F3571F005
:1022A0008F3799F78CE001C08AE0F8019381981785
:1022B00008F084CF838382CF89E0F7CF8BE0F5CF1E
:1022C000D80117969C91911103C0DA94D1105BCF7D
:1022D000F701138A178A168A0084F185E02D978109
:1022E000992331F0B701665F7F4FCF010E94340F11
:1022F000D70152968C9352971896ED91FC911997AD
:10230000148218968D919C910E948E0761960FB64B
:10231000F894DEBF0FBECDBFDF91CF911F910F911B
:10232000FF90EF90DF90CF90BF90089582E090E013
:1023300090933D0680933C0686E498E00C94F00D63
:10234000CF93FC018081882371F01082C28181814A
:10235000882321F061E08C2F0E94B70560E08C2F6C
:10236000CF910C948905CF9108951092A6071092F1
:10237000B20786E498E00E94A011EFE1F8E0118234
:10238000108287E082830E94340281E00C9467030C
:102390001F93CF93DF93EC01888199810E94A01154
:1023A0008A819B81FC012481222351F00E94A0118B
:1023B0001D8281E08F8380E0DF91CF911F9108958E
:1023C00011E01E832C8130E0368325830E94F00DBE
:1023D0001D8381E0F1CFCF93DF93EC018D818111DB
:1023E00019C09F81911116C02E81222369F08A8124
:1023F0009B81FC013481332381F0211108C0CE017F
:10240000DF91CF910C94C81188819981F2CF81E03E
:102410008F8380E0DF91CF9108952C8130E0368367
:1024200025830E94F00D81E08D83F4CFCF9390E05F
:10243000009769F5C1E0C093240861E08091250808
:102440000E94890584EF91E0A0E0B0E08093070846
:1024500090930808A0930908B0930A0880930B088A
:1024600090930C08A0930D08B0930E0886E192E1BA
:102470009093110880931008C0930F088091120860
:1024800081608D7F8B7F80931208CF910895019793
:10249000E1F78AE499E00E94EB118CED80934E09FC
:1024A00080914F09882389F380915009882341F056
:1024B00080914C0990914D096CEDCF910C948E0C4C
:1024C00080914A0990914B09F7CF90E0009749F528
:1024D00084E298E00E94830E84EF91E0A0E0B0E0F7
:1024E0008093FB079093FC07A093FD07B093FE0732
:1024F0008093FF0790930008A0930108B09302080F
:1025000085E692E1909305088093040881E080932A
:1025100003088091060881608D7F8B7F8093060879
:102520000895019721F48AE499E00C94EB11089541
:102530001F93CF93DF93CDB7DEB768970FB6F894AC
:10254000DEBF0FBECDBF90E0009709F045C080917F
:102550002409909125098230910580F1029799F123
:1025600084EF91E0A0E0B0E08093EF079093F00754
:10257000A093F107B093F2078093F3079093F407C9
:10258000A093F507B093F60788E992E19093F907D5
:102590008093F80781E08093F7078091FA078160C4
:1025A0008D7F8B7F8093FA0768960FB6F894DEBF15
:1025B0000FBECDBFDF91CF911F91089588E298E0C3
:1025C0000E94830ECDCF81E08093280861E0809146
:1025D00029080E948905C4CF019731F7E8E7F5E0A3
:1025E000DE01119688E096E040AD51AD62AD73AD6D
:1025F0004D935D936D937D9378968E179F07A1F70A
:1026000080912409909125098130910539F1029733
:1026100009F447C080918608882339F08DE798E057
:102620000E94B5098DE0809321088091D20888230B
:1026300059F189E798E00E947D0E8BE798E00E94AF
:102640007D0E8BE598E00E94A01182E698E00E9442
:10265000A01189EC98E00E94B50916C069817A81C1
:102660008B819C810E94812E81E080938608862F39
:1026700090E090938808809387088DE798E00E9407
:10268000D60985E10E94890E82E499E068960FB62A
:10269000F894DEBF0FBECDBFDF91CF911F910C9498
:1026A000EB118BE598E00E94F00D82E698E00E9425
:1026B000F00D11E010937A0861E0809179080E9492
:1026C000890510937C0861E080917B080E94890550
:1026D00069817A818B819C810E94812E1093D2081E
:1026E000862F90E09093D4088093D30889EC98E0EB
:1026F0000E94D60987E1C6CF1F93CF93DF93FC01D9
:102700002581222309F1EC018681811113C080818A
:10271000918111E0FC0114830E94A011CE010E945E
:10272000C811811113C01F831D8282E0DF91CF91F8
:102730001F9108958281938111E0FC0114830E940E
:10274000A0111D821F83F1CF80E0F0CF81E0EECF9A
:10275000CF93DF93EC01888199810E94A0118A8137
:102760009B810E94A0111D82DF91CF91089582E488
:1027700099E00E94A81384EF91E0A0E0B0E080937C
:10278000EF079093F007A093F107B093F2078093BF
:10279000F3079093F407A093F507B093F60788E941
:1027A00092E19093F9078093F8071092F707EAEF08
:1027B000F7E0808181608D7F8B7F80830895909189
:1027C0002108981302C080E00895953061F1A0F4CB
:1027D0009430C9F78B30B9F78BE080932108809152
:1027E000240990912509892B71F3109225091092E3
:1027F00024090E94B713E7CF963071F19B3019F787
:102800008430B9F08630F9F680932108809124094C
:10281000909125090197B9F281E090E09093250904
:1028200080932409E6CF8430A9F68093210881E0C3
:102830000895809321088091240990912509029799
:1028400041F082E090E090932509809324090E9452
:10285000B7130E945B02EBCF8B3009F0B4CF8DE74A
:1028600098E00E94B5098DE080932108ACCF1092CA
:102870002E078091600690916106009751F00297B3
:10288000A9F48BE00E94DF1310926106109260069B
:10289000089580916306811109C086E00E94DF13CC
:1028A00081E090E090936106809360060895109215
:1028B0003A0780916006909161068130910521F080
:1028C00058F0029791F008958BE00E94DF13109268
:1028D000610610926006089584E00E94DF1382E092
:1028E00090E090936106809360061092CA07089565
:1028F00080912208909123088330910571F1892BF2
:1029000061F18AE499E00E94A81384EF91E0A0E0CD
:10291000B0E08093FB079093FC07A093FD07B09372
:10292000FE078093FF0790930008A0930108B093DF
:10293000020885E692E190930508809304081092BE
:1029400003088091060881608D7F8B7F8093060845
:1029500010922308109222080895109223081092D2
:1029600022088AE499E00C94EB11CF93DF93EC01F9
:102970000E94A813E881F9811482EA81FB81148204
:102980001E821F82DF91CF9108951092200810922D
:102990001F081092FA07109206081092120882E49B
:1029A00099E00E94A8138AE499E00E94A81382E4A7
:1029B00099E00E94B5148AE499E00E94B51486E477
:1029C00098E00E94A0118DE498E00E94A01184E597
:1029D00098E00E94A0118BE598E00E94A01182E689
:1029E00098E00E94A01189E698E00E94A01180E77B
:1029F00098E00E94A01184E298E00E94830E86E293
:102A000098E00E94830E88E298E00E94830E87E798
:102A100098E00E947D0E89E798E00E947D0E8BE78A
:102A200098E00E947D0E8DE798E00E948B0989EC6A
:102A300098E00E948B09109222091092520710927E
:102A40005E07109282071092760710928E071092FE
:102A50006A0710929A0782E499E00E94B5148AE40A
:102A600099E00C94B514CF93C62F10923D061092A6
:102A70003C06109215091092B40888E492E00E9476
:102A8000C514809121088C50823010F010922108DA
:102A900080913E068E7F846080933E0610927D0575
:102AA00010927C05109285051092840510928D0578
:102AB00010928C0510929505109294051092E606DE
:102AC0001092F2061092FE0610920A071092160754
:102AD00010922E0710923A071092A6071092B20792
:102AE0001092DA061092BE071092CA07109263067F
:102AF000C11104C089E1CF910C94890ECF91089542
:102B00000E94590C90910804882321F094609093BE
:102B1000080408959B7F9093080480917805909114
:102B20007905029709F46AC088E795E00E945D0E76
:102B3000209178053091790591E02130310509F037
:102B400090E08091070481FD4CC02130310509F4EB
:102B500048C082608093070480915209813041F01F
:102B6000823059F482E499E00E947C13823029F487
:102B700060E088E592E00E94331580918005909195
:102B800081050297D9F180919D050E94F3059C0172
:102B900090939F0580939E056091A0057091A1057B
:102BA00041E06817790708F440E09091070492FD2E
:102BB0001FC062177307E0F4892F846080930704B5
:102BC00080915209813041F08230C1F48AE499E069
:102BD0000E947C13823091F460E08BE692E00C94CA
:102BE00033158091070490FB81F980930704C5CFCA
:102BF0008091070440FB82F98093070408950E94A6
:102C0000801585E40E94830420910804892B21F01B
:102C10002860209308040895277FFBCF1092BE07F9
:102C20001092F206909107049870811112C08CE105
:102C300009F08DE10E94890E109215091092B408D6
:102C400088E492E00E94C51460E090E080E00C947B
:102C50003315911112C01092200810921F088BE0BA
:102C6000809321080E94340280E00E9467038CE177
:102C70000E94890E8EE10C94890E60E090E080E065
:102C80000E9433158DE1F7CF60E080E892E00C946C
:102C9000331560E087E992E00C9433159EEF980FAE
:102CA000923008F063C010925E07833079F18BE5B3
:102CB00098E00E94F00D82E698E00E94F00D80EC12
:102CC00094EDA1E0B0E08093530790935407A09354
:102CD0005507B09356078093570790935807A093D2
:102CE0005907B0935A078EE496E190935D0780935D
:102CF0005C0783E080935B0780915E0781608D7F36
:102D00008B7F80935E0781E10C94890E8BE598E0C0
:102D10000E94A01182E698E00E94A01182E10E9428
:102D2000890E80E395E7A0E0B0E08093530790938D
:102D30005407A0935507B093560780935707909375
:102D40005807A0935907B0935A078EE496E19093E1
:102D50005D0780935C0784E080935B0780915E074A
:102D600081608D7F8B7F80935E07089560E088EAA5
:102D700092E00C9433158230A9F51092520786E444
:102D800098E00E94A0118AE499E00E94A81384E5CB
:102D900098E00E94F00D80E395E7A0E0B0E080931A
:102DA000470790934807A0934907B0934A07809339
:102DB0004B0790934C07A0934D07B0934E078BEBB6
:102DC00096E1909351078093500781E080934F07DD
:102DD0008091520781608D7F8B7F809352078EE0B8
:102DE0000C94890E60E087EB92E00C943315E7E0D9
:102DF000F4E080818D7F808360E086EC92E00C942B
:102E00003315E7E0F4E080818460808360E082EE47
:102E100092E00C94331510920A07909121089C308F
:102E200039F48FEF92E00E94C514109221080895A2
:102E30008093210888E10C94890E109216079091D6
:102E400021089D3039F4809321080E94340286E1E4
:102E50000C94890E9C3031F48BE093E00E94C514F1
:102E60001092210808958F929F92AF92BF92CF92B5
:102E7000DF92EF92FF920F931F93CF93DF93809196
:102E80001F0890912008019721F5E0912108E15059
:102E9000EB30C8F4F0E08827EF5AF84E8F4F0C94CF
:102EA0007A2D5C17BD17CB17D0176317D017D9171A
:102EB00001182A1838186C188DE498E00E94F00D5B
:102EC00087E00E94890E1092200810921F080E942D
:102ED0005B020E94590C9091080480FB92F9909338
:102EE000080485E40E94830421E0892B09F420E092
:102EF0008091080420FB83F98093080480913C06AC
:102F000090913D06009741F0C0912108029709F089
:102F1000E8C08C2F0E94A8028091070490910804B9
:102F2000A0910904B0910A04409191035091920339
:102F3000609193037091940384179507A607B707D0
:102F400059F021E020939003809391039093920392
:102F5000A0939303B093940360E083E397E1DF9140
:102F6000CF911F910F91FF90EF90DF90CF90BF9086
:102F7000AF909F908F900C94DB0380917008882312
:102F800021F080E798E00E94A01189E698E00E9475
:102F9000F00D89E096CF109225091092240993CF65
:102FA00010922509109224090E94B7130E947814E8
:102FB0008ACF8AE499E00E94A81384EF91E0A0E010
:102FC000B0E08093070890930808A0930908B09395
:102FD0000A0880930B0890930C08A0930D08B093F7
:102FE0000E0886E192E190931108809310081092E8
:102FF0000F088091120881608D7F8B7F809312086B
:1030000062CF86E498E00E94F00D80E69AEEA0E0A0
:10301000B0E080935F0790936007A0936107B0933F
:1030200062078093630790936407A0936507B0934A
:10303000660789E496E19093690780936807109288
:10304000670780916A0781608D7F8B7F80936A0715
:1030500083E137CF109215091092B40888E492E00A
:103060000E94C51484E598E00E94F00D8BE029CF02
:10307000109215091092B40888E492E00E94C514D9
:1030800080E798E00E94F00D8FE00E94890E80E4B6
:103090009CE9A0E0B0E08093530790935407A0937D
:1030A0005507B09356078093570790935807A093FE
:1030B0005907B0935A078EE496E190935D07809389
:1030C0005C0782E080935B0780915E0781608D7F63
:1030D0008B7F80935E07F7CE10922509109224090A
:1030E00065CF90916306992339F18091CA0780FDDD
:1030F00023C082FD21C040E355E760E070E04093CB
:10310000BF075093C0076093C1077093C2074093F5
:10311000C3075093C4076093C5077093C60724E4A0
:1031200036E13093C9072093C8071092C707816022
:103130008D7F8B7F8093CA078CEF8C0F833028F0B4
:10314000CB3019F0992309F4AAC0809160069091C0
:103150006106039709F4A3C0D0917808C63009F43A
:10316000B5C02091F4053091F5054091F6055091D8
:10317000F70560910C0670910D0680910E069091F6
:103180000F060E94032E87FFA1C0D11133C081E03A
:103190008093780861E0809177080E94890586E233
:1031A00098E00E94830E8AE499E00E94A81384EFBD
:1031B00091E0A0E0B0E08093FB079093FC07A09320
:1031C000FD07B093FE078093FF0790930008A0933C
:1031D0000108B093020885E692E190930508809378
:1031E0000408109203088091060881608D7F8B7F10
:1031F00080930608C090AC05D090AD05E090AE0578
:10320000F090AF058090B0059090B105A090B20508
:10321000B090B30520E030E040E85FE3C501B401C1
:103220000E94972DA70196010E94032E18160CF4F8
:103230005DC010922E07D0913A07D0FD30C0D2FD6C
:103240002EC00091600610916106F801EE0FFF1F7D
:10325000EE0FFF1FE05BF94F6081718182819381E6
:103260000E94812E60932F0770933007809331075F
:103270009093320760933307709334078093350738
:103280009093360787E594E1909339078093380748
:1032900000933707D160DD7FDB7FD0933A07C150C1
:1032A000CB3008F039CEEC2FF0E08827E55AF64E07
:1032B0008F4F0C947A2DBE19CA19D4192C1A2C1AB6
:1032C0002F1A321A871AD91A8C172F1ADD2309F4EC
:1032D00091CF87E798E00E947D0E81E080932608D9
:1032E00061E0809127080E94890584CF10923A07F7
:1032F00020E030E040E85FE3C501B4010E94962D74
:10330000A70196010E94622F87FD35C0D0912E073C
:10331000D0FDC5CFD2FDC3CF0091600610916106EC
:10332000F801EE0FFF1FEE0FFF1FE05BF94F60810A
:103330007181828193810E94812E60932307709313
:10334000240780932507909326076093270770939F
:1033500028078093290790932A0787E394E19093A5
:103360002D0780932C0700932B07D160DD7FDB7F37
:10337000D0932E0794CF10922E0791CF80E20E9417
:103380008304892B09F0C8CD60E086E193E00E94B8
:103390003315C2CD84E40E948304892B09F0BCCD8F
:1033A00060E084E293E0F3CF0E94590C909107040F
:1033B000882339F091609093070460E082E393E002
:1033C000E6CF9E7F909307048091780590917905D0
:1033D000029709F4A1CD88E795E00E945D0E8091E7
:1033E000780590917905019779F5809107048D7F93
:1033F000809307048091E60680FD8ECD82FD8CCD02
:10340000409144065091450670E060E04093DB0631
:103410005093DC066093DD067093DE064093DF0672
:103420005093E0066093E1067093E20627EF36E1E1
:103430003093E5062093E4061092E30681608D7FC9
:103440008B7F8093E60668CD8091070481FD64CD73
:1034500082608093070460CD0E94FF155DCD0E94BD
:1034600080155ACD0E94590C882359F060E087EBF3
:1034700092E00E94331580910804846080930804D0
:103480004BCD8091800590918105029709F444CD40
:1034900080E895E00E945D0E809180059091810505
:1034A000019769F580910704877F809307048091D5
:1034B000F20680FD31CD82FD2FCD48EE53E060E075
:1034C00070E04093E7065093E8066093E906709336
:1034D000EA064093EB065093EC066093ED0670937A
:1034E000EE0625ED38E03093F1062093F0061092B9
:1034F000EF0681608D7F8B7F8093F2060DCD109259
:10350000F2068091070483FD07CD8860A2CF80E298
:103510000E948304892B49F460E088E593E00E94CF
:10352000331580910704806894CF80919D050E9497
:10353000F30590939F0580939E052091A0053091FF
:10354000A1052817390778F5809107048B7F8093B0
:1035500007048091FE0680FDDFCC82FDDDCC40912A
:1035600048065091490670E060E04093F30650939E
:10357000F4066093F5067093F6064093F7065093B1
:10358000F8066093F9067093FA0621E037E130936C
:10359000FD062093FC061092FB0681608D7F8B7FD9
:1035A0008093FE06B9CC8091070482FDB5CC84607F
:1035B00050CF0E94590C882309F4AECC8091520759
:1035C00080FDAACC82FDA8CC84E598E00E94A011E1
:1035D00086E498E00E94F00D8AE499E00E94EB11E5
:1035E0008DE00E94890E80E395E7A0E0B0E0809333
:1035F000470790934807A0934907B0934A078093E1
:103600004B0790934C07A0934D07B0934E078BEB5D
:1036100096E1909351078093500782E080934F0783
:103620008091520781608D7F8B7F8093520774CC8D
:10363000FF920F931F93CF93DF93CDB7DEB7C4569E
:10364000D1090FB6F894DEBF0FBECDBFFC01F180EB
:103650004F2D50E08E010F5F1F4FBC01C8010E942B
:10366000D42F8091C6008091C6008091C1008F77D1
:103670008093C1008091C10088608093C100F801EF
:103680008E2F801B8F1588F481918093C6008091C6
:10369000C00086FFFCCF8091C00080648093C00092
:1036A0008091C6008091C600EBCFCC59DF4F0FB69A
:1036B000F894DEBF0FBECDBFDF91CF911F910F9168
:1036C000FF900C9485094F925F926F927F928F9238
:1036D0009F92AF92BF92CF92DF92EF92FF920F93A1
:1036E0001F93CF93DF93CDB7DEB7CB59D1400FB641
:1036F000F894DEBF0FBECDBF84E6E5E9F3E0DE015E
:10370000AB59BF4F01900D928A95E1F780E69AEE92
:10371000A0E0B0E08093130890931408A0931508DC
:10372000B09316088093170890931808A09319086F
:10373000B0931A088DED98E090931D0880931C08B3
:1037400010921B0880911E0883608B7F80931E0857
:10375000A896EFADA897E550E33308F08CC0F0E0F1
:103760008827EA54F44E8F4F0C947A2DCE203B1CC0
:10377000CB1C3B1C3B1C3B1C3B1C3B1C3B1C3B1C01
:103780003B1C3B1C3B1C671C891CB61CC01CD41C6E
:10379000531C3E1D821DE91B161E3B1C3B1C2F1E8D
:1037A000971EF31E1E1C221F4F1FD91F751F73204B
:1037B0003B1C3B1C3B1CA6203B1C3B1C3B1C3B1CE2
:1037C0003B1C3B1CDA20EA20F62052218A210423EC
:1037D000E91CA9962FADA997213009F4C2C1AB9677
:1037E0008FADAB97813009F4CAC1AD968FADAD975F
:1037F000813009F4C7C180E08093460990E0E091F0
:103800004209F091430996838583E0914409F09140
:10381000450996838583243009F4B7C1AB968FADF3
:10382000AB97843009F4FFC1AD968FADAD97E2E060
:10383000F0E0843009F4ABC180E0B4C1C09007046B
:10384000D0900804E0900904F0900A0461E2CE01EF
:1038500001960E941909CF82D886E986FA868BE004
:103860008A83CE0101960E940209CE0101960E9430
:10387000181B10929003C556DE4F0FB6F894DEBFAA
:103880000FBECDBFDF91CF911F910F91FF90EF90B1
:10389000DF90CF90BF90AF909F908F907F906F9070
:1038A0005F904F90089510920704109208041092B0
:1038B000090410920A0461E2CE0101960E941909DE
:1038C0001F82188619861A868BE08A83C3C1CE01AF
:1038D00087539F4F0E94AC0488E0FE01E753FF4FDF
:1038E000DE01A257BE4F01900D928A95E1F762E189
:1038F000CE0101960E9419098FE08A8388E0FE01BB
:10390000E257FE4FDE01179601900D928A95E1F77E
:10391000A1C1109207041092080410920904109299
:103920000A04A9969FADA9971092200810921F082B
:10393000909321089B3011F0973039F4AA968FADFF
:10394000AA978695837080935209AA968FADAA97FD
:1039500080FF0CC09B3051F48BE00E94A8028823AA
:1039600029F00E94340280E00E9467031091210830
:1039700064E1CE0101960E9419091F8388E0A5CF5A
:10398000809121080E94A802882329F00E94340215
:1039900080E00E946703CE0101960E947A09CE0161
:1039A00001960E94181B67CF809121088B3019F077
:1039B0008450833040F4109207041092080410924F
:1039C000090410920A0460E08DE793E00E94331529
:1039D000E2CF81E08093630681E090E090933D0622
:1039E00080933C06109215091092B408109220089A
:1039F00010921F081092FA071092060810921208EF
:103A000086E498E00E94A0118DE498E00E94A01145
:103A100084E598E00E94A01184E298E00E94830E61
:103A200086E298E00E94830E88E298E00E94830E6E
:103A300089E798E00E947D0E8BE798E00E947D0E5A
:103A40008DE798E00E948B0980913E0681608B7F14
:103A500080933E0680910C0690910D06A0910E0673
:103A6000B0910F068093B0059093B105A093B20575
:103A7000B093B3058AE10E94890E8DCFE5E6F0E0B0
:103A8000EC0FFD1F3396A8E7B5E085E690E08C0FBC
:103A90009D1F4B964191519161917191D8964D9393
:103AA0005D936D937C93DB9758968E179F0791F7E4
:103AB00088E1E5E6F0E0EC0FFD1F3396DE01A7504C
:103AC000BF4F01900D928A95E1F768E1CE01019612
:103AD0000E9419098FE18A8388E1FE01E750FF4FB8
:103AE000DE01179601900D928A95E1F7CE010196BD
:103AF0000E940209CE0101960E94181B88E10E94D3
:103B0000E108B9CEA8E7B5E0CE0187539F4F28E082
:103B100036E0182F092FD8964D915D916D917C91CB
:103B2000DB97FC014193519361937193CF015896B8
:103B30002A173B0781F788E1E12FF02FDE01AF5113
:103B4000BF4F01900D928A95E1F769E1CE01019690
:103B50000E9419098FE18A8388E1FE01EF51FF4F2E
:103B6000D1CEF0E0E0E0EE0FFF1F81E090E08C0F9F
:103B70009D1FE80FF91FE959FF4F81813DCEE1E01C
:103B8000F0E0F1CFE2E0F0E0EECFF0E0E0E0EE0FC9
:103B9000FF1F81E090E08C0F9D1FE80FF91FE9598E
:103BA000FF4F818180934E0990E0E0914A09F091A6
:103BB0004B0996838583E0914C09F0914D099683DA
:103BC0008583AE968FADAE97AA969FADAA97909338
:103BD00035098093360986E0E5E6F0E0EC0FFD1F3D
:103BE0003396DE01AA56BE4F01900D928A95E1F7F9
:103BF0006AE1CE0101960E9419098DE08A8386E070
:103C0000FE01EA56FE4FDE01179601900D928A954D
:103C1000E1F7CE0101960E940209CE0101960E94B1
:103C2000181B8AE16CCFE1E0F0E0B1CF10913509CB
:103C3000009136096BE1CE0101960E9419098DE0D1
:103C40008A8381E08F83188782E089871A8784E0DE
:103C50008B870C87CE0101960E940209A0CEAA96FE
:103C60008EAD9FADAA9790937F0580937E05AC960D
:103C70008EAD9FADAC979093870580938605AE96E9
:103C80008EAD9FADAE9790938F0580938E05E09695
:103C90008EAD9FADE0979093970580939605E29641
:103CA0008EAD9FADE29790939C0580939B05E49623
:103CB0008EAD9FADE4979093A1058093A005E69605
:103CC0008EAD9FADE6979093A6058093A505E896E7
:103CD0008EAD9FADE8979093AB058093AA0582E1E6
:103CE000E5E6F0E0EC0FFD1F3396DE01AB5CBE4F66
:103CF00001900D928A95E1F76EE1CE0101960E9446
:103D0000190989E18A8382E1FE01EB5CFE4FDE0145
:103D1000179601900D928A95E1F7CE0101960E94C7
:103D20000209CE0101960E94181B8EE1E8CE009197
:103D3000860510918705A0918E05B0918F05E091C1
:103D40009605F091970560919B0570919C054091B7
:103D5000A0055091A1052091A5053091A60580915F
:103D6000AA059091AB05E0907E05F0907F05CD5DB2
:103D7000DE4FF982E882C352D140CB5DDE4F19831A
:103D80000883C552D140C95DDE4FB983A883C752AD
:103D9000D140C75DDE4FF983E883C952D140C55D8C
:103DA000DE4F79836883CB52D140C35DDE4F5983A8
:103DB0004883CD52D140C15DDE4F39832883CF5235
:103DC000D140CF5CDE4F99838883C153D1406FE1EE
:103DD000CE0101960E94190989E18A8382E1FE01E0
:103DE000ED5DFE4F8FCDA8E7B5E0CE018F519F4F1F
:103DF00028E036E0182F092FD4964D915D916D91F2
:103E00007C91D797FC014193519361937193CF01BA
:103E100058962A173B0781F788E1E12FF02FDE0142
:103E2000A753BF4F01900D928A95E1F760E2CE0152
:103E300001960E9419098FE18A8388E1FE01E75308
:103E4000FF4F60CD05E610E00C0F1D1F0D5F1F4FEB
:103E5000C8010E940F0380E1F801DE01A95ABE4F9C
:103E600001900D928A95E1F762E2CE0101960E94DF
:103E7000190980E1FE01E95AFE4FDE011796019013
:103E80000D928A95E1F787E18A83CE0101960E941F
:103E90000209CE0101960E94181B82E230CE80E119
:103EA000E0E4F6E0DE01A753BF4F01900D928A9542
:103EB000E1F780E1FE01E753FF4FDE01A95BBE4F52
:103EC00001900D928A95E1F763E2CE0101960E947E
:103ED000190980E1FE01E95BFE4FDE0117960190B2
:103EE0000D928A95E1F787E1F0CC80907C05909067
:103EF0007D05A0908405B090850560908C0570903C
:103F00008D054090940550909505809198050E94EC
:103F1000F3056C0180919D050E94F3057C01809161
:103F2000A2050E94F3058C018091A7050E94F3056C
:103F3000CF5EDE4F99828882C151D140CD5EDE4F87
:103F4000B982A882C351D140CB5EDE4F79826882AC
:103F5000C551D140C95EDE4F59824882C751D14018
:103F6000C75EDE4FD982C882C951D140C55EDE4FDF
:103F7000F982E882CB51D140C35EDE4F19830883BA
:103F8000CD51D140C15EDE4F99838883CF51D1405E
:103F900065E2CE0101960E94190982E1FE01EF5E01
:103FA000FE4FDE01179601900D928A95E1F789E1A7
:103FB0008CCCA9968FADA997982F9F77923009F452
:103FC00065C070F59923B1F1913009F44BC080912F
:103FD0002A0890913808892B90913108892B90916B
:103FE0003F08892B80931509CE0187539F4F0E946C
:103FF000AC0488E0FE01E753FF4FDE01AA57BE4F35
:1040000001900D928A95E1F764E2CE0101960E943B
:1040100019098FE08A8388E0FE01EA57FE4F72CCCF
:10402000933009F447C0943091F687FF57C084E578
:1040300098E004C087FF05C08AE298E00E94A011C2
:10404000C6CF8AE298E00E94F00DBE016F5F7F4FFD
:104050008AE298E00E94830C6A818AE298E00E94DA
:104060008E0CB5CF87FF03C081E398E0E7CF81E3F3
:1040700098E00E94F00DBE016F5F7F4F81E398E0F2
:104080000E94830C6A8181E398E0E9CF87FF03C037
:1040900088E398E0D3CF88E398E00E94F00DBE015A
:1040A0006F5F7F4F88E398E00E94830C6A8188E30A
:1040B00098E0D5CF87FF03C08FE398E0BFCF8FE3B1
:1040C00098E00E94F00DBE016F5F7F4F8FE398E094
:1040D0000E94830C6A818FE398E0C1CF84E598E069
:1040E0000E94F00D74CF81E20E9483044C0180E2B3
:1040F0000E9483045C01F09074060091750685E4CB
:104100000E9483046C0184E40E9483049C0191E07A
:10411000892809F090E010E090FB10F991E0AB28BD
:1041200009F090E090FB11F991E0CD2809F090E0C2
:1041300090FB12F991E0232B09F090E090FB13F92A
:10414000F0FA14F900FB15F966E213CC8BE0E5E612
:10415000F0E0EC0FFD1F3396DE01AD58BE4F01902D
:104160000D928A95E1F76AE2CE0101960E94190943
:104170008BE0FE01ED58FE4FDE01179601900D9287
:104180008A95E1F782E18A83CE0101960E940209B5
:10419000CE0101960E94181B8AE2B1CC109207044E
:1041A000109208041092090410920A0461E08AE84F
:1041B00093E00CCC61E3CE0101960E9419098BE0DB
:1041C0008A8385E090E0A4E0B1E08F839887A98797
:1041D000BA8740CD62E3CE0101960E9419098BE0B7
:1041E0008A838EE095E3A0E0B0E0EFCFE4966CAD7B
:1041F0007DAD8EAD9FADE4970E94B02E6B017C012A
:10420000E0966CAD7DAD8EAD9FADE0970E94B02E77
:104210004B015C01AC966CAD7DAD8EAD9FADAC97A6
:104220000E94B02E60935006709351068093520600
:10423000909353068092540690925506A09256068B
:10424000B0925706C0925806D0925906E0925A068C
:10425000F0925B068CE0E5E6F0E0EC0FFD1F339694
:10426000DE01A959BE4F01900D928A95E1F763E3F3
:10427000CE0101960E94190983E18A838CE0FE0138
:10428000E959FE4FDE01179601900D928A95E1F7EC
:10429000CE0101960E940209CE0101960E94181BD0
:1042A00083E32DCC609158067091590680915A068F
:1042B00090915B060E94812E6B017C0160915406F7
:1042C0007091550680915606909157060E94812E56
:1042D0004B015C016091500670915106809152062D
:1042E000909153060E94812E2B013C0164E3CE0184
:1042F00001960E94190983E18A834F825886698654
:104300007A868B869C86AD86BE86CF86D88AE98AD9
:10431000FA8AA0CCA9961FADA997AA966FADAA97C5
:10432000AB965FADAB97AC964FADAC97AD963FAD4E
:10433000AD97AE962FADAE97AF969FADAF97E09687
:104340008FADE09719836A835B834C833D832E8313
:104350009F8388878AE298E015FF48C10E94F00D8C
:10436000BE0167537F4F88E398E00E94830CC653D9
:10437000DF4F6881CA5CD04088E398E00E948E0CD1
:1043800081E398E016FF35C10E94F00DBE0167532E
:104390007F4F81E398E00E94830CC653DF4F688112
:1043A000CA5CD04081E398E00E948E0C88E398E0DC
:1043B00017FF22C10E94F00DBE0167537F4F88E3B3
:1043C00098E00E94830CC653DF4F6881CA5CD040DE
:1043D00088E398E00E948E0C8A8180FF10C18FE3F1
:1043E00098E00E94F00DBE0167537F4F8FE398E085
:1043F0000E94830CC653DF4F6881CA5CD0408FE3B4
:1044000098E00E948E0C6981617085E30E948905A5
:104410006A8163FB662760F987E10E9489056A81EA
:1044200066FB662760F986E10E948905698162FB67
:10443000662760F98FE10E9489056A8167FB66271C
:1044400060F981E10E9489056981669561708BE15F
:104450000E9489056A8162FB662760F988E10E94F3
:1044600089056A816695617089E10E9489056A8182
:104470006295617080E10E9489056A8165FB66270B
:1044800060F98FE00E9489056B8161708EE00E9467
:1044900089056B81669561708DE00E9489056B814D
:1044A00062FB662760F98CE00E9489056B8167FBDF
:1044B000662760F985E20E9489056C81617084E25B
:1044C0000E9489056C816695617087E20E9489056A
:1044D0006C8162FB662760F986E20E9489056C8127
:1044E00063FB662760F989E20E9489056C81629509
:1044F000617088E20E9489056C8165FB662760F91E
:104500008BE20E9489056C8166FB662760F98AE26E
:104510000E9489056B8163FB662760F98CE20E942B
:1045200089056B81629561708EE20E9489056B81BD
:1045300065FB662760F98DE20E9489056B8166FB49
:10454000662760F98FE20E948905698163FB66270F
:1045500060F98DE10E9489056981629561708EE143
:104560000E948905C753DF4F1882C95CD040C653EB
:10457000DF4F1882CA5CD040C553DF4F1882CB5C36
:10458000D040C453DF4F1882CC5CD040C353DF4FC0
:104590001882CD5CD040C253DF4F1882CE5CD04031
:1045A000C153DF4F1882CF5CD040C053DF4F188219
:1045B000C05DD040CE0187539F4F0E94AC0488E07D
:1045C000FE01E753FF4FDE01A258BE4F01900D924E
:1045D0008A95E1F765E3CE0101960E9419098FE003
:1045E0008A8388E0FE01E258FE4F8CC90E94A01128
:1045F000C7CE0E94A011DACE0E94A011EDCE8FE3AB
:1046000098E00E94A011FFCECE0101960E947A0987
:10461000CE0101960E94181B1092AA066FE375E066
:104620008CEA95E00E94A7106AE175E084EC95E0C1
:104630000E94A71065EF74E08CED95E00E94A71032
:1046400060ED74E084EF95E00E94A7106BEA74E0DF
:104650008CE096E00E94A71066E874E084E296E0A1
:104660000E94A71080914E0690914F06B0E0A0E006
:1046700080939F069093A006A093A106B093A206F4
:104680008093A3069093A406A093A506B093A606D4
:1046900083E790E19093A9068093A8061092A7065D
:1046A0008091AA0683608B7F8093AA06E4C80C944D
:1046B000631BE5E9F3E084E6DF011D928A95E9F7E3
:1046C000109204040C9485091F920F920FB60F925A
:1046D00011242F933F938F939F93AF93BF93809118
:1046E000FC039091FD03A091FE03B091FF03309174
:1046F000FB0323E0230F2D3758F50196A11DB11DB3
:104700002093FB038093FC039093FD03A093FE038F
:10471000B093FF038091000490910104A0910204E2
:10472000B09103040196A11DB11D809300049093E4
:104730000104A0930204B0930304BF91AF919F9131
:104740008F913F912F910F900FBE0F901F90189552
:1047500026E8230F0296A11DB11DD2CF1F920F9202
:104760000FB60F9211240BB60F922F933F934F93D6
:104770005F936F937F938F939F93AF93BF93EF93C9
:10478000FF93E0911E02F0911F021995FF91EF91A6
:10479000BF91AF919F918F917F916F915F914F9159
:1047A0003F912F910F900BBE0F900FBE0F901F9057
:1047B00018951F920F920FB60F9211240BB60F92FD
:1047C0002F933F934F935F936F937F938F939F9319
:1047D000AF93BF93EF93FF93E0911C02F0911D0202
:1047E0001995FF91EF91BF91AF919F918F917F911B
:1047F0006F915F914F913F912F910F900BBE0F9052
:104800000FBE0F901F9018951F920F920FB60F9228
:1048100011240BB60F922F933F934F935F936F9397
:104820007F938F939F93AF93BF93EF93FF93E09109
:104830001202F09113021995FF91EF91BF91AF9180
:104840009F918F917F916F915F914F913F912F91A8
:104850000F900BBE0F900FBE0F901F9018951F92D8
:104860000F920FB60F9211240BB60F922F933F9316
:104870004F935F936F937F938F939F93AF93BF9368
:10488000EF93FF93E0911002F09111021995FF91BF
:10489000EF91BF91AF919F918F917F916F915F91B8
:1048A0004F913F912F910F900BBE0F900FBE0F9025
:1048B0001F9018951F920F920FB60F9211240BB6EE
:1048C0000F922F933F934F935F936F937F938F93A9
:1048D0009F93AF93BF93EF93FF93E0911A02F091F0
:1048E0001B021995FF91EF91BF91AF919F918F910D
:1048F0007F916F915F914F913F912F910F900BBEE0
:104900000F900FBE0F901F9018951F920F920FB629
:104910000F9211240BB60F922F933F934F935F93F7
:104920006F937F938F939F93AF93BF93EF93FF9377
:10493000E0911802F09119021995FF91EF91BF9142
:10494000AF919F918F917F916F915F914F913F9127
:104950002F910F900BBE0F900FBE0F901F901895C8
:104960001F920F920FB60F9211240BB60F922F9336
:104970003F934F935F936F937F938F939F93AF93E7
:10498000BF93EF93FF93E0911602F09117021995F0
:10499000FF91EF91BF91AF919F918F917F916F9117
:1049A0005F914F913F912F910F900BBE0F900FBED3
:1049B0000F901F9018951F920F920FB60F9211240F
:1049C0000BB60F922F933F934F935F936F937F9309
:1049D0008F939F93AF93BF93EF93FF93E091140254
:1049E000F09115021995FF91EF91BF91AF919F91B1
:1049F0008F917F916F915F914F913F912F910F9088
:104A00000BBE0F900FBE0F901F9018951F920F9224
:104A10000FB60F9211240BB60F922F933F934F9323
:104A20005F936F937F938F939F93AF93BF93CF9336
:104A3000EF93FF938091C10080688093C1008091C3
:104A4000C10088608093C100C091C6008091B60605
:104A50008E7F8093B60680910404843658F0E5E991
:104A6000F3E084E6DF011D928A95E9F710920404D1
:104A70000E948509E0910404E33020F080919603C0
:104A80008093060481E08E0F80930404F0E0EB56DF
:104A9000FC4FC0839091060489136BC090919503DD
:104AA000913009F05AC040EA5FE060E070E0409366
:104AB000B7065093B8066093B9067093BA06409350
:104AC000BB065093BC066093BD067093BE0629E5F5
:104AD00033E23093C1062093C0061092BF06909136
:104AE000C20693609B7F9093C20650E040E090E046
:104AF000BC0161507109252F30E0261737073CF4BF
:104B00002B563C4FF9012081420F5F5FF4CF8C564A
:104B10009C4FDC018C9160E048131CC087E593E258
:104B20000E94DB03109204040E948509FF91EF911B
:104B3000CF91BF91AF919F918F917F916F915F9135
:104B40004F913F912F910F900BBE0F900FBE0F9082
:104B50001F9018958CE599E0E3CFE5E9F3E084E652
:104B6000DF011D928A95E9F7109204040E948509DD
:104B7000D9CF8AE090E0A0E0B0E08093AB069093BC
:104B8000AC06A093AD06B093AE068093AF069093AB
:104B9000B006A093B106B093B20689E593E2909374
:104BA000B5068093B4061092B3068091B606816074
:104BB0008D7F8B7F8093B606B7CF1F920F920FB673
:104BC0000F9211240BB60F92FF920F931F932F9306
:104BD0003F934F935F936F937F938F939F93AF9385
:104BE000BF93CF93DF93EF93FF93CFE9D6E010E02D
:104BF00000E08CE0F82EF09EF001F19EF00D112403
:104C0000E655F94F808180FF23C08C819D81AE8164
:104C1000BF810197A109B1098C839D83AE83BF83B6
:104C2000892B8A2B8B2BA1F480818460808381FF68
:104C30002DC088819981AA81BB818C839D83AE839D
:104C4000BF8389859A85009719F068850E94DB03E8
:104C50000F5F1F4F2C960032110569F6FF91EF91FF
:104C6000DF91CF91BF91AF919F918F917F916F9184
:104C70005F914F913F912F911F910F91FF900F9056
:104C80000BBE0F900FBE0F901F9018958E7F8083E4
:104C9000D8CF1F920F920FB60F9211240BB60F921E
:104CA0002F933F934F935F936F937F938F939F9334
:104CB000AF93BF93EF93FF93F0E0E0E01995FF917E
:104CC000EF91BF91AF919F918F917F916F915F9184
:104CD0004F913F912F910F900BBE0F900FBE0F90F1
:104CE0001F9018951F920F920FB60F9211240BB6BA
:104CF0000F922F933F934F935F936F937F938F9375
:104D00009F93AF93BF93EF93FF93F0E0E0E019958B
:104D1000FF91EF91BF91AF919F918F917F916F9193
:104D20005F914F913F912F910F900BBE0F900FBE4F
:104D30000F901F901895FC0117821086108289E051
:104D4000838381E08483858386831182168A158A12
:104D50008FEF838B148A7287618708951F93CF9397
:104D6000DF93EC01162F60E0812F0E94B705612FC1
:104D700070E0FB01EC58FC4FE491E883FB01E25D3D
:104D8000FC4FE491F0E0EE0FFF1FEC5EFC4F8591CD
:104D900094919A8389831B861D861C861A861986A0
:104DA00018861F821E821D821C821B82DF91CF917A
:104DB0001F910895CF93DF93EC01862F49836A8377
:104DC0002B831C8220E830E03E832D83411103C0F9
:104DD00061E00E94B705CE01DF91CF910C94A01144
:104DE0004F925F926F927F928F929F92AF92BF92FB
:104DF000CF92DF92EF92FF920F931F93CF93DF93A7
:104E0000CDB7DEB72F970FB6F894DEBF0FBECDBF7C
:104E1000EFE9F6E08FE198E01082118212821382AE
:104E200014821582168217821086128611861386C6
:104E30003C968E179F0781F710928304109284048A
:104E400010928504F89480917A00806880937A00AB
:104E50007894F89480917A008E7F80937A00809184
:104E60007A00866080937A007894F89480917C0030
:104E70008F7780937C0080917C00806480937C009D
:104E800078946FE386E595E00E94AE2666E575E0CE
:104E90008FE395E00E949B266EE381E395E00E94FC
:104EA000AE2661E375E08AE195E00E949B2661E40D
:104EB0008CE095E00E94AE266CE075E085EF94E012
:104EC0000E949B2660E487EE94E00E94AE2667EE87
:104ED00074E080ED94E00E949B2663E482EC94E011
:104EE0000E94AE2662EC74E08BEA94E00E949B265E
:104EF00062E48DE994E00E94AE266DE974E086E8F4
:104F000094E00E949B2682E090E090937905809344
:104F1000780524E635E030937B0520937A0590935D
:104F200081058093800529E635E030938305209341
:104F3000820590938905809388052EE635E03093AD
:104F40008B0520938A05909391058093900583E7C4
:104F500095E0909393058093920588E3809398055C
:104F600010929A051092990584E190E090939C0527
:104F700080939B052BE320939D0510929F05109233
:104F80009E059093A1058093A0052AE32093A20596
:104F90001092A4051092A3059093A6058093A505F1
:104FA0002DE32093A7051092A9051092A8059093D0
:104FB000AB058093AA05ECEAF5E08CE396E023E0EC
:104FC00030E01082118212821382148215821682BE
:104FD0001782138A358B248B178A168A78968E1738
:104FE0009F0779F705E0009362061092630610921E
:104FF000640610926506109267061092660610927B
:105000006C0610926D0610926F0610926E0610924A
:10501000740610927506109276068AE090E09093DE
:1050200069068093680690936B0680936A068FE00A
:1050300090E090937106809370069093730680932E
:10504000720680E180933E0687E796E0909398068B
:105050008093970680E28093990610929A061092A8
:105060009B0610929C0610929E0610929D0610922E
:10507000200810921F081092210810922308109205
:10508000220885E38093250861E00E94B70584E249
:1050900098E00E94830E8FE18093270861E00E94D0
:1050A000B70586E298E00E94830E8BE18093290881
:1050B00061E00E94B70588E298E00E94830E11E04B
:1050C00010932B088AE080932C0810932D081092DF
:1050D0002E0880E8C82ED12CD0923008C0922F081C
:1050E0008AE298E00E94A011109332088BE080932E
:1050F000330882E08093340810923508D092370844
:10510000C092360881E398E00E94A01110933908FC
:1051100098E0E92EE0923A0824E0F22EF0923B0863
:1051200010923C08D0923E08C0923D0888E398E077
:105130000E94A0111093400889E0809341080093D9
:10514000420810924308D0924508C09244088FE369
:1051500098E00E94A01123E040E069E186E498E035
:105160000E94DA2626E040E068E18DE498E00E94A3
:10517000DA2627E040E067E184E598E00E94DA263D
:1051800028E040E060E18BE598E00E94DA2629E023
:1051900040E06FE082E698E00E94DA262AE040E0F4
:1051A00066E189E698E00E94DA262BE040E061E1C2
:1051B00080E798E00E94DA268EE0809377081092CC
:1051C000780861E00E94B70587E798E00E947D0EAD
:1051D0008DE08093790810927A0861E00E94B7050B
:1051E00089E798E00E947D0E8CE080937B08109206
:1051F0007C0861E00E94B7058BE798E00E947D0E75
:105200002AE332E030937E0820937D0884E492E024
:105210009093800880937F08F09281088BE097E05C
:1052200090938308809382088DE197E1909385089D
:10523000809384081092860810928808109287083C
:1052400010928A081092890810928C0810928B088C
:105250001092990810929A0810929B0810929C083C
:105260001092A5081092A6081092A8081092A708FC
:105270001092AC081092AB081092AD081092AE08D4
:105280001092AF081092B0084DEC5CEC6CEC7DE332
:105290004093A1085093A2086093A3087093A408B8
:1052A000E4E64E2E512C612C712C40929D085092B8
:1052B0009E0860929F087092A008812C912CF0EAC1
:1052C000AF2EF0E4BF2E80928D0890928E08A092AF
:1052D0008F08B092900880E090E0A0E4B0E4809362
:1052E000910890939208A0939308B09394088093A8
:1052F000950890939608A0939708B09398081092F9
:10530000B408F092BC081092BD081092C608109222
:10531000BE081092BF081092C0081092C1081092E7
:10532000C2081092C3081092C4081092C5081092C7
:10533000C7081092C808E4E0F0E0F093AA08E093F0
:10534000A9083093CA082093C9082CE332E03093AF
:10535000CC082093CB08E092CD082FEF36E03093B5
:10536000CF082093CE082BE037E13093D10820936B
:10537000D0081092D2081092D4081092D30810923C
:10538000D6081092D5081092D8081092D70810921B
:10539000E5081092E6081092E7081092E8081092CB
:1053A000F1081092F4081092F3081092F808109285
:1053B000F7081092F9081092FA081092FB08109260
:1053C000FC084093ED085093EE086093EF0870934B
:1053D000F0084092E9085092EA086092EB08709257
:1053E000EC088092D9089092DA08A092DB08B0927B
:1053F000DC088093DD089093DE08A093DF08B0936B
:10540000E0088093E1089093E208A093E308B0934A
:10541000E40810920009F09208091092090910920C
:10542000120910920A0910920B0910920C0910929D
:105430000D0910920E0910920F0910921009109286
:10544000110910921309109214091093F20888E0C0
:1054500090E09093F6088093F5081092150919864C
:1054600086E489838A8398EC9B839CED9C838D835F
:105470008E830F839EE198870A879B872EEE32E00A
:105480003D872C8722E330E03F872E879FE0FE0197
:105490003196A6E2B9E001900D929A95E1F710924B
:1054A0003709109239091092380910923B0910926D
:1054B0003A0910923C0910923D0910923E0910924F
:1054C000400910923F091092410980933509809359
:1054D00036098AE298E0909343098093420981E378
:1054E00098E0909345098093440910E81093460989
:1054F0001092470910924809109249098AE298E0EF
:105500000E94A01180914409909145090E94A01128
:1055100088E398E090934B0980934A098FE398E0E1
:1055200090934D0980934C0910934E0910924F09A6
:10553000109250091092510988E398E00E94A0113E
:1055400080914C0990914D090E94A011109252092E
:105550002F960FB6F894DEBF0FBECDBFDF91CF916F
:105560001F910F91FF90EF90DF90CF90BF90AF9081
:105570009F908F907F906F905F904F900895789458
:1055800084B5826084BD84B5816084BD85B5826048
:1055900085BD85B5816085BD80916E0081608093F9
:1055A0006E00109281008091810082608093810062
:1055B0008091810081608093810080918000816072
:1055C000809380008091B10084608093B1008091CD
:1055D000B00081608093B0008091910082608093E0
:1055E0009100809191008160809391008091900062
:1055F0008160809390008091A10082608093A100DF
:105600008091A10081608093A1008091A0008160C1
:105610008093A0008091210182608093210180917C
:10562000210181608093210180912001816080931C
:10563000200180917A00846080937A0080917A00C2
:10564000826080937A0080917A00816080937A00F2
:1056500080917A00806880937A001092C10061E0A6
:105660008DE10E94B70560E08DE10E94890561E04F
:105670008EE10E94B70560E08EE10E9489052FEF60
:1056800083ED90E3215080409040E1F700C000009E
:105690001092C1001092C00086E08093C200109268
:1056A000C50087E68093C40088E98093C1000E940A
:1056B0008509809120018C7F8093200189E180936E
:1056C00021018FE79EE3909327018093260180912B
:1056D000210187708093FA03809173008260809328
:1056E00073008DE798E00E942E0C89EC98E00E94F0
:1056F0002E0C80ED97E0A0E0B0E08093D707909368
:10570000D807A093D907B093DA078093DB0790936B
:10571000DC07A093DD07B093DE0786E29CE0909360
:10572000E1078093E0071092DF078091E207836032
:105730008B7F8093E20710923F0680914E069091F6
:105740004F06892B31F488EE93E090934F068093B7
:105750004E0680914E0690914F06B0E0A0E08093F7
:105760009F069093A006A093A106B093A2068093F3
:10577000A3069093A406A093A506B093A60683E77C
:1057800090E19093A9068093A8061092A7068091B5
:10579000AA0683608B7F8093AA0662E082E10E9462
:1057A000B70562E083E10E94B70562E081E20E94F2
:1057B000B70562E080E20E94B70562E085E40E94DE
:1057C000B70562E084E40E94B70562E083E20E94CC
:1057D000B70562E082E20E94B7056FE375E08CEAEC
:1057E00095E00E94A7106AE175E084EC95E00E94C4
:1057F000A71065EF74E08CED95E00E94A71060EDB6
:1058000074E084EF95E00E94A7106BEA74E08CE0EE
:1058100096E00E94A71066E874E084E296E00E9499
:10582000A71048E756E062E180917A0590917B05E8
:105830000E94020E40E856E063E18091820590915B
:1058400083050E94020EC4E1D0E0D0937F05C0938F
:105850007E05D0938705C093860548E856E062E050
:1058600080918A0590918B050E94020E40E956E0D6
:1058700063E080919205909193050E94020ED0936F
:105880008F05C0938E05D0939705C093960588EE3B
:1058900093E0A0E0B0E08093C3069093C406A09389
:1058A000C506B093C6068093C7069093C806A0931A
:1058B000C906B093CA0682EA98E09093CD06809319
:1058C000CC061092CB068091CE0683608B7F8093AE
:1058D000CE06D0939C05C0939B05D093A105C093A1
:1058E000A005D093A605C093A50580914C06909184
:1058F0004D06892B31F484E690E090934D06809319
:105900004C0680914C0690914D06B0E0A0E080934B
:10591000170790931807A0931907B0931A0780935D
:105920001B0790931C07A0931D07B0931E078EE4DE
:105930009BE0909321078093200710921F0780918E
:10594000220783608B7F8093220784E1C82ED12CAD
:10595000E12CF12CC092CB07D092CC07E092CD077E
:10596000F092CE07C092CF07D092D007E092D10735
:10597000F092D20782E79DE09093D5078093D407F9
:105980001092D3078091D60783608B7F8093D607D0
:1059900080913E06846080933E0680E292E00E9401
:1059A0000F0360E083E397E10E94DB0380E69AEE59
:1059B000A0E0B0E08093130890931408A09315081A
:1059C000B09316088093170890931808A0931908AD
:1059D000B0931A088DED98E090931D0880931C08F1
:1059E00010921B0880911E0883608B7F80931E0895
:1059F000C0923B07D0923C07E0923D07F0923E07F1
:105A0000C0923F07D0924007E0924107F0924207D0
:105A100088E696E0909345078093440710924307E9
:105A20008091460783608B7F8093460793E0F92E31
:105A3000C0E0D0E09091830480918404981324C046
:105A400080918504882329F19FB7F894E09183041D
:105A500080918404E81719F181E08E0F809383040C
:105A6000EF9DF0011124E55FFB4F00811181B280B1
:105A7000883211F4109283049FBF0115110549F07B
:105A80008B2DF801199505C09817F0F2885D8913E0
:105A9000DBCFA895209771F20E940000CBCF8091B8
:105AA0008504882349F381E08E0F80938304EF9D62
:105AB000F0011124E55FFB4F00811181B280883233
:105AC00011F41092830410928504D6CF97FB072E11
:105AD00016F4009407D077FD09D00E94822D07FCB0
