:100000000C94F9010C9469240C943E240C94132450
:100010000C94E8230C94BD230C9492230C94672336
:100020000C943C230C942A020C942A020C942A026D
:100030000C942A020C942A020C942A020C942A0290
:100040000C942A020C942A020C942A020C942A0280
:100050000C942A020C942A020C942A020C94F22288
:100060000C942A020C9494240C942A020C942A02D4
:100070000C94D7250C9400260C942A020C942A0286
:100080000C942A020C942A020C942A020C942A0240
:100090000C942A020C942A020C942A020C942A0230
:1000A0000C942A020C942A020C942A020C942A0220
:1000B0000C942A020C942A020C942A020C946B25AC
:1000C0000C942A020C942A020C942A020C942A0200
:1000D0000C942A020C942A020C942A020C942A02F0
:1000E0000C942A020C94CC1B0C948B060C94922238
:1000F0000C9444170C94CC1C0C945F040C94892031
:100100000C943E0D0C94E5220C94E30C0C94E41634
:100110000C9422200C9459040C9463040C94401FFA
:100120000C947E110C942A0C0C9401210C9427162B
:100130000C94250D0C94070D0C9439210C94B519D1
:100140000C945F110C94AC170C94BA170C94DF113B
:100150000C943D040C94D90C0C9435100C94E722AB
:100160000C94901F0C948C1A0C9455040C94221629
:100170000C941F1A0C9447040C9443040C946412BE
:100180000C94CB0C0C945E040C94D0160C94992017
:100190000C9424040C944D180C94A31C0C941E1E57
:1001A0000C9495080C944B040C940C170C94181494
:1001B0000C94660D0C94B0080C9419180C94B1179B
:1001C0000C9494160C945C0D0C9483060C94480DBE
:1001D0000C94A5200C94711D0C94FF0C0C94340D00
:1001E0000C94051E0C9455200C9439040C941D1687
:1001F0000C94E2170C94520B0C94F70C0C942C04F6
:100200000C948B260C94DE1A0C9433040C94251A4F
:100210000C944A1C0C947D200C946B0D0C941E04C1
:100220000C94DD080C941A1F0C941B0D0C946C1C80
:100230000C94221A0C94DA160C940B180C94BE1E13
:100240000C94F8130C94F6160C9451040C94600959
:100250000C94AE1C0C94991C0C94D40C0C94520D60
:100260000C94E7150C94AB190C94361C0C942D1DB2
:100270000C949E170C94ED1E0C946D170C94EB0BC4
:100280000C9435170C94B71C0C94761E0C941E1C01
:100290000C94110D0C947B060C9428040C942D12D4
:1002A0000C949F190C94011C0C9430040C94ED0CCC
:1002B000005EBCE2613FDD83C29C7E20A3FD1F4146
:1002C000009D23BE46DB65F88C11AF32CA57E97436
:1002D00000002100240027002A002D0030003300F8
:1002E00001010000040107010A01000022002500AD
:1002F00028002B002E00310034000201000005010F
:1003000008010B01000020002300260029002C001A
:100310002F0032000001000003010601090105055C
:100320000505070508080808020202020A0A08086B
:100330000404040401010101010101010303030399
:1003400003030303040707070C0C0C0C0C0C0C0C28
:100350000202020206060606060606060B0B0B0B39
:100360000B0B0B0B0102102020080810204010205E
:100370004080020102010804020101020408102069
:100380004080804020100804020180040201804067
:1003900020100804020108040201010204081020D0
:1003A0004080010204081020408000000A0B02096E
:1003B0000C0D0E08070304010000000000000000FF
:1003C000000000000000000000000000000000002D
:1003D00000000000000012111000000000000000EA
:1003E000000000000000000000000000000000000D
:1003F0008B2611241FBECFEFD1E2DEBFCDBF00E0C0
:100400000CBF13E0A0E0B2E0E2E0FEE500E00BBFCD
:1004100002C007900D92A439B107D9F729E0A4E9E9
:10042000B3E001C01D92A332B207E1F711E0C9EFBA
:10043000D1E000E006C021970109802FFE010E9453
:100440009C2CC83FD10780E00807A9F70E94442AE6
:100450000C94FF2E0C9400008091E707882311F183
:1004600081E090E09093E6078093E50710920709FA
:10047000109209091092080910920D0910920B09A7
:1004800010920A0910920C098091FA0880930509CC
:100490008091FB08809306091092100910920F09B1
:1004A000109211090895E1E7F5E015821482A1E7A1
:1004B000B6E04CE251E060E070E0D0964D935D9381
:1004C0006D937C93D397D4964D935D936D937C936A
:1004D000D79780EB98E0DA969C938E93D997D8962D
:1004E0001C92ACEAB6E08C9181608D7F8B7F8C93FF
:1004F00082E090E091838083A281B38114961C9264
:100500001E92139791878087158614860284F3853F
:10051000E02D1482138208959CEF980F933018F009
:100520008B3009F05EC080914506811104C0809136
:100530004606882341F0109284078091780780FF57
:100540002CC080E00895109278079091840790FD68
:10055000F8CF92FDF6CF48EE53E060E070E04093B4
:10056000790750937A0760937B0770937C074093D9
:100570007D0750937E0760937F07709380072EE777
:1005800031E13093830720938207109281079160B5
:100590009D7F9B7F90938407089582FDD2CF48EE84
:1005A00053E060E070E040936D0750936E076093F6
:1005B0006F077093700740937107509372076093B1
:1005C0007307709374072FE531E130937707209319
:1005D00076071092750781608D7F8B7F80937807F7
:1005E000B0CF81E00895FC0190E1A1E1B6E0019077
:1005F0000D929A95E1F780911D0690911E06B0E04C
:10060000A0E0E1E7F6E08093E9069093EA06A09384
:10061000EB06B093EC068093ED069093EE06A09364
:10062000EF06B093F00682E59BE09093F30680938B
:10063000F2061092F106A4EFB6E08C9183608B7FF6
:100640008C9380911F0690912006B0E0A0E08083FB
:100650009183A283B38384839583A683B78385E341
:1006600090E1928781871086ECE7F6E080818360D5
:100670008B7F808381E196E09093E7088093E60882
:1006800084E690E09093CE088093CD089093820802
:1006900080938108089521E030E030930E06209386
:1006A0000D0690910F0691609B7F90930F064CE290
:1006B00051E060E070E04093A1065093A206609381
:1006C000A3067093A4064093A5065093A6066093D4
:1006D000A7067093A80640EB58E05093AB064093F2
:1006E000AA061092A9069091AC0691609D7F9B7F0F
:1006F0009093AC069091E7079B3029F41092320654
:10070000109231060895963029F4309332062093E2
:10071000310608952CEF290F223038F482E090E062
:1007200090933206809331060895973029F54091D1
:1007300017065091180670E060E0409385075093CB
:1007400086076093870770938807409389075093C3
:100750008A0760938B0770938C0727EE35E13093FF
:100760008F0720938E0780938D078091900781607B
:100770008D7F8B7F8093900783E090E0D1CF9C01A9
:100780004FB7F89480918804E091870481111CC0D0
:1007900081E08E0F8093870493E0E99FF00111249C
:1007A000E25FFB4F318320836283883211F4109221
:1007B00087049091870480918604981303C081E098
:1007C000809388044FBF0895909186049F5F98326C
:1007D000A1F09093860491E09E0F9093870483E0AC
:1007E000E89FF0011124E25FFB4F31832083628395
:1007F000983241F710928704E5CF10928604EBCF30
:100800008150823108F05AC0E82FF0E08827E45F79
:10081000FB4F8F4F0C949C2C2C0430041E0424049A
:1008200028045E04330439043D04430447044B04A4
:10083000510455045E0459045F04630480918000F0
:100840008F77809380000895809180008F7DF9CF0D
:1008500080918000877FF5CF84B58F7784BD089520
:1008600084B58F7DFBCF8091B0008F778093B000EF
:1008700008958091B0008F7DF9CF809190008F779F
:10088000809390000895809190008F7DF9CF8091A2
:100890009000877FF5CF8091A0008F778093A00094
:1008A00008958091A0008F7DF9CF8091A000877F6F
:1008B000F5CF809120018F7780932001089580915A
:1008C00020018F7DF9CF80912001877FF5CFCF93D5
:1008D000DF93282F30E0F901E655FC4F8491F901B0
:1008E000EC59FC4FD491F901E25EFC4FC491CC234A
:1008F000A1F081110E940004EC2FF0E0EE0FFF1F29
:10090000EC5FFC4FA591B491EC91ED2381E090E078
:1009100009F480E0DF91CF91089580E090E0FACF74
:10092000CF93DF93EC01188219821A821B821C82FA
:100930001D821E821F828EE00E9467049C8180FBC4
:1009400093F99C838DE00E9467049C8180FB94F95D
:100950009C838CE00E9467049C8180FB95F99C83BA
:10096000E5EEF7E08B81958990FB80F9948D90FB03
:1009700081F993A190FB82F992A590FB83F98B8377
:1009800089E10E9467049B8180FB94F99B8388E145
:100990000E9467049B8180FB95F99B8387E10E94FD
:1009A00067049B8180FB96F99B8380E10E9467042A
:1009B0009B8180FB97F99B838FE00E9467049C8159
:1009C00080FB90F99C8386E10E9467049C8180FBF8
:1009D00091F99C8381E10E9467049C8180FB92F9DC
:1009E0009C838CE20E946704998180FB90F9998333
:1009F0008EE20E946704998180FB91F999838DE2D0
:100A00000E946704998180FB92F999838FE20E948A
:100A10006704998180FB93F9998381E30E946704BD
:100A2000998180FB94F9998380E30E9467049981FE
:100A300080FB95F9998383E30E946704998180FB89
:100A400096F9998382E30E946704998180FB97F964
:100A5000998385E20E9467049A8180FB90F99A83CA
:100A600084E20E9467049A8180FB91F99A8387E26D
:100A70000E9467049A8180FB92F99A8386E20E9421
:100A800067049A8180FB93F99A8389E20E94670444
:100A90009A8180FB94F99A8388E20E9467049A8184
:100AA00080FB95F99A838BE20E9467049A8180FB10
:100AB00096F99A838AE20E9467049A8180FB97F9EB
:100AC0009A8384E30E946704988180FB91F998835C
:100AD00085E30E946704988180FB90F998838EE1FA
:100AE0000E946704988180FB93F998838FE10E94AC
:100AF0006704988180FB92F998838CE10E946704D7
:100B0000988180FB95F998838DE10E946704988114
:100B100080FB94F998838AE10E946704988180FBA6
:100B200097F998838BE10E946704988180FB96F97E
:100B30009883DF91CF9108951F93CF93DF93282F50
:100B400030E0F901E655FC4F8491F901EC59FC4F76
:100B5000D491F901E25EFC4FC491CC23A9F0162F89
:100B600081110E940004EC2FF0E0EE0FFF1FE65110
:100B7000FD4FA591B4918FB7F894EC91111108C075
:100B8000D095DE23DC938FBFDF91CF911F91089525
:100B9000DE2BF8CFCF93DF9390E0FC01EC59FC4FB4
:100BA0002491825E9C4FFC0184918823C9F090E0DF
:100BB000880F991FFC01E053FD4FA591B491FC01F2
:100BC000E651FD4FC591D49161110DC09FB7F894C6
:100BD0008C91209582238C938881282328839FBF22
:100BE000DF91CF910895623051F49FB7F8943C9112
:100BF000822F809583238C93E8812E2BEFCF8FB7A4
:100C0000F894EC912E2B2C938FBFEACF863308F00B
:100C1000865320917B00982F9870277F922B90937A
:100C20007B008770806480937C0080917A00806470
:100C300080937A0080917A0086FDFCCF80917800C5
:100C40009091790008953FB7F894809103049091B2
:100C50000404A0910504B091060426B5A89B05C024
:100C60002F3F19F00196A11DB11D3FBFBA2FA92F2B
:100C7000982F8827BC01CD01620F711D811D911D28
:100C800042E0660F771F881F991F4A95D1F7089594
:100C90008F929F92AF92BF92CF92DF92EF92FF928C
:100CA0006B017C010E9423064B015C01C114D1043D
:100CB000E104F104B9F00E942306681979098A0950
:100CC0009B09683E73408105910580F321E0C21ABB
:100CD000D108E108F10888EE880E83E0981EA11C77
:100CE000B11CE4CFFF90EF90DF90CF90BF90AF901A
:100CF0009F908F900895E7E6F5E0838194810196B7
:100D0000948383830895E7E6F5E0808591850196D5
:100D10009187808708950895DC0180E0615090F00C
:100D20009D919827E92FEF70F0E0E055FD4F249159
:100D3000E92FE295EF70F0E0E054FD4FE491822F4F
:100D40008E27ECCF0895DC012C911196ED91FC914A
:100D5000F8948181822B81839281322F3095932365
:100D6000928387E090E00197F1F78181832381836B
:100D700083E290E00197F1F790817894EFECF0E056
:100D80003197F1F7922381E009F480E00895FC01A6
:100D900090810180F281E02D292F209560FF14C001
:100DA000F8948281822382838181892B8183A3E2CB
:100DB000B0E01197F1F78281982B9283789487EDB8
:100DC00090E00197F1F70895F8948281822382835D
:100DD0008181892B8183AFEFB0E01197F1F7828198
:100DE000982B928378948FE090E0EBCFDF92EF9294
:100DF000FF920F931F93CF93DF93EC01D62EE42E37
:100E000008E010E0FF24F39461E08D2D8F2109F4B8
:100E100060E0CE010E94C706FF0C01501109A1F746
:100E2000E11010C0F894E981FA8191818881809560
:100E300089238183E981FA81928188818095892340
:100E400082837894DF91CF911F910F91FF90EF9063
:100E5000DF900895EF92FF920F931F93CF93DF934C
:100E60008C017B0140E065E50E94F606E70188E021
:100E7000E80EF11C699140E0C8010E94F606CE150B
:100E8000DF05C1F7DF91CF911F910F91FF90EF9098
:100E90000895FC0190810180F281E02DF894818118
:100EA000292F20958223818378943DE743E050E009
:100EB000315029F1DA011197F1F780818923C1F3CB
:100EC000F8948281822382838181892B8183789423
:100ED000ABE7B7E01197F1F7F89481818223818322
:100EE000A3E1B1E01197F1F78081982381E009F047
:100EF00080E07894E3E6F6E03197F1F7089580E03A
:100F000008958F929F92AF92BF92CF92DF92EF920D
:100F1000FF920F931F93CF93DF9300D01F921F92E6
:100F2000CDB7DEB78C01DC0119968D919C910E94A2
:100F3000490740E06CECF801818592850E94F60635
:100F4000D8014C9164E419968D919C910E94F6060B
:100F50008FB7F894C090FF03D0900004E090010494
:100F6000F09002048FBFF8018481811120C081E0DC
:100F70008983CA82DB82EC82FD8229813A814B819E
:100F80005C816D8170E080E090E00F900F900F9099
:100F90000F900F90DF91CF911F910F91FF90EF90E5
:100FA000DF90CF90BF90AF909F908F9008958581F4
:100FB0008823F9F0808181111CC0F8018185928518
:100FC0000E94A306813099F22FB7F8948091FF0315
:100FD00090910004A0910104B09102042FBF8C19DC
:100FE0009D09AE09BF098E3E9240A105B10528F3C7
:100FF000BECFD8011396EC91E9508EEE92E0E3302B
:1010000038F4F0E0EE0FFF1FE05DFD4F808191812D
:101010004C01B12CA12CF8018181882321F060E0E2
:1010200082810E949C05C501B4010E944806D80136
:1010300011968C911197882309F499CF61E012964B
:101040008C910E949C0593CF4F925F926F927F92FA
:101050008F929F92AF92BF92CF92DF92EF92FF92C8
:101060000F931F93CF93DF938C017B01EA01FC0167
:10107000818592850E9449078823D9F1B701F8013B
:10108000818592850E942A0740E06EEBF8018185F8
:1010900092850E94F6066E015E01F9E0AF0EB11C6A
:1010A0007E01F8018184928488E0682E712C512C95
:1010B00044244394C4010E94A30681115428440C83
:1010C000F1E06F1A7108B1F7F70151927F01AE1686
:1010D000BF0639F7F801818592850E944907813062
:1010E00041F4F60181916F01811105C0EE15FF05F4
:1010F000C1F790E008C068E0CE010E948C0691E044
:1011000028852813F6CF892FDF91CF911F910F915A
:10111000FF90EF90DF90CF90BF90AF909F908F9017
:101120007F906F905F904F900895E1E7F5E0A28186
:10113000B38113968D919C91149714961C921E92D4
:10114000139795838483A285B38513968D919C9183
:10115000149714961C921E9213979587848708956E
:1011600020917505309176058091770590917805ED
:1011700028173907C0F081E090E0909372058093C2
:10118000710520917D0530917E0580917F059091BC
:1011900080052817390760F081E090E090937A0588
:1011A0008093790508951092720510927105E9CF28
:1011B00010927A051092790508951092C406EAE01B
:1011C000F4E08081877F80830895CF93DF93A0E050
:1011D000B2E0FD0190E0219131912817390721F407
:1011E000EF0122971982188222E0E031F20799F785
:1011F0008D919D91892B41F482E0A031B807C1F710
:1012000081E0DF91CF91089580E0FBCFFC01218147
:101210002150330B70E060E0472F50E04217530736
:101220003CF4480F591FFA014081640F7F5FF4CFEF
:10123000820F931FFC0160830895FC0181E080838D
:10124000658385E0828380910F06A0E0B2E020E113
:1012500032E04D915D91452BE1F42A173B07C9F728
:1012600091E08F7E90FF80619091940390FB81F9D3
:101270008383F89490916E0680916D0691110BC056
:1012800090916C06981307C07894148287E081834C
:10129000089590E0E6CF90E0A0916906B0916A06CB
:1012A000A80FB91F2C91019660916B0670E00E9407
:1012B000882C80936D0610926E0678942483E6CF76
:1012C000CF93DF93CDB7DEB7C456D1090FB6F894EC
:1012D000DEBF0FBECDBF66E0CE0101960E941D09A4
:1012E000CE0101960E940609CC59DF4F0FB6F89443
:1012F000DEBF0FBECDBFDF91CF910895CF93DF93B7
:10130000EC0167E00E941D09CE01DF91CF910C94A2
:101310000609E1ECF0E080818068808308951F93E6
:10132000CF93DF93EC0119861EAAFC01E05CFF4F0E
:1013300010829FAD319680E0981719F011928F5F5F
:10134000FBCFFE01E55BFF4F10823197108210E06A
:101350008FAD181750F4EA81FB81E10FF11D60E0B9
:1013600080810E949C051F5FF3CFDF91CF911F9179
:101370000895CF93DF93EC010E948F09ED81FE81E8
:101380002F8138858CA99DA9B0E0A0E0808391834E
:10139000A283B38384839583A683B783328721870F
:1013A0008BE08087838581608D7F8B7F8387DF9152
:1013B000CF9108953F924F925F926F927F928F925A
:1013C0009F92AF92BF92CF92DF92EF92FF920F93D4
:1013D0001F93CF93DF9300D000D0CDB7DEB79E83AD
:1013E0008D83062F10E08FB7F894C090FF03D09044
:1013F0000004E0900104F09002048FBFED81FE81B3
:1014000080A991A9A2A9B3A9C81AD90AEA0AFB0A14
:10141000C701B6010E94D22D20E030E04AE754E433
:101420000E942A2DAD81BE8194966D937D938D93FC
:101430009C939797FD01C0A2D1A2E2A2F3A22FB77D
:10144000F8948091FF0390910004A0910104B09161
:1014500002042FBFED81FE8180AB91ABA2ABB3AB99
:101460001587048762857385601B710BE6A4F7A45A
:10147000E01AF10A17A706A781A5882331F0719514
:1014800061957109F194E194F108AD81BE8198965E
:101490003C90072E000C880B990B0E94D42D4B0119
:1014A0005C0110E000E031100BC0ED81FE8120896D
:1014B0003189428953890E94892E0E949C2D8B017B
:1014C000B701FF0C880B990B0E94D42D6B017C0196
:1014D000AD81BE8194968D919D910D90BC91A02D72
:1014E00089839A83AB83BC83ED81FE81208D318D0E
:1014F000428D538DC701B6010E94892E29813A8100
:101500004B815C810E942A2D2B013C01B801110FF7
:10151000880B990B0E94D42D9B01AC01C301B20131
:101520000E94B92C0E949C2D2B01AD81BE811F967B
:101530007C936E931E9754962D913D914D915C91A5
:101540005797C501B4010E94892E29813A814B81A8
:101550005C810E94892EED81FE81248D358D468D22
:10156000578D0E94B92C4B015C01AD81BE815C9608
:101570008D929D92AD92BC925F973320A1F05096D0
:101580002D913D914D915C915397C701B6010E94F9
:10159000892EA50194010E94B92CED81FE81648FF2
:1015A000758F868F978FAD81BE815C968C905C978E
:1015B0005D969C905D975E96AC905E975F96BC90B2
:1015C0005F979A960D911C91B801012E000C880B23
:1015D000990B0E94D42D6B017C019B01AC01B401DD
:1015E000C5010E94252D87FD16C0ED81FE8164A5F1
:1015F00075A5072E000C880B990B0E94D42D6B014A
:101600007C019B01AC01B401C5010E94842E181617
:1016100014F064017501C601D701ED81FE81848F4C
:10162000958FA68FB78FB201550C880B990B0E942E
:10163000D42D9601A7010E94B92C0E949C2D601701
:1016400071074CF0AD81BE819C960D911C91601785
:1016500071070CF48B01ED81FE811787068706ABBD
:10166000E55BFF4FAD81BE8114968C91081708F49D
:10167000802F808326960FB6F894DEBF0FBECDBFB5
:10168000DF91CF911F910F91FF90EF90DF90CF905E
:10169000BF90AF909F908F907F906F905F904F9092
:1016A0003F900895CF93DF93CDB7DEB768970FB61D
:1016B000F894DEBF0FBECDBFE1E7F5E0DE01119685
:1016C00044A155A166A177A14D935D936D937D9340
:1016D000749685E0E93EF80799F7809156088823CB
:1016E00051F069817A818B819C810E94A32D8DE4C8
:1016F00098E00E94DA098091A208882391F069811C
:101700007A818B819C810E94A32D89E998E068965B
:101710000FB6F894DEBF0FBECDBFDF91CF910C9412
:10172000DA0968960FB6F894DEBF0FBECDBFDF9121
:10173000CF910895CF92DF92EF92FF920F931F9374
:10174000CF93DF9300D000D01F921F92CDB7DEB7AA
:10175000FC018E010F5F1F4F88E0D8011D928A9512
:10176000E9F74285C180E0802E2D30E0842FF12CF6
:10177000DD24D394CF100EC0CF010296B801562FAE
:10178000501B5E1590F4DB015D91BD01DC015D93A2
:10179000CD01F5CF90E0D801A80FB91FDC920196DA
:1017A000B9010E94882CF394E5CF842F90E0019634
:1017B000B9010E94882C828728960FB6F894DEBF64
:1017C0000FBECDBFDF91CF911F910F91FF90EF9092
:1017D000DF90CF9008951F93CF93DF93FC01818515
:1017E0008823A1F1DF01A65BBF4F9C91EF01C55B90
:1017F000DF4F8881981730F59F5F9C939F01205C95
:101800003F4F97AD8C91981708F4892FEF01F9019C
:101810008083CE01CF960E949A0B10E08FAD1817EF
:10182000A8F4812F90E0DE01A80FB91FAF5BBF4F76
:10183000EA81FB81E80FF91F6C9180810E949C0571
:101840001F5FECCF8917D0F69150D7CFDF91CF91A2
:101850001F9108958DE498E00E94EB0B89E998E0D0
:101860000C94EB0BEF92FF921F93CF93DF93EC015D
:1018700010E08C811817A0F4E12EF12CEA81FB8195
:10188000EE0DFF1D61E080810E94CA05EA81FB81A7
:10189000EE0DFF1D60E080810E949C051F5FE9CF77
:1018A000FE01E05CFF4F1082CE01CF96DF91CF9119
:1018B0001F91FF90EF900C949A0B81E20E946704B5
:1018C00021E0892B09F420E0822F0895FC01818119
:1018D000861799F0618381E090E093838283808111
:1018E000861751F0662381F08481958122813381AE
:1018F0002817390708F060830895828193818F3F0C
:10190000980769F30196E9CF86819781EFCF0F930E
:101910001F93CF93DF93FC012081222309F43FC062
:10192000162FC62FD0E0D683C583028161E0802FB9
:101930000E94CA05209741F460E0802FDF91CF918B
:101940001F910F910C949C05CF3FD10511F461E0DC
:10195000F4CFE02FF0E0E655FC4FE491E150E231A6
:1019600008F0B4C0F0E08827E754F34F8F4F0C9491
:101970009C2CCB0CD40CD90CE30CED0C660DF70CA5
:10198000FF0C070D110D1B0D250D340D3E0D660DC1
:10199000480D520D5C0D84B5806884BD17BDDF9184
:1019A000CF911F910F91089584B5806284BD18BDB9
:1019B000F6CF80918000806880938000D09389006A
:1019C000C0938800ECCF809180008062809380007B
:1019D000D0938B00C0938A00E2CF80918000886012
:1019E00080938000D0938D00C0938C00D8CF8091DD
:1019F000B00080688093B0001093B300D0CF809186
:101A0000B00080628093B0001093B400C8CF809182
:101A10009000806880939000D0939900C0939800C4
:101A2000BECF80919000806280939000D0939B0005
:101A3000C0939A00B4CF809190008860809390000A
:101A4000D0939D00C0939C00AACF8091A000806895
:101A50008093A0008091A0008F7B8093A000D09302
:101A6000A900C093A8009BCF8091A00080628093C2
:101A7000A000D093AB00C093AA0091CF8091A000AA
:101A800088608093A000D093AD00C093AC0087CF56
:101A900080912001806880932001D0932901C09318
:101AA00028017DCF80912001806280932001D09316
:101AB0002B01C0932A0173CF80912001886080930D
:101AC0002001D0932D01C0932C0169CFC038D105DE
:101AD0000CF03DCF31CF0F931F93CF93DF9383E271
:101AE0000E9467048C0182E20E946704EC0161E0BD
:101AF000012B09F460E085E396E00E94660C61E04A
:101B0000CD2B09F460E08DE396E00E94660C809195
:101B100035068093450690913D069093460623E056
:101B2000911103C021E0811122E02093470620910A
:101B30001709222309F448C020911F09222309F420
:101B400043C02091E50821113FC0992351F18091B4
:101B5000F7088093060910920509609105096093C2
:101B6000160980911809882329F180911409909110
:101B700015090E94870C6091060960931E098091E7
:101B80001F09882309F1809120098823C1F08091E1
:101B90001C0990911D09DF91CF911F910F910C9419
:101BA000870C8111DACF8091F60880930509109295
:101BB0000609D3CF8091120990911309DACF809151
:101BC0001A0990911B09E7CFDF91CF911F910F91D7
:101BD0000895FC01808181110DC081E080838181A5
:101BE000811104C061E082810C949C056581CF0164
:101BF0000C94870C0895CF93DF93EC01862F6883B4
:101C00005A8349831C821B8262E00E94CA05298193
:101C10003A819881923069F4309311022093100236
:101C200080916A00836080936A00EC9ADF91CF9183
:101C30000895933059F43093130220931202809147
:101C40006A008C6080936A00ED9AF0CF8EEE890F67
:101C5000843060F787E1891BE82FF0E0EE0FFF1F6B
:101C6000E05FFD4F31832083843091F08530B9F0FF
:101C7000833039F080916900836080936900E89A2D
:101C8000D5CF809169008C6080936900E99ACECFAE
:101C900080916900806380936900EA9AC7CF809140
:101CA0006900806C80936900EB9AC0CFFC011182BF
:101CB00060E080810C949C05FC01108260E08181D1
:101CC0000C949C0521E0FC01208361E081810C944F
:101CD0009C05FC01208121110C945C0E0C94620E79
:101CE000F89490916E06992359F080916F06909127
:101CF000700601969093700680936F06789408950D
:101D000020916C0630E0E0916906F0916A06E20FDE
:101D1000F31F8083C901019660916B0670E00E94F9
:101D2000882C80936C0690916D069813E7CF81E024
:101D300080936E06E3CFBF92CF92DF92EF92FF9235
:101D40000F931F93CF93DF93EC01B62EC72E8D8593
:101D5000811105C0CE010E94490781110EC01B866A
:101D60001D861C8680E0DF91CF911F910F91FF901F
:101D7000EF90DF90CF90BF90089540E060EFCE01EC
:101D80000E94F60601E0E12CD12C11E0CE010E9468
:101D9000A306F82ECE010E94A30691E0F91218C006
:101DA000813099F51134D8F2DB86D11002C081E080
:101DB0008D878B81882399F22396EB2DFC2DCF0103
:101DC000089629912193E817F907D9F781E0CBCF3D
:101DD000EE2DF0E0F8120FC08B851817A0F4DE018D
:101DE000AE0FBF1F13968C91802379F4F12C19301C
:101DF00008F41C87D12EEC0FFD1F8381902F909546
:101E0000892383830AC08113F1CFFE01EE0DF11DFA
:101E10008381802B8383FF24F3946F2DCE010E9456
:101E2000C7061F5F000F11F4E39401E087E08E15F1
:101E300008F0ACCFB7CFCF93DF93EB01DC0119965D
:101E4000ED91FC911A9713861586148612861186D9
:101E500010861782168215821482138219968D912C
:101E60009C910E949B0E982F882341F067E0CE0141
:101E70000E948C0691E02F81281390E0892FDF913A
:101E8000CF9108958F929F92AF92BF92EF92FF925F
:101E90000F931F93CF93DF93CDB7DEB761970FB644
:101EA000F894DEBF0FBECDBF7C01FC01008511851B
:101EB000F8018781882309F4D4C0BE01665F7F4F93
:101EC000C8010E941B0F882309F4CBC0AE014F5FED
:101ED0005F4FBE01665F7F4FC8010E9424088823C0
:101EE00009F4BFC08A81812C912C540187FF06C060
:101EF000812C912CF8EFAF2EBB24BA949A8549819E
:101F00009B3309F068C02D8127FF65C040FDA9C043
:101F1000042F10E030E020E073E0000F111F221FBB
:101F2000331F7A95D1F7B901A801407E5770662713
:101F3000772790E0B0E0A0E08C019D01EBE0000F7E
:101F4000111F221F331FEA95D1F7042B152B262BC7
:101F5000372B082919292A293B29013854EE15075E
:101F60005FEF250735070CF47CC0C901B8010E945A
:101F7000D42D20E030E040E05CE30E94892E4B014C
:101F80005C0120E030E04EEF52EC0E94252D8823CA
:101F900009F467C0F70180829182A282B382138A1A
:101FA000F701808591850E948107F7016081718129
:101FB0008281938161960FB6F894DEBF0FBECDBFCC
:101FC000DF91CF911F910F91FF90EF90BF90AF9055
:101FD0009F908F900895082F10E0102F0027110F69
:101FE000110F110FF8E04F9FA0011124042B152BA6
:101FF000012E000C220B330B082919292A293B2911
:10200000903109F0AACF6885662309F4A6CF70E065
:102010008F81AB01481B5109CA019695982F8827DB
:10202000979587950E94882CCB01770FAA0BBB0B45
:1020300053E0000F111F221F331F5A95D1F700786C
:10204000277033270052110921093109800F911F90
:10205000A21FB31F95018401082B192B2A2B3B2BA0
:102060007CCF81E0F701838B9BCF80913306815039
:1020700080933306811118C085E0809333068091E8
:10208000100624E1829FC00111248B569A4F0E94B2
:10209000420F90911006892F8F5FF1F39FEF8630EA
:1020A000D0F780931006089585E995E00E94420FCD
:1020B0008091A805882379F0809148068F5F8093EE
:1020C00048068B3078F080910B04806480930B0479
:1020D0001092480608951092480680910B048F7B59
:1020E00080930B040895BF92CF92DF92EF92FF92FC
:1020F0000F931F93CF93DF93CDB7DEB761970FB6E2
:10210000F894DEBF0FBECDBF7C018B01DC011996B8
:102110007C936E93189783E0D82ECC24C394D80177
:102120001996ED91FC911A971386158614861286DE
:1021300011861086178216821582148213821796D2
:102140001C92179718961C9262E370E080E090E072
:102150000E944806BE01665F7F4FF8018185928527
:102160000E949B0E882309F477C067E0CE010A968F
:102170000E948C0699898913EDCFD80117968C910E
:1021800017978F5F17968C938A85883231F008F005
:102190004AC0803111F08232E9F6F80180858F5F04
:1021A00080878081811124C0818592850E944907A2
:1021B000BE01665F7F4FD80119968D919C910E9458
:1021C0002A0740E064EBF801818592850E94F606BB
:1021D000D80119968D919C910E94A306B82EF80102
:1021E000818592850E944907B11002C0D801CC9226
:1021F0008A85803119F1AE014F5F5F4FBE01665F86
:102200007F4FC8010E942408882359F08D819A8548
:102210009B3311F487FD12C08F3391F058F48F3146
:10222000B9F080E00EC08B3309F4B7CF823409F0E7
:1022300091CFB3CF8F3571F08F3799F78CE001C014
:102240008AE0F8019381981708F084CF838382CFC6
:1022500089E0F7CF8BE0F5CFD80117969C919111CB
:1022600003C0DA94D1105BCFD7011896ED91FC91A1
:102270009781992331F0B701665F7F4FCF010E94AC
:102280001B0FF701828B0084F185E02D1482D701AA
:1022900018968D919C910E948107F701138A61968F
:1022A0000FB6F894DEBF0FBECDBFDF91CF911F9167
:1022B0000F91FF90EF90DF90CF90BF90089582E054
:1022C00090E090930E0680930D0686E198E00C94C2
:1022D000E90DCF93FC018081882371F01082C281C7
:1022E0008181882321F061E08C2F0E94CA0560E083
:1022F0008C2FCF910C949C05CF9108951092780764
:102300001092840786E198E00E946911E5EEF7E0FB
:102310001182108287E082830E942C0281E00C945B
:102320004B031F93CF93DF93EC01888199810E9427
:1023300069118A819B81FC012481222351F00E9432
:1023400069111D8281E08F8380E0DF91CF911F9121
:10235000089511E01E832C8130E0368325830E948E
:10236000E90D1D8381E0F1CFCF93DF93EC018D81E7
:10237000811119C09F81911116C02E81222369F00D
:102380008A819B81FC013481332381F0211108C0B3
:10239000CE01DF91CF910C94911188819981F2CF78
:1023A00081E08F8380E0DF91CF9108952C8130E030
:1023B000368325830E94E90D81E08D83F4CF90E080
:1023C000009769F58AEE97E00E94690E8CEE97E01F
:1023D0000E94690E84EF91E0A0E0B0E08093D907FD
:1023E0009093DA07A093DB07B093DC078093DD07B7
:1023F0009093DE07A093DF07B093E0078FED91E1A4
:102400009093E3078093E20781E08093E107809156
:10241000E40781608D7F8B7F8093E40708950197A7
:10242000D9F48AE199E00E94B4118CED80931E09E1
:1024300080911F09882381F080912009882339F039
:1024400080911C0990911D096CED0C94870C809172
:102450001A0990911B09F8CF089590E0009769F54B
:1024600082EF97E00E94690E84EF97E00E94690E68
:1024700084EF91E0A0E0B0E08093CD079093CE0789
:10248000A093CF07B093D0078093D1079093D20742
:10249000A093D307B093D4078DE292E19093D7072E
:1024A0008093D60781E08093D5078091D80781601B
:1024B0008D7F8B7F8093D8070895019721F48AE15F
:1024C00099E00C94B41108951F93CF93DF93CDB787
:1024D000DEB768970FB6F894DEBF0FBECDBF90E0B1
:1024E000009709F049C08091F4089091F508823076
:1024F000910580F10297B9F184EF91E0A0E0B0E09E
:102500008093C1079093C207A093C307B093C407F9
:102510008093C5079093C607A093C707B093C807D9
:1025200084E692E19093CB078093CA0781E0809381
:10253000C9078091CC0781608D7F8B7F8093CC070A
:1025400068960FB6F894DEBF0FBECDBFDF91CF9176
:102550001F91089586EF97E00E945C0E88EF97E048
:102560000E945C0EC9CF88EF97E00E94620E86EF52
:1025700097E00E94620EC0CF019711F7E1E7F5E006
:10258000DE01119689EE95E040A551A562A573A5DF
:102590004D935D936D937D9374968E179F07A1F76E
:1025A0008091F4089091F5088130910539F10297F6
:1025B00009F447C080915608882339F08DE498E0EB
:1025C0000E94B9098DE08093E7078091A2088823D3
:1025D00059F189E498E00E94560E8BE498E00E943D
:1025E000560E8BE298E00E94691182E398E00E9407
:1025F000691189E998E00E94B90916C069817A8158
:102600008B819C810E94A32D81E080935608862FA8
:1026100090E090935808809357088DE498E00E94CA
:10262000DA0985E10E94700E82E199E068960FB6A2
:10263000F894DEBF0FBECDBFDF91CF911F910C94F8
:10264000B4118BE298E00E94E90D82E398E00E94C9
:10265000E90D11E010934A0861E0809149080E9459
:102660009C0510934C0861E080914B080E949C05EA
:1026700069817A818B819C810E94A32D1093A2088D
:10268000862F90E09093A4088093A30889E998E0AE
:102690000E94DA0987E1C6CF1F93CF93DF93FC0135
:1026A0002581222309F1EC018681811113C08081EB
:1026B000918111E0FC0114830E946911CE010E94F6
:1026C0009111811113C01F831D8282E0DF91CF9190
:1026D0001F9108958281938111E0FC0114830E946F
:1026E00069111D821F83F1CF80E0F0CF81E0EECF32
:1026F000CF93DF93EC01888199810E9469118A81CF
:102700009B810E9469111D82DF91CF91089582E122
:1027100099E00E94781384EF91E0A0E0B0E080930C
:10272000C1079093C207A093C307B093C4078093D7
:10273000C5079093C607A093C707B093C80784E660
:1027400092E19093CB078093CA071092C907ECECF3
:10275000F7E0808181608D7F8B7F80830895209159
:10276000F4083091F5082817390731F09093F508EF
:102770008093F4080C94871308959091E7079817B5
:1027800029F0953091F020F4943089F080E008959C
:10279000963021F19B30D1F78430B9F08630B1F713
:1027A0008093E70781E090E009C0843051F08B30DE
:1027B00069F78BE08093E70790E080E00E94AF1319
:1027C000E5CF8093E70781E008958093E70782E0F3
:1027D00090E00E94AF130E945302F5CF8B30B1F608
:1027E0008DE498E00E94B9098DE08093E707CECF91
:1027F000109200078091310690913206009751F0B7
:102800000297A9F48BE00E94BD1310923206109239
:102810003106089580913406811109C086E00E9436
:10282000BD1381E090E090933206809331060895C5
:1028300010920C07809131069091320681309105FB
:1028400021F058F0029791F008958BE00E94BD139B
:102850001092320610923106089584E00E94BD1352
:1028600082E090E0909332068093310610929C07AC
:1028700008958091E8079091E9078330910571F1FF
:10288000892B61F18AE199E00E94781384EF91E04D
:10289000A0E0B0E08093CD079093CE07A093CF0740
:1028A000B093D0078093D1079093D207A093D3071A
:1028B000B093D4078DE292E19093D7078093D60727
:1028C0001092D5078091D80781608D7F8B7F809390
:1028D000D8071092E9071092E80708951092E907C7
:1028E0001092E8078AE199E00C94B411CF93DF933A
:1028F000EC010E947813E881F9811482EA81FB815E
:1029000014821E821F82DF91CF9108951092E607F4
:102910001092E5071092CC071092D8071092E407A6
:1029200082E199E00E9478138AE199E00E9478138D
:1029300082E199E00E9476148AE199E00E9476147F
:1029400086E198E00E9469118DE198E00E9469118A
:1029500084E298E00E9469118BE298E00E9469117C
:1029600082E398E00E94691189E398E00E9469116E
:1029700080E498E00E9469118AEE97E00E945C0E64
:102980008CEE97E00E945C0E82EF97E00E945C0E56
:1029900084EF97E00E945C0E86EF97E00E945C0E49
:1029A00088EF97E00E945C0E87E498E00E94560E44
:1029B00089E498E00E94560E8BE498E00E94560E3F
:1029C0008DE498E00E948F0989E998E00E948F09C0
:1029D0001092F208109224071092300710925407B8
:1029E000109248071092600710923C0710926C07F3
:1029F00082E199E00E9476148AE199E00C947614C1
:102A0000CF93C62F10920E0610920D061092E50875
:102A1000109284088CE492E00E9486148091E7076B
:102A20008C50823010F01092E70780910F068E7F55
:102A3000846080930F0610927605109275051092AF
:102A40007E0510927D051092B8061092C406109271
:102A5000D0061092DC061092E80610920007109241
:102A60000C0710927807109284071092AC0610920F
:102A7000900710929C0710923406C11104C089E19E
:102A8000CF910C94700ECF9108950E945D0C90919F
:102A90000B04882321F0946090930B0408959B7F8E
:102AA00090930B048091710590917205029709F43F
:102AB0007EC02091750530917605809177059091C3
:102AC00078052817390708F460C081E090E09093FA
:102AD000720580937105209171053091720591E026
:102AE0002130310509F090E080910A0481FD52C047
:102AF0002130310509F44EC0826080930A04809130
:102B00002209813041F0823059F482E199E00E943B
:102B10004C13823029F460E08CE592E00E940015AD
:102B20008091790590917A05029709F440C08091CF
:102B300086050E9406069C01909388058093870570
:102B40006091890570918A0541E06817790708F45A
:102B500040E090910A0492FD24C06217730708F5C3
:102B6000892F846080930A0480912209813041F08A
:102B70008230E9F48AE199E00E944C138230B9F482
:102B800060E08FE692E00C940015109272051092AE
:102B90007105A1CF80910A0490FB81F980930A040A
:102BA000BFCF80910A0440FB82F980930A04089504
:102BB0000E94451585E40E94670420910B04892B2F
:102BC00021F0286020930B040895277FFBCF1092FB
:102BD00090071092C40690910A049870811112C057
:102BE0008CE109F08DE10E94700E1092E5081092C0
:102BF00084088CE492E00E94861460E090E080E01B
:102C00000C940015911112C01092E6071092E5077E
:102C10008BE08093E7070E942C0280E00E944B0328
:102C20008CE10E94700E8EE10C94700E60E090E0DA
:102C300080E00E9400158DE1F7CF60E084E892E02B
:102C40000C94001560E08BE992E00C9400159EEF67
:102C5000980F923008F063C010923007833079F1FA
:102C60008BE298E00E94E90D82E398E00E94E90D72
:102C700080EC94EDA1E0B0E08093250790932607C7
:102C8000A0932707B09328078093290790932A07DA
:102C9000A0932B07B0932C0787E296E190932F0720
:102CA00080932E0783E080932D0780913007816009
:102CB0008D7F8B7F8093300781E10C94700E8BE2C7
:102CC00098E00E94691182E398E00E94691182E114
:102CD0000E94700E80E395E7A0E0B0E080932507A6
:102CE00090932607A0932707B0932807809329077E
:102CF00090932A07A0932B07B0932C0787E296E1C5
:102D000090932F0780932E0784E080932D07809166
:102D1000300781608D7F8B7F80933007089560E05E
:102D20008CEA92E00C9400158230A9F510922407E9
:102D300086E198E00E9469118AE199E00E94781387
:102D400084E298E00E94E90D80E395E7A0E0B0E01E
:102D50008093190790931A07A0931B07B0931C0741
:102D600080931D0790931E07A0931F07B093200721
:102D700084E996E1909323078093220781E0809372
:102D800021078091240781608D7F8B7F80932407AA
:102D90008EE00C94700E60E08BEB92E00C940015CA
:102DA000EAE0F4E080818D7F808360E08AEC92E04D
:102DB0000C940015EAE0F4E080818460808360E098
:102DC00086EE92E00C9400151092DC069091E707D5
:102DD0009C3039F483E093E00E9486141092E70758
:102DE00008958093E70788E10C94700E1092E8062E
:102DF0009091E7079D3039F48093E7070E942C02F9
:102E000086E10C94700E9C3031F48FE093E00E94C8
:102E100086141092E70708958F929F92AF92BF9207
:102E2000CF92DF92EF92FF920F931F93CF93DF9396
:102E30008091E5079091E607019761F5E091E7073A
:102E4000E150EB3008F5F0E08827E65DF84E8F4F53
:102E50000C949C2C35179E17AC17B1174417B1175B
:102E6000BA17E2170B1819184D188091EC07882330
:102E700021F08CEE97E00E945C0E8DE198E00E94BC
:102E8000E90D87E00E94700E1092E6071092E507A8
:102E90000E9453020E945D0C90910B0480FB92F9FA
:102EA00090930B0485E40E94670421E0892B09F4C8
:102EB00020E080910B0420FB83F980930B04809128
:102EC0000D0690910E06009741F0C091E70702971A
:102ED00009F0F4C08C2F0E948C0280910A0490911A
:102EE0000B04A0910C04B0910D04409195035091F6
:102EF0009603609197037091980384179507A6072E
:102F0000B70759F021E020939403809395039093A1
:102F10009603A0939703B093980360E08CE097E149
:102F2000DF91CF911F910F91FF90EF90DF90CF90A5
:102F3000BF90AF909F908F900C94BF0380914008FA
:102F4000882321F080E498E00E94691189E398E0E9
:102F50000E94E90D89E096CF1092F5081092F408CE
:102F600093CF1092F5081092F4080E9487130E94E4
:102F700039148ACF8AE199E00E94781384EF91E0B6
:102F8000A0E0B0E08093D9079093DA07A093DB0725
:102F9000B093DC078093DD079093DE07A093DF07F3
:102FA000B093E0078FED91E19093E3078093E20700
:102FB0001092E1078091E40781608D7F8B7F809381
:102FC000E40762CF86E198E00E94E90D80E69AEE80
:102FD000A0E0B0E08093310790933207A0933307CD
:102FE000B09334078093350790933607A093370743
:102FF000B093380782E296E190933B0780933A07BB
:103000001092390780913C0781608D7F8B7F809380
:103010003C0783E137CF1092E508109284088CE4D6
:1030200092E00E94861484E298E00E94E90D8BE011
:1030300029CF1092E508109284088CE492E00E9457
:10304000861480E498E00E94E90D8FE00E94700EE3
:1030500080E49CE9A0E0B0E08093250790932607E8
:10306000A0932707B09328078093290790932A07F6
:10307000A0932B07B0932C0787E296E190932F073C
:1030800080932E0782E080932D0780913007816026
:103090008D7F8B7F80933007F7CE1092F5081092CA
:1030A000F40882EF97E00E94620E84EF97E00E949E
:1030B000620E90E080E00E94AF1359CF90913406E9
:1030C000992339F180919C0780FD23C082FD21C0A6
:1030D00040E355E760E070E040939107509392071A
:1030E00060939307709394074093950750939607C6
:1030F00060939707709398072DE136E130939B0713
:1031000020939A071092990781608D7F8B7F80931F
:103110009C078CEF8C0F833028F0CB3019F099236B
:1031200009F4A6C08091310690913206039709F404
:103130009FC0D0914808C63009F4B1C02091BD05A8
:103140003091BE054091BF055091C0056091E505E5
:103150007091E6058091E7059091E8050E94252D84
:1031600087FF9DC0D1112FC081E08093480861E0A6
:10317000809147080E949C058AE199E00E9478139B
:1031800084EF91E0A0E0B0E08093CD079093CE076C
:10319000A093CF07B093D0078093D1079093D20725
:1031A000A093D307B093D4078DE292E19093D70711
:1031B0008093D6071092D5078091D80781608D7FC4
:1031C0008B7F8093D807C0909505D0909605E090AE
:1031D0009705F09098058090990590909A05A09099
:1031E0009B05B0909C0520E030E040E85FE3C5011E
:1031F000B4010E94B92CA70196010E94252D181632
:103200000CF455C010920007D0910C07D0FD30C0CF
:10321000D2FD2EC00091310610913206F801EE0F5A
:10322000FF1FEE0FFF1FEF5DF94F608171818281FB
:1032300093810E94A32D60930107709302078093EE
:103240000307909304076093050770930607809324
:1032500007079093080788E194E190930B07809308
:103260000A0700930907D160DD7FDB7FD0930C074D
:10327000C150CB3008F031CEEC2FF0E08827EC5B6A
:10328000F64E8F4F0C949C2C9F19AB19B5191F1A31
:103290001F1A221A251A8C1ADE1A6D17221ADD231C
:1032A00009F491CF87E498E00E94560E65CF109202
:1032B0000C0720E030E040E85FE3C501B4010E9464
:1032C000B82CA70196010E94842E87FD35C0D091AD
:1032D0000007D0FDCDCFD2FDCBCF009131061091AC
:1032E0003206F801EE0FFF1FEE0FFF1FEF5DF94FE3
:1032F00060817181828193810E94A32D6093F50684
:103300007093F6068093F7069093F8066093F9069B
:103310007093FA068093FB069093FC0688EF93E186
:103320009093FF068093FE060093FD06D160DD7F3B
:10333000DB7FD09300079CCF1092000799CF80E2EB
:103340000E946704892B09F0C8CD60E08AE193E010
:103350000E940015C2CD84E40E946704892B09F005
:10336000BCCD60E088E293E0F3CF0E945D0C9091C9
:103370000A04882339F0916090930A0460E086E3A0
:1033800093E0E6CF9E7F90930A048091710590911F
:103390007205029709F4A1CD20917505309176054B
:1033A000809177059091780528173907D8F181E049
:1033B00090E09093720580937105809171059091D2
:1033C00072050197A1F580910A048D7F80930A040C
:1033D0008091B80680FD81CD82FD7FCD409115069C
:1033E0005091160670E060E04093AD065093AE0633
:1033F0006093AF067093B0064093B1065093B20647
:103400006093B3067093B40620ED36E13093B706AF
:103410002093B6061092B50681608D7F8B7F8093D6
:10342000B8065BCD1092720510927105C6CF8091DF
:103430000A0481FD52CD826080930A044ECD0E9421
:10344000D8154BCD0E94451548CD0E945D0C8823B0
:1034500059F060E08BEB92E00E94001580910B0424
:10346000846080930B0439CD8091790590917A0521
:10347000029709F432CD20917D0530917E0580912F
:103480007F059091800528173907C8F181E090E009
:1034900090937A05809379058091790590917A05CA
:1034A000019791F580910A04877F80930A048091A7
:1034B000C40680FD12CD82FD10CD48EE53E060E0E1
:1034C00070E04093B9065093BA066093BB067093C0
:1034D000BC064093BD065093BE066093BF06709332
:1034E000C0062DED38E03093C3062093C20610923B
:1034F000C10681608D7F8B7F8093C406EECC1092D5
:103500007A0510927905C8CF1092C40680910A04FA
:1035100083FDE3CC886090CF80E20E946704892B12
:1035200049F460E08CE593E00E94001580910A0464
:10353000806882CF809186050E9406069093880558
:10354000809387052091890530918A0528173907CE
:1035500078F580910A048B7F80930A048091D006CD
:1035600080FDBBCC82FDB9CC4091190650911A0662
:1035700070E060E04093C5065093C6066093C706AE
:103580007093C8064093C9065093CA066093CB0651
:103590007093CC062AED36E13093CF062093CE0609
:1035A0001092CD0681608D7F8B7F8093D00695CC65
:1035B00080910A0482FD91CC84603ECF0E945D0C14
:1035C000882309F48ACC8091240780FD86CC82FD73
:1035D00084CC84E298E00E94691186E198E00E9420
:1035E000E90D8AE199E00E94B4118DE00E94700E0D
:1035F00080E395E7A0E0B0E08093190790931A0765
:10360000A0931B07B0931C0780931D0790931E0780
:10361000A0931F07B093200784E996E190932307B6
:103620008093220782E080932107809124078160A4
:103630008D7F8B7F8093240750CCFF920F931F9335
:10364000CF93DF93CDB7DEB7C456D1090FB6F89448
:10365000DEBF0FBECDBFFC01F1804F2D50E08E01CB
:103660000F5F1F4FBC01C8010E94F62E8091C6005B
:103670008091C6008091C1008F778093C1008091B6
:10368000C10088608093C100F8018E2F801B8F15C8
:1036900088F481918093C6008091C00086FFFCCFA2
:1036A0008091C00080648093C0008091C6008091AA
:1036B000C600EBCFCC59DF4F0FB6F894DEBF0FBE7C
:1036C000CDBFDF91CF911F910F91FF900C9489098D
:1036D0004F925F926F927F928F929F92AF92BF9222
:1036E000CF92DF92EF92FF920F931F93CF93DF93CE
:1036F000CDB7DEB7CF58D1400FB6F894DEBF0FBEBE
:10370000CDBF84E6E9E9F3E0DE01AB59BF4F01909C
:103710000D928A95E1F7A896EFADA897E550E333AF
:1037200008F08CC0F0E08827E756F44E8F4F0C94D9
:103730009C2C7D201E1CAE1C1E1C1E1C1E1C1E1C38
:103740001E1C1E1C1E1C1E1C1E1C1E1C4A1C6C1C2F
:10375000991CA31CB71C361C2D1D711DCC1B051EEE
:103760001E1C1E1C1E1E761EBE1E011CED1E1A1FD8
:10377000901F401F22201E1C1E1C1E1C55201E1C9C
:103780001E1C1E1C1E1C1E1C1E1C89209920A520F0
:10379000012139219222CC1CA9962FADA997213065
:1037A00009F4CEC1AB968FADAB97813009F4D6C189
:1037B000AD968FADAD97813009F4D3C180E0809391
:1037C000160990E0E0911209F09113099683858320
:1037D000E0911409F091150996838583243009F44A
:1037E000C3C1AB968FADAB97843009F40BC2AD96D5
:1037F0008FADAD97E2E0F0E0843009F4B7C180E02E
:10380000C0C1C0900A04D0900B04E0900C04F0906A
:103810000D0461E2CE0101960E941D09CF82D88677
:10382000E986FA868BE08A83CE0101960E9406091A
:10383000CE0101960E941D1B10929403C157DE4FCA
:103840000FB6F894DEBF0FBECDBFDF91CF911F91B1
:103850000F91FF90EF90DF90CF90BF90AF909F902F
:103860008F907F906F905F904F90089510920A0410
:1038700010920B0410920C0410920D0461E2CE0120
:1038800001960E941D091F82188619861A868BE0F0
:103890008A83CFC1CE0187539F4F0E94900488E056
:1038A000FE01E753FF4FDE01AE57BE4F01900D9270
:1038B0008A95E1F762E1CE0101960E941D098FE031
:1038C0008A8388E0FE01EE57FE4FDE0117960190D5
:1038D0000D928A95E1F7ADC110920A0410920B0483
:1038E00010920C0410920D04A9969FADA997109206
:1038F000E6071092E5079093E7079B3011F09730A9
:1039000039F4AA968FADAA97869583708093220981
:10391000AA968FADAA9780FF0CC09B3051F48BE024
:103920000E948C02882329F00E942C0280E00E94D1
:103930004B031091E70764E1CE0101960E941D0937
:103940001F8388E0A5CF8091E7070E948C0288231F
:1039500029F00E942C0280E00E944B03CE010196C8
:103960000E947E09CE0101960E941D1B67CF8091A7
:10397000E7078B3019F08450833040F410920A042A
:1039800010920B0410920C0410920D0460E081E878
:1039900093E00E940015E2CF81E08093340681E03D
:1039A00090E090930E0680930D061092E508109219
:1039B00084081092E6071092E5071092CC07109247
:1039C000D8071092E40786E198E00E9469118DE122
:1039D00098E00E94691184E298E00E9469118AEEE1
:1039E00097E00E945C0E8CEE97E00E945C0E82EFE6
:1039F00097E00E945C0E84EF97E00E945C0E86EFD9
:103A000097E00E945C0E88EF97E00E945C0E89E4CC
:103A100098E00E94560E8BE498E00E94560E8DE4CA
:103A200098E00E948F0980910F0681608B7F8093C0
:103A30000F068091E5059091E605A091E705B0910C
:103A4000E8058093990590939A05A0939B05B09300
:103A50009C058AE10E94700E81CFE5E6F0E0EC0F54
:103A6000FD1F3396A1E7B5E085E690E08C0F9D1F22
:103A70004B96419151916191719198964D935D93BF
:103A80006D937C939B9754968E179F0791F788E1CF
:103A9000E5E6F0E0EC0FFD1F3396DE01A750BF4FC7
:103AA00001900D928A95E1F768E1CE0101960E949E
:103AB0001D098FE18A8388E1FE01E750FF4FDE0197
:103AC000179601900D928A95E1F7CE0101960E941A
:103AD0000609CE0101960E941D1B88E10E94E5089F
:103AE000ADCEA1E7B5E0CE0187539F4F29EE35E07B
:103AF000182F092F98964D915D916D917C919B9710
:103B0000FC014193519361937193CF0154962A170D
:103B10003B0781F788E1E12FF02FDE01AF51BF4F66
:103B200001900D928A95E1F769E1CE0101960E941C
:103B30001D098FE18A8388E1FE01EF51FF4FC5CE59
:103B4000F0E0E0E0EE0FFF1F81E090E08C0F9D1FA2
:103B5000E80FF91FE959FF4F818131CEE1E0F0E034
:103B6000F1CFE2E0F0E0EECFF0E0E0E0EE0FFF1F9B
:103B700081E090E08C0F9D1FE80FF91FE959FF4F7E
:103B8000818180931E0990E0E0911A09F0911B0950
:103B900096838583E0911C09F0911D0996838583A6
:103BA000AE968FADAE97AA969FADAA979093050952
:103BB0008093060986E0E5E6F0E0EC0FFD1F339602
:103BC000DE01A657BE4F01900D928A95E1F76AE19A
:103BD000CE0101960E941D098DE08A8386E0FE01D8
:103BE000E657FE4FDE01179601900D928A95E1F798
:103BF000CE0101960E940609CE0101960E941D1B6E
:103C00008AE16CCFE1E0F0E0B1CF109105090091BD
:103C100006096BE1CE0101960E941D098DE08A83A1
:103C200081E08F83188782E089871A8784E08B87F9
:103C30000C87CE0101960E94060994CEAA968EADFD
:103C40009FADAA979093780580937705AC968EAD3B
:103C50009FADAC979093800580937F05AE968EAD17
:103C60009FADAE979093850580938405E0968EADC9
:103C70009FADE09790938A0580938905E2968EAD7B
:103C80009FADE29790938F0580938E05E4968EAD5D
:103C90009FADE49790939405809393058EE0E5E6BD
:103CA000F0E0EC0FFD1F3396DE01A35BBE4F0190E9
:103CB0000D928A95E1F76EE1CE0101960E941D09F1
:103CC00085E18A838EE0FE01E35BFE4FDE011796FD
:103CD00001900D928A95E1F7CE0101960E940609A6
:103CE000CE0101960E941D1B8EE1F8CEE0917F056A
:103CF000F09180056091840570918505409189055A
:103D000050918A0520918E0530918F058091930501
:103D100090919405A0917705B0917805C15CDE4F34
:103D2000B983A883CF53D140CF5BDE4FF983E883BB
:103D3000C154D140CD5BDE4F79836883C354D140F9
:103D4000CB5BDE4F59834883C554D140C95BDE4FFE
:103D500039832883C754D140C75BDE4F998388835A
:103D6000C954D1406FE1CE0101960E941D0985E141
:103D70008A838EE0FE01E15CFE4FA7CDA1E7B5E0AE
:103D8000CE018F519F4F29EE35E0182F092F9496C1
:103D90004D915D916D917C919797FC014193519369
:103DA00061937193CF0154962A173B0781F788E1FD
:103DB000E12FF02FDE01A753BF4F01900D928A959E
:103DC000E1F760E2CE0101960E941D098FE18A832E
:103DD00088E1FE01E753FF4F78CD05E610E00C0FB8
:103DE0001D1F0D5F1F4FC8010E94F30280E1F80103
:103DF000DE01AF5DBE4F01900D928A95E1F762E260
:103E0000CE0101960E941D0980E1FE01EF5DFE4F8B
:103E1000DE01179601900D928A95E1F787E18A837A
:103E2000CE0101960E940609CE0101960E941D1B3B
:103E300082E254CE80E1E1E1F6E0DE01A753BF4F1C
:103E400001900D928A95E1F780E1FE01E753FF4F63
:103E5000DE01AF5EBE4F01900D928A95E1F763E2FD
:103E6000CE0101960E941D0980E1FE01EF5EFE4F2A
:103E7000DE01179601900D928A95E1F787E108CD52
:103E80008090750590907605A0907D05B0907E0598
:103E9000809181050E9406066C01809186050E9432
:103EA00006067C0180918B050E9406068C0180919C
:103EB00090050E940606CF5CDE4F99828882C1532E
:103EC000D140CD5CDE4FB982A882C353D140CB5CD8
:103ED000DE4FD982C882C553D140C95CDE4FF9821A
:103EE000E882C753D140C75CDE4F19830883C953AA
:103EF000D140C55CDE4F99838883CB53D14065E2C6
:103F0000CE0101960E941D098EE0FE01EF5CFE4F7E
:103F1000DE01179601900D928A95E1F785E1B8CC04
:103F2000A9968FADA997982F9F77923009F461C019
:103F300070F59923B1F1913009F449C08091FA07E5
:103F400090910808892B90910108892B90910F0876
:103F5000892B8093E508CE0187539F4F0E949004E0
:103F600088E0FE01E753FF4FDE01A658BE4F0190E7
:103F70000D928A95E1F764E2CE0101960E941D0937
:103F80008FE08A8388E0FE01E658FE4F9ECC933096
:103F900009F441C0943091F687FF4FC084E298E065
:103FA00004C087FF05C08AEF97E00E946911C6CF61
:103FB0008AEF97E00E94E90D8091FB078111E09064
:103FC000FF076E2D8AEF97E00E94870CB7CF87FF1F
:103FD00003C081E098E0E9CF81E098E00E94E90D1C
:103FE000809102088111F09006086F2D81E098E021
:103FF000EBCF87FF03C088E098E0D7CF88E098E058
:104000000E94E90D80910908811100910D08602F2F
:1040100088E098E0D9CF87FF03C08FE098E0C5CF54
:104020008FE098E00E94E90D8091100881111091B5
:104030001408612F8FE098E0C7CF84E298E00E94D7
:10404000E90D7CCF81E20E9467044C0180E20E946E
:1040500067045C01F09045060091460685E40E94E5
:1040600067046C0184E40E9467049C0191E0892844
:1040700009F090E010E090FB10F991E0AB2809F016
:1040800090E090FB11F991E0CD2809F090E090FBD1
:1040900012F991E0232B09F090E090FB13F9F0FA6C
:1040A00014F900FB15F966E247CC8BE0E5E6F0E099
:1040B000EC0FFD1F3396DE01A959BE4F01900D9202
:1040C0008A95E1F76AE2CE0101960E941D098BE014
:1040D000FE01E959FE4FDE01179601900D928A9577
:1040E000E1F782E18A83CE0101960E940609CE01A2
:1040F00001960E941D1B8AE2F1CC10920A041092D4
:104100000B0410920C0410920D0461E08EE893E011
:1041100040CC61E3CE0101960E941D098BE08A83A9
:1041200081E090E0A4E0B1E08F839887A987BA8707
:1041300080CD62E3CE0101960E941D098BE08A8347
:104140008EEF94E3A0E0B0E0EFCFE4966CAD7DADF0
:104150008EAD9FADE4970E94D22D6B017C01E0965D
:104160006CAD7DAD8EAD9FADE0970E94D22D4B0121
:104170005C01AC966CAD7DAD8EAD9FADAC970E94F1
:10418000D22D60932106709322068093230690938C
:1041900024068092250690922606A0922706B092C9
:1041A0002806C0922906D0922A06E0922B06F092A9
:1041B0002C068CE0E5E6F0E0EC0FFD1F3396DE0107
:1041C000A55ABE4F01900D928A95E1F763E3CE01A7
:1041D00001960E941D0983E18A838CE0FE01E55A65
:1041E000FE4FDE01179601900D928A95E1F7CE0100
:1041F00001960E940609CE0101960E941D1B83E3D1
:104200006DCC6091290670912A0680912B069091C1
:104210002C060E94A32D6B017C01609125067091F4
:10422000260680912706909128060E94A32D4B0117
:104230005C01609121067091220680912306909185
:1042400024060E94A32D2B013C0164E3CE010196BC
:104250000E941D0983E18A834F82588669867A8687
:104260008B869C86AD86BE86CF86D88AE98AFA8AF6
:10427000E0CCA9968FADA9978983AA968FADAA970E
:104280008A83AB968FADAB978B83AC966FADAC97B3
:104290006C83AD968FADAD978D83AE968FADAE9797
:1042A0008E83AF968FADAF978F83E0968FADE097FB
:1042B000888761708AE00E949C056C8166956170B8
:1042C00089E00E949C056C8162FB662760F988E0AA
:1042D0000E949C056C8163FB662760F98BE00E945D
:1042E0009C056981617085E30E949C0569816695E2
:1042F000617084E30E949C05698162FB662760F916
:104300008FE10E949C05698163FB662760F98EE15D
:104310000E949C056981629561708DE10E949C05F7
:10432000698165FB662760F98CE10E949C056981C3
:1043300066FB662760F98BE10E949C05698167FB3B
:10434000662760F98AE10E949C056C816295617024
:1043500089E10E949C056C8165FB662760F988E114
:104360000E949C056C8166FB662760F987E10E94CC
:104370009C056C8167FB662760F980E10E949C05C3
:104380006D8161708FE00E949C056D816695617002
:1043900086E10E949C056D8162FB662760F981E1E0
:1043A0000E949C056D8163FB662760F98EE00E9488
:1043B0009C056D81629561708DE00E949C056D8108
:1043C00065FB662760F98CE00E949C056B8161703B
:1043D00085E20E949C056B816695617084E20E9473
:1043E0009C056B8162FB662760F987E20E949C0551
:1043F0006B8163FB662760F986E20E949C056B81F6
:104400006295617089E20E949C056B8165FB66275D
:1044100060F988E20E949C056B8166FB662760F963
:104420008BE20E949C056B8167FB662760F98AE23C
:104430000E949C056A8161708CE20E949C056A81E1
:10444000669561708EE20E949C056A8162FB662718
:1044500060F98DE20E949C056A8163FB662760F922
:104460008FE20E949C056A816295617081E30E94DF
:104470009C056A8165FB662760F980E30E949C05C4
:104480006A8166FB662760F983E30E949C056A8166
:1044900067FB662760F982E30E949C05C753DF4FE4
:1044A0001882C95CD040C653DF4F1882CA5CD04026
:1044B000C553DF4F1882CB5CD040C453DF4F188206
:1044C000CC5CD040C353DF4F1882CD5CD040C25388
:1044D000DF4F1882CE5CD040C153DF4F1882CF5CD3
:1044E000D040C053DF4F1882C05DD040CE0187530B
:1044F0009F4F0E94900488E0FE01E753FF4FDE01CA
:10450000AE58BE4F01900D928A95E1F765E3CE015A
:1045100001960E941D098FE08A8388E0FE01EE5813
:10452000FE4FD3C9CE0101960E947E09CE010196AD
:104530000E941D1B10927C0662E475E085E995E0FF
:104540000E9473106DE175E089EA95E00E94731096
:1045500068EF74E08DEB95E00E94731063ED74E0FA
:1045600081ED95E00E9473106EEA74E085EE95E0AF
:104570000E94731069E874E089EF95E00E9473105F
:1045800080911F0690912006B0E0A0E08093710614
:1045900090937206A0937306B09374068093750689
:1045A00090937606A0937706B093780685E390E122
:1045B00090937B0680937A061092790680917C0610
:1045C00083608B7F80937C0639C90C94681BE9E972
:1045D000F3E084E6DF011D928A95E9F71092070463
:1045E0000C9489091F920F920FB60F9211242F93EA
:1045F0003F938F939F93AF93BF938091FF039091CD
:104600000004A0910104B09102043091FE0323E064
:10461000230F2D3758F50196A11DB11D2093FE03E0
:104620008093FF0390930004A0930104B0930204CD
:104630008091030490910404A0910504B0910604B4
:104640000196A11DB11D8093030490930404A093CF
:104650000504B0930604BF91AF919F918F913F9154
:104660002F910F900FBE0F901F90189526E8230FE3
:104670000296A11DB11DD2CF1F920F920FB60F92BD
:1046800011240BB60F922F933F934F935F936F9329
:104690007F938F939F93AF93BF93EF93FF93E0919B
:1046A0001E02F0911F021995FF91EF91BF91AF91FA
:1046B0009F918F917F916F915F914F913F912F913A
:1046C0000F900BBE0F900FBE0F901F9018951F926A
:1046D0000F920FB60F9211240BB60F922F933F93A8
:1046E0004F935F936F937F938F939F93AF93BF93FA
:1046F000EF93FF93E0911C02F0911D021995FF9139
:10470000EF91BF91AF919F918F917F916F915F9149
:104710004F913F912F910F900BBE0F900FBE0F90B6
:104720001F9018951F920F920FB60F9211240BB67F
:104730000F922F933F934F935F936F937F938F933A
:104740009F93AF93BF93EF93FF93E0911202F09189
:1047500013021995FF91EF91BF91AF919F918F91A6
:104760007F916F915F914F913F912F910F900BBE71
:104770000F900FBE0F901F9018951F920F920FB6BB
:104780000F9211240BB60F922F933F934F935F9389
:104790006F937F938F939F93AF93BF93EF93FF9309
:1047A000E0911002F09111021995FF91EF91BF91E4
:1047B000AF919F918F917F916F915F914F913F91B9
:1047C0002F910F900BBE0F900FBE0F901F9018955A
:1047D0001F920F920FB60F9211240BB60F922F93C8
:1047E0003F934F935F936F937F938F939F93AF9379
:1047F000BF93EF93FF93E0911A02F0911B0219957A
:10480000FF91EF91BF91AF919F918F917F916F91A8
:104810005F914F913F912F910F900BBE0F900FBE64
:104820000F901F9018951F920F920FB60F921124A0
:104830000BB60F922F933F934F935F936F937F939A
:104840008F939F93AF93BF93EF93FF93E0911802E1
:10485000F09119021995FF91EF91BF91AF919F913E
:104860008F917F916F915F914F913F912F910F9019
:104870000BBE0F900FBE0F901F9018951F920F92B6
:104880000FB60F9211240BB60F922F933F934F93B5
:104890005F936F937F938F939F93AF93BF93EF93A8
:1048A000FF93E0911602F09117021995FF91EF9195
:1048B000BF91AF919F918F917F916F915F914F9138
:1048C0003F912F910F900BBE0F900FBE0F901F9036
:1048D00018951F920F920FB60F9211240BB60F92DC
:1048E0002F933F934F935F936F937F938F939F93F8
:1048F000AF93BF93EF93FF93E0911402F0911502F1
:104900001995FF91EF91BF91AF919F918F917F91F9
:104910006F915F914F913F912F910F900BBE0F9030
:104920000FBE0F901F9018951F920F920FB60F9207
:1049300011240BB60F922F933F934F935F936F9376
:104940007F938F939F93AF93BF93CF93EF93FF93F7
:104950008091C10080688093C1008091C10088600F
:104960008093C100C091C600809188068E7F80939D
:10497000880680910704843658F0E9E9F3E084E67C
:10498000DF011D928A95E9F7109207040E948909B8
:10499000E0910704E33020F080919A0380930904AA
:1049A00081E08E0F80930704F0E0E756FC4FC08350
:1049B0009091090489136BC090919903913009F08B
:1049C0005AC040EA5FE060E070E04093890650938F
:1049D0008A0660938B0670938C0640938D065093E5
:1049E0008E0660938F067093900627EE32E2309326
:1049F00093062093920610929106909194069360EC
:104A00009B7F9093940650E040E090E0BC016150A1
:104A10007109252F30E0261737073CF427563C4F05
:104A2000F9012081420F5F5FF4CF88569C4FDC0173
:104A30008C9160E048131CC085EE92E20E94BF0397
:104A4000109207040E948909FF91EF91CF91BF91C5
:104A5000AF919F918F917F916F915F914F913F9116
:104A60002F910F900BBE0F900FBE0F901F901895B7
:104A700080E699E0E3CFE9E9F3E084E6DF011D9207
:104A80008A95E9F7109207040E948909D9CF8AE034
:104A900090E0A0E0B0E080937D0690937E06A09326
:104AA0007F06B09380068093810690938206A09340
:104AB0008306B093840687EE92E2909387068093F4
:104AC0008606109285068091880681608D7F8B7F97
:104AD00080938806B7CF1F920F920FB60F921124C2
:104AE0000BB60F92FF920F931F932F933F934F9309
:104AF0005F936F937F938F939F93AF93BF93CF9366
:104B0000DF93EF93FF93C1E7D6E010E000E08CE085
:104B1000F82EF09EF001F19EF00D1124E458F94FAB
:104B2000808180FF23C08C819D81AE81BF810197F0
:104B3000A109B1098C839D83AE83BF83892B8A2B06
:104B40008B2BA1F480818460808381FF2DC08881BC
:104B50009981AA81BB818C839D83AE83BF83898524
:104B60009A85009719F068850E94BF030F5F1F4F59
:104B70002C960F31110569F6FF91EF91DF91CF91DE
:104B8000BF91AF919F918F917F916F915F914F9165
:104B90003F912F911F910F91FF900F900BBE0F909F
:104BA0000FBE0F901F9018958E7F8083D8CF1F92D5
:104BB0000F920FB60F9211240BB60F922F933F93C3
:104BC0004F935F936F937F938F939F93AF93BF9315
:104BD000EF93FF93F0E0E0E01995FF91EF91BF9123
:104BE000AF919F918F917F916F915F914F913F9185
:104BF0002F910F900BBE0F900FBE0F901F90189526
:104C00001F920F920FB60F9211240BB60F922F9393
:104C10003F934F935F936F937F938F939F93AF9344
:104C2000BF93EF93FF93F0E0E0E01995FF91EF91D0
:104C3000BF91AF919F918F917F916F915F914F91B4
:104C40003F912F910F900BBE0F900FBE0F901F90B2
:104C50001895FC0117821086108289E0838381E019
:104C60008483858386831182168A158A8FEF838BCE
:104C7000148A7287618708951F93CF93DF93EC01A5
:104C8000162F60E0812F0E94CA05612F70E0FB01A2
:104C9000EC59FC4FE491E883FB01E25EFC4FE491A8
:104CA000F0E0EE0FFF1FEC5FFC4F859194919A832B
:104CB00089831B861D861C861A86198618861F8284
:104CC0001E821D821C821B82DF91CF911F9108954D
:104CD000CF93DF93EC01862F698361E00E94CA05C0
:104CE000CE01DF91CF910C945C0ECF93DF93EC015A
:104CF000862F49836A832B831C8220E830E03E8321
:104D00002D83411103C061E00E94CA05CE01DF91ED
:104D1000CF910C9469114F925F926F927F928F9214
:104D20009F92AF92BF92FF920F931F93CF93DF9307
:104D3000CDB7DEB72F970FB6F894DEBF0FBECDBF4D
:104D4000E1E7F6E085EE97E010821182128213828D
:104D50001482158216821782108612861186138697
:104D60003C968E179F0781F7109286041092870455
:104D700010928804F89480917A00806880937A0079
:104D80007894F89480917A008E7F80937A00809155
:104D90007A00866080937A007894F89480917C0001
:104DA0008F7780937C0080917C00806480937C006E
:104DB00078946FE389E595E00E943C2669E575E00B
:104DC00082E495E00E9429266EE384E395E00E9448
:104DD0003C2664E375E08DE195E00E94292661E4BC
:104DE0008FE095E00E943C266FE075E088EF94E04C
:104DF0000E94292660E48AEE94E00E943C266AEE36
:104E000074E083ED94E00E94292663E485EC94E04D
:104E10000E943C2665EC74E08EEA94E00E9429260C
:104E200062E480EA94E00E943C2660EA74E089E84B
:104E300094E00E94292682E090E09093720580938E
:104E4000710527E635E03093740520937305909340
:104E50007A05809379058CE695E090937C058093A4
:104E60007B0588E38093810510928305109282056B
:104E700084E190E090938505809384052BE3209353
:104E80008605109288051092870590938A05809375
:104E900089052AE320938B0510928D0510928C05CD
:104EA00090938F0580938E052DE3209390051092AB
:104EB0009205109291059093940580939305E5E9EE
:104EC000F5E08DE096E01082118212821382148246
:104ED000158216821782138A74968E179F0799F788
:104EE00085E0F82EF09233061092340610923506C3
:104EF00010923606109238061092370610923D0630
:104F000010923E061092400610923F0610924506FF
:104F100010924606109247068AE090E090933A0677
:104F20008093390690933C0680933B068FE090E097
:104F300090934206809341069093440680934306E3
:104F40001092480680E180930F0689E496E09093E2
:104F50006A068093690680E280936B0610926C0665
:104F600010926D0610926E061092700610926F06E7
:104F70001092E6071092E5071092E7071092E907F2
:104F80001092E80765E38AEE97E00E94682664E3E2
:104F90008CEE97E00E9468266FE18EEE97E00E940B
:104FA00068266EE180EF97E00E9468266DE182EF4F
:104FB00097E00E9468266CE184EF97E00E946826E3
:104FC0006BE186EF97E00E9468266AE188EF97E040
:104FD0000E94682611E01093FB078AE08093FC078B
:104FE0001093FD071092FE0790E8A92EB12CB09205
:104FF0000008A092FF078AEF97E00E9469111093C2
:10500000020889E08093030882E0809304081092EC
:105010000508B0920708A092060881E098E00E9477
:1050200069111093090808E000930A0884E080934E
:105030000B0810920C08B0920E08A0920D0888E0A0
:1050400098E00E946911109310088BE0809311087A
:10505000F092120810921308B0921508A09214084A
:105060008FE098E00E94691123E040E069E186E169
:1050700098E00E94752626E040E068E18DE198E026
:105080000E94752627E040E067E184E298E00E94F4
:10509000752628E040E060E18BE298E00E947526EA
:1050A00029E040E06FE082E398E00E9475262AE064
:1050B00040E066E189E398E00E9475262BE040E03D
:1050C00061E180E498E00E9475268EE080934708B5
:1050D0001092480861E00E94CA0587E498E00E94A7
:1050E000560E8DE08093490810924A0861E00E94B4
:1050F000CA0589E498E00E94560E8CE080934B0824
:1051000010924C0861E00E94CA058BE498E00E946E
:10511000560EEAE3F2E0F0934E08E0934D0884E483
:1051200092E09093500880934F08009351088DEDC2
:1051300096E0909353088093520886EF96E19093FF
:1051400055088093540810925608109258081092EF
:10515000570810925A081092590810925C08109241
:105160005B081092690810926A0810926B081092FE
:105170006C081092750810927608109278081092B8
:10518000770810927C0810927B0810927D0810928C
:105190007E0810927F08109280082DEC422E2CEC95
:1051A000522E652C2DE3722E409271085092720897
:1051B000609273087092740834E6832E912CA12CAF
:1051C000B12C80926D0890926E08A0926F08B092F8
:1051D000700840E050E060EA70E440935D0850934E
:1051E0005E0860935F087093600880E090E0A0E440
:1051F000B0E48093610890936208A0936308B09331
:1052000064088093650890936608A0936708B0933C
:1052100068081092840800938C0810928D081092F0
:10522000960810928E0810928F0810929008109293
:10523000910810929208109293081092940810927C
:105240009508109297081092980828E030E0309363
:105250007A0820937908F0939A08E0939908ECE390
:10526000F2E0F0939C08E0939B0800939D08E1ED29
:10527000F6E0F0939F08E0939E08E4EEF6E1F093E9
:10528000A108E093A0081092A2081092A40810921E
:10529000A3081092A6081092A5081092A8081092D0
:1052A000A7081092B5081092B6081092B70810928D
:1052B000B8081092C1081092C4081092C308109246
:1052C000C8081092C7081092C9081092CA08109214
:1052D000CB081092CC084092BD085092BE08609254
:1052E000BF087092C0088092B9089092BA08A09244
:1052F000BB08B092BC084093A9085093AA086093D9
:10530000AB087093AC088093AD089093AE08A0935F
:10531000AF08B093B0088093B1089093B208A093FF
:10532000B308B093B4081092D0080093D808109234
:10533000D9081092E2081092DA081092DB08109255
:10534000DC081092DD081092DE081092DF0810923F
:10535000E0081092E1081092E3081092E40810931C
:10536000C2083093C6082093C5081092E508198634
:1053700086E489838A8398EC9B839CED9C838D8350
:105380008E83FF829EE19887FA869B872EEE32E01D
:105390003D872C8722E330E03F872E879FE0FE0188
:1053A0003196A6EFB8E001900D929A95E1F7109230
:1053B0000709109209091092080910920B0910921E
:1053C0000A0910920C0910920D0910920E09109200
:1053D000100910920F09109211098093050980930A
:1053E00006098AEF97E0909313098093120981E0F0
:1053F00098E0909315098093140910E8109316090A
:105400001092170910921809109219098AEF97E063
:105410000E94691180911409909115090E946911E7
:1054200088E098E090931B0980931A098FE098E038
:1054300090931D0980931C0910931E0910921F0957
:10544000109220091092210988E098E00E946911C9
:1054500080911C0990911D090E94691110922209E6
:105460002F960FB6F894DEBF0FBECDBFDF91CF9160
:105470001F910F91FF90BF90AF909F908F907F9062
:105480006F905F904F900895789484B5826084BD4A
:1054900084B5816084BD85B5826085BD85B5816038
:1054A00085BD80916E00816080936E0010928100B6
:1054B0008091810082608093810080918100816071
:1054C0008093810080918000816080938000809132
:1054D000B10084608093B1008091B00081608093BE
:1054E000B000809191008260809391008091910042
:1054F0008160809391008091900081608093900002
:105500008091A10082608093A1008091A1008160C0
:105510008093A1008091A00081608093A000809181
:10552000210182608093210180912101816080931B
:1055300021018091200181608093200180917A0077
:10554000846080937A0080917A00826080937A00F0
:1055500080917A00816080937A0080917A008068DF
:1055600080937A001092C1002FEF83ED90E32150D9
:1055700080409040E1F700C000001092C1001092FE
:10558000C00086E08093C2001092C50087E6809339
:10559000C40088E98093C1000E948909809120019C
:1055A0008C7F8093200189E1809321018FE79EE326
:1055B0009093270180932601809121018770809329
:1055C000FD03809173008260809373008DE498E006
:1055D0000E94320C89E998E00E94320C80ED97E03D
:1055E000A0E0B0E08093A9079093AA07A093AB072F
:1055F000B093AC078093AD079093AE07A093AF072D
:10560000B093B0078AE29CE09093B3078093B2070F
:105610001092B1078091B40783608B7F8093B407A9
:1056200061E08FE10E94CA0561E08EE10E94CA0537
:105630001092100680911F0690912006892B31F45C
:1056400088EE93E09093200680931F0680911F06BA
:1056500090912006B0E0A0E08093710690937206CE
:10566000A0937306B09374068093750690937606A4
:10567000A0937706B093780685E390E190937B063C
:1056800080937A061092790680917C0683608B7FE6
:1056900080937C0662E082E10E94CA0562E083E1B9
:1056A0000E94CA0562E081E20E94CA0562E080E2CF
:1056B0000E94CA0562E085E40E94CA0562E084E4B3
:1056C0000E94CA0562E083E20E94CA0562E082E2AB
:1056D0000E94CA0562E475E085E995E00E947310B6
:1056E0006DE175E089EA95E00E94731068EF74E05F
:1056F0008DEB95E00E94731063ED74E081ED95E011
:105700000E9473106EEA74E085EE95E00E947310BB
:1057100069E874E089EF95E00E9473104BE756E06A
:1057200062E180917305909174050E94FB0D43E83E
:1057300056E063E180917B0590917C050E94FB0D12
:1057400084E190E0909378058093770590938005AD
:1057500080937F0548EE53E060E070E0409395064B
:105760005093960660939706709398064093990617
:1057700050939A0660939B0670939C0625E938E047
:1057800030939F0620939E0610929D062091A006BE
:1057900023602B7F2093A00690938505809384053A
:1057A00090938A058093890590938F0580938E0549
:1057B00080911D0690911E06892B31F484E690E0BD
:1057C00090931E0680931D0680911D0690911E06E3
:1057D000B0E0A0E08093E9069093EA06A093EB0680
:1057E000B093EC068093ED069093EE06A093EF063F
:1057F000B093F00682E59BE09093F3068093F20667
:105800001092F1068091F40683608B7F8093F406FA
:1058100084E190E0A0E0B0E080939D0790939E0724
:10582000A0939F07B093A0078093A1079093A2072E
:10583000A093A307B093A4078BE69DE09093A707DE
:105840008093A6071092A5078091A80783608B7F9D
:105850008093A80780910F06846080930F0680E2F2
:1058600092E00E94F30260E08CE097E10E94BF03A7
:1058700083E0E82EC0E0D0E0909186048091870418
:10588000981324C080918804882329F19FB7F89445
:10589000E091860480918704E81719F181E08E0F6A
:1058A00080938604EE9DF0011124E25FFB4F00819E
:1058B0001181F280883211F4109286049FBF011585
:1058C000110549F08F2DF801199505C09817F0F2D0
:1058D000885D8913DBCFA895209771F20E940000A4
:1058E000CBCF80918804882349F381E08E0F809389
:1058F0008604EE9DF0011124E25FFB4F00811181CF
:10590000F280883211F41092860410928804D6CF67
:1059100097FB072E16F4009407D077FD09D00E945C
:10592000A42C07FC05D03EF4909581959F4F0895D7
:10593000709561957F4F0895EE0FFF1F881F8BBFF5
:105940000790F691E02D1994AA1BBB1B51E107C0EB
:10595000AA1FBB1FA617B70710F0A61BB70B881FFF
:10596000991F5A95A9F780959095BC01CD0108958E
:105970005058BB27AA270E94D02C0C944A2E0E9474
:105980003C2E38F00E94432E20F039F49F3F19F44A
:1059900026F40C94392E0EF4E095E7FB0C94332E8C
:1059A000E92F0E945B2E58F3BA176207730784072A
:1059B000950720F079F4A6F50C947D2E0EF4E09571
:1059C0000B2EBA2FA02D0B01B90190010C01CA01B9
:1059D000A0011124FF27591B99F0593F50F4503E64
:1059E00068F11A16F040A22F232F342F4427585F56
:1059F000F3CF469537952795A795F0405395C9F76E
:105A00007EF41F16BA0B620B730B840BBAF0915025
:105A1000A1F0FF0FBB1F661F771F881FC2F70EC0C4
:105A2000BA0F621F731F841F48F487957795679597
:105A3000B795F7959E3F08F0B0CF9395880F08F083
:105A40009927EE0F9795879508950E940F2E08F4D9
:105A500081E008950E943E2D0C944A2E0E94432E10
:105A600058F00E943C2E40F029F45F3F29F00C943E
:105A7000332E51110C947E2E0C94392E0E945B2EE5
:105A800068F39923B1F3552391F3951B550BBB276D
:105A9000AA2762177307840738F09F5F5F4F220FB2
:105AA000331F441FAA1FA9F335D00E2E3AF0E0E8A9
:105AB00032D091505040E695001CCAF72BD0FE2FF3
:105AC00029D0660F771F881FBB1F26173707480787
:105AD000AB07B0E809F0BB0B802DBF01FF2793583F
