:100000000C94CB030C9451410C9426410C94FB406E
:100010000C94D0400C94A5400C947A400C944F4022
:100020000C9424400C94FC030C94FC030C94FC03EF
:100030000C94FC030C94FC030C94FC030C94FC0344
:100040000C94FC030C94FC030C94FC030C94FC0334
:100050000C94FC030C94FC030C94FC030C94DA3F0A
:100060000C94FC030C94DC410C94FC030C94FC03F6
:100070000C941F430C9448430C94FC030C94FC0315
:100080000C94FC030C94FC030C94FC030C94FC03F4
:100090000C94FC030C94FC030C94FC030C94FC03E4
:1000A0000C94FC030C94FC030C94FC030C94FC03D4
:1000B0000C94FC030C94FC030C94FC030C94B342CE
:1000C0000C94FC030C94FC030C94FC030C94A641CC
:1000D0000C947C410C94FC030C94FC030C94FC03E6
:1000E0000C94FC030C9445120C94582A0C94910A1D
:1000F0000C94F8270C94CE3B0C94FE3E0C94A90A69
:100100000C9433090C94B3300C9455090C94B7300B
:100110000C941C1D0C948A2F0C94D53B0C949617B0
:100120000C94A40A0C94403C0C94591C0C94DC12C2
:100130000C9438260C9470230C948D0A0C94852B07
:100140000C94A50A0C94B1280C946E0A0C94F23B02
:100150000C94F33E0C949D180C949B0A0C94AD30B7
:100160000C9426040C94412E0C94203F0C94760A97
:100170000C94B1300C9481270C9465260C94701269
:100180000C941C3F0C9483090C94D7120C94F60F1A
:100190000C94C0230C94E8270C94830A0C944D1BF8
:1001A0000C94383C0C94C3120C947F2D0C94B60F15
:1001B0000C9479240C94C01B0C945B0D0C94871147
:1001C0000C94E81A0C9402240C94EB090C94640A25
:1001D0000C94AB2A0C94063C0C9416170C94AF307C
:1001E0000C9473100C946B0D0C949E230C94A5121C
:1001F0000C94B5300C94DC270C94DB3B0C94CD12A2
:100200000C948C0D0C9478120C9446250C94F716D3
:100210000C943C120C944A120C94E93B0C948B26DF
:100220000C9421290C94C02C0C940B240C94EF26D4
:100230000C947B0D0C94B9300C948A230C942024DC
:100240000C9458250C94790A0C94830D0C946A0A2A
:100250000C94A8200C94B20F0C94323C0C945412C1
:100260000C944B110C94772C0C94FD3B0C94E53EB4
:100270000C94730D0C94733C0C94EC240C948C1221
:100280000C94720A0C94BD240C9447090C947F0AB8
:100290000C94DF200C941C260C94C0250C94B912ED
:1002A0000C94ED230C94EE0F0C94F7230C94EC18A3
:1002B0000C9424090C946E3C0C94970A0C943C1DED
:1002C0000C94890A0C9496120C9453230C94C81520
:1002D0000C945E120C94C42E0C945D1D0C94953FEE
:1002E0000C948B0D0C94C6430C9404280C94B427E6
:1002F0000C94AF120C94183F0C94432E0C9468127B
:100300000C949F0A0C944E2E0C94821220E286923A
:100310000020E286980020E286970020E29AA00062
:10032000202074616E3A200020206970436F756E42
:10033000743A200020206970436F756E743A200073
:1003400020207076506B436F756E743A2000202029
:100350007076506B3A2000202070763A20002020E2
:100360006F75743A2000207365633A200020205492
:10037000643A200020204B643A2000202054693A3F
:10038000200020204B693A200020204B703A2000AA
:100390004D697865645F504900436F68656E436FCF
:1003A0006F6E5F5049004E6F4F76657273686F6F66
:1003B000745F50490044616D7065645F5049005A34
:1003C0004E5F5049004D697865645F504944004371
:1003D0006F68656E436F6F6E5F504944004E6F4F9C
:1003E00076657273686F6F745F5049440044616D45
:1003F0007065645F504944005A4E5F504944002084
:1004000054756E696E67204D6574686F643A20009C
:1004100020286C6F772073616D706C652072617439
:100420006529002028676F6F642073616D706C65AB
:1004300020726174652900205461752F53616D70BD
:100440006C6520506572696F643A200020286469E9
:1004500066666963756C7420746F20636F6E747266
:100460006F6C290020286176657261676520636F73
:100470006E74726F6C6C6162696C697479290020AA
:10048000286561737920746F20636F6E74726F6C6E
:100490002900205461752F446561642054696D659D
:1004A0003A20202020200020546175205365633AB3
:1004B00020202020202020202020200020446561B2
:1004C000642054696D65205365633A202020202004
:1004D000002050726F63657373204761696E3A2024
:1004E00020202020200020507620446966663A2093
:1004F0002020202020202020202000205076204D69
:10050000696E3A202020202020202020202020005A
:10051000205076204D61783A202020202020202075
:1005200020202020002050762053746172743A20DD
:1005300020202020202020202000204970205076DC
:100540003A202020202020202020202020200020B1
:10055000E286930020E286910020497020536C6F60
:1005600070653A20202020202020202020002049D3
:1005700070205365633A2020202020202020202056
:100580002020002053616D706C65205365633A2014
:100590002020202020202000204F757470757420AA
:1005A000537465703A2020202020202000204F75B1
:1005B000747075742053746172743A202020202066
:1005C00020007265766572736535540072657665D4
:1005D00072736549500064697265637435540064D0
:1005E000697265637449500020436F6E74726F6C5A
:1005F0006C657220416374696F6E3A20002041423D
:100600004F52543A207076496E7374203E206553E1
:10061000746F70002020736574746C696E6720209D
:10062000E2A4B3E2A4B300202070763A2000202098
:100630006F75743A2000207365633A2000204142B0
:100640004F52543A207076496E7374203E206553A1
:10065000746F7000005EBCE2613FDD83C29C7E204F
:10066000A3FD1F41009D23BE46DB65F88C11AF3210
:10067000CA57E97400002100240027002A002D0039
:100680003000330001010000040107010A010000ED
:100690002200250028002B002E003100340002012A
:1006A0000000050108010B010000200023002600C6
:1006B00029002C002F003200000100000301060178
:1006C00009010505050507050808080802020202D8
:1006D0000A0A0808040404040101010101010101DE
:1006E0000303030303030303040707070C0C0C0CA9
:1006F0000C0C0C0C02020202060606060606060692
:100700000B0B0B0B0B0B0B0B01021020200808101E
:100710002040102040800201020108040201010271
:10072000040810204080804020100804020180044A
:1007300002018040201008040201080402010102A5
:1007400004081020408001020408102040800000AE
:100750000A0B02090C0D0E0807030401000000003B
:100760000000000000000000000000000000000089
:100770000000000000000000000012111000000046
:100780000000000000000000000000000000000069
:1007900000000000C64311241FBECFEFD1E2DEBF30
:1007A000CDBF00E00CBF13E0A0E0B2E0E2E8F1EA68
:1007B00000E00BBF02C007900D92A634B107D9F735
:1007C0002AE0A6E4B3E001C01D92A63EB207E1F71D
:1007D00013E0CBECD3E000E006C021970109802FA5
:1007E000FE010E94FF4CCA3CD10780E00807A9F730
:1007F0000E943D490C94BF500C94000080E197E2A8
:10080000A0E0B0E08093F0079093F107A093F20787
:10081000B093F3078093F4079093F507A093F6073E
:10082000B093F70786E294E09093FA078093F90774
:100830001092F807EBEFF7E0808181608D7F8B7F6E
:1008400080831092E2061092E306089581E080937F
:10085000E1060895E5EDF5E040AD51AD62AD73AD53
:10086000DC014D935D936D937D93CD017896B6E059
:10087000E536FB0789F708954F925F926F927F925A
:100880008F929F92AF92BF92CF92DF92EF92FF92A0
:10089000CF938090140990901509A0901609B090FC
:1008A000170920E030E040E05FE3C501B4010E9499
:1008B0001F4F9B01AC0160E070E080E89FE30E9465
:1008C0008D4D6B017C01C091AF08C11109C0C09270
:1008D0000809D0920909E0920A09F0920B0922C096
:1008E00020E030E040E151E460911009709111097D
:1008F00080911209909113090E948D4D9B01AC01CA
:1009000060E070E080E89FE30E948D4D2B013C0188
:10091000C130F1F4409208095092090960920A0925
:1009200070920B09609108097091090980910A0978
:1009300090910B09CF91FF90EF90DF90CF90BF90F7
:10094000AF909F908F907F906F905F904F900895A1
:10095000C23009F4BCCF20E030E040E850E4C501EB
:10096000B4010E941F4F4B015C0160911809709106
:10097000190980911A0990911B099B01AC010E94F1
:100980001C4D20E030E040E351E40E941C4D9B01EF
:10099000AC01C501B4010E948D4D9B01AC0160E02A
:1009A00070E080E89FE30E948D4D4B015C01C330F5
:1009B00049F48092080990920909A0920A09B0921C
:1009C0000B09B0CFC430E9F4A3019201C701B6010D
:1009D0000E941C4DA70196010E941C4DA501940187
:1009E0000E941C4D20E030E040E85EE30E941F4F73
:1009F000609308097093090980930A0990930B0981
:100A000091CF109208091092090910920A091092C8
:100A10000B0988CF4F925F926F927F928F929F9235
:100A2000AF92BF92CF92DF92EF92FF92CF93DF937C
:100A3000CDB7DEB761970FB6F894DEBF0FBECDBF5E
:100A40008090140990901509A0901609B09017098C
:100A5000A5019401C501B4010E941C4D9B01AC018C
:100A600060E070E080E89FE30E948D4D2B013C0127
:100A70008091AF08898B811109C04092040950927E
:100A8000050960920609709207092FC0809110092C
:100A900090911109A0911209B091130989839A8349
:100AA000AB83BC8326E636E646E650E4BC01CD01C6
:100AB0000E948D4D9B01AC0160E070E080E89FE3F7
:100AC0000E948D4D6D837E838F83988799899130A5
:100AD00049F58D819E81AF81B885809304099093FB
:100AE0000509A0930609B093070960910409709164
:100AF0000509809106099091070961960FB6F8944F
:100B0000DEBF0FBECDBFDF91CF91FF90EF90DF90A2
:100B1000CF90BF90AF909F908F907F906F905F909D
:100B20004F90089529813A814B815C8160E070E0AB
:100B300080E89FE30E948D4D69877A878B879C8729
:100B40009989923029F489859A85AB85BC85C5CF72
:100B5000C0901809D0901909E0901A09F0901B096B
:100B600020E030E040E450E4C701B6010E941F4F8E
:100B700020E030E040EF51E40E941C4DA5019401BB
:100B80000E941F4F6D877E878F87988B20E030E013
:100B900040EA51E4C701B6010E941F4F20E030E057
:100BA00040E151E40E941C4D9B01AC016D857E85A6
:100BB0008F8598890E948D4D9B01AC0160E070E0AB
:100BC00080E89FE30E948D4D6B017C0199899330F1
:100BD00049F4C0920409D0920509E0920609F09206
:100BE000070983CFA989A43009F52D813E814F8162
:100BF0005885C301B2010E941C4D29853A854B8559
:100C00005C850E941C4DA70196010E941C4D20E0AE
:100C100030E040E85EE30E941F4F60930409709348
:100C2000050980930609909307095FCF2AEC34E504
:100C300045E550E4C501B4010E941F4F9B01AC0182
:100C400060E070E080E89FE30E948D4D4B015C0105
:100C5000B989B53049F48092040990920509A092AF
:100C60000609B092070941CF26E636E646E250E48F
:100C700069817A818B819C810E948D4D9B01AC01A1
:100C800060E070E080E89FE30E948D4D2B013C0105
:100C90008989863009F4F1CE2AE939E949E95FE327
:100CA00069817A818B819C810E941F4F9B01AC01DD
:100CB00060E070E080E89FE30E948D4D69837A8355
:100CC0008B839C839989973029F489819A81AB81A0
:100CD000BC8103CF9989983009F47BCFA30192019D
:100CE000C501B4010E941C4D29813A814B815C8170
:100CF00088CF4F925F926F927F928F929F92AF9226
:100D0000BF92CF92DF92EF92FF92CF93DF93CDB756
:100D1000DEB769970FB6F894DEBF0FBECDBFC090A7
:100D20001009D0901109E0901209F09013098091F8
:100D30000C0990910D09A0910E09B0910F098983BA
:100D40009A83AB83BC838090140990901509A0907E
:100D50001609B0901709A5019401BC01CD010E94AC
:100D60001F4F2B013C012AE939E949E95FE3C7013B
:100D7000B6010E941F4FA30192010E948D4D20E0F9
:100D800030E040E05FE30E941F4F69877A878B87DE
:100D90009C879091AF08998F911129C089859A8578
:100DA000AB85BC858093000990930109A09302094B
:100DB000B0930309609100097091010980910209C3
:100DC0009091030969960FB6F894DEBF0FBECDBFB0
:100DD000DF91CF91FF90EF90DF90CF90BF90AF90D9
:100DE0009F908F907F906F905F904F90089523EC2D
:100DF00035EF48E25FE3C701B6010E941F4FA30130
:100E000092010E948D4D6D877E878F87988B998D7B
:100E1000913029F48D859E85AF85B889C3CFA50112
:100E20009401C701B6010E948D4D698B7A8B8B8B23
:100E30009C8B29813A814B815C816AE979E989E15E
:100E40009FE30E948D4D29893A894B895C890E94D4
:100E50001F4F6D8B7E8B8F8B988F998D923029F4DD
:100E60008D899E89AF89B88D9DCF80911809909109
:100E70001909A0911A09B0911B098D839E83AF8334
:100E8000B88720E030E040E85EE3BC01CD010E947D
:100E90001F4F21E73DE34AEA5FE30E941C4D298191
:100EA0003A814B815C810E941F4F4B015C01998DFF
:100EB000933049F48092000990920109A0920209AE
:100EC000B092030977CFA98DA430D9F42D853E8542
:100ED0004F85588969857A858B859C850E941C4D34
:100EE0002D893E894F89588D0E941C4DA501940182
:100EF0000E941C4D20E030E040E85EE30E941F4F5E
:100F00006CC026E636E646E65FE3C701B6010E94FE
:100F10001F4FA30192010E948D4D20E030E040E080
:100F20005FE30E941F4F4B015C01B98DB53011F298
:100F300024EA30E74DEF5EE3C701B6010E941F4F80
:100F4000A30192010E948D4D2B013C01898D8630B9
:100F500049F440920009509201096092020970928E
:100F6000030928CF29813A814B815C8163E373E3D4
:100F700083EB9EE30E948D4D29893A894B895C89D8
:100F80000E941F4F6B017C01998D973049F4C092EC
:100F90000009D0920109E0920209F09203090ACFF8
:100FA00020E030E040E451E46D817E818F819885BE
:100FB0000E948D4D26E636E646E65FE30E941C4D14
:100FC00029813A814B815C810E941F4F69837A831A
:100FD0008B839C83A98DA83049F46093000970939A
:100FE00001098093020990930309E4CEA3019201C1
:100FF000C501B4010E941C4DA70196010E941C4D21
:1010000029813A814B815C8173CF8091AF0988231C
:1010100009F446C081E090E09093AE098093AD0959
:101020001092C50A1092C70A1092C60A1092CB0AF3
:101030001092C90A1092C80A1092CA0A8091B80A7E
:101040008093C30A8091B90A8093C40A1092CE0A91
:101050001092CD0A1092CF0A1092270A1092280AF5
:101060001092290A10922A0A10921A0A1092190A4A
:1010700010923A0A1092390A10924A0A1092730A90
:101080001092740A1092750A1092760A1092660AEB
:101090001092650A1092860A1092850A1092960A9A
:1010A0000895FC0190E1A1EAB6E001900D929A95B5
:1010B000E1F78091AF069091B006B0E0A0E0ECE0DF
:1010C000F7E080839183A283B38384839583A6838F
:1010D000B78388EC95E1928781871086E7E1F7E096
:1010E000808183608B7F808381EA96E09093A50A5C
:1010F0008093A40A84E690E090938C0A80938B0AF4
:101100009093400A80933F0A08951F93CF93DF93F3
:10111000182F1092CC06C1E0D0E0D0939E06C09369
:101120009D0680919F0681608B7F80939F06109221
:10113000E1060E94FE038091AF098B3041F41092CA
:10114000CA061092C906DF91CF911F91089586308B
:1011500029F4D093CA06C093C906F5CF9CEF980F27
:10116000923038F482E090E09093CA068093C906EA
:10117000EACF873029F58091A7069091A806B0E0C4
:10118000A0E080932C0890932D08A0932E08B09394
:101190002F088093300890933108A0933208B093C1
:1011A00033088DE49BE190933608809335081093C3
:1011B00034088091370881608D7F8B7F809337085A
:1011C00083E090E0D1CF9C014FB7F8948091E20486
:1011D000E091E10481111CC081E08E0F8093E10455
:1011E00093E0E99FF0011124E859FB4F31832083FC
:1011F0006283883211F41092E1049091E1048091AD
:10120000E004981303C081E08093E2044FBF089587
:101210009091E0049F5F9832A1F09093E00491E0F8
:101220009E0F9093E10483E0E89FF0011124E859B8
:10123000FB4F318320836283983241F71092E1049F
:10124000E5CF1092E004EBCFFC01538D448D252FA8
:1012500030E0842F90E0821B930B541710F0CF9650
:10126000089501970895FC01918D828D981761F082
:10127000A28DAE0FBF2FB11D5D968C91928D9F5F99
:101280009F73928F90E008958FEF9FEF0895FC0178
:10129000918D828D981731F0828DE80FF11D858D2B
:1012A00090E008958FEF9FEF0895FC01918D228DBE
:1012B000892F90E0805C9F4F821B91098F73992743
:1012C0000895FC01A48DA80FB92FB11DA35ABF4FDB
:1012D0002C91848D90E001968F739927848FA68935
:1012E000B7892C93A089B1898C91837080648C9389
:1012F000938D848D981306C00288F389E02D808138
:101300008F7D80830895EF92FF920F931F93CF9369
:10131000DF93EC0181E0888F9B8D8C8D98131AC030
:10132000E889F989808185FF15C09FB7F894EE8917
:10133000FF896083E889F989808183708064808374
:101340009FBF81E090E0DF91CF911F910F91FF90BF
:10135000EF900895F62E0B8D10E00F5F1F4F0F7367
:101360001127E02E8C8D8E110CC00FB607FCFACF22
:10137000E889F989808185FFF5CFCE010E94610956
:10138000F1CFEB8DEC0FFD2FF11DE35AFF4FF082F3
:101390009FB7F8940B8FEA89FB8980818062CFCF59
:1013A0000F931F93CF93DF938C01D0E0C0E0F8013F
:1013B000EC0FFD1F6491662341F08BEC93E00E94DB
:1013C0008309892B11F02196F2CFCE01DF91CF91C5
:1013D0001F910F910895CF93DF93EC01888D88239F
:1013E000B9F0AA89BB89E889F9898C9185FD03C088
:1013F000808186FD0DC00FB607FCF7CF8C9185FF6D
:10140000F2CF808185FFEDCFCE010E946109E9CF47
:10141000DF91CF9108958BEC93E00E94550921E074
:10142000892B09F420E0822F089580E090E0892B39
:1014300049F080E090E0892B29F00E9400008111A2
:101440000E94000080E090E0892B49F080E090E06D
:10145000892B29F00E94000081110E94000080E089
:1014600090E0892B29F00E940B0A81110E94000054
:1014700080E090E0892B49F080E090E0892B29F012
:101480000E94000081110C94000008958150823167
:1014900008F05AC0E82FF0E08827EE5AF54F8F4F3A
:1014A0000C94FF4C720A760A640A6A0A6E0AA40A4D
:1014B000790A7F0A830A890A8D0A910A970A9B0A88
:1014C000A40A9F0AA50AA90A809180008F778093B9
:1014D00080000895809180008F7DF9CF80918000F9
:1014E000877FF5CF84B58F7784BD089584B58F7DD0
:1014F000FBCF8091B0008F778093B00008958091EA
:10150000B0008F7DF9CF809190008F77809390000D
:101510000895809190008F7DF9CF80919000877F12
:10152000F5CF8091A0008F778093A00008958091DF
:10153000A0008F7DF9CF8091A000877FF5CF8091AB
:1015400020018F77809320010895809120018F7D65
:10155000F9CF80912001877FF5CFCF93DF93282F9C
:1015600030E0F901E25BF84F8491F901E85FF84F50
:10157000D491F901EE53F94FC491CC23A1F081111C
:101580000E94460AEC2FF0E0EE0FFF1FE855F94FDE
:10159000A591B491EC91ED2381E090E009F480E015
:1015A000DF91CF91089580E090E0FACFCF93DF9361
:1015B000EC01188219821A821B821C821D821E82F3
:1015C0001F828EE00E94AD0A9A8180FB90F99A8377
:1015D0008DE00E94AD0A9A8180FB91F99A838CE09C
:1015E0000E94AD0A9A8180FB92F99A83EDEAF9E0B4
:1015F0008881938590FB85F9928990FB86F9918D7E
:1016000090FB87F98883898190A190FB80F9898379
:1016100089E10E94AD0A998180FB91F9998388E163
:101620000E94AD0A998180FB92F9998387E10E941B
:10163000AD0A998180FB93F9998380E10E94AD0AFC
:10164000998180FB94F999838FE00E94AD0A99817A
:1016500080FB95F9998386E10E94AD0A998180FB10
:1016600096F9998381E10E94AD0A998180FB97F9EF
:1016700099838CE20E94AD0A9A8180FB93F99A8348
:101680008EE20E94AD0A9A8180FB94F99A838DE2E2
:101690000E94AD0A9A8180FB95F99A838FE20E949D
:1016A000AD0A9A8180FB96F99A8385E20E94AD0A81
:1016B0009A8180FB97F99A8384E20E94AD0A9B810C
:1016C00080FB90F99B8387E20E94AD0A9B8180FB9F
:1016D00091F99B8386E20E94AD0A9B8180FB92F97F
:1016E0009B8389E20E94AD0A9B8180FB93F99B83D7
:1016F00088E20E94AD0A9B8180FB94F99B838BE278
:101700000E94AD0A9B8180FB95F99B838AE20E942F
:10171000AD0A9B8180FB96F99B8385E30E94AD0A0D
:10172000988180FB90F998838FE10E94AD0A98819F
:1017300080FB92F998838BE10E94AD0A988180FB2F
:1017400091F998838DE10E94AD0A988180FB93F90D
:1017500098838EE10E94AD0A988180FB94F998836A
:10176000DF91CF9108951F93CF93DF93282F30E01F
:10177000F901E25BF84F8491F901E85FF84FD491E9
:10178000F901EE53F94FC491CC23A9F0162F811122
:101790000E94460AEC2FF0E0EE0FFF1FE257F94FD0
:1017A000A591B4918FB7F894EC91111108C0D09520
:1017B000DE23DC938FBFDF91CF911F910895DE2B45
:1017C000F8CF61E08DE10E94B30B61E08EE10C94F3
:1017D000B30BCF93DF9390E0FC01E85FF84F2491C7
:1017E0008E53994FFC0184918823C9F090E0880FB3
:1017F000991FFC01EC58F94FA591B491FC01E257F7
:10180000F94FC591D49161110DC09FB7F8948C9197
:10181000209582238C938881282328839FBFDF9182
:10182000CF910895623051F49FB7F8943C91822F84
:10183000809583238C93E8812E2BEFCF8FB7F8947C
:10184000EC912E2B2C938FBFEACF863308F0865372
:1018500020917B00982F9870277F922B90937B008C
:101860008770806480937C0080917A00806480938C
:101870007A0080917A0086FDFCCF8091780090916B
:10188000790008953FB7F8948091C0039091C10307
:10189000A091C203B091C30326B5A89B05C02F3FFA
:1018A00019F00196A11DB11D3FBFBA2FA92F982F86
:1018B0008827BC01CD01620F711D811D911D42E081
:1018C000660F771F881F991F4A95D1F70895CF9308
:1018D000DF93C4EAD8E081E08A878CA19DA1AEA104
:1018E000BFA1EE85FF8580839183A283B3830E948D
:1018F000420C6093360970933709809338099093AE
:10190000390960933A0970933B0980933C0990939D
:101910003D09109246091092470910924809109209
:1019200049091092420910924309109244091092F9
:10193000450910920C0910920D0910920E0910928F
:101940000F091092100910921109109212091092A9
:101950001309109214091092150910921609109289
:1019600017091092000910920109109202091092B1
:1019700003091092040910920509109206091092A9
:101980000709109208091092090910920A09109289
:101990000B0918AE19AE1AAE1BAE1CAE1DAE1EAEB4
:1019A0001FAE1092E4081092E5081092E60810921B
:1019B000E7081092F0081092F1081092F2081092C5
:1019C000F3081092F4081092F5081092F60810929D
:1019D000F7081092F8081092F9081092FA0810927D
:1019E000FB0888A999A9AAA9BBA98CAB9DABAEABF2
:1019F000BFAB8093FC089093FD08A093FE08B093C2
:101A0000FF088093E8089093E908A093EA08B09350
:101A1000EB08109229091092280910922B091092B4
:101A20002A09109225091092240910922709109270
:101A30002609DF91CF9108958F929F92AF92BF9226
:101A4000CF92DF92EF92FF926B017C010E94420CD9
:101A50004B015C01C114D104E104F104B9F00E940E
:101A6000420C681979098A099B09683E734081050F
:101A7000910580F321E0C21AD108E108F10888EE4F
:101A8000880E83E0981EA11CB11CE4CFFF90EF905C
:101A9000DF90CF90BF90AF909F908F9008952FB719
:101AA000F8946091BC037091BD038091BE03909146
:101AB000BF032FBF0895CF93C091B90381E0C8271A
:101AC000C093B90361E084E30E94E90B6C2F84E3C7
:101AD000CF910C94B30BE1ECF5E0838194810196F6
:101AE000948383830895E1ECF5E0808591850196E8
:101AF000918780870895E1ECF5E0858596850196CC
:101B0000968785870895E1ECF5E0828993890196AF
:101B1000938B828B08950895AF92BF92CF92DF92FC
:101B2000EF92FF920F931F93CF93DF936C017B0192
:101B30008B01040F151FEB015E01AE18BF08C01723
:101B4000D10759F06991D601ED91FC910190F08196
:101B5000E02DC6011995892B79F7C501DF91CF9149
:101B60001F910F91FF90EF90DF90CF90BF90AF90BB
:101B70000895DC0180E0615090F09D919827E92F55
:101B8000EF70F0E0EC5AF94F2491E92FE295EF70F5
:101B9000F0E0EC59F94FE491822F8E27ECCF0895B5
:101BA000DC012C911196ED91FC91F8948181822BAE
:101BB00081839281322F30959323928387E090E046
:101BC0000197F1F781818323818383E290E001977C
:101BD000F1F790817894EFECF0E03197F1F79223F0
:101BE00081E009F480E00895FC0190810180F28198
:101BF000E02D292F209560FF14C0F8948281822364
:101C000082838181892B8183A3E2B0E01197F1F770
:101C10008281982B9283789487ED90E00197F1F779
:101C20000895F8948281822382838181892B818324
:101C3000AFEFB0E01197F1F78281982B92837894FF
:101C40008FE090E0EBCFDF92EF92FF920F931F9324
:101C5000CF93DF93EC01D62EE42E08E010E0FF24B2
:101C6000F39461E08D2D8F2109F460E0CE010E9494
:101C7000F40DFF0C01501109A1F7E11010C0F89408
:101C8000E981FA8191818881809589238183E98125
:101C9000FA81928188818095892382837894DF916B
:101CA000CF911F910F91FF90EF90DF900895EF92E9
:101CB000FF920F931F93CF93DF938C017B0140E042
:101CC00065E50E94230EE70188E0E80EF11C6991AA
:101CD00040E0C8010E94230ECE15DF05C1F7DF9159
:101CE000CF911F910F91FF90EF900895FC0190818B
:101CF0000180F281E02DF8948181292F20958223A3
:101D0000818378943DE743E050E0315029F1DA01D6
:101D10001197F1F780818923C1F3F894828182239E
:101D200082838181892B81837894ABE7B7E0119717
:101D3000F1F7F894818182238183A3E1B1E01197C7
:101D4000F1F78081982381E009F080E07894E3E660
:101D5000F6E03197F1F7089580E008958F929F9211
:101D6000AF92BF92CF92DF92EF92FF920F931F93A9
:101D7000CF93DF9300D01F921F92CDB7DEB78C01B7
:101D8000DC0119968D919C910E94760E40E06CECDE
:101D9000F801818592850E94230ED8014C9164E45C
:101DA00019968D919C910E94230E0E944F0D6B01FC
:101DB0007C01F8018481811120C081E08983CA827D
:101DC000DB82EC82FD8229813A814B815C816D81CD
:101DD00070E080E090E00F900F900F900F900F90C8
:101DE000DF91CF911F910F91FF90EF90DF90CF90F7
:101DF000BF90AF909F908F90089585818823B1F018
:101E00008081811113C0F801818592850E94D00DD7
:101E1000813099F20E944F0D6C197D098E099F093E
:101E20006E3E72408105910570F3C7CFD8011396BD
:101E3000EC91E9508EEE92E0E33038F4F0E0EE0FF2
:101E4000FF1FEA5CFD4F808191814C01B12CA12CD8
:101E5000F8018181882321F060E082810E94B30B28
:101E6000C501B4010E941C0DD80111968C911197E7
:101E7000882309F4A2CF61E012968C910E94B30BE3
:101E80009CCF4F925F926F927F928F929F92AF9270
:101E9000BF92CF92DF92EF92FF920F931F93CF9357
:101EA000DF938C017B01EA01FC01818592850E9410
:101EB000760E8823D9F1B701F801818592850E94B9
:101EC000570E40E06EEBF801818592850E94230E4B
:101ED0006E015E01F9E0AF0EB11C7E01F801818454
:101EE000928488E0682E712C512C44244394C401C0
:101EF0000E94D00D81115428440CF1E06F1A710832
:101F0000B1F7F70151927F01AE16BF0639F7F8011C
:101F1000818592850E94760E813041F4F60181918F
:101F20006F01811105C0EE15FF05C1F790E008C0F3
:101F300068E0CE010E94B90D91E028852813F6CF04
:101F4000892FDF91CF911F910F91FF90EF90DF903C
:101F5000CF90BF90AF909F908F907F906F905F9049
:101F60004F90089581E08093AB090895E5EDF5E089
:101F7000A281B38113968D919C91149714961C9213
:101F80001E9213979583848381E08087A385B4850F
:101F900013962D913C91149714961C921E921397B0
:101FA00036872587818BA489B58913962D913C911D
:101FB000149714961C921E921397378B268B828F40
:101FC000A58DB68D13962D913C91149714961C9265
:101FD0001E92139730A3278F83A3089510925F0753
:101FE000E7ECF3E08081877F808308950C94E10B18
:101FF000CF93DF93A0E0B2E0FD0190E02191319119
:102000002817390721F4EF0122971982188222E05C
:10201000E031F20799F78D919D91892B41F482E08F
:10202000A031B807C1F781E0DF91CF91089580E03A
:10203000FBCFFC0121812150330B70E060E0472F82
:1020400050E0421753073CF4480F591FFA014081F2
:10205000640F7F5FF4CF820F931FFC0160830895AC
:10206000FC0181E08083658385E0828380919F0607
:10207000A0E0B2E020E132E04D915D91452BE1F42A
:102080002A173B07C9F791E08F7E90FF80619091FE
:10209000500390FB81F98383F89490910907809114
:1020A000080791110BC090910707981307C0789407
:1020B000148287E08183089590E0E6CF90E0A091BC
:1020C0000407B0910507A80FB91F2C9101966091E4
:1020D000060770E00E94EB4C8093080710920907F6
:1020E00078942483E6CFCF93DF93CDB7DEB7C45681
:1020F000D1090FB6F894DEBF0FBECDBF66E0CE01AA
:1021000001960E943010CE0101960E941910CC5900
:10211000DF4F0FB6F894DEBF0FBECDBFDF91CF917A
:102120000895CF93DF93EC0167E00E943010CE0159
:10213000DF91CF910C941910E1ECF0E08081806880
:1021400080830895682F660F692F661F81E090E0F5
:102150006F3F11F490E080E00895EF92FF921F939B
:10216000CF93DF93EC0119867C0180E4E80EF11C2B
:10217000F70111829081329680E0981719F0119240
:102180008F5FFBCF1FAE1EAE10E0F70180811817E6
:1021900050F4EA81FB81E10FF11D60E080810E9433
:1021A000B30B1F5FF2CFDF91CF911F91FF90EF90A4
:1021B0000895CF93DF93EC010E94AD10ED81FE8175
:1021C0002F8138858CA99DA9B0E0A0E08083918300
:1021D000A283B38384839583A683B78332872187C1
:1021E0008BE08087838581608D7F8B7F8387DF9104
:1021F000CF910895CF92DF92EF92FF920F931F93AA
:10220000CF93DF9300D000D01F921F92CDB7DEB7DF
:10221000FC018E010F5F1F4F88E0D8011D928A9547
:10222000E9F74285C180E0802E2D30E0842FF12C2B
:10223000DD24D394CF100EC0CF010296B801562FE3
:10224000501B5E1590F4DB015D91BD01DC015D93D7
:10225000CD01F5CF90E0D801A80FB91FDC9201960F
:10226000B9010E94EB4CF394E5CF842F90E00196E6
:10227000B9010E94EB4C828728960FB6F894DEBF16
:102280000FBECDBFDF91CF911F910F91FF90EF90C7
:10229000DF90CF900895FF920F931F93CF93DF931A
:1022A000EC018985882369F18EAD9FAD891728F5EA
:1022B0008F5F8EAF8E01005C1F4FF80190818EAD55
:1022C000981708F4892FF8018183C8010E94FA1039
:1022D000F12CF8018081F816A0F48F2D90E0D80140
:1022E000A80FB91FEA81FB81E80FF91F12966C91C4
:1022F00080810E94B30BF394ECCF9817D8F68150ED
:10230000D8CFDF91CF911F910F91FF9008958BE06F
:102310009AE00E944B1187E59AE00C944B11EF92E2
:10232000FF921F93CF93DF93EC0110E08C8118177D
:10233000A0F4E12EF12CEA81FB81EE0DFF1D61E09E
:1023400080810E94E90BEA81FB81EE0DFF1D60E0B8
:1023500080810E94B30B1F5FE9CFCE01805C9F4F4D
:10236000FC011182DF91CF911F91FF90EF900C94AF
:10237000FA1081E20E94AD0A21E0892B09F420E0E5
:10238000822F0895FC018181861799F0618381E095
:1023900090E0938382838081861751F0662381F0D9
:1023A00084819581228133812817390708F0608361
:1023B0000895828193818F3F980769F30196E9CF51
:1023C00086819781EFCFFC018581882361F086812A
:1023D000882351F00280F381E02D81E02581368150
:1023E000232B09F480E008950190F081E02DF5CFD2
:1023F0000F931F93CF93DF93FC012081222309F4D5
:102400003FC0162FC62FD0E0D683C583028161E07E
:10241000802F0E94E90B209741F460E0802FDF912C
:10242000CF911F910F910C94B30BCF3FD10511F4B5
:1024300061E0F4CFE02FF0E0E25BF84FE491E1508F
:10244000E23108F0B4C0F0E08827E65DFD4E8F4F22
:102450000C94FF4C3C1245124A1254125E12D712D1
:1024600068127012781282128C129612A512AF1294
:10247000D712B912C312CD1284B5806884BD17BDBE
:10248000DF91CF911F910F91089584B5806284BD33
:1024900018BDF6CF80918000806880938000D09333
:1024A0008900C0938800ECCF809180008062809387
:1024B0008000D0938B00C0938A00E2CF809180008F
:1024C000886080938000D0938D00C0938C00D8CF1B
:1024D0008091B00080688093B0001093B300D0CF9B
:1024E0008091B00080628093B0001093B400C8CF98
:1024F00080919000806880939000D0939900C09361
:102500009800BECF80919000806280939000D0931D
:102510009B00C0939A00B4CF809190008860809314
:102520009000D0939D00C0939C00AACF8091A00002
:1025300080688093A0008091A0008F7B8093A00092
:10254000D093A900C093A8009BCF8091A000806287
:102550008093A000D093AB00C093AA0091CF80914C
:10256000A00088608093A000D093AD00C093AC0021
:1025700087CF80912001806880932001D09329012A
:10258000C09328017DCF809120018062809320013B
:10259000D0932B01C0932A0173CF809120018860D2
:1025A00080932001D0932D01C0932C0169CFC038B6
:1025B000D1050CF03DCF31CF0F931F93CF93DF9315
:1025C00083E20E94AD0A8C0182E20E94AD0AEC0116
:1025D00061E0012B09F460E08DEC96E00E94C211ED
:1025E00061E0CD2B09F460E085ED96E00E94C21118
:1025F0008091CD068093DD069091D5069093DE06FE
:1026000023E0911104C022E0811101C021E0209358
:10261000DF062091D50A222309F448C02091DD0A63
:10262000222309F443C02091A30A21113FC099231A
:1026300051F18091B90A8093C40A1092C30A609143
:10264000C30A6093D40A8091D60A882329F1809125
:10265000D20A9091D30A0E94F8116091C40A609343
:10266000DC0A8091DD0A882309F18091DE0A882343
:10267000C1F08091DA0A9091DB0ADF91CF911F912E
:102680000F910C94F8118111D4CF8091B80A8093E6
:10269000C30A1092C40AD3CF8091D00A9091D10A74
:1026A000DACF8091D80A9091D90AE7CFDF91CF9104
:1026B0001F910F910895FC01808181110DC081E06F
:1026C00080838181811104C061E082810C94B30B0D
:1026D0006581CF010C94F8110895CF93DF93EC013D
:1026E000862F68835A8349831C821B8262E00E9482
:1026F000E90B29813A819881923069F43093110273
:102700002093100280916A00836080936A00EC9AA3
:10271000DF91CF910895933059F4309313022093B1
:10272000120280916A008C6080936A00ED9AF0CF6B
:102730008EEE890F843060F787E1891BE82FF0E087
:10274000EE0FFF1FE05FFD4F31832083843091F057
:102750008530B9F0833039F08091690083608093CF
:102760006900E89AD5CF809169008C6080936900F8
:10277000E99ACECF80916900806380936900EA9ADC
:10278000C7CF80916900806C80936900EB9AC0CFBD
:10279000FC01118260E080810C94B30BFC0110827B
:1027A00060E081810C94B30BF89490910907992310
:1027B00059F080910A0790910B07019690930B07AF
:1027C00080930A07789408952091070730E0E091FC
:1027D0000407F0910507E20FF31F8083C9010196FA
:1027E0006091060770E00E94EB4C80930707909180
:1027F00008079813E7CF81E080930907E3CFBF92E2
:10280000CF92DF92EF92FF920F931F93CF93DF93BC
:10281000EC01B62EC72E8D85811105C0CE010E9418
:10282000760E81110EC01B861D861C8680E0DF910E
:10283000CF911F910F91FF90EF90DF90CF90BF90BD
:10284000089540E060EFCE010E94230E01E0E12CEC
:10285000D12C11E0CE010E94D00DF82ECE010E94A5
:10286000D00D91E0F91218C0813099F51134D8F2E9
:10287000DB86D11002C081E08D878B81882399F29D
:102880002396EB2DFC2DCF01089629912193E81773
:10289000F907D9F781E0CBCFEE2DF0E0F8120FC0A9
:1028A0008B851817A0F4DE01AE0FBF1F13968C9115
:1028B000802379F4F12C193008F41C87D12EEC0F09
:1028C000FD1F8381902F9095892383830AC08113F4
:1028D000F1CFFE01EE0DF11D8381802B8383FF2458
:1028E000F3946F2DCE010E94F40D1F5F000F11F4C1
:1028F000E39401E087E08E1508F0ACCFB7CFCF931B
:10290000DF93EB01DC011996ED91FC911A97138688
:1029100015861486128611861086178216821582F5
:102920001482138219968D919C910E94FF13982F07
:10293000882341F067E0CE010E94B90D91E02F811C
:10294000281390E0892FDF91CF9108958F929F9265
:10295000AF92BF92EF92FF920F931F93CF93DF93AB
:10296000CDB7DEB761970FB6F894DEBF0FBECDBF0F
:102970007C01FC0100851185F8018781882309F419
:102980006BC0BE01665F7F4FC8010E947F14882321
:1029900009F462C0AE014F5F5F4FBE01665F7F4FBB
:1029A000C8010E94410F882309F456C08A81812CF6
:1029B000912C540187FF06C0812C912CF8EFAF2E8B
:1029C000BB24BA949A8549819B3309F057C02D8165
:1029D00027FF54C040FD40C0042F10E030E020E04D
:1029E00073E0000F111F221F331F7A95D1F7B90131
:1029F000A801407E57706627772790E0B0E0A0E0FE
:102A00008C019D01EBE0000F111F221F331FEA957F
:102A1000D1F7042B152B262B372B082919292A2906
:102A20003B29013854EE15075FEF25073507A4F061
:102A3000C901B8010E94374E20E030E040E05CE37D
:102A40000E941F4F4B015C0120E030E04EEF52EC42
:102A50000E94884D811158C0F70186899789248981
:102A600035898217930718F40196978B868B812CF2
:102A7000912C8EEFA82E82ECB82E49C0082F10E0C2
:102A8000102F0027110F110F110FF8E04F9FA00119
:102A90001124042B152B012E000C220B330B0829BB
:102AA00019292A293B29903109F0BBCF6885662373
:102AB00009F4B7CF70E08F81AB01481B5109CA01FF
:102AC0009695982F8827979587950E94EB4CCB0178
:102AD000770FAA0BBB0B53E0000F111F221F331FF0
:102AE0005A95D1F700782770332700521109210930
:102AF0003109800F911FA21FB31F95018401082B7C
:102B0000192B2A2B3B2B8DCFF701178A168A81E0D0
:102B1000F70146895789248935894217530708F4F4
:102B200080E0F701838B808591850E94AE0E20E0C6
:102B300030E04EEF52ECC501B4010E94884DF70120
:102B40008823D1F080829182A282B382F7016081D2
:102B500071818281938161960FB6F894DEBF0FBEBA
:102B6000CDBFDF91CF911F910F91FF90EF90BF905C
:102B7000AF909F908F9008958389882339F380E0E8
:102B800090E0AAE7B4EC80839183A283B383DECF85
:102B90008091CB0681508093CB06811118C085E0CF
:102BA0008093CB068091A00628E1829FC00111246A
:102BB000835F994F0E94A6149091A006892F8F5F82
:102BC000F1F39FEF8630D0F78093A00608958DE053
:102BD00096E00E94A614309120062091C80333236A
:102BE00041F0822F80648093C8031092E0060C9419
:102BF000E10B2F7B2093C80320E030E04AE754EC40
:102C00000E94884D882319F081E08093E0060895A2
:102C1000BF92CF92DF92EF92FF920F931F93CF93C9
:102C2000DF93CDB7DEB761970FB6F894DEBF0FBE66
:102C3000CDBF7C018B01DC0119967C936E931897B4
:102C400083E0D82ECC24C394D8011996ED91FC9141
:102C50001A97138615861486128611861086178297
:102C6000168215821482138217961C921797189653
:102C70001C9262E370E080E090E00E941C0DBE01B7
:102C8000665F7F4FF801818592850E94FF1388233C
:102C900009F477C067E0CE010A960E94B90D9989C0
:102CA0008913EDCFD80117968C9117978F5F1796E0
:102CB0008C938A85883231F008F04AC0803111F057
:102CC0008232E9F6F80180858F5F808780818111EB
:102CD00024C0818592850E94760EBE01665F7F4F7B
:102CE000D80119968D919C910E94570E40E064EB9B
:102CF000F801818592850E94230ED80119968D9145
:102D00009C910E94D00DB82EF801818592850E9479
:102D1000760EB11002C0D801CC928A85803119F1AB
:102D2000AE014F5F5F4FBE01665F7F4FC8010E94DB
:102D3000410F882359F08D819A859B3311F487FDCB
:102D400012C08F3391F058F48F31B9F080E00EC08B
:102D50008B3309F4B7CF823409F091CFB3CF8F35DD
:102D600071F08F3799F78CE001C08AE0F801938108
:102D7000981708F084CF838382CF89E0F7CF8BE068
:102D8000F5CFD80117969C91911103C0DA94D11018
:102D90005BCFF701138A178A168A0084F185E02D2C
:102DA0009781992331F0B701665F7F4FCF010E9471
:102DB0007F14D70152968C9352971896ED91FC91FF
:102DC0001997148218968D919C910E94AE0E61966F
:102DD0000FB6F894DEBF0FBECDBFDF91CF911F912C
:102DE0000F91FF90EF90DF90CF90BF90089582E019
:102DF00090E090939E0680939D0684ED99E00C945C
:102E00005B13CF93FC018081882371F01082C28113
:102E10008181882321F061E08C2F0E94E90B60E022
:102E20008C2FCF910C94B30BCF91089510921F0863
:102E300010922B0884ED99E00E940117EDEAF9E069
:102E40001182108287E082830E94050881E00C9441
:102E50008508CF939CEF980F933018F0C1E08B302A
:102E600079F48091DD06811104C0C091DE06CC2387
:102E700051F010922B0880911F0880FF32C0C0E0F3
:102E80008C2FCF91089584ED99E00E940117109244
:102E90001F0880912B0880FDF2CF82FDF0CF48EB18
:102EA0005BE060E070E0409320085093210860935D
:102EB00022087093230840932408509325086093B8
:102EC00026087093270826E137E130932A082093DB
:102ED00029081092280881608D7F8B7F80932B08B2
:102EE000CFCF82FDCCCF48EB5BE060E070E0409359
:102EF00014085093150860931608709317084093B0
:102F000018085093190860931A0870931B0827EF4C
:102F100036E130931E0820931D0891E090931C0821
:102F200081608D7F8B7F80931F08A9CF9EEF980FC4
:102F3000923008F063C01092CB07833079F189EEAC
:102F400099E00E945B1380EF99E00E945B1380EC94
:102F500094EDA1E0B0E08093C0079093C107A093E7
:102F6000C207B093C3078093C4079093C507A0938B
:102F7000C607B093C70786E997E19093CA07809385
:102F8000C90783E08093C8078091CB0781608D7F5C
:102F90008B7F8093CB0781E10C94D41389EE99E069
:102FA0000E94011780EF99E00E94011782E10E94C0
:102FB000D41380E395E7A0E0B0E08093C00790933E
:102FC000C107A093C207B093C3078093C40790932F
:102FD000C507A093C607B093C70786E997E190930A
:102FE000CA078093C90784E08093C8078091CB0704
:102FF00081608D7F8B7F8093CB0708951092AE09FF
:103000001092AD098AE08093AF090E94050880E024
:103010000C9485081F93CF93DF93EC018A819B81E9
:10302000FC012481222369F00E9401171D8281E0A6
:103030008F8380E20E94D41380E0DF91CF911F91B3
:103040000895888199810E94011711E01E838A8169
:103050009B812C8130E0FC01368325830E945B1329
:103060008FE10E94D4131D8381E0E7CF0F931F935C
:10307000CF93DF93EC018091E00A813021F0823020
:1030800061F010E004C080E20E94D41311E0812FAF
:10309000DF91CF911F910F9108951D811123B9F3F5
:1030A0000E81011114C08881998101E0FC01048323
:1030B0000E940117CE010E940A18882329F010925D
:1030C000E1060E94FE03DDCF0F831D82E0CF8A81DF
:1030D0009B8111E0FC0114830E9401171D821F8354
:1030E000102FD5CFCF93DF93EC018D81811119C0C3
:1030F0009F81911116C02E81222369F08A819B81C4
:10310000FC013481332381F0211108C0CE01DF910D
:10311000CF910C940A1888819981F2CF81E08F8336
:1031200080E0DF91CF9108952C8130E036832583B4
:103130000E945B1381E08D83F4CFCF9390E00097E2
:1031400069F5C1E0C093B20961E08091B3090E94C2
:10315000B30B84EF91E0A0E0B0E0809380089093FF
:103160008108A0938208B093830880938408909389
:103170008508A0938608B09387088DE998E190931D
:103180008A0880938908C093880880918B088160A1
:103190008D7F8B7F80938B08CF9108950197E1F706
:1031A00088ED9AE00E94721886E48093DC0A809190
:1031B000DD0A882389F38091DE0A882341F080911B
:1031C000DA0A9091DB0A66E4CF910C94F8118091B1
:1031D000D80A9091D90AF7CF90E0009749F582EB91
:1031E00099E00E94CE1384EF91E0A0E0B0E08093DC
:1031F000740890937508A0937608B093770880932D
:10320000780890937908A0937A08B0937B088CEEA5
:1032100098E190937E0880937D0881E080937C08FC
:1032200080917F0881608D7F8B7F80937F080895D8
:10323000019741F41092E1060E94FE0388ED9AE0A6
:103240000C9472180895CF93DF93EC0188819981D3
:103250000E9401178A819B810E9401171D82DF91C4
:10326000CF9108951092AE091092AD091092730893
:1032700010927F0810928B0880ED9AE00E9423192B
:1032800088ED9AE00E94231980ED9AE00E942319AC
:10329000E091D00AF091D10A1482E091D20AF09123
:1032A000D30A14821092D60A1092D70A88ED9AE0B7
:1032B0000E942319E091D80AF091D90A1482E09172
:1032C000DA0AF091DB0A14821092DE0A1092DF0A09
:1032D00084ED99E00E9401178BED99E00E9401179F
:1032E00082EE99E00E94011789EE99E00E94011791
:1032F00080EF99E00E94011787EF99E00E94011783
:103300008EEF99E00E94011782EB99E00E94CE13A4
:1033100084EB99E00E94CE1386EB99E00E94CE13D5
:1033200085E09AE00E94C81387E09AE00E94C813E3
:1033300089E09AE00E94C8138BE09AE00E94AD10E9
:1033400087E59AE00E94AD101092E10A1092B00A4F
:103350001092BF071092CB071092EF071092E3076D
:10336000109207081092D707109213080895109230
:10337000A30A1092410A80E692E00C943219CF938E
:10338000C82F1092A8081092A9081092AA081092AB
:10339000AB080E94B71910927A0986E080939C09C5
:1033A000C0939D09CF910895CF93C62F1092CC065C
:1033B00010929E0610929D060E94B7198091AF0947
:1033C0008C50823010F01092AF0980919F068E7F52
:1033D000846080939F061092DA051092D9051092AE
:1033E000E3051092E2051092EC051092EB051092A5
:1033F000F5051092F4051092530710925F07109292
:103400006B07109277071092830710929B07109218
:10341000A70710921F0810922B08109247071092CE
:103420003708109243081092CC06C11104C089E1FC
:10343000CF910C94D413CF9108950E94B91190911B
:10344000C803882321F094609093C80308959B7F5C
:103450009093C8038091E106811107C08091C70352
:103460008D7F8B7F8093C703089580ED9AE00E9443
:10347000E31181112AC01092E2068091C7038D7F6B
:103480008093C70388ED9AE00E94E311882309F432
:1034900067C02091E2053091E3058091E4059091A9
:1034A000E5052817390708F456C081E090E09093AD
:1034B000DF058093DE058091DE059091DF050197A1
:1034C0002091E605211151C008952091D905309130
:1034D000DA058091DB059091DC0528173907B0F1FA
:1034E00081E090E09093D6058093D5058091D50535
:1034F0009091D60501972091DD05222319F21092B3
:10350000DD05029708F4B7CF8091E206833018F406
:103510008F5F8093E2068091E206833008F4B2CF99
:103520008091C70381FDAECF82608093C7030E9464
:10353000E10B80ED9AE00E943618882309F4A2CFAF
:1035400060E080E792E00E94D4199CCF1092D605EB
:103550001092D505CBCF1092DF051092DE05ABCFD0
:103560001092E3068091C7037CCF1092E605029784
:10357000B8F38091E306833018F48F5F8093E306FD
:103580008091E3068330A0F08091C70382FD10C0D4
:1035900084608093C7030E94E10B88ED9AE00E944B
:1035A0003618882329F060E083E892E00C94D4195F
:1035B00008950E941D1A85E40E94AD0A2091C80357
:1035C000892B21F028602093C8030895277FFBCF23
:1035D000CF92DF92EF92FF928091CC06882309F47C
:1035E00057C0C0906D06D0906E06E0906F06F090C8
:1035F000700620E030E040ED51E4C701B6010E94C2
:10360000E74E181634F0C12CD12C80EDE82E81E461
:10361000F82E20910D0630910E0640910F06509124
:103620001006C701B6010E94E74E181674F41092F6
:10363000CC0660E088E992E00E94D41989E1FF900D
:10364000EF90DF90CF900C94D41380E395E7A0E047
:10365000B0E08093380890933908A0933A08B0936B
:103660003B0880933C0890933D08A0933E08B0939C
:103670003F0888EE9AE190934208809341081092A7
:1036800040088091430881608D7F8B7F8093430841
:10369000FF90EF90DF90CF900895CF93C82F1092B6
:1036A000370810925F078091E00A823009F056C017
:1036B0008091DE0A811152C088ED9AE00E940A18BA
:1036C000882309F452C080E395E7A0E0B0E080933E
:1036D0002C0890932D08A0932E08B0932F08809368
:1036E000300890933108A0933208B09333088DE4EA
:1036F0009BE1909336088093350881E0C11101C0A9
:1037000080E0809334088091370881608D7F8B7FC3
:1037100080933708CF91089581110BC08CE10E94EE
:10372000D4130E94B71960E090E080E0CF910C9430
:10373000D4198DE1F4CF0E94B7191092AE091092FE
:10374000AD098BE08093AF090E94050880E00E94DC
:1037500085088CE10E94D4138EE10FC08091C703CD
:103760008870CC23C9F2882331F30E94B71960E036
:1037700090E080E00E94D4198DE1CF910C94D41395
:103780008F929F92AF92BF92CF92DF92EF92FF9271
:103790001F93CF93DF93CDB7DEB768970FB6F8943A
:1037A000DEBF0FBECDBF182F109277078091AF09F3
:1037B0008C30D9F481E08093AC098DEA92E00E94CC
:1037C00032191092AF0968960FB6F894DEBF0FBE9B
:1037D000CDBFDF91CF911F91FF90EF90DF90CF9001
:1037E000BF90AF909F908F900895CE0101960E9458
:1037F0002A04C988DA88EB88FC8820E030E040EDB4
:1038000051E4C701B6010E94E74E181634F0C12CEE
:10381000D12C80EDE82E81E4F82E8D889E88AF882B
:10382000B88C81E08093AC099091E10A911109C0B4
:103830008093E10A1093AF090E94050888E10E9475
:10384000D413A7019601C501B4010E94E74E1816D2
:10385000ECF4E0915C0AF0915D0A20915E0A3091EF
:103860005F0A80E69AEEA0E0B0E080839183A283B5
:10387000B38384839583A683B78332872187108798
:10388000838581608D7F8B7F83879DCF1092E10A36
:1038900087E09AE00E94C81389E09AE00E94C8136A
:1038A00089EE99E00E94011780EF99E00E940117CC
:1038B0008ACF1092830791E09093AC099091AF0961
:1038C0009D3039F48093AF090E94050886E10C947D
:1038D000D4139C3031F489EB92E00E94321910929B
:1038E000AF0908958091B0099091B1098330910595
:1038F00091F1892B81F11092E1060E94FE0388ED7F
:103900009AE00E94231984EF91E0A0E0B0E0809358
:10391000740890937508A0937608B0937708809305
:10392000780890937908A0937A08B0937B088CEE7E
:1039300098E190937E0880937D0810927C08809196
:103940007F0881608D7F8B7F80937F081092B10903
:103950001092B00908951092B1091092B00988ED43
:103960009AE00C9472189093B30A8093B20A109262
:10397000E1060E94FE0380ED9AE00E94231984EF85
:1039800091E0A0E0B0E08093680890936908A0936C
:103990006A08B0936B0880936C0890936D08A093AD
:1039A0006E08B0936F088FED90E290937208809349
:1039B000710810927008E3E7F8E0808181608D7FE4
:1039C0008B7F808308959091AF09981729F09530E7
:1039D00091F020F4943089F080E00895963011F150
:1039E0009B30D1F78430B9F08630B1F78093AF09BE
:1039F00081E090E009C0843051F08B3069F78BE0B2
:103A00008093AF0990E080E00E94B31CE5CF8093E3
:103A1000AF0981E008958093AF0982E090E00E94B1
:103A2000B31CF7CF8B30C1F68BE09AE00E94D9101F
:103A30008DE08093AF09D0CF10929B078091C9068B
:103A40009091CA06009751F00297A9F48BE00E946A
:103A5000E31C1092CA061092C90608958091CC0604
:103A6000811109C086E00E94E31C81E090E0909300
:103A7000CA068093C90608951092A7078091C906C7
:103A80009091CA068130910521F058F0029791F08B
:103A900008958BE00E94E31C1092CA061092C9069A
:103AA000089584E00E94E31C82E090E09093CA06AF
:103AB0008093C9061092430808958230A9F51092A8
:103AC000BF0784ED99E00E94011788ED9AE00E94FB
:103AD000231982EE99E00E945B1380E395E7A0E052
:103AE000B0E08093B4079093B507A093B607B09366
:103AF000B7078093B8079093B907A093BA07B0931C
:103B0000BB078DE59DE19093BE078093BD0781E0E3
:103B10008093BC078091BF0781608D7F8B7F8093EE
:103B2000BF078EE00C94D4131092AE091092AD0929
:103B300089E08093AF090E94050880E00C94850815
:103B4000FC0101900020E9F73197AF01481B590BA8
:103B5000BC018BEC93E00C948C0D84EC92E00C9403
:103B6000A01DCF93DF930E94D009EC010E94AD1DF0
:103B70008C0F9D1FDF91CF9108958F929F92AF92EE
:103B8000BF920F931F93CF93DF93CDB7DEB7A1976B
:103B90000FB6F894DEBF0FBECDBF19A2423008F4B5
:103BA0004AE08E010F5D1F4F842E912CB12CA12C69
:103BB000A50194010E94AA4CE62FB901CA01EA307E
:103BC000F4F4E05DD801EE938D01232B242B252BFB
:103BD00079F790E080E0109719F0CD010E94A01DC8
:103BE000A1960FB6F894DEBF0FBECDBFDF91CF9187
:103BF0001F910F91BF90AF909F908F900895E95CB7
:103C0000E1CF4F925F926F927F928F929F92AF928D
:103C1000BF92CF92DF92EF92FF920F931F93CF93B9
:103C20006B017C01742EAC019B010E948C4F882398
:103C300099F087EC92E0CF911F910F91FF90EF9058
:103C4000DF90CF90BF90AF909F908F907F906F90BC
:103C50005F904F900C94A01D46015701E894B7F86F
:103C60002FEF3FEF4FE75FE7C501B4010E948C4F94
:103C700081110DC02FEF3FEF4FE75FE7C501B401A2
:103C80000E94884D18161CF48BEC92E0D4CF2FEFD5
:103C90003FEF4FE75FE4C701B6010E94E74E1816F9
:103CA0001CF48FEC92E0C7CF2FEF3FEF4FE75FECB4
:103CB000C701B6010E94884D87FDF3CF20E030E0B8
:103CC000A901C701B6010E94884D10E000E087FFFE
:103CD0000AC06DE28BEC93E00E9483098C01F7FA35
:103CE000F094F7F8F094C0E060E070E080E09FE3CB
:103CF0007C1641F020E030E040E251E40E948D4D1E
:103D0000CF5FF6CFA70196010E941C4D2B013C010D
:103D10000E94064E4B015C014AE00E94BD1D7C01E1
:103D2000E00EF11ECC23C1F1C501B4010E94354E55
:103D30009B01AC01C301B2010E941B4D4B015C0110
:103D40006EE28BEC93E00E948309E80EF91EC150ED
:103D500018F120E030E040E251E4C501B4010E94D6
:103D60001F4F2B013C010E94064E4B01B12CA12C90
:103D70004AE0C501B4010E94BD1DE80EF91EC5014F
:103D8000B4010E94354E9B01AC01C301B2010E94F7
:103D90001B4D4B015C01DBCFC701CF911F910F91F0
:103DA000FF90EF90DF90CF90BF90AF909F908F905B
:103DB0007F906F905F904F9008950C94011ECF9369
:103DC000DF930E94011EEC010E94AD1D8C0F9D1F10
:103DD000DF91CF910895CF92DF92EF92FF921F93E0
:103DE000CF93DF93EC016A017B0120E030E0A90171
:103DF000CB01B6010E94884D87FD34C020E030E041
:103E000048EC52E4C701B6010E94E74E181674F15F
:103E10001C81612F70E090E080E00E94374EA70186
:103E200096010E941F4F20E030E048EC52E40E94CF
:103E30008D4D0E94EC4ED62EF12CE12CE116E8F4CB
:103E40009C81E91658F461E0ED1408F060E0EA8125
:103E5000FB81EE0DFF1D80810E94B30B8FEFE81AEE
:103E6000F80AECCFC12CD12C7601D2CFC12CD12CA9
:103E700088ECE82E82E4F82ECBCFDF91CF911F9112
:103E8000FF90EF90DF90CF9008953F924F925F9216
:103E90006F927F928F929F92AF92BF92CF92DF925A
:103EA000EF92FF920F931F93CF93DF9300D000D038
:103EB000CDB7DEB79E838D83CB01BA010E94FF4D43
:103EC000AD81BE811D967C936E931C971A962D91A1
:103ED0003C911B97A901461B570B9E96ED90FC90B9
:103EE0009F97E61AF70A9F967C936E939E979996F2
:103EF0002C91222331F0519541955109F194E1948F
:103F0000F108ED81FE8130A4BA01550F880B990BA1
:103F10000E94374E4B015C0110E000E031100DC0F3
:103F2000AD81BE8150962D913D914D915C915397FD
:103F30000E941F4F0E94FF4D8B01B701FF0C880BA1
:103F4000990B0E94374E6B017C01AD81BE81949626
:103F50008D919D910D90BC91A02D89839A83AB8307
:103F6000BC83ED81FE81208D318D428D538DC70143
:103F7000B6010E941F4F29813A814B815C810E94CA
:103F80008D4D2B013C01B801110F880B990B0E943C
:103F9000374E9B01AC01C301B2010E941C4D0E942F
:103FA000FF4D2B01AD81BE811F967C936E931E97B2
:103FB00054962D913D914D915C915797C501B40157
:103FC0000E941F4F29813A814B815C810E941F4FC3
:103FD000ED81FE81248D358D468D578D0E941C4DBF
:103FE0004B015C01AD81BE815C968D929D92AD923C
:103FF000BC925F973320A1F050962D913D914D9149
:104000005C915397C701B6010E941F4FA50194010F
:104010000E941C4DED81FE81648F758F868F978F76
:10402000AD81BE815C968C905C975D969C905D970F
:104030005E96AC905E975F96BC905F979A960D9156
:104040001C91B801012E000C880B990B0E94374E71
:104050006B017C019B01AC01B401C5010E94884D3C
:1040600087FD16C0ED81FE8164A575A5072E000CA5
:10407000880B990B0E94374E6B017C019B01AC01B0
:10408000B401C5010E94E74E181614F064017501D1
:10409000C601D701ED81FE81848F958FA68FB78FE2
:1040A000B201550C880B990B0E94374E9601A7015F
:1040B0000E941C4D0E94FF4D601771074CF0AD81AE
:1040C000BE819C960D911C91601771070CF48B01B9
:1040D000ED81FE8117870687F4806F2D70E090E0F8
:1040E00080E00E94374E4B015C01B801110F880B34
:1040F000990B0E94374E9B01AC01C501B4010E948F
:104100001F4F20E030E048EC52E40E948D4D0E94A9
:10411000EC4EF61608F46F2DAD81BE81DF966C93E0
:1041200026960FB6F894DEBF0FBECDBFDF91CF91BC
:104130001F910F91FF90EF90DF90CF90BF90AF90C5
:104140009F908F907F906F905F904F903F900895D9
:10415000CF92DF92EF92FF92CF93DF93CDB7DEB78E
:1041600068970FB6F894DEBF0FBECDBFCE010196A3
:104170000E942A04C980DA80EB80FC808091140AB6
:10418000882331F0B701A6018BE09AE00E94451F19
:104190008091600A882331F0B701A60187E59AE093
:1041A0000E94451F68960FB6F894DEBF0FBECDBFC4
:1041B000DF91CF91FF90EF90DF90CF9008951F9304
:1041C000CF93DF93CDB7DEB768970FB6F894DEBF15
:1041D0000FBECDBF90E0009709F045C08091B20AB4
:1041E0009091B30A8230910580F1029799F184EFA2
:1041F00091E0A0E0B0E08093680890936908A093F4
:104200006A08B0936B0880936C0890936D08A09334
:104210006E08B0936F088FED90E2909372088093D0
:10422000710881E0809370088091730881608D7FB0
:104230008B7F8093730868960FB6F894DEBF0FBE2D
:10424000CDBFDF91CF911F91089586EB99E00E9439
:10425000CE13CDCF81E08093B60961E08091B7099C
:104260000E94B30BC4CF019731F7E5EDF5E0DE0115
:10427000119685E696E044AD55AD66AD77AD4D93AC
:104280005D936D937D9378968E179F07A1F780912C
:10429000B20A9091B30A81309105B9F0029709F4FE
:1042A00042C08091140A882339F08BE09AE00E9482
:1042B000D9108DE08093AF098091600A882311F1B5
:1042C00087E59AE00E94D9101DC069817A818B81AF
:1042D0009C810E94064E81E08093140A862F90E014
:1042E0009093160A8093150A70E090E080E00E9497
:1042F000354EAB01BC018BE09AE00E94451F85E181
:104300000E94D4131092E1060E94FE0380ED9AE011
:1043100068960FB6F894DEBF0FBECDBFDF91CF9188
:104320001F910C94721889EE99E00E945B1380EF44
:1043300099E00E945B1311E01093080A61E08091FC
:10434000070A0E94B30B10930A0A61E08091090AE0
:104350000E94B30B69817A818B819C810E94064EF9
:104360001092E10A1093600A862F90E09093620AFF
:104370008093610A70E090E080E00E94354EAB01CE
:10438000BC0187E59AE00E94451F87E1B9CF8F9273
:104390009F92AF92BF92CF92DF92EF92FF920F93D4
:1043A0001F93CF93DF93CDB7DEB761970FB6F89425
:1043B000DEBF0FBECDBF91E3892E94E4992E99E420
:1043C000A92E90E5B92E89829A82AB82BC8291E0B7
:1043D0009D834E835F83688779870A871B872C8735
:1043E0003D87CE86DF86E88AF98AF12CE12C882386
:1043F00019F081E1E82EF12CCE0101966C0110E05C
:1044000000E0F60191906F015701A00EB11EC501A9
:104410000E94894C981621F0692DC5010E94914C8B
:104420000F5F1F4F0131110561F761960FB6F894C8
:10443000DEBF0FBECDBFDF91CF911F910F91FF90D7
:10444000EF90DF90CF90BF90AF909F908F900895A6
:10445000CF92DF92EF92FF920F931F93CF93DF9350
:10446000EB01811145C090E080E06E0121E1C20EB8
:10447000D11C8E017C01EC1AFD0AC701800F911F2F
:104480000E94894CF80181938F01EC15FD05A9F775
:1044900088819981AA81BB8181339444A944B04524
:1044A000E1F48C818130C9F46D817E818F819885A2
:1044B0000E94A210892B89F069857A858B859C855D
:1044C0000E94A210892B49F06D857E858F85988981
:1044D0000E94A21021E0892B09F420E0822FDF91B5
:1044E000CF911F910F91FF90EF90DF90CF900895A3
:1044F00081E190E0BACFFF920F931F93CF93DF93A8
:10450000CDB7DEB7C456D1090FB6F894DEBF0FBEE3
:10451000CDBFFC01F1804F2D50E08E010F5F1F4F8A
:10452000BC01C8010E94B6508091C6008091C600AF
:104530008091C1008F778093C1008091C100886015
:104540008093C100F8018E2F801B8F1588F4819114
:104550008093C6008091C00086FFFCCF8091C00090
:1045600080648093C0008091C6008091C600EBCF2C
:10457000CC59DF4F0FB6F894DEBF0FBECDBFDF9131
:10458000CF911F910F91FF900C949C102F923F920E
:104590004F925F926F927F928F929F92AF92BF9253
:1045A000CF92DF92EF92FF920F931F93CF93DF93FF
:1045B000CDB7DEB7C25ED1400FB6F894DEBF0FBEF6
:1045C000CDBF84E6E5E5F3E0DE01AB59BF4F0190D6
:1045D0000D928A95E1F780E69AEEA0E0B0E0809334
:1045E0008C0890938D08A0938E08B0938F088093C9
:1045F000900890939108A0939208B093930886EF47
:104600009FE090939608809395081092940880916B
:10461000970883608B7F80939708A896EFADA89743
:10462000E550E83308F05CC0F0E08827E55EFC4D1B
:104630008F4F0C94FF4CDC277023022470237023CF
:1046400070237023702370237023702370237023D2
:104650009E23C023ED23F7230B248A237924BD2432
:10466000EC244625702370235825C0251C2653238F
:1046700038266526EF268B2681277023702370232A
:10468000B427702370237023702370237023E827CE
:10469000F8270428B1282129582A2024AB2A852B61
:1046A000772CC02C7F2DC090C703D090C803E0901A
:1046B000C903F090CA0361E2CE0101960E94301056
:1046C000CF82D886E986FA868BE08A83CE0101966E
:1046D0000E941910CE0101960E947B221092500375
:1046E000CE51DE4F0FB6F894DEBF0FBECDBFDF91C7
:1046F000CF911F910F91FF90EF90DF90CF90BF90DF
:10470000AF909F908F907F906F905F904F903F9071
:104710002F9008951092C7031092C8031092C903F6
:104720001092CA0361E2CE0101960E9430101F82EE
:10473000188619861A868BE08A83B5C1CE01875305
:104740009F4F0E94D60A88E0FE01E753FF4FDE012B
:10475000A154BE4F01900D928A95E1F762E1CE011E
:1047600001960E9430108FE08A8388E0FE01E154B8
:10477000FE4FDE01179601900D928A95E1F793C1E5
:104780001092C7031092C8031092C9031092CA0373
:10479000A9969FADA9971092AE091092AD0990937A
:1047A000AF099B3011F0973039F4AA968FADAA97D4
:1047B000869583708093E00AAA968FADAA9780FFB2
:1047C0000CC09B3051F48BE00E942917882329F0FC
:1047D0000E94050880E00E9485081091AF0964E1FD
:1047E000CE0101960E9430101F8388E0A5CF8091F2
:1047F000AF090E942917882329F00E94050880E04C
:104800000E948508CE0101960E949110CE0101966A
:104810000E947B2265CF8091AF098B3019F08450C4
:10482000833040F41092C7031092C8031092C9035A
:104830001092CA0360E083ED92E00E94D419E2CFA7
:1048400081E08093CC0681E090E090939E06809377
:104850009D061092A30A1092410A1092AE0910927E
:10486000AD091092730810927F0810928B0884EDA6
:1048700099E00E9401178BED99E00E94011782EEEA
:1048800099E00E94011782EB99E00E94CE1384EB1D
:1048900099E00E94CE138BE09AE00E94AD108091C7
:1048A0009F0681608B7F80939F06C0906D06D0909D
:1048B0006E06E0906F06F090700620E030E040ED6C
:1048C00051E4C701B6010E94E74E181634F0C12C1E
:1048D000D12C30EDE32E31E4F32EC0921106D092AC
:1048E0001206E0921306F09214068AE10E94D41395
:1048F00089CFE5E6F0E0EC0FFD1F3396A5EDB5E0BE
:1049000085E690E08C0F9D1F4B96419151916191EE
:104910007191DC964D935D936D937C93DF975896E0
:104920008E179F0791F788E1E5E6F0E0EC0FFD1F99
:104930003396DE01AE5DBE4F01900D928A95E1F790
:1049400068E1CE0101960E9430108FE18A8388E1F0
:10495000FE01EE5DFE4FDE01179601900D928A95E5
:10496000E1F7CE0101960E941910CE0101960E9436
:104970007B2288E10E94F80FB3CEA5EDB5E0CE0111
:1049800087539F4F25E636E0182F092FDC964D916F
:104990005D916D917C91DF97FC01419351936193FF
:1049A0007193CF0158962A173B0781F788E1E12FD1
:1049B000F02FDE01A65FBE4F01900D928A95E1F7C0
:1049C00069E1CE0101960E9430108FE18A8388E16F
:1049D000FE01E65FFE4FCDCEA9966FADA99760931D
:1049E000D40A862F90E0E091D00AF091D10A968304
:1049F0008583E091D20AF091D30A96838583AA96A3
:104A00008FADAA978093DC0A282F30E0E091D80A76
:104A1000F091D90A36832583E091DA0AF091DB0A16
:104A2000368325836093B80A8093B90A88EB99E0AE
:104A30000E94F811A9966FADA9978FEB99E00E949B
:104A4000F811AA966FADAA9786EC99E00E94F8112A
:104A5000AA966FADAA978DEC99E00E94F81100918B
:104A6000BD091091CB096AE1CE0101960E94301078
:104A700089E08A830F831887CE0101960E9419105E
:104A8000CE0101960E947B228AE174CF0091BD097C
:104A90001091CB096BE1CE0101960E94301089E0A4
:104AA0008A830F831887CE0101960E941910AECE1B
:104AB000AA968EAD9FADAA979093DC058093DB05F7
:104AC000AC968EAD9FADAC979093E5058093E405D1
:104AD000AE968EAD9FADAE979093EE058093ED05AB
:104AE000E0968EAD9FADE0979093F7058093F60525
:104AF000E2968EAD9FADE2979093FD058093FC0505
:104B0000E4968EAD9FADE4979093020680930106E4
:104B1000E6968EAD9FADE6979093070680930606C6
:104B2000E8968EAD9FADE89790930C0680930B06A8
:104B300082E1E5E6F0E0EC0FFD1F3396DE01AE58B2
:104B4000BE4F01900D928A95E1F76EE1CE0101967C
:104B50000E94301089E18A8382E1FE01EE58FE4F07
:104B6000DE01179601900D928A95E1F7CE0101962C
:104B70000E941910CE0101960E947B228EE1FACE8E
:104B80000091E4051091E505A091ED05B091EE05C9
:104B9000E091F605F091F7056091FC057091FD0537
:104BA00040910106509102062091060630910706B9
:104BB00080910B0690910C06E090DB05F090DC05EF
:104BC000C05ADE4FF982E882C056D140CE59DE4F3E
:104BD00019830883C256D140CC59DE4FB983A883CC
:104BE000C456D140CA59DE4FF983E883C656D14036
:104BF000C859DE4F79836883C856D140C659DE4F05
:104C000059834883CA56D140C459DE4F398328831B
:104C1000CC56D140C259DE4F99838883CE56D140BD
:104C20006FE1CE0101960E94301089E18A8382E112
:104C3000FE01E05AFE4F9DCDCE0187539F4F0E944B
:104C40002A0488E1FE01E753FF4FDE01AE50BF4F5B
:104C500001900D928A95E1F760E2CE0101960E94E3
:104C600030108FE18A8388E1FE01EE50FF4F81CD45
:104C700005E610E00C0F1D1F0D5F1F4FC8010E94BD
:104C8000510880E1F801DE01AC56BE4F01900D9253
:104C90008A95E1F762E2CE0101960E94301080E130
:104CA000FE01EC56FE4FDE01179601900D928A959B
:104CB000E1F787E18A83CE0101960E941910CE01A7
:104CC00001960E947B2282E255CE80E1E1EAF6E085
:104CD000DE01A753BF4F01900D928A95E1F780E165
:104CE000FE01E753FF4FDE01AC57BE4F01900D921E
:104CF0008A95E1F763E2CE0101960E94301080E1CF
:104D0000FE01EC57FE4FDE01179601900D928A9539
:104D1000E1F787E111CD6090D9057090DA058090B8
:104D2000E2059090E3054090EB055090EC05009172
:104D3000F4051091F5058091F9050E94250C5C01A0
:104D40008091FE050E94250C6C01809103060E9453
:104D5000250C7C01809108060E94250CC25BDE4F69
:104D600079826882CE54D140C05BDE4F99828882BE
:104D7000C055D140CE5ADE4F59824882C255D140EB
:104D8000CC5ADE4F19830883C455D140CA5ADE4F2E
:104D9000B982A882C655D140C85ADE4FD982C8828E
:104DA000C855D140C65ADE4FF982E882CA55D14073
:104DB000C45ADE4F99838883CC55D14065E2CE0139
:104DC00001960E94301082E1FE01E25BFE4FDE019F
:104DD000179601900D928A95E1F789E1ADCCA996DD
:104DE0008FADA997982F9F77923009F461C070F525
:104DF0009923B1F1913009F449C08091B80990919B
:104E0000C609892B9091BF09892B9091CD09892BD7
:104E10008093A30ACE0187539F4F0E94D60A88E051
:104E2000FE01E753FF4FDE01A954BE4F01900D92E2
:104E30008A95E1F764E2CE0101960E9430108FE07E
:104E40008A8388E0FE01E954FE4F93CC933009F445
:104E500041C0943091F687FF4FC082EE99E004C0C4
:104E600087FF05C088EB99E00E940117C6CF88EB49
:104E700099E00E945B138091B9098111E090BD090E
:104E80006E2D88EB99E00E94F811B7CF87FF03C021
:104E90008FEB99E0E9CF8FEB99E00E945B13809153
:104EA000C0098111F090C4096F2D8FEB99E0EBCF11
:104EB00087FF03C086EC99E0D7CF86EC99E00E948B
:104EC0005B138091C70981110091CB09602F86EC9B
:104ED00099E0D9CF87FF03C08DEC99E0C5CF8DEC69
:104EE00099E00E945B138091CE0981111091D20943
:104EF000612F8DEC99E0C7CF82EE99E00E945B13A1
:104F00007CCF81E20E94AD0A4C0180E20E94AD0A92
:104F10005C01F090DD060091DE0685E40E94AD0A9A
:104F20006C0184E40E94AD0A9C0191E0892809F09B
:104F300090E010E090FB10F991E0AB2809F090E0D0
:104F400090FB11F991E0CD2809F090E090FB12F967
:104F500091E0232B09F090E090FB13F9F0FA14F99B
:104F600000FB15F966E23CCC8BE0E5E6F0E0EC0FE7
:104F7000FD1F3396DE01AC55BE4F01900D928A9510
:104F8000E1F76AE2CE0101960E9430108BE0FE014B
:104F9000EC55FE4FDE01179601900D928A95E1F7D0
:104FA00082E18A83CE0101960E941910CE010196FA
:104FB0000E947B228AE2DECC1092C7031092C803C3
:104FC0001092C9031092CA0361E080EE92E035CCE2
:104FD00061E3CE0101960E9430108BE08A8384E168
:104FE00090E0A4E0B1E08F839887A987BA875BCD72
:104FF00062E3CE0101960E9430108BE08A838DE23D
:1050000095E3A0E0B0E0EFCFE4966CAD7DAD8EAD62
:105010009FADE4970E94354E6B017C01E0966CAD2C
:105020007DAD8EAD9FADE0970E94354E4B015C018A
:10503000AC966CAD7DAD8EAD9FADAC970E94354EFC
:105040002B013C0120E030E84BEB54E4C701B601F2
:105050000E94884D87FF07C0C12C20E8D22E2BEB81
:10506000E22E24E4F22E20E030E84BEB54E4C501BC
:10507000B4010E94884D87FF07C0812C90E8992ECB
:105080009BEBA92E94E4B92E20E030E84BEB54E4DE
:10509000C301B2010E94884D87FF07C0412C80E800
:1050A000582E8BEB682E84E4782EE8964CAD5DADDF
:1050B0006EAD7FADE897EC968CAD9DADAEADBFAD5E
:1050C000EC974092B1065092B2066092B30670928D
:1050D000B4068092B5069092B606A092B706B0923A
:1050E000B806C092B906D092BA06E092BB06F0921A
:1050F000BC064093C1065093C2066093C3067093EA
:10510000C4068093C5069093C606A093C706B093C5
:10511000C80684E1E5E6F0E0EC0FFD1F3396DE0102
:10512000A65CBE4F01900D928A95E1F763E3CE0134
:1051300001960E9430108BE18A8384E1FE01E65CD7
:10514000FE4FDE01179601900D928A95E1F7CE0190
:1051500001960E941910CE0101960E947B2283E3E2
:1051600009CC8091C1069091C206A091C306B0916E
:10517000C406C953DE4F88839983AA83BB83C75C67
:10518000D1408091C5069091C606A091C706B09106
:10519000C806C553DE4F88839983AA83BB83CB5C43
:1051A000D1406091B9067091BA068091BB0690918A
:1051B000BC060E94064E6B017C016091B5067091A1
:1051C000B6068091B7069091B8060E94064E4B0134
:1051D0005C016091B1067091B2068091B306909126
:1051E000B4060E94064E2B013C0164E3CE010196F9
:1051F0000E9430108BE18A834F82588669867A86B6
:105200008B869C86AD86BE86CF86D88AE98AFA8A46
:10521000C953DE4F88819981AA81BB81C75CD14087
:105220008B8B9C8BAD8BBE8BC553DE4F8881998158
:10523000AA81BB81CB5CD1408F8B988FA98FBA8F0D
:1052400032CCA9961FADA997AA960FADAA97AB9697
:105250005FADAB97AC964FADAC97AD963FADAD970C
:10526000AE962FADAE97AF969FADAF97E0968FAD50
:10527000E09719830A835B834C833D832E839F834E
:10528000888788EB99E015FF07C10E945B138FEBBD
:1052900099E016FF04C10E945B1386EC99E017FFAA
:1052A00001C10E945B138DEC99E000FFFEC00E94DB
:1052B0005B136981617085E30E94B30B6A8163FBB4
:1052C000662760F987E10E94B30B6A8166FB662757
:1052D00060F986E10E94B30B698162FB662760F981
:1052E0008FE10E94B30B6A8167FB662760F981E159
:1052F0000E94B30B6981669561708BE10E94B30BCC
:105300006A8162FB662760F988E10E94B30B6A81BB
:105310006695617089E10E94B30B6A816295617044
:1053200080E10E94B30B6A8165FB662760F98FE01C
:105330000E94B30B6B8161708EE00E94B30B6B8196
:10534000669561708DE00E94B30B6B8162FB6627EE
:1053500060F98CE00E94B30B6B8167FB662760F9F4
:1053600085E20E94B30B6C81617084E20E94B30BF2
:105370006C816695617087E20E94B30B6C8162FB61
:10538000662760F986E20E94B30B6C8163FB662797
:1053900060F989E20E94B30B6C816295617088E2CA
:1053A0000E94B30B6C8165FB662760F98BE20E945B
:1053B000B30B6C8166FB662760F98AE20E94B30B2F
:1053C0006B8163FB662760F98CE20E94B30B6B81F3
:1053D000629561708EE20E94B30B6B8165FB66275C
:1053E00060F98DE20E94B30B6B8166FB662760F962
:1053F0008FE20E94B30B698163FB662760F98DE140
:105400000E94B30B6981629561708EE10E94B30BBB
:10541000C753DF4F1882C95CD040C653DF4F188294
:10542000CA5CD040C553DF4F1882CB5CD040C45318
:10543000DF4F1882CC5CD040C353DF4F1882CD5C65
:10544000D040C253DF4F1882CE5CD040C153DF4FF3
:105450001882CF5CD040C053DF4F1882C05DD0406F
:10546000CE0187539F4F0E94D60A88E0FE01E75382
:10547000FF4FDE01A155BE4F01900D928A95E1F7D5
:1054800065E3CE0101960E9430108FE08A8388E0A8
:10549000FE01E155FE4F6DC90E940117F8CE0E9432
:1054A0000117FBCE0E940117FECE0E94011701CF0B
:1054B000CE0101960E949110CE0101960E947B229E
:1054C000109217076CE975E08DE096E00E940816CF
:1054D00067E775E085E296E00E94081662E575E0F0
:1054E0008DE396E00E9408166DE275E085E596E092
:1054F0000E94081668E075E08DE696E00E940816A6
:1055000063EE74E085E896E00E9408168091AF068D
:105510009091B006B0E0A0E080930C0790930D0747
:10552000A0930E07B0930F07809310079093110775
:10553000A0931207B093130788EC95E19093160798
:1055400080931507109214078091170783608B7F53
:1055500080931707C5C8A9968FADA997882309F42A
:10556000BFC0AA968FADAA9780935209AB968FAD14
:10557000AB9780935309AF968CAD9DADAEADBFADEB
:10558000AF978093540990935509A0935609B0930F
:105590005709E3968CAD9DADAEADBFADE39780935B
:1055A000580990935909A0935A09B0935B09E7965B
:1055B0008CAD9DADAEADBFADE79780935C09909388
:1055C0005D09A0935E09B0935F09EB968CAD9DAD2C
:1055D000AEADBFADEB978093600990936109A09346
:1055E0006209B0936309EF968CAD9DADAEADBFADD2
:1055F000EF978093640990936509A0936609B0932F
:105600006709C158DF4F88819981AA81BB81CF5733
:10561000D0408093680990936909A0936A09B09378
:105620006B09CD57DF4F88819981AA81BB81C3580F
:10563000D04080936C0990936D09A0936E09B0934C
:105640006F09C957DF4F88819981AA81BB81C758EB
:10565000D0408093700990937109A0937209B09320
:105660007309C557DF4F88819981AA81BB81CB58C7
:10567000D0408093740990937509A0937609B093F4
:105680007709C157DF4F88819981CF58D0409093D7
:105690007909809378091092AE091092AD098EE0D5
:1056A0008093AF090E94050880E00E94850889E286
:1056B000E5E6F0E0EC0FFD1F3396DE01A753BF4F88
:1056C00001900D928A95E1F768E3CE0101960E9460
:1056D000301080E38A8389E2FE01E753FF4F49C817
:1056E00080919C098150833010F71092A808109285
:1056F000A9081092AA081092AB080E94B71985E079
:1057000080939C0910929D09D2CF80919C09815071
:1057100011E0833008F010E090915209C953DE4F38
:105720009883C75CD1400091530940905409509030
:1057300055096090560970905709809158099091C9
:105740005909A0915A09B0915B09C553DE4F88836E
:105750009983AA83BB83CB5CD14080915C099091F3
:105760005D09A0915E09B0915F09C153DE4F888346
:105770009983AA83BB83CF5CD140809160099091CB
:105780006109A0916209B0916309CD52DE4F88830F
:105790009983AA83BB83C35DD140809164099091B2
:1057A0006509A0916609B0916709C952DE4F8883E7
:1057B0009983AA83BB83C75DD1408091680990918A
:1057C0006909A0916A09B0916B09C552DE4F8883BF
:1057D0009983AA83BB83CB5DD14080916C09909162
:1057E0006D09A0916E09B0916F09C152DE4F888397
:1057F0009983AA83BB83CF5DD1408090700990903C
:105800007109A0907209B0907309C0907409D0908A
:105810007509E0907609F09077092090780930902A
:10582000790969E3CE0101960E94301080E38A83F2
:105830001F83C953DE4F9881C75CD1409887098781
:105840004A865B866C867D86C553DE4F888199814A
:10585000AA81BB81CB5CD1408E879F87A88BB98BF7
:10586000C153DE4F88819981AA81BB81CF5CD14031
:105870008A8B9B8BAC8BBD8BCD52DE4F88819981FF
:10588000AA81BB81C35DD1408E8B9F8BA88FB98FBE
:10589000C952DE4F88819981AA81BB81C75DD14001
:1058A0008A8F9B8FAC8FBD8FC552DE4F88819981C7
:1058B000AA81BB81CB5DD1408E8F9F8FA8A3B9A356
:1058C000C152DE4F88819981AA81BB81CF5DD140D1
:1058D0008AA39BA3ACA3BDA38EA29FA2A8A6B9A690
:1058E000CAA6DBA6ECA6FDA63FA62EA6DCC8F090B5
:1058F0009C09E0909D0980919E0990919F09A0913B
:10590000A009B091A109892B8A2B8B2BA9F194E0D6
:10591000F9121DC0209198093091990940919A0976
:1059200050919B090FEF1FEF21153105A1E04A07A8
:10593000510508F489016AE3CE0101960E943010F6
:105940008BE08A83FF82E8861A870987ACC80E94A9
:105950004F0D00919E0910919F092091A00930914F
:10596000A109601B710B820B930B28EE33E040E022
:1059700050E00E94AA4CD6CF20E030E0A901DACF57
:1059800000917A0910917B0940907C0950907D0923
:1059900060907E0970907F098090800990908109C5
:1059A000A0908209B0908309C0908409D0908509A5
:1059B000E0908609F0908709809188099091890983
:1059C000A0918A09B0918B09C953DE4F88839983CE
:1059D000AA83BB83C75CD14080918C0990918D09CB
:1059E000A0918E09B0918F09C553DE4F88839983AA
:1059F000AA83BB83CB5CD14080919009909191099F
:105A0000A0919209B0919309C153DE4F8883998385
:105A1000AA83BB83CF5CD140809194099091950972
:105A2000A0919609B0919709CD52DE4F8883998352
:105A3000AA83BB83C35DD140809198099091990955
:105A4000A0919A09B0919B09C952DE4F888399832E
:105A5000AA83BB83C75DD1406BE3CE0101960E9450
:105A6000301089E28A830F83188749865A866B86AD
:105A70007C868D869E86AF86B88AC98ADA8AEB8A4A
:105A8000FC8AC953DE4F88819981AA81BB81C75C9A
:105A9000D1408D8B9E8BAF8BB88FC553DE4F8881E5
:105AA0009981AA81BB81CB5CD140898F9A8FAB8FC2
:105AB000BC8FC153DE4F88819981AA81BB81CF5CA5
:105AC000D1408D8F9E8FAF8FB8A3CD52DE4F88818E
:105AD0009981AA81BB81C35DD14089A39AA3ABA35D
